{
	"week6_practice/parent.sol": {
		"AnimalSet": {
			"abi": [
				{
					"inputs": [
						{
							"internalType": "string",
							"name": "name1",
							"type": "string"
						},
						{
							"internalType": "string",
							"name": "name2",
							"type": "string"
						}
					],
					"stateMutability": "nonpayable",
					"type": "constructor"
				},
				{
					"inputs": [],
					"name": "dog",
					"outputs": [
						{
							"internalType": "contract Animal",
							"name": "",
							"type": "address"
						}
					],
					"stateMutability": "view",
					"type": "function"
				},
				{
					"inputs": [],
					"name": "getAllNames",
					"outputs": [
						{
							"internalType": "string",
							"name": "",
							"type": "string"
						},
						{
							"internalType": "string",
							"name": "",
							"type": "string"
						}
					],
					"stateMutability": "view",
					"type": "function"
				},
				{
					"inputs": [],
					"name": "tiger",
					"outputs": [
						{
							"internalType": "contract Animal",
							"name": "",
							"type": "address"
						}
					],
					"stateMutability": "view",
					"type": "function"
				}
			],
			"devdoc": {
				"kind": "dev",
				"methods": {},
				"version": 1
			},
			"evm": {
				"assembly": "    /* \"week6_practice/parent.sol\":471:823  contract AnimalSet{... */\n  mstore(0x40, 0x80)\n    /* \"week6_practice/parent.sol\":546:671  constructor(string memory name1, string memory name2){... */\n  callvalue\n  dup1\n  iszero\n  tag_1\n  jumpi\n  0x00\n  dup1\n  revert\ntag_1:\n  pop\n  mload(0x40)\n  sub(codesize, bytecodeSize)\n  dup1\n  bytecodeSize\n  dup4\n  codecopy\n  dup2\n  dup2\n  add\n  0x40\n  mstore\n  dup2\n  add\n  swap1\n  tag_2\n  swap2\n  swap1\n  tag_3\n  jump\t// in\ntag_2:\n    /* \"week6_practice/parent.sol\":627:632  name1 */\n  dup2\n    /* \"week6_practice/parent.sol\":617:633  new Tiger(name1) */\n  mload(0x40)\n  tag_6\n  swap1\n  tag_7\n  jump\t// in\ntag_6:\n  tag_8\n  swap2\n  swap1\n  tag_9\n  jump\t// in\ntag_8:\n  mload(0x40)\n  dup1\n  swap2\n  sub\n  swap1\n  0x00\n  create\n  dup1\n  iszero\n  dup1\n  iszero\n  tag_10\n  jumpi\n  returndatasize\n  0x00\n  dup1\n  returndatacopy\n  revert(0x00, returndatasize)\ntag_10:\n  pop\n    /* \"week6_practice/parent.sol\":610:615  tiger */\n  0x00\n  dup1\n    /* \"week6_practice/parent.sol\":610:633  tiger= new Tiger(name1) */\n  0x0100\n  exp\n  dup2\n  sload\n  dup2\n  0xffffffffffffffffffffffffffffffffffffffff\n  mul\n  not\n  and\n  swap1\n  dup4\n  0xffffffffffffffffffffffffffffffffffffffff\n  and\n  mul\n  or\n  swap1\n  sstore\n  pop\n    /* \"week6_practice/parent.sol\":657:662  name2 */\n  dup1\n    /* \"week6_practice/parent.sol\":649:663  new Dog(name2) */\n  mload(0x40)\n  tag_11\n  swap1\n  tag_12\n  jump\t// in\ntag_11:\n  tag_13\n  swap2\n  swap1\n  tag_9\n  jump\t// in\ntag_13:\n  mload(0x40)\n  dup1\n  swap2\n  sub\n  swap1\n  0x00\n  create\n  dup1\n  iszero\n  dup1\n  iszero\n  tag_14\n  jumpi\n  returndatasize\n  0x00\n  dup1\n  returndatacopy\n  revert(0x00, returndatasize)\ntag_14:\n  pop\n    /* \"week6_practice/parent.sol\":644:647  dog */\n  0x01\n  0x00\n    /* \"week6_practice/parent.sol\":644:663  dog= new Dog(name2) */\n  0x0100\n  exp\n  dup2\n  sload\n  dup2\n  0xffffffffffffffffffffffffffffffffffffffff\n  mul\n  not\n  and\n  swap1\n  dup4\n  0xffffffffffffffffffffffffffffffffffffffff\n  and\n  mul\n  or\n  swap1\n  sstore\n  pop\n    /* \"week6_practice/parent.sol\":546:671  constructor(string memory name1, string memory name2){... */\n  pop\n  pop\n    /* \"week6_practice/parent.sol\":471:823  contract AnimalSet{... */\n  jump(tag_15)\ntag_7:\n  dataSize(sub_1)\n  dup1\n  dataOffset(sub_1)\n  dup4\n  codecopy\n  add\n  swap1\n  jump\t// out\ntag_12:\n  dataSize(sub_2)\n  dup1\n  dataOffset(sub_2)\n  dup4\n  codecopy\n  add\n  swap1\n  jump\t// out\n    /* \"#utility.yul\":7:82   */\ntag_16:\n    /* \"#utility.yul\":40:46   */\n  0x00\n    /* \"#utility.yul\":73:75   */\n  0x40\n    /* \"#utility.yul\":67:76   */\n  mload\n    /* \"#utility.yul\":57:76   */\n  swap1\n  pop\n    /* \"#utility.yul\":7:82   */\n  swap1\n  jump\t// out\n    /* \"#utility.yul\":88:205   */\ntag_17:\n    /* \"#utility.yul\":197:198   */\n  0x00\n    /* \"#utility.yul\":194:195   */\n  dup1\n    /* \"#utility.yul\":187:199   */\n  revert\n    /* \"#utility.yul\":211:328   */\ntag_18:\n    /* \"#utility.yul\":320:321   */\n  0x00\n    /* \"#utility.yul\":317:318   */\n  dup1\n    /* \"#utility.yul\":310:322   */\n  revert\n    /* \"#utility.yul\":334:451   */\ntag_19:\n    /* \"#utility.yul\":443:444   */\n  0x00\n    /* \"#utility.yul\":440:441   */\n  dup1\n    /* \"#utility.yul\":433:445   */\n  revert\n    /* \"#utility.yul\":457:574   */\ntag_20:\n    /* \"#utility.yul\":566:567   */\n  0x00\n    /* \"#utility.yul\":563:564   */\n  dup1\n    /* \"#utility.yul\":556:568   */\n  revert\n    /* \"#utility.yul\":580:682   */\ntag_21:\n    /* \"#utility.yul\":621:627   */\n  0x00\n    /* \"#utility.yul\":672:674   */\n  0x1f\n    /* \"#utility.yul\":668:675   */\n  not\n    /* \"#utility.yul\":663:665   */\n  0x1f\n    /* \"#utility.yul\":656:661   */\n  dup4\n    /* \"#utility.yul\":652:666   */\n  add\n    /* \"#utility.yul\":648:676   */\n  and\n    /* \"#utility.yul\":638:676   */\n  swap1\n  pop\n    /* \"#utility.yul\":580:682   */\n  swap2\n  swap1\n  pop\n  jump\t// out\n    /* \"#utility.yul\":688:868   */\ntag_22:\n    /* \"#utility.yul\":736:813   */\n  0x4e487b7100000000000000000000000000000000000000000000000000000000\n    /* \"#utility.yul\":733:734   */\n  0x00\n    /* \"#utility.yul\":726:814   */\n  mstore\n    /* \"#utility.yul\":833:837   */\n  0x41\n    /* \"#utility.yul\":830:831   */\n  0x04\n    /* \"#utility.yul\":823:838   */\n  mstore\n    /* \"#utility.yul\":857:861   */\n  0x24\n    /* \"#utility.yul\":854:855   */\n  0x00\n    /* \"#utility.yul\":847:862   */\n  revert\n    /* \"#utility.yul\":874:1155   */\ntag_23:\n    /* \"#utility.yul\":957:984   */\n  tag_41\n    /* \"#utility.yul\":979:983   */\n  dup3\n    /* \"#utility.yul\":957:984   */\n  tag_21\n  jump\t// in\ntag_41:\n    /* \"#utility.yul\":949:955   */\n  dup2\n    /* \"#utility.yul\":945:985   */\n  add\n    /* \"#utility.yul\":1087:1093   */\n  dup2\n    /* \"#utility.yul\":1075:1085   */\n  dup2\n    /* \"#utility.yul\":1072:1094   */\n  lt\n    /* \"#utility.yul\":1051:1069   */\n  0xffffffffffffffff\n    /* \"#utility.yul\":1039:1049   */\n  dup3\n    /* \"#utility.yul\":1036:1070   */\n  gt\n    /* \"#utility.yul\":1033:1095   */\n  or\n    /* \"#utility.yul\":1030:1118   */\n  iszero\n  tag_42\n  jumpi\n    /* \"#utility.yul\":1098:1116   */\n  tag_43\n  tag_22\n  jump\t// in\ntag_43:\n    /* \"#utility.yul\":1030:1118   */\ntag_42:\n    /* \"#utility.yul\":1138:1148   */\n  dup1\n    /* \"#utility.yul\":1134:1136   */\n  0x40\n    /* \"#utility.yul\":1127:1149   */\n  mstore\n    /* \"#utility.yul\":917:1155   */\n  pop\n    /* \"#utility.yul\":874:1155   */\n  pop\n  pop\n  jump\t// out\n    /* \"#utility.yul\":1161:1290   */\ntag_24:\n    /* \"#utility.yul\":1195:1201   */\n  0x00\n    /* \"#utility.yul\":1222:1242   */\n  tag_45\n  tag_16\n  jump\t// in\ntag_45:\n    /* \"#utility.yul\":1212:1242   */\n  swap1\n  pop\n    /* \"#utility.yul\":1251:1284   */\n  tag_46\n    /* \"#utility.yul\":1279:1283   */\n  dup3\n    /* \"#utility.yul\":1271:1277   */\n  dup3\n    /* \"#utility.yul\":1251:1284   */\n  tag_23\n  jump\t// in\ntag_46:\n    /* \"#utility.yul\":1161:1290   */\n  swap2\n  swap1\n  pop\n  jump\t// out\n    /* \"#utility.yul\":1296:1604   */\ntag_25:\n    /* \"#utility.yul\":1358:1362   */\n  0x00\n    /* \"#utility.yul\":1448:1466   */\n  0xffffffffffffffff\n    /* \"#utility.yul\":1440:1446   */\n  dup3\n    /* \"#utility.yul\":1437:1467   */\n  gt\n    /* \"#utility.yul\":1434:1490   */\n  iszero\n  tag_48\n  jumpi\n    /* \"#utility.yul\":1470:1488   */\n  tag_49\n  tag_22\n  jump\t// in\ntag_49:\n    /* \"#utility.yul\":1434:1490   */\ntag_48:\n    /* \"#utility.yul\":1508:1537   */\n  tag_50\n    /* \"#utility.yul\":1530:1536   */\n  dup3\n    /* \"#utility.yul\":1508:1537   */\n  tag_21\n  jump\t// in\ntag_50:\n    /* \"#utility.yul\":1500:1537   */\n  swap1\n  pop\n    /* \"#utility.yul\":1592:1596   */\n  0x20\n    /* \"#utility.yul\":1586:1590   */\n  dup2\n    /* \"#utility.yul\":1582:1597   */\n  add\n    /* \"#utility.yul\":1574:1597   */\n  swap1\n  pop\n    /* \"#utility.yul\":1296:1604   */\n  swap2\n  swap1\n  pop\n  jump\t// out\n    /* \"#utility.yul\":1610:1749   */\ntag_26:\n    /* \"#utility.yul\":1699:1705   */\n  dup3\n    /* \"#utility.yul\":1694:1697   */\n  dup2\n    /* \"#utility.yul\":1689:1692   */\n  dup4\n    /* \"#utility.yul\":1683:1706   */\n  mcopy\n    /* \"#utility.yul\":1740:1741   */\n  0x00\n    /* \"#utility.yul\":1731:1737   */\n  dup4\n    /* \"#utility.yul\":1726:1729   */\n  dup4\n    /* \"#utility.yul\":1722:1738   */\n  add\n    /* \"#utility.yul\":1715:1742   */\n  mstore\n    /* \"#utility.yul\":1610:1749   */\n  pop\n  pop\n  pop\n  jump\t// out\n    /* \"#utility.yul\":1755:2189   */\ntag_27:\n    /* \"#utility.yul\":1844:1849   */\n  0x00\n    /* \"#utility.yul\":1869:1935   */\n  tag_53\n    /* \"#utility.yul\":1885:1934   */\n  tag_54\n    /* \"#utility.yul\":1927:1933   */\n  dup5\n    /* \"#utility.yul\":1885:1934   */\n  tag_25\n  jump\t// in\ntag_54:\n    /* \"#utility.yul\":1869:1935   */\n  tag_24\n  jump\t// in\ntag_53:\n    /* \"#utility.yul\":1860:1935   */\n  swap1\n  pop\n    /* \"#utility.yul\":1958:1964   */\n  dup3\n    /* \"#utility.yul\":1951:1956   */\n  dup2\n    /* \"#utility.yul\":1944:1965   */\n  mstore\n    /* \"#utility.yul\":1996:2000   */\n  0x20\n    /* \"#utility.yul\":1989:1994   */\n  dup2\n    /* \"#utility.yul\":1985:2001   */\n  add\n    /* \"#utility.yul\":2034:2037   */\n  dup5\n    /* \"#utility.yul\":2025:2031   */\n  dup5\n    /* \"#utility.yul\":2020:2023   */\n  dup5\n    /* \"#utility.yul\":2016:2032   */\n  add\n    /* \"#utility.yul\":2013:2038   */\n  gt\n    /* \"#utility.yul\":2010:2122   */\n  iszero\n  tag_55\n  jumpi\n    /* \"#utility.yul\":2041:2120   */\n  tag_56\n  tag_20\n  jump\t// in\ntag_56:\n    /* \"#utility.yul\":2010:2122   */\ntag_55:\n    /* \"#utility.yul\":2131:2183   */\n  tag_57\n    /* \"#utility.yul\":2176:2182   */\n  dup5\n    /* \"#utility.yul\":2171:2174   */\n  dup3\n    /* \"#utility.yul\":2166:2169   */\n  dup6\n    /* \"#utility.yul\":2131:2183   */\n  tag_26\n  jump\t// in\ntag_57:\n    /* \"#utility.yul\":1850:2189   */\n  pop\n    /* \"#utility.yul\":1755:2189   */\n  swap4\n  swap3\n  pop\n  pop\n  pop\n  jump\t// out\n    /* \"#utility.yul\":2209:2564   */\ntag_28:\n    /* \"#utility.yul\":2276:2281   */\n  0x00\n    /* \"#utility.yul\":2325:2328   */\n  dup3\n    /* \"#utility.yul\":2318:2322   */\n  0x1f\n    /* \"#utility.yul\":2310:2316   */\n  dup4\n    /* \"#utility.yul\":2306:2323   */\n  add\n    /* \"#utility.yul\":2302:2329   */\n  slt\n    /* \"#utility.yul\":2292:2414   */\n  tag_59\n  jumpi\n    /* \"#utility.yul\":2333:2412   */\n  tag_60\n  tag_19\n  jump\t// in\ntag_60:\n    /* \"#utility.yul\":2292:2414   */\ntag_59:\n    /* \"#utility.yul\":2443:2449   */\n  dup2\n    /* \"#utility.yul\":2437:2450   */\n  mload\n    /* \"#utility.yul\":2468:2558   */\n  tag_61\n    /* \"#utility.yul\":2554:2557   */\n  dup5\n    /* \"#utility.yul\":2546:2552   */\n  dup3\n    /* \"#utility.yul\":2539:2543   */\n  0x20\n    /* \"#utility.yul\":2531:2537   */\n  dup7\n    /* \"#utility.yul\":2527:2544   */\n  add\n    /* \"#utility.yul\":2468:2558   */\n  tag_27\n  jump\t// in\ntag_61:\n    /* \"#utility.yul\":2459:2558   */\n  swap2\n  pop\n    /* \"#utility.yul\":2282:2564   */\n  pop\n    /* \"#utility.yul\":2209:2564   */\n  swap3\n  swap2\n  pop\n  pop\n  jump\t// out\n    /* \"#utility.yul\":2570:3423   */\ntag_3:\n    /* \"#utility.yul\":2669:2675   */\n  0x00\n    /* \"#utility.yul\":2677:2683   */\n  dup1\n    /* \"#utility.yul\":2726:2728   */\n  0x40\n    /* \"#utility.yul\":2714:2723   */\n  dup4\n    /* \"#utility.yul\":2705:2712   */\n  dup6\n    /* \"#utility.yul\":2701:2724   */\n  sub\n    /* \"#utility.yul\":2697:2729   */\n  slt\n    /* \"#utility.yul\":2694:2813   */\n  iszero\n  tag_63\n  jumpi\n    /* \"#utility.yul\":2732:2811   */\n  tag_64\n  tag_17\n  jump\t// in\ntag_64:\n    /* \"#utility.yul\":2694:2813   */\ntag_63:\n    /* \"#utility.yul\":2873:2874   */\n  0x00\n    /* \"#utility.yul\":2862:2871   */\n  dup4\n    /* \"#utility.yul\":2858:2875   */\n  add\n    /* \"#utility.yul\":2852:2876   */\n  mload\n    /* \"#utility.yul\":2903:2921   */\n  0xffffffffffffffff\n    /* \"#utility.yul\":2895:2901   */\n  dup2\n    /* \"#utility.yul\":2892:2922   */\n  gt\n    /* \"#utility.yul\":2889:3006   */\n  iszero\n  tag_65\n  jumpi\n    /* \"#utility.yul\":2925:3004   */\n  tag_66\n  tag_18\n  jump\t// in\ntag_66:\n    /* \"#utility.yul\":2889:3006   */\ntag_65:\n    /* \"#utility.yul\":3030:3104   */\n  tag_67\n    /* \"#utility.yul\":3096:3103   */\n  dup6\n    /* \"#utility.yul\":3087:3093   */\n  dup3\n    /* \"#utility.yul\":3076:3085   */\n  dup7\n    /* \"#utility.yul\":3072:3094   */\n  add\n    /* \"#utility.yul\":3030:3104   */\n  tag_28\n  jump\t// in\ntag_67:\n    /* \"#utility.yul\":3020:3104   */\n  swap3\n  pop\n    /* \"#utility.yul\":2823:3114   */\n  pop\n    /* \"#utility.yul\":3174:3176   */\n  0x20\n    /* \"#utility.yul\":3163:3172   */\n  dup4\n    /* \"#utility.yul\":3159:3177   */\n  add\n    /* \"#utility.yul\":3153:3178   */\n  mload\n    /* \"#utility.yul\":3205:3223   */\n  0xffffffffffffffff\n    /* \"#utility.yul\":3197:3203   */\n  dup2\n    /* \"#utility.yul\":3194:3224   */\n  gt\n    /* \"#utility.yul\":3191:3308   */\n  iszero\n  tag_68\n  jumpi\n    /* \"#utility.yul\":3227:3306   */\n  tag_69\n  tag_18\n  jump\t// in\ntag_69:\n    /* \"#utility.yul\":3191:3308   */\ntag_68:\n    /* \"#utility.yul\":3332:3406   */\n  tag_70\n    /* \"#utility.yul\":3398:3405   */\n  dup6\n    /* \"#utility.yul\":3389:3395   */\n  dup3\n    /* \"#utility.yul\":3378:3387   */\n  dup7\n    /* \"#utility.yul\":3374:3396   */\n  add\n    /* \"#utility.yul\":3332:3406   */\n  tag_28\n  jump\t// in\ntag_70:\n    /* \"#utility.yul\":3322:3406   */\n  swap2\n  pop\n    /* \"#utility.yul\":3124:3416   */\n  pop\n    /* \"#utility.yul\":2570:3423   */\n  swap3\n  pop\n  swap3\n  swap1\n  pop\n  jump\t// out\n    /* \"#utility.yul\":3429:3528   */\ntag_29:\n    /* \"#utility.yul\":3481:3487   */\n  0x00\n    /* \"#utility.yul\":3515:3520   */\n  dup2\n    /* \"#utility.yul\":3509:3521   */\n  mload\n    /* \"#utility.yul\":3499:3521   */\n  swap1\n  pop\n    /* \"#utility.yul\":3429:3528   */\n  swap2\n  swap1\n  pop\n  jump\t// out\n    /* \"#utility.yul\":3534:3703   */\ntag_30:\n    /* \"#utility.yul\":3618:3629   */\n  0x00\n    /* \"#utility.yul\":3652:3658   */\n  dup3\n    /* \"#utility.yul\":3647:3650   */\n  dup3\n    /* \"#utility.yul\":3640:3659   */\n  mstore\n    /* \"#utility.yul\":3692:3696   */\n  0x20\n    /* \"#utility.yul\":3687:3690   */\n  dup3\n    /* \"#utility.yul\":3683:3697   */\n  add\n    /* \"#utility.yul\":3668:3697   */\n  swap1\n  pop\n    /* \"#utility.yul\":3534:3703   */\n  swap3\n  swap2\n  pop\n  pop\n  jump\t// out\n    /* \"#utility.yul\":3709:4086   */\ntag_31:\n    /* \"#utility.yul\":3797:3800   */\n  0x00\n    /* \"#utility.yul\":3825:3864   */\n  tag_74\n    /* \"#utility.yul\":3858:3863   */\n  dup3\n    /* \"#utility.yul\":3825:3864   */\n  tag_29\n  jump\t// in\ntag_74:\n    /* \"#utility.yul\":3880:3951   */\n  tag_75\n    /* \"#utility.yul\":3944:3950   */\n  dup2\n    /* \"#utility.yul\":3939:3942   */\n  dup6\n    /* \"#utility.yul\":3880:3951   */\n  tag_30\n  jump\t// in\ntag_75:\n    /* \"#utility.yul\":3873:3951   */\n  swap4\n  pop\n    /* \"#utility.yul\":3960:4025   */\n  tag_76\n    /* \"#utility.yul\":4018:4024   */\n  dup2\n    /* \"#utility.yul\":4013:4016   */\n  dup6\n    /* \"#utility.yul\":4006:4010   */\n  0x20\n    /* \"#utility.yul\":3999:4004   */\n  dup7\n    /* \"#utility.yul\":3995:4011   */\n  add\n    /* \"#utility.yul\":3960:4025   */\n  tag_26\n  jump\t// in\ntag_76:\n    /* \"#utility.yul\":4050:4079   */\n  tag_77\n    /* \"#utility.yul\":4072:4078   */\n  dup2\n    /* \"#utility.yul\":4050:4079   */\n  tag_21\n  jump\t// in\ntag_77:\n    /* \"#utility.yul\":4045:4048   */\n  dup5\n    /* \"#utility.yul\":4041:4080   */\n  add\n    /* \"#utility.yul\":4034:4080   */\n  swap2\n  pop\n    /* \"#utility.yul\":3801:4086   */\n  pop\n    /* \"#utility.yul\":3709:4086   */\n  swap3\n  swap2\n  pop\n  pop\n  jump\t// out\n    /* \"#utility.yul\":4092:4405   */\ntag_9:\n    /* \"#utility.yul\":4205:4209   */\n  0x00\n    /* \"#utility.yul\":4243:4245   */\n  0x20\n    /* \"#utility.yul\":4232:4241   */\n  dup3\n    /* \"#utility.yul\":4228:4246   */\n  add\n    /* \"#utility.yul\":4220:4246   */\n  swap1\n  pop\n    /* \"#utility.yul\":4292:4301   */\n  dup2\n    /* \"#utility.yul\":4286:4290   */\n  dup2\n    /* \"#utility.yul\":4282:4302   */\n  sub\n    /* \"#utility.yul\":4278:4279   */\n  0x00\n    /* \"#utility.yul\":4267:4276   */\n  dup4\n    /* \"#utility.yul\":4263:4280   */\n  add\n    /* \"#utility.yul\":4256:4303   */\n  mstore\n    /* \"#utility.yul\":4320:4398   */\n  tag_79\n    /* \"#utility.yul\":4393:4397   */\n  dup2\n    /* \"#utility.yul\":4384:4390   */\n  dup5\n    /* \"#utility.yul\":4320:4398   */\n  tag_31\n  jump\t// in\ntag_79:\n    /* \"#utility.yul\":4312:4398   */\n  swap1\n  pop\n    /* \"#utility.yul\":4092:4405   */\n  swap3\n  swap2\n  pop\n  pop\n  jump\t// out\n    /* \"week6_practice/parent.sol\":471:823  contract AnimalSet{... */\ntag_15:\n  dataSize(sub_0)\n  dup1\n  dataOffset(sub_0)\n  0x00\n  codecopy\n  0x00\n  return\nstop\n\nsub_0: assembly {\n        /* \"week6_practice/parent.sol\":471:823  contract AnimalSet{... */\n      mstore(0x40, 0x80)\n      callvalue\n      dup1\n      iszero\n      tag_1\n      jumpi\n      0x00\n      dup1\n      revert\n    tag_1:\n      pop\n      jumpi(tag_2, lt(calldatasize, 0x04))\n      shr(0xe0, calldataload(0x00))\n      dup1\n      0x44d333ff\n      eq\n      tag_3\n      jumpi\n      dup1\n      0xc3b3ad7f\n      eq\n      tag_4\n      jumpi\n      dup1\n      0xfb825e5f\n      eq\n      tag_5\n      jumpi\n    tag_2:\n      0x00\n      dup1\n      revert\n        /* \"week6_practice/parent.sol\":496:515  Animal public tiger */\n    tag_3:\n      tag_6\n      tag_7\n      jump\t// in\n    tag_6:\n      mload(0x40)\n      tag_8\n      swap2\n      swap1\n      tag_9\n      jump\t// in\n    tag_8:\n      mload(0x40)\n      dup1\n      swap2\n      sub\n      swap1\n      return\n        /* \"week6_practice/parent.sol\":522:539  Animal public dog */\n    tag_4:\n      tag_10\n      tag_11\n      jump\t// in\n    tag_10:\n      mload(0x40)\n      tag_12\n      swap2\n      swap1\n      tag_9\n      jump\t// in\n    tag_12:\n      mload(0x40)\n      dup1\n      swap2\n      sub\n      swap1\n      return\n        /* \"week6_practice/parent.sol\":683:818  function getAllNames() public view returns(string memory, string memory){... */\n    tag_5:\n      tag_13\n      tag_14\n      jump\t// in\n    tag_13:\n      mload(0x40)\n      tag_15\n      swap3\n      swap2\n      swap1\n      tag_16\n      jump\t// in\n    tag_15:\n      mload(0x40)\n      dup1\n      swap2\n      sub\n      swap1\n      return\n        /* \"week6_practice/parent.sol\":496:515  Animal public tiger */\n    tag_7:\n      0x00\n      dup1\n      sload\n      swap1\n      0x0100\n      exp\n      swap1\n      div\n      0xffffffffffffffffffffffffffffffffffffffff\n      and\n      dup2\n      jump\t// out\n        /* \"week6_practice/parent.sol\":522:539  Animal public dog */\n    tag_11:\n      0x01\n      0x00\n      swap1\n      sload\n      swap1\n      0x0100\n      exp\n      swap1\n      div\n      0xffffffffffffffffffffffffffffffffffffffff\n      and\n      dup2\n      jump\t// out\n        /* \"week6_practice/parent.sol\":683:818  function getAllNames() public view returns(string memory, string memory){... */\n    tag_14:\n        /* \"week6_practice/parent.sol\":726:739  string memory */\n      0x60\n        /* \"week6_practice/parent.sol\":741:754  string memory */\n      dup1\n        /* \"week6_practice/parent.sol\":773:778  tiger */\n      0x00\n      dup1\n      sload\n      swap1\n      0x0100\n      exp\n      swap1\n      div\n      0xffffffffffffffffffffffffffffffffffffffff\n      and\n        /* \"week6_practice/parent.sol\":773:789  tiger.getSpecies */\n      0xffffffffffffffffffffffffffffffffffffffff\n      and\n      0x85d7acf5\n        /* \"week6_practice/parent.sol\":773:791  tiger.getSpecies() */\n      mload(0x40)\n      dup2\n      0xffffffff\n      and\n      0xe0\n      shl\n      dup2\n      mstore\n      0x04\n      add\n      0x00\n      mload(0x40)\n      dup1\n      dup4\n      sub\n      dup2\n      dup7\n      gas\n      staticcall\n      iszero\n      dup1\n      iszero\n      tag_19\n      jumpi\n      returndatasize\n      0x00\n      dup1\n      returndatacopy\n      revert(0x00, returndatasize)\n    tag_19:\n      pop\n      pop\n      pop\n      pop\n      mload(0x40)\n      returndatasize\n      0x00\n      dup3\n      returndatacopy\n      returndatasize\n      not(0x1f)\n      0x1f\n      dup3\n      add\n      and\n      dup3\n      add\n      dup1\n      0x40\n      mstore\n      pop\n      dup2\n      add\n      swap1\n      tag_20\n      swap2\n      swap1\n      tag_21\n      jump\t// in\n    tag_20:\n        /* \"week6_practice/parent.sol\":793:796  dog */\n      0x01\n      0x00\n      swap1\n      sload\n      swap1\n      0x0100\n      exp\n      swap1\n      div\n      0xffffffffffffffffffffffffffffffffffffffff\n      and\n        /* \"week6_practice/parent.sol\":793:807  dog.getSpecies */\n      0xffffffffffffffffffffffffffffffffffffffff\n      and\n      0x85d7acf5\n        /* \"week6_practice/parent.sol\":793:809  dog.getSpecies() */\n      mload(0x40)\n      dup2\n      0xffffffff\n      and\n      0xe0\n      shl\n      dup2\n      mstore\n      0x04\n      add\n      0x00\n      mload(0x40)\n      dup1\n      dup4\n      sub\n      dup2\n      dup7\n      gas\n      staticcall\n      iszero\n      dup1\n      iszero\n      tag_23\n      jumpi\n      returndatasize\n      0x00\n      dup1\n      returndatacopy\n      revert(0x00, returndatasize)\n    tag_23:\n      pop\n      pop\n      pop\n      pop\n      mload(0x40)\n      returndatasize\n      0x00\n      dup3\n      returndatacopy\n      returndatasize\n      not(0x1f)\n      0x1f\n      dup3\n      add\n      and\n      dup3\n      add\n      dup1\n      0x40\n      mstore\n      pop\n      dup2\n      add\n      swap1\n      tag_24\n      swap2\n      swap1\n      tag_21\n      jump\t// in\n    tag_24:\n        /* \"week6_practice/parent.sol\":766:810  return(tiger.getSpecies(), dog.getSpecies()) */\n      swap2\n      pop\n      swap2\n      pop\n        /* \"week6_practice/parent.sol\":683:818  function getAllNames() public view returns(string memory, string memory){... */\n      swap1\n      swap2\n      jump\t// out\n        /* \"#utility.yul\":7:133   */\n    tag_25:\n        /* \"#utility.yul\":44:51   */\n      0x00\n        /* \"#utility.yul\":84:126   */\n      0xffffffffffffffffffffffffffffffffffffffff\n        /* \"#utility.yul\":77:82   */\n      dup3\n        /* \"#utility.yul\":73:127   */\n      and\n        /* \"#utility.yul\":62:127   */\n      swap1\n      pop\n        /* \"#utility.yul\":7:133   */\n      swap2\n      swap1\n      pop\n      jump\t// out\n        /* \"#utility.yul\":139:199   */\n    tag_26:\n        /* \"#utility.yul\":167:170   */\n      0x00\n        /* \"#utility.yul\":188:193   */\n      dup2\n        /* \"#utility.yul\":181:193   */\n      swap1\n      pop\n        /* \"#utility.yul\":139:199   */\n      swap2\n      swap1\n      pop\n      jump\t// out\n        /* \"#utility.yul\":205:347   */\n    tag_27:\n        /* \"#utility.yul\":255:264   */\n      0x00\n        /* \"#utility.yul\":288:341   */\n      tag_51\n        /* \"#utility.yul\":306:340   */\n      tag_52\n        /* \"#utility.yul\":315:339   */\n      tag_53\n        /* \"#utility.yul\":333:338   */\n      dup5\n        /* \"#utility.yul\":315:339   */\n      tag_25\n      jump\t// in\n    tag_53:\n        /* \"#utility.yul\":306:340   */\n      tag_26\n      jump\t// in\n    tag_52:\n        /* \"#utility.yul\":288:341   */\n      tag_25\n      jump\t// in\n    tag_51:\n        /* \"#utility.yul\":275:341   */\n      swap1\n      pop\n        /* \"#utility.yul\":205:347   */\n      swap2\n      swap1\n      pop\n      jump\t// out\n        /* \"#utility.yul\":353:479   */\n    tag_28:\n        /* \"#utility.yul\":403:412   */\n      0x00\n        /* \"#utility.yul\":436:473   */\n      tag_55\n        /* \"#utility.yul\":467:472   */\n      dup3\n        /* \"#utility.yul\":436:473   */\n      tag_27\n      jump\t// in\n    tag_55:\n        /* \"#utility.yul\":423:473   */\n      swap1\n      pop\n        /* \"#utility.yul\":353:479   */\n      swap2\n      swap1\n      pop\n      jump\t// out\n        /* \"#utility.yul\":485:624   */\n    tag_29:\n        /* \"#utility.yul\":548:557   */\n      0x00\n        /* \"#utility.yul\":581:618   */\n      tag_57\n        /* \"#utility.yul\":612:617   */\n      dup3\n        /* \"#utility.yul\":581:618   */\n      tag_28\n      jump\t// in\n    tag_57:\n        /* \"#utility.yul\":568:618   */\n      swap1\n      pop\n        /* \"#utility.yul\":485:624   */\n      swap2\n      swap1\n      pop\n      jump\t// out\n        /* \"#utility.yul\":630:787   */\n    tag_30:\n        /* \"#utility.yul\":730:780   */\n      tag_59\n        /* \"#utility.yul\":774:779   */\n      dup2\n        /* \"#utility.yul\":730:780   */\n      tag_29\n      jump\t// in\n    tag_59:\n        /* \"#utility.yul\":725:728   */\n      dup3\n        /* \"#utility.yul\":718:781   */\n      mstore\n        /* \"#utility.yul\":630:787   */\n      pop\n      pop\n      jump\t// out\n        /* \"#utility.yul\":793:1041   */\n    tag_9:\n        /* \"#utility.yul\":899:903   */\n      0x00\n        /* \"#utility.yul\":937:939   */\n      0x20\n        /* \"#utility.yul\":926:935   */\n      dup3\n        /* \"#utility.yul\":922:940   */\n      add\n        /* \"#utility.yul\":914:940   */\n      swap1\n      pop\n        /* \"#utility.yul\":950:1034   */\n      tag_61\n        /* \"#utility.yul\":1031:1032   */\n      0x00\n        /* \"#utility.yul\":1020:1029   */\n      dup4\n        /* \"#utility.yul\":1016:1033   */\n      add\n        /* \"#utility.yul\":1007:1013   */\n      dup5\n        /* \"#utility.yul\":950:1034   */\n      tag_30\n      jump\t// in\n    tag_61:\n        /* \"#utility.yul\":793:1041   */\n      swap3\n      swap2\n      pop\n      pop\n      jump\t// out\n        /* \"#utility.yul\":1047:1146   */\n    tag_31:\n        /* \"#utility.yul\":1099:1105   */\n      0x00\n        /* \"#utility.yul\":1133:1138   */\n      dup2\n        /* \"#utility.yul\":1127:1139   */\n      mload\n        /* \"#utility.yul\":1117:1139   */\n      swap1\n      pop\n        /* \"#utility.yul\":1047:1146   */\n      swap2\n      swap1\n      pop\n      jump\t// out\n        /* \"#utility.yul\":1152:1321   */\n    tag_32:\n        /* \"#utility.yul\":1236:1247   */\n      0x00\n        /* \"#utility.yul\":1270:1276   */\n      dup3\n        /* \"#utility.yul\":1265:1268   */\n      dup3\n        /* \"#utility.yul\":1258:1277   */\n      mstore\n        /* \"#utility.yul\":1310:1314   */\n      0x20\n        /* \"#utility.yul\":1305:1308   */\n      dup3\n        /* \"#utility.yul\":1301:1315   */\n      add\n        /* \"#utility.yul\":1286:1315   */\n      swap1\n      pop\n        /* \"#utility.yul\":1152:1321   */\n      swap3\n      swap2\n      pop\n      pop\n      jump\t// out\n        /* \"#utility.yul\":1327:1466   */\n    tag_33:\n        /* \"#utility.yul\":1416:1422   */\n      dup3\n        /* \"#utility.yul\":1411:1414   */\n      dup2\n        /* \"#utility.yul\":1406:1409   */\n      dup4\n        /* \"#utility.yul\":1400:1423   */\n      mcopy\n        /* \"#utility.yul\":1457:1458   */\n      0x00\n        /* \"#utility.yul\":1448:1454   */\n      dup4\n        /* \"#utility.yul\":1443:1446   */\n      dup4\n        /* \"#utility.yul\":1439:1455   */\n      add\n        /* \"#utility.yul\":1432:1459   */\n      mstore\n        /* \"#utility.yul\":1327:1466   */\n      pop\n      pop\n      pop\n      jump\t// out\n        /* \"#utility.yul\":1472:1574   */\n    tag_34:\n        /* \"#utility.yul\":1513:1519   */\n      0x00\n        /* \"#utility.yul\":1564:1566   */\n      0x1f\n        /* \"#utility.yul\":1560:1567   */\n      not\n        /* \"#utility.yul\":1555:1557   */\n      0x1f\n        /* \"#utility.yul\":1548:1553   */\n      dup4\n        /* \"#utility.yul\":1544:1558   */\n      add\n        /* \"#utility.yul\":1540:1568   */\n      and\n        /* \"#utility.yul\":1530:1568   */\n      swap1\n      pop\n        /* \"#utility.yul\":1472:1574   */\n      swap2\n      swap1\n      pop\n      jump\t// out\n        /* \"#utility.yul\":1580:1957   */\n    tag_35:\n        /* \"#utility.yul\":1668:1671   */\n      0x00\n        /* \"#utility.yul\":1696:1735   */\n      tag_67\n        /* \"#utility.yul\":1729:1734   */\n      dup3\n        /* \"#utility.yul\":1696:1735   */\n      tag_31\n      jump\t// in\n    tag_67:\n        /* \"#utility.yul\":1751:1822   */\n      tag_68\n        /* \"#utility.yul\":1815:1821   */\n      dup2\n        /* \"#utility.yul\":1810:1813   */\n      dup6\n        /* \"#utility.yul\":1751:1822   */\n      tag_32\n      jump\t// in\n    tag_68:\n        /* \"#utility.yul\":1744:1822   */\n      swap4\n      pop\n        /* \"#utility.yul\":1831:1896   */\n      tag_69\n        /* \"#utility.yul\":1889:1895   */\n      dup2\n        /* \"#utility.yul\":1884:1887   */\n      dup6\n        /* \"#utility.yul\":1877:1881   */\n      0x20\n        /* \"#utility.yul\":1870:1875   */\n      dup7\n        /* \"#utility.yul\":1866:1882   */\n      add\n        /* \"#utility.yul\":1831:1896   */\n      tag_33\n      jump\t// in\n    tag_69:\n        /* \"#utility.yul\":1921:1950   */\n      tag_70\n        /* \"#utility.yul\":1943:1949   */\n      dup2\n        /* \"#utility.yul\":1921:1950   */\n      tag_34\n      jump\t// in\n    tag_70:\n        /* \"#utility.yul\":1916:1919   */\n      dup5\n        /* \"#utility.yul\":1912:1951   */\n      add\n        /* \"#utility.yul\":1905:1951   */\n      swap2\n      pop\n        /* \"#utility.yul\":1672:1957   */\n      pop\n        /* \"#utility.yul\":1580:1957   */\n      swap3\n      swap2\n      pop\n      pop\n      jump\t// out\n        /* \"#utility.yul\":1963:2477   */\n    tag_16:\n        /* \"#utility.yul\":2124:2128   */\n      0x00\n        /* \"#utility.yul\":2162:2164   */\n      0x40\n        /* \"#utility.yul\":2151:2160   */\n      dup3\n        /* \"#utility.yul\":2147:2165   */\n      add\n        /* \"#utility.yul\":2139:2165   */\n      swap1\n      pop\n        /* \"#utility.yul\":2211:2220   */\n      dup2\n        /* \"#utility.yul\":2205:2209   */\n      dup2\n        /* \"#utility.yul\":2201:2221   */\n      sub\n        /* \"#utility.yul\":2197:2198   */\n      0x00\n        /* \"#utility.yul\":2186:2195   */\n      dup4\n        /* \"#utility.yul\":2182:2199   */\n      add\n        /* \"#utility.yul\":2175:2222   */\n      mstore\n        /* \"#utility.yul\":2239:2317   */\n      tag_72\n        /* \"#utility.yul\":2312:2316   */\n      dup2\n        /* \"#utility.yul\":2303:2309   */\n      dup6\n        /* \"#utility.yul\":2239:2317   */\n      tag_35\n      jump\t// in\n    tag_72:\n        /* \"#utility.yul\":2231:2317   */\n      swap1\n      pop\n        /* \"#utility.yul\":2364:2373   */\n      dup2\n        /* \"#utility.yul\":2358:2362   */\n      dup2\n        /* \"#utility.yul\":2354:2374   */\n      sub\n        /* \"#utility.yul\":2349:2351   */\n      0x20\n        /* \"#utility.yul\":2338:2347   */\n      dup4\n        /* \"#utility.yul\":2334:2352   */\n      add\n        /* \"#utility.yul\":2327:2375   */\n      mstore\n        /* \"#utility.yul\":2392:2470   */\n      tag_73\n        /* \"#utility.yul\":2465:2469   */\n      dup2\n        /* \"#utility.yul\":2456:2462   */\n      dup5\n        /* \"#utility.yul\":2392:2470   */\n      tag_35\n      jump\t// in\n    tag_73:\n        /* \"#utility.yul\":2384:2470   */\n      swap1\n      pop\n        /* \"#utility.yul\":1963:2477   */\n      swap4\n      swap3\n      pop\n      pop\n      pop\n      jump\t// out\n        /* \"#utility.yul\":2483:2558   */\n    tag_36:\n        /* \"#utility.yul\":2516:2522   */\n      0x00\n        /* \"#utility.yul\":2549:2551   */\n      0x40\n        /* \"#utility.yul\":2543:2552   */\n      mload\n        /* \"#utility.yul\":2533:2552   */\n      swap1\n      pop\n        /* \"#utility.yul\":2483:2558   */\n      swap1\n      jump\t// out\n        /* \"#utility.yul\":2564:2681   */\n    tag_37:\n        /* \"#utility.yul\":2673:2674   */\n      0x00\n        /* \"#utility.yul\":2670:2671   */\n      dup1\n        /* \"#utility.yul\":2663:2675   */\n      revert\n        /* \"#utility.yul\":2687:2804   */\n    tag_38:\n        /* \"#utility.yul\":2796:2797   */\n      0x00\n        /* \"#utility.yul\":2793:2794   */\n      dup1\n        /* \"#utility.yul\":2786:2798   */\n      revert\n        /* \"#utility.yul\":2810:2927   */\n    tag_39:\n        /* \"#utility.yul\":2919:2920   */\n      0x00\n        /* \"#utility.yul\":2916:2917   */\n      dup1\n        /* \"#utility.yul\":2909:2921   */\n      revert\n        /* \"#utility.yul\":2933:3050   */\n    tag_40:\n        /* \"#utility.yul\":3042:3043   */\n      0x00\n        /* \"#utility.yul\":3039:3040   */\n      dup1\n        /* \"#utility.yul\":3032:3044   */\n      revert\n        /* \"#utility.yul\":3056:3236   */\n    tag_41:\n        /* \"#utility.yul\":3104:3181   */\n      0x4e487b7100000000000000000000000000000000000000000000000000000000\n        /* \"#utility.yul\":3101:3102   */\n      0x00\n        /* \"#utility.yul\":3094:3182   */\n      mstore\n        /* \"#utility.yul\":3201:3205   */\n      0x41\n        /* \"#utility.yul\":3198:3199   */\n      0x04\n        /* \"#utility.yul\":3191:3206   */\n      mstore\n        /* \"#utility.yul\":3225:3229   */\n      0x24\n        /* \"#utility.yul\":3222:3223   */\n      0x00\n        /* \"#utility.yul\":3215:3230   */\n      revert\n        /* \"#utility.yul\":3242:3523   */\n    tag_42:\n        /* \"#utility.yul\":3325:3352   */\n      tag_81\n        /* \"#utility.yul\":3347:3351   */\n      dup3\n        /* \"#utility.yul\":3325:3352   */\n      tag_34\n      jump\t// in\n    tag_81:\n        /* \"#utility.yul\":3317:3323   */\n      dup2\n        /* \"#utility.yul\":3313:3353   */\n      add\n        /* \"#utility.yul\":3455:3461   */\n      dup2\n        /* \"#utility.yul\":3443:3453   */\n      dup2\n        /* \"#utility.yul\":3440:3462   */\n      lt\n        /* \"#utility.yul\":3419:3437   */\n      0xffffffffffffffff\n        /* \"#utility.yul\":3407:3417   */\n      dup3\n        /* \"#utility.yul\":3404:3438   */\n      gt\n        /* \"#utility.yul\":3401:3463   */\n      or\n        /* \"#utility.yul\":3398:3486   */\n      iszero\n      tag_82\n      jumpi\n        /* \"#utility.yul\":3466:3484   */\n      tag_83\n      tag_41\n      jump\t// in\n    tag_83:\n        /* \"#utility.yul\":3398:3486   */\n    tag_82:\n        /* \"#utility.yul\":3506:3516   */\n      dup1\n        /* \"#utility.yul\":3502:3504   */\n      0x40\n        /* \"#utility.yul\":3495:3517   */\n      mstore\n        /* \"#utility.yul\":3285:3523   */\n      pop\n        /* \"#utility.yul\":3242:3523   */\n      pop\n      pop\n      jump\t// out\n        /* \"#utility.yul\":3529:3658   */\n    tag_43:\n        /* \"#utility.yul\":3563:3569   */\n      0x00\n        /* \"#utility.yul\":3590:3610   */\n      tag_85\n      tag_36\n      jump\t// in\n    tag_85:\n        /* \"#utility.yul\":3580:3610   */\n      swap1\n      pop\n        /* \"#utility.yul\":3619:3652   */\n      tag_86\n        /* \"#utility.yul\":3647:3651   */\n      dup3\n        /* \"#utility.yul\":3639:3645   */\n      dup3\n        /* \"#utility.yul\":3619:3652   */\n      tag_42\n      jump\t// in\n    tag_86:\n        /* \"#utility.yul\":3529:3658   */\n      swap2\n      swap1\n      pop\n      jump\t// out\n        /* \"#utility.yul\":3664:3972   */\n    tag_44:\n        /* \"#utility.yul\":3726:3730   */\n      0x00\n        /* \"#utility.yul\":3816:3834   */\n      0xffffffffffffffff\n        /* \"#utility.yul\":3808:3814   */\n      dup3\n        /* \"#utility.yul\":3805:3835   */\n      gt\n        /* \"#utility.yul\":3802:3858   */\n      iszero\n      tag_88\n      jumpi\n        /* \"#utility.yul\":3838:3856   */\n      tag_89\n      tag_41\n      jump\t// in\n    tag_89:\n        /* \"#utility.yul\":3802:3858   */\n    tag_88:\n        /* \"#utility.yul\":3876:3905   */\n      tag_90\n        /* \"#utility.yul\":3898:3904   */\n      dup3\n        /* \"#utility.yul\":3876:3905   */\n      tag_34\n      jump\t// in\n    tag_90:\n        /* \"#utility.yul\":3868:3905   */\n      swap1\n      pop\n        /* \"#utility.yul\":3960:3964   */\n      0x20\n        /* \"#utility.yul\":3954:3958   */\n      dup2\n        /* \"#utility.yul\":3950:3965   */\n      add\n        /* \"#utility.yul\":3942:3965   */\n      swap1\n      pop\n        /* \"#utility.yul\":3664:3972   */\n      swap2\n      swap1\n      pop\n      jump\t// out\n        /* \"#utility.yul\":3978:4412   */\n    tag_45:\n        /* \"#utility.yul\":4067:4072   */\n      0x00\n        /* \"#utility.yul\":4092:4158   */\n      tag_92\n        /* \"#utility.yul\":4108:4157   */\n      tag_93\n        /* \"#utility.yul\":4150:4156   */\n      dup5\n        /* \"#utility.yul\":4108:4157   */\n      tag_44\n      jump\t// in\n    tag_93:\n        /* \"#utility.yul\":4092:4158   */\n      tag_43\n      jump\t// in\n    tag_92:\n        /* \"#utility.yul\":4083:4158   */\n      swap1\n      pop\n        /* \"#utility.yul\":4181:4187   */\n      dup3\n        /* \"#utility.yul\":4174:4179   */\n      dup2\n        /* \"#utility.yul\":4167:4188   */\n      mstore\n        /* \"#utility.yul\":4219:4223   */\n      0x20\n        /* \"#utility.yul\":4212:4217   */\n      dup2\n        /* \"#utility.yul\":4208:4224   */\n      add\n        /* \"#utility.yul\":4257:4260   */\n      dup5\n        /* \"#utility.yul\":4248:4254   */\n      dup5\n        /* \"#utility.yul\":4243:4246   */\n      dup5\n        /* \"#utility.yul\":4239:4255   */\n      add\n        /* \"#utility.yul\":4236:4261   */\n      gt\n        /* \"#utility.yul\":4233:4345   */\n      iszero\n      tag_94\n      jumpi\n        /* \"#utility.yul\":4264:4343   */\n      tag_95\n      tag_40\n      jump\t// in\n    tag_95:\n        /* \"#utility.yul\":4233:4345   */\n    tag_94:\n        /* \"#utility.yul\":4354:4406   */\n      tag_96\n        /* \"#utility.yul\":4399:4405   */\n      dup5\n        /* \"#utility.yul\":4394:4397   */\n      dup3\n        /* \"#utility.yul\":4389:4392   */\n      dup6\n        /* \"#utility.yul\":4354:4406   */\n      tag_33\n      jump\t// in\n    tag_96:\n        /* \"#utility.yul\":4073:4412   */\n      pop\n        /* \"#utility.yul\":3978:4412   */\n      swap4\n      swap3\n      pop\n      pop\n      pop\n      jump\t// out\n        /* \"#utility.yul\":4432:4787   */\n    tag_46:\n        /* \"#utility.yul\":4499:4504   */\n      0x00\n        /* \"#utility.yul\":4548:4551   */\n      dup3\n        /* \"#utility.yul\":4541:4545   */\n      0x1f\n        /* \"#utility.yul\":4533:4539   */\n      dup4\n        /* \"#utility.yul\":4529:4546   */\n      add\n        /* \"#utility.yul\":4525:4552   */\n      slt\n        /* \"#utility.yul\":4515:4637   */\n      tag_98\n      jumpi\n        /* \"#utility.yul\":4556:4635   */\n      tag_99\n      tag_39\n      jump\t// in\n    tag_99:\n        /* \"#utility.yul\":4515:4637   */\n    tag_98:\n        /* \"#utility.yul\":4666:4672   */\n      dup2\n        /* \"#utility.yul\":4660:4673   */\n      mload\n        /* \"#utility.yul\":4691:4781   */\n      tag_100\n        /* \"#utility.yul\":4777:4780   */\n      dup5\n        /* \"#utility.yul\":4769:4775   */\n      dup3\n        /* \"#utility.yul\":4762:4766   */\n      0x20\n        /* \"#utility.yul\":4754:4760   */\n      dup7\n        /* \"#utility.yul\":4750:4767   */\n      add\n        /* \"#utility.yul\":4691:4781   */\n      tag_45\n      jump\t// in\n    tag_100:\n        /* \"#utility.yul\":4682:4781   */\n      swap2\n      pop\n        /* \"#utility.yul\":4505:4787   */\n      pop\n        /* \"#utility.yul\":4432:4787   */\n      swap3\n      swap2\n      pop\n      pop\n      jump\t// out\n        /* \"#utility.yul\":4793:5317   */\n    tag_21:\n        /* \"#utility.yul\":4873:4879   */\n      0x00\n        /* \"#utility.yul\":4922:4924   */\n      0x20\n        /* \"#utility.yul\":4910:4919   */\n      dup3\n        /* \"#utility.yul\":4901:4908   */\n      dup5\n        /* \"#utility.yul\":4897:4920   */\n      sub\n        /* \"#utility.yul\":4893:4925   */\n      slt\n        /* \"#utility.yul\":4890:5009   */\n      iszero\n      tag_102\n      jumpi\n        /* \"#utility.yul\":4928:5007   */\n      tag_103\n      tag_37\n      jump\t// in\n    tag_103:\n        /* \"#utility.yul\":4890:5009   */\n    tag_102:\n        /* \"#utility.yul\":5069:5070   */\n      0x00\n        /* \"#utility.yul\":5058:5067   */\n      dup3\n        /* \"#utility.yul\":5054:5071   */\n      add\n        /* \"#utility.yul\":5048:5072   */\n      mload\n        /* \"#utility.yul\":5099:5117   */\n      0xffffffffffffffff\n        /* \"#utility.yul\":5091:5097   */\n      dup2\n        /* \"#utility.yul\":5088:5118   */\n      gt\n        /* \"#utility.yul\":5085:5202   */\n      iszero\n      tag_104\n      jumpi\n        /* \"#utility.yul\":5121:5200   */\n      tag_105\n      tag_38\n      jump\t// in\n    tag_105:\n        /* \"#utility.yul\":5085:5202   */\n    tag_104:\n        /* \"#utility.yul\":5226:5300   */\n      tag_106\n        /* \"#utility.yul\":5292:5299   */\n      dup5\n        /* \"#utility.yul\":5283:5289   */\n      dup3\n        /* \"#utility.yul\":5272:5281   */\n      dup6\n        /* \"#utility.yul\":5268:5290   */\n      add\n        /* \"#utility.yul\":5226:5300   */\n      tag_46\n      jump\t// in\n    tag_106:\n        /* \"#utility.yul\":5216:5300   */\n      swap2\n      pop\n        /* \"#utility.yul\":5019:5310   */\n      pop\n        /* \"#utility.yul\":4793:5317   */\n      swap3\n      swap2\n      pop\n      pop\n      jump\t// out\n\n    auxdata: 0xa2646970667358221220a80f3f2f294f72353d41e3ce5c8718489020c003edcf742f43265eb15db6c12c64736f6c634300081a0033\n}\n\nsub_1: assembly {\n        /* \"week6_practice/parent.sol\":289:377  contract Tiger is Animal{... */\n      mstore(0x40, 0x80)\n        /* \"week6_practice/parent.sol\":320:368  constructor(string memory _name) Animal(_name){} */\n      callvalue\n      dup1\n      iszero\n      tag_1\n      jumpi\n      0x00\n      dup1\n      revert\n    tag_1:\n      pop\n      mload(0x40)\n      sub(codesize, bytecodeSize)\n      dup1\n      bytecodeSize\n      dup4\n      codecopy\n      dup2\n      dup2\n      add\n      0x40\n      mstore\n      dup2\n      add\n      swap1\n      tag_2\n      swap2\n      swap1\n      tag_3\n      jump\t// in\n    tag_2:\n        /* \"week6_practice/parent.sol\":360:365  _name */\n      dup1\n        /* \"week6_practice/parent.sol\":174:179  _name */\n      dup1\n        /* \"week6_practice/parent.sol\":166:173  species */\n      0x00\n        /* \"week6_practice/parent.sol\":166:179  species=_name */\n      swap1\n      dup2\n      tag_7\n      swap2\n      swap1\n      tag_8\n      jump\t// in\n    tag_7:\n      pop\n        /* \"week6_practice/parent.sol\":123:187  constructor(string memory _name){... */\n      pop\n        /* \"week6_practice/parent.sol\":320:368  constructor(string memory _name) Animal(_name){} */\n      pop\n        /* \"week6_practice/parent.sol\":289:377  contract Tiger is Animal{... */\n      jump(tag_10)\n        /* \"#utility.yul\":7:82   */\n    tag_11:\n        /* \"#utility.yul\":40:46   */\n      0x00\n        /* \"#utility.yul\":73:75   */\n      0x40\n        /* \"#utility.yul\":67:76   */\n      mload\n        /* \"#utility.yul\":57:76   */\n      swap1\n      pop\n        /* \"#utility.yul\":7:82   */\n      swap1\n      jump\t// out\n        /* \"#utility.yul\":88:205   */\n    tag_12:\n        /* \"#utility.yul\":197:198   */\n      0x00\n        /* \"#utility.yul\":194:195   */\n      dup1\n        /* \"#utility.yul\":187:199   */\n      revert\n        /* \"#utility.yul\":211:328   */\n    tag_13:\n        /* \"#utility.yul\":320:321   */\n      0x00\n        /* \"#utility.yul\":317:318   */\n      dup1\n        /* \"#utility.yul\":310:322   */\n      revert\n        /* \"#utility.yul\":334:451   */\n    tag_14:\n        /* \"#utility.yul\":443:444   */\n      0x00\n        /* \"#utility.yul\":440:441   */\n      dup1\n        /* \"#utility.yul\":433:445   */\n      revert\n        /* \"#utility.yul\":457:574   */\n    tag_15:\n        /* \"#utility.yul\":566:567   */\n      0x00\n        /* \"#utility.yul\":563:564   */\n      dup1\n        /* \"#utility.yul\":556:568   */\n      revert\n        /* \"#utility.yul\":580:682   */\n    tag_16:\n        /* \"#utility.yul\":621:627   */\n      0x00\n        /* \"#utility.yul\":672:674   */\n      0x1f\n        /* \"#utility.yul\":668:675   */\n      not\n        /* \"#utility.yul\":663:665   */\n      0x1f\n        /* \"#utility.yul\":656:661   */\n      dup4\n        /* \"#utility.yul\":652:666   */\n      add\n        /* \"#utility.yul\":648:676   */\n      and\n        /* \"#utility.yul\":638:676   */\n      swap1\n      pop\n        /* \"#utility.yul\":580:682   */\n      swap2\n      swap1\n      pop\n      jump\t// out\n        /* \"#utility.yul\":688:868   */\n    tag_17:\n        /* \"#utility.yul\":736:813   */\n      0x4e487b7100000000000000000000000000000000000000000000000000000000\n        /* \"#utility.yul\":733:734   */\n      0x00\n        /* \"#utility.yul\":726:814   */\n      mstore\n        /* \"#utility.yul\":833:837   */\n      0x41\n        /* \"#utility.yul\":830:831   */\n      0x04\n        /* \"#utility.yul\":823:838   */\n      mstore\n        /* \"#utility.yul\":857:861   */\n      0x24\n        /* \"#utility.yul\":854:855   */\n      0x00\n        /* \"#utility.yul\":847:862   */\n      revert\n        /* \"#utility.yul\":874:1155   */\n    tag_18:\n        /* \"#utility.yul\":957:984   */\n      tag_52\n        /* \"#utility.yul\":979:983   */\n      dup3\n        /* \"#utility.yul\":957:984   */\n      tag_16\n      jump\t// in\n    tag_52:\n        /* \"#utility.yul\":949:955   */\n      dup2\n        /* \"#utility.yul\":945:985   */\n      add\n        /* \"#utility.yul\":1087:1093   */\n      dup2\n        /* \"#utility.yul\":1075:1085   */\n      dup2\n        /* \"#utility.yul\":1072:1094   */\n      lt\n        /* \"#utility.yul\":1051:1069   */\n      0xffffffffffffffff\n        /* \"#utility.yul\":1039:1049   */\n      dup3\n        /* \"#utility.yul\":1036:1070   */\n      gt\n        /* \"#utility.yul\":1033:1095   */\n      or\n        /* \"#utility.yul\":1030:1118   */\n      iszero\n      tag_53\n      jumpi\n        /* \"#utility.yul\":1098:1116   */\n      tag_54\n      tag_17\n      jump\t// in\n    tag_54:\n        /* \"#utility.yul\":1030:1118   */\n    tag_53:\n        /* \"#utility.yul\":1138:1148   */\n      dup1\n        /* \"#utility.yul\":1134:1136   */\n      0x40\n        /* \"#utility.yul\":1127:1149   */\n      mstore\n        /* \"#utility.yul\":917:1155   */\n      pop\n        /* \"#utility.yul\":874:1155   */\n      pop\n      pop\n      jump\t// out\n        /* \"#utility.yul\":1161:1290   */\n    tag_19:\n        /* \"#utility.yul\":1195:1201   */\n      0x00\n        /* \"#utility.yul\":1222:1242   */\n      tag_56\n      tag_11\n      jump\t// in\n    tag_56:\n        /* \"#utility.yul\":1212:1242   */\n      swap1\n      pop\n        /* \"#utility.yul\":1251:1284   */\n      tag_57\n        /* \"#utility.yul\":1279:1283   */\n      dup3\n        /* \"#utility.yul\":1271:1277   */\n      dup3\n        /* \"#utility.yul\":1251:1284   */\n      tag_18\n      jump\t// in\n    tag_57:\n        /* \"#utility.yul\":1161:1290   */\n      swap2\n      swap1\n      pop\n      jump\t// out\n        /* \"#utility.yul\":1296:1604   */\n    tag_20:\n        /* \"#utility.yul\":1358:1362   */\n      0x00\n        /* \"#utility.yul\":1448:1466   */\n      0xffffffffffffffff\n        /* \"#utility.yul\":1440:1446   */\n      dup3\n        /* \"#utility.yul\":1437:1467   */\n      gt\n        /* \"#utility.yul\":1434:1490   */\n      iszero\n      tag_59\n      jumpi\n        /* \"#utility.yul\":1470:1488   */\n      tag_60\n      tag_17\n      jump\t// in\n    tag_60:\n        /* \"#utility.yul\":1434:1490   */\n    tag_59:\n        /* \"#utility.yul\":1508:1537   */\n      tag_61\n        /* \"#utility.yul\":1530:1536   */\n      dup3\n        /* \"#utility.yul\":1508:1537   */\n      tag_16\n      jump\t// in\n    tag_61:\n        /* \"#utility.yul\":1500:1537   */\n      swap1\n      pop\n        /* \"#utility.yul\":1592:1596   */\n      0x20\n        /* \"#utility.yul\":1586:1590   */\n      dup2\n        /* \"#utility.yul\":1582:1597   */\n      add\n        /* \"#utility.yul\":1574:1597   */\n      swap1\n      pop\n        /* \"#utility.yul\":1296:1604   */\n      swap2\n      swap1\n      pop\n      jump\t// out\n        /* \"#utility.yul\":1610:1749   */\n    tag_21:\n        /* \"#utility.yul\":1699:1705   */\n      dup3\n        /* \"#utility.yul\":1694:1697   */\n      dup2\n        /* \"#utility.yul\":1689:1692   */\n      dup4\n        /* \"#utility.yul\":1683:1706   */\n      mcopy\n        /* \"#utility.yul\":1740:1741   */\n      0x00\n        /* \"#utility.yul\":1731:1737   */\n      dup4\n        /* \"#utility.yul\":1726:1729   */\n      dup4\n        /* \"#utility.yul\":1722:1738   */\n      add\n        /* \"#utility.yul\":1715:1742   */\n      mstore\n        /* \"#utility.yul\":1610:1749   */\n      pop\n      pop\n      pop\n      jump\t// out\n        /* \"#utility.yul\":1755:2189   */\n    tag_22:\n        /* \"#utility.yul\":1844:1849   */\n      0x00\n        /* \"#utility.yul\":1869:1935   */\n      tag_64\n        /* \"#utility.yul\":1885:1934   */\n      tag_65\n        /* \"#utility.yul\":1927:1933   */\n      dup5\n        /* \"#utility.yul\":1885:1934   */\n      tag_20\n      jump\t// in\n    tag_65:\n        /* \"#utility.yul\":1869:1935   */\n      tag_19\n      jump\t// in\n    tag_64:\n        /* \"#utility.yul\":1860:1935   */\n      swap1\n      pop\n        /* \"#utility.yul\":1958:1964   */\n      dup3\n        /* \"#utility.yul\":1951:1956   */\n      dup2\n        /* \"#utility.yul\":1944:1965   */\n      mstore\n        /* \"#utility.yul\":1996:2000   */\n      0x20\n        /* \"#utility.yul\":1989:1994   */\n      dup2\n        /* \"#utility.yul\":1985:2001   */\n      add\n        /* \"#utility.yul\":2034:2037   */\n      dup5\n        /* \"#utility.yul\":2025:2031   */\n      dup5\n        /* \"#utility.yul\":2020:2023   */\n      dup5\n        /* \"#utility.yul\":2016:2032   */\n      add\n        /* \"#utility.yul\":2013:2038   */\n      gt\n        /* \"#utility.yul\":2010:2122   */\n      iszero\n      tag_66\n      jumpi\n        /* \"#utility.yul\":2041:2120   */\n      tag_67\n      tag_15\n      jump\t// in\n    tag_67:\n        /* \"#utility.yul\":2010:2122   */\n    tag_66:\n        /* \"#utility.yul\":2131:2183   */\n      tag_68\n        /* \"#utility.yul\":2176:2182   */\n      dup5\n        /* \"#utility.yul\":2171:2174   */\n      dup3\n        /* \"#utility.yul\":2166:2169   */\n      dup6\n        /* \"#utility.yul\":2131:2183   */\n      tag_21\n      jump\t// in\n    tag_68:\n        /* \"#utility.yul\":1850:2189   */\n      pop\n        /* \"#utility.yul\":1755:2189   */\n      swap4\n      swap3\n      pop\n      pop\n      pop\n      jump\t// out\n        /* \"#utility.yul\":2209:2564   */\n    tag_23:\n        /* \"#utility.yul\":2276:2281   */\n      0x00\n        /* \"#utility.yul\":2325:2328   */\n      dup3\n        /* \"#utility.yul\":2318:2322   */\n      0x1f\n        /* \"#utility.yul\":2310:2316   */\n      dup4\n        /* \"#utility.yul\":2306:2323   */\n      add\n        /* \"#utility.yul\":2302:2329   */\n      slt\n        /* \"#utility.yul\":2292:2414   */\n      tag_70\n      jumpi\n        /* \"#utility.yul\":2333:2412   */\n      tag_71\n      tag_14\n      jump\t// in\n    tag_71:\n        /* \"#utility.yul\":2292:2414   */\n    tag_70:\n        /* \"#utility.yul\":2443:2449   */\n      dup2\n        /* \"#utility.yul\":2437:2450   */\n      mload\n        /* \"#utility.yul\":2468:2558   */\n      tag_72\n        /* \"#utility.yul\":2554:2557   */\n      dup5\n        /* \"#utility.yul\":2546:2552   */\n      dup3\n        /* \"#utility.yul\":2539:2543   */\n      0x20\n        /* \"#utility.yul\":2531:2537   */\n      dup7\n        /* \"#utility.yul\":2527:2544   */\n      add\n        /* \"#utility.yul\":2468:2558   */\n      tag_22\n      jump\t// in\n    tag_72:\n        /* \"#utility.yul\":2459:2558   */\n      swap2\n      pop\n        /* \"#utility.yul\":2282:2564   */\n      pop\n        /* \"#utility.yul\":2209:2564   */\n      swap3\n      swap2\n      pop\n      pop\n      jump\t// out\n        /* \"#utility.yul\":2570:3094   */\n    tag_3:\n        /* \"#utility.yul\":2650:2656   */\n      0x00\n        /* \"#utility.yul\":2699:2701   */\n      0x20\n        /* \"#utility.yul\":2687:2696   */\n      dup3\n        /* \"#utility.yul\":2678:2685   */\n      dup5\n        /* \"#utility.yul\":2674:2697   */\n      sub\n        /* \"#utility.yul\":2670:2702   */\n      slt\n        /* \"#utility.yul\":2667:2786   */\n      iszero\n      tag_74\n      jumpi\n        /* \"#utility.yul\":2705:2784   */\n      tag_75\n      tag_12\n      jump\t// in\n    tag_75:\n        /* \"#utility.yul\":2667:2786   */\n    tag_74:\n        /* \"#utility.yul\":2846:2847   */\n      0x00\n        /* \"#utility.yul\":2835:2844   */\n      dup3\n        /* \"#utility.yul\":2831:2848   */\n      add\n        /* \"#utility.yul\":2825:2849   */\n      mload\n        /* \"#utility.yul\":2876:2894   */\n      0xffffffffffffffff\n        /* \"#utility.yul\":2868:2874   */\n      dup2\n        /* \"#utility.yul\":2865:2895   */\n      gt\n        /* \"#utility.yul\":2862:2979   */\n      iszero\n      tag_76\n      jumpi\n        /* \"#utility.yul\":2898:2977   */\n      tag_77\n      tag_13\n      jump\t// in\n    tag_77:\n        /* \"#utility.yul\":2862:2979   */\n    tag_76:\n        /* \"#utility.yul\":3003:3077   */\n      tag_78\n        /* \"#utility.yul\":3069:3076   */\n      dup5\n        /* \"#utility.yul\":3060:3066   */\n      dup3\n        /* \"#utility.yul\":3049:3058   */\n      dup6\n        /* \"#utility.yul\":3045:3067   */\n      add\n        /* \"#utility.yul\":3003:3077   */\n      tag_23\n      jump\t// in\n    tag_78:\n        /* \"#utility.yul\":2993:3077   */\n      swap2\n      pop\n        /* \"#utility.yul\":2796:3087   */\n      pop\n        /* \"#utility.yul\":2570:3094   */\n      swap3\n      swap2\n      pop\n      pop\n      jump\t// out\n        /* \"#utility.yul\":3100:3199   */\n    tag_24:\n        /* \"#utility.yul\":3152:3158   */\n      0x00\n        /* \"#utility.yul\":3186:3191   */\n      dup2\n        /* \"#utility.yul\":3180:3192   */\n      mload\n        /* \"#utility.yul\":3170:3192   */\n      swap1\n      pop\n        /* \"#utility.yul\":3100:3199   */\n      swap2\n      swap1\n      pop\n      jump\t// out\n        /* \"#utility.yul\":3205:3385   */\n    tag_25:\n        /* \"#utility.yul\":3253:3330   */\n      0x4e487b7100000000000000000000000000000000000000000000000000000000\n        /* \"#utility.yul\":3250:3251   */\n      0x00\n        /* \"#utility.yul\":3243:3331   */\n      mstore\n        /* \"#utility.yul\":3350:3354   */\n      0x22\n        /* \"#utility.yul\":3347:3348   */\n      0x04\n        /* \"#utility.yul\":3340:3355   */\n      mstore\n        /* \"#utility.yul\":3374:3378   */\n      0x24\n        /* \"#utility.yul\":3371:3372   */\n      0x00\n        /* \"#utility.yul\":3364:3379   */\n      revert\n        /* \"#utility.yul\":3391:3711   */\n    tag_26:\n        /* \"#utility.yul\":3435:3441   */\n      0x00\n        /* \"#utility.yul\":3472:3473   */\n      0x02\n        /* \"#utility.yul\":3466:3470   */\n      dup3\n        /* \"#utility.yul\":3462:3474   */\n      div\n        /* \"#utility.yul\":3452:3474   */\n      swap1\n      pop\n        /* \"#utility.yul\":3519:3520   */\n      0x01\n        /* \"#utility.yul\":3513:3517   */\n      dup3\n        /* \"#utility.yul\":3509:3521   */\n      and\n        /* \"#utility.yul\":3540:3558   */\n      dup1\n        /* \"#utility.yul\":3530:3611   */\n      tag_82\n      jumpi\n        /* \"#utility.yul\":3596:3600   */\n      0x7f\n        /* \"#utility.yul\":3588:3594   */\n      dup3\n        /* \"#utility.yul\":3584:3601   */\n      and\n        /* \"#utility.yul\":3574:3601   */\n      swap2\n      pop\n        /* \"#utility.yul\":3530:3611   */\n    tag_82:\n        /* \"#utility.yul\":3658:3660   */\n      0x20\n        /* \"#utility.yul\":3650:3656   */\n      dup3\n        /* \"#utility.yul\":3647:3661   */\n      lt\n        /* \"#utility.yul\":3627:3645   */\n      dup2\n        /* \"#utility.yul\":3624:3662   */\n      sub\n        /* \"#utility.yul\":3621:3705   */\n      tag_83\n      jumpi\n        /* \"#utility.yul\":3677:3695   */\n      tag_84\n      tag_25\n      jump\t// in\n    tag_84:\n        /* \"#utility.yul\":3621:3705   */\n    tag_83:\n        /* \"#utility.yul\":3442:3711   */\n      pop\n        /* \"#utility.yul\":3391:3711   */\n      swap2\n      swap1\n      pop\n      jump\t// out\n        /* \"#utility.yul\":3717:3858   */\n    tag_27:\n        /* \"#utility.yul\":3766:3770   */\n      0x00\n        /* \"#utility.yul\":3789:3792   */\n      dup2\n        /* \"#utility.yul\":3781:3792   */\n      swap1\n      pop\n        /* \"#utility.yul\":3812:3815   */\n      dup2\n        /* \"#utility.yul\":3809:3810   */\n      0x00\n        /* \"#utility.yul\":3802:3816   */\n      mstore\n        /* \"#utility.yul\":3846:3850   */\n      0x20\n        /* \"#utility.yul\":3843:3844   */\n      0x00\n        /* \"#utility.yul\":3833:3851   */\n      keccak256\n        /* \"#utility.yul\":3825:3851   */\n      swap1\n      pop\n        /* \"#utility.yul\":3717:3858   */\n      swap2\n      swap1\n      pop\n      jump\t// out\n        /* \"#utility.yul\":3864:3957   */\n    tag_28:\n        /* \"#utility.yul\":3901:3907   */\n      0x00\n        /* \"#utility.yul\":3948:3950   */\n      0x20\n        /* \"#utility.yul\":3943:3945   */\n      0x1f\n        /* \"#utility.yul\":3936:3941   */\n      dup4\n        /* \"#utility.yul\":3932:3946   */\n      add\n        /* \"#utility.yul\":3928:3951   */\n      div\n        /* \"#utility.yul\":3918:3951   */\n      swap1\n      pop\n        /* \"#utility.yul\":3864:3957   */\n      swap2\n      swap1\n      pop\n      jump\t// out\n        /* \"#utility.yul\":3963:4070   */\n    tag_29:\n        /* \"#utility.yul\":4007:4015   */\n      0x00\n        /* \"#utility.yul\":4057:4062   */\n      dup3\n        /* \"#utility.yul\":4051:4055   */\n      dup3\n        /* \"#utility.yul\":4047:4063   */\n      shl\n        /* \"#utility.yul\":4026:4063   */\n      swap1\n      pop\n        /* \"#utility.yul\":3963:4070   */\n      swap3\n      swap2\n      pop\n      pop\n      jump\t// out\n        /* \"#utility.yul\":4076:4469   */\n    tag_30:\n        /* \"#utility.yul\":4145:4151   */\n      0x00\n        /* \"#utility.yul\":4195:4196   */\n      0x08\n        /* \"#utility.yul\":4183:4193   */\n      dup4\n        /* \"#utility.yul\":4179:4197   */\n      mul\n        /* \"#utility.yul\":4218:4315   */\n      tag_89\n        /* \"#utility.yul\":4248:4314   */\n      0xffffffffffffffffffffffffffffffffffffffffffffffffffffffffffffffff\n        /* \"#utility.yul\":4237:4246   */\n      dup3\n        /* \"#utility.yul\":4218:4315   */\n      tag_29\n      jump\t// in\n    tag_89:\n        /* \"#utility.yul\":4336:4375   */\n      tag_90\n        /* \"#utility.yul\":4366:4374   */\n      dup7\n        /* \"#utility.yul\":4355:4364   */\n      dup4\n        /* \"#utility.yul\":4336:4375   */\n      tag_29\n      jump\t// in\n    tag_90:\n        /* \"#utility.yul\":4324:4375   */\n      swap6\n      pop\n        /* \"#utility.yul\":4408:4412   */\n      dup1\n        /* \"#utility.yul\":4404:4413   */\n      not\n        /* \"#utility.yul\":4397:4402   */\n      dup5\n        /* \"#utility.yul\":4393:4414   */\n      and\n        /* \"#utility.yul\":4384:4414   */\n      swap4\n      pop\n        /* \"#utility.yul\":4457:4461   */\n      dup1\n        /* \"#utility.yul\":4447:4455   */\n      dup7\n        /* \"#utility.yul\":4443:4462   */\n      and\n        /* \"#utility.yul\":4436:4441   */\n      dup5\n        /* \"#utility.yul\":4433:4463   */\n      or\n        /* \"#utility.yul\":4423:4463   */\n      swap3\n      pop\n        /* \"#utility.yul\":4152:4469   */\n      pop\n      pop\n        /* \"#utility.yul\":4076:4469   */\n      swap4\n      swap3\n      pop\n      pop\n      pop\n      jump\t// out\n        /* \"#utility.yul\":4475:4552   */\n    tag_31:\n        /* \"#utility.yul\":4512:4519   */\n      0x00\n        /* \"#utility.yul\":4541:4546   */\n      dup2\n        /* \"#utility.yul\":4530:4546   */\n      swap1\n      pop\n        /* \"#utility.yul\":4475:4552   */\n      swap2\n      swap1\n      pop\n      jump\t// out\n        /* \"#utility.yul\":4558:4618   */\n    tag_32:\n        /* \"#utility.yul\":4586:4589   */\n      0x00\n        /* \"#utility.yul\":4607:4612   */\n      dup2\n        /* \"#utility.yul\":4600:4612   */\n      swap1\n      pop\n        /* \"#utility.yul\":4558:4618   */\n      swap2\n      swap1\n      pop\n      jump\t// out\n        /* \"#utility.yul\":4624:4766   */\n    tag_33:\n        /* \"#utility.yul\":4674:4683   */\n      0x00\n        /* \"#utility.yul\":4707:4760   */\n      tag_94\n        /* \"#utility.yul\":4725:4759   */\n      tag_95\n        /* \"#utility.yul\":4734:4758   */\n      tag_96\n        /* \"#utility.yul\":4752:4757   */\n      dup5\n        /* \"#utility.yul\":4734:4758   */\n      tag_31\n      jump\t// in\n    tag_96:\n        /* \"#utility.yul\":4725:4759   */\n      tag_32\n      jump\t// in\n    tag_95:\n        /* \"#utility.yul\":4707:4760   */\n      tag_31\n      jump\t// in\n    tag_94:\n        /* \"#utility.yul\":4694:4760   */\n      swap1\n      pop\n        /* \"#utility.yul\":4624:4766   */\n      swap2\n      swap1\n      pop\n      jump\t// out\n        /* \"#utility.yul\":4772:4847   */\n    tag_34:\n        /* \"#utility.yul\":4815:4818   */\n      0x00\n        /* \"#utility.yul\":4836:4841   */\n      dup2\n        /* \"#utility.yul\":4829:4841   */\n      swap1\n      pop\n        /* \"#utility.yul\":4772:4847   */\n      swap2\n      swap1\n      pop\n      jump\t// out\n        /* \"#utility.yul\":4853:5122   */\n    tag_35:\n        /* \"#utility.yul\":4963:5002   */\n      tag_99\n        /* \"#utility.yul\":4994:5001   */\n      dup4\n        /* \"#utility.yul\":4963:5002   */\n      tag_33\n      jump\t// in\n    tag_99:\n        /* \"#utility.yul\":5024:5115   */\n      tag_100\n        /* \"#utility.yul\":5073:5114   */\n      tag_101\n        /* \"#utility.yul\":5097:5113   */\n      dup3\n        /* \"#utility.yul\":5073:5114   */\n      tag_34\n      jump\t// in\n    tag_101:\n        /* \"#utility.yul\":5065:5071   */\n      dup5\n        /* \"#utility.yul\":5058:5062   */\n      dup5\n        /* \"#utility.yul\":5052:5063   */\n      sload\n        /* \"#utility.yul\":5024:5115   */\n      tag_30\n      jump\t// in\n    tag_100:\n        /* \"#utility.yul\":5018:5022   */\n      dup3\n        /* \"#utility.yul\":5011:5116   */\n      sstore\n        /* \"#utility.yul\":4929:5122   */\n      pop\n        /* \"#utility.yul\":4853:5122   */\n      pop\n      pop\n      pop\n      jump\t// out\n        /* \"#utility.yul\":5128:5201   */\n    tag_36:\n        /* \"#utility.yul\":5173:5176   */\n      0x00\n        /* \"#utility.yul\":5128:5201   */\n      swap1\n      jump\t// out\n        /* \"#utility.yul\":5207:5396   */\n    tag_37:\n        /* \"#utility.yul\":5284:5316   */\n      tag_104\n      tag_36\n      jump\t// in\n    tag_104:\n        /* \"#utility.yul\":5325:5390   */\n      tag_105\n        /* \"#utility.yul\":5383:5389   */\n      dup2\n        /* \"#utility.yul\":5375:5381   */\n      dup5\n        /* \"#utility.yul\":5369:5373   */\n      dup5\n        /* \"#utility.yul\":5325:5390   */\n      tag_35\n      jump\t// in\n    tag_105:\n        /* \"#utility.yul\":5260:5396   */\n      pop\n        /* \"#utility.yul\":5207:5396   */\n      pop\n      pop\n      jump\t// out\n        /* \"#utility.yul\":5402:5588   */\n    tag_38:\n        /* \"#utility.yul\":5462:5582   */\n    tag_107:\n        /* \"#utility.yul\":5479:5482   */\n      dup2\n        /* \"#utility.yul\":5472:5477   */\n      dup2\n        /* \"#utility.yul\":5469:5483   */\n      lt\n        /* \"#utility.yul\":5462:5582   */\n      iszero\n      tag_109\n      jumpi\n        /* \"#utility.yul\":5533:5572   */\n      tag_110\n        /* \"#utility.yul\":5570:5571   */\n      0x00\n        /* \"#utility.yul\":5563:5568   */\n      dup3\n        /* \"#utility.yul\":5533:5572   */\n      tag_37\n      jump\t// in\n    tag_110:\n        /* \"#utility.yul\":5506:5507   */\n      0x01\n        /* \"#utility.yul\":5499:5504   */\n      dup2\n        /* \"#utility.yul\":5495:5508   */\n      add\n        /* \"#utility.yul\":5486:5508   */\n      swap1\n      pop\n        /* \"#utility.yul\":5462:5582   */\n      jump(tag_107)\n    tag_109:\n        /* \"#utility.yul\":5402:5588   */\n      pop\n      pop\n      jump\t// out\n        /* \"#utility.yul\":5594:6137   */\n    tag_39:\n        /* \"#utility.yul\":5695:5697   */\n      0x1f\n        /* \"#utility.yul\":5690:5693   */\n      dup3\n        /* \"#utility.yul\":5687:5698   */\n      gt\n        /* \"#utility.yul\":5684:6130   */\n      iszero\n      tag_112\n      jumpi\n        /* \"#utility.yul\":5729:5767   */\n      tag_113\n        /* \"#utility.yul\":5761:5766   */\n      dup2\n        /* \"#utility.yul\":5729:5767   */\n      tag_27\n      jump\t// in\n    tag_113:\n        /* \"#utility.yul\":5813:5842   */\n      tag_114\n        /* \"#utility.yul\":5831:5841   */\n      dup5\n        /* \"#utility.yul\":5813:5842   */\n      tag_28\n      jump\t// in\n    tag_114:\n        /* \"#utility.yul\":5803:5811   */\n      dup2\n        /* \"#utility.yul\":5799:5843   */\n      add\n        /* \"#utility.yul\":5996:5998   */\n      0x20\n        /* \"#utility.yul\":5984:5994   */\n      dup6\n        /* \"#utility.yul\":5981:5999   */\n      lt\n        /* \"#utility.yul\":5978:6027   */\n      iszero\n      tag_115\n      jumpi\n        /* \"#utility.yul\":6017:6025   */\n      dup2\n        /* \"#utility.yul\":6002:6025   */\n      swap1\n      pop\n        /* \"#utility.yul\":5978:6027   */\n    tag_115:\n        /* \"#utility.yul\":6040:6120   */\n      tag_116\n        /* \"#utility.yul\":6096:6118   */\n      tag_117\n        /* \"#utility.yul\":6114:6117   */\n      dup6\n        /* \"#utility.yul\":6096:6118   */\n      tag_28\n      jump\t// in\n    tag_117:\n        /* \"#utility.yul\":6086:6094   */\n      dup4\n        /* \"#utility.yul\":6082:6119   */\n      add\n        /* \"#utility.yul\":6069:6080   */\n      dup3\n        /* \"#utility.yul\":6040:6120   */\n      tag_38\n      jump\t// in\n    tag_116:\n        /* \"#utility.yul\":5699:6130   */\n      pop\n      pop\n        /* \"#utility.yul\":5684:6130   */\n    tag_112:\n        /* \"#utility.yul\":5594:6137   */\n      pop\n      pop\n      pop\n      jump\t// out\n        /* \"#utility.yul\":6143:6260   */\n    tag_40:\n        /* \"#utility.yul\":6197:6205   */\n      0x00\n        /* \"#utility.yul\":6247:6252   */\n      dup3\n        /* \"#utility.yul\":6241:6245   */\n      dup3\n        /* \"#utility.yul\":6237:6253   */\n      shr\n        /* \"#utility.yul\":6216:6253   */\n      swap1\n      pop\n        /* \"#utility.yul\":6143:6260   */\n      swap3\n      swap2\n      pop\n      pop\n      jump\t// out\n        /* \"#utility.yul\":6266:6435   */\n    tag_41:\n        /* \"#utility.yul\":6310:6316   */\n      0x00\n        /* \"#utility.yul\":6343:6394   */\n      tag_120\n        /* \"#utility.yul\":6391:6392   */\n      0x00\n        /* \"#utility.yul\":6387:6393   */\n      not\n        /* \"#utility.yul\":6379:6384   */\n      dup5\n        /* \"#utility.yul\":6376:6377   */\n      0x08\n        /* \"#utility.yul\":6372:6385   */\n      mul\n        /* \"#utility.yul\":6343:6394   */\n      tag_40\n      jump\t// in\n    tag_120:\n        /* \"#utility.yul\":6339:6395   */\n      not\n        /* \"#utility.yul\":6424:6428   */\n      dup1\n        /* \"#utility.yul\":6418:6422   */\n      dup4\n        /* \"#utility.yul\":6414:6429   */\n      and\n        /* \"#utility.yul\":6404:6429   */\n      swap2\n      pop\n        /* \"#utility.yul\":6317:6435   */\n      pop\n        /* \"#utility.yul\":6266:6435   */\n      swap3\n      swap2\n      pop\n      pop\n      jump\t// out\n        /* \"#utility.yul\":6440:6735   */\n    tag_42:\n        /* \"#utility.yul\":6516:6520   */\n      0x00\n        /* \"#utility.yul\":6662:6691   */\n      tag_122\n        /* \"#utility.yul\":6687:6690   */\n      dup4\n        /* \"#utility.yul\":6681:6685   */\n      dup4\n        /* \"#utility.yul\":6662:6691   */\n      tag_41\n      jump\t// in\n    tag_122:\n        /* \"#utility.yul\":6654:6691   */\n      swap2\n      pop\n        /* \"#utility.yul\":6724:6727   */\n      dup3\n        /* \"#utility.yul\":6721:6722   */\n      0x02\n        /* \"#utility.yul\":6717:6728   */\n      mul\n        /* \"#utility.yul\":6711:6715   */\n      dup3\n        /* \"#utility.yul\":6708:6729   */\n      or\n        /* \"#utility.yul\":6700:6729   */\n      swap1\n      pop\n        /* \"#utility.yul\":6440:6735   */\n      swap3\n      swap2\n      pop\n      pop\n      jump\t// out\n        /* \"#utility.yul\":6740:8135   */\n    tag_8:\n        /* \"#utility.yul\":6857:6894   */\n      tag_124\n        /* \"#utility.yul\":6890:6893   */\n      dup3\n        /* \"#utility.yul\":6857:6894   */\n      tag_24\n      jump\t// in\n    tag_124:\n        /* \"#utility.yul\":6959:6977   */\n      0xffffffffffffffff\n        /* \"#utility.yul\":6951:6957   */\n      dup2\n        /* \"#utility.yul\":6948:6978   */\n      gt\n        /* \"#utility.yul\":6945:7001   */\n      iszero\n      tag_125\n      jumpi\n        /* \"#utility.yul\":6981:6999   */\n      tag_126\n      tag_17\n      jump\t// in\n    tag_126:\n        /* \"#utility.yul\":6945:7001   */\n    tag_125:\n        /* \"#utility.yul\":7025:7063   */\n      tag_127\n        /* \"#utility.yul\":7057:7061   */\n      dup3\n        /* \"#utility.yul\":7051:7062   */\n      sload\n        /* \"#utility.yul\":7025:7063   */\n      tag_26\n      jump\t// in\n    tag_127:\n        /* \"#utility.yul\":7110:7177   */\n      tag_128\n        /* \"#utility.yul\":7170:7176   */\n      dup3\n        /* \"#utility.yul\":7162:7168   */\n      dup3\n        /* \"#utility.yul\":7156:7160   */\n      dup6\n        /* \"#utility.yul\":7110:7177   */\n      tag_39\n      jump\t// in\n    tag_128:\n        /* \"#utility.yul\":7204:7205   */\n      0x00\n        /* \"#utility.yul\":7228:7232   */\n      0x20\n        /* \"#utility.yul\":7215:7232   */\n      swap1\n      pop\n        /* \"#utility.yul\":7260:7262   */\n      0x1f\n        /* \"#utility.yul\":7252:7258   */\n      dup4\n        /* \"#utility.yul\":7249:7263   */\n      gt\n        /* \"#utility.yul\":7277:7278   */\n      0x01\n        /* \"#utility.yul\":7272:7890   */\n      dup2\n      eq\n      tag_130\n      jumpi\n        /* \"#utility.yul\":7934:7935   */\n      0x00\n        /* \"#utility.yul\":7951:7957   */\n      dup5\n        /* \"#utility.yul\":7948:8025   */\n      iszero\n      tag_131\n      jumpi\n        /* \"#utility.yul\":8000:8009   */\n      dup3\n        /* \"#utility.yul\":7995:7998   */\n      dup8\n        /* \"#utility.yul\":7991:8010   */\n      add\n        /* \"#utility.yul\":7985:8011   */\n      mload\n        /* \"#utility.yul\":7976:8011   */\n      swap1\n      pop\n        /* \"#utility.yul\":7948:8025   */\n    tag_131:\n        /* \"#utility.yul\":8051:8118   */\n      tag_132\n        /* \"#utility.yul\":8111:8117   */\n      dup6\n        /* \"#utility.yul\":8104:8109   */\n      dup3\n        /* \"#utility.yul\":8051:8118   */\n      tag_42\n      jump\t// in\n    tag_132:\n        /* \"#utility.yul\":8045:8049   */\n      dup7\n        /* \"#utility.yul\":8038:8119   */\n      sstore\n        /* \"#utility.yul\":7907:8129   */\n      pop\n        /* \"#utility.yul\":7242:8129   */\n      jump(tag_129)\n        /* \"#utility.yul\":7272:7890   */\n    tag_130:\n        /* \"#utility.yul\":7324:7328   */\n      0x1f\n        /* \"#utility.yul\":7320:7329   */\n      not\n        /* \"#utility.yul\":7312:7318   */\n      dup5\n        /* \"#utility.yul\":7308:7330   */\n      and\n        /* \"#utility.yul\":7358:7395   */\n      tag_133\n        /* \"#utility.yul\":7390:7394   */\n      dup7\n        /* \"#utility.yul\":7358:7395   */\n      tag_27\n      jump\t// in\n    tag_133:\n        /* \"#utility.yul\":7417:7418   */\n      0x00\n        /* \"#utility.yul\":7431:7639   */\n    tag_134:\n        /* \"#utility.yul\":7445:7452   */\n      dup3\n        /* \"#utility.yul\":7442:7443   */\n      dup2\n        /* \"#utility.yul\":7439:7453   */\n      lt\n        /* \"#utility.yul\":7431:7639   */\n      iszero\n      tag_136\n      jumpi\n        /* \"#utility.yul\":7524:7533   */\n      dup5\n        /* \"#utility.yul\":7519:7522   */\n      dup10\n        /* \"#utility.yul\":7515:7534   */\n      add\n        /* \"#utility.yul\":7509:7535   */\n      mload\n        /* \"#utility.yul\":7501:7507   */\n      dup3\n        /* \"#utility.yul\":7494:7536   */\n      sstore\n        /* \"#utility.yul\":7575:7576   */\n      0x01\n        /* \"#utility.yul\":7567:7573   */\n      dup3\n        /* \"#utility.yul\":7563:7577   */\n      add\n        /* \"#utility.yul\":7553:7577   */\n      swap2\n      pop\n        /* \"#utility.yul\":7622:7624   */\n      0x20\n        /* \"#utility.yul\":7611:7620   */\n      dup6\n        /* \"#utility.yul\":7607:7625   */\n      add\n        /* \"#utility.yul\":7594:7625   */\n      swap5\n      pop\n        /* \"#utility.yul\":7468:7472   */\n      0x20\n        /* \"#utility.yul\":7465:7466   */\n      dup2\n        /* \"#utility.yul\":7461:7473   */\n      add\n        /* \"#utility.yul\":7456:7473   */\n      swap1\n      pop\n        /* \"#utility.yul\":7431:7639   */\n      jump(tag_134)\n    tag_136:\n        /* \"#utility.yul\":7667:7673   */\n      dup7\n        /* \"#utility.yul\":7658:7665   */\n      dup4\n        /* \"#utility.yul\":7655:7674   */\n      lt\n        /* \"#utility.yul\":7652:7831   */\n      iszero\n      tag_137\n      jumpi\n        /* \"#utility.yul\":7725:7734   */\n      dup5\n        /* \"#utility.yul\":7720:7723   */\n      dup10\n        /* \"#utility.yul\":7716:7735   */\n      add\n        /* \"#utility.yul\":7710:7736   */\n      mload\n        /* \"#utility.yul\":7768:7816   */\n      tag_138\n        /* \"#utility.yul\":7810:7814   */\n      0x1f\n        /* \"#utility.yul\":7802:7808   */\n      dup10\n        /* \"#utility.yul\":7798:7815   */\n      and\n        /* \"#utility.yul\":7787:7796   */\n      dup3\n        /* \"#utility.yul\":7768:7816   */\n      tag_41\n      jump\t// in\n    tag_138:\n        /* \"#utility.yul\":7760:7766   */\n      dup4\n        /* \"#utility.yul\":7753:7817   */\n      sstore\n        /* \"#utility.yul\":7675:7831   */\n      pop\n        /* \"#utility.yul\":7652:7831   */\n    tag_137:\n        /* \"#utility.yul\":7877:7878   */\n      0x01\n        /* \"#utility.yul\":7873:7874   */\n      0x02\n        /* \"#utility.yul\":7865:7871   */\n      dup9\n        /* \"#utility.yul\":7861:7875   */\n      mul\n        /* \"#utility.yul\":7857:7879   */\n      add\n        /* \"#utility.yul\":7851:7855   */\n      dup9\n        /* \"#utility.yul\":7844:7880   */\n      sstore\n        /* \"#utility.yul\":7279:7890   */\n      pop\n      pop\n      pop\n        /* \"#utility.yul\":7242:8129   */\n    tag_129:\n      pop\n        /* \"#utility.yul\":6832:8135   */\n      pop\n      pop\n      pop\n        /* \"#utility.yul\":6740:8135   */\n      pop\n      pop\n      jump\t// out\n        /* \"week6_practice/parent.sol\":289:377  contract Tiger is Animal{... */\n    tag_10:\n      dataSize(sub_0)\n      dup1\n      dataOffset(sub_0)\n      0x00\n      codecopy\n      0x00\n      return\n    stop\n\n    sub_0: assembly {\n            /* \"week6_practice/parent.sol\":289:377  contract Tiger is Animal{... */\n          mstore(0x40, 0x80)\n          callvalue\n          dup1\n          iszero\n          tag_1\n          jumpi\n          0x00\n          dup1\n          revert\n        tag_1:\n          pop\n          jumpi(tag_2, lt(calldatasize, 0x04))\n          shr(0xe0, calldataload(0x00))\n          dup1\n          0x85d7acf5\n          eq\n          tag_3\n          jumpi\n          dup1\n          0x9dd807b1\n          eq\n          tag_4\n          jumpi\n        tag_2:\n          0x00\n          dup1\n          revert\n            /* \"week6_practice/parent.sol\":193:282  function getSpecies() public view returns(string memory){... */\n        tag_3:\n          tag_5\n          tag_6\n          jump\t// in\n        tag_5:\n          mload(0x40)\n          tag_7\n          swap2\n          swap1\n          tag_8\n          jump\t// in\n        tag_7:\n          mload(0x40)\n          dup1\n          swap2\n          sub\n          swap1\n          return\n            /* \"week6_practice/parent.sol\":95:116  string public species */\n        tag_4:\n          tag_9\n          tag_10\n          jump\t// in\n        tag_9:\n          mload(0x40)\n          tag_11\n          swap2\n          swap1\n          tag_8\n          jump\t// in\n        tag_11:\n          mload(0x40)\n          dup1\n          swap2\n          sub\n          swap1\n          return\n            /* \"week6_practice/parent.sol\":193:282  function getSpecies() public view returns(string memory){... */\n        tag_6:\n            /* \"week6_practice/parent.sol\":235:248  string memory */\n          0x60\n            /* \"week6_practice/parent.sol\":267:274  species */\n          0x00\n            /* \"week6_practice/parent.sol\":260:274  return species */\n          dup1\n          sload\n          tag_13\n          swap1\n          tag_14\n          jump\t// in\n        tag_13:\n          dup1\n          0x1f\n          add\n          0x20\n          dup1\n          swap2\n          div\n          mul\n          0x20\n          add\n          mload(0x40)\n          swap1\n          dup2\n          add\n          0x40\n          mstore\n          dup1\n          swap3\n          swap2\n          swap1\n          dup2\n          dup2\n          mstore\n          0x20\n          add\n          dup3\n          dup1\n          sload\n          tag_15\n          swap1\n          tag_14\n          jump\t// in\n        tag_15:\n          dup1\n          iszero\n          tag_16\n          jumpi\n          dup1\n          0x1f\n          lt\n          tag_17\n          jumpi\n          0x0100\n          dup1\n          dup4\n          sload\n          div\n          mul\n          dup4\n          mstore\n          swap2\n          0x20\n          add\n          swap2\n          jump(tag_16)\n        tag_17:\n          dup3\n          add\n          swap2\n          swap1\n          0x00\n          mstore\n          keccak256(0x00, 0x20)\n          swap1\n        tag_18:\n          dup2\n          sload\n          dup2\n          mstore\n          swap1\n          0x01\n          add\n          swap1\n          0x20\n          add\n          dup1\n          dup4\n          gt\n          tag_18\n          jumpi\n          dup3\n          swap1\n          sub\n          0x1f\n          and\n          dup3\n          add\n          swap2\n        tag_16:\n          pop\n          pop\n          pop\n          pop\n          pop\n          swap1\n          pop\n            /* \"week6_practice/parent.sol\":193:282  function getSpecies() public view returns(string memory){... */\n          swap1\n          jump\t// out\n            /* \"week6_practice/parent.sol\":95:116  string public species */\n        tag_10:\n          0x00\n          dup1\n          sload\n          tag_19\n          swap1\n          tag_14\n          jump\t// in\n        tag_19:\n          dup1\n          0x1f\n          add\n          0x20\n          dup1\n          swap2\n          div\n          mul\n          0x20\n          add\n          mload(0x40)\n          swap1\n          dup2\n          add\n          0x40\n          mstore\n          dup1\n          swap3\n          swap2\n          swap1\n          dup2\n          dup2\n          mstore\n          0x20\n          add\n          dup3\n          dup1\n          sload\n          tag_20\n          swap1\n          tag_14\n          jump\t// in\n        tag_20:\n          dup1\n          iszero\n          tag_21\n          jumpi\n          dup1\n          0x1f\n          lt\n          tag_22\n          jumpi\n          0x0100\n          dup1\n          dup4\n          sload\n          div\n          mul\n          dup4\n          mstore\n          swap2\n          0x20\n          add\n          swap2\n          jump(tag_21)\n        tag_22:\n          dup3\n          add\n          swap2\n          swap1\n          0x00\n          mstore\n          keccak256(0x00, 0x20)\n          swap1\n        tag_23:\n          dup2\n          sload\n          dup2\n          mstore\n          swap1\n          0x01\n          add\n          swap1\n          0x20\n          add\n          dup1\n          dup4\n          gt\n          tag_23\n          jumpi\n          dup3\n          swap1\n          sub\n          0x1f\n          and\n          dup3\n          add\n          swap2\n        tag_21:\n          pop\n          pop\n          pop\n          pop\n          pop\n          dup2\n          jump\t// out\n            /* \"#utility.yul\":7:106   */\n        tag_24:\n            /* \"#utility.yul\":59:65   */\n          0x00\n            /* \"#utility.yul\":93:98   */\n          dup2\n            /* \"#utility.yul\":87:99   */\n          mload\n            /* \"#utility.yul\":77:99   */\n          swap1\n          pop\n            /* \"#utility.yul\":7:106   */\n          swap2\n          swap1\n          pop\n          jump\t// out\n            /* \"#utility.yul\":112:281   */\n        tag_25:\n            /* \"#utility.yul\":196:207   */\n          0x00\n            /* \"#utility.yul\":230:236   */\n          dup3\n            /* \"#utility.yul\":225:228   */\n          dup3\n            /* \"#utility.yul\":218:237   */\n          mstore\n            /* \"#utility.yul\":270:274   */\n          0x20\n            /* \"#utility.yul\":265:268   */\n          dup3\n            /* \"#utility.yul\":261:275   */\n          add\n            /* \"#utility.yul\":246:275   */\n          swap1\n          pop\n            /* \"#utility.yul\":112:281   */\n          swap3\n          swap2\n          pop\n          pop\n          jump\t// out\n            /* \"#utility.yul\":287:426   */\n        tag_26:\n            /* \"#utility.yul\":376:382   */\n          dup3\n            /* \"#utility.yul\":371:374   */\n          dup2\n            /* \"#utility.yul\":366:369   */\n          dup4\n            /* \"#utility.yul\":360:383   */\n          mcopy\n            /* \"#utility.yul\":417:418   */\n          0x00\n            /* \"#utility.yul\":408:414   */\n          dup4\n            /* \"#utility.yul\":403:406   */\n          dup4\n            /* \"#utility.yul\":399:415   */\n          add\n            /* \"#utility.yul\":392:419   */\n          mstore\n            /* \"#utility.yul\":287:426   */\n          pop\n          pop\n          pop\n          jump\t// out\n            /* \"#utility.yul\":432:534   */\n        tag_27:\n            /* \"#utility.yul\":473:479   */\n          0x00\n            /* \"#utility.yul\":524:526   */\n          0x1f\n            /* \"#utility.yul\":520:527   */\n          not\n            /* \"#utility.yul\":515:517   */\n          0x1f\n            /* \"#utility.yul\":508:513   */\n          dup4\n            /* \"#utility.yul\":504:518   */\n          add\n            /* \"#utility.yul\":500:528   */\n          and\n            /* \"#utility.yul\":490:528   */\n          swap1\n          pop\n            /* \"#utility.yul\":432:534   */\n          swap2\n          swap1\n          pop\n          jump\t// out\n            /* \"#utility.yul\":540:917   */\n        tag_28:\n            /* \"#utility.yul\":628:631   */\n          0x00\n            /* \"#utility.yul\":656:695   */\n          tag_36\n            /* \"#utility.yul\":689:694   */\n          dup3\n            /* \"#utility.yul\":656:695   */\n          tag_24\n          jump\t// in\n        tag_36:\n            /* \"#utility.yul\":711:782   */\n          tag_37\n            /* \"#utility.yul\":775:781   */\n          dup2\n            /* \"#utility.yul\":770:773   */\n          dup6\n            /* \"#utility.yul\":711:782   */\n          tag_25\n          jump\t// in\n        tag_37:\n            /* \"#utility.yul\":704:782   */\n          swap4\n          pop\n            /* \"#utility.yul\":791:856   */\n          tag_38\n            /* \"#utility.yul\":849:855   */\n          dup2\n            /* \"#utility.yul\":844:847   */\n          dup6\n            /* \"#utility.yul\":837:841   */\n          0x20\n            /* \"#utility.yul\":830:835   */\n          dup7\n            /* \"#utility.yul\":826:842   */\n          add\n            /* \"#utility.yul\":791:856   */\n          tag_26\n          jump\t// in\n        tag_38:\n            /* \"#utility.yul\":881:910   */\n          tag_39\n            /* \"#utility.yul\":903:909   */\n          dup2\n            /* \"#utility.yul\":881:910   */\n          tag_27\n          jump\t// in\n        tag_39:\n            /* \"#utility.yul\":876:879   */\n          dup5\n            /* \"#utility.yul\":872:911   */\n          add\n            /* \"#utility.yul\":865:911   */\n          swap2\n          pop\n            /* \"#utility.yul\":632:917   */\n          pop\n            /* \"#utility.yul\":540:917   */\n          swap3\n          swap2\n          pop\n          pop\n          jump\t// out\n            /* \"#utility.yul\":923:1236   */\n        tag_8:\n            /* \"#utility.yul\":1036:1040   */\n          0x00\n            /* \"#utility.yul\":1074:1076   */\n          0x20\n            /* \"#utility.yul\":1063:1072   */\n          dup3\n            /* \"#utility.yul\":1059:1077   */\n          add\n            /* \"#utility.yul\":1051:1077   */\n          swap1\n          pop\n            /* \"#utility.yul\":1123:1132   */\n          dup2\n            /* \"#utility.yul\":1117:1121   */\n          dup2\n            /* \"#utility.yul\":1113:1133   */\n          sub\n            /* \"#utility.yul\":1109:1110   */\n          0x00\n            /* \"#utility.yul\":1098:1107   */\n          dup4\n            /* \"#utility.yul\":1094:1111   */\n          add\n            /* \"#utility.yul\":1087:1134   */\n          mstore\n            /* \"#utility.yul\":1151:1229   */\n          tag_41\n            /* \"#utility.yul\":1224:1228   */\n          dup2\n            /* \"#utility.yul\":1215:1221   */\n          dup5\n            /* \"#utility.yul\":1151:1229   */\n          tag_28\n          jump\t// in\n        tag_41:\n            /* \"#utility.yul\":1143:1229   */\n          swap1\n          pop\n            /* \"#utility.yul\":923:1236   */\n          swap3\n          swap2\n          pop\n          pop\n          jump\t// out\n            /* \"#utility.yul\":1242:1422   */\n        tag_29:\n            /* \"#utility.yul\":1290:1367   */\n          0x4e487b7100000000000000000000000000000000000000000000000000000000\n            /* \"#utility.yul\":1287:1288   */\n          0x00\n            /* \"#utility.yul\":1280:1368   */\n          mstore\n            /* \"#utility.yul\":1387:1391   */\n          0x22\n            /* \"#utility.yul\":1384:1385   */\n          0x04\n            /* \"#utility.yul\":1377:1392   */\n          mstore\n            /* \"#utility.yul\":1411:1415   */\n          0x24\n            /* \"#utility.yul\":1408:1409   */\n          0x00\n            /* \"#utility.yul\":1401:1416   */\n          revert\n            /* \"#utility.yul\":1428:1748   */\n        tag_14:\n            /* \"#utility.yul\":1472:1478   */\n          0x00\n            /* \"#utility.yul\":1509:1510   */\n          0x02\n            /* \"#utility.yul\":1503:1507   */\n          dup3\n            /* \"#utility.yul\":1499:1511   */\n          div\n            /* \"#utility.yul\":1489:1511   */\n          swap1\n          pop\n            /* \"#utility.yul\":1556:1557   */\n          0x01\n            /* \"#utility.yul\":1550:1554   */\n          dup3\n            /* \"#utility.yul\":1546:1558   */\n          and\n            /* \"#utility.yul\":1577:1595   */\n          dup1\n            /* \"#utility.yul\":1567:1648   */\n          tag_44\n          jumpi\n            /* \"#utility.yul\":1633:1637   */\n          0x7f\n            /* \"#utility.yul\":1625:1631   */\n          dup3\n            /* \"#utility.yul\":1621:1638   */\n          and\n            /* \"#utility.yul\":1611:1638   */\n          swap2\n          pop\n            /* \"#utility.yul\":1567:1648   */\n        tag_44:\n            /* \"#utility.yul\":1695:1697   */\n          0x20\n            /* \"#utility.yul\":1687:1693   */\n          dup3\n            /* \"#utility.yul\":1684:1698   */\n          lt\n            /* \"#utility.yul\":1664:1682   */\n          dup2\n            /* \"#utility.yul\":1661:1699   */\n          sub\n            /* \"#utility.yul\":1658:1742   */\n          tag_45\n          jumpi\n            /* \"#utility.yul\":1714:1732   */\n          tag_46\n          tag_29\n          jump\t// in\n        tag_46:\n            /* \"#utility.yul\":1658:1742   */\n        tag_45:\n            /* \"#utility.yul\":1479:1748   */\n          pop\n            /* \"#utility.yul\":1428:1748   */\n          swap2\n          swap1\n          pop\n          jump\t// out\n\n        auxdata: 0xa264697066735822122008dfe0447cc126f0259ce39dc275e9d74aacc2ddd3a148bc32f4012698eaae5264736f6c634300081a0033\n    }\n}\n\nsub_2: assembly {\n        /* \"week6_practice/parent.sol\":381:467  contract Dog is Animal{... */\n      mstore(0x40, 0x80)\n        /* \"week6_practice/parent.sol\":410:458  constructor(string memory _name) Animal(_name){} */\n      callvalue\n      dup1\n      iszero\n      tag_1\n      jumpi\n      0x00\n      dup1\n      revert\n    tag_1:\n      pop\n      mload(0x40)\n      sub(codesize, bytecodeSize)\n      dup1\n      bytecodeSize\n      dup4\n      codecopy\n      dup2\n      dup2\n      add\n      0x40\n      mstore\n      dup2\n      add\n      swap1\n      tag_2\n      swap2\n      swap1\n      tag_3\n      jump\t// in\n    tag_2:\n        /* \"week6_practice/parent.sol\":450:455  _name */\n      dup1\n        /* \"week6_practice/parent.sol\":174:179  _name */\n      dup1\n        /* \"week6_practice/parent.sol\":166:173  species */\n      0x00\n        /* \"week6_practice/parent.sol\":166:179  species=_name */\n      swap1\n      dup2\n      tag_7\n      swap2\n      swap1\n      tag_8\n      jump\t// in\n    tag_7:\n      pop\n        /* \"week6_practice/parent.sol\":123:187  constructor(string memory _name){... */\n      pop\n        /* \"week6_practice/parent.sol\":410:458  constructor(string memory _name) Animal(_name){} */\n      pop\n        /* \"week6_practice/parent.sol\":381:467  contract Dog is Animal{... */\n      jump(tag_10)\n        /* \"#utility.yul\":7:82   */\n    tag_11:\n        /* \"#utility.yul\":40:46   */\n      0x00\n        /* \"#utility.yul\":73:75   */\n      0x40\n        /* \"#utility.yul\":67:76   */\n      mload\n        /* \"#utility.yul\":57:76   */\n      swap1\n      pop\n        /* \"#utility.yul\":7:82   */\n      swap1\n      jump\t// out\n        /* \"#utility.yul\":88:205   */\n    tag_12:\n        /* \"#utility.yul\":197:198   */\n      0x00\n        /* \"#utility.yul\":194:195   */\n      dup1\n        /* \"#utility.yul\":187:199   */\n      revert\n        /* \"#utility.yul\":211:328   */\n    tag_13:\n        /* \"#utility.yul\":320:321   */\n      0x00\n        /* \"#utility.yul\":317:318   */\n      dup1\n        /* \"#utility.yul\":310:322   */\n      revert\n        /* \"#utility.yul\":334:451   */\n    tag_14:\n        /* \"#utility.yul\":443:444   */\n      0x00\n        /* \"#utility.yul\":440:441   */\n      dup1\n        /* \"#utility.yul\":433:445   */\n      revert\n        /* \"#utility.yul\":457:574   */\n    tag_15:\n        /* \"#utility.yul\":566:567   */\n      0x00\n        /* \"#utility.yul\":563:564   */\n      dup1\n        /* \"#utility.yul\":556:568   */\n      revert\n        /* \"#utility.yul\":580:682   */\n    tag_16:\n        /* \"#utility.yul\":621:627   */\n      0x00\n        /* \"#utility.yul\":672:674   */\n      0x1f\n        /* \"#utility.yul\":668:675   */\n      not\n        /* \"#utility.yul\":663:665   */\n      0x1f\n        /* \"#utility.yul\":656:661   */\n      dup4\n        /* \"#utility.yul\":652:666   */\n      add\n        /* \"#utility.yul\":648:676   */\n      and\n        /* \"#utility.yul\":638:676   */\n      swap1\n      pop\n        /* \"#utility.yul\":580:682   */\n      swap2\n      swap1\n      pop\n      jump\t// out\n        /* \"#utility.yul\":688:868   */\n    tag_17:\n        /* \"#utility.yul\":736:813   */\n      0x4e487b7100000000000000000000000000000000000000000000000000000000\n        /* \"#utility.yul\":733:734   */\n      0x00\n        /* \"#utility.yul\":726:814   */\n      mstore\n        /* \"#utility.yul\":833:837   */\n      0x41\n        /* \"#utility.yul\":830:831   */\n      0x04\n        /* \"#utility.yul\":823:838   */\n      mstore\n        /* \"#utility.yul\":857:861   */\n      0x24\n        /* \"#utility.yul\":854:855   */\n      0x00\n        /* \"#utility.yul\":847:862   */\n      revert\n        /* \"#utility.yul\":874:1155   */\n    tag_18:\n        /* \"#utility.yul\":957:984   */\n      tag_52\n        /* \"#utility.yul\":979:983   */\n      dup3\n        /* \"#utility.yul\":957:984   */\n      tag_16\n      jump\t// in\n    tag_52:\n        /* \"#utility.yul\":949:955   */\n      dup2\n        /* \"#utility.yul\":945:985   */\n      add\n        /* \"#utility.yul\":1087:1093   */\n      dup2\n        /* \"#utility.yul\":1075:1085   */\n      dup2\n        /* \"#utility.yul\":1072:1094   */\n      lt\n        /* \"#utility.yul\":1051:1069   */\n      0xffffffffffffffff\n        /* \"#utility.yul\":1039:1049   */\n      dup3\n        /* \"#utility.yul\":1036:1070   */\n      gt\n        /* \"#utility.yul\":1033:1095   */\n      or\n        /* \"#utility.yul\":1030:1118   */\n      iszero\n      tag_53\n      jumpi\n        /* \"#utility.yul\":1098:1116   */\n      tag_54\n      tag_17\n      jump\t// in\n    tag_54:\n        /* \"#utility.yul\":1030:1118   */\n    tag_53:\n        /* \"#utility.yul\":1138:1148   */\n      dup1\n        /* \"#utility.yul\":1134:1136   */\n      0x40\n        /* \"#utility.yul\":1127:1149   */\n      mstore\n        /* \"#utility.yul\":917:1155   */\n      pop\n        /* \"#utility.yul\":874:1155   */\n      pop\n      pop\n      jump\t// out\n        /* \"#utility.yul\":1161:1290   */\n    tag_19:\n        /* \"#utility.yul\":1195:1201   */\n      0x00\n        /* \"#utility.yul\":1222:1242   */\n      tag_56\n      tag_11\n      jump\t// in\n    tag_56:\n        /* \"#utility.yul\":1212:1242   */\n      swap1\n      pop\n        /* \"#utility.yul\":1251:1284   */\n      tag_57\n        /* \"#utility.yul\":1279:1283   */\n      dup3\n        /* \"#utility.yul\":1271:1277   */\n      dup3\n        /* \"#utility.yul\":1251:1284   */\n      tag_18\n      jump\t// in\n    tag_57:\n        /* \"#utility.yul\":1161:1290   */\n      swap2\n      swap1\n      pop\n      jump\t// out\n        /* \"#utility.yul\":1296:1604   */\n    tag_20:\n        /* \"#utility.yul\":1358:1362   */\n      0x00\n        /* \"#utility.yul\":1448:1466   */\n      0xffffffffffffffff\n        /* \"#utility.yul\":1440:1446   */\n      dup3\n        /* \"#utility.yul\":1437:1467   */\n      gt\n        /* \"#utility.yul\":1434:1490   */\n      iszero\n      tag_59\n      jumpi\n        /* \"#utility.yul\":1470:1488   */\n      tag_60\n      tag_17\n      jump\t// in\n    tag_60:\n        /* \"#utility.yul\":1434:1490   */\n    tag_59:\n        /* \"#utility.yul\":1508:1537   */\n      tag_61\n        /* \"#utility.yul\":1530:1536   */\n      dup3\n        /* \"#utility.yul\":1508:1537   */\n      tag_16\n      jump\t// in\n    tag_61:\n        /* \"#utility.yul\":1500:1537   */\n      swap1\n      pop\n        /* \"#utility.yul\":1592:1596   */\n      0x20\n        /* \"#utility.yul\":1586:1590   */\n      dup2\n        /* \"#utility.yul\":1582:1597   */\n      add\n        /* \"#utility.yul\":1574:1597   */\n      swap1\n      pop\n        /* \"#utility.yul\":1296:1604   */\n      swap2\n      swap1\n      pop\n      jump\t// out\n        /* \"#utility.yul\":1610:1749   */\n    tag_21:\n        /* \"#utility.yul\":1699:1705   */\n      dup3\n        /* \"#utility.yul\":1694:1697   */\n      dup2\n        /* \"#utility.yul\":1689:1692   */\n      dup4\n        /* \"#utility.yul\":1683:1706   */\n      mcopy\n        /* \"#utility.yul\":1740:1741   */\n      0x00\n        /* \"#utility.yul\":1731:1737   */\n      dup4\n        /* \"#utility.yul\":1726:1729   */\n      dup4\n        /* \"#utility.yul\":1722:1738   */\n      add\n        /* \"#utility.yul\":1715:1742   */\n      mstore\n        /* \"#utility.yul\":1610:1749   */\n      pop\n      pop\n      pop\n      jump\t// out\n        /* \"#utility.yul\":1755:2189   */\n    tag_22:\n        /* \"#utility.yul\":1844:1849   */\n      0x00\n        /* \"#utility.yul\":1869:1935   */\n      tag_64\n        /* \"#utility.yul\":1885:1934   */\n      tag_65\n        /* \"#utility.yul\":1927:1933   */\n      dup5\n        /* \"#utility.yul\":1885:1934   */\n      tag_20\n      jump\t// in\n    tag_65:\n        /* \"#utility.yul\":1869:1935   */\n      tag_19\n      jump\t// in\n    tag_64:\n        /* \"#utility.yul\":1860:1935   */\n      swap1\n      pop\n        /* \"#utility.yul\":1958:1964   */\n      dup3\n        /* \"#utility.yul\":1951:1956   */\n      dup2\n        /* \"#utility.yul\":1944:1965   */\n      mstore\n        /* \"#utility.yul\":1996:2000   */\n      0x20\n        /* \"#utility.yul\":1989:1994   */\n      dup2\n        /* \"#utility.yul\":1985:2001   */\n      add\n        /* \"#utility.yul\":2034:2037   */\n      dup5\n        /* \"#utility.yul\":2025:2031   */\n      dup5\n        /* \"#utility.yul\":2020:2023   */\n      dup5\n        /* \"#utility.yul\":2016:2032   */\n      add\n        /* \"#utility.yul\":2013:2038   */\n      gt\n        /* \"#utility.yul\":2010:2122   */\n      iszero\n      tag_66\n      jumpi\n        /* \"#utility.yul\":2041:2120   */\n      tag_67\n      tag_15\n      jump\t// in\n    tag_67:\n        /* \"#utility.yul\":2010:2122   */\n    tag_66:\n        /* \"#utility.yul\":2131:2183   */\n      tag_68\n        /* \"#utility.yul\":2176:2182   */\n      dup5\n        /* \"#utility.yul\":2171:2174   */\n      dup3\n        /* \"#utility.yul\":2166:2169   */\n      dup6\n        /* \"#utility.yul\":2131:2183   */\n      tag_21\n      jump\t// in\n    tag_68:\n        /* \"#utility.yul\":1850:2189   */\n      pop\n        /* \"#utility.yul\":1755:2189   */\n      swap4\n      swap3\n      pop\n      pop\n      pop\n      jump\t// out\n        /* \"#utility.yul\":2209:2564   */\n    tag_23:\n        /* \"#utility.yul\":2276:2281   */\n      0x00\n        /* \"#utility.yul\":2325:2328   */\n      dup3\n        /* \"#utility.yul\":2318:2322   */\n      0x1f\n        /* \"#utility.yul\":2310:2316   */\n      dup4\n        /* \"#utility.yul\":2306:2323   */\n      add\n        /* \"#utility.yul\":2302:2329   */\n      slt\n        /* \"#utility.yul\":2292:2414   */\n      tag_70\n      jumpi\n        /* \"#utility.yul\":2333:2412   */\n      tag_71\n      tag_14\n      jump\t// in\n    tag_71:\n        /* \"#utility.yul\":2292:2414   */\n    tag_70:\n        /* \"#utility.yul\":2443:2449   */\n      dup2\n        /* \"#utility.yul\":2437:2450   */\n      mload\n        /* \"#utility.yul\":2468:2558   */\n      tag_72\n        /* \"#utility.yul\":2554:2557   */\n      dup5\n        /* \"#utility.yul\":2546:2552   */\n      dup3\n        /* \"#utility.yul\":2539:2543   */\n      0x20\n        /* \"#utility.yul\":2531:2537   */\n      dup7\n        /* \"#utility.yul\":2527:2544   */\n      add\n        /* \"#utility.yul\":2468:2558   */\n      tag_22\n      jump\t// in\n    tag_72:\n        /* \"#utility.yul\":2459:2558   */\n      swap2\n      pop\n        /* \"#utility.yul\":2282:2564   */\n      pop\n        /* \"#utility.yul\":2209:2564   */\n      swap3\n      swap2\n      pop\n      pop\n      jump\t// out\n        /* \"#utility.yul\":2570:3094   */\n    tag_3:\n        /* \"#utility.yul\":2650:2656   */\n      0x00\n        /* \"#utility.yul\":2699:2701   */\n      0x20\n        /* \"#utility.yul\":2687:2696   */\n      dup3\n        /* \"#utility.yul\":2678:2685   */\n      dup5\n        /* \"#utility.yul\":2674:2697   */\n      sub\n        /* \"#utility.yul\":2670:2702   */\n      slt\n        /* \"#utility.yul\":2667:2786   */\n      iszero\n      tag_74\n      jumpi\n        /* \"#utility.yul\":2705:2784   */\n      tag_75\n      tag_12\n      jump\t// in\n    tag_75:\n        /* \"#utility.yul\":2667:2786   */\n    tag_74:\n        /* \"#utility.yul\":2846:2847   */\n      0x00\n        /* \"#utility.yul\":2835:2844   */\n      dup3\n        /* \"#utility.yul\":2831:2848   */\n      add\n        /* \"#utility.yul\":2825:2849   */\n      mload\n        /* \"#utility.yul\":2876:2894   */\n      0xffffffffffffffff\n        /* \"#utility.yul\":2868:2874   */\n      dup2\n        /* \"#utility.yul\":2865:2895   */\n      gt\n        /* \"#utility.yul\":2862:2979   */\n      iszero\n      tag_76\n      jumpi\n        /* \"#utility.yul\":2898:2977   */\n      tag_77\n      tag_13\n      jump\t// in\n    tag_77:\n        /* \"#utility.yul\":2862:2979   */\n    tag_76:\n        /* \"#utility.yul\":3003:3077   */\n      tag_78\n        /* \"#utility.yul\":3069:3076   */\n      dup5\n        /* \"#utility.yul\":3060:3066   */\n      dup3\n        /* \"#utility.yul\":3049:3058   */\n      dup6\n        /* \"#utility.yul\":3045:3067   */\n      add\n        /* \"#utility.yul\":3003:3077   */\n      tag_23\n      jump\t// in\n    tag_78:\n        /* \"#utility.yul\":2993:3077   */\n      swap2\n      pop\n        /* \"#utility.yul\":2796:3087   */\n      pop\n        /* \"#utility.yul\":2570:3094   */\n      swap3\n      swap2\n      pop\n      pop\n      jump\t// out\n        /* \"#utility.yul\":3100:3199   */\n    tag_24:\n        /* \"#utility.yul\":3152:3158   */\n      0x00\n        /* \"#utility.yul\":3186:3191   */\n      dup2\n        /* \"#utility.yul\":3180:3192   */\n      mload\n        /* \"#utility.yul\":3170:3192   */\n      swap1\n      pop\n        /* \"#utility.yul\":3100:3199   */\n      swap2\n      swap1\n      pop\n      jump\t// out\n        /* \"#utility.yul\":3205:3385   */\n    tag_25:\n        /* \"#utility.yul\":3253:3330   */\n      0x4e487b7100000000000000000000000000000000000000000000000000000000\n        /* \"#utility.yul\":3250:3251   */\n      0x00\n        /* \"#utility.yul\":3243:3331   */\n      mstore\n        /* \"#utility.yul\":3350:3354   */\n      0x22\n        /* \"#utility.yul\":3347:3348   */\n      0x04\n        /* \"#utility.yul\":3340:3355   */\n      mstore\n        /* \"#utility.yul\":3374:3378   */\n      0x24\n        /* \"#utility.yul\":3371:3372   */\n      0x00\n        /* \"#utility.yul\":3364:3379   */\n      revert\n        /* \"#utility.yul\":3391:3711   */\n    tag_26:\n        /* \"#utility.yul\":3435:3441   */\n      0x00\n        /* \"#utility.yul\":3472:3473   */\n      0x02\n        /* \"#utility.yul\":3466:3470   */\n      dup3\n        /* \"#utility.yul\":3462:3474   */\n      div\n        /* \"#utility.yul\":3452:3474   */\n      swap1\n      pop\n        /* \"#utility.yul\":3519:3520   */\n      0x01\n        /* \"#utility.yul\":3513:3517   */\n      dup3\n        /* \"#utility.yul\":3509:3521   */\n      and\n        /* \"#utility.yul\":3540:3558   */\n      dup1\n        /* \"#utility.yul\":3530:3611   */\n      tag_82\n      jumpi\n        /* \"#utility.yul\":3596:3600   */\n      0x7f\n        /* \"#utility.yul\":3588:3594   */\n      dup3\n        /* \"#utility.yul\":3584:3601   */\n      and\n        /* \"#utility.yul\":3574:3601   */\n      swap2\n      pop\n        /* \"#utility.yul\":3530:3611   */\n    tag_82:\n        /* \"#utility.yul\":3658:3660   */\n      0x20\n        /* \"#utility.yul\":3650:3656   */\n      dup3\n        /* \"#utility.yul\":3647:3661   */\n      lt\n        /* \"#utility.yul\":3627:3645   */\n      dup2\n        /* \"#utility.yul\":3624:3662   */\n      sub\n        /* \"#utility.yul\":3621:3705   */\n      tag_83\n      jumpi\n        /* \"#utility.yul\":3677:3695   */\n      tag_84\n      tag_25\n      jump\t// in\n    tag_84:\n        /* \"#utility.yul\":3621:3705   */\n    tag_83:\n        /* \"#utility.yul\":3442:3711   */\n      pop\n        /* \"#utility.yul\":3391:3711   */\n      swap2\n      swap1\n      pop\n      jump\t// out\n        /* \"#utility.yul\":3717:3858   */\n    tag_27:\n        /* \"#utility.yul\":3766:3770   */\n      0x00\n        /* \"#utility.yul\":3789:3792   */\n      dup2\n        /* \"#utility.yul\":3781:3792   */\n      swap1\n      pop\n        /* \"#utility.yul\":3812:3815   */\n      dup2\n        /* \"#utility.yul\":3809:3810   */\n      0x00\n        /* \"#utility.yul\":3802:3816   */\n      mstore\n        /* \"#utility.yul\":3846:3850   */\n      0x20\n        /* \"#utility.yul\":3843:3844   */\n      0x00\n        /* \"#utility.yul\":3833:3851   */\n      keccak256\n        /* \"#utility.yul\":3825:3851   */\n      swap1\n      pop\n        /* \"#utility.yul\":3717:3858   */\n      swap2\n      swap1\n      pop\n      jump\t// out\n        /* \"#utility.yul\":3864:3957   */\n    tag_28:\n        /* \"#utility.yul\":3901:3907   */\n      0x00\n        /* \"#utility.yul\":3948:3950   */\n      0x20\n        /* \"#utility.yul\":3943:3945   */\n      0x1f\n        /* \"#utility.yul\":3936:3941   */\n      dup4\n        /* \"#utility.yul\":3932:3946   */\n      add\n        /* \"#utility.yul\":3928:3951   */\n      div\n        /* \"#utility.yul\":3918:3951   */\n      swap1\n      pop\n        /* \"#utility.yul\":3864:3957   */\n      swap2\n      swap1\n      pop\n      jump\t// out\n        /* \"#utility.yul\":3963:4070   */\n    tag_29:\n        /* \"#utility.yul\":4007:4015   */\n      0x00\n        /* \"#utility.yul\":4057:4062   */\n      dup3\n        /* \"#utility.yul\":4051:4055   */\n      dup3\n        /* \"#utility.yul\":4047:4063   */\n      shl\n        /* \"#utility.yul\":4026:4063   */\n      swap1\n      pop\n        /* \"#utility.yul\":3963:4070   */\n      swap3\n      swap2\n      pop\n      pop\n      jump\t// out\n        /* \"#utility.yul\":4076:4469   */\n    tag_30:\n        /* \"#utility.yul\":4145:4151   */\n      0x00\n        /* \"#utility.yul\":4195:4196   */\n      0x08\n        /* \"#utility.yul\":4183:4193   */\n      dup4\n        /* \"#utility.yul\":4179:4197   */\n      mul\n        /* \"#utility.yul\":4218:4315   */\n      tag_89\n        /* \"#utility.yul\":4248:4314   */\n      0xffffffffffffffffffffffffffffffffffffffffffffffffffffffffffffffff\n        /* \"#utility.yul\":4237:4246   */\n      dup3\n        /* \"#utility.yul\":4218:4315   */\n      tag_29\n      jump\t// in\n    tag_89:\n        /* \"#utility.yul\":4336:4375   */\n      tag_90\n        /* \"#utility.yul\":4366:4374   */\n      dup7\n        /* \"#utility.yul\":4355:4364   */\n      dup4\n        /* \"#utility.yul\":4336:4375   */\n      tag_29\n      jump\t// in\n    tag_90:\n        /* \"#utility.yul\":4324:4375   */\n      swap6\n      pop\n        /* \"#utility.yul\":4408:4412   */\n      dup1\n        /* \"#utility.yul\":4404:4413   */\n      not\n        /* \"#utility.yul\":4397:4402   */\n      dup5\n        /* \"#utility.yul\":4393:4414   */\n      and\n        /* \"#utility.yul\":4384:4414   */\n      swap4\n      pop\n        /* \"#utility.yul\":4457:4461   */\n      dup1\n        /* \"#utility.yul\":4447:4455   */\n      dup7\n        /* \"#utility.yul\":4443:4462   */\n      and\n        /* \"#utility.yul\":4436:4441   */\n      dup5\n        /* \"#utility.yul\":4433:4463   */\n      or\n        /* \"#utility.yul\":4423:4463   */\n      swap3\n      pop\n        /* \"#utility.yul\":4152:4469   */\n      pop\n      pop\n        /* \"#utility.yul\":4076:4469   */\n      swap4\n      swap3\n      pop\n      pop\n      pop\n      jump\t// out\n        /* \"#utility.yul\":4475:4552   */\n    tag_31:\n        /* \"#utility.yul\":4512:4519   */\n      0x00\n        /* \"#utility.yul\":4541:4546   */\n      dup2\n        /* \"#utility.yul\":4530:4546   */\n      swap1\n      pop\n        /* \"#utility.yul\":4475:4552   */\n      swap2\n      swap1\n      pop\n      jump\t// out\n        /* \"#utility.yul\":4558:4618   */\n    tag_32:\n        /* \"#utility.yul\":4586:4589   */\n      0x00\n        /* \"#utility.yul\":4607:4612   */\n      dup2\n        /* \"#utility.yul\":4600:4612   */\n      swap1\n      pop\n        /* \"#utility.yul\":4558:4618   */\n      swap2\n      swap1\n      pop\n      jump\t// out\n        /* \"#utility.yul\":4624:4766   */\n    tag_33:\n        /* \"#utility.yul\":4674:4683   */\n      0x00\n        /* \"#utility.yul\":4707:4760   */\n      tag_94\n        /* \"#utility.yul\":4725:4759   */\n      tag_95\n        /* \"#utility.yul\":4734:4758   */\n      tag_96\n        /* \"#utility.yul\":4752:4757   */\n      dup5\n        /* \"#utility.yul\":4734:4758   */\n      tag_31\n      jump\t// in\n    tag_96:\n        /* \"#utility.yul\":4725:4759   */\n      tag_32\n      jump\t// in\n    tag_95:\n        /* \"#utility.yul\":4707:4760   */\n      tag_31\n      jump\t// in\n    tag_94:\n        /* \"#utility.yul\":4694:4760   */\n      swap1\n      pop\n        /* \"#utility.yul\":4624:4766   */\n      swap2\n      swap1\n      pop\n      jump\t// out\n        /* \"#utility.yul\":4772:4847   */\n    tag_34:\n        /* \"#utility.yul\":4815:4818   */\n      0x00\n        /* \"#utility.yul\":4836:4841   */\n      dup2\n        /* \"#utility.yul\":4829:4841   */\n      swap1\n      pop\n        /* \"#utility.yul\":4772:4847   */\n      swap2\n      swap1\n      pop\n      jump\t// out\n        /* \"#utility.yul\":4853:5122   */\n    tag_35:\n        /* \"#utility.yul\":4963:5002   */\n      tag_99\n        /* \"#utility.yul\":4994:5001   */\n      dup4\n        /* \"#utility.yul\":4963:5002   */\n      tag_33\n      jump\t// in\n    tag_99:\n        /* \"#utility.yul\":5024:5115   */\n      tag_100\n        /* \"#utility.yul\":5073:5114   */\n      tag_101\n        /* \"#utility.yul\":5097:5113   */\n      dup3\n        /* \"#utility.yul\":5073:5114   */\n      tag_34\n      jump\t// in\n    tag_101:\n        /* \"#utility.yul\":5065:5071   */\n      dup5\n        /* \"#utility.yul\":5058:5062   */\n      dup5\n        /* \"#utility.yul\":5052:5063   */\n      sload\n        /* \"#utility.yul\":5024:5115   */\n      tag_30\n      jump\t// in\n    tag_100:\n        /* \"#utility.yul\":5018:5022   */\n      dup3\n        /* \"#utility.yul\":5011:5116   */\n      sstore\n        /* \"#utility.yul\":4929:5122   */\n      pop\n        /* \"#utility.yul\":4853:5122   */\n      pop\n      pop\n      pop\n      jump\t// out\n        /* \"#utility.yul\":5128:5201   */\n    tag_36:\n        /* \"#utility.yul\":5173:5176   */\n      0x00\n        /* \"#utility.yul\":5128:5201   */\n      swap1\n      jump\t// out\n        /* \"#utility.yul\":5207:5396   */\n    tag_37:\n        /* \"#utility.yul\":5284:5316   */\n      tag_104\n      tag_36\n      jump\t// in\n    tag_104:\n        /* \"#utility.yul\":5325:5390   */\n      tag_105\n        /* \"#utility.yul\":5383:5389   */\n      dup2\n        /* \"#utility.yul\":5375:5381   */\n      dup5\n        /* \"#utility.yul\":5369:5373   */\n      dup5\n        /* \"#utility.yul\":5325:5390   */\n      tag_35\n      jump\t// in\n    tag_105:\n        /* \"#utility.yul\":5260:5396   */\n      pop\n        /* \"#utility.yul\":5207:5396   */\n      pop\n      pop\n      jump\t// out\n        /* \"#utility.yul\":5402:5588   */\n    tag_38:\n        /* \"#utility.yul\":5462:5582   */\n    tag_107:\n        /* \"#utility.yul\":5479:5482   */\n      dup2\n        /* \"#utility.yul\":5472:5477   */\n      dup2\n        /* \"#utility.yul\":5469:5483   */\n      lt\n        /* \"#utility.yul\":5462:5582   */\n      iszero\n      tag_109\n      jumpi\n        /* \"#utility.yul\":5533:5572   */\n      tag_110\n        /* \"#utility.yul\":5570:5571   */\n      0x00\n        /* \"#utility.yul\":5563:5568   */\n      dup3\n        /* \"#utility.yul\":5533:5572   */\n      tag_37\n      jump\t// in\n    tag_110:\n        /* \"#utility.yul\":5506:5507   */\n      0x01\n        /* \"#utility.yul\":5499:5504   */\n      dup2\n        /* \"#utility.yul\":5495:5508   */\n      add\n        /* \"#utility.yul\":5486:5508   */\n      swap1\n      pop\n        /* \"#utility.yul\":5462:5582   */\n      jump(tag_107)\n    tag_109:\n        /* \"#utility.yul\":5402:5588   */\n      pop\n      pop\n      jump\t// out\n        /* \"#utility.yul\":5594:6137   */\n    tag_39:\n        /* \"#utility.yul\":5695:5697   */\n      0x1f\n        /* \"#utility.yul\":5690:5693   */\n      dup3\n        /* \"#utility.yul\":5687:5698   */\n      gt\n        /* \"#utility.yul\":5684:6130   */\n      iszero\n      tag_112\n      jumpi\n        /* \"#utility.yul\":5729:5767   */\n      tag_113\n        /* \"#utility.yul\":5761:5766   */\n      dup2\n        /* \"#utility.yul\":5729:5767   */\n      tag_27\n      jump\t// in\n    tag_113:\n        /* \"#utility.yul\":5813:5842   */\n      tag_114\n        /* \"#utility.yul\":5831:5841   */\n      dup5\n        /* \"#utility.yul\":5813:5842   */\n      tag_28\n      jump\t// in\n    tag_114:\n        /* \"#utility.yul\":5803:5811   */\n      dup2\n        /* \"#utility.yul\":5799:5843   */\n      add\n        /* \"#utility.yul\":5996:5998   */\n      0x20\n        /* \"#utility.yul\":5984:5994   */\n      dup6\n        /* \"#utility.yul\":5981:5999   */\n      lt\n        /* \"#utility.yul\":5978:6027   */\n      iszero\n      tag_115\n      jumpi\n        /* \"#utility.yul\":6017:6025   */\n      dup2\n        /* \"#utility.yul\":6002:6025   */\n      swap1\n      pop\n        /* \"#utility.yul\":5978:6027   */\n    tag_115:\n        /* \"#utility.yul\":6040:6120   */\n      tag_116\n        /* \"#utility.yul\":6096:6118   */\n      tag_117\n        /* \"#utility.yul\":6114:6117   */\n      dup6\n        /* \"#utility.yul\":6096:6118   */\n      tag_28\n      jump\t// in\n    tag_117:\n        /* \"#utility.yul\":6086:6094   */\n      dup4\n        /* \"#utility.yul\":6082:6119   */\n      add\n        /* \"#utility.yul\":6069:6080   */\n      dup3\n        /* \"#utility.yul\":6040:6120   */\n      tag_38\n      jump\t// in\n    tag_116:\n        /* \"#utility.yul\":5699:6130   */\n      pop\n      pop\n        /* \"#utility.yul\":5684:6130   */\n    tag_112:\n        /* \"#utility.yul\":5594:6137   */\n      pop\n      pop\n      pop\n      jump\t// out\n        /* \"#utility.yul\":6143:6260   */\n    tag_40:\n        /* \"#utility.yul\":6197:6205   */\n      0x00\n        /* \"#utility.yul\":6247:6252   */\n      dup3\n        /* \"#utility.yul\":6241:6245   */\n      dup3\n        /* \"#utility.yul\":6237:6253   */\n      shr\n        /* \"#utility.yul\":6216:6253   */\n      swap1\n      pop\n        /* \"#utility.yul\":6143:6260   */\n      swap3\n      swap2\n      pop\n      pop\n      jump\t// out\n        /* \"#utility.yul\":6266:6435   */\n    tag_41:\n        /* \"#utility.yul\":6310:6316   */\n      0x00\n        /* \"#utility.yul\":6343:6394   */\n      tag_120\n        /* \"#utility.yul\":6391:6392   */\n      0x00\n        /* \"#utility.yul\":6387:6393   */\n      not\n        /* \"#utility.yul\":6379:6384   */\n      dup5\n        /* \"#utility.yul\":6376:6377   */\n      0x08\n        /* \"#utility.yul\":6372:6385   */\n      mul\n        /* \"#utility.yul\":6343:6394   */\n      tag_40\n      jump\t// in\n    tag_120:\n        /* \"#utility.yul\":6339:6395   */\n      not\n        /* \"#utility.yul\":6424:6428   */\n      dup1\n        /* \"#utility.yul\":6418:6422   */\n      dup4\n        /* \"#utility.yul\":6414:6429   */\n      and\n        /* \"#utility.yul\":6404:6429   */\n      swap2\n      pop\n        /* \"#utility.yul\":6317:6435   */\n      pop\n        /* \"#utility.yul\":6266:6435   */\n      swap3\n      swap2\n      pop\n      pop\n      jump\t// out\n        /* \"#utility.yul\":6440:6735   */\n    tag_42:\n        /* \"#utility.yul\":6516:6520   */\n      0x00\n        /* \"#utility.yul\":6662:6691   */\n      tag_122\n        /* \"#utility.yul\":6687:6690   */\n      dup4\n        /* \"#utility.yul\":6681:6685   */\n      dup4\n        /* \"#utility.yul\":6662:6691   */\n      tag_41\n      jump\t// in\n    tag_122:\n        /* \"#utility.yul\":6654:6691   */\n      swap2\n      pop\n        /* \"#utility.yul\":6724:6727   */\n      dup3\n        /* \"#utility.yul\":6721:6722   */\n      0x02\n        /* \"#utility.yul\":6717:6728   */\n      mul\n        /* \"#utility.yul\":6711:6715   */\n      dup3\n        /* \"#utility.yul\":6708:6729   */\n      or\n        /* \"#utility.yul\":6700:6729   */\n      swap1\n      pop\n        /* \"#utility.yul\":6440:6735   */\n      swap3\n      swap2\n      pop\n      pop\n      jump\t// out\n        /* \"#utility.yul\":6740:8135   */\n    tag_8:\n        /* \"#utility.yul\":6857:6894   */\n      tag_124\n        /* \"#utility.yul\":6890:6893   */\n      dup3\n        /* \"#utility.yul\":6857:6894   */\n      tag_24\n      jump\t// in\n    tag_124:\n        /* \"#utility.yul\":6959:6977   */\n      0xffffffffffffffff\n        /* \"#utility.yul\":6951:6957   */\n      dup2\n        /* \"#utility.yul\":6948:6978   */\n      gt\n        /* \"#utility.yul\":6945:7001   */\n      iszero\n      tag_125\n      jumpi\n        /* \"#utility.yul\":6981:6999   */\n      tag_126\n      tag_17\n      jump\t// in\n    tag_126:\n        /* \"#utility.yul\":6945:7001   */\n    tag_125:\n        /* \"#utility.yul\":7025:7063   */\n      tag_127\n        /* \"#utility.yul\":7057:7061   */\n      dup3\n        /* \"#utility.yul\":7051:7062   */\n      sload\n        /* \"#utility.yul\":7025:7063   */\n      tag_26\n      jump\t// in\n    tag_127:\n        /* \"#utility.yul\":7110:7177   */\n      tag_128\n        /* \"#utility.yul\":7170:7176   */\n      dup3\n        /* \"#utility.yul\":7162:7168   */\n      dup3\n        /* \"#utility.yul\":7156:7160   */\n      dup6\n        /* \"#utility.yul\":7110:7177   */\n      tag_39\n      jump\t// in\n    tag_128:\n        /* \"#utility.yul\":7204:7205   */\n      0x00\n        /* \"#utility.yul\":7228:7232   */\n      0x20\n        /* \"#utility.yul\":7215:7232   */\n      swap1\n      pop\n        /* \"#utility.yul\":7260:7262   */\n      0x1f\n        /* \"#utility.yul\":7252:7258   */\n      dup4\n        /* \"#utility.yul\":7249:7263   */\n      gt\n        /* \"#utility.yul\":7277:7278   */\n      0x01\n        /* \"#utility.yul\":7272:7890   */\n      dup2\n      eq\n      tag_130\n      jumpi\n        /* \"#utility.yul\":7934:7935   */\n      0x00\n        /* \"#utility.yul\":7951:7957   */\n      dup5\n        /* \"#utility.yul\":7948:8025   */\n      iszero\n      tag_131\n      jumpi\n        /* \"#utility.yul\":8000:8009   */\n      dup3\n        /* \"#utility.yul\":7995:7998   */\n      dup8\n        /* \"#utility.yul\":7991:8010   */\n      add\n        /* \"#utility.yul\":7985:8011   */\n      mload\n        /* \"#utility.yul\":7976:8011   */\n      swap1\n      pop\n        /* \"#utility.yul\":7948:8025   */\n    tag_131:\n        /* \"#utility.yul\":8051:8118   */\n      tag_132\n        /* \"#utility.yul\":8111:8117   */\n      dup6\n        /* \"#utility.yul\":8104:8109   */\n      dup3\n        /* \"#utility.yul\":8051:8118   */\n      tag_42\n      jump\t// in\n    tag_132:\n        /* \"#utility.yul\":8045:8049   */\n      dup7\n        /* \"#utility.yul\":8038:8119   */\n      sstore\n        /* \"#utility.yul\":7907:8129   */\n      pop\n        /* \"#utility.yul\":7242:8129   */\n      jump(tag_129)\n        /* \"#utility.yul\":7272:7890   */\n    tag_130:\n        /* \"#utility.yul\":7324:7328   */\n      0x1f\n        /* \"#utility.yul\":7320:7329   */\n      not\n        /* \"#utility.yul\":7312:7318   */\n      dup5\n        /* \"#utility.yul\":7308:7330   */\n      and\n        /* \"#utility.yul\":7358:7395   */\n      tag_133\n        /* \"#utility.yul\":7390:7394   */\n      dup7\n        /* \"#utility.yul\":7358:7395   */\n      tag_27\n      jump\t// in\n    tag_133:\n        /* \"#utility.yul\":7417:7418   */\n      0x00\n        /* \"#utility.yul\":7431:7639   */\n    tag_134:\n        /* \"#utility.yul\":7445:7452   */\n      dup3\n        /* \"#utility.yul\":7442:7443   */\n      dup2\n        /* \"#utility.yul\":7439:7453   */\n      lt\n        /* \"#utility.yul\":7431:7639   */\n      iszero\n      tag_136\n      jumpi\n        /* \"#utility.yul\":7524:7533   */\n      dup5\n        /* \"#utility.yul\":7519:7522   */\n      dup10\n        /* \"#utility.yul\":7515:7534   */\n      add\n        /* \"#utility.yul\":7509:7535   */\n      mload\n        /* \"#utility.yul\":7501:7507   */\n      dup3\n        /* \"#utility.yul\":7494:7536   */\n      sstore\n        /* \"#utility.yul\":7575:7576   */\n      0x01\n        /* \"#utility.yul\":7567:7573   */\n      dup3\n        /* \"#utility.yul\":7563:7577   */\n      add\n        /* \"#utility.yul\":7553:7577   */\n      swap2\n      pop\n        /* \"#utility.yul\":7622:7624   */\n      0x20\n        /* \"#utility.yul\":7611:7620   */\n      dup6\n        /* \"#utility.yul\":7607:7625   */\n      add\n        /* \"#utility.yul\":7594:7625   */\n      swap5\n      pop\n        /* \"#utility.yul\":7468:7472   */\n      0x20\n        /* \"#utility.yul\":7465:7466   */\n      dup2\n        /* \"#utility.yul\":7461:7473   */\n      add\n        /* \"#utility.yul\":7456:7473   */\n      swap1\n      pop\n        /* \"#utility.yul\":7431:7639   */\n      jump(tag_134)\n    tag_136:\n        /* \"#utility.yul\":7667:7673   */\n      dup7\n        /* \"#utility.yul\":7658:7665   */\n      dup4\n        /* \"#utility.yul\":7655:7674   */\n      lt\n        /* \"#utility.yul\":7652:7831   */\n      iszero\n      tag_137\n      jumpi\n        /* \"#utility.yul\":7725:7734   */\n      dup5\n        /* \"#utility.yul\":7720:7723   */\n      dup10\n        /* \"#utility.yul\":7716:7735   */\n      add\n        /* \"#utility.yul\":7710:7736   */\n      mload\n        /* \"#utility.yul\":7768:7816   */\n      tag_138\n        /* \"#utility.yul\":7810:7814   */\n      0x1f\n        /* \"#utility.yul\":7802:7808   */\n      dup10\n        /* \"#utility.yul\":7798:7815   */\n      and\n        /* \"#utility.yul\":7787:7796   */\n      dup3\n        /* \"#utility.yul\":7768:7816   */\n      tag_41\n      jump\t// in\n    tag_138:\n        /* \"#utility.yul\":7760:7766   */\n      dup4\n        /* \"#utility.yul\":7753:7817   */\n      sstore\n        /* \"#utility.yul\":7675:7831   */\n      pop\n        /* \"#utility.yul\":7652:7831   */\n    tag_137:\n        /* \"#utility.yul\":7877:7878   */\n      0x01\n        /* \"#utility.yul\":7873:7874   */\n      0x02\n        /* \"#utility.yul\":7865:7871   */\n      dup9\n        /* \"#utility.yul\":7861:7875   */\n      mul\n        /* \"#utility.yul\":7857:7879   */\n      add\n        /* \"#utility.yul\":7851:7855   */\n      dup9\n        /* \"#utility.yul\":7844:7880   */\n      sstore\n        /* \"#utility.yul\":7279:7890   */\n      pop\n      pop\n      pop\n        /* \"#utility.yul\":7242:8129   */\n    tag_129:\n      pop\n        /* \"#utility.yul\":6832:8135   */\n      pop\n      pop\n      pop\n        /* \"#utility.yul\":6740:8135   */\n      pop\n      pop\n      jump\t// out\n        /* \"week6_practice/parent.sol\":381:467  contract Dog is Animal{... */\n    tag_10:\n      dataSize(sub_0)\n      dup1\n      dataOffset(sub_0)\n      0x00\n      codecopy\n      0x00\n      return\n    stop\n\n    sub_0: assembly {\n            /* \"week6_practice/parent.sol\":381:467  contract Dog is Animal{... */\n          mstore(0x40, 0x80)\n          callvalue\n          dup1\n          iszero\n          tag_1\n          jumpi\n          0x00\n          dup1\n          revert\n        tag_1:\n          pop\n          jumpi(tag_2, lt(calldatasize, 0x04))\n          shr(0xe0, calldataload(0x00))\n          dup1\n          0x85d7acf5\n          eq\n          tag_3\n          jumpi\n          dup1\n          0x9dd807b1\n          eq\n          tag_4\n          jumpi\n        tag_2:\n          0x00\n          dup1\n          revert\n            /* \"week6_practice/parent.sol\":193:282  function getSpecies() public view returns(string memory){... */\n        tag_3:\n          tag_5\n          tag_6\n          jump\t// in\n        tag_5:\n          mload(0x40)\n          tag_7\n          swap2\n          swap1\n          tag_8\n          jump\t// in\n        tag_7:\n          mload(0x40)\n          dup1\n          swap2\n          sub\n          swap1\n          return\n            /* \"week6_practice/parent.sol\":95:116  string public species */\n        tag_4:\n          tag_9\n          tag_10\n          jump\t// in\n        tag_9:\n          mload(0x40)\n          tag_11\n          swap2\n          swap1\n          tag_8\n          jump\t// in\n        tag_11:\n          mload(0x40)\n          dup1\n          swap2\n          sub\n          swap1\n          return\n            /* \"week6_practice/parent.sol\":193:282  function getSpecies() public view returns(string memory){... */\n        tag_6:\n            /* \"week6_practice/parent.sol\":235:248  string memory */\n          0x60\n            /* \"week6_practice/parent.sol\":267:274  species */\n          0x00\n            /* \"week6_practice/parent.sol\":260:274  return species */\n          dup1\n          sload\n          tag_13\n          swap1\n          tag_14\n          jump\t// in\n        tag_13:\n          dup1\n          0x1f\n          add\n          0x20\n          dup1\n          swap2\n          div\n          mul\n          0x20\n          add\n          mload(0x40)\n          swap1\n          dup2\n          add\n          0x40\n          mstore\n          dup1\n          swap3\n          swap2\n          swap1\n          dup2\n          dup2\n          mstore\n          0x20\n          add\n          dup3\n          dup1\n          sload\n          tag_15\n          swap1\n          tag_14\n          jump\t// in\n        tag_15:\n          dup1\n          iszero\n          tag_16\n          jumpi\n          dup1\n          0x1f\n          lt\n          tag_17\n          jumpi\n          0x0100\n          dup1\n          dup4\n          sload\n          div\n          mul\n          dup4\n          mstore\n          swap2\n          0x20\n          add\n          swap2\n          jump(tag_16)\n        tag_17:\n          dup3\n          add\n          swap2\n          swap1\n          0x00\n          mstore\n          keccak256(0x00, 0x20)\n          swap1\n        tag_18:\n          dup2\n          sload\n          dup2\n          mstore\n          swap1\n          0x01\n          add\n          swap1\n          0x20\n          add\n          dup1\n          dup4\n          gt\n          tag_18\n          jumpi\n          dup3\n          swap1\n          sub\n          0x1f\n          and\n          dup3\n          add\n          swap2\n        tag_16:\n          pop\n          pop\n          pop\n          pop\n          pop\n          swap1\n          pop\n            /* \"week6_practice/parent.sol\":193:282  function getSpecies() public view returns(string memory){... */\n          swap1\n          jump\t// out\n            /* \"week6_practice/parent.sol\":95:116  string public species */\n        tag_10:\n          0x00\n          dup1\n          sload\n          tag_19\n          swap1\n          tag_14\n          jump\t// in\n        tag_19:\n          dup1\n          0x1f\n          add\n          0x20\n          dup1\n          swap2\n          div\n          mul\n          0x20\n          add\n          mload(0x40)\n          swap1\n          dup2\n          add\n          0x40\n          mstore\n          dup1\n          swap3\n          swap2\n          swap1\n          dup2\n          dup2\n          mstore\n          0x20\n          add\n          dup3\n          dup1\n          sload\n          tag_20\n          swap1\n          tag_14\n          jump\t// in\n        tag_20:\n          dup1\n          iszero\n          tag_21\n          jumpi\n          dup1\n          0x1f\n          lt\n          tag_22\n          jumpi\n          0x0100\n          dup1\n          dup4\n          sload\n          div\n          mul\n          dup4\n          mstore\n          swap2\n          0x20\n          add\n          swap2\n          jump(tag_21)\n        tag_22:\n          dup3\n          add\n          swap2\n          swap1\n          0x00\n          mstore\n          keccak256(0x00, 0x20)\n          swap1\n        tag_23:\n          dup2\n          sload\n          dup2\n          mstore\n          swap1\n          0x01\n          add\n          swap1\n          0x20\n          add\n          dup1\n          dup4\n          gt\n          tag_23\n          jumpi\n          dup3\n          swap1\n          sub\n          0x1f\n          and\n          dup3\n          add\n          swap2\n        tag_21:\n          pop\n          pop\n          pop\n          pop\n          pop\n          dup2\n          jump\t// out\n            /* \"#utility.yul\":7:106   */\n        tag_24:\n            /* \"#utility.yul\":59:65   */\n          0x00\n            /* \"#utility.yul\":93:98   */\n          dup2\n            /* \"#utility.yul\":87:99   */\n          mload\n            /* \"#utility.yul\":77:99   */\n          swap1\n          pop\n            /* \"#utility.yul\":7:106   */\n          swap2\n          swap1\n          pop\n          jump\t// out\n            /* \"#utility.yul\":112:281   */\n        tag_25:\n            /* \"#utility.yul\":196:207   */\n          0x00\n            /* \"#utility.yul\":230:236   */\n          dup3\n            /* \"#utility.yul\":225:228   */\n          dup3\n            /* \"#utility.yul\":218:237   */\n          mstore\n            /* \"#utility.yul\":270:274   */\n          0x20\n            /* \"#utility.yul\":265:268   */\n          dup3\n            /* \"#utility.yul\":261:275   */\n          add\n            /* \"#utility.yul\":246:275   */\n          swap1\n          pop\n            /* \"#utility.yul\":112:281   */\n          swap3\n          swap2\n          pop\n          pop\n          jump\t// out\n            /* \"#utility.yul\":287:426   */\n        tag_26:\n            /* \"#utility.yul\":376:382   */\n          dup3\n            /* \"#utility.yul\":371:374   */\n          dup2\n            /* \"#utility.yul\":366:369   */\n          dup4\n            /* \"#utility.yul\":360:383   */\n          mcopy\n            /* \"#utility.yul\":417:418   */\n          0x00\n            /* \"#utility.yul\":408:414   */\n          dup4\n            /* \"#utility.yul\":403:406   */\n          dup4\n            /* \"#utility.yul\":399:415   */\n          add\n            /* \"#utility.yul\":392:419   */\n          mstore\n            /* \"#utility.yul\":287:426   */\n          pop\n          pop\n          pop\n          jump\t// out\n            /* \"#utility.yul\":432:534   */\n        tag_27:\n            /* \"#utility.yul\":473:479   */\n          0x00\n            /* \"#utility.yul\":524:526   */\n          0x1f\n            /* \"#utility.yul\":520:527   */\n          not\n            /* \"#utility.yul\":515:517   */\n          0x1f\n            /* \"#utility.yul\":508:513   */\n          dup4\n            /* \"#utility.yul\":504:518   */\n          add\n            /* \"#utility.yul\":500:528   */\n          and\n            /* \"#utility.yul\":490:528   */\n          swap1\n          pop\n            /* \"#utility.yul\":432:534   */\n          swap2\n          swap1\n          pop\n          jump\t// out\n            /* \"#utility.yul\":540:917   */\n        tag_28:\n            /* \"#utility.yul\":628:631   */\n          0x00\n            /* \"#utility.yul\":656:695   */\n          tag_36\n            /* \"#utility.yul\":689:694   */\n          dup3\n            /* \"#utility.yul\":656:695   */\n          tag_24\n          jump\t// in\n        tag_36:\n            /* \"#utility.yul\":711:782   */\n          tag_37\n            /* \"#utility.yul\":775:781   */\n          dup2\n            /* \"#utility.yul\":770:773   */\n          dup6\n            /* \"#utility.yul\":711:782   */\n          tag_25\n          jump\t// in\n        tag_37:\n            /* \"#utility.yul\":704:782   */\n          swap4\n          pop\n            /* \"#utility.yul\":791:856   */\n          tag_38\n            /* \"#utility.yul\":849:855   */\n          dup2\n            /* \"#utility.yul\":844:847   */\n          dup6\n            /* \"#utility.yul\":837:841   */\n          0x20\n            /* \"#utility.yul\":830:835   */\n          dup7\n            /* \"#utility.yul\":826:842   */\n          add\n            /* \"#utility.yul\":791:856   */\n          tag_26\n          jump\t// in\n        tag_38:\n            /* \"#utility.yul\":881:910   */\n          tag_39\n            /* \"#utility.yul\":903:909   */\n          dup2\n            /* \"#utility.yul\":881:910   */\n          tag_27\n          jump\t// in\n        tag_39:\n            /* \"#utility.yul\":876:879   */\n          dup5\n            /* \"#utility.yul\":872:911   */\n          add\n            /* \"#utility.yul\":865:911   */\n          swap2\n          pop\n            /* \"#utility.yul\":632:917   */\n          pop\n            /* \"#utility.yul\":540:917   */\n          swap3\n          swap2\n          pop\n          pop\n          jump\t// out\n            /* \"#utility.yul\":923:1236   */\n        tag_8:\n            /* \"#utility.yul\":1036:1040   */\n          0x00\n            /* \"#utility.yul\":1074:1076   */\n          0x20\n            /* \"#utility.yul\":1063:1072   */\n          dup3\n            /* \"#utility.yul\":1059:1077   */\n          add\n            /* \"#utility.yul\":1051:1077   */\n          swap1\n          pop\n            /* \"#utility.yul\":1123:1132   */\n          dup2\n            /* \"#utility.yul\":1117:1121   */\n          dup2\n            /* \"#utility.yul\":1113:1133   */\n          sub\n            /* \"#utility.yul\":1109:1110   */\n          0x00\n            /* \"#utility.yul\":1098:1107   */\n          dup4\n            /* \"#utility.yul\":1094:1111   */\n          add\n            /* \"#utility.yul\":1087:1134   */\n          mstore\n            /* \"#utility.yul\":1151:1229   */\n          tag_41\n            /* \"#utility.yul\":1224:1228   */\n          dup2\n            /* \"#utility.yul\":1215:1221   */\n          dup5\n            /* \"#utility.yul\":1151:1229   */\n          tag_28\n          jump\t// in\n        tag_41:\n            /* \"#utility.yul\":1143:1229   */\n          swap1\n          pop\n            /* \"#utility.yul\":923:1236   */\n          swap3\n          swap2\n          pop\n          pop\n          jump\t// out\n            /* \"#utility.yul\":1242:1422   */\n        tag_29:\n            /* \"#utility.yul\":1290:1367   */\n          0x4e487b7100000000000000000000000000000000000000000000000000000000\n            /* \"#utility.yul\":1287:1288   */\n          0x00\n            /* \"#utility.yul\":1280:1368   */\n          mstore\n            /* \"#utility.yul\":1387:1391   */\n          0x22\n            /* \"#utility.yul\":1384:1385   */\n          0x04\n            /* \"#utility.yul\":1377:1392   */\n          mstore\n            /* \"#utility.yul\":1411:1415   */\n          0x24\n            /* \"#utility.yul\":1408:1409   */\n          0x00\n            /* \"#utility.yul\":1401:1416   */\n          revert\n            /* \"#utility.yul\":1428:1748   */\n        tag_14:\n            /* \"#utility.yul\":1472:1478   */\n          0x00\n            /* \"#utility.yul\":1509:1510   */\n          0x02\n            /* \"#utility.yul\":1503:1507   */\n          dup3\n            /* \"#utility.yul\":1499:1511   */\n          div\n            /* \"#utility.yul\":1489:1511   */\n          swap1\n          pop\n            /* \"#utility.yul\":1556:1557   */\n          0x01\n            /* \"#utility.yul\":1550:1554   */\n          dup3\n            /* \"#utility.yul\":1546:1558   */\n          and\n            /* \"#utility.yul\":1577:1595   */\n          dup1\n            /* \"#utility.yul\":1567:1648   */\n          tag_44\n          jumpi\n            /* \"#utility.yul\":1633:1637   */\n          0x7f\n            /* \"#utility.yul\":1625:1631   */\n          dup3\n            /* \"#utility.yul\":1621:1638   */\n          and\n            /* \"#utility.yul\":1611:1638   */\n          swap2\n          pop\n            /* \"#utility.yul\":1567:1648   */\n        tag_44:\n            /* \"#utility.yul\":1695:1697   */\n          0x20\n            /* \"#utility.yul\":1687:1693   */\n          dup3\n            /* \"#utility.yul\":1684:1698   */\n          lt\n            /* \"#utility.yul\":1664:1682   */\n          dup2\n            /* \"#utility.yul\":1661:1699   */\n          sub\n            /* \"#utility.yul\":1658:1742   */\n          tag_45\n          jumpi\n            /* \"#utility.yul\":1714:1732   */\n          tag_46\n          tag_29\n          jump\t// in\n        tag_46:\n            /* \"#utility.yul\":1658:1742   */\n        tag_45:\n            /* \"#utility.yul\":1479:1748   */\n          pop\n            /* \"#utility.yul\":1428:1748   */\n          swap2\n          swap1\n          pop\n          jump\t// out\n\n        auxdata: 0xa2646970667358221220411f54c35946b98e91ffc6f379f0e988f59cf59060bc743db2801c3132dfbda164736f6c634300081a0033\n    }\n}\n",
				"bytecode": {
					"linkReferences": {},
					"object": "608060405234801561000f575f80fd5b506040516117543803806117548339818101604052810190610031919061027e565b8160405161003e90610117565b6100489190610346565b604051809103905ff080158015610061573d5f803e3d5ffd5b505f806101000a81548173ffffffffffffffffffffffffffffffffffffffff021916908373ffffffffffffffffffffffffffffffffffffffff160217905550806040516100ad90610124565b6100b79190610346565b604051809103905ff0801580156100d0573d5f803e3d5ffd5b5060015f6101000a81548173ffffffffffffffffffffffffffffffffffffffff021916908373ffffffffffffffffffffffffffffffffffffffff1602179055505050610366565b6107768061086883390190565b61077680610fde83390190565b5f604051905090565b5f80fd5b5f80fd5b5f80fd5b5f80fd5b5f601f19601f8301169050919050565b7f4e487b71000000000000000000000000000000000000000000000000000000005f52604160045260245ffd5b6101908261014a565b810181811067ffffffffffffffff821117156101af576101ae61015a565b5b80604052505050565b5f6101c1610131565b90506101cd8282610187565b919050565b5f67ffffffffffffffff8211156101ec576101eb61015a565b5b6101f58261014a565b9050602081019050919050565b8281835e5f83830152505050565b5f61022261021d846101d2565b6101b8565b90508281526020810184848401111561023e5761023d610146565b5b610249848285610202565b509392505050565b5f82601f83011261026557610264610142565b5b8151610275848260208601610210565b91505092915050565b5f80604083850312156102945761029361013a565b5b5f83015167ffffffffffffffff8111156102b1576102b061013e565b5b6102bd85828601610251565b925050602083015167ffffffffffffffff8111156102de576102dd61013e565b5b6102ea85828601610251565b9150509250929050565b5f81519050919050565b5f82825260208201905092915050565b5f610318826102f4565b61032281856102fe565b9350610332818560208601610202565b61033b8161014a565b840191505092915050565b5f6020820190508181035f83015261035e818461030e565b905092915050565b6104f5806103735f395ff3fe608060405234801561000f575f80fd5b506004361061003f575f3560e01c806344d333ff14610043578063c3b3ad7f14610061578063fb825e5f1461007f575b5f80fd5b61004b61009e565b604051610058919061028b565b60405180910390f35b6100696100c1565b604051610076919061028b565b60405180910390f35b6100876100e6565b604051610095929190610314565b60405180910390f35b5f8054906101000a900473ffffffffffffffffffffffffffffffffffffffff1681565b60015f9054906101000a900473ffffffffffffffffffffffffffffffffffffffff1681565b6060805f8054906101000a900473ffffffffffffffffffffffffffffffffffffffff1673ffffffffffffffffffffffffffffffffffffffff166385d7acf56040518163ffffffff1660e01b81526004015f60405180830381865afa158015610150573d5f803e3d5ffd5b505050506040513d5f823e3d601f19601f820116820180604052508101906101789190610478565b60015f9054906101000a900473ffffffffffffffffffffffffffffffffffffffff1673ffffffffffffffffffffffffffffffffffffffff166385d7acf56040518163ffffffff1660e01b81526004015f60405180830381865afa1580156101e1573d5f803e3d5ffd5b505050506040513d5f823e3d601f19601f820116820180604052508101906102099190610478565b915091509091565b5f73ffffffffffffffffffffffffffffffffffffffff82169050919050565b5f819050919050565b5f61025361024e61024984610211565b610230565b610211565b9050919050565b5f61026482610239565b9050919050565b5f6102758261025a565b9050919050565b6102858161026b565b82525050565b5f60208201905061029e5f83018461027c565b92915050565b5f81519050919050565b5f82825260208201905092915050565b8281835e5f83830152505050565b5f601f19601f8301169050919050565b5f6102e6826102a4565b6102f081856102ae565b93506103008185602086016102be565b610309816102cc565b840191505092915050565b5f6040820190508181035f83015261032c81856102dc565b9050818103602083015261034081846102dc565b90509392505050565b5f604051905090565b5f80fd5b5f80fd5b5f80fd5b5f80fd5b7f4e487b71000000000000000000000000000000000000000000000000000000005f52604160045260245ffd5b610398826102cc565b810181811067ffffffffffffffff821117156103b7576103b6610362565b5b80604052505050565b5f6103c9610349565b90506103d5828261038f565b919050565b5f67ffffffffffffffff8211156103f4576103f3610362565b5b6103fd826102cc565b9050602081019050919050565b5f61041c610417846103da565b6103c0565b9050828152602081018484840111156104385761043761035e565b5b6104438482856102be565b509392505050565b5f82601f83011261045f5761045e61035a565b5b815161046f84826020860161040a565b91505092915050565b5f6020828403121561048d5761048c610352565b5b5f82015167ffffffffffffffff8111156104aa576104a9610356565b5b6104b68482850161044b565b9150509291505056fea2646970667358221220a80f3f2f294f72353d41e3ce5c8718489020c003edcf742f43265eb15db6c12c64736f6c634300081a0033608060405234801561000f575f80fd5b5060405161077638038061077683398181016040528101906100319190610195565b80805f908161004091906103e9565b5050506104b8565b5f604051905090565b5f80fd5b5f80fd5b5f80fd5b5f80fd5b5f601f19601f8301169050919050565b7f4e487b71000000000000000000000000000000000000000000000000000000005f52604160045260245ffd5b6100a782610061565b810181811067ffffffffffffffff821117156100c6576100c5610071565b5b80604052505050565b5f6100d8610048565b90506100e4828261009e565b919050565b5f67ffffffffffffffff82111561010357610102610071565b5b61010c82610061565b9050602081019050919050565b8281835e5f83830152505050565b5f610139610134846100e9565b6100cf565b9050828152602081018484840111156101555761015461005d565b5b610160848285610119565b509392505050565b5f82601f83011261017c5761017b610059565b5b815161018c848260208601610127565b91505092915050565b5f602082840312156101aa576101a9610051565b5b5f82015167ffffffffffffffff8111156101c7576101c6610055565b5b6101d384828501610168565b91505092915050565b5f81519050919050565b7f4e487b71000000000000000000000000000000000000000000000000000000005f52602260045260245ffd5b5f600282049050600182168061022a57607f821691505b60208210810361023d5761023c6101e6565b5b50919050565b5f819050815f5260205f209050919050565b5f6020601f8301049050919050565b5f82821b905092915050565b5f6008830261029f7fffffffffffffffffffffffffffffffffffffffffffffffffffffffffffffffff82610264565b6102a98683610264565b95508019841693508086168417925050509392505050565b5f819050919050565b5f819050919050565b5f6102ed6102e86102e3846102c1565b6102ca565b6102c1565b9050919050565b5f819050919050565b610306836102d3565b61031a610312826102f4565b848454610270565b825550505050565b5f90565b61032e610322565b6103398184846102fd565b505050565b5b8181101561035c576103515f82610326565b60018101905061033f565b5050565b601f8211156103a15761037281610243565b61037b84610255565b8101602085101561038a578190505b61039e61039685610255565b83018261033e565b50505b505050565b5f82821c905092915050565b5f6103c15f19846008026103a6565b1980831691505092915050565b5f6103d983836103b2565b9150826002028217905092915050565b6103f2826101dc565b67ffffffffffffffff81111561040b5761040a610071565b5b6104158254610213565b610420828285610360565b5f60209050601f831160018114610451575f841561043f578287015190505b61044985826103ce565b8655506104b0565b601f19841661045f86610243565b5f5b8281101561048657848901518255600182019150602085019450602081019050610461565b868310156104a3578489015161049f601f8916826103b2565b8355505b6001600288020188555050505b505050505050565b6102b1806104c55f395ff3fe608060405234801561000f575f80fd5b5060043610610034575f3560e01c806385d7acf5146100385780639dd807b114610056575b5f80fd5b610040610074565b60405161004d91906101fe565b60405180910390f35b61005e610103565b60405161006b91906101fe565b60405180910390f35b60605f80546100829061024b565b80601f01602080910402602001604051908101604052809291908181526020018280546100ae9061024b565b80156100f95780601f106100d0576101008083540402835291602001916100f9565b820191905f5260205f20905b8154815290600101906020018083116100dc57829003601f168201915b5050505050905090565b5f805461010f9061024b565b80601f016020809104026020016040519081016040528092919081815260200182805461013b9061024b565b80156101865780601f1061015d57610100808354040283529160200191610186565b820191905f5260205f20905b81548152906001019060200180831161016957829003601f168201915b505050505081565b5f81519050919050565b5f82825260208201905092915050565b8281835e5f83830152505050565b5f601f19601f8301169050919050565b5f6101d08261018e565b6101da8185610198565b93506101ea8185602086016101a8565b6101f3816101b6565b840191505092915050565b5f6020820190508181035f83015261021681846101c6565b905092915050565b7f4e487b71000000000000000000000000000000000000000000000000000000005f52602260045260245ffd5b5f600282049050600182168061026257607f821691505b6020821081036102755761027461021e565b5b5091905056fea264697066735822122008dfe0447cc126f0259ce39dc275e9d74aacc2ddd3a148bc32f4012698eaae5264736f6c634300081a0033608060405234801561000f575f80fd5b5060405161077638038061077683398181016040528101906100319190610195565b80805f908161004091906103e9565b5050506104b8565b5f604051905090565b5f80fd5b5f80fd5b5f80fd5b5f80fd5b5f601f19601f8301169050919050565b7f4e487b71000000000000000000000000000000000000000000000000000000005f52604160045260245ffd5b6100a782610061565b810181811067ffffffffffffffff821117156100c6576100c5610071565b5b80604052505050565b5f6100d8610048565b90506100e4828261009e565b919050565b5f67ffffffffffffffff82111561010357610102610071565b5b61010c82610061565b9050602081019050919050565b8281835e5f83830152505050565b5f610139610134846100e9565b6100cf565b9050828152602081018484840111156101555761015461005d565b5b610160848285610119565b509392505050565b5f82601f83011261017c5761017b610059565b5b815161018c848260208601610127565b91505092915050565b5f602082840312156101aa576101a9610051565b5b5f82015167ffffffffffffffff8111156101c7576101c6610055565b5b6101d384828501610168565b91505092915050565b5f81519050919050565b7f4e487b71000000000000000000000000000000000000000000000000000000005f52602260045260245ffd5b5f600282049050600182168061022a57607f821691505b60208210810361023d5761023c6101e6565b5b50919050565b5f819050815f5260205f209050919050565b5f6020601f8301049050919050565b5f82821b905092915050565b5f6008830261029f7fffffffffffffffffffffffffffffffffffffffffffffffffffffffffffffffff82610264565b6102a98683610264565b95508019841693508086168417925050509392505050565b5f819050919050565b5f819050919050565b5f6102ed6102e86102e3846102c1565b6102ca565b6102c1565b9050919050565b5f819050919050565b610306836102d3565b61031a610312826102f4565b848454610270565b825550505050565b5f90565b61032e610322565b6103398184846102fd565b505050565b5b8181101561035c576103515f82610326565b60018101905061033f565b5050565b601f8211156103a15761037281610243565b61037b84610255565b8101602085101561038a578190505b61039e61039685610255565b83018261033e565b50505b505050565b5f82821c905092915050565b5f6103c15f19846008026103a6565b1980831691505092915050565b5f6103d983836103b2565b9150826002028217905092915050565b6103f2826101dc565b67ffffffffffffffff81111561040b5761040a610071565b5b6104158254610213565b610420828285610360565b5f60209050601f831160018114610451575f841561043f578287015190505b61044985826103ce565b8655506104b0565b601f19841661045f86610243565b5f5b8281101561048657848901518255600182019150602085019450602081019050610461565b868310156104a3578489015161049f601f8916826103b2565b8355505b6001600288020188555050505b505050505050565b6102b1806104c55f395ff3fe608060405234801561000f575f80fd5b5060043610610034575f3560e01c806385d7acf5146100385780639dd807b114610056575b5f80fd5b610040610074565b60405161004d91906101fe565b60405180910390f35b61005e610103565b60405161006b91906101fe565b60405180910390f35b60605f80546100829061024b565b80601f01602080910402602001604051908101604052809291908181526020018280546100ae9061024b565b80156100f95780601f106100d0576101008083540402835291602001916100f9565b820191905f5260205f20905b8154815290600101906020018083116100dc57829003601f168201915b5050505050905090565b5f805461010f9061024b565b80601f016020809104026020016040519081016040528092919081815260200182805461013b9061024b565b80156101865780601f1061015d57610100808354040283529160200191610186565b820191905f5260205f20905b81548152906001019060200180831161016957829003601f168201915b505050505081565b5f81519050919050565b5f82825260208201905092915050565b8281835e5f83830152505050565b5f601f19601f8301169050919050565b5f6101d08261018e565b6101da8185610198565b93506101ea8185602086016101a8565b6101f3816101b6565b840191505092915050565b5f6020820190508181035f83015261021681846101c6565b905092915050565b7f4e487b71000000000000000000000000000000000000000000000000000000005f52602260045260245ffd5b5f600282049050600182168061026257607f821691505b6020821081036102755761027461021e565b5b5091905056fea2646970667358221220411f54c35946b98e91ffc6f379f0e988f59cf59060bc743db2801c3132dfbda164736f6c634300081a0033",
					"opcodes": "PUSH1 0x80 PUSH1 0x40 MSTORE CALLVALUE DUP1 ISZERO PUSH2 0xF JUMPI PUSH0 DUP1 REVERT JUMPDEST POP PUSH1 0x40 MLOAD PUSH2 0x1754 CODESIZE SUB DUP1 PUSH2 0x1754 DUP4 CODECOPY DUP2 DUP2 ADD PUSH1 0x40 MSTORE DUP2 ADD SWAP1 PUSH2 0x31 SWAP2 SWAP1 PUSH2 0x27E JUMP JUMPDEST DUP2 PUSH1 0x40 MLOAD PUSH2 0x3E SWAP1 PUSH2 0x117 JUMP JUMPDEST PUSH2 0x48 SWAP2 SWAP1 PUSH2 0x346 JUMP JUMPDEST PUSH1 0x40 MLOAD DUP1 SWAP2 SUB SWAP1 PUSH0 CREATE DUP1 ISZERO DUP1 ISZERO PUSH2 0x61 JUMPI RETURNDATASIZE PUSH0 DUP1 RETURNDATACOPY RETURNDATASIZE PUSH0 REVERT JUMPDEST POP PUSH0 DUP1 PUSH2 0x100 EXP DUP2 SLOAD DUP2 PUSH20 0xFFFFFFFFFFFFFFFFFFFFFFFFFFFFFFFFFFFFFFFF MUL NOT AND SWAP1 DUP4 PUSH20 0xFFFFFFFFFFFFFFFFFFFFFFFFFFFFFFFFFFFFFFFF AND MUL OR SWAP1 SSTORE POP DUP1 PUSH1 0x40 MLOAD PUSH2 0xAD SWAP1 PUSH2 0x124 JUMP JUMPDEST PUSH2 0xB7 SWAP2 SWAP1 PUSH2 0x346 JUMP JUMPDEST PUSH1 0x40 MLOAD DUP1 SWAP2 SUB SWAP1 PUSH0 CREATE DUP1 ISZERO DUP1 ISZERO PUSH2 0xD0 JUMPI RETURNDATASIZE PUSH0 DUP1 RETURNDATACOPY RETURNDATASIZE PUSH0 REVERT JUMPDEST POP PUSH1 0x1 PUSH0 PUSH2 0x100 EXP DUP2 SLOAD DUP2 PUSH20 0xFFFFFFFFFFFFFFFFFFFFFFFFFFFFFFFFFFFFFFFF MUL NOT AND SWAP1 DUP4 PUSH20 0xFFFFFFFFFFFFFFFFFFFFFFFFFFFFFFFFFFFFFFFF AND MUL OR SWAP1 SSTORE POP POP POP PUSH2 0x366 JUMP JUMPDEST PUSH2 0x776 DUP1 PUSH2 0x868 DUP4 CODECOPY ADD SWAP1 JUMP JUMPDEST PUSH2 0x776 DUP1 PUSH2 0xFDE DUP4 CODECOPY ADD SWAP1 JUMP JUMPDEST PUSH0 PUSH1 0x40 MLOAD SWAP1 POP SWAP1 JUMP JUMPDEST PUSH0 DUP1 REVERT JUMPDEST PUSH0 DUP1 REVERT JUMPDEST PUSH0 DUP1 REVERT JUMPDEST PUSH0 DUP1 REVERT JUMPDEST PUSH0 PUSH1 0x1F NOT PUSH1 0x1F DUP4 ADD AND SWAP1 POP SWAP2 SWAP1 POP JUMP JUMPDEST PUSH32 0x4E487B7100000000000000000000000000000000000000000000000000000000 PUSH0 MSTORE PUSH1 0x41 PUSH1 0x4 MSTORE PUSH1 0x24 PUSH0 REVERT JUMPDEST PUSH2 0x190 DUP3 PUSH2 0x14A JUMP JUMPDEST DUP2 ADD DUP2 DUP2 LT PUSH8 0xFFFFFFFFFFFFFFFF DUP3 GT OR ISZERO PUSH2 0x1AF JUMPI PUSH2 0x1AE PUSH2 0x15A JUMP JUMPDEST JUMPDEST DUP1 PUSH1 0x40 MSTORE POP POP POP JUMP JUMPDEST PUSH0 PUSH2 0x1C1 PUSH2 0x131 JUMP JUMPDEST SWAP1 POP PUSH2 0x1CD DUP3 DUP3 PUSH2 0x187 JUMP JUMPDEST SWAP2 SWAP1 POP JUMP JUMPDEST PUSH0 PUSH8 0xFFFFFFFFFFFFFFFF DUP3 GT ISZERO PUSH2 0x1EC JUMPI PUSH2 0x1EB PUSH2 0x15A JUMP JUMPDEST JUMPDEST PUSH2 0x1F5 DUP3 PUSH2 0x14A JUMP JUMPDEST SWAP1 POP PUSH1 0x20 DUP2 ADD SWAP1 POP SWAP2 SWAP1 POP JUMP JUMPDEST DUP3 DUP2 DUP4 MCOPY PUSH0 DUP4 DUP4 ADD MSTORE POP POP POP JUMP JUMPDEST PUSH0 PUSH2 0x222 PUSH2 0x21D DUP5 PUSH2 0x1D2 JUMP JUMPDEST PUSH2 0x1B8 JUMP JUMPDEST SWAP1 POP DUP3 DUP2 MSTORE PUSH1 0x20 DUP2 ADD DUP5 DUP5 DUP5 ADD GT ISZERO PUSH2 0x23E JUMPI PUSH2 0x23D PUSH2 0x146 JUMP JUMPDEST JUMPDEST PUSH2 0x249 DUP5 DUP3 DUP6 PUSH2 0x202 JUMP JUMPDEST POP SWAP4 SWAP3 POP POP POP JUMP JUMPDEST PUSH0 DUP3 PUSH1 0x1F DUP4 ADD SLT PUSH2 0x265 JUMPI PUSH2 0x264 PUSH2 0x142 JUMP JUMPDEST JUMPDEST DUP2 MLOAD PUSH2 0x275 DUP5 DUP3 PUSH1 0x20 DUP7 ADD PUSH2 0x210 JUMP JUMPDEST SWAP2 POP POP SWAP3 SWAP2 POP POP JUMP JUMPDEST PUSH0 DUP1 PUSH1 0x40 DUP4 DUP6 SUB SLT ISZERO PUSH2 0x294 JUMPI PUSH2 0x293 PUSH2 0x13A JUMP JUMPDEST JUMPDEST PUSH0 DUP4 ADD MLOAD PUSH8 0xFFFFFFFFFFFFFFFF DUP2 GT ISZERO PUSH2 0x2B1 JUMPI PUSH2 0x2B0 PUSH2 0x13E JUMP JUMPDEST JUMPDEST PUSH2 0x2BD DUP6 DUP3 DUP7 ADD PUSH2 0x251 JUMP JUMPDEST SWAP3 POP POP PUSH1 0x20 DUP4 ADD MLOAD PUSH8 0xFFFFFFFFFFFFFFFF DUP2 GT ISZERO PUSH2 0x2DE JUMPI PUSH2 0x2DD PUSH2 0x13E JUMP JUMPDEST JUMPDEST PUSH2 0x2EA DUP6 DUP3 DUP7 ADD PUSH2 0x251 JUMP JUMPDEST SWAP2 POP POP SWAP3 POP SWAP3 SWAP1 POP JUMP JUMPDEST PUSH0 DUP2 MLOAD SWAP1 POP SWAP2 SWAP1 POP JUMP JUMPDEST PUSH0 DUP3 DUP3 MSTORE PUSH1 0x20 DUP3 ADD SWAP1 POP SWAP3 SWAP2 POP POP JUMP JUMPDEST PUSH0 PUSH2 0x318 DUP3 PUSH2 0x2F4 JUMP JUMPDEST PUSH2 0x322 DUP2 DUP6 PUSH2 0x2FE JUMP JUMPDEST SWAP4 POP PUSH2 0x332 DUP2 DUP6 PUSH1 0x20 DUP7 ADD PUSH2 0x202 JUMP JUMPDEST PUSH2 0x33B DUP2 PUSH2 0x14A JUMP JUMPDEST DUP5 ADD SWAP2 POP POP SWAP3 SWAP2 POP POP JUMP JUMPDEST PUSH0 PUSH1 0x20 DUP3 ADD SWAP1 POP DUP2 DUP2 SUB PUSH0 DUP4 ADD MSTORE PUSH2 0x35E DUP2 DUP5 PUSH2 0x30E JUMP JUMPDEST SWAP1 POP SWAP3 SWAP2 POP POP JUMP JUMPDEST PUSH2 0x4F5 DUP1 PUSH2 0x373 PUSH0 CODECOPY PUSH0 RETURN INVALID PUSH1 0x80 PUSH1 0x40 MSTORE CALLVALUE DUP1 ISZERO PUSH2 0xF JUMPI PUSH0 DUP1 REVERT JUMPDEST POP PUSH1 0x4 CALLDATASIZE LT PUSH2 0x3F JUMPI PUSH0 CALLDATALOAD PUSH1 0xE0 SHR DUP1 PUSH4 0x44D333FF EQ PUSH2 0x43 JUMPI DUP1 PUSH4 0xC3B3AD7F EQ PUSH2 0x61 JUMPI DUP1 PUSH4 0xFB825E5F EQ PUSH2 0x7F JUMPI JUMPDEST PUSH0 DUP1 REVERT JUMPDEST PUSH2 0x4B PUSH2 0x9E JUMP JUMPDEST PUSH1 0x40 MLOAD PUSH2 0x58 SWAP2 SWAP1 PUSH2 0x28B JUMP JUMPDEST PUSH1 0x40 MLOAD DUP1 SWAP2 SUB SWAP1 RETURN JUMPDEST PUSH2 0x69 PUSH2 0xC1 JUMP JUMPDEST PUSH1 0x40 MLOAD PUSH2 0x76 SWAP2 SWAP1 PUSH2 0x28B JUMP JUMPDEST PUSH1 0x40 MLOAD DUP1 SWAP2 SUB SWAP1 RETURN JUMPDEST PUSH2 0x87 PUSH2 0xE6 JUMP JUMPDEST PUSH1 0x40 MLOAD PUSH2 0x95 SWAP3 SWAP2 SWAP1 PUSH2 0x314 JUMP JUMPDEST PUSH1 0x40 MLOAD DUP1 SWAP2 SUB SWAP1 RETURN JUMPDEST PUSH0 DUP1 SLOAD SWAP1 PUSH2 0x100 EXP SWAP1 DIV PUSH20 0xFFFFFFFFFFFFFFFFFFFFFFFFFFFFFFFFFFFFFFFF AND DUP2 JUMP JUMPDEST PUSH1 0x1 PUSH0 SWAP1 SLOAD SWAP1 PUSH2 0x100 EXP SWAP1 DIV PUSH20 0xFFFFFFFFFFFFFFFFFFFFFFFFFFFFFFFFFFFFFFFF AND DUP2 JUMP JUMPDEST PUSH1 0x60 DUP1 PUSH0 DUP1 SLOAD SWAP1 PUSH2 0x100 EXP SWAP1 DIV PUSH20 0xFFFFFFFFFFFFFFFFFFFFFFFFFFFFFFFFFFFFFFFF AND PUSH20 0xFFFFFFFFFFFFFFFFFFFFFFFFFFFFFFFFFFFFFFFF AND PUSH4 0x85D7ACF5 PUSH1 0x40 MLOAD DUP2 PUSH4 0xFFFFFFFF AND PUSH1 0xE0 SHL DUP2 MSTORE PUSH1 0x4 ADD PUSH0 PUSH1 0x40 MLOAD DUP1 DUP4 SUB DUP2 DUP7 GAS STATICCALL ISZERO DUP1 ISZERO PUSH2 0x150 JUMPI RETURNDATASIZE PUSH0 DUP1 RETURNDATACOPY RETURNDATASIZE PUSH0 REVERT JUMPDEST POP POP POP POP PUSH1 0x40 MLOAD RETURNDATASIZE PUSH0 DUP3 RETURNDATACOPY RETURNDATASIZE PUSH1 0x1F NOT PUSH1 0x1F DUP3 ADD AND DUP3 ADD DUP1 PUSH1 0x40 MSTORE POP DUP2 ADD SWAP1 PUSH2 0x178 SWAP2 SWAP1 PUSH2 0x478 JUMP JUMPDEST PUSH1 0x1 PUSH0 SWAP1 SLOAD SWAP1 PUSH2 0x100 EXP SWAP1 DIV PUSH20 0xFFFFFFFFFFFFFFFFFFFFFFFFFFFFFFFFFFFFFFFF AND PUSH20 0xFFFFFFFFFFFFFFFFFFFFFFFFFFFFFFFFFFFFFFFF AND PUSH4 0x85D7ACF5 PUSH1 0x40 MLOAD DUP2 PUSH4 0xFFFFFFFF AND PUSH1 0xE0 SHL DUP2 MSTORE PUSH1 0x4 ADD PUSH0 PUSH1 0x40 MLOAD DUP1 DUP4 SUB DUP2 DUP7 GAS STATICCALL ISZERO DUP1 ISZERO PUSH2 0x1E1 JUMPI RETURNDATASIZE PUSH0 DUP1 RETURNDATACOPY RETURNDATASIZE PUSH0 REVERT JUMPDEST POP POP POP POP PUSH1 0x40 MLOAD RETURNDATASIZE PUSH0 DUP3 RETURNDATACOPY RETURNDATASIZE PUSH1 0x1F NOT PUSH1 0x1F DUP3 ADD AND DUP3 ADD DUP1 PUSH1 0x40 MSTORE POP DUP2 ADD SWAP1 PUSH2 0x209 SWAP2 SWAP1 PUSH2 0x478 JUMP JUMPDEST SWAP2 POP SWAP2 POP SWAP1 SWAP2 JUMP JUMPDEST PUSH0 PUSH20 0xFFFFFFFFFFFFFFFFFFFFFFFFFFFFFFFFFFFFFFFF DUP3 AND SWAP1 POP SWAP2 SWAP1 POP JUMP JUMPDEST PUSH0 DUP2 SWAP1 POP SWAP2 SWAP1 POP JUMP JUMPDEST PUSH0 PUSH2 0x253 PUSH2 0x24E PUSH2 0x249 DUP5 PUSH2 0x211 JUMP JUMPDEST PUSH2 0x230 JUMP JUMPDEST PUSH2 0x211 JUMP JUMPDEST SWAP1 POP SWAP2 SWAP1 POP JUMP JUMPDEST PUSH0 PUSH2 0x264 DUP3 PUSH2 0x239 JUMP JUMPDEST SWAP1 POP SWAP2 SWAP1 POP JUMP JUMPDEST PUSH0 PUSH2 0x275 DUP3 PUSH2 0x25A JUMP JUMPDEST SWAP1 POP SWAP2 SWAP1 POP JUMP JUMPDEST PUSH2 0x285 DUP2 PUSH2 0x26B JUMP JUMPDEST DUP3 MSTORE POP POP JUMP JUMPDEST PUSH0 PUSH1 0x20 DUP3 ADD SWAP1 POP PUSH2 0x29E PUSH0 DUP4 ADD DUP5 PUSH2 0x27C JUMP JUMPDEST SWAP3 SWAP2 POP POP JUMP JUMPDEST PUSH0 DUP2 MLOAD SWAP1 POP SWAP2 SWAP1 POP JUMP JUMPDEST PUSH0 DUP3 DUP3 MSTORE PUSH1 0x20 DUP3 ADD SWAP1 POP SWAP3 SWAP2 POP POP JUMP JUMPDEST DUP3 DUP2 DUP4 MCOPY PUSH0 DUP4 DUP4 ADD MSTORE POP POP POP JUMP JUMPDEST PUSH0 PUSH1 0x1F NOT PUSH1 0x1F DUP4 ADD AND SWAP1 POP SWAP2 SWAP1 POP JUMP JUMPDEST PUSH0 PUSH2 0x2E6 DUP3 PUSH2 0x2A4 JUMP JUMPDEST PUSH2 0x2F0 DUP2 DUP6 PUSH2 0x2AE JUMP JUMPDEST SWAP4 POP PUSH2 0x300 DUP2 DUP6 PUSH1 0x20 DUP7 ADD PUSH2 0x2BE JUMP JUMPDEST PUSH2 0x309 DUP2 PUSH2 0x2CC JUMP JUMPDEST DUP5 ADD SWAP2 POP POP SWAP3 SWAP2 POP POP JUMP JUMPDEST PUSH0 PUSH1 0x40 DUP3 ADD SWAP1 POP DUP2 DUP2 SUB PUSH0 DUP4 ADD MSTORE PUSH2 0x32C DUP2 DUP6 PUSH2 0x2DC JUMP JUMPDEST SWAP1 POP DUP2 DUP2 SUB PUSH1 0x20 DUP4 ADD MSTORE PUSH2 0x340 DUP2 DUP5 PUSH2 0x2DC JUMP JUMPDEST SWAP1 POP SWAP4 SWAP3 POP POP POP JUMP JUMPDEST PUSH0 PUSH1 0x40 MLOAD SWAP1 POP SWAP1 JUMP JUMPDEST PUSH0 DUP1 REVERT JUMPDEST PUSH0 DUP1 REVERT JUMPDEST PUSH0 DUP1 REVERT JUMPDEST PUSH0 DUP1 REVERT JUMPDEST PUSH32 0x4E487B7100000000000000000000000000000000000000000000000000000000 PUSH0 MSTORE PUSH1 0x41 PUSH1 0x4 MSTORE PUSH1 0x24 PUSH0 REVERT JUMPDEST PUSH2 0x398 DUP3 PUSH2 0x2CC JUMP JUMPDEST DUP2 ADD DUP2 DUP2 LT PUSH8 0xFFFFFFFFFFFFFFFF DUP3 GT OR ISZERO PUSH2 0x3B7 JUMPI PUSH2 0x3B6 PUSH2 0x362 JUMP JUMPDEST JUMPDEST DUP1 PUSH1 0x40 MSTORE POP POP POP JUMP JUMPDEST PUSH0 PUSH2 0x3C9 PUSH2 0x349 JUMP JUMPDEST SWAP1 POP PUSH2 0x3D5 DUP3 DUP3 PUSH2 0x38F JUMP JUMPDEST SWAP2 SWAP1 POP JUMP JUMPDEST PUSH0 PUSH8 0xFFFFFFFFFFFFFFFF DUP3 GT ISZERO PUSH2 0x3F4 JUMPI PUSH2 0x3F3 PUSH2 0x362 JUMP JUMPDEST JUMPDEST PUSH2 0x3FD DUP3 PUSH2 0x2CC JUMP JUMPDEST SWAP1 POP PUSH1 0x20 DUP2 ADD SWAP1 POP SWAP2 SWAP1 POP JUMP JUMPDEST PUSH0 PUSH2 0x41C PUSH2 0x417 DUP5 PUSH2 0x3DA JUMP JUMPDEST PUSH2 0x3C0 JUMP JUMPDEST SWAP1 POP DUP3 DUP2 MSTORE PUSH1 0x20 DUP2 ADD DUP5 DUP5 DUP5 ADD GT ISZERO PUSH2 0x438 JUMPI PUSH2 0x437 PUSH2 0x35E JUMP JUMPDEST JUMPDEST PUSH2 0x443 DUP5 DUP3 DUP6 PUSH2 0x2BE JUMP JUMPDEST POP SWAP4 SWAP3 POP POP POP JUMP JUMPDEST PUSH0 DUP3 PUSH1 0x1F DUP4 ADD SLT PUSH2 0x45F JUMPI PUSH2 0x45E PUSH2 0x35A JUMP JUMPDEST JUMPDEST DUP2 MLOAD PUSH2 0x46F DUP5 DUP3 PUSH1 0x20 DUP7 ADD PUSH2 0x40A JUMP JUMPDEST SWAP2 POP POP SWAP3 SWAP2 POP POP JUMP JUMPDEST PUSH0 PUSH1 0x20 DUP3 DUP5 SUB SLT ISZERO PUSH2 0x48D JUMPI PUSH2 0x48C PUSH2 0x352 JUMP JUMPDEST JUMPDEST PUSH0 DUP3 ADD MLOAD PUSH8 0xFFFFFFFFFFFFFFFF DUP2 GT ISZERO PUSH2 0x4AA JUMPI PUSH2 0x4A9 PUSH2 0x356 JUMP JUMPDEST JUMPDEST PUSH2 0x4B6 DUP5 DUP3 DUP6 ADD PUSH2 0x44B JUMP JUMPDEST SWAP2 POP POP SWAP3 SWAP2 POP POP JUMP INVALID LOG2 PUSH5 0x6970667358 0x22 SLT KECCAK256 0xA8 0xF EXTCODEHASH 0x2F 0x29 0x4F PUSH19 0x353D41E3CE5C8718489020C003EDCF742F4326 MCOPY 0xB1 TSTORE 0xB6 0xC1 0x2C PUSH5 0x736F6C6343 STOP ADDMOD BYTE STOP CALLER PUSH1 0x80 PUSH1 0x40 MSTORE CALLVALUE DUP1 ISZERO PUSH2 0xF JUMPI PUSH0 DUP1 REVERT JUMPDEST POP PUSH1 0x40 MLOAD PUSH2 0x776 CODESIZE SUB DUP1 PUSH2 0x776 DUP4 CODECOPY DUP2 DUP2 ADD PUSH1 0x40 MSTORE DUP2 ADD SWAP1 PUSH2 0x31 SWAP2 SWAP1 PUSH2 0x195 JUMP JUMPDEST DUP1 DUP1 PUSH0 SWAP1 DUP2 PUSH2 0x40 SWAP2 SWAP1 PUSH2 0x3E9 JUMP JUMPDEST POP POP POP PUSH2 0x4B8 JUMP JUMPDEST PUSH0 PUSH1 0x40 MLOAD SWAP1 POP SWAP1 JUMP JUMPDEST PUSH0 DUP1 REVERT JUMPDEST PUSH0 DUP1 REVERT JUMPDEST PUSH0 DUP1 REVERT JUMPDEST PUSH0 DUP1 REVERT JUMPDEST PUSH0 PUSH1 0x1F NOT PUSH1 0x1F DUP4 ADD AND SWAP1 POP SWAP2 SWAP1 POP JUMP JUMPDEST PUSH32 0x4E487B7100000000000000000000000000000000000000000000000000000000 PUSH0 MSTORE PUSH1 0x41 PUSH1 0x4 MSTORE PUSH1 0x24 PUSH0 REVERT JUMPDEST PUSH2 0xA7 DUP3 PUSH2 0x61 JUMP JUMPDEST DUP2 ADD DUP2 DUP2 LT PUSH8 0xFFFFFFFFFFFFFFFF DUP3 GT OR ISZERO PUSH2 0xC6 JUMPI PUSH2 0xC5 PUSH2 0x71 JUMP JUMPDEST JUMPDEST DUP1 PUSH1 0x40 MSTORE POP POP POP JUMP JUMPDEST PUSH0 PUSH2 0xD8 PUSH2 0x48 JUMP JUMPDEST SWAP1 POP PUSH2 0xE4 DUP3 DUP3 PUSH2 0x9E JUMP JUMPDEST SWAP2 SWAP1 POP JUMP JUMPDEST PUSH0 PUSH8 0xFFFFFFFFFFFFFFFF DUP3 GT ISZERO PUSH2 0x103 JUMPI PUSH2 0x102 PUSH2 0x71 JUMP JUMPDEST JUMPDEST PUSH2 0x10C DUP3 PUSH2 0x61 JUMP JUMPDEST SWAP1 POP PUSH1 0x20 DUP2 ADD SWAP1 POP SWAP2 SWAP1 POP JUMP JUMPDEST DUP3 DUP2 DUP4 MCOPY PUSH0 DUP4 DUP4 ADD MSTORE POP POP POP JUMP JUMPDEST PUSH0 PUSH2 0x139 PUSH2 0x134 DUP5 PUSH2 0xE9 JUMP JUMPDEST PUSH2 0xCF JUMP JUMPDEST SWAP1 POP DUP3 DUP2 MSTORE PUSH1 0x20 DUP2 ADD DUP5 DUP5 DUP5 ADD GT ISZERO PUSH2 0x155 JUMPI PUSH2 0x154 PUSH2 0x5D JUMP JUMPDEST JUMPDEST PUSH2 0x160 DUP5 DUP3 DUP6 PUSH2 0x119 JUMP JUMPDEST POP SWAP4 SWAP3 POP POP POP JUMP JUMPDEST PUSH0 DUP3 PUSH1 0x1F DUP4 ADD SLT PUSH2 0x17C JUMPI PUSH2 0x17B PUSH2 0x59 JUMP JUMPDEST JUMPDEST DUP2 MLOAD PUSH2 0x18C DUP5 DUP3 PUSH1 0x20 DUP7 ADD PUSH2 0x127 JUMP JUMPDEST SWAP2 POP POP SWAP3 SWAP2 POP POP JUMP JUMPDEST PUSH0 PUSH1 0x20 DUP3 DUP5 SUB SLT ISZERO PUSH2 0x1AA JUMPI PUSH2 0x1A9 PUSH2 0x51 JUMP JUMPDEST JUMPDEST PUSH0 DUP3 ADD MLOAD PUSH8 0xFFFFFFFFFFFFFFFF DUP2 GT ISZERO PUSH2 0x1C7 JUMPI PUSH2 0x1C6 PUSH2 0x55 JUMP JUMPDEST JUMPDEST PUSH2 0x1D3 DUP5 DUP3 DUP6 ADD PUSH2 0x168 JUMP JUMPDEST SWAP2 POP POP SWAP3 SWAP2 POP POP JUMP JUMPDEST PUSH0 DUP2 MLOAD SWAP1 POP SWAP2 SWAP1 POP JUMP JUMPDEST PUSH32 0x4E487B7100000000000000000000000000000000000000000000000000000000 PUSH0 MSTORE PUSH1 0x22 PUSH1 0x4 MSTORE PUSH1 0x24 PUSH0 REVERT JUMPDEST PUSH0 PUSH1 0x2 DUP3 DIV SWAP1 POP PUSH1 0x1 DUP3 AND DUP1 PUSH2 0x22A JUMPI PUSH1 0x7F DUP3 AND SWAP2 POP JUMPDEST PUSH1 0x20 DUP3 LT DUP2 SUB PUSH2 0x23D JUMPI PUSH2 0x23C PUSH2 0x1E6 JUMP JUMPDEST JUMPDEST POP SWAP2 SWAP1 POP JUMP JUMPDEST PUSH0 DUP2 SWAP1 POP DUP2 PUSH0 MSTORE PUSH1 0x20 PUSH0 KECCAK256 SWAP1 POP SWAP2 SWAP1 POP JUMP JUMPDEST PUSH0 PUSH1 0x20 PUSH1 0x1F DUP4 ADD DIV SWAP1 POP SWAP2 SWAP1 POP JUMP JUMPDEST PUSH0 DUP3 DUP3 SHL SWAP1 POP SWAP3 SWAP2 POP POP JUMP JUMPDEST PUSH0 PUSH1 0x8 DUP4 MUL PUSH2 0x29F PUSH32 0xFFFFFFFFFFFFFFFFFFFFFFFFFFFFFFFFFFFFFFFFFFFFFFFFFFFFFFFFFFFFFFFF DUP3 PUSH2 0x264 JUMP JUMPDEST PUSH2 0x2A9 DUP7 DUP4 PUSH2 0x264 JUMP JUMPDEST SWAP6 POP DUP1 NOT DUP5 AND SWAP4 POP DUP1 DUP7 AND DUP5 OR SWAP3 POP POP POP SWAP4 SWAP3 POP POP POP JUMP JUMPDEST PUSH0 DUP2 SWAP1 POP SWAP2 SWAP1 POP JUMP JUMPDEST PUSH0 DUP2 SWAP1 POP SWAP2 SWAP1 POP JUMP JUMPDEST PUSH0 PUSH2 0x2ED PUSH2 0x2E8 PUSH2 0x2E3 DUP5 PUSH2 0x2C1 JUMP JUMPDEST PUSH2 0x2CA JUMP JUMPDEST PUSH2 0x2C1 JUMP JUMPDEST SWAP1 POP SWAP2 SWAP1 POP JUMP JUMPDEST PUSH0 DUP2 SWAP1 POP SWAP2 SWAP1 POP JUMP JUMPDEST PUSH2 0x306 DUP4 PUSH2 0x2D3 JUMP JUMPDEST PUSH2 0x31A PUSH2 0x312 DUP3 PUSH2 0x2F4 JUMP JUMPDEST DUP5 DUP5 SLOAD PUSH2 0x270 JUMP JUMPDEST DUP3 SSTORE POP POP POP POP JUMP JUMPDEST PUSH0 SWAP1 JUMP JUMPDEST PUSH2 0x32E PUSH2 0x322 JUMP JUMPDEST PUSH2 0x339 DUP2 DUP5 DUP5 PUSH2 0x2FD JUMP JUMPDEST POP POP POP JUMP JUMPDEST JUMPDEST DUP2 DUP2 LT ISZERO PUSH2 0x35C JUMPI PUSH2 0x351 PUSH0 DUP3 PUSH2 0x326 JUMP JUMPDEST PUSH1 0x1 DUP2 ADD SWAP1 POP PUSH2 0x33F JUMP JUMPDEST POP POP JUMP JUMPDEST PUSH1 0x1F DUP3 GT ISZERO PUSH2 0x3A1 JUMPI PUSH2 0x372 DUP2 PUSH2 0x243 JUMP JUMPDEST PUSH2 0x37B DUP5 PUSH2 0x255 JUMP JUMPDEST DUP2 ADD PUSH1 0x20 DUP6 LT ISZERO PUSH2 0x38A JUMPI DUP2 SWAP1 POP JUMPDEST PUSH2 0x39E PUSH2 0x396 DUP6 PUSH2 0x255 JUMP JUMPDEST DUP4 ADD DUP3 PUSH2 0x33E JUMP JUMPDEST POP POP JUMPDEST POP POP POP JUMP JUMPDEST PUSH0 DUP3 DUP3 SHR SWAP1 POP SWAP3 SWAP2 POP POP JUMP JUMPDEST PUSH0 PUSH2 0x3C1 PUSH0 NOT DUP5 PUSH1 0x8 MUL PUSH2 0x3A6 JUMP JUMPDEST NOT DUP1 DUP4 AND SWAP2 POP POP SWAP3 SWAP2 POP POP JUMP JUMPDEST PUSH0 PUSH2 0x3D9 DUP4 DUP4 PUSH2 0x3B2 JUMP JUMPDEST SWAP2 POP DUP3 PUSH1 0x2 MUL DUP3 OR SWAP1 POP SWAP3 SWAP2 POP POP JUMP JUMPDEST PUSH2 0x3F2 DUP3 PUSH2 0x1DC JUMP JUMPDEST PUSH8 0xFFFFFFFFFFFFFFFF DUP2 GT ISZERO PUSH2 0x40B JUMPI PUSH2 0x40A PUSH2 0x71 JUMP JUMPDEST JUMPDEST PUSH2 0x415 DUP3 SLOAD PUSH2 0x213 JUMP JUMPDEST PUSH2 0x420 DUP3 DUP3 DUP6 PUSH2 0x360 JUMP JUMPDEST PUSH0 PUSH1 0x20 SWAP1 POP PUSH1 0x1F DUP4 GT PUSH1 0x1 DUP2 EQ PUSH2 0x451 JUMPI PUSH0 DUP5 ISZERO PUSH2 0x43F JUMPI DUP3 DUP8 ADD MLOAD SWAP1 POP JUMPDEST PUSH2 0x449 DUP6 DUP3 PUSH2 0x3CE JUMP JUMPDEST DUP7 SSTORE POP PUSH2 0x4B0 JUMP JUMPDEST PUSH1 0x1F NOT DUP5 AND PUSH2 0x45F DUP7 PUSH2 0x243 JUMP JUMPDEST PUSH0 JUMPDEST DUP3 DUP2 LT ISZERO PUSH2 0x486 JUMPI DUP5 DUP10 ADD MLOAD DUP3 SSTORE PUSH1 0x1 DUP3 ADD SWAP2 POP PUSH1 0x20 DUP6 ADD SWAP5 POP PUSH1 0x20 DUP2 ADD SWAP1 POP PUSH2 0x461 JUMP JUMPDEST DUP7 DUP4 LT ISZERO PUSH2 0x4A3 JUMPI DUP5 DUP10 ADD MLOAD PUSH2 0x49F PUSH1 0x1F DUP10 AND DUP3 PUSH2 0x3B2 JUMP JUMPDEST DUP4 SSTORE POP JUMPDEST PUSH1 0x1 PUSH1 0x2 DUP9 MUL ADD DUP9 SSTORE POP POP POP JUMPDEST POP POP POP POP POP POP JUMP JUMPDEST PUSH2 0x2B1 DUP1 PUSH2 0x4C5 PUSH0 CODECOPY PUSH0 RETURN INVALID PUSH1 0x80 PUSH1 0x40 MSTORE CALLVALUE DUP1 ISZERO PUSH2 0xF JUMPI PUSH0 DUP1 REVERT JUMPDEST POP PUSH1 0x4 CALLDATASIZE LT PUSH2 0x34 JUMPI PUSH0 CALLDATALOAD PUSH1 0xE0 SHR DUP1 PUSH4 0x85D7ACF5 EQ PUSH2 0x38 JUMPI DUP1 PUSH4 0x9DD807B1 EQ PUSH2 0x56 JUMPI JUMPDEST PUSH0 DUP1 REVERT JUMPDEST PUSH2 0x40 PUSH2 0x74 JUMP JUMPDEST PUSH1 0x40 MLOAD PUSH2 0x4D SWAP2 SWAP1 PUSH2 0x1FE JUMP JUMPDEST PUSH1 0x40 MLOAD DUP1 SWAP2 SUB SWAP1 RETURN JUMPDEST PUSH2 0x5E PUSH2 0x103 JUMP JUMPDEST PUSH1 0x40 MLOAD PUSH2 0x6B SWAP2 SWAP1 PUSH2 0x1FE JUMP JUMPDEST PUSH1 0x40 MLOAD DUP1 SWAP2 SUB SWAP1 RETURN JUMPDEST PUSH1 0x60 PUSH0 DUP1 SLOAD PUSH2 0x82 SWAP1 PUSH2 0x24B JUMP JUMPDEST DUP1 PUSH1 0x1F ADD PUSH1 0x20 DUP1 SWAP2 DIV MUL PUSH1 0x20 ADD PUSH1 0x40 MLOAD SWAP1 DUP2 ADD PUSH1 0x40 MSTORE DUP1 SWAP3 SWAP2 SWAP1 DUP2 DUP2 MSTORE PUSH1 0x20 ADD DUP3 DUP1 SLOAD PUSH2 0xAE SWAP1 PUSH2 0x24B JUMP JUMPDEST DUP1 ISZERO PUSH2 0xF9 JUMPI DUP1 PUSH1 0x1F LT PUSH2 0xD0 JUMPI PUSH2 0x100 DUP1 DUP4 SLOAD DIV MUL DUP4 MSTORE SWAP2 PUSH1 0x20 ADD SWAP2 PUSH2 0xF9 JUMP JUMPDEST DUP3 ADD SWAP2 SWAP1 PUSH0 MSTORE PUSH1 0x20 PUSH0 KECCAK256 SWAP1 JUMPDEST DUP2 SLOAD DUP2 MSTORE SWAP1 PUSH1 0x1 ADD SWAP1 PUSH1 0x20 ADD DUP1 DUP4 GT PUSH2 0xDC JUMPI DUP3 SWAP1 SUB PUSH1 0x1F AND DUP3 ADD SWAP2 JUMPDEST POP POP POP POP POP SWAP1 POP SWAP1 JUMP JUMPDEST PUSH0 DUP1 SLOAD PUSH2 0x10F SWAP1 PUSH2 0x24B JUMP JUMPDEST DUP1 PUSH1 0x1F ADD PUSH1 0x20 DUP1 SWAP2 DIV MUL PUSH1 0x20 ADD PUSH1 0x40 MLOAD SWAP1 DUP2 ADD PUSH1 0x40 MSTORE DUP1 SWAP3 SWAP2 SWAP1 DUP2 DUP2 MSTORE PUSH1 0x20 ADD DUP3 DUP1 SLOAD PUSH2 0x13B SWAP1 PUSH2 0x24B JUMP JUMPDEST DUP1 ISZERO PUSH2 0x186 JUMPI DUP1 PUSH1 0x1F LT PUSH2 0x15D JUMPI PUSH2 0x100 DUP1 DUP4 SLOAD DIV MUL DUP4 MSTORE SWAP2 PUSH1 0x20 ADD SWAP2 PUSH2 0x186 JUMP JUMPDEST DUP3 ADD SWAP2 SWAP1 PUSH0 MSTORE PUSH1 0x20 PUSH0 KECCAK256 SWAP1 JUMPDEST DUP2 SLOAD DUP2 MSTORE SWAP1 PUSH1 0x1 ADD SWAP1 PUSH1 0x20 ADD DUP1 DUP4 GT PUSH2 0x169 JUMPI DUP3 SWAP1 SUB PUSH1 0x1F AND DUP3 ADD SWAP2 JUMPDEST POP POP POP POP POP DUP2 JUMP JUMPDEST PUSH0 DUP2 MLOAD SWAP1 POP SWAP2 SWAP1 POP JUMP JUMPDEST PUSH0 DUP3 DUP3 MSTORE PUSH1 0x20 DUP3 ADD SWAP1 POP SWAP3 SWAP2 POP POP JUMP JUMPDEST DUP3 DUP2 DUP4 MCOPY PUSH0 DUP4 DUP4 ADD MSTORE POP POP POP JUMP JUMPDEST PUSH0 PUSH1 0x1F NOT PUSH1 0x1F DUP4 ADD AND SWAP1 POP SWAP2 SWAP1 POP JUMP JUMPDEST PUSH0 PUSH2 0x1D0 DUP3 PUSH2 0x18E JUMP JUMPDEST PUSH2 0x1DA DUP2 DUP6 PUSH2 0x198 JUMP JUMPDEST SWAP4 POP PUSH2 0x1EA DUP2 DUP6 PUSH1 0x20 DUP7 ADD PUSH2 0x1A8 JUMP JUMPDEST PUSH2 0x1F3 DUP2 PUSH2 0x1B6 JUMP JUMPDEST DUP5 ADD SWAP2 POP POP SWAP3 SWAP2 POP POP JUMP JUMPDEST PUSH0 PUSH1 0x20 DUP3 ADD SWAP1 POP DUP2 DUP2 SUB PUSH0 DUP4 ADD MSTORE PUSH2 0x216 DUP2 DUP5 PUSH2 0x1C6 JUMP JUMPDEST SWAP1 POP SWAP3 SWAP2 POP POP JUMP JUMPDEST PUSH32 0x4E487B7100000000000000000000000000000000000000000000000000000000 PUSH0 MSTORE PUSH1 0x22 PUSH1 0x4 MSTORE PUSH1 0x24 PUSH0 REVERT JUMPDEST PUSH0 PUSH1 0x2 DUP3 DIV SWAP1 POP PUSH1 0x1 DUP3 AND DUP1 PUSH2 0x262 JUMPI PUSH1 0x7F DUP3 AND SWAP2 POP JUMPDEST PUSH1 0x20 DUP3 LT DUP2 SUB PUSH2 0x275 JUMPI PUSH2 0x274 PUSH2 0x21E JUMP JUMPDEST JUMPDEST POP SWAP2 SWAP1 POP JUMP INVALID LOG2 PUSH5 0x6970667358 0x22 SLT KECCAK256 ADDMOD 0xDF 0xE0 PREVRANDAO PUSH29 0xC126F0259CE39DC275E9D74AACC2DDD3A148BC32F4012698EAAE526473 PUSH16 0x6C634300081A00336080604052348015 PUSH2 0xF JUMPI PUSH0 DUP1 REVERT JUMPDEST POP PUSH1 0x40 MLOAD PUSH2 0x776 CODESIZE SUB DUP1 PUSH2 0x776 DUP4 CODECOPY DUP2 DUP2 ADD PUSH1 0x40 MSTORE DUP2 ADD SWAP1 PUSH2 0x31 SWAP2 SWAP1 PUSH2 0x195 JUMP JUMPDEST DUP1 DUP1 PUSH0 SWAP1 DUP2 PUSH2 0x40 SWAP2 SWAP1 PUSH2 0x3E9 JUMP JUMPDEST POP POP POP PUSH2 0x4B8 JUMP JUMPDEST PUSH0 PUSH1 0x40 MLOAD SWAP1 POP SWAP1 JUMP JUMPDEST PUSH0 DUP1 REVERT JUMPDEST PUSH0 DUP1 REVERT JUMPDEST PUSH0 DUP1 REVERT JUMPDEST PUSH0 DUP1 REVERT JUMPDEST PUSH0 PUSH1 0x1F NOT PUSH1 0x1F DUP4 ADD AND SWAP1 POP SWAP2 SWAP1 POP JUMP JUMPDEST PUSH32 0x4E487B7100000000000000000000000000000000000000000000000000000000 PUSH0 MSTORE PUSH1 0x41 PUSH1 0x4 MSTORE PUSH1 0x24 PUSH0 REVERT JUMPDEST PUSH2 0xA7 DUP3 PUSH2 0x61 JUMP JUMPDEST DUP2 ADD DUP2 DUP2 LT PUSH8 0xFFFFFFFFFFFFFFFF DUP3 GT OR ISZERO PUSH2 0xC6 JUMPI PUSH2 0xC5 PUSH2 0x71 JUMP JUMPDEST JUMPDEST DUP1 PUSH1 0x40 MSTORE POP POP POP JUMP JUMPDEST PUSH0 PUSH2 0xD8 PUSH2 0x48 JUMP JUMPDEST SWAP1 POP PUSH2 0xE4 DUP3 DUP3 PUSH2 0x9E JUMP JUMPDEST SWAP2 SWAP1 POP JUMP JUMPDEST PUSH0 PUSH8 0xFFFFFFFFFFFFFFFF DUP3 GT ISZERO PUSH2 0x103 JUMPI PUSH2 0x102 PUSH2 0x71 JUMP JUMPDEST JUMPDEST PUSH2 0x10C DUP3 PUSH2 0x61 JUMP JUMPDEST SWAP1 POP PUSH1 0x20 DUP2 ADD SWAP1 POP SWAP2 SWAP1 POP JUMP JUMPDEST DUP3 DUP2 DUP4 MCOPY PUSH0 DUP4 DUP4 ADD MSTORE POP POP POP JUMP JUMPDEST PUSH0 PUSH2 0x139 PUSH2 0x134 DUP5 PUSH2 0xE9 JUMP JUMPDEST PUSH2 0xCF JUMP JUMPDEST SWAP1 POP DUP3 DUP2 MSTORE PUSH1 0x20 DUP2 ADD DUP5 DUP5 DUP5 ADD GT ISZERO PUSH2 0x155 JUMPI PUSH2 0x154 PUSH2 0x5D JUMP JUMPDEST JUMPDEST PUSH2 0x160 DUP5 DUP3 DUP6 PUSH2 0x119 JUMP JUMPDEST POP SWAP4 SWAP3 POP POP POP JUMP JUMPDEST PUSH0 DUP3 PUSH1 0x1F DUP4 ADD SLT PUSH2 0x17C JUMPI PUSH2 0x17B PUSH2 0x59 JUMP JUMPDEST JUMPDEST DUP2 MLOAD PUSH2 0x18C DUP5 DUP3 PUSH1 0x20 DUP7 ADD PUSH2 0x127 JUMP JUMPDEST SWAP2 POP POP SWAP3 SWAP2 POP POP JUMP JUMPDEST PUSH0 PUSH1 0x20 DUP3 DUP5 SUB SLT ISZERO PUSH2 0x1AA JUMPI PUSH2 0x1A9 PUSH2 0x51 JUMP JUMPDEST JUMPDEST PUSH0 DUP3 ADD MLOAD PUSH8 0xFFFFFFFFFFFFFFFF DUP2 GT ISZERO PUSH2 0x1C7 JUMPI PUSH2 0x1C6 PUSH2 0x55 JUMP JUMPDEST JUMPDEST PUSH2 0x1D3 DUP5 DUP3 DUP6 ADD PUSH2 0x168 JUMP JUMPDEST SWAP2 POP POP SWAP3 SWAP2 POP POP JUMP JUMPDEST PUSH0 DUP2 MLOAD SWAP1 POP SWAP2 SWAP1 POP JUMP JUMPDEST PUSH32 0x4E487B7100000000000000000000000000000000000000000000000000000000 PUSH0 MSTORE PUSH1 0x22 PUSH1 0x4 MSTORE PUSH1 0x24 PUSH0 REVERT JUMPDEST PUSH0 PUSH1 0x2 DUP3 DIV SWAP1 POP PUSH1 0x1 DUP3 AND DUP1 PUSH2 0x22A JUMPI PUSH1 0x7F DUP3 AND SWAP2 POP JUMPDEST PUSH1 0x20 DUP3 LT DUP2 SUB PUSH2 0x23D JUMPI PUSH2 0x23C PUSH2 0x1E6 JUMP JUMPDEST JUMPDEST POP SWAP2 SWAP1 POP JUMP JUMPDEST PUSH0 DUP2 SWAP1 POP DUP2 PUSH0 MSTORE PUSH1 0x20 PUSH0 KECCAK256 SWAP1 POP SWAP2 SWAP1 POP JUMP JUMPDEST PUSH0 PUSH1 0x20 PUSH1 0x1F DUP4 ADD DIV SWAP1 POP SWAP2 SWAP1 POP JUMP JUMPDEST PUSH0 DUP3 DUP3 SHL SWAP1 POP SWAP3 SWAP2 POP POP JUMP JUMPDEST PUSH0 PUSH1 0x8 DUP4 MUL PUSH2 0x29F PUSH32 0xFFFFFFFFFFFFFFFFFFFFFFFFFFFFFFFFFFFFFFFFFFFFFFFFFFFFFFFFFFFFFFFF DUP3 PUSH2 0x264 JUMP JUMPDEST PUSH2 0x2A9 DUP7 DUP4 PUSH2 0x264 JUMP JUMPDEST SWAP6 POP DUP1 NOT DUP5 AND SWAP4 POP DUP1 DUP7 AND DUP5 OR SWAP3 POP POP POP SWAP4 SWAP3 POP POP POP JUMP JUMPDEST PUSH0 DUP2 SWAP1 POP SWAP2 SWAP1 POP JUMP JUMPDEST PUSH0 DUP2 SWAP1 POP SWAP2 SWAP1 POP JUMP JUMPDEST PUSH0 PUSH2 0x2ED PUSH2 0x2E8 PUSH2 0x2E3 DUP5 PUSH2 0x2C1 JUMP JUMPDEST PUSH2 0x2CA JUMP JUMPDEST PUSH2 0x2C1 JUMP JUMPDEST SWAP1 POP SWAP2 SWAP1 POP JUMP JUMPDEST PUSH0 DUP2 SWAP1 POP SWAP2 SWAP1 POP JUMP JUMPDEST PUSH2 0x306 DUP4 PUSH2 0x2D3 JUMP JUMPDEST PUSH2 0x31A PUSH2 0x312 DUP3 PUSH2 0x2F4 JUMP JUMPDEST DUP5 DUP5 SLOAD PUSH2 0x270 JUMP JUMPDEST DUP3 SSTORE POP POP POP POP JUMP JUMPDEST PUSH0 SWAP1 JUMP JUMPDEST PUSH2 0x32E PUSH2 0x322 JUMP JUMPDEST PUSH2 0x339 DUP2 DUP5 DUP5 PUSH2 0x2FD JUMP JUMPDEST POP POP POP JUMP JUMPDEST JUMPDEST DUP2 DUP2 LT ISZERO PUSH2 0x35C JUMPI PUSH2 0x351 PUSH0 DUP3 PUSH2 0x326 JUMP JUMPDEST PUSH1 0x1 DUP2 ADD SWAP1 POP PUSH2 0x33F JUMP JUMPDEST POP POP JUMP JUMPDEST PUSH1 0x1F DUP3 GT ISZERO PUSH2 0x3A1 JUMPI PUSH2 0x372 DUP2 PUSH2 0x243 JUMP JUMPDEST PUSH2 0x37B DUP5 PUSH2 0x255 JUMP JUMPDEST DUP2 ADD PUSH1 0x20 DUP6 LT ISZERO PUSH2 0x38A JUMPI DUP2 SWAP1 POP JUMPDEST PUSH2 0x39E PUSH2 0x396 DUP6 PUSH2 0x255 JUMP JUMPDEST DUP4 ADD DUP3 PUSH2 0x33E JUMP JUMPDEST POP POP JUMPDEST POP POP POP JUMP JUMPDEST PUSH0 DUP3 DUP3 SHR SWAP1 POP SWAP3 SWAP2 POP POP JUMP JUMPDEST PUSH0 PUSH2 0x3C1 PUSH0 NOT DUP5 PUSH1 0x8 MUL PUSH2 0x3A6 JUMP JUMPDEST NOT DUP1 DUP4 AND SWAP2 POP POP SWAP3 SWAP2 POP POP JUMP JUMPDEST PUSH0 PUSH2 0x3D9 DUP4 DUP4 PUSH2 0x3B2 JUMP JUMPDEST SWAP2 POP DUP3 PUSH1 0x2 MUL DUP3 OR SWAP1 POP SWAP3 SWAP2 POP POP JUMP JUMPDEST PUSH2 0x3F2 DUP3 PUSH2 0x1DC JUMP JUMPDEST PUSH8 0xFFFFFFFFFFFFFFFF DUP2 GT ISZERO PUSH2 0x40B JUMPI PUSH2 0x40A PUSH2 0x71 JUMP JUMPDEST JUMPDEST PUSH2 0x415 DUP3 SLOAD PUSH2 0x213 JUMP JUMPDEST PUSH2 0x420 DUP3 DUP3 DUP6 PUSH2 0x360 JUMP JUMPDEST PUSH0 PUSH1 0x20 SWAP1 POP PUSH1 0x1F DUP4 GT PUSH1 0x1 DUP2 EQ PUSH2 0x451 JUMPI PUSH0 DUP5 ISZERO PUSH2 0x43F JUMPI DUP3 DUP8 ADD MLOAD SWAP1 POP JUMPDEST PUSH2 0x449 DUP6 DUP3 PUSH2 0x3CE JUMP JUMPDEST DUP7 SSTORE POP PUSH2 0x4B0 JUMP JUMPDEST PUSH1 0x1F NOT DUP5 AND PUSH2 0x45F DUP7 PUSH2 0x243 JUMP JUMPDEST PUSH0 JUMPDEST DUP3 DUP2 LT ISZERO PUSH2 0x486 JUMPI DUP5 DUP10 ADD MLOAD DUP3 SSTORE PUSH1 0x1 DUP3 ADD SWAP2 POP PUSH1 0x20 DUP6 ADD SWAP5 POP PUSH1 0x20 DUP2 ADD SWAP1 POP PUSH2 0x461 JUMP JUMPDEST DUP7 DUP4 LT ISZERO PUSH2 0x4A3 JUMPI DUP5 DUP10 ADD MLOAD PUSH2 0x49F PUSH1 0x1F DUP10 AND DUP3 PUSH2 0x3B2 JUMP JUMPDEST DUP4 SSTORE POP JUMPDEST PUSH1 0x1 PUSH1 0x2 DUP9 MUL ADD DUP9 SSTORE POP POP POP JUMPDEST POP POP POP POP POP POP JUMP JUMPDEST PUSH2 0x2B1 DUP1 PUSH2 0x4C5 PUSH0 CODECOPY PUSH0 RETURN INVALID PUSH1 0x80 PUSH1 0x40 MSTORE CALLVALUE DUP1 ISZERO PUSH2 0xF JUMPI PUSH0 DUP1 REVERT JUMPDEST POP PUSH1 0x4 CALLDATASIZE LT PUSH2 0x34 JUMPI PUSH0 CALLDATALOAD PUSH1 0xE0 SHR DUP1 PUSH4 0x85D7ACF5 EQ PUSH2 0x38 JUMPI DUP1 PUSH4 0x9DD807B1 EQ PUSH2 0x56 JUMPI JUMPDEST PUSH0 DUP1 REVERT JUMPDEST PUSH2 0x40 PUSH2 0x74 JUMP JUMPDEST PUSH1 0x40 MLOAD PUSH2 0x4D SWAP2 SWAP1 PUSH2 0x1FE JUMP JUMPDEST PUSH1 0x40 MLOAD DUP1 SWAP2 SUB SWAP1 RETURN JUMPDEST PUSH2 0x5E PUSH2 0x103 JUMP JUMPDEST PUSH1 0x40 MLOAD PUSH2 0x6B SWAP2 SWAP1 PUSH2 0x1FE JUMP JUMPDEST PUSH1 0x40 MLOAD DUP1 SWAP2 SUB SWAP1 RETURN JUMPDEST PUSH1 0x60 PUSH0 DUP1 SLOAD PUSH2 0x82 SWAP1 PUSH2 0x24B JUMP JUMPDEST DUP1 PUSH1 0x1F ADD PUSH1 0x20 DUP1 SWAP2 DIV MUL PUSH1 0x20 ADD PUSH1 0x40 MLOAD SWAP1 DUP2 ADD PUSH1 0x40 MSTORE DUP1 SWAP3 SWAP2 SWAP1 DUP2 DUP2 MSTORE PUSH1 0x20 ADD DUP3 DUP1 SLOAD PUSH2 0xAE SWAP1 PUSH2 0x24B JUMP JUMPDEST DUP1 ISZERO PUSH2 0xF9 JUMPI DUP1 PUSH1 0x1F LT PUSH2 0xD0 JUMPI PUSH2 0x100 DUP1 DUP4 SLOAD DIV MUL DUP4 MSTORE SWAP2 PUSH1 0x20 ADD SWAP2 PUSH2 0xF9 JUMP JUMPDEST DUP3 ADD SWAP2 SWAP1 PUSH0 MSTORE PUSH1 0x20 PUSH0 KECCAK256 SWAP1 JUMPDEST DUP2 SLOAD DUP2 MSTORE SWAP1 PUSH1 0x1 ADD SWAP1 PUSH1 0x20 ADD DUP1 DUP4 GT PUSH2 0xDC JUMPI DUP3 SWAP1 SUB PUSH1 0x1F AND DUP3 ADD SWAP2 JUMPDEST POP POP POP POP POP SWAP1 POP SWAP1 JUMP JUMPDEST PUSH0 DUP1 SLOAD PUSH2 0x10F SWAP1 PUSH2 0x24B JUMP JUMPDEST DUP1 PUSH1 0x1F ADD PUSH1 0x20 DUP1 SWAP2 DIV MUL PUSH1 0x20 ADD PUSH1 0x40 MLOAD SWAP1 DUP2 ADD PUSH1 0x40 MSTORE DUP1 SWAP3 SWAP2 SWAP1 DUP2 DUP2 MSTORE PUSH1 0x20 ADD DUP3 DUP1 SLOAD PUSH2 0x13B SWAP1 PUSH2 0x24B JUMP JUMPDEST DUP1 ISZERO PUSH2 0x186 JUMPI DUP1 PUSH1 0x1F LT PUSH2 0x15D JUMPI PUSH2 0x100 DUP1 DUP4 SLOAD DIV MUL DUP4 MSTORE SWAP2 PUSH1 0x20 ADD SWAP2 PUSH2 0x186 JUMP JUMPDEST DUP3 ADD SWAP2 SWAP1 PUSH0 MSTORE PUSH1 0x20 PUSH0 KECCAK256 SWAP1 JUMPDEST DUP2 SLOAD DUP2 MSTORE SWAP1 PUSH1 0x1 ADD SWAP1 PUSH1 0x20 ADD DUP1 DUP4 GT PUSH2 0x169 JUMPI DUP3 SWAP1 SUB PUSH1 0x1F AND DUP3 ADD SWAP2 JUMPDEST POP POP POP POP POP DUP2 JUMP JUMPDEST PUSH0 DUP2 MLOAD SWAP1 POP SWAP2 SWAP1 POP JUMP JUMPDEST PUSH0 DUP3 DUP3 MSTORE PUSH1 0x20 DUP3 ADD SWAP1 POP SWAP3 SWAP2 POP POP JUMP JUMPDEST DUP3 DUP2 DUP4 MCOPY PUSH0 DUP4 DUP4 ADD MSTORE POP POP POP JUMP JUMPDEST PUSH0 PUSH1 0x1F NOT PUSH1 0x1F DUP4 ADD AND SWAP1 POP SWAP2 SWAP1 POP JUMP JUMPDEST PUSH0 PUSH2 0x1D0 DUP3 PUSH2 0x18E JUMP JUMPDEST PUSH2 0x1DA DUP2 DUP6 PUSH2 0x198 JUMP JUMPDEST SWAP4 POP PUSH2 0x1EA DUP2 DUP6 PUSH1 0x20 DUP7 ADD PUSH2 0x1A8 JUMP JUMPDEST PUSH2 0x1F3 DUP2 PUSH2 0x1B6 JUMP JUMPDEST DUP5 ADD SWAP2 POP POP SWAP3 SWAP2 POP POP JUMP JUMPDEST PUSH0 PUSH1 0x20 DUP3 ADD SWAP1 POP DUP2 DUP2 SUB PUSH0 DUP4 ADD MSTORE PUSH2 0x216 DUP2 DUP5 PUSH2 0x1C6 JUMP JUMPDEST SWAP1 POP SWAP3 SWAP2 POP POP JUMP JUMPDEST PUSH32 0x4E487B7100000000000000000000000000000000000000000000000000000000 PUSH0 MSTORE PUSH1 0x22 PUSH1 0x4 MSTORE PUSH1 0x24 PUSH0 REVERT JUMPDEST PUSH0 PUSH1 0x2 DUP3 DIV SWAP1 POP PUSH1 0x1 DUP3 AND DUP1 PUSH2 0x262 JUMPI PUSH1 0x7F DUP3 AND SWAP2 POP JUMPDEST PUSH1 0x20 DUP3 LT DUP2 SUB PUSH2 0x275 JUMPI PUSH2 0x274 PUSH2 0x21E JUMP JUMPDEST JUMPDEST POP SWAP2 SWAP1 POP JUMP INVALID LOG2 PUSH5 0x6970667358 0x22 SLT KECCAK256 COINBASE 0x1F SLOAD 0xC3 MSIZE CHAINID 0xB9 DUP15 SWAP2 SELFDESTRUCT 0xC6 RETURN PUSH26 0xF0E988F59CF59060BC743DB2801C3132DFBDA164736F6C634300 ADDMOD BYTE STOP CALLER "
				},
				"gasEstimates": {
					"creation": {
						"codeDepositCost": "253800",
						"executionCost": "infinite",
						"totalCost": "infinite"
					},
					"external": {
						"dog()": "infinite",
						"getAllNames()": "infinite",
						"tiger()": "infinite"
					}
				},
				"methodIdentifiers": {
					"dog()": "c3b3ad7f",
					"getAllNames()": "fb825e5f",
					"tiger()": "44d333ff"
				}
			},
			"storageLayout": {
				"storage": [
					{
						"astId": 49,
						"contract": "week6_practice/parent.sol:AnimalSet",
						"label": "tiger",
						"offset": 0,
						"slot": "0",
						"type": "t_contract(Animal)22"
					},
					{
						"astId": 52,
						"contract": "week6_practice/parent.sol:AnimalSet",
						"label": "dog",
						"offset": 0,
						"slot": "1",
						"type": "t_contract(Animal)22"
					}
				],
				"types": {
					"t_contract(Animal)22": {
						"encoding": "inplace",
						"label": "contract Animal",
						"numberOfBytes": "20"
					}
				}
			},
			"userdoc": {
				"kind": "user",
				"methods": {},
				"version": 1
			}
		}
	}
}