{
	"week6_practice/error_tryCatch.sol": {
		"Ex6_4": {
			"abi": [
				{
					"anonymous": false,
					"inputs": [
						{
							"indexed": false,
							"internalType": "string",
							"name": "reason",
							"type": "string"
						}
					],
					"name": "ErrorReason1",
					"type": "event"
				},
				{
					"anonymous": false,
					"inputs": [
						{
							"indexed": false,
							"internalType": "uint256",
							"name": "errorCode",
							"type": "uint256"
						}
					],
					"name": "ErrorReason2",
					"type": "event"
				},
				{
					"anonymous": false,
					"inputs": [
						{
							"indexed": false,
							"internalType": "bytes",
							"name": "lowLevelData",
							"type": "bytes"
						}
					],
					"name": "ErrorReason3",
					"type": "event"
				},
				{
					"inputs": [
						{
							"internalType": "uint256",
							"name": "_num",
							"type": "uint256"
						}
					],
					"name": "output5",
					"outputs": [
						{
							"internalType": "uint256",
							"name": "",
							"type": "uint256"
						}
					],
					"stateMutability": "pure",
					"type": "function"
				},
				{
					"inputs": [
						{
							"internalType": "uint256",
							"name": "_num",
							"type": "uint256"
						}
					],
					"name": "output5withTryCatch",
					"outputs": [
						{
							"internalType": "uint256",
							"name": "",
							"type": "uint256"
						},
						{
							"internalType": "bool",
							"name": "",
							"type": "bool"
						}
					],
					"stateMutability": "nonpayable",
					"type": "function"
				}
			],
			"devdoc": {
				"kind": "dev",
				"methods": {},
				"version": 1
			},
			"evm": {
				"assembly": "    /* \"week6_practice/error_tryCatch.sol\":72:1055  contract Ex6_4{... */\n  mstore(0x40, 0x80)\n  callvalue\n  dup1\n  iszero\n  tag_1\n  jumpi\n  0x00\n  dup1\n  revert\ntag_1:\n  pop\n  dataSize(sub_0)\n  dup1\n  dataOffset(sub_0)\n  0x00\n  codecopy\n  0x00\n  return\nstop\n\nsub_0: assembly {\n        /* \"week6_practice/error_tryCatch.sol\":72:1055  contract Ex6_4{... */\n      mstore(0x40, 0x80)\n      callvalue\n      dup1\n      iszero\n      tag_1\n      jumpi\n      0x00\n      dup1\n      revert\n    tag_1:\n      pop\n      jumpi(tag_2, lt(calldatasize, 0x04))\n      shr(0xe0, calldataload(0x00))\n      dup1\n      0x8475016b\n      eq\n      tag_3\n      jumpi\n      dup1\n      0xec581227\n      eq\n      tag_4\n      jumpi\n    tag_2:\n      0x00\n      dup1\n      revert\n        /* \"week6_practice/error_tryCatch.sol\":221:444  function output5(uint _num) public pure returns(uint){... */\n    tag_3:\n      tag_5\n      0x04\n      dup1\n      calldatasize\n      sub\n      dup2\n      add\n      swap1\n      tag_6\n      swap2\n      swap1\n      tag_7\n      jump\t// in\n    tag_6:\n      tag_8\n      jump\t// in\n    tag_5:\n      mload(0x40)\n      tag_9\n      swap2\n      swap1\n      tag_10\n      jump\t// in\n    tag_9:\n      mload(0x40)\n      dup1\n      swap2\n      sub\n      swap1\n      return\n        /* \"week6_practice/error_tryCatch.sol\":515:1052  function output5withTryCatch(uint _num) public returns(uint256, bool){... */\n    tag_4:\n      tag_11\n      0x04\n      dup1\n      calldatasize\n      sub\n      dup2\n      add\n      swap1\n      tag_12\n      swap2\n      swap1\n      tag_7\n      jump\t// in\n    tag_12:\n      tag_13\n      jump\t// in\n    tag_11:\n      mload(0x40)\n      tag_14\n      swap3\n      swap2\n      swap1\n      tag_15\n      jump\t// in\n    tag_14:\n      mload(0x40)\n      dup1\n      swap2\n      sub\n      swap1\n      return\n        /* \"week6_practice/error_tryCatch.sol\":221:444  function output5(uint _num) public pure returns(uint){... */\n    tag_8:\n        /* \"week6_practice/error_tryCatch.sol\":269:273  uint */\n      0x00\n        /* \"week6_practice/error_tryCatch.sol\":294:295  6 */\n      0x06\n        /* \"week6_practice/error_tryCatch.sol\":288:292  _num */\n      dup3\n        /* \"week6_practice/error_tryCatch.sol\":288:295  _num>=6 */\n      lt\n        /* \"week6_practice/error_tryCatch.sol\":285:357  if(_num>=6){... */\n      tag_17\n      jumpi\n        /* \"week6_practice/error_tryCatch.sol\":311:345  revert(\"Revert : num should be 5\") */\n      mload(0x40)\n      0x08c379a000000000000000000000000000000000000000000000000000000000\n      dup2\n      mstore\n      0x04\n      add\n      tag_18\n      swap1\n      tag_19\n      jump\t// in\n    tag_18:\n      mload(0x40)\n      dup1\n      swap2\n      sub\n      swap1\n      revert\n        /* \"week6_practice/error_tryCatch.sol\":285:357  if(_num>=6){... */\n    tag_17:\n        /* \"week6_practice/error_tryCatch.sol\":376:377  4 */\n      0x04\n        /* \"week6_practice/error_tryCatch.sol\":370:374  _num */\n      dup3\n        /* \"week6_practice/error_tryCatch.sol\":370:377  _num<=4 */\n      gt\n        /* \"week6_practice/error_tryCatch.sol\":367:418  if(_num<=4){... */\n      tag_20\n      jumpi\n        /* \"week6_practice/error_tryCatch.sol\":400:405  false */\n      0x00\n        /* \"week6_practice/error_tryCatch.sol\":393:406  assert(false) */\n      tag_21\n      jumpi\n      tag_22\n      tag_23\n      jump\t// in\n    tag_22:\n    tag_21:\n        /* \"week6_practice/error_tryCatch.sol\":367:418  if(_num<=4){... */\n    tag_20:\n        /* \"week6_practice/error_tryCatch.sol\":435:436  5 */\n      0x05\n        /* \"week6_practice/error_tryCatch.sol\":428:436  return 5 */\n      swap1\n      pop\n        /* \"week6_practice/error_tryCatch.sol\":221:444  function output5(uint _num) public pure returns(uint){... */\n      swap2\n      swap1\n      pop\n      jump\t// out\n        /* \"week6_practice/error_tryCatch.sol\":515:1052  function output5withTryCatch(uint _num) public returns(uint256, bool){... */\n    tag_13:\n        /* \"week6_practice/error_tryCatch.sol\":570:577  uint256 */\n      0x00\n        /* \"week6_practice/error_tryCatch.sol\":579:583  bool */\n      dup1\n        /* \"week6_practice/error_tryCatch.sol\":599:603  this */\n      address\n        /* \"week6_practice/error_tryCatch.sol\":599:611  this.output5 */\n      0xffffffffffffffffffffffffffffffffffffffff\n      and\n      0x8475016b\n        /* \"week6_practice/error_tryCatch.sol\":612:616  _num */\n      dup5\n        /* \"week6_practice/error_tryCatch.sol\":599:617  this.output5(_num) */\n      mload(0x40)\n      dup3\n      0xffffffff\n      and\n      0xe0\n      shl\n      dup2\n      mstore\n      0x04\n      add\n      tag_25\n      swap2\n      swap1\n      tag_10\n      jump\t// in\n    tag_25:\n      0x20\n      mload(0x40)\n      dup1\n      dup4\n      sub\n      dup2\n      dup7\n      gas\n      staticcall\n      swap3\n      pop\n      pop\n      pop\n      dup1\n      iszero\n      tag_26\n      jumpi\n      pop\n      mload(0x40)\n      returndatasize\n      not(0x1f)\n      0x1f\n      dup3\n      add\n      and\n      dup3\n      add\n      dup1\n      0x40\n      mstore\n      pop\n      dup2\n      add\n      swap1\n      tag_27\n      swap2\n      swap1\n      tag_28\n      jump\t// in\n    tag_27:\n      0x01\n    tag_26:\n        /* \"week6_practice/error_tryCatch.sol\":595:1037  try this.output5(_num) returns(uint256 value){... */\n      tag_29\n      jumpi\n      tag_33\n      tag_34\n      jump\t// in\n    tag_33:\n      dup1\n      0x08c379a0\n      sub\n      tag_32\n      jumpi\n      pop\n      tag_35\n      tag_36\n      jump\t// in\n    tag_35:\n      dup1\n      tag_37\n      jumpi\n      pop\n      jump(tag_31)\n    tag_37:\n        /* \"week6_practice/error_tryCatch.sol\":740:760  ErrorReason1(reason) */\n      0x316d4704ca18e103252abce7d81e53dfdec9859f9e0a639ccd9c332effb08d6e\n        /* \"week6_practice/error_tryCatch.sol\":753:759  reason */\n      dup2\n        /* \"week6_practice/error_tryCatch.sol\":740:760  ErrorReason1(reason) */\n      mload(0x40)\n      tag_38\n      swap2\n      swap1\n      tag_39\n      jump\t// in\n    tag_38:\n      mload(0x40)\n      dup1\n      swap2\n      sub\n      swap1\n      log1\n        /* \"week6_practice/error_tryCatch.sol\":783:784  0 */\n      0x00\n        /* \"week6_practice/error_tryCatch.sol\":785:790  false */\n      dup1\n        /* \"week6_practice/error_tryCatch.sol\":775:791  return (0,false) */\n      swap3\n      pop\n      swap3\n      pop\n      pop\n      jump(tag_24)\n        /* \"week6_practice/error_tryCatch.sol\":595:1037  try this.output5(_num) returns(uint256 value){... */\n    tag_32:\n      0x4e487b71\n      sub\n      tag_31\n      jumpi\n      tag_40\n      tag_41\n      jump\t// in\n    tag_40:\n      swap1\n      tag_42\n      jumpi\n      pop\n      jump(tag_31)\n    tag_42:\n        /* \"week6_practice/error_tryCatch.sol\":851:874  ErrorReason2(errorCode) */\n      0xf0a3d11b86dc0859fa4e51d2dea2035f3649d433b5b4ec57925b58c9a5fac0c1\n        /* \"week6_practice/error_tryCatch.sol\":864:873  errorCode */\n      dup2\n        /* \"week6_practice/error_tryCatch.sol\":851:874  ErrorReason2(errorCode) */\n      mload(0x40)\n      tag_43\n      swap2\n      swap1\n      tag_10\n      jump\t// in\n    tag_43:\n      mload(0x40)\n      dup1\n      swap2\n      sub\n      swap1\n      log1\n        /* \"week6_practice/error_tryCatch.sol\":896:897  0 */\n      0x00\n        /* \"week6_practice/error_tryCatch.sol\":898:903  false */\n      dup1\n        /* \"week6_practice/error_tryCatch.sol\":889:904  return(0,false) */\n      swap3\n      pop\n      swap3\n      pop\n      pop\n      jump(tag_24)\n        /* \"week6_practice/error_tryCatch.sol\":595:1037  try this.output5(_num) returns(uint256 value){... */\n    tag_31:\n      returndatasize\n      dup1\n      0x00\n      dup2\n      eq\n      tag_45\n      jumpi\n      mload(0x40)\n      swap2\n      pop\n      and(add(returndatasize, 0x3f), not(0x1f))\n      dup3\n      add\n      0x40\n      mstore\n      returndatasize\n      dup3\n      mstore\n      returndatasize\n      0x00\n      0x20\n      dup5\n      add\n      returndatacopy\n      jump(tag_44)\n    tag_45:\n      0x60\n      swap2\n      pop\n    tag_44:\n      pop\n        /* \"week6_practice/error_tryCatch.sol\":969:995  ErrorReason3(lowLevelData) */\n      0x11630be05199a3e4c6abf1bfe27413bcfe3cd3058442e7143637d96af091baa4\n        /* \"week6_practice/error_tryCatch.sol\":982:994  lowLevelData */\n      dup2\n        /* \"week6_practice/error_tryCatch.sol\":969:995  ErrorReason3(lowLevelData) */\n      mload(0x40)\n      tag_46\n      swap2\n      swap1\n      tag_47\n      jump\t// in\n    tag_46:\n      mload(0x40)\n      dup1\n      swap2\n      sub\n      swap1\n      log1\n        /* \"week6_practice/error_tryCatch.sol\":1017:1018  0 */\n      0x00\n        /* \"week6_practice/error_tryCatch.sol\":1019:1024  false */\n      dup1\n        /* \"week6_practice/error_tryCatch.sol\":1010:1025  return(0,false) */\n      swap3\n      pop\n      swap3\n      pop\n      pop\n      jump(tag_24)\n        /* \"week6_practice/error_tryCatch.sol\":595:1037  try this.output5(_num) returns(uint256 value){... */\n    tag_29:\n        /* \"week6_practice/error_tryCatch.sol\":662:667  value */\n      dup1\n        /* \"week6_practice/error_tryCatch.sol\":669:673  true */\n      0x01\n        /* \"week6_practice/error_tryCatch.sol\":655:674  return(value, true) */\n      swap3\n      pop\n      swap3\n      pop\n      pop\n        /* \"week6_practice/error_tryCatch.sol\":515:1052  function output5withTryCatch(uint _num) public returns(uint256, bool){... */\n    tag_24:\n      swap2\n      pop\n      swap2\n      jump\t// out\n        /* \"#utility.yul\":7:82   */\n    tag_49:\n        /* \"#utility.yul\":40:46   */\n      0x00\n        /* \"#utility.yul\":73:75   */\n      0x40\n        /* \"#utility.yul\":67:76   */\n      mload\n        /* \"#utility.yul\":57:76   */\n      swap1\n      pop\n        /* \"#utility.yul\":7:82   */\n      swap1\n      jump\t// out\n        /* \"#utility.yul\":88:205   */\n    tag_50:\n        /* \"#utility.yul\":197:198   */\n      0x00\n        /* \"#utility.yul\":194:195   */\n      dup1\n        /* \"#utility.yul\":187:199   */\n      revert\n        /* \"#utility.yul\":334:411   */\n    tag_52:\n        /* \"#utility.yul\":371:378   */\n      0x00\n        /* \"#utility.yul\":400:405   */\n      dup2\n        /* \"#utility.yul\":389:405   */\n      swap1\n      pop\n        /* \"#utility.yul\":334:411   */\n      swap2\n      swap1\n      pop\n      jump\t// out\n        /* \"#utility.yul\":417:539   */\n    tag_53:\n        /* \"#utility.yul\":490:514   */\n      tag_78\n        /* \"#utility.yul\":508:513   */\n      dup2\n        /* \"#utility.yul\":490:514   */\n      tag_52\n      jump\t// in\n    tag_78:\n        /* \"#utility.yul\":483:488   */\n      dup2\n        /* \"#utility.yul\":480:515   */\n      eq\n        /* \"#utility.yul\":470:533   */\n      tag_79\n      jumpi\n        /* \"#utility.yul\":529:530   */\n      0x00\n        /* \"#utility.yul\":526:527   */\n      dup1\n        /* \"#utility.yul\":519:531   */\n      revert\n        /* \"#utility.yul\":470:533   */\n    tag_79:\n        /* \"#utility.yul\":417:539   */\n      pop\n      jump\t// out\n        /* \"#utility.yul\":545:684   */\n    tag_54:\n        /* \"#utility.yul\":591:596   */\n      0x00\n        /* \"#utility.yul\":629:635   */\n      dup2\n        /* \"#utility.yul\":616:636   */\n      calldataload\n        /* \"#utility.yul\":607:636   */\n      swap1\n      pop\n        /* \"#utility.yul\":645:678   */\n      tag_81\n        /* \"#utility.yul\":672:677   */\n      dup2\n        /* \"#utility.yul\":645:678   */\n      tag_53\n      jump\t// in\n    tag_81:\n        /* \"#utility.yul\":545:684   */\n      swap3\n      swap2\n      pop\n      pop\n      jump\t// out\n        /* \"#utility.yul\":690:1019   */\n    tag_7:\n        /* \"#utility.yul\":749:755   */\n      0x00\n        /* \"#utility.yul\":798:800   */\n      0x20\n        /* \"#utility.yul\":786:795   */\n      dup3\n        /* \"#utility.yul\":777:784   */\n      dup5\n        /* \"#utility.yul\":773:796   */\n      sub\n        /* \"#utility.yul\":769:801   */\n      slt\n        /* \"#utility.yul\":766:885   */\n      iszero\n      tag_83\n      jumpi\n        /* \"#utility.yul\":804:883   */\n      tag_84\n      tag_50\n      jump\t// in\n    tag_84:\n        /* \"#utility.yul\":766:885   */\n    tag_83:\n        /* \"#utility.yul\":924:925   */\n      0x00\n        /* \"#utility.yul\":949:1002   */\n      tag_85\n        /* \"#utility.yul\":994:1001   */\n      dup5\n        /* \"#utility.yul\":985:991   */\n      dup3\n        /* \"#utility.yul\":974:983   */\n      dup6\n        /* \"#utility.yul\":970:992   */\n      add\n        /* \"#utility.yul\":949:1002   */\n      tag_54\n      jump\t// in\n    tag_85:\n        /* \"#utility.yul\":939:1002   */\n      swap2\n      pop\n        /* \"#utility.yul\":895:1012   */\n      pop\n        /* \"#utility.yul\":690:1019   */\n      swap3\n      swap2\n      pop\n      pop\n      jump\t// out\n        /* \"#utility.yul\":1025:1143   */\n    tag_55:\n        /* \"#utility.yul\":1112:1136   */\n      tag_87\n        /* \"#utility.yul\":1130:1135   */\n      dup2\n        /* \"#utility.yul\":1112:1136   */\n      tag_52\n      jump\t// in\n    tag_87:\n        /* \"#utility.yul\":1107:1110   */\n      dup3\n        /* \"#utility.yul\":1100:1137   */\n      mstore\n        /* \"#utility.yul\":1025:1143   */\n      pop\n      pop\n      jump\t// out\n        /* \"#utility.yul\":1149:1371   */\n    tag_10:\n        /* \"#utility.yul\":1242:1246   */\n      0x00\n        /* \"#utility.yul\":1280:1282   */\n      0x20\n        /* \"#utility.yul\":1269:1278   */\n      dup3\n        /* \"#utility.yul\":1265:1283   */\n      add\n        /* \"#utility.yul\":1257:1283   */\n      swap1\n      pop\n        /* \"#utility.yul\":1293:1364   */\n      tag_89\n        /* \"#utility.yul\":1361:1362   */\n      0x00\n        /* \"#utility.yul\":1350:1359   */\n      dup4\n        /* \"#utility.yul\":1346:1363   */\n      add\n        /* \"#utility.yul\":1337:1343   */\n      dup5\n        /* \"#utility.yul\":1293:1364   */\n      tag_55\n      jump\t// in\n    tag_89:\n        /* \"#utility.yul\":1149:1371   */\n      swap3\n      swap2\n      pop\n      pop\n      jump\t// out\n        /* \"#utility.yul\":1377:1467   */\n    tag_56:\n        /* \"#utility.yul\":1411:1418   */\n      0x00\n        /* \"#utility.yul\":1454:1459   */\n      dup2\n        /* \"#utility.yul\":1447:1460   */\n      iszero\n        /* \"#utility.yul\":1440:1461   */\n      iszero\n        /* \"#utility.yul\":1429:1461   */\n      swap1\n      pop\n        /* \"#utility.yul\":1377:1467   */\n      swap2\n      swap1\n      pop\n      jump\t// out\n        /* \"#utility.yul\":1473:1582   */\n    tag_57:\n        /* \"#utility.yul\":1554:1575   */\n      tag_92\n        /* \"#utility.yul\":1569:1574   */\n      dup2\n        /* \"#utility.yul\":1554:1575   */\n      tag_56\n      jump\t// in\n    tag_92:\n        /* \"#utility.yul\":1549:1552   */\n      dup3\n        /* \"#utility.yul\":1542:1576   */\n      mstore\n        /* \"#utility.yul\":1473:1582   */\n      pop\n      pop\n      jump\t// out\n        /* \"#utility.yul\":1588:1908   */\n    tag_15:\n        /* \"#utility.yul\":1703:1707   */\n      0x00\n        /* \"#utility.yul\":1741:1743   */\n      0x40\n        /* \"#utility.yul\":1730:1739   */\n      dup3\n        /* \"#utility.yul\":1726:1744   */\n      add\n        /* \"#utility.yul\":1718:1744   */\n      swap1\n      pop\n        /* \"#utility.yul\":1754:1825   */\n      tag_94\n        /* \"#utility.yul\":1822:1823   */\n      0x00\n        /* \"#utility.yul\":1811:1820   */\n      dup4\n        /* \"#utility.yul\":1807:1824   */\n      add\n        /* \"#utility.yul\":1798:1804   */\n      dup6\n        /* \"#utility.yul\":1754:1825   */\n      tag_55\n      jump\t// in\n    tag_94:\n        /* \"#utility.yul\":1835:1901   */\n      tag_95\n        /* \"#utility.yul\":1897:1899   */\n      0x20\n        /* \"#utility.yul\":1886:1895   */\n      dup4\n        /* \"#utility.yul\":1882:1900   */\n      add\n        /* \"#utility.yul\":1873:1879   */\n      dup5\n        /* \"#utility.yul\":1835:1901   */\n      tag_57\n      jump\t// in\n    tag_95:\n        /* \"#utility.yul\":1588:1908   */\n      swap4\n      swap3\n      pop\n      pop\n      pop\n      jump\t// out\n        /* \"#utility.yul\":1914:2083   */\n    tag_58:\n        /* \"#utility.yul\":1998:2009   */\n      0x00\n        /* \"#utility.yul\":2032:2038   */\n      dup3\n        /* \"#utility.yul\":2027:2030   */\n      dup3\n        /* \"#utility.yul\":2020:2039   */\n      mstore\n        /* \"#utility.yul\":2072:2076   */\n      0x20\n        /* \"#utility.yul\":2067:2070   */\n      dup3\n        /* \"#utility.yul\":2063:2077   */\n      add\n        /* \"#utility.yul\":2048:2077   */\n      swap1\n      pop\n        /* \"#utility.yul\":1914:2083   */\n      swap3\n      swap2\n      pop\n      pop\n      jump\t// out\n        /* \"#utility.yul\":2089:2263   */\n    tag_59:\n        /* \"#utility.yul\":2229:2255   */\n      0x526576657274203a206e756d2073686f756c6420626520350000000000000000\n        /* \"#utility.yul\":2225:2226   */\n      0x00\n        /* \"#utility.yul\":2217:2223   */\n      dup3\n        /* \"#utility.yul\":2213:2227   */\n      add\n        /* \"#utility.yul\":2206:2256   */\n      mstore\n        /* \"#utility.yul\":2089:2263   */\n      pop\n      jump\t// out\n        /* \"#utility.yul\":2269:2635   */\n    tag_60:\n        /* \"#utility.yul\":2411:2414   */\n      0x00\n        /* \"#utility.yul\":2432:2499   */\n      tag_99\n        /* \"#utility.yul\":2496:2498   */\n      0x18\n        /* \"#utility.yul\":2491:2494   */\n      dup4\n        /* \"#utility.yul\":2432:2499   */\n      tag_58\n      jump\t// in\n    tag_99:\n        /* \"#utility.yul\":2425:2499   */\n      swap2\n      pop\n        /* \"#utility.yul\":2508:2601   */\n      tag_100\n        /* \"#utility.yul\":2597:2600   */\n      dup3\n        /* \"#utility.yul\":2508:2601   */\n      tag_59\n      jump\t// in\n    tag_100:\n        /* \"#utility.yul\":2626:2628   */\n      0x20\n        /* \"#utility.yul\":2621:2624   */\n      dup3\n        /* \"#utility.yul\":2617:2629   */\n      add\n        /* \"#utility.yul\":2610:2629   */\n      swap1\n      pop\n        /* \"#utility.yul\":2269:2635   */\n      swap2\n      swap1\n      pop\n      jump\t// out\n        /* \"#utility.yul\":2641:3060   */\n    tag_19:\n        /* \"#utility.yul\":2807:2811   */\n      0x00\n        /* \"#utility.yul\":2845:2847   */\n      0x20\n        /* \"#utility.yul\":2834:2843   */\n      dup3\n        /* \"#utility.yul\":2830:2848   */\n      add\n        /* \"#utility.yul\":2822:2848   */\n      swap1\n      pop\n        /* \"#utility.yul\":2894:2903   */\n      dup2\n        /* \"#utility.yul\":2888:2892   */\n      dup2\n        /* \"#utility.yul\":2884:2904   */\n      sub\n        /* \"#utility.yul\":2880:2881   */\n      0x00\n        /* \"#utility.yul\":2869:2878   */\n      dup4\n        /* \"#utility.yul\":2865:2882   */\n      add\n        /* \"#utility.yul\":2858:2905   */\n      mstore\n        /* \"#utility.yul\":2922:3053   */\n      tag_102\n        /* \"#utility.yul\":3048:3052   */\n      dup2\n        /* \"#utility.yul\":2922:3053   */\n      tag_60\n      jump\t// in\n    tag_102:\n        /* \"#utility.yul\":2914:3053   */\n      swap1\n      pop\n        /* \"#utility.yul\":2641:3060   */\n      swap2\n      swap1\n      pop\n      jump\t// out\n        /* \"#utility.yul\":3066:3246   */\n    tag_23:\n        /* \"#utility.yul\":3114:3191   */\n      0x4e487b7100000000000000000000000000000000000000000000000000000000\n        /* \"#utility.yul\":3111:3112   */\n      0x00\n        /* \"#utility.yul\":3104:3192   */\n      mstore\n        /* \"#utility.yul\":3211:3215   */\n      0x01\n        /* \"#utility.yul\":3208:3209   */\n      0x04\n        /* \"#utility.yul\":3201:3216   */\n      mstore\n        /* \"#utility.yul\":3235:3239   */\n      0x24\n        /* \"#utility.yul\":3232:3233   */\n      0x00\n        /* \"#utility.yul\":3225:3240   */\n      revert\n        /* \"#utility.yul\":3252:3395   */\n    tag_61:\n        /* \"#utility.yul\":3309:3314   */\n      0x00\n        /* \"#utility.yul\":3340:3346   */\n      dup2\n        /* \"#utility.yul\":3334:3347   */\n      mload\n        /* \"#utility.yul\":3325:3347   */\n      swap1\n      pop\n        /* \"#utility.yul\":3356:3389   */\n      tag_105\n        /* \"#utility.yul\":3383:3388   */\n      dup2\n        /* \"#utility.yul\":3356:3389   */\n      tag_53\n      jump\t// in\n    tag_105:\n        /* \"#utility.yul\":3252:3395   */\n      swap3\n      swap2\n      pop\n      pop\n      jump\t// out\n        /* \"#utility.yul\":3401:3752   */\n    tag_28:\n        /* \"#utility.yul\":3471:3477   */\n      0x00\n        /* \"#utility.yul\":3520:3522   */\n      0x20\n        /* \"#utility.yul\":3508:3517   */\n      dup3\n        /* \"#utility.yul\":3499:3506   */\n      dup5\n        /* \"#utility.yul\":3495:3518   */\n      sub\n        /* \"#utility.yul\":3491:3523   */\n      slt\n        /* \"#utility.yul\":3488:3607   */\n      iszero\n      tag_107\n      jumpi\n        /* \"#utility.yul\":3526:3605   */\n      tag_108\n      tag_50\n      jump\t// in\n    tag_108:\n        /* \"#utility.yul\":3488:3607   */\n    tag_107:\n        /* \"#utility.yul\":3646:3647   */\n      0x00\n        /* \"#utility.yul\":3671:3735   */\n      tag_109\n        /* \"#utility.yul\":3727:3734   */\n      dup5\n        /* \"#utility.yul\":3718:3724   */\n      dup3\n        /* \"#utility.yul\":3707:3716   */\n      dup6\n        /* \"#utility.yul\":3703:3725   */\n      add\n        /* \"#utility.yul\":3671:3735   */\n      tag_61\n      jump\t// in\n    tag_109:\n        /* \"#utility.yul\":3661:3735   */\n      swap2\n      pop\n        /* \"#utility.yul\":3617:3745   */\n      pop\n        /* \"#utility.yul\":3401:3752   */\n      swap3\n      swap2\n      pop\n      pop\n      jump\t// out\n        /* \"#utility.yul\":3758:3864   */\n    tag_62:\n        /* \"#utility.yul\":3802:3810   */\n      0x00\n        /* \"#utility.yul\":3851:3856   */\n      dup2\n        /* \"#utility.yul\":3846:3849   */\n      0xe0\n        /* \"#utility.yul\":3842:3857   */\n      shr\n        /* \"#utility.yul\":3821:3857   */\n      swap1\n      pop\n        /* \"#utility.yul\":3758:3864   */\n      swap2\n      swap1\n      pop\n      jump\t// out\n        /* \"#utility.yul\":3870:4053   */\n    tag_34:\n        /* \"#utility.yul\":3905:3908   */\n      0x00\n        /* \"#utility.yul\":3943:3944   */\n      0x03\n        /* \"#utility.yul\":3925:3941   */\n      returndatasize\n        /* \"#utility.yul\":3922:3945   */\n      gt\n        /* \"#utility.yul\":3919:4047   */\n      iszero\n      tag_112\n      jumpi\n        /* \"#utility.yul\":3981:3982   */\n      0x04\n        /* \"#utility.yul\":3978:3979   */\n      0x00\n        /* \"#utility.yul\":3975:3976   */\n      dup1\n        /* \"#utility.yul\":3960:3983   */\n      returndatacopy\n        /* \"#utility.yul\":4003:4037   */\n      tag_113\n        /* \"#utility.yul\":4034:4035   */\n      0x00\n        /* \"#utility.yul\":4028:4036   */\n      mload\n        /* \"#utility.yul\":4003:4037   */\n      tag_62\n      jump\t// in\n    tag_113:\n        /* \"#utility.yul\":3996:4037   */\n      swap1\n      pop\n        /* \"#utility.yul\":3919:4047   */\n    tag_112:\n        /* \"#utility.yul\":3870:4053   */\n      swap1\n      jump\t// out\n        /* \"#utility.yul\":4059:4161   */\n    tag_63:\n        /* \"#utility.yul\":4100:4106   */\n      0x00\n        /* \"#utility.yul\":4151:4153   */\n      0x1f\n        /* \"#utility.yul\":4147:4154   */\n      not\n        /* \"#utility.yul\":4142:4144   */\n      0x1f\n        /* \"#utility.yul\":4135:4140   */\n      dup4\n        /* \"#utility.yul\":4131:4145   */\n      add\n        /* \"#utility.yul\":4127:4155   */\n      and\n        /* \"#utility.yul\":4117:4155   */\n      swap1\n      pop\n        /* \"#utility.yul\":4059:4161   */\n      swap2\n      swap1\n      pop\n      jump\t// out\n        /* \"#utility.yul\":4167:4347   */\n    tag_64:\n        /* \"#utility.yul\":4215:4292   */\n      0x4e487b7100000000000000000000000000000000000000000000000000000000\n        /* \"#utility.yul\":4212:4213   */\n      0x00\n        /* \"#utility.yul\":4205:4293   */\n      mstore\n        /* \"#utility.yul\":4312:4316   */\n      0x41\n        /* \"#utility.yul\":4309:4310   */\n      0x04\n        /* \"#utility.yul\":4302:4317   */\n      mstore\n        /* \"#utility.yul\":4336:4340   */\n      0x24\n        /* \"#utility.yul\":4333:4334   */\n      0x00\n        /* \"#utility.yul\":4326:4341   */\n      revert\n        /* \"#utility.yul\":4353:4634   */\n    tag_65:\n        /* \"#utility.yul\":4436:4463   */\n      tag_117\n        /* \"#utility.yul\":4458:4462   */\n      dup3\n        /* \"#utility.yul\":4436:4463   */\n      tag_63\n      jump\t// in\n    tag_117:\n        /* \"#utility.yul\":4428:4434   */\n      dup2\n        /* \"#utility.yul\":4424:4464   */\n      add\n        /* \"#utility.yul\":4566:4572   */\n      dup2\n        /* \"#utility.yul\":4554:4564   */\n      dup2\n        /* \"#utility.yul\":4551:4573   */\n      lt\n        /* \"#utility.yul\":4530:4548   */\n      0xffffffffffffffff\n        /* \"#utility.yul\":4518:4528   */\n      dup3\n        /* \"#utility.yul\":4515:4549   */\n      gt\n        /* \"#utility.yul\":4512:4574   */\n      or\n        /* \"#utility.yul\":4509:4597   */\n      iszero\n      tag_118\n      jumpi\n        /* \"#utility.yul\":4577:4595   */\n      tag_119\n      tag_64\n      jump\t// in\n    tag_119:\n        /* \"#utility.yul\":4509:4597   */\n    tag_118:\n        /* \"#utility.yul\":4617:4627   */\n      dup1\n        /* \"#utility.yul\":4613:4615   */\n      0x40\n        /* \"#utility.yul\":4606:4628   */\n      mstore\n        /* \"#utility.yul\":4396:4634   */\n      pop\n        /* \"#utility.yul\":4353:4634   */\n      pop\n      pop\n      jump\t// out\n        /* \"#utility.yul\":4640:5351   */\n    tag_36:\n        /* \"#utility.yul\":4679:4682   */\n      0x00\n        /* \"#utility.yul\":4717:4721   */\n      0x44\n        /* \"#utility.yul\":4699:4715   */\n      returndatasize\n        /* \"#utility.yul\":4696:4722   */\n      lt\n        /* \"#utility.yul\":4725:4730   */\n      tag_120\n        /* \"#utility.yul\":4693:4732   */\n      jumpi\n        /* \"#utility.yul\":4754:4774   */\n      tag_122\n      tag_49\n      jump\t// in\n    tag_122:\n        /* \"#utility.yul\":4829:4830   */\n      0x04\n        /* \"#utility.yul\":4811:4827   */\n      returndatasize\n        /* \"#utility.yul\":4807:4831   */\n      sub\n        /* \"#utility.yul\":4804:4805   */\n      0x04\n        /* \"#utility.yul\":4798:4802   */\n      dup3\n        /* \"#utility.yul\":4783:4832   */\n      returndatacopy\n        /* \"#utility.yul\":4862:4866   */\n      dup1\n        /* \"#utility.yul\":4856:4867   */\n      mload\n        /* \"#utility.yul\":4961:4977   */\n      returndatasize\n        /* \"#utility.yul\":4954:4958   */\n      0x24\n        /* \"#utility.yul\":4946:4952   */\n      dup3\n        /* \"#utility.yul\":4942:4959   */\n      add\n        /* \"#utility.yul\":4939:4978   */\n      gt\n        /* \"#utility.yul\":4906:4924   */\n      0xffffffffffffffff\n        /* \"#utility.yul\":4898:4904   */\n      dup3\n        /* \"#utility.yul\":4895:4925   */\n      gt\n        /* \"#utility.yul\":4879:4992   */\n      or\n        /* \"#utility.yul\":4876:5022   */\n      iszero\n      tag_123\n      jumpi\n        /* \"#utility.yul\":5007:5012   */\n      pop\n      pop\n      jump(tag_120)\n        /* \"#utility.yul\":4876:5022   */\n    tag_123:\n        /* \"#utility.yul\":5053:5059   */\n      dup1\n        /* \"#utility.yul\":5047:5051   */\n      dup3\n        /* \"#utility.yul\":5043:5060   */\n      add\n        /* \"#utility.yul\":5089:5092   */\n      dup1\n        /* \"#utility.yul\":5083:5093   */\n      mload\n        /* \"#utility.yul\":5116:5134   */\n      0xffffffffffffffff\n        /* \"#utility.yul\":5108:5114   */\n      dup2\n        /* \"#utility.yul\":5105:5135   */\n      gt\n        /* \"#utility.yul\":5102:5145   */\n      iszero\n      tag_124\n      jumpi\n        /* \"#utility.yul\":5138:5143   */\n      pop\n      pop\n      pop\n      pop\n      jump(tag_120)\n        /* \"#utility.yul\":5102:5145   */\n    tag_124:\n        /* \"#utility.yul\":5186:5192   */\n      dup1\n        /* \"#utility.yul\":5179:5183   */\n      0x20\n        /* \"#utility.yul\":5174:5177   */\n      dup4\n        /* \"#utility.yul\":5170:5184   */\n      add\n        /* \"#utility.yul\":5166:5193   */\n      add\n        /* \"#utility.yul\":5245:5246   */\n      0x04\n        /* \"#utility.yul\":5227:5243   */\n      returndatasize\n        /* \"#utility.yul\":5223:5247   */\n      sub\n        /* \"#utility.yul\":5217:5221   */\n      dup6\n        /* \"#utility.yul\":5213:5248   */\n      add\n        /* \"#utility.yul\":5208:5211   */\n      dup2\n        /* \"#utility.yul\":5205:5249   */\n      gt\n        /* \"#utility.yul\":5202:5259   */\n      iszero\n      tag_125\n      jumpi\n        /* \"#utility.yul\":5252:5257   */\n      pop\n      pop\n      pop\n      pop\n      pop\n      jump(tag_120)\n        /* \"#utility.yul\":5202:5259   */\n    tag_125:\n        /* \"#utility.yul\":5269:5326   */\n      tag_126\n        /* \"#utility.yul\":5317:5323   */\n      dup3\n        /* \"#utility.yul\":5311:5315   */\n      0x20\n        /* \"#utility.yul\":5307:5324   */\n      add\n        /* \"#utility.yul\":5299:5305   */\n      dup6\n        /* \"#utility.yul\":5295:5325   */\n      add\n        /* \"#utility.yul\":5289:5293   */\n      dup7\n        /* \"#utility.yul\":5269:5326   */\n      tag_65\n      jump\t// in\n    tag_126:\n        /* \"#utility.yul\":5342:5345   */\n      dup3\n        /* \"#utility.yul\":5335:5345   */\n      swap6\n      pop\n        /* \"#utility.yul\":4683:5351   */\n      pop\n      pop\n      pop\n      pop\n      pop\n        /* \"#utility.yul\":4640:5351   */\n    tag_120:\n      swap1\n      jump\t// out\n        /* \"#utility.yul\":5357:5456   */\n    tag_66:\n        /* \"#utility.yul\":5409:5415   */\n      0x00\n        /* \"#utility.yul\":5443:5448   */\n      dup2\n        /* \"#utility.yul\":5437:5449   */\n      mload\n        /* \"#utility.yul\":5427:5449   */\n      swap1\n      pop\n        /* \"#utility.yul\":5357:5456   */\n      swap2\n      swap1\n      pop\n      jump\t// out\n        /* \"#utility.yul\":5462:5601   */\n    tag_67:\n        /* \"#utility.yul\":5551:5557   */\n      dup3\n        /* \"#utility.yul\":5546:5549   */\n      dup2\n        /* \"#utility.yul\":5541:5544   */\n      dup4\n        /* \"#utility.yul\":5535:5558   */\n      mcopy\n        /* \"#utility.yul\":5592:5593   */\n      0x00\n        /* \"#utility.yul\":5583:5589   */\n      dup4\n        /* \"#utility.yul\":5578:5581   */\n      dup4\n        /* \"#utility.yul\":5574:5590   */\n      add\n        /* \"#utility.yul\":5567:5594   */\n      mstore\n        /* \"#utility.yul\":5462:5601   */\n      pop\n      pop\n      pop\n      jump\t// out\n        /* \"#utility.yul\":5607:5984   */\n    tag_68:\n        /* \"#utility.yul\":5695:5698   */\n      0x00\n        /* \"#utility.yul\":5723:5762   */\n      tag_130\n        /* \"#utility.yul\":5756:5761   */\n      dup3\n        /* \"#utility.yul\":5723:5762   */\n      tag_66\n      jump\t// in\n    tag_130:\n        /* \"#utility.yul\":5778:5849   */\n      tag_131\n        /* \"#utility.yul\":5842:5848   */\n      dup2\n        /* \"#utility.yul\":5837:5840   */\n      dup6\n        /* \"#utility.yul\":5778:5849   */\n      tag_58\n      jump\t// in\n    tag_131:\n        /* \"#utility.yul\":5771:5849   */\n      swap4\n      pop\n        /* \"#utility.yul\":5858:5923   */\n      tag_132\n        /* \"#utility.yul\":5916:5922   */\n      dup2\n        /* \"#utility.yul\":5911:5914   */\n      dup6\n        /* \"#utility.yul\":5904:5908   */\n      0x20\n        /* \"#utility.yul\":5897:5902   */\n      dup7\n        /* \"#utility.yul\":5893:5909   */\n      add\n        /* \"#utility.yul\":5858:5923   */\n      tag_67\n      jump\t// in\n    tag_132:\n        /* \"#utility.yul\":5948:5977   */\n      tag_133\n        /* \"#utility.yul\":5970:5976   */\n      dup2\n        /* \"#utility.yul\":5948:5977   */\n      tag_63\n      jump\t// in\n    tag_133:\n        /* \"#utility.yul\":5943:5946   */\n      dup5\n        /* \"#utility.yul\":5939:5978   */\n      add\n        /* \"#utility.yul\":5932:5978   */\n      swap2\n      pop\n        /* \"#utility.yul\":5699:5984   */\n      pop\n        /* \"#utility.yul\":5607:5984   */\n      swap3\n      swap2\n      pop\n      pop\n      jump\t// out\n        /* \"#utility.yul\":5990:6303   */\n    tag_39:\n        /* \"#utility.yul\":6103:6107   */\n      0x00\n        /* \"#utility.yul\":6141:6143   */\n      0x20\n        /* \"#utility.yul\":6130:6139   */\n      dup3\n        /* \"#utility.yul\":6126:6144   */\n      add\n        /* \"#utility.yul\":6118:6144   */\n      swap1\n      pop\n        /* \"#utility.yul\":6190:6199   */\n      dup2\n        /* \"#utility.yul\":6184:6188   */\n      dup2\n        /* \"#utility.yul\":6180:6200   */\n      sub\n        /* \"#utility.yul\":6176:6177   */\n      0x00\n        /* \"#utility.yul\":6165:6174   */\n      dup4\n        /* \"#utility.yul\":6161:6178   */\n      add\n        /* \"#utility.yul\":6154:6201   */\n      mstore\n        /* \"#utility.yul\":6218:6296   */\n      tag_135\n        /* \"#utility.yul\":6291:6295   */\n      dup2\n        /* \"#utility.yul\":6282:6288   */\n      dup5\n        /* \"#utility.yul\":6218:6296   */\n      tag_68\n      jump\t// in\n    tag_135:\n        /* \"#utility.yul\":6210:6296   */\n      swap1\n      pop\n        /* \"#utility.yul\":5990:6303   */\n      swap3\n      swap2\n      pop\n      pop\n      jump\t// out\n        /* \"#utility.yul\":6309:6509   */\n    tag_41:\n        /* \"#utility.yul\":6345:6352   */\n      0x00\n        /* \"#utility.yul\":6354:6358   */\n      dup1\n        /* \"#utility.yul\":6393:6397   */\n      0x23\n        /* \"#utility.yul\":6375:6391   */\n      returndatasize\n        /* \"#utility.yul\":6372:6398   */\n      gt\n        /* \"#utility.yul\":6369:6503   */\n      iszero\n      tag_137\n      jumpi\n        /* \"#utility.yul\":6434:6438   */\n      0x20\n        /* \"#utility.yul\":6431:6432   */\n      0x04\n        /* \"#utility.yul\":6428:6429   */\n      0x00\n        /* \"#utility.yul\":6413:6439   */\n      returndatacopy\n        /* \"#utility.yul\":6463:6464   */\n      0x01\n        /* \"#utility.yul\":6452:6464   */\n      swap2\n      pop\n        /* \"#utility.yul\":6491:6492   */\n      0x00\n        /* \"#utility.yul\":6485:6493   */\n      mload\n        /* \"#utility.yul\":6477:6493   */\n      swap1\n      pop\n        /* \"#utility.yul\":6369:6503   */\n    tag_137:\n        /* \"#utility.yul\":6309:6509   */\n      swap1\n      swap2\n      jump\t// out\n        /* \"#utility.yul\":6515:6613   */\n    tag_69:\n        /* \"#utility.yul\":6566:6572   */\n      0x00\n        /* \"#utility.yul\":6600:6605   */\n      dup2\n        /* \"#utility.yul\":6594:6606   */\n      mload\n        /* \"#utility.yul\":6584:6606   */\n      swap1\n      pop\n        /* \"#utility.yul\":6515:6613   */\n      swap2\n      swap1\n      pop\n      jump\t// out\n        /* \"#utility.yul\":6619:6787   */\n    tag_70:\n        /* \"#utility.yul\":6702:6713   */\n      0x00\n        /* \"#utility.yul\":6736:6742   */\n      dup3\n        /* \"#utility.yul\":6731:6734   */\n      dup3\n        /* \"#utility.yul\":6724:6743   */\n      mstore\n        /* \"#utility.yul\":6776:6780   */\n      0x20\n        /* \"#utility.yul\":6771:6774   */\n      dup3\n        /* \"#utility.yul\":6767:6781   */\n      add\n        /* \"#utility.yul\":6752:6781   */\n      swap1\n      pop\n        /* \"#utility.yul\":6619:6787   */\n      swap3\n      swap2\n      pop\n      pop\n      jump\t// out\n        /* \"#utility.yul\":6793:7166   */\n    tag_71:\n        /* \"#utility.yul\":6879:6882   */\n      0x00\n        /* \"#utility.yul\":6907:6945   */\n      tag_141\n        /* \"#utility.yul\":6939:6944   */\n      dup3\n        /* \"#utility.yul\":6907:6945   */\n      tag_69\n      jump\t// in\n    tag_141:\n        /* \"#utility.yul\":6961:7031   */\n      tag_142\n        /* \"#utility.yul\":7024:7030   */\n      dup2\n        /* \"#utility.yul\":7019:7022   */\n      dup6\n        /* \"#utility.yul\":6961:7031   */\n      tag_70\n      jump\t// in\n    tag_142:\n        /* \"#utility.yul\":6954:7031   */\n      swap4\n      pop\n        /* \"#utility.yul\":7040:7105   */\n      tag_143\n        /* \"#utility.yul\":7098:7104   */\n      dup2\n        /* \"#utility.yul\":7093:7096   */\n      dup6\n        /* \"#utility.yul\":7086:7090   */\n      0x20\n        /* \"#utility.yul\":7079:7084   */\n      dup7\n        /* \"#utility.yul\":7075:7091   */\n      add\n        /* \"#utility.yul\":7040:7105   */\n      tag_67\n      jump\t// in\n    tag_143:\n        /* \"#utility.yul\":7130:7159   */\n      tag_144\n        /* \"#utility.yul\":7152:7158   */\n      dup2\n        /* \"#utility.yul\":7130:7159   */\n      tag_63\n      jump\t// in\n    tag_144:\n        /* \"#utility.yul\":7125:7128   */\n      dup5\n        /* \"#utility.yul\":7121:7160   */\n      add\n        /* \"#utility.yul\":7114:7160   */\n      swap2\n      pop\n        /* \"#utility.yul\":6883:7166   */\n      pop\n        /* \"#utility.yul\":6793:7166   */\n      swap3\n      swap2\n      pop\n      pop\n      jump\t// out\n        /* \"#utility.yul\":7172:7481   */\n    tag_47:\n        /* \"#utility.yul\":7283:7287   */\n      0x00\n        /* \"#utility.yul\":7321:7323   */\n      0x20\n        /* \"#utility.yul\":7310:7319   */\n      dup3\n        /* \"#utility.yul\":7306:7324   */\n      add\n        /* \"#utility.yul\":7298:7324   */\n      swap1\n      pop\n        /* \"#utility.yul\":7370:7379   */\n      dup2\n        /* \"#utility.yul\":7364:7368   */\n      dup2\n        /* \"#utility.yul\":7360:7380   */\n      sub\n        /* \"#utility.yul\":7356:7357   */\n      0x00\n        /* \"#utility.yul\":7345:7354   */\n      dup4\n        /* \"#utility.yul\":7341:7358   */\n      add\n        /* \"#utility.yul\":7334:7381   */\n      mstore\n        /* \"#utility.yul\":7398:7474   */\n      tag_146\n        /* \"#utility.yul\":7469:7473   */\n      dup2\n        /* \"#utility.yul\":7460:7466   */\n      dup5\n        /* \"#utility.yul\":7398:7474   */\n      tag_71\n      jump\t// in\n    tag_146:\n        /* \"#utility.yul\":7390:7474   */\n      swap1\n      pop\n        /* \"#utility.yul\":7172:7481   */\n      swap3\n      swap2\n      pop\n      pop\n      jump\t// out\n\n    auxdata: 0xa264697066735822122019d188dd62f61344e539a933cc938e9a7111cea4a2fd48303b925711c76d8d8664736f6c634300081a0033\n}\n",
				"bytecode": {
					"linkReferences": {},
					"object": "6080604052348015600e575f80fd5b506106d78061001c5f395ff3fe608060405234801561000f575f80fd5b5060043610610034575f3560e01c80638475016b14610038578063ec58122714610068575b5f80fd5b610052600480360381019061004d9190610301565b610099565b60405161005f919061033b565b60405180910390f35b610082600480360381019061007d9190610301565b6100fd565b60405161009092919061036e565b60405180910390f35b5f600682106100dd576040517f08c379a00000000000000000000000000000000000000000000000000000000081526004016100d4906103ef565b60405180910390fd5b600482116100f4575f6100f3576100f261040d565b5b5b60059050919050565b5f803073ffffffffffffffffffffffffffffffffffffffff16638475016b846040518263ffffffff1660e01b8152600401610138919061033b565b602060405180830381865afa92505050801561017257506040513d601f19601f8201168201806040525081019061016f919061044e565b60015b6102b35761017e610485565b806308c379a0036101e05750610192610512565b8061019d5750610240565b7f316d4704ca18e103252abce7d81e53dfdec9859f9e0a639ccd9c332effb08d6e816040516101cc91906105f1565b60405180910390a15f8092509250506102bc565b634e487b7103610240576101f2610611565b906101fd5750610240565b7ff0a3d11b86dc0859fa4e51d2dea2035f3649d433b5b4ec57925b58c9a5fac0c18160405161022c919061033b565b60405180910390a15f8092509250506102bc565b3d805f811461026a576040519150601f19603f3d011682016040523d82523d5f602084013e61026f565b606091505b507f11630be05199a3e4c6abf1bfe27413bcfe3cd3058442e7143637d96af091baa48160405161029f9190610681565b60405180910390a15f8092509250506102bc565b80600192509250505b915091565b5f604051905090565b5f80fd5b5f819050919050565b6102e0816102ce565b81146102ea575f80fd5b50565b5f813590506102fb816102d7565b92915050565b5f60208284031215610316576103156102ca565b5b5f610323848285016102ed565b91505092915050565b610335816102ce565b82525050565b5f60208201905061034e5f83018461032c565b92915050565b5f8115159050919050565b61036881610354565b82525050565b5f6040820190506103815f83018561032c565b61038e602083018461035f565b9392505050565b5f82825260208201905092915050565b7f526576657274203a206e756d2073686f756c64206265203500000000000000005f82015250565b5f6103d9601883610395565b91506103e4826103a5565b602082019050919050565b5f6020820190508181035f830152610406816103cd565b9050919050565b7f4e487b71000000000000000000000000000000000000000000000000000000005f52600160045260245ffd5b5f81519050610448816102d7565b92915050565b5f60208284031215610463576104626102ca565b5b5f6104708482850161043a565b91505092915050565b5f8160e01c9050919050565b5f60033d11156104a15760045f803e61049e5f51610479565b90505b90565b5f601f19601f8301169050919050565b7f4e487b71000000000000000000000000000000000000000000000000000000005f52604160045260245ffd5b6104ea826104a4565b810181811067ffffffffffffffff82111715610509576105086104b4565b5b80604052505050565b5f60443d1061059e576105236102c1565b60043d036004823e80513d602482011167ffffffffffffffff8211171561054b57505061059e565b808201805167ffffffffffffffff811115610569575050505061059e565b80602083010160043d03850181111561058657505050505061059e565b610595826020018501866104e1565b82955050505050505b90565b5f81519050919050565b8281835e5f83830152505050565b5f6105c3826105a1565b6105cd8185610395565b93506105dd8185602086016105ab565b6105e6816104a4565b840191505092915050565b5f6020820190508181035f83015261060981846105b9565b905092915050565b5f8060233d111561062b57602060045f3e600191505f5190505b9091565b5f81519050919050565b5f82825260208201905092915050565b5f6106538261062f565b61065d8185610639565b935061066d8185602086016105ab565b610676816104a4565b840191505092915050565b5f6020820190508181035f8301526106998184610649565b90509291505056fea264697066735822122019d188dd62f61344e539a933cc938e9a7111cea4a2fd48303b925711c76d8d8664736f6c634300081a0033",
					"opcodes": "PUSH1 0x80 PUSH1 0x40 MSTORE CALLVALUE DUP1 ISZERO PUSH1 0xE JUMPI PUSH0 DUP1 REVERT JUMPDEST POP PUSH2 0x6D7 DUP1 PUSH2 0x1C PUSH0 CODECOPY PUSH0 RETURN INVALID PUSH1 0x80 PUSH1 0x40 MSTORE CALLVALUE DUP1 ISZERO PUSH2 0xF JUMPI PUSH0 DUP1 REVERT JUMPDEST POP PUSH1 0x4 CALLDATASIZE LT PUSH2 0x34 JUMPI PUSH0 CALLDATALOAD PUSH1 0xE0 SHR DUP1 PUSH4 0x8475016B EQ PUSH2 0x38 JUMPI DUP1 PUSH4 0xEC581227 EQ PUSH2 0x68 JUMPI JUMPDEST PUSH0 DUP1 REVERT JUMPDEST PUSH2 0x52 PUSH1 0x4 DUP1 CALLDATASIZE SUB DUP2 ADD SWAP1 PUSH2 0x4D SWAP2 SWAP1 PUSH2 0x301 JUMP JUMPDEST PUSH2 0x99 JUMP JUMPDEST PUSH1 0x40 MLOAD PUSH2 0x5F SWAP2 SWAP1 PUSH2 0x33B JUMP JUMPDEST PUSH1 0x40 MLOAD DUP1 SWAP2 SUB SWAP1 RETURN JUMPDEST PUSH2 0x82 PUSH1 0x4 DUP1 CALLDATASIZE SUB DUP2 ADD SWAP1 PUSH2 0x7D SWAP2 SWAP1 PUSH2 0x301 JUMP JUMPDEST PUSH2 0xFD JUMP JUMPDEST PUSH1 0x40 MLOAD PUSH2 0x90 SWAP3 SWAP2 SWAP1 PUSH2 0x36E JUMP JUMPDEST PUSH1 0x40 MLOAD DUP1 SWAP2 SUB SWAP1 RETURN JUMPDEST PUSH0 PUSH1 0x6 DUP3 LT PUSH2 0xDD JUMPI PUSH1 0x40 MLOAD PUSH32 0x8C379A000000000000000000000000000000000000000000000000000000000 DUP2 MSTORE PUSH1 0x4 ADD PUSH2 0xD4 SWAP1 PUSH2 0x3EF JUMP JUMPDEST PUSH1 0x40 MLOAD DUP1 SWAP2 SUB SWAP1 REVERT JUMPDEST PUSH1 0x4 DUP3 GT PUSH2 0xF4 JUMPI PUSH0 PUSH2 0xF3 JUMPI PUSH2 0xF2 PUSH2 0x40D JUMP JUMPDEST JUMPDEST JUMPDEST PUSH1 0x5 SWAP1 POP SWAP2 SWAP1 POP JUMP JUMPDEST PUSH0 DUP1 ADDRESS PUSH20 0xFFFFFFFFFFFFFFFFFFFFFFFFFFFFFFFFFFFFFFFF AND PUSH4 0x8475016B DUP5 PUSH1 0x40 MLOAD DUP3 PUSH4 0xFFFFFFFF AND PUSH1 0xE0 SHL DUP2 MSTORE PUSH1 0x4 ADD PUSH2 0x138 SWAP2 SWAP1 PUSH2 0x33B JUMP JUMPDEST PUSH1 0x20 PUSH1 0x40 MLOAD DUP1 DUP4 SUB DUP2 DUP7 GAS STATICCALL SWAP3 POP POP POP DUP1 ISZERO PUSH2 0x172 JUMPI POP PUSH1 0x40 MLOAD RETURNDATASIZE PUSH1 0x1F NOT PUSH1 0x1F DUP3 ADD AND DUP3 ADD DUP1 PUSH1 0x40 MSTORE POP DUP2 ADD SWAP1 PUSH2 0x16F SWAP2 SWAP1 PUSH2 0x44E JUMP JUMPDEST PUSH1 0x1 JUMPDEST PUSH2 0x2B3 JUMPI PUSH2 0x17E PUSH2 0x485 JUMP JUMPDEST DUP1 PUSH4 0x8C379A0 SUB PUSH2 0x1E0 JUMPI POP PUSH2 0x192 PUSH2 0x512 JUMP JUMPDEST DUP1 PUSH2 0x19D JUMPI POP PUSH2 0x240 JUMP JUMPDEST PUSH32 0x316D4704CA18E103252ABCE7D81E53DFDEC9859F9E0A639CCD9C332EFFB08D6E DUP2 PUSH1 0x40 MLOAD PUSH2 0x1CC SWAP2 SWAP1 PUSH2 0x5F1 JUMP JUMPDEST PUSH1 0x40 MLOAD DUP1 SWAP2 SUB SWAP1 LOG1 PUSH0 DUP1 SWAP3 POP SWAP3 POP POP PUSH2 0x2BC JUMP JUMPDEST PUSH4 0x4E487B71 SUB PUSH2 0x240 JUMPI PUSH2 0x1F2 PUSH2 0x611 JUMP JUMPDEST SWAP1 PUSH2 0x1FD JUMPI POP PUSH2 0x240 JUMP JUMPDEST PUSH32 0xF0A3D11B86DC0859FA4E51D2DEA2035F3649D433B5B4EC57925B58C9A5FAC0C1 DUP2 PUSH1 0x40 MLOAD PUSH2 0x22C SWAP2 SWAP1 PUSH2 0x33B JUMP JUMPDEST PUSH1 0x40 MLOAD DUP1 SWAP2 SUB SWAP1 LOG1 PUSH0 DUP1 SWAP3 POP SWAP3 POP POP PUSH2 0x2BC JUMP JUMPDEST RETURNDATASIZE DUP1 PUSH0 DUP2 EQ PUSH2 0x26A JUMPI PUSH1 0x40 MLOAD SWAP2 POP PUSH1 0x1F NOT PUSH1 0x3F RETURNDATASIZE ADD AND DUP3 ADD PUSH1 0x40 MSTORE RETURNDATASIZE DUP3 MSTORE RETURNDATASIZE PUSH0 PUSH1 0x20 DUP5 ADD RETURNDATACOPY PUSH2 0x26F JUMP JUMPDEST PUSH1 0x60 SWAP2 POP JUMPDEST POP PUSH32 0x11630BE05199A3E4C6ABF1BFE27413BCFE3CD3058442E7143637D96AF091BAA4 DUP2 PUSH1 0x40 MLOAD PUSH2 0x29F SWAP2 SWAP1 PUSH2 0x681 JUMP JUMPDEST PUSH1 0x40 MLOAD DUP1 SWAP2 SUB SWAP1 LOG1 PUSH0 DUP1 SWAP3 POP SWAP3 POP POP PUSH2 0x2BC JUMP JUMPDEST DUP1 PUSH1 0x1 SWAP3 POP SWAP3 POP POP JUMPDEST SWAP2 POP SWAP2 JUMP JUMPDEST PUSH0 PUSH1 0x40 MLOAD SWAP1 POP SWAP1 JUMP JUMPDEST PUSH0 DUP1 REVERT JUMPDEST PUSH0 DUP2 SWAP1 POP SWAP2 SWAP1 POP JUMP JUMPDEST PUSH2 0x2E0 DUP2 PUSH2 0x2CE JUMP JUMPDEST DUP2 EQ PUSH2 0x2EA JUMPI PUSH0 DUP1 REVERT JUMPDEST POP JUMP JUMPDEST PUSH0 DUP2 CALLDATALOAD SWAP1 POP PUSH2 0x2FB DUP2 PUSH2 0x2D7 JUMP JUMPDEST SWAP3 SWAP2 POP POP JUMP JUMPDEST PUSH0 PUSH1 0x20 DUP3 DUP5 SUB SLT ISZERO PUSH2 0x316 JUMPI PUSH2 0x315 PUSH2 0x2CA JUMP JUMPDEST JUMPDEST PUSH0 PUSH2 0x323 DUP5 DUP3 DUP6 ADD PUSH2 0x2ED JUMP JUMPDEST SWAP2 POP POP SWAP3 SWAP2 POP POP JUMP JUMPDEST PUSH2 0x335 DUP2 PUSH2 0x2CE JUMP JUMPDEST DUP3 MSTORE POP POP JUMP JUMPDEST PUSH0 PUSH1 0x20 DUP3 ADD SWAP1 POP PUSH2 0x34E PUSH0 DUP4 ADD DUP5 PUSH2 0x32C JUMP JUMPDEST SWAP3 SWAP2 POP POP JUMP JUMPDEST PUSH0 DUP2 ISZERO ISZERO SWAP1 POP SWAP2 SWAP1 POP JUMP JUMPDEST PUSH2 0x368 DUP2 PUSH2 0x354 JUMP JUMPDEST DUP3 MSTORE POP POP JUMP JUMPDEST PUSH0 PUSH1 0x40 DUP3 ADD SWAP1 POP PUSH2 0x381 PUSH0 DUP4 ADD DUP6 PUSH2 0x32C JUMP JUMPDEST PUSH2 0x38E PUSH1 0x20 DUP4 ADD DUP5 PUSH2 0x35F JUMP JUMPDEST SWAP4 SWAP3 POP POP POP JUMP JUMPDEST PUSH0 DUP3 DUP3 MSTORE PUSH1 0x20 DUP3 ADD SWAP1 POP SWAP3 SWAP2 POP POP JUMP JUMPDEST PUSH32 0x526576657274203A206E756D2073686F756C6420626520350000000000000000 PUSH0 DUP3 ADD MSTORE POP JUMP JUMPDEST PUSH0 PUSH2 0x3D9 PUSH1 0x18 DUP4 PUSH2 0x395 JUMP JUMPDEST SWAP2 POP PUSH2 0x3E4 DUP3 PUSH2 0x3A5 JUMP JUMPDEST PUSH1 0x20 DUP3 ADD SWAP1 POP SWAP2 SWAP1 POP JUMP JUMPDEST PUSH0 PUSH1 0x20 DUP3 ADD SWAP1 POP DUP2 DUP2 SUB PUSH0 DUP4 ADD MSTORE PUSH2 0x406 DUP2 PUSH2 0x3CD JUMP JUMPDEST SWAP1 POP SWAP2 SWAP1 POP JUMP JUMPDEST PUSH32 0x4E487B7100000000000000000000000000000000000000000000000000000000 PUSH0 MSTORE PUSH1 0x1 PUSH1 0x4 MSTORE PUSH1 0x24 PUSH0 REVERT JUMPDEST PUSH0 DUP2 MLOAD SWAP1 POP PUSH2 0x448 DUP2 PUSH2 0x2D7 JUMP JUMPDEST SWAP3 SWAP2 POP POP JUMP JUMPDEST PUSH0 PUSH1 0x20 DUP3 DUP5 SUB SLT ISZERO PUSH2 0x463 JUMPI PUSH2 0x462 PUSH2 0x2CA JUMP JUMPDEST JUMPDEST PUSH0 PUSH2 0x470 DUP5 DUP3 DUP6 ADD PUSH2 0x43A JUMP JUMPDEST SWAP2 POP POP SWAP3 SWAP2 POP POP JUMP JUMPDEST PUSH0 DUP2 PUSH1 0xE0 SHR SWAP1 POP SWAP2 SWAP1 POP JUMP JUMPDEST PUSH0 PUSH1 0x3 RETURNDATASIZE GT ISZERO PUSH2 0x4A1 JUMPI PUSH1 0x4 PUSH0 DUP1 RETURNDATACOPY PUSH2 0x49E PUSH0 MLOAD PUSH2 0x479 JUMP JUMPDEST SWAP1 POP JUMPDEST SWAP1 JUMP JUMPDEST PUSH0 PUSH1 0x1F NOT PUSH1 0x1F DUP4 ADD AND SWAP1 POP SWAP2 SWAP1 POP JUMP JUMPDEST PUSH32 0x4E487B7100000000000000000000000000000000000000000000000000000000 PUSH0 MSTORE PUSH1 0x41 PUSH1 0x4 MSTORE PUSH1 0x24 PUSH0 REVERT JUMPDEST PUSH2 0x4EA DUP3 PUSH2 0x4A4 JUMP JUMPDEST DUP2 ADD DUP2 DUP2 LT PUSH8 0xFFFFFFFFFFFFFFFF DUP3 GT OR ISZERO PUSH2 0x509 JUMPI PUSH2 0x508 PUSH2 0x4B4 JUMP JUMPDEST JUMPDEST DUP1 PUSH1 0x40 MSTORE POP POP POP JUMP JUMPDEST PUSH0 PUSH1 0x44 RETURNDATASIZE LT PUSH2 0x59E JUMPI PUSH2 0x523 PUSH2 0x2C1 JUMP JUMPDEST PUSH1 0x4 RETURNDATASIZE SUB PUSH1 0x4 DUP3 RETURNDATACOPY DUP1 MLOAD RETURNDATASIZE PUSH1 0x24 DUP3 ADD GT PUSH8 0xFFFFFFFFFFFFFFFF DUP3 GT OR ISZERO PUSH2 0x54B JUMPI POP POP PUSH2 0x59E JUMP JUMPDEST DUP1 DUP3 ADD DUP1 MLOAD PUSH8 0xFFFFFFFFFFFFFFFF DUP2 GT ISZERO PUSH2 0x569 JUMPI POP POP POP POP PUSH2 0x59E JUMP JUMPDEST DUP1 PUSH1 0x20 DUP4 ADD ADD PUSH1 0x4 RETURNDATASIZE SUB DUP6 ADD DUP2 GT ISZERO PUSH2 0x586 JUMPI POP POP POP POP POP PUSH2 0x59E JUMP JUMPDEST PUSH2 0x595 DUP3 PUSH1 0x20 ADD DUP6 ADD DUP7 PUSH2 0x4E1 JUMP JUMPDEST DUP3 SWAP6 POP POP POP POP POP POP JUMPDEST SWAP1 JUMP JUMPDEST PUSH0 DUP2 MLOAD SWAP1 POP SWAP2 SWAP1 POP JUMP JUMPDEST DUP3 DUP2 DUP4 MCOPY PUSH0 DUP4 DUP4 ADD MSTORE POP POP POP JUMP JUMPDEST PUSH0 PUSH2 0x5C3 DUP3 PUSH2 0x5A1 JUMP JUMPDEST PUSH2 0x5CD DUP2 DUP6 PUSH2 0x395 JUMP JUMPDEST SWAP4 POP PUSH2 0x5DD DUP2 DUP6 PUSH1 0x20 DUP7 ADD PUSH2 0x5AB JUMP JUMPDEST PUSH2 0x5E6 DUP2 PUSH2 0x4A4 JUMP JUMPDEST DUP5 ADD SWAP2 POP POP SWAP3 SWAP2 POP POP JUMP JUMPDEST PUSH0 PUSH1 0x20 DUP3 ADD SWAP1 POP DUP2 DUP2 SUB PUSH0 DUP4 ADD MSTORE PUSH2 0x609 DUP2 DUP5 PUSH2 0x5B9 JUMP JUMPDEST SWAP1 POP SWAP3 SWAP2 POP POP JUMP JUMPDEST PUSH0 DUP1 PUSH1 0x23 RETURNDATASIZE GT ISZERO PUSH2 0x62B JUMPI PUSH1 0x20 PUSH1 0x4 PUSH0 RETURNDATACOPY PUSH1 0x1 SWAP2 POP PUSH0 MLOAD SWAP1 POP JUMPDEST SWAP1 SWAP2 JUMP JUMPDEST PUSH0 DUP2 MLOAD SWAP1 POP SWAP2 SWAP1 POP JUMP JUMPDEST PUSH0 DUP3 DUP3 MSTORE PUSH1 0x20 DUP3 ADD SWAP1 POP SWAP3 SWAP2 POP POP JUMP JUMPDEST PUSH0 PUSH2 0x653 DUP3 PUSH2 0x62F JUMP JUMPDEST PUSH2 0x65D DUP2 DUP6 PUSH2 0x639 JUMP JUMPDEST SWAP4 POP PUSH2 0x66D DUP2 DUP6 PUSH1 0x20 DUP7 ADD PUSH2 0x5AB JUMP JUMPDEST PUSH2 0x676 DUP2 PUSH2 0x4A4 JUMP JUMPDEST DUP5 ADD SWAP2 POP POP SWAP3 SWAP2 POP POP JUMP JUMPDEST PUSH0 PUSH1 0x20 DUP3 ADD SWAP1 POP DUP2 DUP2 SUB PUSH0 DUP4 ADD MSTORE PUSH2 0x699 DUP2 DUP5 PUSH2 0x649 JUMP JUMPDEST SWAP1 POP SWAP3 SWAP2 POP POP JUMP INVALID LOG2 PUSH5 0x6970667358 0x22 SLT KECCAK256 NOT 0xD1 DUP9 0xDD PUSH3 0xF61344 0xE5 CODECOPY 0xA9 CALLER 0xCC SWAP4 DUP15 SWAP11 PUSH18 0x11CEA4A2FD48303B925711C76D8D8664736F PUSH13 0x634300081A0033000000000000 "
				},
				"gasEstimates": {
					"creation": {
						"codeDepositCost": "350200",
						"executionCost": "384",
						"totalCost": "350584"
					},
					"external": {
						"output5(uint256)": "infinite",
						"output5withTryCatch(uint256)": "infinite"
					}
				},
				"methodIdentifiers": {
					"output5(uint256)": "8475016b",
					"output5withTryCatch(uint256)": "ec581227"
				}
			},
			"storageLayout": {
				"storage": [],
				"types": null
			},
			"userdoc": {
				"kind": "user",
				"methods": {},
				"version": 1
			}
		}
	}
}