{
	"week6_practice/abstract.sol": {
		"Tablet": {
			"abi": [
				{
					"inputs": [],
					"name": "Errorr",
					"outputs": [
						{
							"internalType": "bool",
							"name": "",
							"type": "bool"
						}
					],
					"stateMutability": "pure",
					"type": "function"
				},
				{
					"inputs": [],
					"name": "Version",
					"outputs": [
						{
							"internalType": "uint256",
							"name": "",
							"type": "uint256"
						}
					],
					"stateMutability": "pure",
					"type": "function"
				},
				{
					"inputs": [],
					"name": "getN",
					"outputs": [
						{
							"internalType": "uint256",
							"name": "",
							"type": "uint256"
						},
						{
							"internalType": "bool",
							"name": "",
							"type": "bool"
						}
					],
					"stateMutability": "pure",
					"type": "function"
				}
			],
			"devdoc": {
				"kind": "dev",
				"methods": {},
				"version": 1
			},
			"evm": {
				"assembly": "    /* \"week6_practice/abstract.sol\":1045:1358  contract Tablet is Device{... */\n  mstore(0x40, 0x80)\n  callvalue\n  dup1\n  iszero\n  tag_1\n  jumpi\n  0x00\n  dup1\n  revert\ntag_1:\n  pop\n  dataSize(sub_0)\n  dup1\n  dataOffset(sub_0)\n  0x00\n  codecopy\n  0x00\n  return\nstop\n\nsub_0: assembly {\n        /* \"week6_practice/abstract.sol\":1045:1358  contract Tablet is Device{... */\n      mstore(0x40, 0x80)\n      callvalue\n      dup1\n      iszero\n      tag_1\n      jumpi\n      0x00\n      dup1\n      revert\n    tag_1:\n      pop\n      jumpi(tag_2, lt(calldatasize, 0x04))\n      shr(0xe0, calldataload(0x00))\n      dup1\n      0x25b7182d\n      eq\n      tag_3\n      jumpi\n      dup1\n      0x3e955225\n      eq\n      tag_4\n      jumpi\n      dup1\n      0xbb62860d\n      eq\n      tag_5\n      jumpi\n    tag_2:\n      0x00\n      dup1\n      revert\n        /* \"week6_practice/abstract.sol\":1165:1247  function Errorr() public pure override returns(bool){... */\n    tag_3:\n      tag_6\n      tag_7\n      jump\t// in\n    tag_6:\n      mload(0x40)\n      tag_8\n      swap2\n      swap1\n      tag_9\n      jump\t// in\n    tag_8:\n      mload(0x40)\n      dup1\n      swap2\n      sub\n      swap1\n      return\n        /* \"week6_practice/abstract.sol\":1253:1355  function getN() public pure override returns(uint, bool){... */\n    tag_4:\n      tag_10\n      tag_11\n      jump\t// in\n    tag_10:\n      mload(0x40)\n      tag_12\n      swap3\n      swap2\n      swap1\n      tag_13\n      jump\t// in\n    tag_12:\n      mload(0x40)\n      dup1\n      swap2\n      sub\n      swap1\n      return\n        /* \"week6_practice/abstract.sol\":1077:1159  function Version() public pure override returns(uint){... */\n    tag_5:\n      tag_14\n      tag_15\n      jump\t// in\n    tag_14:\n      mload(0x40)\n      tag_16\n      swap2\n      swap1\n      tag_17\n      jump\t// in\n    tag_16:\n      mload(0x40)\n      dup1\n      swap2\n      sub\n      swap1\n      return\n        /* \"week6_practice/abstract.sol\":1165:1247  function Errorr() public pure override returns(bool){... */\n    tag_7:\n        /* \"week6_practice/abstract.sol\":1212:1216  bool */\n      0x00\n        /* \"week6_practice/abstract.sol\":1235:1239  true */\n      0x01\n        /* \"week6_practice/abstract.sol\":1228:1239  return true */\n      swap1\n      pop\n        /* \"week6_practice/abstract.sol\":1165:1247  function Errorr() public pure override returns(bool){... */\n      swap1\n      jump\t// out\n        /* \"week6_practice/abstract.sol\":1253:1355  function getN() public pure override returns(uint, bool){... */\n    tag_11:\n        /* \"week6_practice/abstract.sol\":1298:1302  uint */\n      0x00\n        /* \"week6_practice/abstract.sol\":1304:1308  bool */\n      dup1\n        /* \"week6_practice/abstract.sol\":1327:1336  Version() */\n      tag_20\n        /* \"week6_practice/abstract.sol\":1327:1334  Version */\n      tag_15\n        /* \"week6_practice/abstract.sol\":1327:1336  Version() */\n      jump\t// in\n    tag_20:\n        /* \"week6_practice/abstract.sol\":1338:1346  Errorr() */\n      tag_21\n        /* \"week6_practice/abstract.sol\":1338:1344  Errorr */\n      tag_7\n        /* \"week6_practice/abstract.sol\":1338:1346  Errorr() */\n      jump\t// in\n    tag_21:\n        /* \"week6_practice/abstract.sol\":1320:1347  return(Version(), Errorr()) */\n      swap2\n      pop\n      swap2\n      pop\n        /* \"week6_practice/abstract.sol\":1253:1355  function getN() public pure override returns(uint, bool){... */\n      swap1\n      swap2\n      jump\t// out\n        /* \"week6_practice/abstract.sol\":1077:1159  function Version() public pure override returns(uint){... */\n    tag_15:\n        /* \"week6_practice/abstract.sol\":1125:1129  uint */\n      0x00\n        /* \"week6_practice/abstract.sol\":1148:1151  200 */\n      0xc8\n        /* \"week6_practice/abstract.sol\":1141:1151  return 200 */\n      swap1\n      pop\n        /* \"week6_practice/abstract.sol\":1077:1159  function Version() public pure override returns(uint){... */\n      swap1\n      jump\t// out\n        /* \"#utility.yul\":7:97   */\n    tag_23:\n        /* \"#utility.yul\":41:48   */\n      0x00\n        /* \"#utility.yul\":84:89   */\n      dup2\n        /* \"#utility.yul\":77:90   */\n      iszero\n        /* \"#utility.yul\":70:91   */\n      iszero\n        /* \"#utility.yul\":59:91   */\n      swap1\n      pop\n        /* \"#utility.yul\":7:97   */\n      swap2\n      swap1\n      pop\n      jump\t// out\n        /* \"#utility.yul\":103:212   */\n    tag_24:\n        /* \"#utility.yul\":184:205   */\n      tag_30\n        /* \"#utility.yul\":199:204   */\n      dup2\n        /* \"#utility.yul\":184:205   */\n      tag_23\n      jump\t// in\n    tag_30:\n        /* \"#utility.yul\":179:182   */\n      dup3\n        /* \"#utility.yul\":172:206   */\n      mstore\n        /* \"#utility.yul\":103:212   */\n      pop\n      pop\n      jump\t// out\n        /* \"#utility.yul\":218:428   */\n    tag_9:\n        /* \"#utility.yul\":305:309   */\n      0x00\n        /* \"#utility.yul\":343:345   */\n      0x20\n        /* \"#utility.yul\":332:341   */\n      dup3\n        /* \"#utility.yul\":328:346   */\n      add\n        /* \"#utility.yul\":320:346   */\n      swap1\n      pop\n        /* \"#utility.yul\":356:421   */\n      tag_32\n        /* \"#utility.yul\":418:419   */\n      0x00\n        /* \"#utility.yul\":407:416   */\n      dup4\n        /* \"#utility.yul\":403:420   */\n      add\n        /* \"#utility.yul\":394:400   */\n      dup5\n        /* \"#utility.yul\":356:421   */\n      tag_24\n      jump\t// in\n    tag_32:\n        /* \"#utility.yul\":218:428   */\n      swap3\n      swap2\n      pop\n      pop\n      jump\t// out\n        /* \"#utility.yul\":434:511   */\n    tag_25:\n        /* \"#utility.yul\":471:478   */\n      0x00\n        /* \"#utility.yul\":500:505   */\n      dup2\n        /* \"#utility.yul\":489:505   */\n      swap1\n      pop\n        /* \"#utility.yul\":434:511   */\n      swap2\n      swap1\n      pop\n      jump\t// out\n        /* \"#utility.yul\":517:635   */\n    tag_26:\n        /* \"#utility.yul\":604:628   */\n      tag_35\n        /* \"#utility.yul\":622:627   */\n      dup2\n        /* \"#utility.yul\":604:628   */\n      tag_25\n      jump\t// in\n    tag_35:\n        /* \"#utility.yul\":599:602   */\n      dup3\n        /* \"#utility.yul\":592:629   */\n      mstore\n        /* \"#utility.yul\":517:635   */\n      pop\n      pop\n      jump\t// out\n        /* \"#utility.yul\":641:961   */\n    tag_13:\n        /* \"#utility.yul\":756:760   */\n      0x00\n        /* \"#utility.yul\":794:796   */\n      0x40\n        /* \"#utility.yul\":783:792   */\n      dup3\n        /* \"#utility.yul\":779:797   */\n      add\n        /* \"#utility.yul\":771:797   */\n      swap1\n      pop\n        /* \"#utility.yul\":807:878   */\n      tag_37\n        /* \"#utility.yul\":875:876   */\n      0x00\n        /* \"#utility.yul\":864:873   */\n      dup4\n        /* \"#utility.yul\":860:877   */\n      add\n        /* \"#utility.yul\":851:857   */\n      dup6\n        /* \"#utility.yul\":807:878   */\n      tag_26\n      jump\t// in\n    tag_37:\n        /* \"#utility.yul\":888:954   */\n      tag_38\n        /* \"#utility.yul\":950:952   */\n      0x20\n        /* \"#utility.yul\":939:948   */\n      dup4\n        /* \"#utility.yul\":935:953   */\n      add\n        /* \"#utility.yul\":926:932   */\n      dup5\n        /* \"#utility.yul\":888:954   */\n      tag_24\n      jump\t// in\n    tag_38:\n        /* \"#utility.yul\":641:961   */\n      swap4\n      swap3\n      pop\n      pop\n      pop\n      jump\t// out\n        /* \"#utility.yul\":967:1189   */\n    tag_17:\n        /* \"#utility.yul\":1060:1064   */\n      0x00\n        /* \"#utility.yul\":1098:1100   */\n      0x20\n        /* \"#utility.yul\":1087:1096   */\n      dup3\n        /* \"#utility.yul\":1083:1101   */\n      add\n        /* \"#utility.yul\":1075:1101   */\n      swap1\n      pop\n        /* \"#utility.yul\":1111:1182   */\n      tag_40\n        /* \"#utility.yul\":1179:1180   */\n      0x00\n        /* \"#utility.yul\":1168:1177   */\n      dup4\n        /* \"#utility.yul\":1164:1181   */\n      add\n        /* \"#utility.yul\":1155:1161   */\n      dup5\n        /* \"#utility.yul\":1111:1182   */\n      tag_26\n      jump\t// in\n    tag_40:\n        /* \"#utility.yul\":967:1189   */\n      swap3\n      swap2\n      pop\n      pop\n      jump\t// out\n\n    auxdata: 0xa2646970667358221220b72aa5b1b068b2134d11c4ccc7e6edd2dc3149f2cbbd808d8fed5c0328f908c964736f6c634300081a0033\n}\n",
				"bytecode": {
					"linkReferences": {},
					"object": "6080604052348015600e575f80fd5b506101898061001c5f395ff3fe608060405234801561000f575f80fd5b506004361061003f575f3560e01c806325b7182d146100435780633e95522514610061578063bb62860d14610080575b5f80fd5b61004b61009e565b60405161005891906100e2565b60405180910390f35b6100696100a6565b604051610077929190610113565b60405180910390f35b6100886100c0565b604051610095919061013a565b60405180910390f35b5f6001905090565b5f806100b06100c0565b6100b861009e565b915091509091565b5f60c8905090565b5f8115159050919050565b6100dc816100c8565b82525050565b5f6020820190506100f55f8301846100d3565b92915050565b5f819050919050565b61010d816100fb565b82525050565b5f6040820190506101265f830185610104565b61013360208301846100d3565b9392505050565b5f60208201905061014d5f830184610104565b9291505056fea2646970667358221220b72aa5b1b068b2134d11c4ccc7e6edd2dc3149f2cbbd808d8fed5c0328f908c964736f6c634300081a0033",
					"opcodes": "PUSH1 0x80 PUSH1 0x40 MSTORE CALLVALUE DUP1 ISZERO PUSH1 0xE JUMPI PUSH0 DUP1 REVERT JUMPDEST POP PUSH2 0x189 DUP1 PUSH2 0x1C PUSH0 CODECOPY PUSH0 RETURN INVALID PUSH1 0x80 PUSH1 0x40 MSTORE CALLVALUE DUP1 ISZERO PUSH2 0xF JUMPI PUSH0 DUP1 REVERT JUMPDEST POP PUSH1 0x4 CALLDATASIZE LT PUSH2 0x3F JUMPI PUSH0 CALLDATALOAD PUSH1 0xE0 SHR DUP1 PUSH4 0x25B7182D EQ PUSH2 0x43 JUMPI DUP1 PUSH4 0x3E955225 EQ PUSH2 0x61 JUMPI DUP1 PUSH4 0xBB62860D EQ PUSH2 0x80 JUMPI JUMPDEST PUSH0 DUP1 REVERT JUMPDEST PUSH2 0x4B PUSH2 0x9E JUMP JUMPDEST PUSH1 0x40 MLOAD PUSH2 0x58 SWAP2 SWAP1 PUSH2 0xE2 JUMP JUMPDEST PUSH1 0x40 MLOAD DUP1 SWAP2 SUB SWAP1 RETURN JUMPDEST PUSH2 0x69 PUSH2 0xA6 JUMP JUMPDEST PUSH1 0x40 MLOAD PUSH2 0x77 SWAP3 SWAP2 SWAP1 PUSH2 0x113 JUMP JUMPDEST PUSH1 0x40 MLOAD DUP1 SWAP2 SUB SWAP1 RETURN JUMPDEST PUSH2 0x88 PUSH2 0xC0 JUMP JUMPDEST PUSH1 0x40 MLOAD PUSH2 0x95 SWAP2 SWAP1 PUSH2 0x13A JUMP JUMPDEST PUSH1 0x40 MLOAD DUP1 SWAP2 SUB SWAP1 RETURN JUMPDEST PUSH0 PUSH1 0x1 SWAP1 POP SWAP1 JUMP JUMPDEST PUSH0 DUP1 PUSH2 0xB0 PUSH2 0xC0 JUMP JUMPDEST PUSH2 0xB8 PUSH2 0x9E JUMP JUMPDEST SWAP2 POP SWAP2 POP SWAP1 SWAP2 JUMP JUMPDEST PUSH0 PUSH1 0xC8 SWAP1 POP SWAP1 JUMP JUMPDEST PUSH0 DUP2 ISZERO ISZERO SWAP1 POP SWAP2 SWAP1 POP JUMP JUMPDEST PUSH2 0xDC DUP2 PUSH2 0xC8 JUMP JUMPDEST DUP3 MSTORE POP POP JUMP JUMPDEST PUSH0 PUSH1 0x20 DUP3 ADD SWAP1 POP PUSH2 0xF5 PUSH0 DUP4 ADD DUP5 PUSH2 0xD3 JUMP JUMPDEST SWAP3 SWAP2 POP POP JUMP JUMPDEST PUSH0 DUP2 SWAP1 POP SWAP2 SWAP1 POP JUMP JUMPDEST PUSH2 0x10D DUP2 PUSH2 0xFB JUMP JUMPDEST DUP3 MSTORE POP POP JUMP JUMPDEST PUSH0 PUSH1 0x40 DUP3 ADD SWAP1 POP PUSH2 0x126 PUSH0 DUP4 ADD DUP6 PUSH2 0x104 JUMP JUMPDEST PUSH2 0x133 PUSH1 0x20 DUP4 ADD DUP5 PUSH2 0xD3 JUMP JUMPDEST SWAP4 SWAP3 POP POP POP JUMP JUMPDEST PUSH0 PUSH1 0x20 DUP3 ADD SWAP1 POP PUSH2 0x14D PUSH0 DUP4 ADD DUP5 PUSH2 0x104 JUMP JUMPDEST SWAP3 SWAP2 POP POP JUMP INVALID LOG2 PUSH5 0x6970667358 0x22 SLT KECCAK256 0xB7 0x2A 0xA5 0xB1 0xB0 PUSH9 0xB2134D11C4CCC7E6ED 0xD2 0xDC BALANCE BLOBHASH CALLCODE 0xCB 0xBD DUP1 DUP14 DUP16 0xED TLOAD SUB 0x28 0xF9 ADDMOD 0xC9 PUSH5 0x736F6C6343 STOP ADDMOD BYTE STOP CALLER "
				},
				"gasEstimates": {
					"creation": {
						"codeDepositCost": "78600",
						"executionCost": "127",
						"totalCost": "78727"
					},
					"external": {
						"Errorr()": "316",
						"Version()": "354",
						"getN()": "519"
					}
				},
				"methodIdentifiers": {
					"Errorr()": "25b7182d",
					"Version()": "bb62860d",
					"getN()": "3e955225"
				}
			},
			"storageLayout": {
				"storage": [],
				"types": null
			},
			"userdoc": {
				"kind": "user",
				"methods": {},
				"version": 1
			}
		}
	}
}