{
	"week6_practice/arithmetic.sol": {
		"arith": {
			"abi": [
				{
					"inputs": [
						{
							"internalType": "uint256",
							"name": "x",
							"type": "uint256"
						}
					],
					"name": "loop",
					"outputs": [
						{
							"internalType": "uint256",
							"name": "res",
							"type": "uint256"
						}
					],
					"stateMutability": "pure",
					"type": "function"
				},
				{
					"inputs": [],
					"name": "show",
					"outputs": [
						{
							"internalType": "uint256",
							"name": "",
							"type": "uint256"
						},
						{
							"internalType": "int256",
							"name": "",
							"type": "int256"
						},
						{
							"internalType": "uint256",
							"name": "",
							"type": "uint256"
						},
						{
							"internalType": "uint256",
							"name": "",
							"type": "uint256"
						}
					],
					"stateMutability": "view",
					"type": "function"
				}
			],
			"devdoc": {
				"kind": "dev",
				"methods": {},
				"version": 1
			},
			"evm": {
				"assembly": "    /* \"week6_practice/arithmetic.sol\":72:560  contract arith{... */\n  mstore(0x40, 0x80)\n    /* \"week6_practice/arithmetic.sol\":100:103  5/5 */\n  0x01\n    /* \"week6_practice/arithmetic.sol\":93:103  uint a=5/5 */\n  0x00\n  sstore\n    /* \"week6_practice/arithmetic.sol\":116:119  3-5 */\n  0xfffffffffffffffffffffffffffffffffffffffffffffffffffffffffffffffe\n    /* \"week6_practice/arithmetic.sol\":110:119  int b=3-5 */\n  0x01\n  sstore\n    /* \"week6_practice/arithmetic.sol\":133:136  5%2 */\n  0x01\n    /* \"week6_practice/arithmetic.sol\":126:136  uint c=5%2 */\n  0x02\n  sstore\n    /* \"week6_practice/arithmetic.sol\":150:154  5**2 */\n  0x19\n    /* \"week6_practice/arithmetic.sol\":143:154  uint d=5**2 */\n  0x03\n  sstore\n    /* \"week6_practice/arithmetic.sol\":72:560  contract arith{... */\n  callvalue\n  dup1\n  iszero\n  tag_1\n  jumpi\n  0x00\n  dup1\n  revert\ntag_1:\n  pop\n  dataSize(sub_0)\n  dup1\n  dataOffset(sub_0)\n  0x00\n  codecopy\n  0x00\n  return\nstop\n\nsub_0: assembly {\n        /* \"week6_practice/arithmetic.sol\":72:560  contract arith{... */\n      mstore(0x40, 0x80)\n      callvalue\n      dup1\n      iszero\n      tag_1\n      jumpi\n      0x00\n      dup1\n      revert\n    tag_1:\n      pop\n      jumpi(tag_2, lt(calldatasize, 0x04))\n      shr(0xe0, calldataload(0x00))\n      dup1\n      0x0b7d796e\n      eq\n      tag_3\n      jumpi\n      dup1\n      0xcc80f6f3\n      eq\n      tag_4\n      jumpi\n    tag_2:\n      0x00\n      dup1\n      revert\n        /* \"week6_practice/arithmetic.sol\":434:557  function loop(uint x) public pure returns(uint res){... */\n    tag_3:\n      tag_5\n      0x04\n      dup1\n      calldatasize\n      sub\n      dup2\n      add\n      swap1\n      tag_6\n      swap2\n      swap1\n      tag_7\n      jump\t// in\n    tag_6:\n      tag_8\n      jump\t// in\n    tag_5:\n      mload(0x40)\n      tag_9\n      swap2\n      swap1\n      tag_10\n      jump\t// in\n    tag_9:\n      mload(0x40)\n      dup1\n      swap2\n      sub\n      swap1\n      return\n        /* \"week6_practice/arithmetic.sol\":163:252  function show() public view returns(uint,int,uint,uint){... */\n    tag_4:\n      tag_11\n      tag_12\n      jump\t// in\n    tag_11:\n      mload(0x40)\n      tag_13\n      swap5\n      swap4\n      swap3\n      swap2\n      swap1\n      tag_14\n      jump\t// in\n    tag_13:\n      mload(0x40)\n      dup1\n      swap2\n      sub\n      swap1\n      return\n        /* \"week6_practice/arithmetic.sol\":434:557  function loop(uint x) public pure returns(uint res){... */\n    tag_8:\n        /* \"week6_practice/arithmetic.sol\":476:484  uint res */\n      0x00\n        /* \"week6_practice/arithmetic.sol\":500:506  uint i */\n      dup1\n        /* \"week6_practice/arithmetic.sol\":507:508  0 */\n      0x00\n        /* \"week6_practice/arithmetic.sol\":500:508  uint i=0 */\n      swap1\n      pop\n        /* \"week6_practice/arithmetic.sol\":496:550  for(uint i=0;i<x;i++){... */\n    tag_16:\n        /* \"week6_practice/arithmetic.sol\":511:512  x */\n      dup3\n        /* \"week6_practice/arithmetic.sol\":509:510  i */\n      dup2\n        /* \"week6_practice/arithmetic.sol\":509:512  i<x */\n      lt\n        /* \"week6_practice/arithmetic.sol\":496:550  for(uint i=0;i<x;i++){... */\n      iszero\n      tag_17\n      jumpi\n        /* \"week6_practice/arithmetic.sol\":537:538  i */\n      dup1\n        /* \"week6_practice/arithmetic.sol\":532:538  res+=i */\n      dup3\n      tag_19\n      swap2\n      swap1\n      tag_20\n      jump\t// in\n    tag_19:\n      swap2\n      pop\n        /* \"week6_practice/arithmetic.sol\":513:516  i++ */\n      dup1\n      dup1\n      0x01\n      add\n      swap2\n      pop\n      pop\n        /* \"week6_practice/arithmetic.sol\":496:550  for(uint i=0;i<x;i++){... */\n      jump(tag_16)\n    tag_17:\n      pop\n        /* \"week6_practice/arithmetic.sol\":434:557  function loop(uint x) public pure returns(uint res){... */\n      swap2\n      swap1\n      pop\n      jump\t// out\n        /* \"week6_practice/arithmetic.sol\":163:252  function show() public view returns(uint,int,uint,uint){... */\n    tag_12:\n        /* \"week6_practice/arithmetic.sol\":199:203  uint */\n      0x00\n        /* \"week6_practice/arithmetic.sol\":204:207  int */\n      dup1\n        /* \"week6_practice/arithmetic.sol\":208:212  uint */\n      0x00\n        /* \"week6_practice/arithmetic.sol\":213:217  uint */\n      dup1\n        /* \"week6_practice/arithmetic.sol\":236:237  a */\n      sload(0x00)\n        /* \"week6_practice/arithmetic.sol\":238:239  b */\n      sload(0x01)\n        /* \"week6_practice/arithmetic.sol\":240:241  c */\n      sload(0x02)\n        /* \"week6_practice/arithmetic.sol\":242:243  d */\n      sload(0x03)\n        /* \"week6_practice/arithmetic.sol\":229:244  return(a,b,c,d) */\n      swap4\n      pop\n      swap4\n      pop\n      swap4\n      pop\n      swap4\n      pop\n        /* \"week6_practice/arithmetic.sol\":163:252  function show() public view returns(uint,int,uint,uint){... */\n      swap1\n      swap2\n      swap3\n      swap4\n      jump\t// out\n        /* \"#utility.yul\":88:205   */\n    tag_23:\n        /* \"#utility.yul\":197:198   */\n      0x00\n        /* \"#utility.yul\":194:195   */\n      dup1\n        /* \"#utility.yul\":187:199   */\n      revert\n        /* \"#utility.yul\":334:411   */\n    tag_25:\n        /* \"#utility.yul\":371:378   */\n      0x00\n        /* \"#utility.yul\":400:405   */\n      dup2\n        /* \"#utility.yul\":389:405   */\n      swap1\n      pop\n        /* \"#utility.yul\":334:411   */\n      swap2\n      swap1\n      pop\n      jump\t// out\n        /* \"#utility.yul\":417:539   */\n    tag_26:\n        /* \"#utility.yul\":490:514   */\n      tag_38\n        /* \"#utility.yul\":508:513   */\n      dup2\n        /* \"#utility.yul\":490:514   */\n      tag_25\n      jump\t// in\n    tag_38:\n        /* \"#utility.yul\":483:488   */\n      dup2\n        /* \"#utility.yul\":480:515   */\n      eq\n        /* \"#utility.yul\":470:533   */\n      tag_39\n      jumpi\n        /* \"#utility.yul\":529:530   */\n      0x00\n        /* \"#utility.yul\":526:527   */\n      dup1\n        /* \"#utility.yul\":519:531   */\n      revert\n        /* \"#utility.yul\":470:533   */\n    tag_39:\n        /* \"#utility.yul\":417:539   */\n      pop\n      jump\t// out\n        /* \"#utility.yul\":545:684   */\n    tag_27:\n        /* \"#utility.yul\":591:596   */\n      0x00\n        /* \"#utility.yul\":629:635   */\n      dup2\n        /* \"#utility.yul\":616:636   */\n      calldataload\n        /* \"#utility.yul\":607:636   */\n      swap1\n      pop\n        /* \"#utility.yul\":645:678   */\n      tag_41\n        /* \"#utility.yul\":672:677   */\n      dup2\n        /* \"#utility.yul\":645:678   */\n      tag_26\n      jump\t// in\n    tag_41:\n        /* \"#utility.yul\":545:684   */\n      swap3\n      swap2\n      pop\n      pop\n      jump\t// out\n        /* \"#utility.yul\":690:1019   */\n    tag_7:\n        /* \"#utility.yul\":749:755   */\n      0x00\n        /* \"#utility.yul\":798:800   */\n      0x20\n        /* \"#utility.yul\":786:795   */\n      dup3\n        /* \"#utility.yul\":777:784   */\n      dup5\n        /* \"#utility.yul\":773:796   */\n      sub\n        /* \"#utility.yul\":769:801   */\n      slt\n        /* \"#utility.yul\":766:885   */\n      iszero\n      tag_43\n      jumpi\n        /* \"#utility.yul\":804:883   */\n      tag_44\n      tag_23\n      jump\t// in\n    tag_44:\n        /* \"#utility.yul\":766:885   */\n    tag_43:\n        /* \"#utility.yul\":924:925   */\n      0x00\n        /* \"#utility.yul\":949:1002   */\n      tag_45\n        /* \"#utility.yul\":994:1001   */\n      dup5\n        /* \"#utility.yul\":985:991   */\n      dup3\n        /* \"#utility.yul\":974:983   */\n      dup6\n        /* \"#utility.yul\":970:992   */\n      add\n        /* \"#utility.yul\":949:1002   */\n      tag_27\n      jump\t// in\n    tag_45:\n        /* \"#utility.yul\":939:1002   */\n      swap2\n      pop\n        /* \"#utility.yul\":895:1012   */\n      pop\n        /* \"#utility.yul\":690:1019   */\n      swap3\n      swap2\n      pop\n      pop\n      jump\t// out\n        /* \"#utility.yul\":1025:1143   */\n    tag_28:\n        /* \"#utility.yul\":1112:1136   */\n      tag_47\n        /* \"#utility.yul\":1130:1135   */\n      dup2\n        /* \"#utility.yul\":1112:1136   */\n      tag_25\n      jump\t// in\n    tag_47:\n        /* \"#utility.yul\":1107:1110   */\n      dup3\n        /* \"#utility.yul\":1100:1137   */\n      mstore\n        /* \"#utility.yul\":1025:1143   */\n      pop\n      pop\n      jump\t// out\n        /* \"#utility.yul\":1149:1371   */\n    tag_10:\n        /* \"#utility.yul\":1242:1246   */\n      0x00\n        /* \"#utility.yul\":1280:1282   */\n      0x20\n        /* \"#utility.yul\":1269:1278   */\n      dup3\n        /* \"#utility.yul\":1265:1283   */\n      add\n        /* \"#utility.yul\":1257:1283   */\n      swap1\n      pop\n        /* \"#utility.yul\":1293:1364   */\n      tag_49\n        /* \"#utility.yul\":1361:1362   */\n      0x00\n        /* \"#utility.yul\":1350:1359   */\n      dup4\n        /* \"#utility.yul\":1346:1363   */\n      add\n        /* \"#utility.yul\":1337:1343   */\n      dup5\n        /* \"#utility.yul\":1293:1364   */\n      tag_28\n      jump\t// in\n    tag_49:\n        /* \"#utility.yul\":1149:1371   */\n      swap3\n      swap2\n      pop\n      pop\n      jump\t// out\n        /* \"#utility.yul\":1377:1453   */\n    tag_29:\n        /* \"#utility.yul\":1413:1420   */\n      0x00\n        /* \"#utility.yul\":1442:1447   */\n      dup2\n        /* \"#utility.yul\":1431:1447   */\n      swap1\n      pop\n        /* \"#utility.yul\":1377:1453   */\n      swap2\n      swap1\n      pop\n      jump\t// out\n        /* \"#utility.yul\":1459:1574   */\n    tag_30:\n        /* \"#utility.yul\":1544:1567   */\n      tag_52\n        /* \"#utility.yul\":1561:1566   */\n      dup2\n        /* \"#utility.yul\":1544:1567   */\n      tag_29\n      jump\t// in\n    tag_52:\n        /* \"#utility.yul\":1539:1542   */\n      dup3\n        /* \"#utility.yul\":1532:1568   */\n      mstore\n        /* \"#utility.yul\":1459:1574   */\n      pop\n      pop\n      jump\t// out\n        /* \"#utility.yul\":1580:2129   */\n    tag_14:\n        /* \"#utility.yul\":1755:1759   */\n      0x00\n        /* \"#utility.yul\":1793:1796   */\n      0x80\n        /* \"#utility.yul\":1782:1791   */\n      dup3\n        /* \"#utility.yul\":1778:1797   */\n      add\n        /* \"#utility.yul\":1770:1797   */\n      swap1\n      pop\n        /* \"#utility.yul\":1807:1878   */\n      tag_54\n        /* \"#utility.yul\":1875:1876   */\n      0x00\n        /* \"#utility.yul\":1864:1873   */\n      dup4\n        /* \"#utility.yul\":1860:1877   */\n      add\n        /* \"#utility.yul\":1851:1857   */\n      dup8\n        /* \"#utility.yul\":1807:1878   */\n      tag_28\n      jump\t// in\n    tag_54:\n        /* \"#utility.yul\":1888:1958   */\n      tag_55\n        /* \"#utility.yul\":1954:1956   */\n      0x20\n        /* \"#utility.yul\":1943:1952   */\n      dup4\n        /* \"#utility.yul\":1939:1957   */\n      add\n        /* \"#utility.yul\":1930:1936   */\n      dup7\n        /* \"#utility.yul\":1888:1958   */\n      tag_30\n      jump\t// in\n    tag_55:\n        /* \"#utility.yul\":1968:2040   */\n      tag_56\n        /* \"#utility.yul\":2036:2038   */\n      0x40\n        /* \"#utility.yul\":2025:2034   */\n      dup4\n        /* \"#utility.yul\":2021:2039   */\n      add\n        /* \"#utility.yul\":2012:2018   */\n      dup6\n        /* \"#utility.yul\":1968:2040   */\n      tag_28\n      jump\t// in\n    tag_56:\n        /* \"#utility.yul\":2050:2122   */\n      tag_57\n        /* \"#utility.yul\":2118:2120   */\n      0x60\n        /* \"#utility.yul\":2107:2116   */\n      dup4\n        /* \"#utility.yul\":2103:2121   */\n      add\n        /* \"#utility.yul\":2094:2100   */\n      dup5\n        /* \"#utility.yul\":2050:2122   */\n      tag_28\n      jump\t// in\n    tag_57:\n        /* \"#utility.yul\":1580:2129   */\n      swap6\n      swap5\n      pop\n      pop\n      pop\n      pop\n      pop\n      jump\t// out\n        /* \"#utility.yul\":2135:2315   */\n    tag_31:\n        /* \"#utility.yul\":2183:2260   */\n      0x4e487b7100000000000000000000000000000000000000000000000000000000\n        /* \"#utility.yul\":2180:2181   */\n      0x00\n        /* \"#utility.yul\":2173:2261   */\n      mstore\n        /* \"#utility.yul\":2280:2284   */\n      0x11\n        /* \"#utility.yul\":2277:2278   */\n      0x04\n        /* \"#utility.yul\":2270:2285   */\n      mstore\n        /* \"#utility.yul\":2304:2308   */\n      0x24\n        /* \"#utility.yul\":2301:2302   */\n      0x00\n        /* \"#utility.yul\":2294:2309   */\n      revert\n        /* \"#utility.yul\":2321:2512   */\n    tag_20:\n        /* \"#utility.yul\":2361:2364   */\n      0x00\n        /* \"#utility.yul\":2380:2400   */\n      tag_60\n        /* \"#utility.yul\":2398:2399   */\n      dup3\n        /* \"#utility.yul\":2380:2400   */\n      tag_25\n      jump\t// in\n    tag_60:\n        /* \"#utility.yul\":2375:2400   */\n      swap2\n      pop\n        /* \"#utility.yul\":2414:2434   */\n      tag_61\n        /* \"#utility.yul\":2432:2433   */\n      dup4\n        /* \"#utility.yul\":2414:2434   */\n      tag_25\n      jump\t// in\n    tag_61:\n        /* \"#utility.yul\":2409:2434   */\n      swap3\n      pop\n        /* \"#utility.yul\":2457:2458   */\n      dup3\n        /* \"#utility.yul\":2454:2455   */\n      dup3\n        /* \"#utility.yul\":2450:2459   */\n      add\n        /* \"#utility.yul\":2443:2459   */\n      swap1\n      pop\n        /* \"#utility.yul\":2478:2481   */\n      dup1\n        /* \"#utility.yul\":2475:2476   */\n      dup3\n        /* \"#utility.yul\":2472:2482   */\n      gt\n        /* \"#utility.yul\":2469:2505   */\n      iszero\n      tag_62\n      jumpi\n        /* \"#utility.yul\":2485:2503   */\n      tag_63\n      tag_31\n      jump\t// in\n    tag_63:\n        /* \"#utility.yul\":2469:2505   */\n    tag_62:\n        /* \"#utility.yul\":2321:2512   */\n      swap3\n      swap2\n      pop\n      pop\n      jump\t// out\n\n    auxdata: 0xa2646970667358221220540d892d653b1234df4f35501b45584332dd4bb20a9951d61456630a8522d51964736f6c634300081a0033\n}\n",
				"bytecode": {
					"linkReferences": {},
					"object": "608060405260015f557ffffffffffffffffffffffffffffffffffffffffffffffffffffffffffffffffe600155600160025560196003553480156040575f80fd5b506102508061004e5f395ff3fe608060405234801561000f575f80fd5b5060043610610034575f3560e01c80630b7d796e14610038578063cc80f6f314610068575b5f80fd5b610052600480360381019061004d919061010c565b610089565b60405161005f9190610146565b60405180910390f35b6100706100b8565b6040516100809493929190610177565b60405180910390f35b5f805f90505b828110156100b25780826100a391906101e7565b9150808060010191505061008f565b50919050565b5f805f805f54600154600254600354935093509350935090919293565b5f80fd5b5f819050919050565b6100eb816100d9565b81146100f5575f80fd5b50565b5f81359050610106816100e2565b92915050565b5f60208284031215610121576101206100d5565b5b5f61012e848285016100f8565b91505092915050565b610140816100d9565b82525050565b5f6020820190506101595f830184610137565b92915050565b5f819050919050565b6101718161015f565b82525050565b5f60808201905061018a5f830187610137565b6101976020830186610168565b6101a46040830185610137565b6101b16060830184610137565b95945050505050565b7f4e487b71000000000000000000000000000000000000000000000000000000005f52601160045260245ffd5b5f6101f1826100d9565b91506101fc836100d9565b9250828201905080821115610214576102136101ba565b5b9291505056fea2646970667358221220540d892d653b1234df4f35501b45584332dd4bb20a9951d61456630a8522d51964736f6c634300081a0033",
					"opcodes": "PUSH1 0x80 PUSH1 0x40 MSTORE PUSH1 0x1 PUSH0 SSTORE PUSH32 0xFFFFFFFFFFFFFFFFFFFFFFFFFFFFFFFFFFFFFFFFFFFFFFFFFFFFFFFFFFFFFFFE PUSH1 0x1 SSTORE PUSH1 0x1 PUSH1 0x2 SSTORE PUSH1 0x19 PUSH1 0x3 SSTORE CALLVALUE DUP1 ISZERO PUSH1 0x40 JUMPI PUSH0 DUP1 REVERT JUMPDEST POP PUSH2 0x250 DUP1 PUSH2 0x4E PUSH0 CODECOPY PUSH0 RETURN INVALID PUSH1 0x80 PUSH1 0x40 MSTORE CALLVALUE DUP1 ISZERO PUSH2 0xF JUMPI PUSH0 DUP1 REVERT JUMPDEST POP PUSH1 0x4 CALLDATASIZE LT PUSH2 0x34 JUMPI PUSH0 CALLDATALOAD PUSH1 0xE0 SHR DUP1 PUSH4 0xB7D796E EQ PUSH2 0x38 JUMPI DUP1 PUSH4 0xCC80F6F3 EQ PUSH2 0x68 JUMPI JUMPDEST PUSH0 DUP1 REVERT JUMPDEST PUSH2 0x52 PUSH1 0x4 DUP1 CALLDATASIZE SUB DUP2 ADD SWAP1 PUSH2 0x4D SWAP2 SWAP1 PUSH2 0x10C JUMP JUMPDEST PUSH2 0x89 JUMP JUMPDEST PUSH1 0x40 MLOAD PUSH2 0x5F SWAP2 SWAP1 PUSH2 0x146 JUMP JUMPDEST PUSH1 0x40 MLOAD DUP1 SWAP2 SUB SWAP1 RETURN JUMPDEST PUSH2 0x70 PUSH2 0xB8 JUMP JUMPDEST PUSH1 0x40 MLOAD PUSH2 0x80 SWAP5 SWAP4 SWAP3 SWAP2 SWAP1 PUSH2 0x177 JUMP JUMPDEST PUSH1 0x40 MLOAD DUP1 SWAP2 SUB SWAP1 RETURN JUMPDEST PUSH0 DUP1 PUSH0 SWAP1 POP JUMPDEST DUP3 DUP2 LT ISZERO PUSH2 0xB2 JUMPI DUP1 DUP3 PUSH2 0xA3 SWAP2 SWAP1 PUSH2 0x1E7 JUMP JUMPDEST SWAP2 POP DUP1 DUP1 PUSH1 0x1 ADD SWAP2 POP POP PUSH2 0x8F JUMP JUMPDEST POP SWAP2 SWAP1 POP JUMP JUMPDEST PUSH0 DUP1 PUSH0 DUP1 PUSH0 SLOAD PUSH1 0x1 SLOAD PUSH1 0x2 SLOAD PUSH1 0x3 SLOAD SWAP4 POP SWAP4 POP SWAP4 POP SWAP4 POP SWAP1 SWAP2 SWAP3 SWAP4 JUMP JUMPDEST PUSH0 DUP1 REVERT JUMPDEST PUSH0 DUP2 SWAP1 POP SWAP2 SWAP1 POP JUMP JUMPDEST PUSH2 0xEB DUP2 PUSH2 0xD9 JUMP JUMPDEST DUP2 EQ PUSH2 0xF5 JUMPI PUSH0 DUP1 REVERT JUMPDEST POP JUMP JUMPDEST PUSH0 DUP2 CALLDATALOAD SWAP1 POP PUSH2 0x106 DUP2 PUSH2 0xE2 JUMP JUMPDEST SWAP3 SWAP2 POP POP JUMP JUMPDEST PUSH0 PUSH1 0x20 DUP3 DUP5 SUB SLT ISZERO PUSH2 0x121 JUMPI PUSH2 0x120 PUSH2 0xD5 JUMP JUMPDEST JUMPDEST PUSH0 PUSH2 0x12E DUP5 DUP3 DUP6 ADD PUSH2 0xF8 JUMP JUMPDEST SWAP2 POP POP SWAP3 SWAP2 POP POP JUMP JUMPDEST PUSH2 0x140 DUP2 PUSH2 0xD9 JUMP JUMPDEST DUP3 MSTORE POP POP JUMP JUMPDEST PUSH0 PUSH1 0x20 DUP3 ADD SWAP1 POP PUSH2 0x159 PUSH0 DUP4 ADD DUP5 PUSH2 0x137 JUMP JUMPDEST SWAP3 SWAP2 POP POP JUMP JUMPDEST PUSH0 DUP2 SWAP1 POP SWAP2 SWAP1 POP JUMP JUMPDEST PUSH2 0x171 DUP2 PUSH2 0x15F JUMP JUMPDEST DUP3 MSTORE POP POP JUMP JUMPDEST PUSH0 PUSH1 0x80 DUP3 ADD SWAP1 POP PUSH2 0x18A PUSH0 DUP4 ADD DUP8 PUSH2 0x137 JUMP JUMPDEST PUSH2 0x197 PUSH1 0x20 DUP4 ADD DUP7 PUSH2 0x168 JUMP JUMPDEST PUSH2 0x1A4 PUSH1 0x40 DUP4 ADD DUP6 PUSH2 0x137 JUMP JUMPDEST PUSH2 0x1B1 PUSH1 0x60 DUP4 ADD DUP5 PUSH2 0x137 JUMP JUMPDEST SWAP6 SWAP5 POP POP POP POP POP JUMP JUMPDEST PUSH32 0x4E487B7100000000000000000000000000000000000000000000000000000000 PUSH0 MSTORE PUSH1 0x11 PUSH1 0x4 MSTORE PUSH1 0x24 PUSH0 REVERT JUMPDEST PUSH0 PUSH2 0x1F1 DUP3 PUSH2 0xD9 JUMP JUMPDEST SWAP2 POP PUSH2 0x1FC DUP4 PUSH2 0xD9 JUMP JUMPDEST SWAP3 POP DUP3 DUP3 ADD SWAP1 POP DUP1 DUP3 GT ISZERO PUSH2 0x214 JUMPI PUSH2 0x213 PUSH2 0x1BA JUMP JUMPDEST JUMPDEST SWAP3 SWAP2 POP POP JUMP INVALID LOG2 PUSH5 0x6970667358 0x22 SLT KECCAK256 SLOAD 0xD DUP10 0x2D PUSH6 0x3B1234DF4F35 POP SHL GASLIMIT PC NUMBER ORIGIN 0xDD 0x4B 0xB2 EXP SWAP10 MLOAD 0xD6 EQ JUMP PUSH4 0xA8522D5 NOT PUSH5 0x736F6C6343 STOP ADDMOD BYTE STOP CALLER "
				},
				"gasEstimates": {
					"creation": {
						"codeDepositCost": "118400",
						"executionCost": "88586",
						"totalCost": "206986"
					},
					"external": {
						"loop(uint256)": "infinite",
						"show()": "infinite"
					}
				},
				"methodIdentifiers": {
					"loop(uint256)": "0b7d796e",
					"show()": "cc80f6f3"
				}
			},
			"storageLayout": {
				"storage": [
					{
						"astId": 6,
						"contract": "week6_practice/arithmetic.sol:arith",
						"label": "a",
						"offset": 0,
						"slot": "0",
						"type": "t_uint256"
					},
					{
						"astId": 11,
						"contract": "week6_practice/arithmetic.sol:arith",
						"label": "b",
						"offset": 0,
						"slot": "1",
						"type": "t_int256"
					},
					{
						"astId": 16,
						"contract": "week6_practice/arithmetic.sol:arith",
						"label": "c",
						"offset": 0,
						"slot": "2",
						"type": "t_uint256"
					},
					{
						"astId": 21,
						"contract": "week6_practice/arithmetic.sol:arith",
						"label": "d",
						"offset": 0,
						"slot": "3",
						"type": "t_uint256"
					}
				],
				"types": {
					"t_int256": {
						"encoding": "inplace",
						"label": "int256",
						"numberOfBytes": "32"
					},
					"t_uint256": {
						"encoding": "inplace",
						"label": "uint256",
						"numberOfBytes": "32"
					}
				}
			},
			"userdoc": {
				"kind": "user",
				"methods": {},
				"version": 1
			}
		}
	}
}