{
	"week6_practice/fucReturns.sol": {
		"fucReturns": {
			"abi": [
				{
					"inputs": [
						{
							"internalType": "uint256",
							"name": "num1",
							"type": "uint256"
						},
						{
							"internalType": "uint256",
							"name": "num2",
							"type": "uint256"
						}
					],
					"name": "Fun1",
					"outputs": [
						{
							"internalType": "uint256",
							"name": "a",
							"type": "uint256"
						},
						{
							"internalType": "uint256",
							"name": "b",
							"type": "uint256"
						}
					],
					"stateMutability": "pure",
					"type": "function"
				},
				{
					"inputs": [],
					"name": "Fun2",
					"outputs": [
						{
							"internalType": "uint256",
							"name": "age",
							"type": "uint256"
						},
						{
							"internalType": "string",
							"name": "name",
							"type": "string"
						}
					],
					"stateMutability": "pure",
					"type": "function"
				}
			],
			"devdoc": {
				"kind": "dev",
				"methods": {},
				"version": 1
			},
			"evm": {
				"assembly": "    /* \"week6_practice/fucReturns.sol\":72:541  contract fucReturns{... */\n  mstore(0x40, 0x80)\n  callvalue\n  dup1\n  iszero\n  tag_1\n  jumpi\n  0x00\n  dup1\n  revert\ntag_1:\n  pop\n  dataSize(sub_0)\n  dup1\n  dataOffset(sub_0)\n  0x00\n  codecopy\n  0x00\n  return\nstop\n\nsub_0: assembly {\n        /* \"week6_practice/fucReturns.sol\":72:541  contract fucReturns{... */\n      mstore(0x40, 0x80)\n      callvalue\n      dup1\n      iszero\n      tag_1\n      jumpi\n      0x00\n      dup1\n      revert\n    tag_1:\n      pop\n      jumpi(tag_2, lt(calldatasize, 0x04))\n      shr(0xe0, calldataload(0x00))\n      dup1\n      0x5902179c\n      eq\n      tag_3\n      jumpi\n      dup1\n      0xf8136a4f\n      eq\n      tag_4\n      jumpi\n    tag_2:\n      0x00\n      dup1\n      revert\n        /* \"week6_practice/fucReturns.sol\":218:332  function Fun2() public pure returns(uint age, string memory name){... */\n    tag_3:\n      tag_5\n      tag_6\n      jump\t// in\n    tag_5:\n      mload(0x40)\n      tag_7\n      swap3\n      swap2\n      swap1\n      tag_8\n      jump\t// in\n    tag_7:\n      mload(0x40)\n      dup1\n      swap2\n      sub\n      swap1\n      return\n        /* \"week6_practice/fucReturns.sol\":100:210  function Fun1(uint num1, uint num2) public pure returns(uint a, uint b){... */\n    tag_4:\n      tag_9\n      0x04\n      dup1\n      calldatasize\n      sub\n      dup2\n      add\n      swap1\n      tag_10\n      swap2\n      swap1\n      tag_11\n      jump\t// in\n    tag_10:\n      tag_12\n      jump\t// in\n    tag_9:\n      mload(0x40)\n      tag_13\n      swap3\n      swap2\n      swap1\n      tag_14\n      jump\t// in\n    tag_13:\n      mload(0x40)\n      dup1\n      swap2\n      sub\n      swap1\n      return\n        /* \"week6_practice/fucReturns.sol\":218:332  function Fun2() public pure returns(uint age, string memory name){... */\n    tag_6:\n        /* \"week6_practice/fucReturns.sol\":254:262  uint age */\n      0x00\n        /* \"week6_practice/fucReturns.sol\":264:282  string memory name */\n      0x60\n        /* \"week6_practice/fucReturns.sol\":298:300  20 */\n      0x14\n        /* \"week6_practice/fucReturns.sol\":294:300  age=20 */\n      swap2\n      pop\n        /* \"week6_practice/fucReturns.sol\":311:324  name=\"yuyeon\" */\n      mload(0x40)\n      dup1\n      0x40\n      add\n      0x40\n      mstore\n      dup1\n      0x06\n      dup2\n      mstore\n      0x20\n      add\n      0x797579656f6e0000000000000000000000000000000000000000000000000000\n      dup2\n      mstore\n      pop\n      swap1\n      pop\n        /* \"week6_practice/fucReturns.sol\":218:332  function Fun2() public pure returns(uint age, string memory name){... */\n      swap1\n      swap2\n      jump\t// out\n        /* \"week6_practice/fucReturns.sol\":100:210  function Fun1(uint num1, uint num2) public pure returns(uint a, uint b){... */\n    tag_12:\n        /* \"week6_practice/fucReturns.sol\":156:162  uint a */\n      0x00\n        /* \"week6_practice/fucReturns.sol\":164:170  uint b */\n      dup1\n        /* \"week6_practice/fucReturns.sol\":185:191  ++num1 */\n      dup4\n      tag_17\n      swap1\n      tag_18\n      jump\t// in\n    tag_17:\n      swap4\n      pop\n      dup4\n        /* \"week6_practice/fucReturns.sol\":182:191  a= ++num1 */\n      swap2\n      pop\n        /* \"week6_practice/fucReturns.sol\":196:202  ++num2 */\n      dup3\n      tag_19\n      swap1\n      tag_18\n      jump\t// in\n    tag_19:\n      swap3\n      pop\n      dup3\n        /* \"week6_practice/fucReturns.sol\":193:202  b= ++num2 */\n      swap1\n      pop\n        /* \"week6_practice/fucReturns.sol\":100:210  function Fun1(uint num1, uint num2) public pure returns(uint a, uint b){... */\n      swap3\n      pop\n      swap3\n      swap1\n      pop\n      jump\t// out\n        /* \"#utility.yul\":7:84   */\n    tag_20:\n        /* \"#utility.yul\":44:51   */\n      0x00\n        /* \"#utility.yul\":73:78   */\n      dup2\n        /* \"#utility.yul\":62:78   */\n      swap1\n      pop\n        /* \"#utility.yul\":7:84   */\n      swap2\n      swap1\n      pop\n      jump\t// out\n        /* \"#utility.yul\":90:208   */\n    tag_21:\n        /* \"#utility.yul\":177:201   */\n      tag_36\n        /* \"#utility.yul\":195:200   */\n      dup2\n        /* \"#utility.yul\":177:201   */\n      tag_20\n      jump\t// in\n    tag_36:\n        /* \"#utility.yul\":172:175   */\n      dup3\n        /* \"#utility.yul\":165:202   */\n      mstore\n        /* \"#utility.yul\":90:208   */\n      pop\n      pop\n      jump\t// out\n        /* \"#utility.yul\":214:313   */\n    tag_22:\n        /* \"#utility.yul\":266:272   */\n      0x00\n        /* \"#utility.yul\":300:305   */\n      dup2\n        /* \"#utility.yul\":294:306   */\n      mload\n        /* \"#utility.yul\":284:306   */\n      swap1\n      pop\n        /* \"#utility.yul\":214:313   */\n      swap2\n      swap1\n      pop\n      jump\t// out\n        /* \"#utility.yul\":319:488   */\n    tag_23:\n        /* \"#utility.yul\":403:414   */\n      0x00\n        /* \"#utility.yul\":437:443   */\n      dup3\n        /* \"#utility.yul\":432:435   */\n      dup3\n        /* \"#utility.yul\":425:444   */\n      mstore\n        /* \"#utility.yul\":477:481   */\n      0x20\n        /* \"#utility.yul\":472:475   */\n      dup3\n        /* \"#utility.yul\":468:482   */\n      add\n        /* \"#utility.yul\":453:482   */\n      swap1\n      pop\n        /* \"#utility.yul\":319:488   */\n      swap3\n      swap2\n      pop\n      pop\n      jump\t// out\n        /* \"#utility.yul\":494:633   */\n    tag_24:\n        /* \"#utility.yul\":583:589   */\n      dup3\n        /* \"#utility.yul\":578:581   */\n      dup2\n        /* \"#utility.yul\":573:576   */\n      dup4\n        /* \"#utility.yul\":567:590   */\n      mcopy\n        /* \"#utility.yul\":624:625   */\n      0x00\n        /* \"#utility.yul\":615:621   */\n      dup4\n        /* \"#utility.yul\":610:613   */\n      dup4\n        /* \"#utility.yul\":606:622   */\n      add\n        /* \"#utility.yul\":599:626   */\n      mstore\n        /* \"#utility.yul\":494:633   */\n      pop\n      pop\n      pop\n      jump\t// out\n        /* \"#utility.yul\":639:741   */\n    tag_25:\n        /* \"#utility.yul\":680:686   */\n      0x00\n        /* \"#utility.yul\":731:733   */\n      0x1f\n        /* \"#utility.yul\":727:734   */\n      not\n        /* \"#utility.yul\":722:724   */\n      0x1f\n        /* \"#utility.yul\":715:720   */\n      dup4\n        /* \"#utility.yul\":711:725   */\n      add\n        /* \"#utility.yul\":707:735   */\n      and\n        /* \"#utility.yul\":697:735   */\n      swap1\n      pop\n        /* \"#utility.yul\":639:741   */\n      swap2\n      swap1\n      pop\n      jump\t// out\n        /* \"#utility.yul\":747:1124   */\n    tag_26:\n        /* \"#utility.yul\":835:838   */\n      0x00\n        /* \"#utility.yul\":863:902   */\n      tag_42\n        /* \"#utility.yul\":896:901   */\n      dup3\n        /* \"#utility.yul\":863:902   */\n      tag_22\n      jump\t// in\n    tag_42:\n        /* \"#utility.yul\":918:989   */\n      tag_43\n        /* \"#utility.yul\":982:988   */\n      dup2\n        /* \"#utility.yul\":977:980   */\n      dup6\n        /* \"#utility.yul\":918:989   */\n      tag_23\n      jump\t// in\n    tag_43:\n        /* \"#utility.yul\":911:989   */\n      swap4\n      pop\n        /* \"#utility.yul\":998:1063   */\n      tag_44\n        /* \"#utility.yul\":1056:1062   */\n      dup2\n        /* \"#utility.yul\":1051:1054   */\n      dup6\n        /* \"#utility.yul\":1044:1048   */\n      0x20\n        /* \"#utility.yul\":1037:1042   */\n      dup7\n        /* \"#utility.yul\":1033:1049   */\n      add\n        /* \"#utility.yul\":998:1063   */\n      tag_24\n      jump\t// in\n    tag_44:\n        /* \"#utility.yul\":1088:1117   */\n      tag_45\n        /* \"#utility.yul\":1110:1116   */\n      dup2\n        /* \"#utility.yul\":1088:1117   */\n      tag_25\n      jump\t// in\n    tag_45:\n        /* \"#utility.yul\":1083:1086   */\n      dup5\n        /* \"#utility.yul\":1079:1118   */\n      add\n        /* \"#utility.yul\":1072:1118   */\n      swap2\n      pop\n        /* \"#utility.yul\":839:1124   */\n      pop\n        /* \"#utility.yul\":747:1124   */\n      swap3\n      swap2\n      pop\n      pop\n      jump\t// out\n        /* \"#utility.yul\":1130:1553   */\n    tag_8:\n        /* \"#utility.yul\":1271:1275   */\n      0x00\n        /* \"#utility.yul\":1309:1311   */\n      0x40\n        /* \"#utility.yul\":1298:1307   */\n      dup3\n        /* \"#utility.yul\":1294:1312   */\n      add\n        /* \"#utility.yul\":1286:1312   */\n      swap1\n      pop\n        /* \"#utility.yul\":1322:1393   */\n      tag_47\n        /* \"#utility.yul\":1390:1391   */\n      0x00\n        /* \"#utility.yul\":1379:1388   */\n      dup4\n        /* \"#utility.yul\":1375:1392   */\n      add\n        /* \"#utility.yul\":1366:1372   */\n      dup6\n        /* \"#utility.yul\":1322:1393   */\n      tag_21\n      jump\t// in\n    tag_47:\n        /* \"#utility.yul\":1440:1449   */\n      dup2\n        /* \"#utility.yul\":1434:1438   */\n      dup2\n        /* \"#utility.yul\":1430:1450   */\n      sub\n        /* \"#utility.yul\":1425:1427   */\n      0x20\n        /* \"#utility.yul\":1414:1423   */\n      dup4\n        /* \"#utility.yul\":1410:1428   */\n      add\n        /* \"#utility.yul\":1403:1451   */\n      mstore\n        /* \"#utility.yul\":1468:1546   */\n      tag_48\n        /* \"#utility.yul\":1541:1545   */\n      dup2\n        /* \"#utility.yul\":1532:1538   */\n      dup5\n        /* \"#utility.yul\":1468:1546   */\n      tag_26\n      jump\t// in\n    tag_48:\n        /* \"#utility.yul\":1460:1546   */\n      swap1\n      pop\n        /* \"#utility.yul\":1130:1553   */\n      swap4\n      swap3\n      pop\n      pop\n      pop\n      jump\t// out\n        /* \"#utility.yul\":1640:1757   */\n    tag_28:\n        /* \"#utility.yul\":1749:1750   */\n      0x00\n        /* \"#utility.yul\":1746:1747   */\n      dup1\n        /* \"#utility.yul\":1739:1751   */\n      revert\n        /* \"#utility.yul\":1886:2008   */\n    tag_30:\n        /* \"#utility.yul\":1959:1983   */\n      tag_53\n        /* \"#utility.yul\":1977:1982   */\n      dup2\n        /* \"#utility.yul\":1959:1983   */\n      tag_20\n      jump\t// in\n    tag_53:\n        /* \"#utility.yul\":1952:1957   */\n      dup2\n        /* \"#utility.yul\":1949:1984   */\n      eq\n        /* \"#utility.yul\":1939:2002   */\n      tag_54\n      jumpi\n        /* \"#utility.yul\":1998:1999   */\n      0x00\n        /* \"#utility.yul\":1995:1996   */\n      dup1\n        /* \"#utility.yul\":1988:2000   */\n      revert\n        /* \"#utility.yul\":1939:2002   */\n    tag_54:\n        /* \"#utility.yul\":1886:2008   */\n      pop\n      jump\t// out\n        /* \"#utility.yul\":2014:2153   */\n    tag_31:\n        /* \"#utility.yul\":2060:2065   */\n      0x00\n        /* \"#utility.yul\":2098:2104   */\n      dup2\n        /* \"#utility.yul\":2085:2105   */\n      calldataload\n        /* \"#utility.yul\":2076:2105   */\n      swap1\n      pop\n        /* \"#utility.yul\":2114:2147   */\n      tag_56\n        /* \"#utility.yul\":2141:2146   */\n      dup2\n        /* \"#utility.yul\":2114:2147   */\n      tag_30\n      jump\t// in\n    tag_56:\n        /* \"#utility.yul\":2014:2153   */\n      swap3\n      swap2\n      pop\n      pop\n      jump\t// out\n        /* \"#utility.yul\":2159:2633   */\n    tag_11:\n        /* \"#utility.yul\":2227:2233   */\n      0x00\n        /* \"#utility.yul\":2235:2241   */\n      dup1\n        /* \"#utility.yul\":2284:2286   */\n      0x40\n        /* \"#utility.yul\":2272:2281   */\n      dup4\n        /* \"#utility.yul\":2263:2270   */\n      dup6\n        /* \"#utility.yul\":2259:2282   */\n      sub\n        /* \"#utility.yul\":2255:2287   */\n      slt\n        /* \"#utility.yul\":2252:2371   */\n      iszero\n      tag_58\n      jumpi\n        /* \"#utility.yul\":2290:2369   */\n      tag_59\n      tag_28\n      jump\t// in\n    tag_59:\n        /* \"#utility.yul\":2252:2371   */\n    tag_58:\n        /* \"#utility.yul\":2410:2411   */\n      0x00\n        /* \"#utility.yul\":2435:2488   */\n      tag_60\n        /* \"#utility.yul\":2480:2487   */\n      dup6\n        /* \"#utility.yul\":2471:2477   */\n      dup3\n        /* \"#utility.yul\":2460:2469   */\n      dup7\n        /* \"#utility.yul\":2456:2478   */\n      add\n        /* \"#utility.yul\":2435:2488   */\n      tag_31\n      jump\t// in\n    tag_60:\n        /* \"#utility.yul\":2425:2488   */\n      swap3\n      pop\n        /* \"#utility.yul\":2381:2498   */\n      pop\n        /* \"#utility.yul\":2537:2539   */\n      0x20\n        /* \"#utility.yul\":2563:2616   */\n      tag_61\n        /* \"#utility.yul\":2608:2615   */\n      dup6\n        /* \"#utility.yul\":2599:2605   */\n      dup3\n        /* \"#utility.yul\":2588:2597   */\n      dup7\n        /* \"#utility.yul\":2584:2606   */\n      add\n        /* \"#utility.yul\":2563:2616   */\n      tag_31\n      jump\t// in\n    tag_61:\n        /* \"#utility.yul\":2553:2616   */\n      swap2\n      pop\n        /* \"#utility.yul\":2508:2626   */\n      pop\n        /* \"#utility.yul\":2159:2633   */\n      swap3\n      pop\n      swap3\n      swap1\n      pop\n      jump\t// out\n        /* \"#utility.yul\":2639:2971   */\n    tag_14:\n        /* \"#utility.yul\":2760:2764   */\n      0x00\n        /* \"#utility.yul\":2798:2800   */\n      0x40\n        /* \"#utility.yul\":2787:2796   */\n      dup3\n        /* \"#utility.yul\":2783:2801   */\n      add\n        /* \"#utility.yul\":2775:2801   */\n      swap1\n      pop\n        /* \"#utility.yul\":2811:2882   */\n      tag_63\n        /* \"#utility.yul\":2879:2880   */\n      0x00\n        /* \"#utility.yul\":2868:2877   */\n      dup4\n        /* \"#utility.yul\":2864:2881   */\n      add\n        /* \"#utility.yul\":2855:2861   */\n      dup6\n        /* \"#utility.yul\":2811:2882   */\n      tag_21\n      jump\t// in\n    tag_63:\n        /* \"#utility.yul\":2892:2964   */\n      tag_64\n        /* \"#utility.yul\":2960:2962   */\n      0x20\n        /* \"#utility.yul\":2949:2958   */\n      dup4\n        /* \"#utility.yul\":2945:2963   */\n      add\n        /* \"#utility.yul\":2936:2942   */\n      dup5\n        /* \"#utility.yul\":2892:2964   */\n      tag_21\n      jump\t// in\n    tag_64:\n        /* \"#utility.yul\":2639:2971   */\n      swap4\n      swap3\n      pop\n      pop\n      pop\n      jump\t// out\n        /* \"#utility.yul\":2977:3157   */\n    tag_32:\n        /* \"#utility.yul\":3025:3102   */\n      0x4e487b7100000000000000000000000000000000000000000000000000000000\n        /* \"#utility.yul\":3022:3023   */\n      0x00\n        /* \"#utility.yul\":3015:3103   */\n      mstore\n        /* \"#utility.yul\":3122:3126   */\n      0x11\n        /* \"#utility.yul\":3119:3120   */\n      0x04\n        /* \"#utility.yul\":3112:3127   */\n      mstore\n        /* \"#utility.yul\":3146:3150   */\n      0x24\n        /* \"#utility.yul\":3143:3144   */\n      0x00\n        /* \"#utility.yul\":3136:3151   */\n      revert\n        /* \"#utility.yul\":3163:3396   */\n    tag_18:\n        /* \"#utility.yul\":3202:3205   */\n      0x00\n        /* \"#utility.yul\":3225:3249   */\n      tag_67\n        /* \"#utility.yul\":3243:3248   */\n      dup3\n        /* \"#utility.yul\":3225:3249   */\n      tag_20\n      jump\t// in\n    tag_67:\n        /* \"#utility.yul\":3216:3249   */\n      swap2\n      pop\n        /* \"#utility.yul\":3271:3337   */\n      0xffffffffffffffffffffffffffffffffffffffffffffffffffffffffffffffff\n        /* \"#utility.yul\":3264:3269   */\n      dup3\n        /* \"#utility.yul\":3261:3338   */\n      sub\n        /* \"#utility.yul\":3258:3361   */\n      tag_68\n      jumpi\n        /* \"#utility.yul\":3341:3359   */\n      tag_69\n      tag_32\n      jump\t// in\n    tag_69:\n        /* \"#utility.yul\":3258:3361   */\n    tag_68:\n        /* \"#utility.yul\":3388:3389   */\n      0x01\n        /* \"#utility.yul\":3381:3386   */\n      dup3\n        /* \"#utility.yul\":3377:3390   */\n      add\n        /* \"#utility.yul\":3370:3390   */\n      swap1\n      pop\n        /* \"#utility.yul\":3163:3396   */\n      swap2\n      swap1\n      pop\n      jump\t// out\n\n    auxdata: 0xa2646970667358221220d717ed31a5f54997d02b2275b775e7d124102b2b0cce8063039608d30e0f7bad64736f6c634300081a0033\n}\n",
				"bytecode": {
					"linkReferences": {},
					"object": "6080604052348015600e575f80fd5b506102e58061001c5f395ff3fe608060405234801561000f575f80fd5b5060043610610034575f3560e01c80635902179c14610038578063f8136a4f14610057575b5f80fd5b610040610088565b60405161004e92919061017a565b60405180910390f35b610071600480360381019061006c91906101d6565b6100cb565b60405161007f929190610214565b60405180910390f35b5f6060601491506040518060400160405280600681526020017f797579656f6e000000000000000000000000000000000000000000000000000081525090509091565b5f80836100d790610268565b9350839150826100e690610268565b92508290509250929050565b5f819050919050565b610104816100f2565b82525050565b5f81519050919050565b5f82825260208201905092915050565b8281835e5f83830152505050565b5f601f19601f8301169050919050565b5f61014c8261010a565b6101568185610114565b9350610166818560208601610124565b61016f81610132565b840191505092915050565b5f60408201905061018d5f8301856100fb565b818103602083015261019f8184610142565b90509392505050565b5f80fd5b6101b5816100f2565b81146101bf575f80fd5b50565b5f813590506101d0816101ac565b92915050565b5f80604083850312156101ec576101eb6101a8565b5b5f6101f9858286016101c2565b925050602061020a858286016101c2565b9150509250929050565b5f6040820190506102275f8301856100fb565b61023460208301846100fb565b9392505050565b7f4e487b71000000000000000000000000000000000000000000000000000000005f52601160045260245ffd5b5f610272826100f2565b91507fffffffffffffffffffffffffffffffffffffffffffffffffffffffffffffffff82036102a4576102a361023b565b5b60018201905091905056fea2646970667358221220d717ed31a5f54997d02b2275b775e7d124102b2b0cce8063039608d30e0f7bad64736f6c634300081a0033",
					"opcodes": "PUSH1 0x80 PUSH1 0x40 MSTORE CALLVALUE DUP1 ISZERO PUSH1 0xE JUMPI PUSH0 DUP1 REVERT JUMPDEST POP PUSH2 0x2E5 DUP1 PUSH2 0x1C PUSH0 CODECOPY PUSH0 RETURN INVALID PUSH1 0x80 PUSH1 0x40 MSTORE CALLVALUE DUP1 ISZERO PUSH2 0xF JUMPI PUSH0 DUP1 REVERT JUMPDEST POP PUSH1 0x4 CALLDATASIZE LT PUSH2 0x34 JUMPI PUSH0 CALLDATALOAD PUSH1 0xE0 SHR DUP1 PUSH4 0x5902179C EQ PUSH2 0x38 JUMPI DUP1 PUSH4 0xF8136A4F EQ PUSH2 0x57 JUMPI JUMPDEST PUSH0 DUP1 REVERT JUMPDEST PUSH2 0x40 PUSH2 0x88 JUMP JUMPDEST PUSH1 0x40 MLOAD PUSH2 0x4E SWAP3 SWAP2 SWAP1 PUSH2 0x17A JUMP JUMPDEST PUSH1 0x40 MLOAD DUP1 SWAP2 SUB SWAP1 RETURN JUMPDEST PUSH2 0x71 PUSH1 0x4 DUP1 CALLDATASIZE SUB DUP2 ADD SWAP1 PUSH2 0x6C SWAP2 SWAP1 PUSH2 0x1D6 JUMP JUMPDEST PUSH2 0xCB JUMP JUMPDEST PUSH1 0x40 MLOAD PUSH2 0x7F SWAP3 SWAP2 SWAP1 PUSH2 0x214 JUMP JUMPDEST PUSH1 0x40 MLOAD DUP1 SWAP2 SUB SWAP1 RETURN JUMPDEST PUSH0 PUSH1 0x60 PUSH1 0x14 SWAP2 POP PUSH1 0x40 MLOAD DUP1 PUSH1 0x40 ADD PUSH1 0x40 MSTORE DUP1 PUSH1 0x6 DUP2 MSTORE PUSH1 0x20 ADD PUSH32 0x797579656F6E0000000000000000000000000000000000000000000000000000 DUP2 MSTORE POP SWAP1 POP SWAP1 SWAP2 JUMP JUMPDEST PUSH0 DUP1 DUP4 PUSH2 0xD7 SWAP1 PUSH2 0x268 JUMP JUMPDEST SWAP4 POP DUP4 SWAP2 POP DUP3 PUSH2 0xE6 SWAP1 PUSH2 0x268 JUMP JUMPDEST SWAP3 POP DUP3 SWAP1 POP SWAP3 POP SWAP3 SWAP1 POP JUMP JUMPDEST PUSH0 DUP2 SWAP1 POP SWAP2 SWAP1 POP JUMP JUMPDEST PUSH2 0x104 DUP2 PUSH2 0xF2 JUMP JUMPDEST DUP3 MSTORE POP POP JUMP JUMPDEST PUSH0 DUP2 MLOAD SWAP1 POP SWAP2 SWAP1 POP JUMP JUMPDEST PUSH0 DUP3 DUP3 MSTORE PUSH1 0x20 DUP3 ADD SWAP1 POP SWAP3 SWAP2 POP POP JUMP JUMPDEST DUP3 DUP2 DUP4 MCOPY PUSH0 DUP4 DUP4 ADD MSTORE POP POP POP JUMP JUMPDEST PUSH0 PUSH1 0x1F NOT PUSH1 0x1F DUP4 ADD AND SWAP1 POP SWAP2 SWAP1 POP JUMP JUMPDEST PUSH0 PUSH2 0x14C DUP3 PUSH2 0x10A JUMP JUMPDEST PUSH2 0x156 DUP2 DUP6 PUSH2 0x114 JUMP JUMPDEST SWAP4 POP PUSH2 0x166 DUP2 DUP6 PUSH1 0x20 DUP7 ADD PUSH2 0x124 JUMP JUMPDEST PUSH2 0x16F DUP2 PUSH2 0x132 JUMP JUMPDEST DUP5 ADD SWAP2 POP POP SWAP3 SWAP2 POP POP JUMP JUMPDEST PUSH0 PUSH1 0x40 DUP3 ADD SWAP1 POP PUSH2 0x18D PUSH0 DUP4 ADD DUP6 PUSH2 0xFB JUMP JUMPDEST DUP2 DUP2 SUB PUSH1 0x20 DUP4 ADD MSTORE PUSH2 0x19F DUP2 DUP5 PUSH2 0x142 JUMP JUMPDEST SWAP1 POP SWAP4 SWAP3 POP POP POP JUMP JUMPDEST PUSH0 DUP1 REVERT JUMPDEST PUSH2 0x1B5 DUP2 PUSH2 0xF2 JUMP JUMPDEST DUP2 EQ PUSH2 0x1BF JUMPI PUSH0 DUP1 REVERT JUMPDEST POP JUMP JUMPDEST PUSH0 DUP2 CALLDATALOAD SWAP1 POP PUSH2 0x1D0 DUP2 PUSH2 0x1AC JUMP JUMPDEST SWAP3 SWAP2 POP POP JUMP JUMPDEST PUSH0 DUP1 PUSH1 0x40 DUP4 DUP6 SUB SLT ISZERO PUSH2 0x1EC JUMPI PUSH2 0x1EB PUSH2 0x1A8 JUMP JUMPDEST JUMPDEST PUSH0 PUSH2 0x1F9 DUP6 DUP3 DUP7 ADD PUSH2 0x1C2 JUMP JUMPDEST SWAP3 POP POP PUSH1 0x20 PUSH2 0x20A DUP6 DUP3 DUP7 ADD PUSH2 0x1C2 JUMP JUMPDEST SWAP2 POP POP SWAP3 POP SWAP3 SWAP1 POP JUMP JUMPDEST PUSH0 PUSH1 0x40 DUP3 ADD SWAP1 POP PUSH2 0x227 PUSH0 DUP4 ADD DUP6 PUSH2 0xFB JUMP JUMPDEST PUSH2 0x234 PUSH1 0x20 DUP4 ADD DUP5 PUSH2 0xFB JUMP JUMPDEST SWAP4 SWAP3 POP POP POP JUMP JUMPDEST PUSH32 0x4E487B7100000000000000000000000000000000000000000000000000000000 PUSH0 MSTORE PUSH1 0x11 PUSH1 0x4 MSTORE PUSH1 0x24 PUSH0 REVERT JUMPDEST PUSH0 PUSH2 0x272 DUP3 PUSH2 0xF2 JUMP JUMPDEST SWAP2 POP PUSH32 0xFFFFFFFFFFFFFFFFFFFFFFFFFFFFFFFFFFFFFFFFFFFFFFFFFFFFFFFFFFFFFFFF DUP3 SUB PUSH2 0x2A4 JUMPI PUSH2 0x2A3 PUSH2 0x23B JUMP JUMPDEST JUMPDEST PUSH1 0x1 DUP3 ADD SWAP1 POP SWAP2 SWAP1 POP JUMP INVALID LOG2 PUSH5 0x6970667358 0x22 SLT KECCAK256 0xD7 OR 0xED BALANCE 0xA5 CREATE2 BLOBHASH SWAP8 0xD0 0x2B 0x22 PUSH22 0xB775E7D124102B2B0CCE8063039608D30E0F7BAD6473 PUSH16 0x6C634300081A00330000000000000000 "
				},
				"gasEstimates": {
					"creation": {
						"codeDepositCost": "148200",
						"executionCost": "194",
						"totalCost": "148394"
					},
					"external": {
						"Fun1(uint256,uint256)": "infinite",
						"Fun2()": "infinite"
					}
				},
				"methodIdentifiers": {
					"Fun1(uint256,uint256)": "f8136a4f",
					"Fun2()": "5902179c"
				}
			},
			"storageLayout": {
				"storage": [],
				"types": null
			},
			"userdoc": {
				"kind": "user",
				"methods": {},
				"version": 1
			}
		}
	}
}