{
	"week6_practice/error_RevertRequire.sol": {
		"Ex6_3": {
			"abi": [
				{
					"inputs": [
						{
							"internalType": "uint256",
							"name": "_num",
							"type": "uint256"
						}
					],
					"name": "runRequire",
					"outputs": [
						{
							"internalType": "uint256",
							"name": "",
							"type": "uint256"
						}
					],
					"stateMutability": "pure",
					"type": "function"
				},
				{
					"inputs": [
						{
							"internalType": "uint256",
							"name": "_num",
							"type": "uint256"
						}
					],
					"name": "runRevert",
					"outputs": [
						{
							"internalType": "uint256",
							"name": "",
							"type": "uint256"
						}
					],
					"stateMutability": "pure",
					"type": "function"
				}
			],
			"devdoc": {
				"kind": "dev",
				"methods": {},
				"version": 1
			},
			"evm": {
				"assembly": "    /* \"week6_practice/error_RevertRequire.sol\":72:419  contract Ex6_3{... */\n  mstore(0x40, 0x80)\n  callvalue\n  dup1\n  iszero\n  tag_1\n  jumpi\n  0x00\n  dup1\n  revert\ntag_1:\n  pop\n  dataSize(sub_0)\n  dup1\n  dataOffset(sub_0)\n  0x00\n  codecopy\n  0x00\n  return\nstop\n\nsub_0: assembly {\n        /* \"week6_practice/error_RevertRequire.sol\":72:419  contract Ex6_3{... */\n      mstore(0x40, 0x80)\n      callvalue\n      dup1\n      iszero\n      tag_1\n      jumpi\n      0x00\n      dup1\n      revert\n    tag_1:\n      pop\n      jumpi(tag_2, lt(calldatasize, 0x04))\n      shr(0xe0, calldataload(0x00))\n      dup1\n      0xa0c6ea13\n      eq\n      tag_3\n      jumpi\n      dup1\n      0xcd95d0cc\n      eq\n      tag_4\n      jumpi\n    tag_2:\n      0x00\n      dup1\n      revert\n        /* \"week6_practice/error_RevertRequire.sol\":93:248  function runRevert(uint _num) public pure returns(uint){... */\n    tag_3:\n      tag_5\n      0x04\n      dup1\n      calldatasize\n      sub\n      dup2\n      add\n      swap1\n      tag_6\n      swap2\n      swap1\n      tag_7\n      jump\t// in\n    tag_6:\n      tag_8\n      jump\t// in\n    tag_5:\n      mload(0x40)\n      tag_9\n      swap2\n      swap1\n      tag_10\n      jump\t// in\n    tag_9:\n      mload(0x40)\n      dup1\n      swap2\n      sub\n      swap1\n      return\n        /* \"week6_practice/error_RevertRequire.sol\":260:416  function runRequire(uint _num) public pure returns(uint){... */\n    tag_4:\n      tag_11\n      0x04\n      dup1\n      calldatasize\n      sub\n      dup2\n      add\n      swap1\n      tag_12\n      swap2\n      swap1\n      tag_7\n      jump\t// in\n    tag_12:\n      tag_13\n      jump\t// in\n    tag_11:\n      mload(0x40)\n      tag_14\n      swap2\n      swap1\n      tag_10\n      jump\t// in\n    tag_14:\n      mload(0x40)\n      dup1\n      swap2\n      sub\n      swap1\n      return\n        /* \"week6_practice/error_RevertRequire.sol\":93:248  function runRevert(uint _num) public pure returns(uint){... */\n    tag_8:\n        /* \"week6_practice/error_RevertRequire.sol\":143:147  uint */\n      0x00\n        /* \"week6_practice/error_RevertRequire.sol\":168:169  3 */\n      0x03\n        /* \"week6_practice/error_RevertRequire.sol\":162:166  _num */\n      dup3\n        /* \"week6_practice/error_RevertRequire.sol\":162:169  _num<=3 */\n      gt\n        /* \"week6_practice/error_RevertRequire.sol\":159:219  if(_num<=3){... */\n      tag_16\n      jumpi\n        /* \"week6_practice/error_RevertRequire.sol\":185:207  revert(\"Revert Error\") */\n      mload(0x40)\n      0x08c379a000000000000000000000000000000000000000000000000000000000\n      dup2\n      mstore\n      0x04\n      add\n      tag_17\n      swap1\n      tag_18\n      jump\t// in\n    tag_17:\n      mload(0x40)\n      dup1\n      swap2\n      sub\n      swap1\n      revert\n        /* \"week6_practice/error_RevertRequire.sol\":159:219  if(_num<=3){... */\n    tag_16:\n        /* \"week6_practice/error_RevertRequire.sol\":236:240  _num */\n      dup2\n        /* \"week6_practice/error_RevertRequire.sol\":229:240  return _num */\n      swap1\n      pop\n        /* \"week6_practice/error_RevertRequire.sol\":93:248  function runRevert(uint _num) public pure returns(uint){... */\n      swap2\n      swap1\n      pop\n      jump\t// out\n        /* \"week6_practice/error_RevertRequire.sol\":260:416  function runRequire(uint _num) public pure returns(uint){... */\n    tag_13:\n        /* \"week6_practice/error_RevertRequire.sol\":311:315  uint */\n      0x00\n        /* \"week6_practice/error_RevertRequire.sol\":335:336  3 */\n      0x03\n        /* \"week6_practice/error_RevertRequire.sol\":330:334  _num */\n      dup3\n        /* \"week6_practice/error_RevertRequire.sol\":330:336  _num>3 */\n      gt\n        /* \"week6_practice/error_RevertRequire.sol\":327:387  if(_num>3){... */\n      iszero\n      tag_20\n      jumpi\n        /* \"week6_practice/error_RevertRequire.sol\":352:375  revert(\"Require Error\") */\n      mload(0x40)\n      0x08c379a000000000000000000000000000000000000000000000000000000000\n      dup2\n      mstore\n      0x04\n      add\n      tag_21\n      swap1\n      tag_22\n      jump\t// in\n    tag_21:\n      mload(0x40)\n      dup1\n      swap2\n      sub\n      swap1\n      revert\n        /* \"week6_practice/error_RevertRequire.sol\":327:387  if(_num>3){... */\n    tag_20:\n        /* \"week6_practice/error_RevertRequire.sol\":404:408  _num */\n      dup2\n        /* \"week6_practice/error_RevertRequire.sol\":397:408  return _num */\n      swap1\n      pop\n        /* \"week6_practice/error_RevertRequire.sol\":260:416  function runRequire(uint _num) public pure returns(uint){... */\n      swap2\n      swap1\n      pop\n      jump\t// out\n        /* \"#utility.yul\":88:205   */\n    tag_24:\n        /* \"#utility.yul\":197:198   */\n      0x00\n        /* \"#utility.yul\":194:195   */\n      dup1\n        /* \"#utility.yul\":187:199   */\n      revert\n        /* \"#utility.yul\":334:411   */\n    tag_26:\n        /* \"#utility.yul\":371:378   */\n      0x00\n        /* \"#utility.yul\":400:405   */\n      dup2\n        /* \"#utility.yul\":389:405   */\n      swap1\n      pop\n        /* \"#utility.yul\":334:411   */\n      swap2\n      swap1\n      pop\n      jump\t// out\n        /* \"#utility.yul\":417:539   */\n    tag_27:\n        /* \"#utility.yul\":490:514   */\n      tag_41\n        /* \"#utility.yul\":508:513   */\n      dup2\n        /* \"#utility.yul\":490:514   */\n      tag_26\n      jump\t// in\n    tag_41:\n        /* \"#utility.yul\":483:488   */\n      dup2\n        /* \"#utility.yul\":480:515   */\n      eq\n        /* \"#utility.yul\":470:533   */\n      tag_42\n      jumpi\n        /* \"#utility.yul\":529:530   */\n      0x00\n        /* \"#utility.yul\":526:527   */\n      dup1\n        /* \"#utility.yul\":519:531   */\n      revert\n        /* \"#utility.yul\":470:533   */\n    tag_42:\n        /* \"#utility.yul\":417:539   */\n      pop\n      jump\t// out\n        /* \"#utility.yul\":545:684   */\n    tag_28:\n        /* \"#utility.yul\":591:596   */\n      0x00\n        /* \"#utility.yul\":629:635   */\n      dup2\n        /* \"#utility.yul\":616:636   */\n      calldataload\n        /* \"#utility.yul\":607:636   */\n      swap1\n      pop\n        /* \"#utility.yul\":645:678   */\n      tag_44\n        /* \"#utility.yul\":672:677   */\n      dup2\n        /* \"#utility.yul\":645:678   */\n      tag_27\n      jump\t// in\n    tag_44:\n        /* \"#utility.yul\":545:684   */\n      swap3\n      swap2\n      pop\n      pop\n      jump\t// out\n        /* \"#utility.yul\":690:1019   */\n    tag_7:\n        /* \"#utility.yul\":749:755   */\n      0x00\n        /* \"#utility.yul\":798:800   */\n      0x20\n        /* \"#utility.yul\":786:795   */\n      dup3\n        /* \"#utility.yul\":777:784   */\n      dup5\n        /* \"#utility.yul\":773:796   */\n      sub\n        /* \"#utility.yul\":769:801   */\n      slt\n        /* \"#utility.yul\":766:885   */\n      iszero\n      tag_46\n      jumpi\n        /* \"#utility.yul\":804:883   */\n      tag_47\n      tag_24\n      jump\t// in\n    tag_47:\n        /* \"#utility.yul\":766:885   */\n    tag_46:\n        /* \"#utility.yul\":924:925   */\n      0x00\n        /* \"#utility.yul\":949:1002   */\n      tag_48\n        /* \"#utility.yul\":994:1001   */\n      dup5\n        /* \"#utility.yul\":985:991   */\n      dup3\n        /* \"#utility.yul\":974:983   */\n      dup6\n        /* \"#utility.yul\":970:992   */\n      add\n        /* \"#utility.yul\":949:1002   */\n      tag_28\n      jump\t// in\n    tag_48:\n        /* \"#utility.yul\":939:1002   */\n      swap2\n      pop\n        /* \"#utility.yul\":895:1012   */\n      pop\n        /* \"#utility.yul\":690:1019   */\n      swap3\n      swap2\n      pop\n      pop\n      jump\t// out\n        /* \"#utility.yul\":1025:1143   */\n    tag_29:\n        /* \"#utility.yul\":1112:1136   */\n      tag_50\n        /* \"#utility.yul\":1130:1135   */\n      dup2\n        /* \"#utility.yul\":1112:1136   */\n      tag_26\n      jump\t// in\n    tag_50:\n        /* \"#utility.yul\":1107:1110   */\n      dup3\n        /* \"#utility.yul\":1100:1137   */\n      mstore\n        /* \"#utility.yul\":1025:1143   */\n      pop\n      pop\n      jump\t// out\n        /* \"#utility.yul\":1149:1371   */\n    tag_10:\n        /* \"#utility.yul\":1242:1246   */\n      0x00\n        /* \"#utility.yul\":1280:1282   */\n      0x20\n        /* \"#utility.yul\":1269:1278   */\n      dup3\n        /* \"#utility.yul\":1265:1283   */\n      add\n        /* \"#utility.yul\":1257:1283   */\n      swap1\n      pop\n        /* \"#utility.yul\":1293:1364   */\n      tag_52\n        /* \"#utility.yul\":1361:1362   */\n      0x00\n        /* \"#utility.yul\":1350:1359   */\n      dup4\n        /* \"#utility.yul\":1346:1363   */\n      add\n        /* \"#utility.yul\":1337:1343   */\n      dup5\n        /* \"#utility.yul\":1293:1364   */\n      tag_29\n      jump\t// in\n    tag_52:\n        /* \"#utility.yul\":1149:1371   */\n      swap3\n      swap2\n      pop\n      pop\n      jump\t// out\n        /* \"#utility.yul\":1377:1546   */\n    tag_30:\n        /* \"#utility.yul\":1461:1472   */\n      0x00\n        /* \"#utility.yul\":1495:1501   */\n      dup3\n        /* \"#utility.yul\":1490:1493   */\n      dup3\n        /* \"#utility.yul\":1483:1502   */\n      mstore\n        /* \"#utility.yul\":1535:1539   */\n      0x20\n        /* \"#utility.yul\":1530:1533   */\n      dup3\n        /* \"#utility.yul\":1526:1540   */\n      add\n        /* \"#utility.yul\":1511:1540   */\n      swap1\n      pop\n        /* \"#utility.yul\":1377:1546   */\n      swap3\n      swap2\n      pop\n      pop\n      jump\t// out\n        /* \"#utility.yul\":1552:1714   */\n    tag_31:\n        /* \"#utility.yul\":1692:1706   */\n      0x526576657274204572726f720000000000000000000000000000000000000000\n        /* \"#utility.yul\":1688:1689   */\n      0x00\n        /* \"#utility.yul\":1680:1686   */\n      dup3\n        /* \"#utility.yul\":1676:1690   */\n      add\n        /* \"#utility.yul\":1669:1707   */\n      mstore\n        /* \"#utility.yul\":1552:1714   */\n      pop\n      jump\t// out\n        /* \"#utility.yul\":1720:2086   */\n    tag_32:\n        /* \"#utility.yul\":1862:1865   */\n      0x00\n        /* \"#utility.yul\":1883:1950   */\n      tag_56\n        /* \"#utility.yul\":1947:1949   */\n      0x0c\n        /* \"#utility.yul\":1942:1945   */\n      dup4\n        /* \"#utility.yul\":1883:1950   */\n      tag_30\n      jump\t// in\n    tag_56:\n        /* \"#utility.yul\":1876:1950   */\n      swap2\n      pop\n        /* \"#utility.yul\":1959:2052   */\n      tag_57\n        /* \"#utility.yul\":2048:2051   */\n      dup3\n        /* \"#utility.yul\":1959:2052   */\n      tag_31\n      jump\t// in\n    tag_57:\n        /* \"#utility.yul\":2077:2079   */\n      0x20\n        /* \"#utility.yul\":2072:2075   */\n      dup3\n        /* \"#utility.yul\":2068:2080   */\n      add\n        /* \"#utility.yul\":2061:2080   */\n      swap1\n      pop\n        /* \"#utility.yul\":1720:2086   */\n      swap2\n      swap1\n      pop\n      jump\t// out\n        /* \"#utility.yul\":2092:2511   */\n    tag_18:\n        /* \"#utility.yul\":2258:2262   */\n      0x00\n        /* \"#utility.yul\":2296:2298   */\n      0x20\n        /* \"#utility.yul\":2285:2294   */\n      dup3\n        /* \"#utility.yul\":2281:2299   */\n      add\n        /* \"#utility.yul\":2273:2299   */\n      swap1\n      pop\n        /* \"#utility.yul\":2345:2354   */\n      dup2\n        /* \"#utility.yul\":2339:2343   */\n      dup2\n        /* \"#utility.yul\":2335:2355   */\n      sub\n        /* \"#utility.yul\":2331:2332   */\n      0x00\n        /* \"#utility.yul\":2320:2329   */\n      dup4\n        /* \"#utility.yul\":2316:2333   */\n      add\n        /* \"#utility.yul\":2309:2356   */\n      mstore\n        /* \"#utility.yul\":2373:2504   */\n      tag_59\n        /* \"#utility.yul\":2499:2503   */\n      dup2\n        /* \"#utility.yul\":2373:2504   */\n      tag_32\n      jump\t// in\n    tag_59:\n        /* \"#utility.yul\":2365:2504   */\n      swap1\n      pop\n        /* \"#utility.yul\":2092:2511   */\n      swap2\n      swap1\n      pop\n      jump\t// out\n        /* \"#utility.yul\":2517:2680   */\n    tag_33:\n        /* \"#utility.yul\":2657:2672   */\n      0x52657175697265204572726f7200000000000000000000000000000000000000\n        /* \"#utility.yul\":2653:2654   */\n      0x00\n        /* \"#utility.yul\":2645:2651   */\n      dup3\n        /* \"#utility.yul\":2641:2655   */\n      add\n        /* \"#utility.yul\":2634:2673   */\n      mstore\n        /* \"#utility.yul\":2517:2680   */\n      pop\n      jump\t// out\n        /* \"#utility.yul\":2686:3052   */\n    tag_34:\n        /* \"#utility.yul\":2828:2831   */\n      0x00\n        /* \"#utility.yul\":2849:2916   */\n      tag_62\n        /* \"#utility.yul\":2913:2915   */\n      0x0d\n        /* \"#utility.yul\":2908:2911   */\n      dup4\n        /* \"#utility.yul\":2849:2916   */\n      tag_30\n      jump\t// in\n    tag_62:\n        /* \"#utility.yul\":2842:2916   */\n      swap2\n      pop\n        /* \"#utility.yul\":2925:3018   */\n      tag_63\n        /* \"#utility.yul\":3014:3017   */\n      dup3\n        /* \"#utility.yul\":2925:3018   */\n      tag_33\n      jump\t// in\n    tag_63:\n        /* \"#utility.yul\":3043:3045   */\n      0x20\n        /* \"#utility.yul\":3038:3041   */\n      dup3\n        /* \"#utility.yul\":3034:3046   */\n      add\n        /* \"#utility.yul\":3027:3046   */\n      swap1\n      pop\n        /* \"#utility.yul\":2686:3052   */\n      swap2\n      swap1\n      pop\n      jump\t// out\n        /* \"#utility.yul\":3058:3477   */\n    tag_22:\n        /* \"#utility.yul\":3224:3228   */\n      0x00\n        /* \"#utility.yul\":3262:3264   */\n      0x20\n        /* \"#utility.yul\":3251:3260   */\n      dup3\n        /* \"#utility.yul\":3247:3265   */\n      add\n        /* \"#utility.yul\":3239:3265   */\n      swap1\n      pop\n        /* \"#utility.yul\":3311:3320   */\n      dup2\n        /* \"#utility.yul\":3305:3309   */\n      dup2\n        /* \"#utility.yul\":3301:3321   */\n      sub\n        /* \"#utility.yul\":3297:3298   */\n      0x00\n        /* \"#utility.yul\":3286:3295   */\n      dup4\n        /* \"#utility.yul\":3282:3299   */\n      add\n        /* \"#utility.yul\":3275:3322   */\n      mstore\n        /* \"#utility.yul\":3339:3470   */\n      tag_65\n        /* \"#utility.yul\":3465:3469   */\n      dup2\n        /* \"#utility.yul\":3339:3470   */\n      tag_34\n      jump\t// in\n    tag_65:\n        /* \"#utility.yul\":3331:3470   */\n      swap1\n      pop\n        /* \"#utility.yul\":3058:3477   */\n      swap2\n      swap1\n      pop\n      jump\t// out\n\n    auxdata: 0xa2646970667358221220d528e4802b84361bfc261003d5e282c72075464983b86f47176693a41851535c64736f6c634300081a0033\n}\n",
				"bytecode": {
					"linkReferences": {},
					"object": "6080604052348015600e575f80fd5b506102d18061001c5f395ff3fe608060405234801561000f575f80fd5b5060043610610034575f3560e01c8063a0c6ea1314610038578063cd95d0cc14610068575b5f80fd5b610052600480360381019061004d9190610168565b610098565b60405161005f91906101a2565b60405180910390f35b610082600480360381019061007d9190610168565b6100e4565b60405161008f91906101a2565b60405180910390f35b5f600382116100dc576040517f08c379a00000000000000000000000000000000000000000000000000000000081526004016100d390610215565b60405180910390fd5b819050919050565b5f6003821115610129576040517f08c379a00000000000000000000000000000000000000000000000000000000081526004016101209061027d565b60405180910390fd5b819050919050565b5f80fd5b5f819050919050565b61014781610135565b8114610151575f80fd5b50565b5f813590506101628161013e565b92915050565b5f6020828403121561017d5761017c610131565b5b5f61018a84828501610154565b91505092915050565b61019c81610135565b82525050565b5f6020820190506101b55f830184610193565b92915050565b5f82825260208201905092915050565b7f526576657274204572726f7200000000000000000000000000000000000000005f82015250565b5f6101ff600c836101bb565b915061020a826101cb565b602082019050919050565b5f6020820190508181035f83015261022c816101f3565b9050919050565b7f52657175697265204572726f72000000000000000000000000000000000000005f82015250565b5f610267600d836101bb565b915061027282610233565b602082019050919050565b5f6020820190508181035f8301526102948161025b565b905091905056fea2646970667358221220d528e4802b84361bfc261003d5e282c72075464983b86f47176693a41851535c64736f6c634300081a0033",
					"opcodes": "PUSH1 0x80 PUSH1 0x40 MSTORE CALLVALUE DUP1 ISZERO PUSH1 0xE JUMPI PUSH0 DUP1 REVERT JUMPDEST POP PUSH2 0x2D1 DUP1 PUSH2 0x1C PUSH0 CODECOPY PUSH0 RETURN INVALID PUSH1 0x80 PUSH1 0x40 MSTORE CALLVALUE DUP1 ISZERO PUSH2 0xF JUMPI PUSH0 DUP1 REVERT JUMPDEST POP PUSH1 0x4 CALLDATASIZE LT PUSH2 0x34 JUMPI PUSH0 CALLDATALOAD PUSH1 0xE0 SHR DUP1 PUSH4 0xA0C6EA13 EQ PUSH2 0x38 JUMPI DUP1 PUSH4 0xCD95D0CC EQ PUSH2 0x68 JUMPI JUMPDEST PUSH0 DUP1 REVERT JUMPDEST PUSH2 0x52 PUSH1 0x4 DUP1 CALLDATASIZE SUB DUP2 ADD SWAP1 PUSH2 0x4D SWAP2 SWAP1 PUSH2 0x168 JUMP JUMPDEST PUSH2 0x98 JUMP JUMPDEST PUSH1 0x40 MLOAD PUSH2 0x5F SWAP2 SWAP1 PUSH2 0x1A2 JUMP JUMPDEST PUSH1 0x40 MLOAD DUP1 SWAP2 SUB SWAP1 RETURN JUMPDEST PUSH2 0x82 PUSH1 0x4 DUP1 CALLDATASIZE SUB DUP2 ADD SWAP1 PUSH2 0x7D SWAP2 SWAP1 PUSH2 0x168 JUMP JUMPDEST PUSH2 0xE4 JUMP JUMPDEST PUSH1 0x40 MLOAD PUSH2 0x8F SWAP2 SWAP1 PUSH2 0x1A2 JUMP JUMPDEST PUSH1 0x40 MLOAD DUP1 SWAP2 SUB SWAP1 RETURN JUMPDEST PUSH0 PUSH1 0x3 DUP3 GT PUSH2 0xDC JUMPI PUSH1 0x40 MLOAD PUSH32 0x8C379A000000000000000000000000000000000000000000000000000000000 DUP2 MSTORE PUSH1 0x4 ADD PUSH2 0xD3 SWAP1 PUSH2 0x215 JUMP JUMPDEST PUSH1 0x40 MLOAD DUP1 SWAP2 SUB SWAP1 REVERT JUMPDEST DUP2 SWAP1 POP SWAP2 SWAP1 POP JUMP JUMPDEST PUSH0 PUSH1 0x3 DUP3 GT ISZERO PUSH2 0x129 JUMPI PUSH1 0x40 MLOAD PUSH32 0x8C379A000000000000000000000000000000000000000000000000000000000 DUP2 MSTORE PUSH1 0x4 ADD PUSH2 0x120 SWAP1 PUSH2 0x27D JUMP JUMPDEST PUSH1 0x40 MLOAD DUP1 SWAP2 SUB SWAP1 REVERT JUMPDEST DUP2 SWAP1 POP SWAP2 SWAP1 POP JUMP JUMPDEST PUSH0 DUP1 REVERT JUMPDEST PUSH0 DUP2 SWAP1 POP SWAP2 SWAP1 POP JUMP JUMPDEST PUSH2 0x147 DUP2 PUSH2 0x135 JUMP JUMPDEST DUP2 EQ PUSH2 0x151 JUMPI PUSH0 DUP1 REVERT JUMPDEST POP JUMP JUMPDEST PUSH0 DUP2 CALLDATALOAD SWAP1 POP PUSH2 0x162 DUP2 PUSH2 0x13E JUMP JUMPDEST SWAP3 SWAP2 POP POP JUMP JUMPDEST PUSH0 PUSH1 0x20 DUP3 DUP5 SUB SLT ISZERO PUSH2 0x17D JUMPI PUSH2 0x17C PUSH2 0x131 JUMP JUMPDEST JUMPDEST PUSH0 PUSH2 0x18A DUP5 DUP3 DUP6 ADD PUSH2 0x154 JUMP JUMPDEST SWAP2 POP POP SWAP3 SWAP2 POP POP JUMP JUMPDEST PUSH2 0x19C DUP2 PUSH2 0x135 JUMP JUMPDEST DUP3 MSTORE POP POP JUMP JUMPDEST PUSH0 PUSH1 0x20 DUP3 ADD SWAP1 POP PUSH2 0x1B5 PUSH0 DUP4 ADD DUP5 PUSH2 0x193 JUMP JUMPDEST SWAP3 SWAP2 POP POP JUMP JUMPDEST PUSH0 DUP3 DUP3 MSTORE PUSH1 0x20 DUP3 ADD SWAP1 POP SWAP3 SWAP2 POP POP JUMP JUMPDEST PUSH32 0x526576657274204572726F720000000000000000000000000000000000000000 PUSH0 DUP3 ADD MSTORE POP JUMP JUMPDEST PUSH0 PUSH2 0x1FF PUSH1 0xC DUP4 PUSH2 0x1BB JUMP JUMPDEST SWAP2 POP PUSH2 0x20A DUP3 PUSH2 0x1CB JUMP JUMPDEST PUSH1 0x20 DUP3 ADD SWAP1 POP SWAP2 SWAP1 POP JUMP JUMPDEST PUSH0 PUSH1 0x20 DUP3 ADD SWAP1 POP DUP2 DUP2 SUB PUSH0 DUP4 ADD MSTORE PUSH2 0x22C DUP2 PUSH2 0x1F3 JUMP JUMPDEST SWAP1 POP SWAP2 SWAP1 POP JUMP JUMPDEST PUSH32 0x52657175697265204572726F7200000000000000000000000000000000000000 PUSH0 DUP3 ADD MSTORE POP JUMP JUMPDEST PUSH0 PUSH2 0x267 PUSH1 0xD DUP4 PUSH2 0x1BB JUMP JUMPDEST SWAP2 POP PUSH2 0x272 DUP3 PUSH2 0x233 JUMP JUMPDEST PUSH1 0x20 DUP3 ADD SWAP1 POP SWAP2 SWAP1 POP JUMP JUMPDEST PUSH0 PUSH1 0x20 DUP3 ADD SWAP1 POP DUP2 DUP2 SUB PUSH0 DUP4 ADD MSTORE PUSH2 0x294 DUP2 PUSH2 0x25B JUMP JUMPDEST SWAP1 POP SWAP2 SWAP1 POP JUMP INVALID LOG2 PUSH5 0x6970667358 0x22 SLT KECCAK256 0xD5 0x28 0xE4 DUP1 0x2B DUP5 CALLDATASIZE SHL 0xFC 0x26 LT SUB 0xD5 0xE2 DUP3 0xC7 KECCAK256 PUSH22 0x464983B86F47176693A41851535C64736F6C63430008 BYTE STOP CALLER "
				},
				"gasEstimates": {
					"creation": {
						"codeDepositCost": "144200",
						"executionCost": "188",
						"totalCost": "144388"
					},
					"external": {
						"runRequire(uint256)": "infinite",
						"runRevert(uint256)": "infinite"
					}
				},
				"methodIdentifiers": {
					"runRequire(uint256)": "cd95d0cc",
					"runRevert(uint256)": "a0c6ea13"
				}
			},
			"storageLayout": {
				"storage": [],
				"types": null
			},
			"userdoc": {
				"kind": "user",
				"methods": {},
				"version": 1
			}
		}
	}
}