{
	"week6_practice/ex5_9.sol": {
		"Ex5_9": {
			"abi": [
				{
					"inputs": [
						{
							"internalType": "string",
							"name": "_name",
							"type": "string"
						},
						{
							"internalType": "uint256",
							"name": "_age",
							"type": "uint256"
						}
					],
					"name": "addArray",
					"outputs": [],
					"stateMutability": "nonpayable",
					"type": "function"
				},
				{
					"inputs": [
						{
							"internalType": "address",
							"name": "_key",
							"type": "address"
						},
						{
							"internalType": "string",
							"name": "_name",
							"type": "string"
						},
						{
							"internalType": "uint256",
							"name": "_age",
							"type": "uint256"
						}
					],
					"name": "addMapping",
					"outputs": [],
					"stateMutability": "nonpayable",
					"type": "function"
				},
				{
					"inputs": [
						{
							"internalType": "uint256",
							"name": "_index",
							"type": "uint256"
						}
					],
					"name": "getArrayName",
					"outputs": [
						{
							"internalType": "string",
							"name": "",
							"type": "string"
						}
					],
					"stateMutability": "view",
					"type": "function"
				},
				{
					"inputs": [
						{
							"internalType": "address",
							"name": "_key",
							"type": "address"
						}
					],
					"name": "getMappingName",
					"outputs": [
						{
							"internalType": "string",
							"name": "",
							"type": "string"
						}
					],
					"stateMutability": "view",
					"type": "function"
				},
				{
					"inputs": [
						{
							"internalType": "uint256",
							"name": "",
							"type": "uint256"
						}
					],
					"name": "humanArray",
					"outputs": [
						{
							"internalType": "string",
							"name": "name",
							"type": "string"
						},
						{
							"internalType": "uint256",
							"name": "age",
							"type": "uint256"
						}
					],
					"stateMutability": "view",
					"type": "function"
				},
				{
					"inputs": [
						{
							"internalType": "address",
							"name": "",
							"type": "address"
						}
					],
					"name": "humanMapping",
					"outputs": [
						{
							"internalType": "string",
							"name": "name",
							"type": "string"
						},
						{
							"internalType": "uint256",
							"name": "age",
							"type": "uint256"
						}
					],
					"stateMutability": "view",
					"type": "function"
				}
			],
			"devdoc": {
				"kind": "dev",
				"methods": {},
				"version": 1
			},
			"evm": {
				"assembly": "    /* \"week6_practice/ex5_9.sol\":117:808  contract Ex5_9 {... */\n  mstore(0x40, 0x80)\n  callvalue\n  dup1\n  iszero\n  tag_1\n  jumpi\n  0x00\n  dup1\n  revert\ntag_1:\n  pop\n  dataSize(sub_0)\n  dup1\n  dataOffset(sub_0)\n  0x00\n  codecopy\n  0x00\n  return\nstop\n\nsub_0: assembly {\n        /* \"week6_practice/ex5_9.sol\":117:808  contract Ex5_9 {... */\n      mstore(0x40, 0x80)\n      callvalue\n      dup1\n      iszero\n      tag_1\n      jumpi\n      0x00\n      dup1\n      revert\n    tag_1:\n      pop\n      jumpi(tag_2, lt(calldatasize, 0x04))\n      shr(0xe0, calldataload(0x00))\n      dup1\n      0x0d3de88d\n      eq\n      tag_3\n      jumpi\n      dup1\n      0x0e0c243d\n      eq\n      tag_4\n      jumpi\n      dup1\n      0x4b61dd34\n      eq\n      tag_5\n      jumpi\n      dup1\n      0xa677c48f\n      eq\n      tag_6\n      jumpi\n      dup1\n      0xa857bf32\n      eq\n      tag_7\n      jumpi\n      dup1\n      0xb9d6dedb\n      eq\n      tag_8\n      jumpi\n    tag_2:\n      0x00\n      dup1\n      revert\n        /* \"week6_practice/ex5_9.sol\":306:417  function addArray(string memory _name, uint _age) public {... */\n    tag_3:\n      tag_9\n      0x04\n      dup1\n      calldatasize\n      sub\n      dup2\n      add\n      swap1\n      tag_10\n      swap2\n      swap1\n      tag_11\n      jump\t// in\n    tag_10:\n      tag_12\n      jump\t// in\n    tag_9:\n      stop\n        /* \"week6_practice/ex5_9.sol\":549:676  function addMapping(address _key, string memory _name, uint _age) public{... */\n    tag_4:\n      tag_13\n      0x04\n      dup1\n      calldatasize\n      sub\n      dup2\n      add\n      swap1\n      tag_14\n      swap2\n      swap1\n      tag_15\n      jump\t// in\n    tag_14:\n      tag_16\n      jump\t// in\n    tag_13:\n      stop\n        /* \"week6_practice/ex5_9.sol\":682:803  function getMappingName(address _key) public view returns(string memory){... */\n    tag_5:\n      tag_17\n      0x04\n      dup1\n      calldatasize\n      sub\n      dup2\n      add\n      swap1\n      tag_18\n      swap2\n      swap1\n      tag_19\n      jump\t// in\n    tag_18:\n      tag_20\n      jump\t// in\n    tag_17:\n      mload(0x40)\n      tag_21\n      swap2\n      swap1\n      tag_22\n      jump\t// in\n    tag_21:\n      mload(0x40)\n      dup1\n      swap2\n      sub\n      swap1\n      return\n        /* \"week6_practice/ex5_9.sol\":423:541  function getArrayName(uint _index) public view returns(string memory){... */\n    tag_6:\n      tag_23\n      0x04\n      dup1\n      calldatasize\n      sub\n      dup2\n      add\n      swap1\n      tag_24\n      swap2\n      swap1\n      tag_25\n      jump\t// in\n    tag_24:\n      tag_26\n      jump\t// in\n    tag_23:\n      mload(0x40)\n      tag_27\n      swap2\n      swap1\n      tag_22\n      jump\t// in\n    tag_27:\n      mload(0x40)\n      dup1\n      swap2\n      sub\n      swap1\n      return\n        /* \"week6_practice/ex5_9.sol\":254:297  mapping(address=>Human) public humanMapping */\n    tag_7:\n      tag_28\n      0x04\n      dup1\n      calldatasize\n      sub\n      dup2\n      add\n      swap1\n      tag_29\n      swap2\n      swap1\n      tag_19\n      jump\t// in\n    tag_29:\n      tag_30\n      jump\t// in\n    tag_28:\n      mload(0x40)\n      tag_31\n      swap3\n      swap2\n      swap1\n      tag_32\n      jump\t// in\n    tag_31:\n      mload(0x40)\n      dup1\n      swap2\n      sub\n      swap1\n      return\n        /* \"week6_practice/ex5_9.sol\":207:232  Human[] public humanArray */\n    tag_8:\n      tag_33\n      0x04\n      dup1\n      calldatasize\n      sub\n      dup2\n      add\n      swap1\n      tag_34\n      swap2\n      swap1\n      tag_25\n      jump\t// in\n    tag_34:\n      tag_35\n      jump\t// in\n    tag_33:\n      mload(0x40)\n      tag_36\n      swap3\n      swap2\n      swap1\n      tag_32\n      jump\t// in\n    tag_36:\n      mload(0x40)\n      dup1\n      swap2\n      sub\n      swap1\n      return\n        /* \"week6_practice/ex5_9.sol\":306:417  function addArray(string memory _name, uint _age) public {... */\n    tag_12:\n        /* \"week6_practice/ex5_9.sol\":374:384  humanArray */\n      0x00\n        /* \"week6_practice/ex5_9.sol\":390:408  Human(_name, _age) */\n      mload(0x40)\n      dup1\n      0x40\n      add\n      0x40\n      mstore\n      dup1\n        /* \"week6_practice/ex5_9.sol\":396:401  _name */\n      dup5\n        /* \"week6_practice/ex5_9.sol\":390:408  Human(_name, _age) */\n      dup2\n      mstore\n      0x20\n      add\n        /* \"week6_practice/ex5_9.sol\":403:407  _age */\n      dup4\n        /* \"week6_practice/ex5_9.sol\":390:408  Human(_name, _age) */\n      dup2\n      mstore\n      pop\n        /* \"week6_practice/ex5_9.sol\":374:409  humanArray.push(Human(_name, _age)) */\n      swap1\n      dup1\n      0x01\n      dup2\n      sload\n      add\n      dup1\n      dup3\n      sstore\n      dup1\n      swap2\n      pop\n      pop\n      0x01\n      swap1\n      sub\n      swap1\n      0x00\n      mstore\n      keccak256(0x00, 0x20)\n      swap1\n      0x02\n      mul\n      add\n      0x00\n      swap1\n      swap2\n      swap1\n      swap2\n      swap1\n      swap2\n      pop\n      0x00\n      dup3\n      add\n      mload\n      dup2\n      0x00\n      add\n      swap1\n      dup2\n      tag_39\n      swap2\n      swap1\n      tag_40\n      jump\t// in\n    tag_39:\n      pop\n      0x20\n      dup3\n      add\n      mload\n      dup2\n      0x01\n      add\n      sstore\n      pop\n      pop\n        /* \"week6_practice/ex5_9.sol\":306:417  function addArray(string memory _name, uint _age) public {... */\n      pop\n      pop\n      jump\t// out\n        /* \"week6_practice/ex5_9.sol\":549:676  function addMapping(address _key, string memory _name, uint _age) public{... */\n    tag_16:\n        /* \"week6_practice/ex5_9.sol\":651:668  Human(_name,_age) */\n      mload(0x40)\n      dup1\n      0x40\n      add\n      0x40\n      mstore\n      dup1\n        /* \"week6_practice/ex5_9.sol\":657:662  _name */\n      dup4\n        /* \"week6_practice/ex5_9.sol\":651:668  Human(_name,_age) */\n      dup2\n      mstore\n      0x20\n      add\n        /* \"week6_practice/ex5_9.sol\":663:667  _age */\n      dup3\n        /* \"week6_practice/ex5_9.sol\":651:668  Human(_name,_age) */\n      dup2\n      mstore\n      pop\n        /* \"week6_practice/ex5_9.sol\":632:644  humanMapping */\n      0x01\n        /* \"week6_practice/ex5_9.sol\":632:650  humanMapping[_key] */\n      0x00\n        /* \"week6_practice/ex5_9.sol\":645:649  _key */\n      dup6\n        /* \"week6_practice/ex5_9.sol\":632:650  humanMapping[_key] */\n      0xffffffffffffffffffffffffffffffffffffffff\n      and\n      0xffffffffffffffffffffffffffffffffffffffff\n      and\n      dup2\n      mstore\n      0x20\n      add\n      swap1\n      dup2\n      mstore\n      0x20\n      add\n      0x00\n      keccak256\n        /* \"week6_practice/ex5_9.sol\":632:668  humanMapping[_key]=Human(_name,_age) */\n      0x00\n      dup3\n      add\n      mload\n      dup2\n      0x00\n      add\n      swap1\n      dup2\n      tag_42\n      swap2\n      swap1\n      tag_40\n      jump\t// in\n    tag_42:\n      pop\n      0x20\n      dup3\n      add\n      mload\n      dup2\n      0x01\n      add\n      sstore\n      swap1\n      pop\n      pop\n        /* \"week6_practice/ex5_9.sol\":549:676  function addMapping(address _key, string memory _name, uint _age) public{... */\n      pop\n      pop\n      pop\n      jump\t// out\n        /* \"week6_practice/ex5_9.sol\":682:803  function getMappingName(address _key) public view returns(string memory){... */\n    tag_20:\n        /* \"week6_practice/ex5_9.sol\":740:753  string memory */\n      0x60\n        /* \"week6_practice/ex5_9.sol\":772:784  humanMapping */\n      0x01\n        /* \"week6_practice/ex5_9.sol\":772:790  humanMapping[_key] */\n      0x00\n        /* \"week6_practice/ex5_9.sol\":785:789  _key */\n      dup4\n        /* \"week6_practice/ex5_9.sol\":772:790  humanMapping[_key] */\n      0xffffffffffffffffffffffffffffffffffffffff\n      and\n      0xffffffffffffffffffffffffffffffffffffffff\n      and\n      dup2\n      mstore\n      0x20\n      add\n      swap1\n      dup2\n      mstore\n      0x20\n      add\n      0x00\n      keccak256\n        /* \"week6_practice/ex5_9.sol\":772:795  humanMapping[_key].name */\n      0x00\n      add\n        /* \"week6_practice/ex5_9.sol\":765:795  return humanMapping[_key].name */\n      dup1\n      sload\n      tag_44\n      swap1\n      tag_45\n      jump\t// in\n    tag_44:\n      dup1\n      0x1f\n      add\n      0x20\n      dup1\n      swap2\n      div\n      mul\n      0x20\n      add\n      mload(0x40)\n      swap1\n      dup2\n      add\n      0x40\n      mstore\n      dup1\n      swap3\n      swap2\n      swap1\n      dup2\n      dup2\n      mstore\n      0x20\n      add\n      dup3\n      dup1\n      sload\n      tag_46\n      swap1\n      tag_45\n      jump\t// in\n    tag_46:\n      dup1\n      iszero\n      tag_47\n      jumpi\n      dup1\n      0x1f\n      lt\n      tag_48\n      jumpi\n      0x0100\n      dup1\n      dup4\n      sload\n      div\n      mul\n      dup4\n      mstore\n      swap2\n      0x20\n      add\n      swap2\n      jump(tag_47)\n    tag_48:\n      dup3\n      add\n      swap2\n      swap1\n      0x00\n      mstore\n      keccak256(0x00, 0x20)\n      swap1\n    tag_49:\n      dup2\n      sload\n      dup2\n      mstore\n      swap1\n      0x01\n      add\n      swap1\n      0x20\n      add\n      dup1\n      dup4\n      gt\n      tag_49\n      jumpi\n      dup3\n      swap1\n      sub\n      0x1f\n      and\n      dup3\n      add\n      swap2\n    tag_47:\n      pop\n      pop\n      pop\n      pop\n      pop\n      swap1\n      pop\n        /* \"week6_practice/ex5_9.sol\":682:803  function getMappingName(address _key) public view returns(string memory){... */\n      swap2\n      swap1\n      pop\n      jump\t// out\n        /* \"week6_practice/ex5_9.sol\":423:541  function getArrayName(uint _index) public view returns(string memory){... */\n    tag_26:\n        /* \"week6_practice/ex5_9.sol\":478:491  string memory */\n      0x60\n        /* \"week6_practice/ex5_9.sol\":510:520  humanArray */\n      0x00\n        /* \"week6_practice/ex5_9.sol\":521:527  _index */\n      dup3\n        /* \"week6_practice/ex5_9.sol\":510:528  humanArray[_index] */\n      dup2\n      sload\n      dup2\n      lt\n      tag_51\n      jumpi\n      tag_52\n      tag_53\n      jump\t// in\n    tag_52:\n    tag_51:\n      swap1\n      0x00\n      mstore\n      keccak256(0x00, 0x20)\n      swap1\n      0x02\n      mul\n      add\n        /* \"week6_practice/ex5_9.sol\":510:533  humanArray[_index].name */\n      0x00\n      add\n        /* \"week6_practice/ex5_9.sol\":503:533  return humanArray[_index].name */\n      dup1\n      sload\n      tag_55\n      swap1\n      tag_45\n      jump\t// in\n    tag_55:\n      dup1\n      0x1f\n      add\n      0x20\n      dup1\n      swap2\n      div\n      mul\n      0x20\n      add\n      mload(0x40)\n      swap1\n      dup2\n      add\n      0x40\n      mstore\n      dup1\n      swap3\n      swap2\n      swap1\n      dup2\n      dup2\n      mstore\n      0x20\n      add\n      dup3\n      dup1\n      sload\n      tag_56\n      swap1\n      tag_45\n      jump\t// in\n    tag_56:\n      dup1\n      iszero\n      tag_57\n      jumpi\n      dup1\n      0x1f\n      lt\n      tag_58\n      jumpi\n      0x0100\n      dup1\n      dup4\n      sload\n      div\n      mul\n      dup4\n      mstore\n      swap2\n      0x20\n      add\n      swap2\n      jump(tag_57)\n    tag_58:\n      dup3\n      add\n      swap2\n      swap1\n      0x00\n      mstore\n      keccak256(0x00, 0x20)\n      swap1\n    tag_59:\n      dup2\n      sload\n      dup2\n      mstore\n      swap1\n      0x01\n      add\n      swap1\n      0x20\n      add\n      dup1\n      dup4\n      gt\n      tag_59\n      jumpi\n      dup3\n      swap1\n      sub\n      0x1f\n      and\n      dup3\n      add\n      swap2\n    tag_57:\n      pop\n      pop\n      pop\n      pop\n      pop\n      swap1\n      pop\n        /* \"week6_practice/ex5_9.sol\":423:541  function getArrayName(uint _index) public view returns(string memory){... */\n      swap2\n      swap1\n      pop\n      jump\t// out\n        /* \"week6_practice/ex5_9.sol\":254:297  mapping(address=>Human) public humanMapping */\n    tag_30:\n      mstore(0x20, 0x01)\n      dup1\n      0x00\n      mstore\n      keccak256(0x00, 0x40)\n      0x00\n      swap2\n      pop\n      swap1\n      pop\n      dup1\n      0x00\n      add\n      dup1\n      sload\n      tag_60\n      swap1\n      tag_45\n      jump\t// in\n    tag_60:\n      dup1\n      0x1f\n      add\n      0x20\n      dup1\n      swap2\n      div\n      mul\n      0x20\n      add\n      mload(0x40)\n      swap1\n      dup2\n      add\n      0x40\n      mstore\n      dup1\n      swap3\n      swap2\n      swap1\n      dup2\n      dup2\n      mstore\n      0x20\n      add\n      dup3\n      dup1\n      sload\n      tag_61\n      swap1\n      tag_45\n      jump\t// in\n    tag_61:\n      dup1\n      iszero\n      tag_62\n      jumpi\n      dup1\n      0x1f\n      lt\n      tag_63\n      jumpi\n      0x0100\n      dup1\n      dup4\n      sload\n      div\n      mul\n      dup4\n      mstore\n      swap2\n      0x20\n      add\n      swap2\n      jump(tag_62)\n    tag_63:\n      dup3\n      add\n      swap2\n      swap1\n      0x00\n      mstore\n      keccak256(0x00, 0x20)\n      swap1\n    tag_64:\n      dup2\n      sload\n      dup2\n      mstore\n      swap1\n      0x01\n      add\n      swap1\n      0x20\n      add\n      dup1\n      dup4\n      gt\n      tag_64\n      jumpi\n      dup3\n      swap1\n      sub\n      0x1f\n      and\n      dup3\n      add\n      swap2\n    tag_62:\n      pop\n      pop\n      pop\n      pop\n      pop\n      swap1\n      dup1\n      0x01\n      add\n      sload\n      swap1\n      pop\n      dup3\n      jump\t// out\n        /* \"week6_practice/ex5_9.sol\":207:232  Human[] public humanArray */\n    tag_35:\n      0x00\n      dup2\n      dup2\n      sload\n      dup2\n      lt\n      tag_65\n      jumpi\n      0x00\n      dup1\n      revert\n    tag_65:\n      swap1\n      0x00\n      mstore\n      keccak256(0x00, 0x20)\n      swap1\n      0x02\n      mul\n      add\n      0x00\n      swap2\n      pop\n      swap1\n      pop\n      dup1\n      0x00\n      add\n      dup1\n      sload\n      tag_67\n      swap1\n      tag_45\n      jump\t// in\n    tag_67:\n      dup1\n      0x1f\n      add\n      0x20\n      dup1\n      swap2\n      div\n      mul\n      0x20\n      add\n      mload(0x40)\n      swap1\n      dup2\n      add\n      0x40\n      mstore\n      dup1\n      swap3\n      swap2\n      swap1\n      dup2\n      dup2\n      mstore\n      0x20\n      add\n      dup3\n      dup1\n      sload\n      tag_68\n      swap1\n      tag_45\n      jump\t// in\n    tag_68:\n      dup1\n      iszero\n      tag_69\n      jumpi\n      dup1\n      0x1f\n      lt\n      tag_70\n      jumpi\n      0x0100\n      dup1\n      dup4\n      sload\n      div\n      mul\n      dup4\n      mstore\n      swap2\n      0x20\n      add\n      swap2\n      jump(tag_69)\n    tag_70:\n      dup3\n      add\n      swap2\n      swap1\n      0x00\n      mstore\n      keccak256(0x00, 0x20)\n      swap1\n    tag_71:\n      dup2\n      sload\n      dup2\n      mstore\n      swap1\n      0x01\n      add\n      swap1\n      0x20\n      add\n      dup1\n      dup4\n      gt\n      tag_71\n      jumpi\n      dup3\n      swap1\n      sub\n      0x1f\n      and\n      dup3\n      add\n      swap2\n    tag_69:\n      pop\n      pop\n      pop\n      pop\n      pop\n      swap1\n      dup1\n      0x01\n      add\n      sload\n      swap1\n      pop\n      dup3\n      jump\t// out\n        /* \"#utility.yul\":7:82   */\n    tag_72:\n        /* \"#utility.yul\":40:46   */\n      0x00\n        /* \"#utility.yul\":73:75   */\n      0x40\n        /* \"#utility.yul\":67:76   */\n      mload\n        /* \"#utility.yul\":57:76   */\n      swap1\n      pop\n        /* \"#utility.yul\":7:82   */\n      swap1\n      jump\t// out\n        /* \"#utility.yul\":88:205   */\n    tag_73:\n        /* \"#utility.yul\":197:198   */\n      0x00\n        /* \"#utility.yul\":194:195   */\n      dup1\n        /* \"#utility.yul\":187:199   */\n      revert\n        /* \"#utility.yul\":211:328   */\n    tag_74:\n        /* \"#utility.yul\":320:321   */\n      0x00\n        /* \"#utility.yul\":317:318   */\n      dup1\n        /* \"#utility.yul\":310:322   */\n      revert\n        /* \"#utility.yul\":334:451   */\n    tag_75:\n        /* \"#utility.yul\":443:444   */\n      0x00\n        /* \"#utility.yul\":440:441   */\n      dup1\n        /* \"#utility.yul\":433:445   */\n      revert\n        /* \"#utility.yul\":457:574   */\n    tag_76:\n        /* \"#utility.yul\":566:567   */\n      0x00\n        /* \"#utility.yul\":563:564   */\n      dup1\n        /* \"#utility.yul\":556:568   */\n      revert\n        /* \"#utility.yul\":580:682   */\n    tag_77:\n        /* \"#utility.yul\":621:627   */\n      0x00\n        /* \"#utility.yul\":672:674   */\n      0x1f\n        /* \"#utility.yul\":668:675   */\n      not\n        /* \"#utility.yul\":663:665   */\n      0x1f\n        /* \"#utility.yul\":656:661   */\n      dup4\n        /* \"#utility.yul\":652:666   */\n      add\n        /* \"#utility.yul\":648:676   */\n      and\n        /* \"#utility.yul\":638:676   */\n      swap1\n      pop\n        /* \"#utility.yul\":580:682   */\n      swap2\n      swap1\n      pop\n      jump\t// out\n        /* \"#utility.yul\":688:868   */\n    tag_78:\n        /* \"#utility.yul\":736:813   */\n      0x4e487b7100000000000000000000000000000000000000000000000000000000\n        /* \"#utility.yul\":733:734   */\n      0x00\n        /* \"#utility.yul\":726:814   */\n      mstore\n        /* \"#utility.yul\":833:837   */\n      0x41\n        /* \"#utility.yul\":830:831   */\n      0x04\n        /* \"#utility.yul\":823:838   */\n      mstore\n        /* \"#utility.yul\":857:861   */\n      0x24\n        /* \"#utility.yul\":854:855   */\n      0x00\n        /* \"#utility.yul\":847:862   */\n      revert\n        /* \"#utility.yul\":874:1155   */\n    tag_79:\n        /* \"#utility.yul\":957:984   */\n      tag_122\n        /* \"#utility.yul\":979:983   */\n      dup3\n        /* \"#utility.yul\":957:984   */\n      tag_77\n      jump\t// in\n    tag_122:\n        /* \"#utility.yul\":949:955   */\n      dup2\n        /* \"#utility.yul\":945:985   */\n      add\n        /* \"#utility.yul\":1087:1093   */\n      dup2\n        /* \"#utility.yul\":1075:1085   */\n      dup2\n        /* \"#utility.yul\":1072:1094   */\n      lt\n        /* \"#utility.yul\":1051:1069   */\n      0xffffffffffffffff\n        /* \"#utility.yul\":1039:1049   */\n      dup3\n        /* \"#utility.yul\":1036:1070   */\n      gt\n        /* \"#utility.yul\":1033:1095   */\n      or\n        /* \"#utility.yul\":1030:1118   */\n      iszero\n      tag_123\n      jumpi\n        /* \"#utility.yul\":1098:1116   */\n      tag_124\n      tag_78\n      jump\t// in\n    tag_124:\n        /* \"#utility.yul\":1030:1118   */\n    tag_123:\n        /* \"#utility.yul\":1138:1148   */\n      dup1\n        /* \"#utility.yul\":1134:1136   */\n      0x40\n        /* \"#utility.yul\":1127:1149   */\n      mstore\n        /* \"#utility.yul\":917:1155   */\n      pop\n        /* \"#utility.yul\":874:1155   */\n      pop\n      pop\n      jump\t// out\n        /* \"#utility.yul\":1161:1290   */\n    tag_80:\n        /* \"#utility.yul\":1195:1201   */\n      0x00\n        /* \"#utility.yul\":1222:1242   */\n      tag_126\n      tag_72\n      jump\t// in\n    tag_126:\n        /* \"#utility.yul\":1212:1242   */\n      swap1\n      pop\n        /* \"#utility.yul\":1251:1284   */\n      tag_127\n        /* \"#utility.yul\":1279:1283   */\n      dup3\n        /* \"#utility.yul\":1271:1277   */\n      dup3\n        /* \"#utility.yul\":1251:1284   */\n      tag_79\n      jump\t// in\n    tag_127:\n        /* \"#utility.yul\":1161:1290   */\n      swap2\n      swap1\n      pop\n      jump\t// out\n        /* \"#utility.yul\":1296:1604   */\n    tag_81:\n        /* \"#utility.yul\":1358:1362   */\n      0x00\n        /* \"#utility.yul\":1448:1466   */\n      0xffffffffffffffff\n        /* \"#utility.yul\":1440:1446   */\n      dup3\n        /* \"#utility.yul\":1437:1467   */\n      gt\n        /* \"#utility.yul\":1434:1490   */\n      iszero\n      tag_129\n      jumpi\n        /* \"#utility.yul\":1470:1488   */\n      tag_130\n      tag_78\n      jump\t// in\n    tag_130:\n        /* \"#utility.yul\":1434:1490   */\n    tag_129:\n        /* \"#utility.yul\":1508:1537   */\n      tag_131\n        /* \"#utility.yul\":1530:1536   */\n      dup3\n        /* \"#utility.yul\":1508:1537   */\n      tag_77\n      jump\t// in\n    tag_131:\n        /* \"#utility.yul\":1500:1537   */\n      swap1\n      pop\n        /* \"#utility.yul\":1592:1596   */\n      0x20\n        /* \"#utility.yul\":1586:1590   */\n      dup2\n        /* \"#utility.yul\":1582:1597   */\n      add\n        /* \"#utility.yul\":1574:1597   */\n      swap1\n      pop\n        /* \"#utility.yul\":1296:1604   */\n      swap2\n      swap1\n      pop\n      jump\t// out\n        /* \"#utility.yul\":1610:1758   */\n    tag_82:\n        /* \"#utility.yul\":1708:1714   */\n      dup3\n        /* \"#utility.yul\":1703:1706   */\n      dup2\n        /* \"#utility.yul\":1698:1701   */\n      dup4\n        /* \"#utility.yul\":1685:1715   */\n      calldatacopy\n        /* \"#utility.yul\":1749:1750   */\n      0x00\n        /* \"#utility.yul\":1740:1746   */\n      dup4\n        /* \"#utility.yul\":1735:1738   */\n      dup4\n        /* \"#utility.yul\":1731:1747   */\n      add\n        /* \"#utility.yul\":1724:1751   */\n      mstore\n        /* \"#utility.yul\":1610:1758   */\n      pop\n      pop\n      pop\n      jump\t// out\n        /* \"#utility.yul\":1764:2189   */\n    tag_83:\n        /* \"#utility.yul\":1842:1847   */\n      0x00\n        /* \"#utility.yul\":1867:1933   */\n      tag_134\n        /* \"#utility.yul\":1883:1932   */\n      tag_135\n        /* \"#utility.yul\":1925:1931   */\n      dup5\n        /* \"#utility.yul\":1883:1932   */\n      tag_81\n      jump\t// in\n    tag_135:\n        /* \"#utility.yul\":1867:1933   */\n      tag_80\n      jump\t// in\n    tag_134:\n        /* \"#utility.yul\":1858:1933   */\n      swap1\n      pop\n        /* \"#utility.yul\":1956:1962   */\n      dup3\n        /* \"#utility.yul\":1949:1954   */\n      dup2\n        /* \"#utility.yul\":1942:1963   */\n      mstore\n        /* \"#utility.yul\":1994:1998   */\n      0x20\n        /* \"#utility.yul\":1987:1992   */\n      dup2\n        /* \"#utility.yul\":1983:1999   */\n      add\n        /* \"#utility.yul\":2032:2035   */\n      dup5\n        /* \"#utility.yul\":2023:2029   */\n      dup5\n        /* \"#utility.yul\":2018:2021   */\n      dup5\n        /* \"#utility.yul\":2014:2030   */\n      add\n        /* \"#utility.yul\":2011:2036   */\n      gt\n        /* \"#utility.yul\":2008:2120   */\n      iszero\n      tag_136\n      jumpi\n        /* \"#utility.yul\":2039:2118   */\n      tag_137\n      tag_76\n      jump\t// in\n    tag_137:\n        /* \"#utility.yul\":2008:2120   */\n    tag_136:\n        /* \"#utility.yul\":2129:2183   */\n      tag_138\n        /* \"#utility.yul\":2176:2182   */\n      dup5\n        /* \"#utility.yul\":2171:2174   */\n      dup3\n        /* \"#utility.yul\":2166:2169   */\n      dup6\n        /* \"#utility.yul\":2129:2183   */\n      tag_82\n      jump\t// in\n    tag_138:\n        /* \"#utility.yul\":1848:2189   */\n      pop\n        /* \"#utility.yul\":1764:2189   */\n      swap4\n      swap3\n      pop\n      pop\n      pop\n      jump\t// out\n        /* \"#utility.yul\":2209:2549   */\n    tag_84:\n        /* \"#utility.yul\":2265:2270   */\n      0x00\n        /* \"#utility.yul\":2314:2317   */\n      dup3\n        /* \"#utility.yul\":2307:2311   */\n      0x1f\n        /* \"#utility.yul\":2299:2305   */\n      dup4\n        /* \"#utility.yul\":2295:2312   */\n      add\n        /* \"#utility.yul\":2291:2318   */\n      slt\n        /* \"#utility.yul\":2281:2403   */\n      tag_140\n      jumpi\n        /* \"#utility.yul\":2322:2401   */\n      tag_141\n      tag_75\n      jump\t// in\n    tag_141:\n        /* \"#utility.yul\":2281:2403   */\n    tag_140:\n        /* \"#utility.yul\":2439:2445   */\n      dup2\n        /* \"#utility.yul\":2426:2446   */\n      calldataload\n        /* \"#utility.yul\":2464:2543   */\n      tag_142\n        /* \"#utility.yul\":2539:2542   */\n      dup5\n        /* \"#utility.yul\":2531:2537   */\n      dup3\n        /* \"#utility.yul\":2524:2528   */\n      0x20\n        /* \"#utility.yul\":2516:2522   */\n      dup7\n        /* \"#utility.yul\":2512:2529   */\n      add\n        /* \"#utility.yul\":2464:2543   */\n      tag_83\n      jump\t// in\n    tag_142:\n        /* \"#utility.yul\":2455:2543   */\n      swap2\n      pop\n        /* \"#utility.yul\":2271:2549   */\n      pop\n        /* \"#utility.yul\":2209:2549   */\n      swap3\n      swap2\n      pop\n      pop\n      jump\t// out\n        /* \"#utility.yul\":2555:2632   */\n    tag_85:\n        /* \"#utility.yul\":2592:2599   */\n      0x00\n        /* \"#utility.yul\":2621:2626   */\n      dup2\n        /* \"#utility.yul\":2610:2626   */\n      swap1\n      pop\n        /* \"#utility.yul\":2555:2632   */\n      swap2\n      swap1\n      pop\n      jump\t// out\n        /* \"#utility.yul\":2638:2760   */\n    tag_86:\n        /* \"#utility.yul\":2711:2735   */\n      tag_145\n        /* \"#utility.yul\":2729:2734   */\n      dup2\n        /* \"#utility.yul\":2711:2735   */\n      tag_85\n      jump\t// in\n    tag_145:\n        /* \"#utility.yul\":2704:2709   */\n      dup2\n        /* \"#utility.yul\":2701:2736   */\n      eq\n        /* \"#utility.yul\":2691:2754   */\n      tag_146\n      jumpi\n        /* \"#utility.yul\":2750:2751   */\n      0x00\n        /* \"#utility.yul\":2747:2748   */\n      dup1\n        /* \"#utility.yul\":2740:2752   */\n      revert\n        /* \"#utility.yul\":2691:2754   */\n    tag_146:\n        /* \"#utility.yul\":2638:2760   */\n      pop\n      jump\t// out\n        /* \"#utility.yul\":2766:2905   */\n    tag_87:\n        /* \"#utility.yul\":2812:2817   */\n      0x00\n        /* \"#utility.yul\":2850:2856   */\n      dup2\n        /* \"#utility.yul\":2837:2857   */\n      calldataload\n        /* \"#utility.yul\":2828:2857   */\n      swap1\n      pop\n        /* \"#utility.yul\":2866:2899   */\n      tag_148\n        /* \"#utility.yul\":2893:2898   */\n      dup2\n        /* \"#utility.yul\":2866:2899   */\n      tag_86\n      jump\t// in\n    tag_148:\n        /* \"#utility.yul\":2766:2905   */\n      swap3\n      swap2\n      pop\n      pop\n      jump\t// out\n        /* \"#utility.yul\":2911:3565   */\n    tag_11:\n        /* \"#utility.yul\":2989:2995   */\n      0x00\n        /* \"#utility.yul\":2997:3003   */\n      dup1\n        /* \"#utility.yul\":3046:3048   */\n      0x40\n        /* \"#utility.yul\":3034:3043   */\n      dup4\n        /* \"#utility.yul\":3025:3032   */\n      dup6\n        /* \"#utility.yul\":3021:3044   */\n      sub\n        /* \"#utility.yul\":3017:3049   */\n      slt\n        /* \"#utility.yul\":3014:3133   */\n      iszero\n      tag_150\n      jumpi\n        /* \"#utility.yul\":3052:3131   */\n      tag_151\n      tag_73\n      jump\t// in\n    tag_151:\n        /* \"#utility.yul\":3014:3133   */\n    tag_150:\n        /* \"#utility.yul\":3200:3201   */\n      0x00\n        /* \"#utility.yul\":3189:3198   */\n      dup4\n        /* \"#utility.yul\":3185:3202   */\n      add\n        /* \"#utility.yul\":3172:3203   */\n      calldataload\n        /* \"#utility.yul\":3230:3248   */\n      0xffffffffffffffff\n        /* \"#utility.yul\":3222:3228   */\n      dup2\n        /* \"#utility.yul\":3219:3249   */\n      gt\n        /* \"#utility.yul\":3216:3333   */\n      iszero\n      tag_152\n      jumpi\n        /* \"#utility.yul\":3252:3331   */\n      tag_153\n      tag_74\n      jump\t// in\n    tag_153:\n        /* \"#utility.yul\":3216:3333   */\n    tag_152:\n        /* \"#utility.yul\":3357:3420   */\n      tag_154\n        /* \"#utility.yul\":3412:3419   */\n      dup6\n        /* \"#utility.yul\":3403:3409   */\n      dup3\n        /* \"#utility.yul\":3392:3401   */\n      dup7\n        /* \"#utility.yul\":3388:3410   */\n      add\n        /* \"#utility.yul\":3357:3420   */\n      tag_84\n      jump\t// in\n    tag_154:\n        /* \"#utility.yul\":3347:3420   */\n      swap3\n      pop\n        /* \"#utility.yul\":3143:3430   */\n      pop\n        /* \"#utility.yul\":3469:3471   */\n      0x20\n        /* \"#utility.yul\":3495:3548   */\n      tag_155\n        /* \"#utility.yul\":3540:3547   */\n      dup6\n        /* \"#utility.yul\":3531:3537   */\n      dup3\n        /* \"#utility.yul\":3520:3529   */\n      dup7\n        /* \"#utility.yul\":3516:3538   */\n      add\n        /* \"#utility.yul\":3495:3548   */\n      tag_87\n      jump\t// in\n    tag_155:\n        /* \"#utility.yul\":3485:3548   */\n      swap2\n      pop\n        /* \"#utility.yul\":3440:3558   */\n      pop\n        /* \"#utility.yul\":2911:3565   */\n      swap3\n      pop\n      swap3\n      swap1\n      pop\n      jump\t// out\n        /* \"#utility.yul\":3571:3697   */\n    tag_88:\n        /* \"#utility.yul\":3608:3615   */\n      0x00\n        /* \"#utility.yul\":3648:3690   */\n      0xffffffffffffffffffffffffffffffffffffffff\n        /* \"#utility.yul\":3641:3646   */\n      dup3\n        /* \"#utility.yul\":3637:3691   */\n      and\n        /* \"#utility.yul\":3626:3691   */\n      swap1\n      pop\n        /* \"#utility.yul\":3571:3697   */\n      swap2\n      swap1\n      pop\n      jump\t// out\n        /* \"#utility.yul\":3703:3799   */\n    tag_89:\n        /* \"#utility.yul\":3740:3747   */\n      0x00\n        /* \"#utility.yul\":3769:3793   */\n      tag_158\n        /* \"#utility.yul\":3787:3792   */\n      dup3\n        /* \"#utility.yul\":3769:3793   */\n      tag_88\n      jump\t// in\n    tag_158:\n        /* \"#utility.yul\":3758:3793   */\n      swap1\n      pop\n        /* \"#utility.yul\":3703:3799   */\n      swap2\n      swap1\n      pop\n      jump\t// out\n        /* \"#utility.yul\":3805:3927   */\n    tag_90:\n        /* \"#utility.yul\":3878:3902   */\n      tag_160\n        /* \"#utility.yul\":3896:3901   */\n      dup2\n        /* \"#utility.yul\":3878:3902   */\n      tag_89\n      jump\t// in\n    tag_160:\n        /* \"#utility.yul\":3871:3876   */\n      dup2\n        /* \"#utility.yul\":3868:3903   */\n      eq\n        /* \"#utility.yul\":3858:3921   */\n      tag_161\n      jumpi\n        /* \"#utility.yul\":3917:3918   */\n      0x00\n        /* \"#utility.yul\":3914:3915   */\n      dup1\n        /* \"#utility.yul\":3907:3919   */\n      revert\n        /* \"#utility.yul\":3858:3921   */\n    tag_161:\n        /* \"#utility.yul\":3805:3927   */\n      pop\n      jump\t// out\n        /* \"#utility.yul\":3933:4072   */\n    tag_91:\n        /* \"#utility.yul\":3979:3984   */\n      0x00\n        /* \"#utility.yul\":4017:4023   */\n      dup2\n        /* \"#utility.yul\":4004:4024   */\n      calldataload\n        /* \"#utility.yul\":3995:4024   */\n      swap1\n      pop\n        /* \"#utility.yul\":4033:4066   */\n      tag_163\n        /* \"#utility.yul\":4060:4065   */\n      dup2\n        /* \"#utility.yul\":4033:4066   */\n      tag_90\n      jump\t// in\n    tag_163:\n        /* \"#utility.yul\":3933:4072   */\n      swap3\n      swap2\n      pop\n      pop\n      jump\t// out\n        /* \"#utility.yul\":4078:4877   */\n    tag_15:\n        /* \"#utility.yul\":4165:4171   */\n      0x00\n        /* \"#utility.yul\":4173:4179   */\n      dup1\n        /* \"#utility.yul\":4181:4187   */\n      0x00\n        /* \"#utility.yul\":4230:4232   */\n      0x60\n        /* \"#utility.yul\":4218:4227   */\n      dup5\n        /* \"#utility.yul\":4209:4216   */\n      dup7\n        /* \"#utility.yul\":4205:4228   */\n      sub\n        /* \"#utility.yul\":4201:4233   */\n      slt\n        /* \"#utility.yul\":4198:4317   */\n      iszero\n      tag_165\n      jumpi\n        /* \"#utility.yul\":4236:4315   */\n      tag_166\n      tag_73\n      jump\t// in\n    tag_166:\n        /* \"#utility.yul\":4198:4317   */\n    tag_165:\n        /* \"#utility.yul\":4356:4357   */\n      0x00\n        /* \"#utility.yul\":4381:4434   */\n      tag_167\n        /* \"#utility.yul\":4426:4433   */\n      dup7\n        /* \"#utility.yul\":4417:4423   */\n      dup3\n        /* \"#utility.yul\":4406:4415   */\n      dup8\n        /* \"#utility.yul\":4402:4424   */\n      add\n        /* \"#utility.yul\":4381:4434   */\n      tag_91\n      jump\t// in\n    tag_167:\n        /* \"#utility.yul\":4371:4434   */\n      swap4\n      pop\n        /* \"#utility.yul\":4327:4444   */\n      pop\n        /* \"#utility.yul\":4511:4513   */\n      0x20\n        /* \"#utility.yul\":4500:4509   */\n      dup5\n        /* \"#utility.yul\":4496:4514   */\n      add\n        /* \"#utility.yul\":4483:4515   */\n      calldataload\n        /* \"#utility.yul\":4542:4560   */\n      0xffffffffffffffff\n        /* \"#utility.yul\":4534:4540   */\n      dup2\n        /* \"#utility.yul\":4531:4561   */\n      gt\n        /* \"#utility.yul\":4528:4645   */\n      iszero\n      tag_168\n      jumpi\n        /* \"#utility.yul\":4564:4643   */\n      tag_169\n      tag_74\n      jump\t// in\n    tag_169:\n        /* \"#utility.yul\":4528:4645   */\n    tag_168:\n        /* \"#utility.yul\":4669:4732   */\n      tag_170\n        /* \"#utility.yul\":4724:4731   */\n      dup7\n        /* \"#utility.yul\":4715:4721   */\n      dup3\n        /* \"#utility.yul\":4704:4713   */\n      dup8\n        /* \"#utility.yul\":4700:4722   */\n      add\n        /* \"#utility.yul\":4669:4732   */\n      tag_84\n      jump\t// in\n    tag_170:\n        /* \"#utility.yul\":4659:4732   */\n      swap3\n      pop\n        /* \"#utility.yul\":4454:4742   */\n      pop\n        /* \"#utility.yul\":4781:4783   */\n      0x40\n        /* \"#utility.yul\":4807:4860   */\n      tag_171\n        /* \"#utility.yul\":4852:4859   */\n      dup7\n        /* \"#utility.yul\":4843:4849   */\n      dup3\n        /* \"#utility.yul\":4832:4841   */\n      dup8\n        /* \"#utility.yul\":4828:4850   */\n      add\n        /* \"#utility.yul\":4807:4860   */\n      tag_87\n      jump\t// in\n    tag_171:\n        /* \"#utility.yul\":4797:4860   */\n      swap2\n      pop\n        /* \"#utility.yul\":4752:4870   */\n      pop\n        /* \"#utility.yul\":4078:4877   */\n      swap3\n      pop\n      swap3\n      pop\n      swap3\n      jump\t// out\n        /* \"#utility.yul\":4883:5212   */\n    tag_19:\n        /* \"#utility.yul\":4942:4948   */\n      0x00\n        /* \"#utility.yul\":4991:4993   */\n      0x20\n        /* \"#utility.yul\":4979:4988   */\n      dup3\n        /* \"#utility.yul\":4970:4977   */\n      dup5\n        /* \"#utility.yul\":4966:4989   */\n      sub\n        /* \"#utility.yul\":4962:4994   */\n      slt\n        /* \"#utility.yul\":4959:5078   */\n      iszero\n      tag_173\n      jumpi\n        /* \"#utility.yul\":4997:5076   */\n      tag_174\n      tag_73\n      jump\t// in\n    tag_174:\n        /* \"#utility.yul\":4959:5078   */\n    tag_173:\n        /* \"#utility.yul\":5117:5118   */\n      0x00\n        /* \"#utility.yul\":5142:5195   */\n      tag_175\n        /* \"#utility.yul\":5187:5194   */\n      dup5\n        /* \"#utility.yul\":5178:5184   */\n      dup3\n        /* \"#utility.yul\":5167:5176   */\n      dup6\n        /* \"#utility.yul\":5163:5185   */\n      add\n        /* \"#utility.yul\":5142:5195   */\n      tag_91\n      jump\t// in\n    tag_175:\n        /* \"#utility.yul\":5132:5195   */\n      swap2\n      pop\n        /* \"#utility.yul\":5088:5205   */\n      pop\n        /* \"#utility.yul\":4883:5212   */\n      swap3\n      swap2\n      pop\n      pop\n      jump\t// out\n        /* \"#utility.yul\":5218:5317   */\n    tag_92:\n        /* \"#utility.yul\":5270:5276   */\n      0x00\n        /* \"#utility.yul\":5304:5309   */\n      dup2\n        /* \"#utility.yul\":5298:5310   */\n      mload\n        /* \"#utility.yul\":5288:5310   */\n      swap1\n      pop\n        /* \"#utility.yul\":5218:5317   */\n      swap2\n      swap1\n      pop\n      jump\t// out\n        /* \"#utility.yul\":5323:5492   */\n    tag_93:\n        /* \"#utility.yul\":5407:5418   */\n      0x00\n        /* \"#utility.yul\":5441:5447   */\n      dup3\n        /* \"#utility.yul\":5436:5439   */\n      dup3\n        /* \"#utility.yul\":5429:5448   */\n      mstore\n        /* \"#utility.yul\":5481:5485   */\n      0x20\n        /* \"#utility.yul\":5476:5479   */\n      dup3\n        /* \"#utility.yul\":5472:5486   */\n      add\n        /* \"#utility.yul\":5457:5486   */\n      swap1\n      pop\n        /* \"#utility.yul\":5323:5492   */\n      swap3\n      swap2\n      pop\n      pop\n      jump\t// out\n        /* \"#utility.yul\":5498:5637   */\n    tag_94:\n        /* \"#utility.yul\":5587:5593   */\n      dup3\n        /* \"#utility.yul\":5582:5585   */\n      dup2\n        /* \"#utility.yul\":5577:5580   */\n      dup4\n        /* \"#utility.yul\":5571:5594   */\n      mcopy\n        /* \"#utility.yul\":5628:5629   */\n      0x00\n        /* \"#utility.yul\":5619:5625   */\n      dup4\n        /* \"#utility.yul\":5614:5617   */\n      dup4\n        /* \"#utility.yul\":5610:5626   */\n      add\n        /* \"#utility.yul\":5603:5630   */\n      mstore\n        /* \"#utility.yul\":5498:5637   */\n      pop\n      pop\n      pop\n      jump\t// out\n        /* \"#utility.yul\":5643:6020   */\n    tag_95:\n        /* \"#utility.yul\":5731:5734   */\n      0x00\n        /* \"#utility.yul\":5759:5798   */\n      tag_180\n        /* \"#utility.yul\":5792:5797   */\n      dup3\n        /* \"#utility.yul\":5759:5798   */\n      tag_92\n      jump\t// in\n    tag_180:\n        /* \"#utility.yul\":5814:5885   */\n      tag_181\n        /* \"#utility.yul\":5878:5884   */\n      dup2\n        /* \"#utility.yul\":5873:5876   */\n      dup6\n        /* \"#utility.yul\":5814:5885   */\n      tag_93\n      jump\t// in\n    tag_181:\n        /* \"#utility.yul\":5807:5885   */\n      swap4\n      pop\n        /* \"#utility.yul\":5894:5959   */\n      tag_182\n        /* \"#utility.yul\":5952:5958   */\n      dup2\n        /* \"#utility.yul\":5947:5950   */\n      dup6\n        /* \"#utility.yul\":5940:5944   */\n      0x20\n        /* \"#utility.yul\":5933:5938   */\n      dup7\n        /* \"#utility.yul\":5929:5945   */\n      add\n        /* \"#utility.yul\":5894:5959   */\n      tag_94\n      jump\t// in\n    tag_182:\n        /* \"#utility.yul\":5984:6013   */\n      tag_183\n        /* \"#utility.yul\":6006:6012   */\n      dup2\n        /* \"#utility.yul\":5984:6013   */\n      tag_77\n      jump\t// in\n    tag_183:\n        /* \"#utility.yul\":5979:5982   */\n      dup5\n        /* \"#utility.yul\":5975:6014   */\n      add\n        /* \"#utility.yul\":5968:6014   */\n      swap2\n      pop\n        /* \"#utility.yul\":5735:6020   */\n      pop\n        /* \"#utility.yul\":5643:6020   */\n      swap3\n      swap2\n      pop\n      pop\n      jump\t// out\n        /* \"#utility.yul\":6026:6339   */\n    tag_22:\n        /* \"#utility.yul\":6139:6143   */\n      0x00\n        /* \"#utility.yul\":6177:6179   */\n      0x20\n        /* \"#utility.yul\":6166:6175   */\n      dup3\n        /* \"#utility.yul\":6162:6180   */\n      add\n        /* \"#utility.yul\":6154:6180   */\n      swap1\n      pop\n        /* \"#utility.yul\":6226:6235   */\n      dup2\n        /* \"#utility.yul\":6220:6224   */\n      dup2\n        /* \"#utility.yul\":6216:6236   */\n      sub\n        /* \"#utility.yul\":6212:6213   */\n      0x00\n        /* \"#utility.yul\":6201:6210   */\n      dup4\n        /* \"#utility.yul\":6197:6214   */\n      add\n        /* \"#utility.yul\":6190:6237   */\n      mstore\n        /* \"#utility.yul\":6254:6332   */\n      tag_185\n        /* \"#utility.yul\":6327:6331   */\n      dup2\n        /* \"#utility.yul\":6318:6324   */\n      dup5\n        /* \"#utility.yul\":6254:6332   */\n      tag_95\n      jump\t// in\n    tag_185:\n        /* \"#utility.yul\":6246:6332   */\n      swap1\n      pop\n        /* \"#utility.yul\":6026:6339   */\n      swap3\n      swap2\n      pop\n      pop\n      jump\t// out\n        /* \"#utility.yul\":6345:6674   */\n    tag_25:\n        /* \"#utility.yul\":6404:6410   */\n      0x00\n        /* \"#utility.yul\":6453:6455   */\n      0x20\n        /* \"#utility.yul\":6441:6450   */\n      dup3\n        /* \"#utility.yul\":6432:6439   */\n      dup5\n        /* \"#utility.yul\":6428:6451   */\n      sub\n        /* \"#utility.yul\":6424:6456   */\n      slt\n        /* \"#utility.yul\":6421:6540   */\n      iszero\n      tag_187\n      jumpi\n        /* \"#utility.yul\":6459:6538   */\n      tag_188\n      tag_73\n      jump\t// in\n    tag_188:\n        /* \"#utility.yul\":6421:6540   */\n    tag_187:\n        /* \"#utility.yul\":6579:6580   */\n      0x00\n        /* \"#utility.yul\":6604:6657   */\n      tag_189\n        /* \"#utility.yul\":6649:6656   */\n      dup5\n        /* \"#utility.yul\":6640:6646   */\n      dup3\n        /* \"#utility.yul\":6629:6638   */\n      dup6\n        /* \"#utility.yul\":6625:6647   */\n      add\n        /* \"#utility.yul\":6604:6657   */\n      tag_87\n      jump\t// in\n    tag_189:\n        /* \"#utility.yul\":6594:6657   */\n      swap2\n      pop\n        /* \"#utility.yul\":6550:6667   */\n      pop\n        /* \"#utility.yul\":6345:6674   */\n      swap3\n      swap2\n      pop\n      pop\n      jump\t// out\n        /* \"#utility.yul\":6680:6798   */\n    tag_96:\n        /* \"#utility.yul\":6767:6791   */\n      tag_191\n        /* \"#utility.yul\":6785:6790   */\n      dup2\n        /* \"#utility.yul\":6767:6791   */\n      tag_85\n      jump\t// in\n    tag_191:\n        /* \"#utility.yul\":6762:6765   */\n      dup3\n        /* \"#utility.yul\":6755:6792   */\n      mstore\n        /* \"#utility.yul\":6680:6798   */\n      pop\n      pop\n      jump\t// out\n        /* \"#utility.yul\":6804:7227   */\n    tag_32:\n        /* \"#utility.yul\":6945:6949   */\n      0x00\n        /* \"#utility.yul\":6983:6985   */\n      0x40\n        /* \"#utility.yul\":6972:6981   */\n      dup3\n        /* \"#utility.yul\":6968:6986   */\n      add\n        /* \"#utility.yul\":6960:6986   */\n      swap1\n      pop\n        /* \"#utility.yul\":7032:7041   */\n      dup2\n        /* \"#utility.yul\":7026:7030   */\n      dup2\n        /* \"#utility.yul\":7022:7042   */\n      sub\n        /* \"#utility.yul\":7018:7019   */\n      0x00\n        /* \"#utility.yul\":7007:7016   */\n      dup4\n        /* \"#utility.yul\":7003:7020   */\n      add\n        /* \"#utility.yul\":6996:7043   */\n      mstore\n        /* \"#utility.yul\":7060:7138   */\n      tag_193\n        /* \"#utility.yul\":7133:7137   */\n      dup2\n        /* \"#utility.yul\":7124:7130   */\n      dup6\n        /* \"#utility.yul\":7060:7138   */\n      tag_95\n      jump\t// in\n    tag_193:\n        /* \"#utility.yul\":7052:7138   */\n      swap1\n      pop\n        /* \"#utility.yul\":7148:7220   */\n      tag_194\n        /* \"#utility.yul\":7216:7218   */\n      0x20\n        /* \"#utility.yul\":7205:7214   */\n      dup4\n        /* \"#utility.yul\":7201:7219   */\n      add\n        /* \"#utility.yul\":7192:7198   */\n      dup5\n        /* \"#utility.yul\":7148:7220   */\n      tag_96\n      jump\t// in\n    tag_194:\n        /* \"#utility.yul\":6804:7227   */\n      swap4\n      swap3\n      pop\n      pop\n      pop\n      jump\t// out\n        /* \"#utility.yul\":7233:7413   */\n    tag_97:\n        /* \"#utility.yul\":7281:7358   */\n      0x4e487b7100000000000000000000000000000000000000000000000000000000\n        /* \"#utility.yul\":7278:7279   */\n      0x00\n        /* \"#utility.yul\":7271:7359   */\n      mstore\n        /* \"#utility.yul\":7378:7382   */\n      0x22\n        /* \"#utility.yul\":7375:7376   */\n      0x04\n        /* \"#utility.yul\":7368:7383   */\n      mstore\n        /* \"#utility.yul\":7402:7406   */\n      0x24\n        /* \"#utility.yul\":7399:7400   */\n      0x00\n        /* \"#utility.yul\":7392:7407   */\n      revert\n        /* \"#utility.yul\":7419:7739   */\n    tag_45:\n        /* \"#utility.yul\":7463:7469   */\n      0x00\n        /* \"#utility.yul\":7500:7501   */\n      0x02\n        /* \"#utility.yul\":7494:7498   */\n      dup3\n        /* \"#utility.yul\":7490:7502   */\n      div\n        /* \"#utility.yul\":7480:7502   */\n      swap1\n      pop\n        /* \"#utility.yul\":7547:7548   */\n      0x01\n        /* \"#utility.yul\":7541:7545   */\n      dup3\n        /* \"#utility.yul\":7537:7549   */\n      and\n        /* \"#utility.yul\":7568:7586   */\n      dup1\n        /* \"#utility.yul\":7558:7639   */\n      tag_197\n      jumpi\n        /* \"#utility.yul\":7624:7628   */\n      0x7f\n        /* \"#utility.yul\":7616:7622   */\n      dup3\n        /* \"#utility.yul\":7612:7629   */\n      and\n        /* \"#utility.yul\":7602:7629   */\n      swap2\n      pop\n        /* \"#utility.yul\":7558:7639   */\n    tag_197:\n        /* \"#utility.yul\":7686:7688   */\n      0x20\n        /* \"#utility.yul\":7678:7684   */\n      dup3\n        /* \"#utility.yul\":7675:7689   */\n      lt\n        /* \"#utility.yul\":7655:7673   */\n      dup2\n        /* \"#utility.yul\":7652:7690   */\n      sub\n        /* \"#utility.yul\":7649:7733   */\n      tag_198\n      jumpi\n        /* \"#utility.yul\":7705:7723   */\n      tag_199\n      tag_97\n      jump\t// in\n    tag_199:\n        /* \"#utility.yul\":7649:7733   */\n    tag_198:\n        /* \"#utility.yul\":7470:7739   */\n      pop\n        /* \"#utility.yul\":7419:7739   */\n      swap2\n      swap1\n      pop\n      jump\t// out\n        /* \"#utility.yul\":7745:7886   */\n    tag_98:\n        /* \"#utility.yul\":7794:7798   */\n      0x00\n        /* \"#utility.yul\":7817:7820   */\n      dup2\n        /* \"#utility.yul\":7809:7820   */\n      swap1\n      pop\n        /* \"#utility.yul\":7840:7843   */\n      dup2\n        /* \"#utility.yul\":7837:7838   */\n      0x00\n        /* \"#utility.yul\":7830:7844   */\n      mstore\n        /* \"#utility.yul\":7874:7878   */\n      0x20\n        /* \"#utility.yul\":7871:7872   */\n      0x00\n        /* \"#utility.yul\":7861:7879   */\n      keccak256\n        /* \"#utility.yul\":7853:7879   */\n      swap1\n      pop\n        /* \"#utility.yul\":7745:7886   */\n      swap2\n      swap1\n      pop\n      jump\t// out\n        /* \"#utility.yul\":7892:7985   */\n    tag_99:\n        /* \"#utility.yul\":7929:7935   */\n      0x00\n        /* \"#utility.yul\":7976:7978   */\n      0x20\n        /* \"#utility.yul\":7971:7973   */\n      0x1f\n        /* \"#utility.yul\":7964:7969   */\n      dup4\n        /* \"#utility.yul\":7960:7974   */\n      add\n        /* \"#utility.yul\":7956:7979   */\n      div\n        /* \"#utility.yul\":7946:7979   */\n      swap1\n      pop\n        /* \"#utility.yul\":7892:7985   */\n      swap2\n      swap1\n      pop\n      jump\t// out\n        /* \"#utility.yul\":7991:8098   */\n    tag_100:\n        /* \"#utility.yul\":8035:8043   */\n      0x00\n        /* \"#utility.yul\":8085:8090   */\n      dup3\n        /* \"#utility.yul\":8079:8083   */\n      dup3\n        /* \"#utility.yul\":8075:8091   */\n      shl\n        /* \"#utility.yul\":8054:8091   */\n      swap1\n      pop\n        /* \"#utility.yul\":7991:8098   */\n      swap3\n      swap2\n      pop\n      pop\n      jump\t// out\n        /* \"#utility.yul\":8104:8497   */\n    tag_101:\n        /* \"#utility.yul\":8173:8179   */\n      0x00\n        /* \"#utility.yul\":8223:8224   */\n      0x08\n        /* \"#utility.yul\":8211:8221   */\n      dup4\n        /* \"#utility.yul\":8207:8225   */\n      mul\n        /* \"#utility.yul\":8246:8343   */\n      tag_204\n        /* \"#utility.yul\":8276:8342   */\n      0xffffffffffffffffffffffffffffffffffffffffffffffffffffffffffffffff\n        /* \"#utility.yul\":8265:8274   */\n      dup3\n        /* \"#utility.yul\":8246:8343   */\n      tag_100\n      jump\t// in\n    tag_204:\n        /* \"#utility.yul\":8364:8403   */\n      tag_205\n        /* \"#utility.yul\":8394:8402   */\n      dup7\n        /* \"#utility.yul\":8383:8392   */\n      dup4\n        /* \"#utility.yul\":8364:8403   */\n      tag_100\n      jump\t// in\n    tag_205:\n        /* \"#utility.yul\":8352:8403   */\n      swap6\n      pop\n        /* \"#utility.yul\":8436:8440   */\n      dup1\n        /* \"#utility.yul\":8432:8441   */\n      not\n        /* \"#utility.yul\":8425:8430   */\n      dup5\n        /* \"#utility.yul\":8421:8442   */\n      and\n        /* \"#utility.yul\":8412:8442   */\n      swap4\n      pop\n        /* \"#utility.yul\":8485:8489   */\n      dup1\n        /* \"#utility.yul\":8475:8483   */\n      dup7\n        /* \"#utility.yul\":8471:8490   */\n      and\n        /* \"#utility.yul\":8464:8469   */\n      dup5\n        /* \"#utility.yul\":8461:8491   */\n      or\n        /* \"#utility.yul\":8451:8491   */\n      swap3\n      pop\n        /* \"#utility.yul\":8180:8497   */\n      pop\n      pop\n        /* \"#utility.yul\":8104:8497   */\n      swap4\n      swap3\n      pop\n      pop\n      pop\n      jump\t// out\n        /* \"#utility.yul\":8503:8563   */\n    tag_102:\n        /* \"#utility.yul\":8531:8534   */\n      0x00\n        /* \"#utility.yul\":8552:8557   */\n      dup2\n        /* \"#utility.yul\":8545:8557   */\n      swap1\n      pop\n        /* \"#utility.yul\":8503:8563   */\n      swap2\n      swap1\n      pop\n      jump\t// out\n        /* \"#utility.yul\":8569:8711   */\n    tag_103:\n        /* \"#utility.yul\":8619:8628   */\n      0x00\n        /* \"#utility.yul\":8652:8705   */\n      tag_208\n        /* \"#utility.yul\":8670:8704   */\n      tag_209\n        /* \"#utility.yul\":8679:8703   */\n      tag_210\n        /* \"#utility.yul\":8697:8702   */\n      dup5\n        /* \"#utility.yul\":8679:8703   */\n      tag_85\n      jump\t// in\n    tag_210:\n        /* \"#utility.yul\":8670:8704   */\n      tag_102\n      jump\t// in\n    tag_209:\n        /* \"#utility.yul\":8652:8705   */\n      tag_85\n      jump\t// in\n    tag_208:\n        /* \"#utility.yul\":8639:8705   */\n      swap1\n      pop\n        /* \"#utility.yul\":8569:8711   */\n      swap2\n      swap1\n      pop\n      jump\t// out\n        /* \"#utility.yul\":8717:8792   */\n    tag_104:\n        /* \"#utility.yul\":8760:8763   */\n      0x00\n        /* \"#utility.yul\":8781:8786   */\n      dup2\n        /* \"#utility.yul\":8774:8786   */\n      swap1\n      pop\n        /* \"#utility.yul\":8717:8792   */\n      swap2\n      swap1\n      pop\n      jump\t// out\n        /* \"#utility.yul\":8798:9067   */\n    tag_105:\n        /* \"#utility.yul\":8908:8947   */\n      tag_213\n        /* \"#utility.yul\":8939:8946   */\n      dup4\n        /* \"#utility.yul\":8908:8947   */\n      tag_103\n      jump\t// in\n    tag_213:\n        /* \"#utility.yul\":8969:9060   */\n      tag_214\n        /* \"#utility.yul\":9018:9059   */\n      tag_215\n        /* \"#utility.yul\":9042:9058   */\n      dup3\n        /* \"#utility.yul\":9018:9059   */\n      tag_104\n      jump\t// in\n    tag_215:\n        /* \"#utility.yul\":9010:9016   */\n      dup5\n        /* \"#utility.yul\":9003:9007   */\n      dup5\n        /* \"#utility.yul\":8997:9008   */\n      sload\n        /* \"#utility.yul\":8969:9060   */\n      tag_101\n      jump\t// in\n    tag_214:\n        /* \"#utility.yul\":8963:8967   */\n      dup3\n        /* \"#utility.yul\":8956:9061   */\n      sstore\n        /* \"#utility.yul\":8874:9067   */\n      pop\n        /* \"#utility.yul\":8798:9067   */\n      pop\n      pop\n      pop\n      jump\t// out\n        /* \"#utility.yul\":9073:9146   */\n    tag_106:\n        /* \"#utility.yul\":9118:9121   */\n      0x00\n        /* \"#utility.yul\":9073:9146   */\n      swap1\n      jump\t// out\n        /* \"#utility.yul\":9152:9341   */\n    tag_107:\n        /* \"#utility.yul\":9229:9261   */\n      tag_218\n      tag_106\n      jump\t// in\n    tag_218:\n        /* \"#utility.yul\":9270:9335   */\n      tag_219\n        /* \"#utility.yul\":9328:9334   */\n      dup2\n        /* \"#utility.yul\":9320:9326   */\n      dup5\n        /* \"#utility.yul\":9314:9318   */\n      dup5\n        /* \"#utility.yul\":9270:9335   */\n      tag_105\n      jump\t// in\n    tag_219:\n        /* \"#utility.yul\":9205:9341   */\n      pop\n        /* \"#utility.yul\":9152:9341   */\n      pop\n      pop\n      jump\t// out\n        /* \"#utility.yul\":9347:9533   */\n    tag_108:\n        /* \"#utility.yul\":9407:9527   */\n    tag_221:\n        /* \"#utility.yul\":9424:9427   */\n      dup2\n        /* \"#utility.yul\":9417:9422   */\n      dup2\n        /* \"#utility.yul\":9414:9428   */\n      lt\n        /* \"#utility.yul\":9407:9527   */\n      iszero\n      tag_223\n      jumpi\n        /* \"#utility.yul\":9478:9517   */\n      tag_224\n        /* \"#utility.yul\":9515:9516   */\n      0x00\n        /* \"#utility.yul\":9508:9513   */\n      dup3\n        /* \"#utility.yul\":9478:9517   */\n      tag_107\n      jump\t// in\n    tag_224:\n        /* \"#utility.yul\":9451:9452   */\n      0x01\n        /* \"#utility.yul\":9444:9449   */\n      dup2\n        /* \"#utility.yul\":9440:9453   */\n      add\n        /* \"#utility.yul\":9431:9453   */\n      swap1\n      pop\n        /* \"#utility.yul\":9407:9527   */\n      jump(tag_221)\n    tag_223:\n        /* \"#utility.yul\":9347:9533   */\n      pop\n      pop\n      jump\t// out\n        /* \"#utility.yul\":9539:10082   */\n    tag_109:\n        /* \"#utility.yul\":9640:9642   */\n      0x1f\n        /* \"#utility.yul\":9635:9638   */\n      dup3\n        /* \"#utility.yul\":9632:9643   */\n      gt\n        /* \"#utility.yul\":9629:10075   */\n      iszero\n      tag_226\n      jumpi\n        /* \"#utility.yul\":9674:9712   */\n      tag_227\n        /* \"#utility.yul\":9706:9711   */\n      dup2\n        /* \"#utility.yul\":9674:9712   */\n      tag_98\n      jump\t// in\n    tag_227:\n        /* \"#utility.yul\":9758:9787   */\n      tag_228\n        /* \"#utility.yul\":9776:9786   */\n      dup5\n        /* \"#utility.yul\":9758:9787   */\n      tag_99\n      jump\t// in\n    tag_228:\n        /* \"#utility.yul\":9748:9756   */\n      dup2\n        /* \"#utility.yul\":9744:9788   */\n      add\n        /* \"#utility.yul\":9941:9943   */\n      0x20\n        /* \"#utility.yul\":9929:9939   */\n      dup6\n        /* \"#utility.yul\":9926:9944   */\n      lt\n        /* \"#utility.yul\":9923:9972   */\n      iszero\n      tag_229\n      jumpi\n        /* \"#utility.yul\":9962:9970   */\n      dup2\n        /* \"#utility.yul\":9947:9970   */\n      swap1\n      pop\n        /* \"#utility.yul\":9923:9972   */\n    tag_229:\n        /* \"#utility.yul\":9985:10065   */\n      tag_230\n        /* \"#utility.yul\":10041:10063   */\n      tag_231\n        /* \"#utility.yul\":10059:10062   */\n      dup6\n        /* \"#utility.yul\":10041:10063   */\n      tag_99\n      jump\t// in\n    tag_231:\n        /* \"#utility.yul\":10031:10039   */\n      dup4\n        /* \"#utility.yul\":10027:10064   */\n      add\n        /* \"#utility.yul\":10014:10025   */\n      dup3\n        /* \"#utility.yul\":9985:10065   */\n      tag_108\n      jump\t// in\n    tag_230:\n        /* \"#utility.yul\":9644:10075   */\n      pop\n      pop\n        /* \"#utility.yul\":9629:10075   */\n    tag_226:\n        /* \"#utility.yul\":9539:10082   */\n      pop\n      pop\n      pop\n      jump\t// out\n        /* \"#utility.yul\":10088:10205   */\n    tag_110:\n        /* \"#utility.yul\":10142:10150   */\n      0x00\n        /* \"#utility.yul\":10192:10197   */\n      dup3\n        /* \"#utility.yul\":10186:10190   */\n      dup3\n        /* \"#utility.yul\":10182:10198   */\n      shr\n        /* \"#utility.yul\":10161:10198   */\n      swap1\n      pop\n        /* \"#utility.yul\":10088:10205   */\n      swap3\n      swap2\n      pop\n      pop\n      jump\t// out\n        /* \"#utility.yul\":10211:10380   */\n    tag_111:\n        /* \"#utility.yul\":10255:10261   */\n      0x00\n        /* \"#utility.yul\":10288:10339   */\n      tag_234\n        /* \"#utility.yul\":10336:10337   */\n      0x00\n        /* \"#utility.yul\":10332:10338   */\n      not\n        /* \"#utility.yul\":10324:10329   */\n      dup5\n        /* \"#utility.yul\":10321:10322   */\n      0x08\n        /* \"#utility.yul\":10317:10330   */\n      mul\n        /* \"#utility.yul\":10288:10339   */\n      tag_110\n      jump\t// in\n    tag_234:\n        /* \"#utility.yul\":10284:10340   */\n      not\n        /* \"#utility.yul\":10369:10373   */\n      dup1\n        /* \"#utility.yul\":10363:10367   */\n      dup4\n        /* \"#utility.yul\":10359:10374   */\n      and\n        /* \"#utility.yul\":10349:10374   */\n      swap2\n      pop\n        /* \"#utility.yul\":10262:10380   */\n      pop\n        /* \"#utility.yul\":10211:10380   */\n      swap3\n      swap2\n      pop\n      pop\n      jump\t// out\n        /* \"#utility.yul\":10385:10680   */\n    tag_112:\n        /* \"#utility.yul\":10461:10465   */\n      0x00\n        /* \"#utility.yul\":10607:10636   */\n      tag_236\n        /* \"#utility.yul\":10632:10635   */\n      dup4\n        /* \"#utility.yul\":10626:10630   */\n      dup4\n        /* \"#utility.yul\":10607:10636   */\n      tag_111\n      jump\t// in\n    tag_236:\n        /* \"#utility.yul\":10599:10636   */\n      swap2\n      pop\n        /* \"#utility.yul\":10669:10672   */\n      dup3\n        /* \"#utility.yul\":10666:10667   */\n      0x02\n        /* \"#utility.yul\":10662:10673   */\n      mul\n        /* \"#utility.yul\":10656:10660   */\n      dup3\n        /* \"#utility.yul\":10653:10674   */\n      or\n        /* \"#utility.yul\":10645:10674   */\n      swap1\n      pop\n        /* \"#utility.yul\":10385:10680   */\n      swap3\n      swap2\n      pop\n      pop\n      jump\t// out\n        /* \"#utility.yul\":10685:12080   */\n    tag_40:\n        /* \"#utility.yul\":10802:10839   */\n      tag_238\n        /* \"#utility.yul\":10835:10838   */\n      dup3\n        /* \"#utility.yul\":10802:10839   */\n      tag_92\n      jump\t// in\n    tag_238:\n        /* \"#utility.yul\":10904:10922   */\n      0xffffffffffffffff\n        /* \"#utility.yul\":10896:10902   */\n      dup2\n        /* \"#utility.yul\":10893:10923   */\n      gt\n        /* \"#utility.yul\":10890:10946   */\n      iszero\n      tag_239\n      jumpi\n        /* \"#utility.yul\":10926:10944   */\n      tag_240\n      tag_78\n      jump\t// in\n    tag_240:\n        /* \"#utility.yul\":10890:10946   */\n    tag_239:\n        /* \"#utility.yul\":10970:11008   */\n      tag_241\n        /* \"#utility.yul\":11002:11006   */\n      dup3\n        /* \"#utility.yul\":10996:11007   */\n      sload\n        /* \"#utility.yul\":10970:11008   */\n      tag_45\n      jump\t// in\n    tag_241:\n        /* \"#utility.yul\":11055:11122   */\n      tag_242\n        /* \"#utility.yul\":11115:11121   */\n      dup3\n        /* \"#utility.yul\":11107:11113   */\n      dup3\n        /* \"#utility.yul\":11101:11105   */\n      dup6\n        /* \"#utility.yul\":11055:11122   */\n      tag_109\n      jump\t// in\n    tag_242:\n        /* \"#utility.yul\":11149:11150   */\n      0x00\n        /* \"#utility.yul\":11173:11177   */\n      0x20\n        /* \"#utility.yul\":11160:11177   */\n      swap1\n      pop\n        /* \"#utility.yul\":11205:11207   */\n      0x1f\n        /* \"#utility.yul\":11197:11203   */\n      dup4\n        /* \"#utility.yul\":11194:11208   */\n      gt\n        /* \"#utility.yul\":11222:11223   */\n      0x01\n        /* \"#utility.yul\":11217:11835   */\n      dup2\n      eq\n      tag_244\n      jumpi\n        /* \"#utility.yul\":11879:11880   */\n      0x00\n        /* \"#utility.yul\":11896:11902   */\n      dup5\n        /* \"#utility.yul\":11893:11970   */\n      iszero\n      tag_245\n      jumpi\n        /* \"#utility.yul\":11945:11954   */\n      dup3\n        /* \"#utility.yul\":11940:11943   */\n      dup8\n        /* \"#utility.yul\":11936:11955   */\n      add\n        /* \"#utility.yul\":11930:11956   */\n      mload\n        /* \"#utility.yul\":11921:11956   */\n      swap1\n      pop\n        /* \"#utility.yul\":11893:11970   */\n    tag_245:\n        /* \"#utility.yul\":11996:12063   */\n      tag_246\n        /* \"#utility.yul\":12056:12062   */\n      dup6\n        /* \"#utility.yul\":12049:12054   */\n      dup3\n        /* \"#utility.yul\":11996:12063   */\n      tag_112\n      jump\t// in\n    tag_246:\n        /* \"#utility.yul\":11990:11994   */\n      dup7\n        /* \"#utility.yul\":11983:12064   */\n      sstore\n        /* \"#utility.yul\":11852:12074   */\n      pop\n        /* \"#utility.yul\":11187:12074   */\n      jump(tag_243)\n        /* \"#utility.yul\":11217:11835   */\n    tag_244:\n        /* \"#utility.yul\":11269:11273   */\n      0x1f\n        /* \"#utility.yul\":11265:11274   */\n      not\n        /* \"#utility.yul\":11257:11263   */\n      dup5\n        /* \"#utility.yul\":11253:11275   */\n      and\n        /* \"#utility.yul\":11303:11340   */\n      tag_247\n        /* \"#utility.yul\":11335:11339   */\n      dup7\n        /* \"#utility.yul\":11303:11340   */\n      tag_98\n      jump\t// in\n    tag_247:\n        /* \"#utility.yul\":11362:11363   */\n      0x00\n        /* \"#utility.yul\":11376:11584   */\n    tag_248:\n        /* \"#utility.yul\":11390:11397   */\n      dup3\n        /* \"#utility.yul\":11387:11388   */\n      dup2\n        /* \"#utility.yul\":11384:11398   */\n      lt\n        /* \"#utility.yul\":11376:11584   */\n      iszero\n      tag_250\n      jumpi\n        /* \"#utility.yul\":11469:11478   */\n      dup5\n        /* \"#utility.yul\":11464:11467   */\n      dup10\n        /* \"#utility.yul\":11460:11479   */\n      add\n        /* \"#utility.yul\":11454:11480   */\n      mload\n        /* \"#utility.yul\":11446:11452   */\n      dup3\n        /* \"#utility.yul\":11439:11481   */\n      sstore\n        /* \"#utility.yul\":11520:11521   */\n      0x01\n        /* \"#utility.yul\":11512:11518   */\n      dup3\n        /* \"#utility.yul\":11508:11522   */\n      add\n        /* \"#utility.yul\":11498:11522   */\n      swap2\n      pop\n        /* \"#utility.yul\":11567:11569   */\n      0x20\n        /* \"#utility.yul\":11556:11565   */\n      dup6\n        /* \"#utility.yul\":11552:11570   */\n      add\n        /* \"#utility.yul\":11539:11570   */\n      swap5\n      pop\n        /* \"#utility.yul\":11413:11417   */\n      0x20\n        /* \"#utility.yul\":11410:11411   */\n      dup2\n        /* \"#utility.yul\":11406:11418   */\n      add\n        /* \"#utility.yul\":11401:11418   */\n      swap1\n      pop\n        /* \"#utility.yul\":11376:11584   */\n      jump(tag_248)\n    tag_250:\n        /* \"#utility.yul\":11612:11618   */\n      dup7\n        /* \"#utility.yul\":11603:11610   */\n      dup4\n        /* \"#utility.yul\":11600:11619   */\n      lt\n        /* \"#utility.yul\":11597:11776   */\n      iszero\n      tag_251\n      jumpi\n        /* \"#utility.yul\":11670:11679   */\n      dup5\n        /* \"#utility.yul\":11665:11668   */\n      dup10\n        /* \"#utility.yul\":11661:11680   */\n      add\n        /* \"#utility.yul\":11655:11681   */\n      mload\n        /* \"#utility.yul\":11713:11761   */\n      tag_252\n        /* \"#utility.yul\":11755:11759   */\n      0x1f\n        /* \"#utility.yul\":11747:11753   */\n      dup10\n        /* \"#utility.yul\":11743:11760   */\n      and\n        /* \"#utility.yul\":11732:11741   */\n      dup3\n        /* \"#utility.yul\":11713:11761   */\n      tag_111\n      jump\t// in\n    tag_252:\n        /* \"#utility.yul\":11705:11711   */\n      dup4\n        /* \"#utility.yul\":11698:11762   */\n      sstore\n        /* \"#utility.yul\":11620:11776   */\n      pop\n        /* \"#utility.yul\":11597:11776   */\n    tag_251:\n        /* \"#utility.yul\":11822:11823   */\n      0x01\n        /* \"#utility.yul\":11818:11819   */\n      0x02\n        /* \"#utility.yul\":11810:11816   */\n      dup9\n        /* \"#utility.yul\":11806:11820   */\n      mul\n        /* \"#utility.yul\":11802:11824   */\n      add\n        /* \"#utility.yul\":11796:11800   */\n      dup9\n        /* \"#utility.yul\":11789:11825   */\n      sstore\n        /* \"#utility.yul\":11224:11835   */\n      pop\n      pop\n      pop\n        /* \"#utility.yul\":11187:12074   */\n    tag_243:\n      pop\n        /* \"#utility.yul\":10777:12080   */\n      pop\n      pop\n      pop\n        /* \"#utility.yul\":10685:12080   */\n      pop\n      pop\n      jump\t// out\n        /* \"#utility.yul\":12086:12266   */\n    tag_53:\n        /* \"#utility.yul\":12134:12211   */\n      0x4e487b7100000000000000000000000000000000000000000000000000000000\n        /* \"#utility.yul\":12131:12132   */\n      0x00\n        /* \"#utility.yul\":12124:12212   */\n      mstore\n        /* \"#utility.yul\":12231:12235   */\n      0x32\n        /* \"#utility.yul\":12228:12229   */\n      0x04\n        /* \"#utility.yul\":12221:12236   */\n      mstore\n        /* \"#utility.yul\":12255:12259   */\n      0x24\n        /* \"#utility.yul\":12252:12253   */\n      0x00\n        /* \"#utility.yul\":12245:12260   */\n      revert\n\n    auxdata: 0xa26469706673582212203cbcc9d847476ece2fda9380a11b1099fda5faf88e73a72336d2039593c3813664736f6c634300081a0033\n}\n",
				"bytecode": {
					"linkReferences": {},
					"object": "6080604052348015600e575f80fd5b50610bef8061001c5f395ff3fe608060405234801561000f575f80fd5b5060043610610060575f3560e01c80630d3de88d146100645780630e0c243d146100805780634b61dd341461009c578063a677c48f146100cc578063a857bf32146100fc578063b9d6dedb1461012d575b5f80fd5b61007e60048036038101906100799190610690565b61015e565b005b61009a60048036038101906100959190610744565b6101be565b005b6100b660048036038101906100b191906107b0565b610236565b6040516100c3919061083b565b60405180910390f35b6100e660048036038101906100e1919061085b565b610305565b6040516100f3919061083b565b60405180910390f35b610116600480360381019061011191906107b0565b6103b6565b604051610124929190610895565b60405180910390f35b6101476004803603810190610142919061085b565b61045c565b604051610155929190610895565b60405180910390f35b5f604051806040016040528084815260200183815250908060018154018082558091505060019003905f5260205f2090600202015f909190919091505f820151815f0190816101ad9190610abd565b506020820151816001015550505050565b60405180604001604052808381526020018281525060015f8573ffffffffffffffffffffffffffffffffffffffff1673ffffffffffffffffffffffffffffffffffffffff1681526020019081526020015f205f820151815f0190816102239190610abd565b5060208201518160010155905050505050565b606060015f8373ffffffffffffffffffffffffffffffffffffffff1673ffffffffffffffffffffffffffffffffffffffff1681526020019081526020015f205f018054610282906108f0565b80601f01602080910402602001604051908101604052809291908181526020018280546102ae906108f0565b80156102f95780601f106102d0576101008083540402835291602001916102f9565b820191905f5260205f20905b8154815290600101906020018083116102dc57829003601f168201915b50505050509050919050565b60605f828154811061031a57610319610b8c565b5b905f5260205f2090600202015f018054610333906108f0565b80601f016020809104026020016040519081016040528092919081815260200182805461035f906108f0565b80156103aa5780601f10610381576101008083540402835291602001916103aa565b820191905f5260205f20905b81548152906001019060200180831161038d57829003601f168201915b50505050509050919050565b6001602052805f5260405f205f91509050805f0180546103d5906108f0565b80601f0160208091040260200160405190810160405280929190818152602001828054610401906108f0565b801561044c5780601f106104235761010080835404028352916020019161044c565b820191905f5260205f20905b81548152906001019060200180831161042f57829003601f168201915b5050505050908060010154905082565b5f818154811061046a575f80fd5b905f5260205f2090600202015f91509050805f018054610489906108f0565b80601f01602080910402602001604051908101604052809291908181526020018280546104b5906108f0565b80156105005780601f106104d757610100808354040283529160200191610500565b820191905f5260205f20905b8154815290600101906020018083116104e357829003601f168201915b5050505050908060010154905082565b5f604051905090565b5f80fd5b5f80fd5b5f80fd5b5f80fd5b5f601f19601f8301169050919050565b7f4e487b71000000000000000000000000000000000000000000000000000000005f52604160045260245ffd5b61056f82610529565b810181811067ffffffffffffffff8211171561058e5761058d610539565b5b80604052505050565b5f6105a0610510565b90506105ac8282610566565b919050565b5f67ffffffffffffffff8211156105cb576105ca610539565b5b6105d482610529565b9050602081019050919050565b828183375f83830152505050565b5f6106016105fc846105b1565b610597565b90508281526020810184848401111561061d5761061c610525565b5b6106288482856105e1565b509392505050565b5f82601f83011261064457610643610521565b5b81356106548482602086016105ef565b91505092915050565b5f819050919050565b61066f8161065d565b8114610679575f80fd5b50565b5f8135905061068a81610666565b92915050565b5f80604083850312156106a6576106a5610519565b5b5f83013567ffffffffffffffff8111156106c3576106c261051d565b5b6106cf85828601610630565b92505060206106e08582860161067c565b9150509250929050565b5f73ffffffffffffffffffffffffffffffffffffffff82169050919050565b5f610713826106ea565b9050919050565b61072381610709565b811461072d575f80fd5b50565b5f8135905061073e8161071a565b92915050565b5f805f6060848603121561075b5761075a610519565b5b5f61076886828701610730565b935050602084013567ffffffffffffffff8111156107895761078861051d565b5b61079586828701610630565b92505060406107a68682870161067c565b9150509250925092565b5f602082840312156107c5576107c4610519565b5b5f6107d284828501610730565b91505092915050565b5f81519050919050565b5f82825260208201905092915050565b8281835e5f83830152505050565b5f61080d826107db565b61081781856107e5565b93506108278185602086016107f5565b61083081610529565b840191505092915050565b5f6020820190508181035f8301526108538184610803565b905092915050565b5f602082840312156108705761086f610519565b5b5f61087d8482850161067c565b91505092915050565b61088f8161065d565b82525050565b5f6040820190508181035f8301526108ad8185610803565b90506108bc6020830184610886565b9392505050565b7f4e487b71000000000000000000000000000000000000000000000000000000005f52602260045260245ffd5b5f600282049050600182168061090757607f821691505b60208210810361091a576109196108c3565b5b50919050565b5f819050815f5260205f209050919050565b5f6020601f8301049050919050565b5f82821b905092915050565b5f6008830261097c7fffffffffffffffffffffffffffffffffffffffffffffffffffffffffffffffff82610941565b6109868683610941565b95508019841693508086168417925050509392505050565b5f819050919050565b5f6109c16109bc6109b78461065d565b61099e565b61065d565b9050919050565b5f819050919050565b6109da836109a7565b6109ee6109e6826109c8565b84845461094d565b825550505050565b5f90565b610a026109f6565b610a0d8184846109d1565b505050565b5b81811015610a3057610a255f826109fa565b600181019050610a13565b5050565b601f821115610a7557610a4681610920565b610a4f84610932565b81016020851015610a5e578190505b610a72610a6a85610932565b830182610a12565b50505b505050565b5f82821c905092915050565b5f610a955f1984600802610a7a565b1980831691505092915050565b5f610aad8383610a86565b9150826002028217905092915050565b610ac6826107db565b67ffffffffffffffff811115610adf57610ade610539565b5b610ae982546108f0565b610af4828285610a34565b5f60209050601f831160018114610b25575f8415610b13578287015190505b610b1d8582610aa2565b865550610b84565b601f198416610b3386610920565b5f5b82811015610b5a57848901518255600182019150602085019450602081019050610b35565b86831015610b775784890151610b73601f891682610a86565b8355505b6001600288020188555050505b505050505050565b7f4e487b71000000000000000000000000000000000000000000000000000000005f52603260045260245ffdfea26469706673582212203cbcc9d847476ece2fda9380a11b1099fda5faf88e73a72336d2039593c3813664736f6c634300081a0033",
					"opcodes": "PUSH1 0x80 PUSH1 0x40 MSTORE CALLVALUE DUP1 ISZERO PUSH1 0xE JUMPI PUSH0 DUP1 REVERT JUMPDEST POP PUSH2 0xBEF DUP1 PUSH2 0x1C PUSH0 CODECOPY PUSH0 RETURN INVALID PUSH1 0x80 PUSH1 0x40 MSTORE CALLVALUE DUP1 ISZERO PUSH2 0xF JUMPI PUSH0 DUP1 REVERT JUMPDEST POP PUSH1 0x4 CALLDATASIZE LT PUSH2 0x60 JUMPI PUSH0 CALLDATALOAD PUSH1 0xE0 SHR DUP1 PUSH4 0xD3DE88D EQ PUSH2 0x64 JUMPI DUP1 PUSH4 0xE0C243D EQ PUSH2 0x80 JUMPI DUP1 PUSH4 0x4B61DD34 EQ PUSH2 0x9C JUMPI DUP1 PUSH4 0xA677C48F EQ PUSH2 0xCC JUMPI DUP1 PUSH4 0xA857BF32 EQ PUSH2 0xFC JUMPI DUP1 PUSH4 0xB9D6DEDB EQ PUSH2 0x12D JUMPI JUMPDEST PUSH0 DUP1 REVERT JUMPDEST PUSH2 0x7E PUSH1 0x4 DUP1 CALLDATASIZE SUB DUP2 ADD SWAP1 PUSH2 0x79 SWAP2 SWAP1 PUSH2 0x690 JUMP JUMPDEST PUSH2 0x15E JUMP JUMPDEST STOP JUMPDEST PUSH2 0x9A PUSH1 0x4 DUP1 CALLDATASIZE SUB DUP2 ADD SWAP1 PUSH2 0x95 SWAP2 SWAP1 PUSH2 0x744 JUMP JUMPDEST PUSH2 0x1BE JUMP JUMPDEST STOP JUMPDEST PUSH2 0xB6 PUSH1 0x4 DUP1 CALLDATASIZE SUB DUP2 ADD SWAP1 PUSH2 0xB1 SWAP2 SWAP1 PUSH2 0x7B0 JUMP JUMPDEST PUSH2 0x236 JUMP JUMPDEST PUSH1 0x40 MLOAD PUSH2 0xC3 SWAP2 SWAP1 PUSH2 0x83B JUMP JUMPDEST PUSH1 0x40 MLOAD DUP1 SWAP2 SUB SWAP1 RETURN JUMPDEST PUSH2 0xE6 PUSH1 0x4 DUP1 CALLDATASIZE SUB DUP2 ADD SWAP1 PUSH2 0xE1 SWAP2 SWAP1 PUSH2 0x85B JUMP JUMPDEST PUSH2 0x305 JUMP JUMPDEST PUSH1 0x40 MLOAD PUSH2 0xF3 SWAP2 SWAP1 PUSH2 0x83B JUMP JUMPDEST PUSH1 0x40 MLOAD DUP1 SWAP2 SUB SWAP1 RETURN JUMPDEST PUSH2 0x116 PUSH1 0x4 DUP1 CALLDATASIZE SUB DUP2 ADD SWAP1 PUSH2 0x111 SWAP2 SWAP1 PUSH2 0x7B0 JUMP JUMPDEST PUSH2 0x3B6 JUMP JUMPDEST PUSH1 0x40 MLOAD PUSH2 0x124 SWAP3 SWAP2 SWAP1 PUSH2 0x895 JUMP JUMPDEST PUSH1 0x40 MLOAD DUP1 SWAP2 SUB SWAP1 RETURN JUMPDEST PUSH2 0x147 PUSH1 0x4 DUP1 CALLDATASIZE SUB DUP2 ADD SWAP1 PUSH2 0x142 SWAP2 SWAP1 PUSH2 0x85B JUMP JUMPDEST PUSH2 0x45C JUMP JUMPDEST PUSH1 0x40 MLOAD PUSH2 0x155 SWAP3 SWAP2 SWAP1 PUSH2 0x895 JUMP JUMPDEST PUSH1 0x40 MLOAD DUP1 SWAP2 SUB SWAP1 RETURN JUMPDEST PUSH0 PUSH1 0x40 MLOAD DUP1 PUSH1 0x40 ADD PUSH1 0x40 MSTORE DUP1 DUP5 DUP2 MSTORE PUSH1 0x20 ADD DUP4 DUP2 MSTORE POP SWAP1 DUP1 PUSH1 0x1 DUP2 SLOAD ADD DUP1 DUP3 SSTORE DUP1 SWAP2 POP POP PUSH1 0x1 SWAP1 SUB SWAP1 PUSH0 MSTORE PUSH1 0x20 PUSH0 KECCAK256 SWAP1 PUSH1 0x2 MUL ADD PUSH0 SWAP1 SWAP2 SWAP1 SWAP2 SWAP1 SWAP2 POP PUSH0 DUP3 ADD MLOAD DUP2 PUSH0 ADD SWAP1 DUP2 PUSH2 0x1AD SWAP2 SWAP1 PUSH2 0xABD JUMP JUMPDEST POP PUSH1 0x20 DUP3 ADD MLOAD DUP2 PUSH1 0x1 ADD SSTORE POP POP POP POP JUMP JUMPDEST PUSH1 0x40 MLOAD DUP1 PUSH1 0x40 ADD PUSH1 0x40 MSTORE DUP1 DUP4 DUP2 MSTORE PUSH1 0x20 ADD DUP3 DUP2 MSTORE POP PUSH1 0x1 PUSH0 DUP6 PUSH20 0xFFFFFFFFFFFFFFFFFFFFFFFFFFFFFFFFFFFFFFFF AND PUSH20 0xFFFFFFFFFFFFFFFFFFFFFFFFFFFFFFFFFFFFFFFF AND DUP2 MSTORE PUSH1 0x20 ADD SWAP1 DUP2 MSTORE PUSH1 0x20 ADD PUSH0 KECCAK256 PUSH0 DUP3 ADD MLOAD DUP2 PUSH0 ADD SWAP1 DUP2 PUSH2 0x223 SWAP2 SWAP1 PUSH2 0xABD JUMP JUMPDEST POP PUSH1 0x20 DUP3 ADD MLOAD DUP2 PUSH1 0x1 ADD SSTORE SWAP1 POP POP POP POP POP JUMP JUMPDEST PUSH1 0x60 PUSH1 0x1 PUSH0 DUP4 PUSH20 0xFFFFFFFFFFFFFFFFFFFFFFFFFFFFFFFFFFFFFFFF AND PUSH20 0xFFFFFFFFFFFFFFFFFFFFFFFFFFFFFFFFFFFFFFFF AND DUP2 MSTORE PUSH1 0x20 ADD SWAP1 DUP2 MSTORE PUSH1 0x20 ADD PUSH0 KECCAK256 PUSH0 ADD DUP1 SLOAD PUSH2 0x282 SWAP1 PUSH2 0x8F0 JUMP JUMPDEST DUP1 PUSH1 0x1F ADD PUSH1 0x20 DUP1 SWAP2 DIV MUL PUSH1 0x20 ADD PUSH1 0x40 MLOAD SWAP1 DUP2 ADD PUSH1 0x40 MSTORE DUP1 SWAP3 SWAP2 SWAP1 DUP2 DUP2 MSTORE PUSH1 0x20 ADD DUP3 DUP1 SLOAD PUSH2 0x2AE SWAP1 PUSH2 0x8F0 JUMP JUMPDEST DUP1 ISZERO PUSH2 0x2F9 JUMPI DUP1 PUSH1 0x1F LT PUSH2 0x2D0 JUMPI PUSH2 0x100 DUP1 DUP4 SLOAD DIV MUL DUP4 MSTORE SWAP2 PUSH1 0x20 ADD SWAP2 PUSH2 0x2F9 JUMP JUMPDEST DUP3 ADD SWAP2 SWAP1 PUSH0 MSTORE PUSH1 0x20 PUSH0 KECCAK256 SWAP1 JUMPDEST DUP2 SLOAD DUP2 MSTORE SWAP1 PUSH1 0x1 ADD SWAP1 PUSH1 0x20 ADD DUP1 DUP4 GT PUSH2 0x2DC JUMPI DUP3 SWAP1 SUB PUSH1 0x1F AND DUP3 ADD SWAP2 JUMPDEST POP POP POP POP POP SWAP1 POP SWAP2 SWAP1 POP JUMP JUMPDEST PUSH1 0x60 PUSH0 DUP3 DUP2 SLOAD DUP2 LT PUSH2 0x31A JUMPI PUSH2 0x319 PUSH2 0xB8C JUMP JUMPDEST JUMPDEST SWAP1 PUSH0 MSTORE PUSH1 0x20 PUSH0 KECCAK256 SWAP1 PUSH1 0x2 MUL ADD PUSH0 ADD DUP1 SLOAD PUSH2 0x333 SWAP1 PUSH2 0x8F0 JUMP JUMPDEST DUP1 PUSH1 0x1F ADD PUSH1 0x20 DUP1 SWAP2 DIV MUL PUSH1 0x20 ADD PUSH1 0x40 MLOAD SWAP1 DUP2 ADD PUSH1 0x40 MSTORE DUP1 SWAP3 SWAP2 SWAP1 DUP2 DUP2 MSTORE PUSH1 0x20 ADD DUP3 DUP1 SLOAD PUSH2 0x35F SWAP1 PUSH2 0x8F0 JUMP JUMPDEST DUP1 ISZERO PUSH2 0x3AA JUMPI DUP1 PUSH1 0x1F LT PUSH2 0x381 JUMPI PUSH2 0x100 DUP1 DUP4 SLOAD DIV MUL DUP4 MSTORE SWAP2 PUSH1 0x20 ADD SWAP2 PUSH2 0x3AA JUMP JUMPDEST DUP3 ADD SWAP2 SWAP1 PUSH0 MSTORE PUSH1 0x20 PUSH0 KECCAK256 SWAP1 JUMPDEST DUP2 SLOAD DUP2 MSTORE SWAP1 PUSH1 0x1 ADD SWAP1 PUSH1 0x20 ADD DUP1 DUP4 GT PUSH2 0x38D JUMPI DUP3 SWAP1 SUB PUSH1 0x1F AND DUP3 ADD SWAP2 JUMPDEST POP POP POP POP POP SWAP1 POP SWAP2 SWAP1 POP JUMP JUMPDEST PUSH1 0x1 PUSH1 0x20 MSTORE DUP1 PUSH0 MSTORE PUSH1 0x40 PUSH0 KECCAK256 PUSH0 SWAP2 POP SWAP1 POP DUP1 PUSH0 ADD DUP1 SLOAD PUSH2 0x3D5 SWAP1 PUSH2 0x8F0 JUMP JUMPDEST DUP1 PUSH1 0x1F ADD PUSH1 0x20 DUP1 SWAP2 DIV MUL PUSH1 0x20 ADD PUSH1 0x40 MLOAD SWAP1 DUP2 ADD PUSH1 0x40 MSTORE DUP1 SWAP3 SWAP2 SWAP1 DUP2 DUP2 MSTORE PUSH1 0x20 ADD DUP3 DUP1 SLOAD PUSH2 0x401 SWAP1 PUSH2 0x8F0 JUMP JUMPDEST DUP1 ISZERO PUSH2 0x44C JUMPI DUP1 PUSH1 0x1F LT PUSH2 0x423 JUMPI PUSH2 0x100 DUP1 DUP4 SLOAD DIV MUL DUP4 MSTORE SWAP2 PUSH1 0x20 ADD SWAP2 PUSH2 0x44C JUMP JUMPDEST DUP3 ADD SWAP2 SWAP1 PUSH0 MSTORE PUSH1 0x20 PUSH0 KECCAK256 SWAP1 JUMPDEST DUP2 SLOAD DUP2 MSTORE SWAP1 PUSH1 0x1 ADD SWAP1 PUSH1 0x20 ADD DUP1 DUP4 GT PUSH2 0x42F JUMPI DUP3 SWAP1 SUB PUSH1 0x1F AND DUP3 ADD SWAP2 JUMPDEST POP POP POP POP POP SWAP1 DUP1 PUSH1 0x1 ADD SLOAD SWAP1 POP DUP3 JUMP JUMPDEST PUSH0 DUP2 DUP2 SLOAD DUP2 LT PUSH2 0x46A JUMPI PUSH0 DUP1 REVERT JUMPDEST SWAP1 PUSH0 MSTORE PUSH1 0x20 PUSH0 KECCAK256 SWAP1 PUSH1 0x2 MUL ADD PUSH0 SWAP2 POP SWAP1 POP DUP1 PUSH0 ADD DUP1 SLOAD PUSH2 0x489 SWAP1 PUSH2 0x8F0 JUMP JUMPDEST DUP1 PUSH1 0x1F ADD PUSH1 0x20 DUP1 SWAP2 DIV MUL PUSH1 0x20 ADD PUSH1 0x40 MLOAD SWAP1 DUP2 ADD PUSH1 0x40 MSTORE DUP1 SWAP3 SWAP2 SWAP1 DUP2 DUP2 MSTORE PUSH1 0x20 ADD DUP3 DUP1 SLOAD PUSH2 0x4B5 SWAP1 PUSH2 0x8F0 JUMP JUMPDEST DUP1 ISZERO PUSH2 0x500 JUMPI DUP1 PUSH1 0x1F LT PUSH2 0x4D7 JUMPI PUSH2 0x100 DUP1 DUP4 SLOAD DIV MUL DUP4 MSTORE SWAP2 PUSH1 0x20 ADD SWAP2 PUSH2 0x500 JUMP JUMPDEST DUP3 ADD SWAP2 SWAP1 PUSH0 MSTORE PUSH1 0x20 PUSH0 KECCAK256 SWAP1 JUMPDEST DUP2 SLOAD DUP2 MSTORE SWAP1 PUSH1 0x1 ADD SWAP1 PUSH1 0x20 ADD DUP1 DUP4 GT PUSH2 0x4E3 JUMPI DUP3 SWAP1 SUB PUSH1 0x1F AND DUP3 ADD SWAP2 JUMPDEST POP POP POP POP POP SWAP1 DUP1 PUSH1 0x1 ADD SLOAD SWAP1 POP DUP3 JUMP JUMPDEST PUSH0 PUSH1 0x40 MLOAD SWAP1 POP SWAP1 JUMP JUMPDEST PUSH0 DUP1 REVERT JUMPDEST PUSH0 DUP1 REVERT JUMPDEST PUSH0 DUP1 REVERT JUMPDEST PUSH0 DUP1 REVERT JUMPDEST PUSH0 PUSH1 0x1F NOT PUSH1 0x1F DUP4 ADD AND SWAP1 POP SWAP2 SWAP1 POP JUMP JUMPDEST PUSH32 0x4E487B7100000000000000000000000000000000000000000000000000000000 PUSH0 MSTORE PUSH1 0x41 PUSH1 0x4 MSTORE PUSH1 0x24 PUSH0 REVERT JUMPDEST PUSH2 0x56F DUP3 PUSH2 0x529 JUMP JUMPDEST DUP2 ADD DUP2 DUP2 LT PUSH8 0xFFFFFFFFFFFFFFFF DUP3 GT OR ISZERO PUSH2 0x58E JUMPI PUSH2 0x58D PUSH2 0x539 JUMP JUMPDEST JUMPDEST DUP1 PUSH1 0x40 MSTORE POP POP POP JUMP JUMPDEST PUSH0 PUSH2 0x5A0 PUSH2 0x510 JUMP JUMPDEST SWAP1 POP PUSH2 0x5AC DUP3 DUP3 PUSH2 0x566 JUMP JUMPDEST SWAP2 SWAP1 POP JUMP JUMPDEST PUSH0 PUSH8 0xFFFFFFFFFFFFFFFF DUP3 GT ISZERO PUSH2 0x5CB JUMPI PUSH2 0x5CA PUSH2 0x539 JUMP JUMPDEST JUMPDEST PUSH2 0x5D4 DUP3 PUSH2 0x529 JUMP JUMPDEST SWAP1 POP PUSH1 0x20 DUP2 ADD SWAP1 POP SWAP2 SWAP1 POP JUMP JUMPDEST DUP3 DUP2 DUP4 CALLDATACOPY PUSH0 DUP4 DUP4 ADD MSTORE POP POP POP JUMP JUMPDEST PUSH0 PUSH2 0x601 PUSH2 0x5FC DUP5 PUSH2 0x5B1 JUMP JUMPDEST PUSH2 0x597 JUMP JUMPDEST SWAP1 POP DUP3 DUP2 MSTORE PUSH1 0x20 DUP2 ADD DUP5 DUP5 DUP5 ADD GT ISZERO PUSH2 0x61D JUMPI PUSH2 0x61C PUSH2 0x525 JUMP JUMPDEST JUMPDEST PUSH2 0x628 DUP5 DUP3 DUP6 PUSH2 0x5E1 JUMP JUMPDEST POP SWAP4 SWAP3 POP POP POP JUMP JUMPDEST PUSH0 DUP3 PUSH1 0x1F DUP4 ADD SLT PUSH2 0x644 JUMPI PUSH2 0x643 PUSH2 0x521 JUMP JUMPDEST JUMPDEST DUP2 CALLDATALOAD PUSH2 0x654 DUP5 DUP3 PUSH1 0x20 DUP7 ADD PUSH2 0x5EF JUMP JUMPDEST SWAP2 POP POP SWAP3 SWAP2 POP POP JUMP JUMPDEST PUSH0 DUP2 SWAP1 POP SWAP2 SWAP1 POP JUMP JUMPDEST PUSH2 0x66F DUP2 PUSH2 0x65D JUMP JUMPDEST DUP2 EQ PUSH2 0x679 JUMPI PUSH0 DUP1 REVERT JUMPDEST POP JUMP JUMPDEST PUSH0 DUP2 CALLDATALOAD SWAP1 POP PUSH2 0x68A DUP2 PUSH2 0x666 JUMP JUMPDEST SWAP3 SWAP2 POP POP JUMP JUMPDEST PUSH0 DUP1 PUSH1 0x40 DUP4 DUP6 SUB SLT ISZERO PUSH2 0x6A6 JUMPI PUSH2 0x6A5 PUSH2 0x519 JUMP JUMPDEST JUMPDEST PUSH0 DUP4 ADD CALLDATALOAD PUSH8 0xFFFFFFFFFFFFFFFF DUP2 GT ISZERO PUSH2 0x6C3 JUMPI PUSH2 0x6C2 PUSH2 0x51D JUMP JUMPDEST JUMPDEST PUSH2 0x6CF DUP6 DUP3 DUP7 ADD PUSH2 0x630 JUMP JUMPDEST SWAP3 POP POP PUSH1 0x20 PUSH2 0x6E0 DUP6 DUP3 DUP7 ADD PUSH2 0x67C JUMP JUMPDEST SWAP2 POP POP SWAP3 POP SWAP3 SWAP1 POP JUMP JUMPDEST PUSH0 PUSH20 0xFFFFFFFFFFFFFFFFFFFFFFFFFFFFFFFFFFFFFFFF DUP3 AND SWAP1 POP SWAP2 SWAP1 POP JUMP JUMPDEST PUSH0 PUSH2 0x713 DUP3 PUSH2 0x6EA JUMP JUMPDEST SWAP1 POP SWAP2 SWAP1 POP JUMP JUMPDEST PUSH2 0x723 DUP2 PUSH2 0x709 JUMP JUMPDEST DUP2 EQ PUSH2 0x72D JUMPI PUSH0 DUP1 REVERT JUMPDEST POP JUMP JUMPDEST PUSH0 DUP2 CALLDATALOAD SWAP1 POP PUSH2 0x73E DUP2 PUSH2 0x71A JUMP JUMPDEST SWAP3 SWAP2 POP POP JUMP JUMPDEST PUSH0 DUP1 PUSH0 PUSH1 0x60 DUP5 DUP7 SUB SLT ISZERO PUSH2 0x75B JUMPI PUSH2 0x75A PUSH2 0x519 JUMP JUMPDEST JUMPDEST PUSH0 PUSH2 0x768 DUP7 DUP3 DUP8 ADD PUSH2 0x730 JUMP JUMPDEST SWAP4 POP POP PUSH1 0x20 DUP5 ADD CALLDATALOAD PUSH8 0xFFFFFFFFFFFFFFFF DUP2 GT ISZERO PUSH2 0x789 JUMPI PUSH2 0x788 PUSH2 0x51D JUMP JUMPDEST JUMPDEST PUSH2 0x795 DUP7 DUP3 DUP8 ADD PUSH2 0x630 JUMP JUMPDEST SWAP3 POP POP PUSH1 0x40 PUSH2 0x7A6 DUP7 DUP3 DUP8 ADD PUSH2 0x67C JUMP JUMPDEST SWAP2 POP POP SWAP3 POP SWAP3 POP SWAP3 JUMP JUMPDEST PUSH0 PUSH1 0x20 DUP3 DUP5 SUB SLT ISZERO PUSH2 0x7C5 JUMPI PUSH2 0x7C4 PUSH2 0x519 JUMP JUMPDEST JUMPDEST PUSH0 PUSH2 0x7D2 DUP5 DUP3 DUP6 ADD PUSH2 0x730 JUMP JUMPDEST SWAP2 POP POP SWAP3 SWAP2 POP POP JUMP JUMPDEST PUSH0 DUP2 MLOAD SWAP1 POP SWAP2 SWAP1 POP JUMP JUMPDEST PUSH0 DUP3 DUP3 MSTORE PUSH1 0x20 DUP3 ADD SWAP1 POP SWAP3 SWAP2 POP POP JUMP JUMPDEST DUP3 DUP2 DUP4 MCOPY PUSH0 DUP4 DUP4 ADD MSTORE POP POP POP JUMP JUMPDEST PUSH0 PUSH2 0x80D DUP3 PUSH2 0x7DB JUMP JUMPDEST PUSH2 0x817 DUP2 DUP6 PUSH2 0x7E5 JUMP JUMPDEST SWAP4 POP PUSH2 0x827 DUP2 DUP6 PUSH1 0x20 DUP7 ADD PUSH2 0x7F5 JUMP JUMPDEST PUSH2 0x830 DUP2 PUSH2 0x529 JUMP JUMPDEST DUP5 ADD SWAP2 POP POP SWAP3 SWAP2 POP POP JUMP JUMPDEST PUSH0 PUSH1 0x20 DUP3 ADD SWAP1 POP DUP2 DUP2 SUB PUSH0 DUP4 ADD MSTORE PUSH2 0x853 DUP2 DUP5 PUSH2 0x803 JUMP JUMPDEST SWAP1 POP SWAP3 SWAP2 POP POP JUMP JUMPDEST PUSH0 PUSH1 0x20 DUP3 DUP5 SUB SLT ISZERO PUSH2 0x870 JUMPI PUSH2 0x86F PUSH2 0x519 JUMP JUMPDEST JUMPDEST PUSH0 PUSH2 0x87D DUP5 DUP3 DUP6 ADD PUSH2 0x67C JUMP JUMPDEST SWAP2 POP POP SWAP3 SWAP2 POP POP JUMP JUMPDEST PUSH2 0x88F DUP2 PUSH2 0x65D JUMP JUMPDEST DUP3 MSTORE POP POP JUMP JUMPDEST PUSH0 PUSH1 0x40 DUP3 ADD SWAP1 POP DUP2 DUP2 SUB PUSH0 DUP4 ADD MSTORE PUSH2 0x8AD DUP2 DUP6 PUSH2 0x803 JUMP JUMPDEST SWAP1 POP PUSH2 0x8BC PUSH1 0x20 DUP4 ADD DUP5 PUSH2 0x886 JUMP JUMPDEST SWAP4 SWAP3 POP POP POP JUMP JUMPDEST PUSH32 0x4E487B7100000000000000000000000000000000000000000000000000000000 PUSH0 MSTORE PUSH1 0x22 PUSH1 0x4 MSTORE PUSH1 0x24 PUSH0 REVERT JUMPDEST PUSH0 PUSH1 0x2 DUP3 DIV SWAP1 POP PUSH1 0x1 DUP3 AND DUP1 PUSH2 0x907 JUMPI PUSH1 0x7F DUP3 AND SWAP2 POP JUMPDEST PUSH1 0x20 DUP3 LT DUP2 SUB PUSH2 0x91A JUMPI PUSH2 0x919 PUSH2 0x8C3 JUMP JUMPDEST JUMPDEST POP SWAP2 SWAP1 POP JUMP JUMPDEST PUSH0 DUP2 SWAP1 POP DUP2 PUSH0 MSTORE PUSH1 0x20 PUSH0 KECCAK256 SWAP1 POP SWAP2 SWAP1 POP JUMP JUMPDEST PUSH0 PUSH1 0x20 PUSH1 0x1F DUP4 ADD DIV SWAP1 POP SWAP2 SWAP1 POP JUMP JUMPDEST PUSH0 DUP3 DUP3 SHL SWAP1 POP SWAP3 SWAP2 POP POP JUMP JUMPDEST PUSH0 PUSH1 0x8 DUP4 MUL PUSH2 0x97C PUSH32 0xFFFFFFFFFFFFFFFFFFFFFFFFFFFFFFFFFFFFFFFFFFFFFFFFFFFFFFFFFFFFFFFF DUP3 PUSH2 0x941 JUMP JUMPDEST PUSH2 0x986 DUP7 DUP4 PUSH2 0x941 JUMP JUMPDEST SWAP6 POP DUP1 NOT DUP5 AND SWAP4 POP DUP1 DUP7 AND DUP5 OR SWAP3 POP POP POP SWAP4 SWAP3 POP POP POP JUMP JUMPDEST PUSH0 DUP2 SWAP1 POP SWAP2 SWAP1 POP JUMP JUMPDEST PUSH0 PUSH2 0x9C1 PUSH2 0x9BC PUSH2 0x9B7 DUP5 PUSH2 0x65D JUMP JUMPDEST PUSH2 0x99E JUMP JUMPDEST PUSH2 0x65D JUMP JUMPDEST SWAP1 POP SWAP2 SWAP1 POP JUMP JUMPDEST PUSH0 DUP2 SWAP1 POP SWAP2 SWAP1 POP JUMP JUMPDEST PUSH2 0x9DA DUP4 PUSH2 0x9A7 JUMP JUMPDEST PUSH2 0x9EE PUSH2 0x9E6 DUP3 PUSH2 0x9C8 JUMP JUMPDEST DUP5 DUP5 SLOAD PUSH2 0x94D JUMP JUMPDEST DUP3 SSTORE POP POP POP POP JUMP JUMPDEST PUSH0 SWAP1 JUMP JUMPDEST PUSH2 0xA02 PUSH2 0x9F6 JUMP JUMPDEST PUSH2 0xA0D DUP2 DUP5 DUP5 PUSH2 0x9D1 JUMP JUMPDEST POP POP POP JUMP JUMPDEST JUMPDEST DUP2 DUP2 LT ISZERO PUSH2 0xA30 JUMPI PUSH2 0xA25 PUSH0 DUP3 PUSH2 0x9FA JUMP JUMPDEST PUSH1 0x1 DUP2 ADD SWAP1 POP PUSH2 0xA13 JUMP JUMPDEST POP POP JUMP JUMPDEST PUSH1 0x1F DUP3 GT ISZERO PUSH2 0xA75 JUMPI PUSH2 0xA46 DUP2 PUSH2 0x920 JUMP JUMPDEST PUSH2 0xA4F DUP5 PUSH2 0x932 JUMP JUMPDEST DUP2 ADD PUSH1 0x20 DUP6 LT ISZERO PUSH2 0xA5E JUMPI DUP2 SWAP1 POP JUMPDEST PUSH2 0xA72 PUSH2 0xA6A DUP6 PUSH2 0x932 JUMP JUMPDEST DUP4 ADD DUP3 PUSH2 0xA12 JUMP JUMPDEST POP POP JUMPDEST POP POP POP JUMP JUMPDEST PUSH0 DUP3 DUP3 SHR SWAP1 POP SWAP3 SWAP2 POP POP JUMP JUMPDEST PUSH0 PUSH2 0xA95 PUSH0 NOT DUP5 PUSH1 0x8 MUL PUSH2 0xA7A JUMP JUMPDEST NOT DUP1 DUP4 AND SWAP2 POP POP SWAP3 SWAP2 POP POP JUMP JUMPDEST PUSH0 PUSH2 0xAAD DUP4 DUP4 PUSH2 0xA86 JUMP JUMPDEST SWAP2 POP DUP3 PUSH1 0x2 MUL DUP3 OR SWAP1 POP SWAP3 SWAP2 POP POP JUMP JUMPDEST PUSH2 0xAC6 DUP3 PUSH2 0x7DB JUMP JUMPDEST PUSH8 0xFFFFFFFFFFFFFFFF DUP2 GT ISZERO PUSH2 0xADF JUMPI PUSH2 0xADE PUSH2 0x539 JUMP JUMPDEST JUMPDEST PUSH2 0xAE9 DUP3 SLOAD PUSH2 0x8F0 JUMP JUMPDEST PUSH2 0xAF4 DUP3 DUP3 DUP6 PUSH2 0xA34 JUMP JUMPDEST PUSH0 PUSH1 0x20 SWAP1 POP PUSH1 0x1F DUP4 GT PUSH1 0x1 DUP2 EQ PUSH2 0xB25 JUMPI PUSH0 DUP5 ISZERO PUSH2 0xB13 JUMPI DUP3 DUP8 ADD MLOAD SWAP1 POP JUMPDEST PUSH2 0xB1D DUP6 DUP3 PUSH2 0xAA2 JUMP JUMPDEST DUP7 SSTORE POP PUSH2 0xB84 JUMP JUMPDEST PUSH1 0x1F NOT DUP5 AND PUSH2 0xB33 DUP7 PUSH2 0x920 JUMP JUMPDEST PUSH0 JUMPDEST DUP3 DUP2 LT ISZERO PUSH2 0xB5A JUMPI DUP5 DUP10 ADD MLOAD DUP3 SSTORE PUSH1 0x1 DUP3 ADD SWAP2 POP PUSH1 0x20 DUP6 ADD SWAP5 POP PUSH1 0x20 DUP2 ADD SWAP1 POP PUSH2 0xB35 JUMP JUMPDEST DUP7 DUP4 LT ISZERO PUSH2 0xB77 JUMPI DUP5 DUP10 ADD MLOAD PUSH2 0xB73 PUSH1 0x1F DUP10 AND DUP3 PUSH2 0xA86 JUMP JUMPDEST DUP4 SSTORE POP JUMPDEST PUSH1 0x1 PUSH1 0x2 DUP9 MUL ADD DUP9 SSTORE POP POP POP JUMPDEST POP POP POP POP POP POP JUMP JUMPDEST PUSH32 0x4E487B7100000000000000000000000000000000000000000000000000000000 PUSH0 MSTORE PUSH1 0x32 PUSH1 0x4 MSTORE PUSH1 0x24 PUSH0 REVERT INVALID LOG2 PUSH5 0x6970667358 0x22 SLT KECCAK256 EXTCODECOPY 0xBC 0xC9 0xD8 SELFBALANCE SELFBALANCE PUSH15 0xCE2FDA9380A11B1099FDA5FAF88E73 0xA7 0x23 CALLDATASIZE 0xD2 SUB SWAP6 SWAP4 0xC3 DUP2 CALLDATASIZE PUSH5 0x736F6C6343 STOP ADDMOD BYTE STOP CALLER "
				},
				"gasEstimates": {
					"creation": {
						"codeDepositCost": "611000",
						"executionCost": "643",
						"totalCost": "611643"
					},
					"external": {
						"addArray(string,uint256)": "infinite",
						"addMapping(address,string,uint256)": "infinite",
						"getArrayName(uint256)": "infinite",
						"getMappingName(address)": "infinite",
						"humanArray(uint256)": "infinite",
						"humanMapping(address)": "infinite"
					}
				},
				"methodIdentifiers": {
					"addArray(string,uint256)": "0d3de88d",
					"addMapping(address,string,uint256)": "0e0c243d",
					"getArrayName(uint256)": "a677c48f",
					"getMappingName(address)": "4b61dd34",
					"humanArray(uint256)": "b9d6dedb",
					"humanMapping(address)": "a857bf32"
				}
			},
			"storageLayout": {
				"storage": [
					{
						"astId": 10,
						"contract": "week6_practice/ex5_9.sol:Ex5_9",
						"label": "humanArray",
						"offset": 0,
						"slot": "0",
						"type": "t_array(t_struct(Human)6_storage)dyn_storage"
					},
					{
						"astId": 15,
						"contract": "week6_practice/ex5_9.sol:Ex5_9",
						"label": "humanMapping",
						"offset": 0,
						"slot": "1",
						"type": "t_mapping(t_address,t_struct(Human)6_storage)"
					}
				],
				"types": {
					"t_address": {
						"encoding": "inplace",
						"label": "address",
						"numberOfBytes": "20"
					},
					"t_array(t_struct(Human)6_storage)dyn_storage": {
						"base": "t_struct(Human)6_storage",
						"encoding": "dynamic_array",
						"label": "struct Ex5_9.Human[]",
						"numberOfBytes": "32"
					},
					"t_mapping(t_address,t_struct(Human)6_storage)": {
						"encoding": "mapping",
						"key": "t_address",
						"label": "mapping(address => struct Ex5_9.Human)",
						"numberOfBytes": "32",
						"value": "t_struct(Human)6_storage"
					},
					"t_string_storage": {
						"encoding": "bytes",
						"label": "string",
						"numberOfBytes": "32"
					},
					"t_struct(Human)6_storage": {
						"encoding": "inplace",
						"label": "struct Ex5_9.Human",
						"members": [
							{
								"astId": 3,
								"contract": "week6_practice/ex5_9.sol:Ex5_9",
								"label": "name",
								"offset": 0,
								"slot": "0",
								"type": "t_string_storage"
							},
							{
								"astId": 5,
								"contract": "week6_practice/ex5_9.sol:Ex5_9",
								"label": "age",
								"offset": 0,
								"slot": "1",
								"type": "t_uint256"
							}
						],
						"numberOfBytes": "64"
					},
					"t_uint256": {
						"encoding": "inplace",
						"label": "uint256",
						"numberOfBytes": "32"
					}
				}
			},
			"userdoc": {
				"kind": "user",
				"methods": {},
				"version": 1
			}
		}
	}
}