{
	"week6_practice/New.sol": {
		"Computer": {
			"abi": [
				{
					"inputs": [],
					"stateMutability": "nonpayable",
					"type": "constructor"
				},
				{
					"inputs": [],
					"name": "getAge",
					"outputs": [
						{
							"internalType": "uint256",
							"name": "",
							"type": "uint256"
						}
					],
					"stateMutability": "view",
					"type": "function"
				},
				{
					"inputs": [],
					"name": "getMonitor",
					"outputs": [
						{
							"internalType": "string",
							"name": "",
							"type": "string"
						}
					],
					"stateMutability": "view",
					"type": "function"
				},
				{
					"inputs": [],
					"name": "monitor",
					"outputs": [
						{
							"internalType": "contract Monitor",
							"name": "",
							"type": "address"
						}
					],
					"stateMutability": "view",
					"type": "function"
				}
			],
			"devdoc": {
				"kind": "dev",
				"methods": {},
				"version": 1
			},
			"evm": {
				"assembly": "    /* \"week6_practice/New.sol\":376:687  contract Computer{... */\n  mstore(0x40, 0x80)\n    /* \"week6_practice/New.sol\":429:491  constructor(){... */\n  callvalue\n  dup1\n  iszero\n  tag_1\n  jumpi\n  0x00\n  dup1\n  revert\ntag_1:\n  pop\n    /* \"week6_practice/New.sol\":461:483  new Monitor(\"Samsung\") */\n  mload(0x40)\n  tag_4\n  swap1\n  tag_5\n  jump\t// in\ntag_4:\n  tag_6\n  swap1\n  tag_7\n  jump\t// in\ntag_6:\n  mload(0x40)\n  dup1\n  swap2\n  sub\n  swap1\n  0x00\n  create\n  dup1\n  iszero\n  dup1\n  iszero\n  tag_8\n  jumpi\n  returndatasize\n  0x00\n  dup1\n  returndatacopy\n  revert(0x00, returndatasize)\ntag_8:\n  pop\n    /* \"week6_practice/New.sol\":453:460  monitor */\n  0x00\n  dup1\n    /* \"week6_practice/New.sol\":453:483  monitor=new Monitor(\"Samsung\") */\n  0x0100\n  exp\n  dup2\n  sload\n  dup2\n  0xffffffffffffffffffffffffffffffffffffffff\n  mul\n  not\n  and\n  swap1\n  dup4\n  0xffffffffffffffffffffffffffffffffffffffff\n  and\n  mul\n  or\n  swap1\n  sstore\n  pop\n    /* \"week6_practice/New.sol\":376:687  contract Computer{... */\n  jump(tag_9)\ntag_5:\n  dataSize(sub_1)\n  dup1\n  dataOffset(sub_1)\n  dup4\n  codecopy\n  add\n  swap1\n  jump\t// out\n    /* \"#utility.yul\":7:176   */\ntag_10:\n    /* \"#utility.yul\":91:102   */\n  0x00\n    /* \"#utility.yul\":125:131   */\n  dup3\n    /* \"#utility.yul\":120:123   */\n  dup3\n    /* \"#utility.yul\":113:132   */\n  mstore\n    /* \"#utility.yul\":165:169   */\n  0x20\n    /* \"#utility.yul\":160:163   */\n  dup3\n    /* \"#utility.yul\":156:170   */\n  add\n    /* \"#utility.yul\":141:170   */\n  swap1\n  pop\n    /* \"#utility.yul\":7:176   */\n  swap3\n  swap2\n  pop\n  pop\n  jump\t// out\n    /* \"#utility.yul\":182:339   */\ntag_11:\n    /* \"#utility.yul\":322:331   */\n  0x53616d73756e6700000000000000000000000000000000000000000000000000\n    /* \"#utility.yul\":318:319   */\n  0x00\n    /* \"#utility.yul\":310:316   */\n  dup3\n    /* \"#utility.yul\":306:320   */\n  add\n    /* \"#utility.yul\":299:332   */\n  mstore\n    /* \"#utility.yul\":182:339   */\n  pop\n  jump\t// out\n    /* \"#utility.yul\":345:710   */\ntag_12:\n    /* \"#utility.yul\":487:490   */\n  0x00\n    /* \"#utility.yul\":508:574   */\n  tag_17\n    /* \"#utility.yul\":572:573   */\n  0x07\n    /* \"#utility.yul\":567:570   */\n  dup4\n    /* \"#utility.yul\":508:574   */\n  tag_10\n  jump\t// in\ntag_17:\n    /* \"#utility.yul\":501:574   */\n  swap2\n  pop\n    /* \"#utility.yul\":583:676   */\n  tag_18\n    /* \"#utility.yul\":672:675   */\n  dup3\n    /* \"#utility.yul\":583:676   */\n  tag_11\n  jump\t// in\ntag_18:\n    /* \"#utility.yul\":701:703   */\n  0x20\n    /* \"#utility.yul\":696:699   */\n  dup3\n    /* \"#utility.yul\":692:704   */\n  add\n    /* \"#utility.yul\":685:704   */\n  swap1\n  pop\n    /* \"#utility.yul\":345:710   */\n  swap2\n  swap1\n  pop\n  jump\t// out\n    /* \"#utility.yul\":716:1135   */\ntag_7:\n    /* \"#utility.yul\":882:886   */\n  0x00\n    /* \"#utility.yul\":920:922   */\n  0x20\n    /* \"#utility.yul\":909:918   */\n  dup3\n    /* \"#utility.yul\":905:923   */\n  add\n    /* \"#utility.yul\":897:923   */\n  swap1\n  pop\n    /* \"#utility.yul\":969:978   */\n  dup2\n    /* \"#utility.yul\":963:967   */\n  dup2\n    /* \"#utility.yul\":959:979   */\n  sub\n    /* \"#utility.yul\":955:956   */\n  0x00\n    /* \"#utility.yul\":944:953   */\n  dup4\n    /* \"#utility.yul\":940:957   */\n  add\n    /* \"#utility.yul\":933:980   */\n  mstore\n    /* \"#utility.yul\":997:1128   */\n  tag_20\n    /* \"#utility.yul\":1123:1127   */\n  dup2\n    /* \"#utility.yul\":997:1128   */\n  tag_12\n  jump\t// in\ntag_20:\n    /* \"#utility.yul\":989:1128   */\n  swap1\n  pop\n    /* \"#utility.yul\":716:1135   */\n  swap2\n  swap1\n  pop\n  jump\t// out\n    /* \"week6_practice/New.sol\":376:687  contract Computer{... */\ntag_9:\n  dataSize(sub_0)\n  dup1\n  dataOffset(sub_0)\n  0x00\n  codecopy\n  0x00\n  return\nstop\n\nsub_0: assembly {\n        /* \"week6_practice/New.sol\":376:687  contract Computer{... */\n      mstore(0x40, 0x80)\n      callvalue\n      dup1\n      iszero\n      tag_1\n      jumpi\n      0x00\n      dup1\n      revert\n    tag_1:\n      pop\n      jumpi(tag_2, lt(calldatasize, 0x04))\n      shr(0xe0, calldataload(0x00))\n      dup1\n      0x3241992a\n      eq\n      tag_3\n      jumpi\n      dup1\n      0x6a82b43a\n      eq\n      tag_4\n      jumpi\n      dup1\n      0x967e6e65\n      eq\n      tag_5\n      jumpi\n    tag_2:\n      0x00\n      dup1\n      revert\n        /* \"week6_practice/New.sol\":400:422  Monitor public monitor */\n    tag_3:\n      tag_6\n      tag_7\n      jump\t// in\n    tag_6:\n      mload(0x40)\n      tag_8\n      swap2\n      swap1\n      tag_9\n      jump\t// in\n    tag_8:\n      mload(0x40)\n      dup1\n      swap2\n      sub\n      swap1\n      return\n        /* \"week6_practice/New.sol\":497:593  function getMonitor() public view returns(string memory){... */\n    tag_4:\n      tag_10\n      tag_11\n      jump\t// in\n    tag_10:\n      mload(0x40)\n      tag_12\n      swap2\n      swap1\n      tag_13\n      jump\t// in\n    tag_12:\n      mload(0x40)\n      dup1\n      swap2\n      sub\n      swap1\n      return\n        /* \"week6_practice/New.sol\":599:684  function getAge() public view returns(uint){... */\n    tag_5:\n      tag_14\n      tag_15\n      jump\t// in\n    tag_14:\n      mload(0x40)\n      tag_16\n      swap2\n      swap1\n      tag_17\n      jump\t// in\n    tag_16:\n      mload(0x40)\n      dup1\n      swap2\n      sub\n      swap1\n      return\n        /* \"week6_practice/New.sol\":400:422  Monitor public monitor */\n    tag_7:\n      0x00\n      dup1\n      sload\n      swap1\n      0x0100\n      exp\n      swap1\n      div\n      0xffffffffffffffffffffffffffffffffffffffff\n      and\n      dup2\n      jump\t// out\n        /* \"week6_practice/New.sol\":497:593  function getMonitor() public view returns(string memory){... */\n    tag_11:\n        /* \"week6_practice/New.sol\":539:552  string memory */\n      0x60\n        /* \"week6_practice/New.sol\":571:578  monitor */\n      0x00\n      dup1\n      sload\n      swap1\n      0x0100\n      exp\n      swap1\n      div\n      0xffffffffffffffffffffffffffffffffffffffff\n      and\n        /* \"week6_practice/New.sol\":571:583  monitor.name */\n      0xffffffffffffffffffffffffffffffffffffffff\n      and\n      0x06fdde03\n        /* \"week6_practice/New.sol\":571:585  monitor.name() */\n      mload(0x40)\n      dup2\n      0xffffffff\n      and\n      0xe0\n      shl\n      dup2\n      mstore\n      0x04\n      add\n      0x00\n      mload(0x40)\n      dup1\n      dup4\n      sub\n      dup2\n      dup7\n      gas\n      staticcall\n      iszero\n      dup1\n      iszero\n      tag_20\n      jumpi\n      returndatasize\n      0x00\n      dup1\n      returndatacopy\n      revert(0x00, returndatasize)\n    tag_20:\n      pop\n      pop\n      pop\n      pop\n      mload(0x40)\n      returndatasize\n      0x00\n      dup3\n      returndatacopy\n      returndatasize\n      not(0x1f)\n      0x1f\n      dup3\n      add\n      and\n      dup3\n      add\n      dup1\n      0x40\n      mstore\n      pop\n      dup2\n      add\n      swap1\n      tag_21\n      swap2\n      swap1\n      tag_22\n      jump\t// in\n    tag_21:\n        /* \"week6_practice/New.sol\":564:585  return monitor.name() */\n      swap1\n      pop\n        /* \"week6_practice/New.sol\":497:593  function getMonitor() public view returns(string memory){... */\n      swap1\n      jump\t// out\n        /* \"week6_practice/New.sol\":599:684  function getAge() public view returns(uint){... */\n    tag_15:\n        /* \"week6_practice/New.sol\":637:641  uint */\n      0x00\n        /* \"week6_practice/New.sol\":660:667  monitor */\n      dup1\n      0x00\n      swap1\n      sload\n      swap1\n      0x0100\n      exp\n      swap1\n      div\n      0xffffffffffffffffffffffffffffffffffffffff\n      and\n        /* \"week6_practice/New.sol\":660:674  monitor.getAge */\n      0xffffffffffffffffffffffffffffffffffffffff\n      and\n      0x967e6e65\n        /* \"week6_practice/New.sol\":660:676  monitor.getAge() */\n      mload(0x40)\n      dup2\n      0xffffffff\n      and\n      0xe0\n      shl\n      dup2\n      mstore\n      0x04\n      add\n      0x20\n      mload(0x40)\n      dup1\n      dup4\n      sub\n      dup2\n      dup7\n      gas\n      staticcall\n      iszero\n      dup1\n      iszero\n      tag_25\n      jumpi\n      returndatasize\n      0x00\n      dup1\n      returndatacopy\n      revert(0x00, returndatasize)\n    tag_25:\n      pop\n      pop\n      pop\n      pop\n      mload(0x40)\n      returndatasize\n      not(0x1f)\n      0x1f\n      dup3\n      add\n      and\n      dup3\n      add\n      dup1\n      0x40\n      mstore\n      pop\n      dup2\n      add\n      swap1\n      tag_26\n      swap2\n      swap1\n      tag_27\n      jump\t// in\n    tag_26:\n        /* \"week6_practice/New.sol\":653:676  return monitor.getAge() */\n      swap1\n      pop\n        /* \"week6_practice/New.sol\":599:684  function getAge() public view returns(uint){... */\n      swap1\n      jump\t// out\n        /* \"#utility.yul\":7:133   */\n    tag_28:\n        /* \"#utility.yul\":44:51   */\n      0x00\n        /* \"#utility.yul\":84:126   */\n      0xffffffffffffffffffffffffffffffffffffffff\n        /* \"#utility.yul\":77:82   */\n      dup3\n        /* \"#utility.yul\":73:127   */\n      and\n        /* \"#utility.yul\":62:127   */\n      swap1\n      pop\n        /* \"#utility.yul\":7:133   */\n      swap2\n      swap1\n      pop\n      jump\t// out\n        /* \"#utility.yul\":139:199   */\n    tag_29:\n        /* \"#utility.yul\":167:170   */\n      0x00\n        /* \"#utility.yul\":188:193   */\n      dup2\n        /* \"#utility.yul\":181:193   */\n      swap1\n      pop\n        /* \"#utility.yul\":139:199   */\n      swap2\n      swap1\n      pop\n      jump\t// out\n        /* \"#utility.yul\":205:347   */\n    tag_30:\n        /* \"#utility.yul\":255:264   */\n      0x00\n        /* \"#utility.yul\":288:341   */\n      tag_58\n        /* \"#utility.yul\":306:340   */\n      tag_59\n        /* \"#utility.yul\":315:339   */\n      tag_60\n        /* \"#utility.yul\":333:338   */\n      dup5\n        /* \"#utility.yul\":315:339   */\n      tag_28\n      jump\t// in\n    tag_60:\n        /* \"#utility.yul\":306:340   */\n      tag_29\n      jump\t// in\n    tag_59:\n        /* \"#utility.yul\":288:341   */\n      tag_28\n      jump\t// in\n    tag_58:\n        /* \"#utility.yul\":275:341   */\n      swap1\n      pop\n        /* \"#utility.yul\":205:347   */\n      swap2\n      swap1\n      pop\n      jump\t// out\n        /* \"#utility.yul\":353:479   */\n    tag_31:\n        /* \"#utility.yul\":403:412   */\n      0x00\n        /* \"#utility.yul\":436:473   */\n      tag_62\n        /* \"#utility.yul\":467:472   */\n      dup3\n        /* \"#utility.yul\":436:473   */\n      tag_30\n      jump\t// in\n    tag_62:\n        /* \"#utility.yul\":423:473   */\n      swap1\n      pop\n        /* \"#utility.yul\":353:479   */\n      swap2\n      swap1\n      pop\n      jump\t// out\n        /* \"#utility.yul\":485:625   */\n    tag_32:\n        /* \"#utility.yul\":549:558   */\n      0x00\n        /* \"#utility.yul\":582:619   */\n      tag_64\n        /* \"#utility.yul\":613:618   */\n      dup3\n        /* \"#utility.yul\":582:619   */\n      tag_31\n      jump\t// in\n    tag_64:\n        /* \"#utility.yul\":569:619   */\n      swap1\n      pop\n        /* \"#utility.yul\":485:625   */\n      swap2\n      swap1\n      pop\n      jump\t// out\n        /* \"#utility.yul\":631:790   */\n    tag_33:\n        /* \"#utility.yul\":732:783   */\n      tag_66\n        /* \"#utility.yul\":777:782   */\n      dup2\n        /* \"#utility.yul\":732:783   */\n      tag_32\n      jump\t// in\n    tag_66:\n        /* \"#utility.yul\":727:730   */\n      dup3\n        /* \"#utility.yul\":720:784   */\n      mstore\n        /* \"#utility.yul\":631:790   */\n      pop\n      pop\n      jump\t// out\n        /* \"#utility.yul\":796:1046   */\n    tag_9:\n        /* \"#utility.yul\":903:907   */\n      0x00\n        /* \"#utility.yul\":941:943   */\n      0x20\n        /* \"#utility.yul\":930:939   */\n      dup3\n        /* \"#utility.yul\":926:944   */\n      add\n        /* \"#utility.yul\":918:944   */\n      swap1\n      pop\n        /* \"#utility.yul\":954:1039   */\n      tag_68\n        /* \"#utility.yul\":1036:1037   */\n      0x00\n        /* \"#utility.yul\":1025:1034   */\n      dup4\n        /* \"#utility.yul\":1021:1038   */\n      add\n        /* \"#utility.yul\":1012:1018   */\n      dup5\n        /* \"#utility.yul\":954:1039   */\n      tag_33\n      jump\t// in\n    tag_68:\n        /* \"#utility.yul\":796:1046   */\n      swap3\n      swap2\n      pop\n      pop\n      jump\t// out\n        /* \"#utility.yul\":1052:1151   */\n    tag_34:\n        /* \"#utility.yul\":1104:1110   */\n      0x00\n        /* \"#utility.yul\":1138:1143   */\n      dup2\n        /* \"#utility.yul\":1132:1144   */\n      mload\n        /* \"#utility.yul\":1122:1144   */\n      swap1\n      pop\n        /* \"#utility.yul\":1052:1151   */\n      swap2\n      swap1\n      pop\n      jump\t// out\n        /* \"#utility.yul\":1157:1326   */\n    tag_35:\n        /* \"#utility.yul\":1241:1252   */\n      0x00\n        /* \"#utility.yul\":1275:1281   */\n      dup3\n        /* \"#utility.yul\":1270:1273   */\n      dup3\n        /* \"#utility.yul\":1263:1282   */\n      mstore\n        /* \"#utility.yul\":1315:1319   */\n      0x20\n        /* \"#utility.yul\":1310:1313   */\n      dup3\n        /* \"#utility.yul\":1306:1320   */\n      add\n        /* \"#utility.yul\":1291:1320   */\n      swap1\n      pop\n        /* \"#utility.yul\":1157:1326   */\n      swap3\n      swap2\n      pop\n      pop\n      jump\t// out\n        /* \"#utility.yul\":1332:1471   */\n    tag_36:\n        /* \"#utility.yul\":1421:1427   */\n      dup3\n        /* \"#utility.yul\":1416:1419   */\n      dup2\n        /* \"#utility.yul\":1411:1414   */\n      dup4\n        /* \"#utility.yul\":1405:1428   */\n      mcopy\n        /* \"#utility.yul\":1462:1463   */\n      0x00\n        /* \"#utility.yul\":1453:1459   */\n      dup4\n        /* \"#utility.yul\":1448:1451   */\n      dup4\n        /* \"#utility.yul\":1444:1460   */\n      add\n        /* \"#utility.yul\":1437:1464   */\n      mstore\n        /* \"#utility.yul\":1332:1471   */\n      pop\n      pop\n      pop\n      jump\t// out\n        /* \"#utility.yul\":1477:1579   */\n    tag_37:\n        /* \"#utility.yul\":1518:1524   */\n      0x00\n        /* \"#utility.yul\":1569:1571   */\n      0x1f\n        /* \"#utility.yul\":1565:1572   */\n      not\n        /* \"#utility.yul\":1560:1562   */\n      0x1f\n        /* \"#utility.yul\":1553:1558   */\n      dup4\n        /* \"#utility.yul\":1549:1563   */\n      add\n        /* \"#utility.yul\":1545:1573   */\n      and\n        /* \"#utility.yul\":1535:1573   */\n      swap1\n      pop\n        /* \"#utility.yul\":1477:1579   */\n      swap2\n      swap1\n      pop\n      jump\t// out\n        /* \"#utility.yul\":1585:1962   */\n    tag_38:\n        /* \"#utility.yul\":1673:1676   */\n      0x00\n        /* \"#utility.yul\":1701:1740   */\n      tag_74\n        /* \"#utility.yul\":1734:1739   */\n      dup3\n        /* \"#utility.yul\":1701:1740   */\n      tag_34\n      jump\t// in\n    tag_74:\n        /* \"#utility.yul\":1756:1827   */\n      tag_75\n        /* \"#utility.yul\":1820:1826   */\n      dup2\n        /* \"#utility.yul\":1815:1818   */\n      dup6\n        /* \"#utility.yul\":1756:1827   */\n      tag_35\n      jump\t// in\n    tag_75:\n        /* \"#utility.yul\":1749:1827   */\n      swap4\n      pop\n        /* \"#utility.yul\":1836:1901   */\n      tag_76\n        /* \"#utility.yul\":1894:1900   */\n      dup2\n        /* \"#utility.yul\":1889:1892   */\n      dup6\n        /* \"#utility.yul\":1882:1886   */\n      0x20\n        /* \"#utility.yul\":1875:1880   */\n      dup7\n        /* \"#utility.yul\":1871:1887   */\n      add\n        /* \"#utility.yul\":1836:1901   */\n      tag_36\n      jump\t// in\n    tag_76:\n        /* \"#utility.yul\":1926:1955   */\n      tag_77\n        /* \"#utility.yul\":1948:1954   */\n      dup2\n        /* \"#utility.yul\":1926:1955   */\n      tag_37\n      jump\t// in\n    tag_77:\n        /* \"#utility.yul\":1921:1924   */\n      dup5\n        /* \"#utility.yul\":1917:1956   */\n      add\n        /* \"#utility.yul\":1910:1956   */\n      swap2\n      pop\n        /* \"#utility.yul\":1677:1962   */\n      pop\n        /* \"#utility.yul\":1585:1962   */\n      swap3\n      swap2\n      pop\n      pop\n      jump\t// out\n        /* \"#utility.yul\":1968:2281   */\n    tag_13:\n        /* \"#utility.yul\":2081:2085   */\n      0x00\n        /* \"#utility.yul\":2119:2121   */\n      0x20\n        /* \"#utility.yul\":2108:2117   */\n      dup3\n        /* \"#utility.yul\":2104:2122   */\n      add\n        /* \"#utility.yul\":2096:2122   */\n      swap1\n      pop\n        /* \"#utility.yul\":2168:2177   */\n      dup2\n        /* \"#utility.yul\":2162:2166   */\n      dup2\n        /* \"#utility.yul\":2158:2178   */\n      sub\n        /* \"#utility.yul\":2154:2155   */\n      0x00\n        /* \"#utility.yul\":2143:2152   */\n      dup4\n        /* \"#utility.yul\":2139:2156   */\n      add\n        /* \"#utility.yul\":2132:2179   */\n      mstore\n        /* \"#utility.yul\":2196:2274   */\n      tag_79\n        /* \"#utility.yul\":2269:2273   */\n      dup2\n        /* \"#utility.yul\":2260:2266   */\n      dup5\n        /* \"#utility.yul\":2196:2274   */\n      tag_38\n      jump\t// in\n    tag_79:\n        /* \"#utility.yul\":2188:2274   */\n      swap1\n      pop\n        /* \"#utility.yul\":1968:2281   */\n      swap3\n      swap2\n      pop\n      pop\n      jump\t// out\n        /* \"#utility.yul\":2287:2364   */\n    tag_39:\n        /* \"#utility.yul\":2324:2331   */\n      0x00\n        /* \"#utility.yul\":2353:2358   */\n      dup2\n        /* \"#utility.yul\":2342:2358   */\n      swap1\n      pop\n        /* \"#utility.yul\":2287:2364   */\n      swap2\n      swap1\n      pop\n      jump\t// out\n        /* \"#utility.yul\":2370:2488   */\n    tag_40:\n        /* \"#utility.yul\":2457:2481   */\n      tag_82\n        /* \"#utility.yul\":2475:2480   */\n      dup2\n        /* \"#utility.yul\":2457:2481   */\n      tag_39\n      jump\t// in\n    tag_82:\n        /* \"#utility.yul\":2452:2455   */\n      dup3\n        /* \"#utility.yul\":2445:2482   */\n      mstore\n        /* \"#utility.yul\":2370:2488   */\n      pop\n      pop\n      jump\t// out\n        /* \"#utility.yul\":2494:2716   */\n    tag_17:\n        /* \"#utility.yul\":2587:2591   */\n      0x00\n        /* \"#utility.yul\":2625:2627   */\n      0x20\n        /* \"#utility.yul\":2614:2623   */\n      dup3\n        /* \"#utility.yul\":2610:2628   */\n      add\n        /* \"#utility.yul\":2602:2628   */\n      swap1\n      pop\n        /* \"#utility.yul\":2638:2709   */\n      tag_84\n        /* \"#utility.yul\":2706:2707   */\n      0x00\n        /* \"#utility.yul\":2695:2704   */\n      dup4\n        /* \"#utility.yul\":2691:2708   */\n      add\n        /* \"#utility.yul\":2682:2688   */\n      dup5\n        /* \"#utility.yul\":2638:2709   */\n      tag_40\n      jump\t// in\n    tag_84:\n        /* \"#utility.yul\":2494:2716   */\n      swap3\n      swap2\n      pop\n      pop\n      jump\t// out\n        /* \"#utility.yul\":2722:2797   */\n    tag_41:\n        /* \"#utility.yul\":2755:2761   */\n      0x00\n        /* \"#utility.yul\":2788:2790   */\n      0x40\n        /* \"#utility.yul\":2782:2791   */\n      mload\n        /* \"#utility.yul\":2772:2791   */\n      swap1\n      pop\n        /* \"#utility.yul\":2722:2797   */\n      swap1\n      jump\t// out\n        /* \"#utility.yul\":2803:2920   */\n    tag_42:\n        /* \"#utility.yul\":2912:2913   */\n      0x00\n        /* \"#utility.yul\":2909:2910   */\n      dup1\n        /* \"#utility.yul\":2902:2914   */\n      revert\n        /* \"#utility.yul\":2926:3043   */\n    tag_43:\n        /* \"#utility.yul\":3035:3036   */\n      0x00\n        /* \"#utility.yul\":3032:3033   */\n      dup1\n        /* \"#utility.yul\":3025:3037   */\n      revert\n        /* \"#utility.yul\":3049:3166   */\n    tag_44:\n        /* \"#utility.yul\":3158:3159   */\n      0x00\n        /* \"#utility.yul\":3155:3156   */\n      dup1\n        /* \"#utility.yul\":3148:3160   */\n      revert\n        /* \"#utility.yul\":3172:3289   */\n    tag_45:\n        /* \"#utility.yul\":3281:3282   */\n      0x00\n        /* \"#utility.yul\":3278:3279   */\n      dup1\n        /* \"#utility.yul\":3271:3283   */\n      revert\n        /* \"#utility.yul\":3295:3475   */\n    tag_46:\n        /* \"#utility.yul\":3343:3420   */\n      0x4e487b7100000000000000000000000000000000000000000000000000000000\n        /* \"#utility.yul\":3340:3341   */\n      0x00\n        /* \"#utility.yul\":3333:3421   */\n      mstore\n        /* \"#utility.yul\":3440:3444   */\n      0x41\n        /* \"#utility.yul\":3437:3438   */\n      0x04\n        /* \"#utility.yul\":3430:3445   */\n      mstore\n        /* \"#utility.yul\":3464:3468   */\n      0x24\n        /* \"#utility.yul\":3461:3462   */\n      0x00\n        /* \"#utility.yul\":3454:3469   */\n      revert\n        /* \"#utility.yul\":3481:3762   */\n    tag_47:\n        /* \"#utility.yul\":3564:3591   */\n      tag_92\n        /* \"#utility.yul\":3586:3590   */\n      dup3\n        /* \"#utility.yul\":3564:3591   */\n      tag_37\n      jump\t// in\n    tag_92:\n        /* \"#utility.yul\":3556:3562   */\n      dup2\n        /* \"#utility.yul\":3552:3592   */\n      add\n        /* \"#utility.yul\":3694:3700   */\n      dup2\n        /* \"#utility.yul\":3682:3692   */\n      dup2\n        /* \"#utility.yul\":3679:3701   */\n      lt\n        /* \"#utility.yul\":3658:3676   */\n      0xffffffffffffffff\n        /* \"#utility.yul\":3646:3656   */\n      dup3\n        /* \"#utility.yul\":3643:3677   */\n      gt\n        /* \"#utility.yul\":3640:3702   */\n      or\n        /* \"#utility.yul\":3637:3725   */\n      iszero\n      tag_93\n      jumpi\n        /* \"#utility.yul\":3705:3723   */\n      tag_94\n      tag_46\n      jump\t// in\n    tag_94:\n        /* \"#utility.yul\":3637:3725   */\n    tag_93:\n        /* \"#utility.yul\":3745:3755   */\n      dup1\n        /* \"#utility.yul\":3741:3743   */\n      0x40\n        /* \"#utility.yul\":3734:3756   */\n      mstore\n        /* \"#utility.yul\":3524:3762   */\n      pop\n        /* \"#utility.yul\":3481:3762   */\n      pop\n      pop\n      jump\t// out\n        /* \"#utility.yul\":3768:3897   */\n    tag_48:\n        /* \"#utility.yul\":3802:3808   */\n      0x00\n        /* \"#utility.yul\":3829:3849   */\n      tag_96\n      tag_41\n      jump\t// in\n    tag_96:\n        /* \"#utility.yul\":3819:3849   */\n      swap1\n      pop\n        /* \"#utility.yul\":3858:3891   */\n      tag_97\n        /* \"#utility.yul\":3886:3890   */\n      dup3\n        /* \"#utility.yul\":3878:3884   */\n      dup3\n        /* \"#utility.yul\":3858:3891   */\n      tag_47\n      jump\t// in\n    tag_97:\n        /* \"#utility.yul\":3768:3897   */\n      swap2\n      swap1\n      pop\n      jump\t// out\n        /* \"#utility.yul\":3903:4211   */\n    tag_49:\n        /* \"#utility.yul\":3965:3969   */\n      0x00\n        /* \"#utility.yul\":4055:4073   */\n      0xffffffffffffffff\n        /* \"#utility.yul\":4047:4053   */\n      dup3\n        /* \"#utility.yul\":4044:4074   */\n      gt\n        /* \"#utility.yul\":4041:4097   */\n      iszero\n      tag_99\n      jumpi\n        /* \"#utility.yul\":4077:4095   */\n      tag_100\n      tag_46\n      jump\t// in\n    tag_100:\n        /* \"#utility.yul\":4041:4097   */\n    tag_99:\n        /* \"#utility.yul\":4115:4144   */\n      tag_101\n        /* \"#utility.yul\":4137:4143   */\n      dup3\n        /* \"#utility.yul\":4115:4144   */\n      tag_37\n      jump\t// in\n    tag_101:\n        /* \"#utility.yul\":4107:4144   */\n      swap1\n      pop\n        /* \"#utility.yul\":4199:4203   */\n      0x20\n        /* \"#utility.yul\":4193:4197   */\n      dup2\n        /* \"#utility.yul\":4189:4204   */\n      add\n        /* \"#utility.yul\":4181:4204   */\n      swap1\n      pop\n        /* \"#utility.yul\":3903:4211   */\n      swap2\n      swap1\n      pop\n      jump\t// out\n        /* \"#utility.yul\":4217:4651   */\n    tag_50:\n        /* \"#utility.yul\":4306:4311   */\n      0x00\n        /* \"#utility.yul\":4331:4397   */\n      tag_103\n        /* \"#utility.yul\":4347:4396   */\n      tag_104\n        /* \"#utility.yul\":4389:4395   */\n      dup5\n        /* \"#utility.yul\":4347:4396   */\n      tag_49\n      jump\t// in\n    tag_104:\n        /* \"#utility.yul\":4331:4397   */\n      tag_48\n      jump\t// in\n    tag_103:\n        /* \"#utility.yul\":4322:4397   */\n      swap1\n      pop\n        /* \"#utility.yul\":4420:4426   */\n      dup3\n        /* \"#utility.yul\":4413:4418   */\n      dup2\n        /* \"#utility.yul\":4406:4427   */\n      mstore\n        /* \"#utility.yul\":4458:4462   */\n      0x20\n        /* \"#utility.yul\":4451:4456   */\n      dup2\n        /* \"#utility.yul\":4447:4463   */\n      add\n        /* \"#utility.yul\":4496:4499   */\n      dup5\n        /* \"#utility.yul\":4487:4493   */\n      dup5\n        /* \"#utility.yul\":4482:4485   */\n      dup5\n        /* \"#utility.yul\":4478:4494   */\n      add\n        /* \"#utility.yul\":4475:4500   */\n      gt\n        /* \"#utility.yul\":4472:4584   */\n      iszero\n      tag_105\n      jumpi\n        /* \"#utility.yul\":4503:4582   */\n      tag_106\n      tag_45\n      jump\t// in\n    tag_106:\n        /* \"#utility.yul\":4472:4584   */\n    tag_105:\n        /* \"#utility.yul\":4593:4645   */\n      tag_107\n        /* \"#utility.yul\":4638:4644   */\n      dup5\n        /* \"#utility.yul\":4633:4636   */\n      dup3\n        /* \"#utility.yul\":4628:4631   */\n      dup6\n        /* \"#utility.yul\":4593:4645   */\n      tag_36\n      jump\t// in\n    tag_107:\n        /* \"#utility.yul\":4312:4651   */\n      pop\n        /* \"#utility.yul\":4217:4651   */\n      swap4\n      swap3\n      pop\n      pop\n      pop\n      jump\t// out\n        /* \"#utility.yul\":4671:5026   */\n    tag_51:\n        /* \"#utility.yul\":4738:4743   */\n      0x00\n        /* \"#utility.yul\":4787:4790   */\n      dup3\n        /* \"#utility.yul\":4780:4784   */\n      0x1f\n        /* \"#utility.yul\":4772:4778   */\n      dup4\n        /* \"#utility.yul\":4768:4785   */\n      add\n        /* \"#utility.yul\":4764:4791   */\n      slt\n        /* \"#utility.yul\":4754:4876   */\n      tag_109\n      jumpi\n        /* \"#utility.yul\":4795:4874   */\n      tag_110\n      tag_44\n      jump\t// in\n    tag_110:\n        /* \"#utility.yul\":4754:4876   */\n    tag_109:\n        /* \"#utility.yul\":4905:4911   */\n      dup2\n        /* \"#utility.yul\":4899:4912   */\n      mload\n        /* \"#utility.yul\":4930:5020   */\n      tag_111\n        /* \"#utility.yul\":5016:5019   */\n      dup5\n        /* \"#utility.yul\":5008:5014   */\n      dup3\n        /* \"#utility.yul\":5001:5005   */\n      0x20\n        /* \"#utility.yul\":4993:4999   */\n      dup7\n        /* \"#utility.yul\":4989:5006   */\n      add\n        /* \"#utility.yul\":4930:5020   */\n      tag_50\n      jump\t// in\n    tag_111:\n        /* \"#utility.yul\":4921:5020   */\n      swap2\n      pop\n        /* \"#utility.yul\":4744:5026   */\n      pop\n        /* \"#utility.yul\":4671:5026   */\n      swap3\n      swap2\n      pop\n      pop\n      jump\t// out\n        /* \"#utility.yul\":5032:5556   */\n    tag_22:\n        /* \"#utility.yul\":5112:5118   */\n      0x00\n        /* \"#utility.yul\":5161:5163   */\n      0x20\n        /* \"#utility.yul\":5149:5158   */\n      dup3\n        /* \"#utility.yul\":5140:5147   */\n      dup5\n        /* \"#utility.yul\":5136:5159   */\n      sub\n        /* \"#utility.yul\":5132:5164   */\n      slt\n        /* \"#utility.yul\":5129:5248   */\n      iszero\n      tag_113\n      jumpi\n        /* \"#utility.yul\":5167:5246   */\n      tag_114\n      tag_42\n      jump\t// in\n    tag_114:\n        /* \"#utility.yul\":5129:5248   */\n    tag_113:\n        /* \"#utility.yul\":5308:5309   */\n      0x00\n        /* \"#utility.yul\":5297:5306   */\n      dup3\n        /* \"#utility.yul\":5293:5310   */\n      add\n        /* \"#utility.yul\":5287:5311   */\n      mload\n        /* \"#utility.yul\":5338:5356   */\n      0xffffffffffffffff\n        /* \"#utility.yul\":5330:5336   */\n      dup2\n        /* \"#utility.yul\":5327:5357   */\n      gt\n        /* \"#utility.yul\":5324:5441   */\n      iszero\n      tag_115\n      jumpi\n        /* \"#utility.yul\":5360:5439   */\n      tag_116\n      tag_43\n      jump\t// in\n    tag_116:\n        /* \"#utility.yul\":5324:5441   */\n    tag_115:\n        /* \"#utility.yul\":5465:5539   */\n      tag_117\n        /* \"#utility.yul\":5531:5538   */\n      dup5\n        /* \"#utility.yul\":5522:5528   */\n      dup3\n        /* \"#utility.yul\":5511:5520   */\n      dup6\n        /* \"#utility.yul\":5507:5529   */\n      add\n        /* \"#utility.yul\":5465:5539   */\n      tag_51\n      jump\t// in\n    tag_117:\n        /* \"#utility.yul\":5455:5539   */\n      swap2\n      pop\n        /* \"#utility.yul\":5258:5549   */\n      pop\n        /* \"#utility.yul\":5032:5556   */\n      swap3\n      swap2\n      pop\n      pop\n      jump\t// out\n        /* \"#utility.yul\":5562:5684   */\n    tag_52:\n        /* \"#utility.yul\":5635:5659   */\n      tag_119\n        /* \"#utility.yul\":5653:5658   */\n      dup2\n        /* \"#utility.yul\":5635:5659   */\n      tag_39\n      jump\t// in\n    tag_119:\n        /* \"#utility.yul\":5628:5633   */\n      dup2\n        /* \"#utility.yul\":5625:5660   */\n      eq\n        /* \"#utility.yul\":5615:5678   */\n      tag_120\n      jumpi\n        /* \"#utility.yul\":5674:5675   */\n      0x00\n        /* \"#utility.yul\":5671:5672   */\n      dup1\n        /* \"#utility.yul\":5664:5676   */\n      revert\n        /* \"#utility.yul\":5615:5678   */\n    tag_120:\n        /* \"#utility.yul\":5562:5684   */\n      pop\n      jump\t// out\n        /* \"#utility.yul\":5690:5833   */\n    tag_53:\n        /* \"#utility.yul\":5747:5752   */\n      0x00\n        /* \"#utility.yul\":5778:5784   */\n      dup2\n        /* \"#utility.yul\":5772:5785   */\n      mload\n        /* \"#utility.yul\":5763:5785   */\n      swap1\n      pop\n        /* \"#utility.yul\":5794:5827   */\n      tag_122\n        /* \"#utility.yul\":5821:5826   */\n      dup2\n        /* \"#utility.yul\":5794:5827   */\n      tag_52\n      jump\t// in\n    tag_122:\n        /* \"#utility.yul\":5690:5833   */\n      swap3\n      swap2\n      pop\n      pop\n      jump\t// out\n        /* \"#utility.yul\":5839:6190   */\n    tag_27:\n        /* \"#utility.yul\":5909:5915   */\n      0x00\n        /* \"#utility.yul\":5958:5960   */\n      0x20\n        /* \"#utility.yul\":5946:5955   */\n      dup3\n        /* \"#utility.yul\":5937:5944   */\n      dup5\n        /* \"#utility.yul\":5933:5956   */\n      sub\n        /* \"#utility.yul\":5929:5961   */\n      slt\n        /* \"#utility.yul\":5926:6045   */\n      iszero\n      tag_124\n      jumpi\n        /* \"#utility.yul\":5964:6043   */\n      tag_125\n      tag_42\n      jump\t// in\n    tag_125:\n        /* \"#utility.yul\":5926:6045   */\n    tag_124:\n        /* \"#utility.yul\":6084:6085   */\n      0x00\n        /* \"#utility.yul\":6109:6173   */\n      tag_126\n        /* \"#utility.yul\":6165:6172   */\n      dup5\n        /* \"#utility.yul\":6156:6162   */\n      dup3\n        /* \"#utility.yul\":6145:6154   */\n      dup6\n        /* \"#utility.yul\":6141:6163   */\n      add\n        /* \"#utility.yul\":6109:6173   */\n      tag_53\n      jump\t// in\n    tag_126:\n        /* \"#utility.yul\":6099:6173   */\n      swap2\n      pop\n        /* \"#utility.yul\":6055:6183   */\n      pop\n        /* \"#utility.yul\":5839:6190   */\n      swap3\n      swap2\n      pop\n      pop\n      jump\t// out\n\n    auxdata: 0xa26469706673582212205866df7530db220d451d6d943eea41a353ba45616a555c995ed31d3645aaa25164736f6c634300081a0033\n}\n\nsub_1: assembly {\n        /* \"week6_practice/New.sol\":72:372  contract Monitor {... */\n      mstore(0x40, 0x80)\n        /* \"week6_practice/New.sol\":138:140  10 */\n      0x0a\n        /* \"week6_practice/New.sol\":121:140  uint private age=10 */\n      0x01\n      sstore\n        /* \"week6_practice/New.sol\":147:208  constructor(string memory _name){... */\n      callvalue\n      dup1\n      iszero\n      tag_1\n      jumpi\n      0x00\n      dup1\n      revert\n    tag_1:\n      pop\n      mload(0x40)\n      sub(codesize, bytecodeSize)\n      dup1\n      bytecodeSize\n      dup4\n      codecopy\n      dup2\n      dup2\n      add\n      0x40\n      mstore\n      dup2\n      add\n      swap1\n      tag_2\n      swap2\n      swap1\n      tag_3\n      jump\t// in\n    tag_2:\n        /* \"week6_practice/New.sol\":195:200  _name */\n      dup1\n        /* \"week6_practice/New.sol\":190:194  name */\n      0x00\n        /* \"week6_practice/New.sol\":190:200  name=_name */\n      swap1\n      dup2\n      tag_6\n      swap2\n      swap1\n      tag_7\n      jump\t// in\n    tag_6:\n      pop\n        /* \"week6_practice/New.sol\":147:208  constructor(string memory _name){... */\n      pop\n        /* \"week6_practice/New.sol\":72:372  contract Monitor {... */\n      jump(tag_8)\n        /* \"#utility.yul\":7:82   */\n    tag_9:\n        /* \"#utility.yul\":40:46   */\n      0x00\n        /* \"#utility.yul\":73:75   */\n      0x40\n        /* \"#utility.yul\":67:76   */\n      mload\n        /* \"#utility.yul\":57:76   */\n      swap1\n      pop\n        /* \"#utility.yul\":7:82   */\n      swap1\n      jump\t// out\n        /* \"#utility.yul\":88:205   */\n    tag_10:\n        /* \"#utility.yul\":197:198   */\n      0x00\n        /* \"#utility.yul\":194:195   */\n      dup1\n        /* \"#utility.yul\":187:199   */\n      revert\n        /* \"#utility.yul\":211:328   */\n    tag_11:\n        /* \"#utility.yul\":320:321   */\n      0x00\n        /* \"#utility.yul\":317:318   */\n      dup1\n        /* \"#utility.yul\":310:322   */\n      revert\n        /* \"#utility.yul\":334:451   */\n    tag_12:\n        /* \"#utility.yul\":443:444   */\n      0x00\n        /* \"#utility.yul\":440:441   */\n      dup1\n        /* \"#utility.yul\":433:445   */\n      revert\n        /* \"#utility.yul\":457:574   */\n    tag_13:\n        /* \"#utility.yul\":566:567   */\n      0x00\n        /* \"#utility.yul\":563:564   */\n      dup1\n        /* \"#utility.yul\":556:568   */\n      revert\n        /* \"#utility.yul\":580:682   */\n    tag_14:\n        /* \"#utility.yul\":621:627   */\n      0x00\n        /* \"#utility.yul\":672:674   */\n      0x1f\n        /* \"#utility.yul\":668:675   */\n      not\n        /* \"#utility.yul\":663:665   */\n      0x1f\n        /* \"#utility.yul\":656:661   */\n      dup4\n        /* \"#utility.yul\":652:666   */\n      add\n        /* \"#utility.yul\":648:676   */\n      and\n        /* \"#utility.yul\":638:676   */\n      swap1\n      pop\n        /* \"#utility.yul\":580:682   */\n      swap2\n      swap1\n      pop\n      jump\t// out\n        /* \"#utility.yul\":688:868   */\n    tag_15:\n        /* \"#utility.yul\":736:813   */\n      0x4e487b7100000000000000000000000000000000000000000000000000000000\n        /* \"#utility.yul\":733:734   */\n      0x00\n        /* \"#utility.yul\":726:814   */\n      mstore\n        /* \"#utility.yul\":833:837   */\n      0x41\n        /* \"#utility.yul\":830:831   */\n      0x04\n        /* \"#utility.yul\":823:838   */\n      mstore\n        /* \"#utility.yul\":857:861   */\n      0x24\n        /* \"#utility.yul\":854:855   */\n      0x00\n        /* \"#utility.yul\":847:862   */\n      revert\n        /* \"#utility.yul\":874:1155   */\n    tag_16:\n        /* \"#utility.yul\":957:984   */\n      tag_50\n        /* \"#utility.yul\":979:983   */\n      dup3\n        /* \"#utility.yul\":957:984   */\n      tag_14\n      jump\t// in\n    tag_50:\n        /* \"#utility.yul\":949:955   */\n      dup2\n        /* \"#utility.yul\":945:985   */\n      add\n        /* \"#utility.yul\":1087:1093   */\n      dup2\n        /* \"#utility.yul\":1075:1085   */\n      dup2\n        /* \"#utility.yul\":1072:1094   */\n      lt\n        /* \"#utility.yul\":1051:1069   */\n      0xffffffffffffffff\n        /* \"#utility.yul\":1039:1049   */\n      dup3\n        /* \"#utility.yul\":1036:1070   */\n      gt\n        /* \"#utility.yul\":1033:1095   */\n      or\n        /* \"#utility.yul\":1030:1118   */\n      iszero\n      tag_51\n      jumpi\n        /* \"#utility.yul\":1098:1116   */\n      tag_52\n      tag_15\n      jump\t// in\n    tag_52:\n        /* \"#utility.yul\":1030:1118   */\n    tag_51:\n        /* \"#utility.yul\":1138:1148   */\n      dup1\n        /* \"#utility.yul\":1134:1136   */\n      0x40\n        /* \"#utility.yul\":1127:1149   */\n      mstore\n        /* \"#utility.yul\":917:1155   */\n      pop\n        /* \"#utility.yul\":874:1155   */\n      pop\n      pop\n      jump\t// out\n        /* \"#utility.yul\":1161:1290   */\n    tag_17:\n        /* \"#utility.yul\":1195:1201   */\n      0x00\n        /* \"#utility.yul\":1222:1242   */\n      tag_54\n      tag_9\n      jump\t// in\n    tag_54:\n        /* \"#utility.yul\":1212:1242   */\n      swap1\n      pop\n        /* \"#utility.yul\":1251:1284   */\n      tag_55\n        /* \"#utility.yul\":1279:1283   */\n      dup3\n        /* \"#utility.yul\":1271:1277   */\n      dup3\n        /* \"#utility.yul\":1251:1284   */\n      tag_16\n      jump\t// in\n    tag_55:\n        /* \"#utility.yul\":1161:1290   */\n      swap2\n      swap1\n      pop\n      jump\t// out\n        /* \"#utility.yul\":1296:1604   */\n    tag_18:\n        /* \"#utility.yul\":1358:1362   */\n      0x00\n        /* \"#utility.yul\":1448:1466   */\n      0xffffffffffffffff\n        /* \"#utility.yul\":1440:1446   */\n      dup3\n        /* \"#utility.yul\":1437:1467   */\n      gt\n        /* \"#utility.yul\":1434:1490   */\n      iszero\n      tag_57\n      jumpi\n        /* \"#utility.yul\":1470:1488   */\n      tag_58\n      tag_15\n      jump\t// in\n    tag_58:\n        /* \"#utility.yul\":1434:1490   */\n    tag_57:\n        /* \"#utility.yul\":1508:1537   */\n      tag_59\n        /* \"#utility.yul\":1530:1536   */\n      dup3\n        /* \"#utility.yul\":1508:1537   */\n      tag_14\n      jump\t// in\n    tag_59:\n        /* \"#utility.yul\":1500:1537   */\n      swap1\n      pop\n        /* \"#utility.yul\":1592:1596   */\n      0x20\n        /* \"#utility.yul\":1586:1590   */\n      dup2\n        /* \"#utility.yul\":1582:1597   */\n      add\n        /* \"#utility.yul\":1574:1597   */\n      swap1\n      pop\n        /* \"#utility.yul\":1296:1604   */\n      swap2\n      swap1\n      pop\n      jump\t// out\n        /* \"#utility.yul\":1610:1749   */\n    tag_19:\n        /* \"#utility.yul\":1699:1705   */\n      dup3\n        /* \"#utility.yul\":1694:1697   */\n      dup2\n        /* \"#utility.yul\":1689:1692   */\n      dup4\n        /* \"#utility.yul\":1683:1706   */\n      mcopy\n        /* \"#utility.yul\":1740:1741   */\n      0x00\n        /* \"#utility.yul\":1731:1737   */\n      dup4\n        /* \"#utility.yul\":1726:1729   */\n      dup4\n        /* \"#utility.yul\":1722:1738   */\n      add\n        /* \"#utility.yul\":1715:1742   */\n      mstore\n        /* \"#utility.yul\":1610:1749   */\n      pop\n      pop\n      pop\n      jump\t// out\n        /* \"#utility.yul\":1755:2189   */\n    tag_20:\n        /* \"#utility.yul\":1844:1849   */\n      0x00\n        /* \"#utility.yul\":1869:1935   */\n      tag_62\n        /* \"#utility.yul\":1885:1934   */\n      tag_63\n        /* \"#utility.yul\":1927:1933   */\n      dup5\n        /* \"#utility.yul\":1885:1934   */\n      tag_18\n      jump\t// in\n    tag_63:\n        /* \"#utility.yul\":1869:1935   */\n      tag_17\n      jump\t// in\n    tag_62:\n        /* \"#utility.yul\":1860:1935   */\n      swap1\n      pop\n        /* \"#utility.yul\":1958:1964   */\n      dup3\n        /* \"#utility.yul\":1951:1956   */\n      dup2\n        /* \"#utility.yul\":1944:1965   */\n      mstore\n        /* \"#utility.yul\":1996:2000   */\n      0x20\n        /* \"#utility.yul\":1989:1994   */\n      dup2\n        /* \"#utility.yul\":1985:2001   */\n      add\n        /* \"#utility.yul\":2034:2037   */\n      dup5\n        /* \"#utility.yul\":2025:2031   */\n      dup5\n        /* \"#utility.yul\":2020:2023   */\n      dup5\n        /* \"#utility.yul\":2016:2032   */\n      add\n        /* \"#utility.yul\":2013:2038   */\n      gt\n        /* \"#utility.yul\":2010:2122   */\n      iszero\n      tag_64\n      jumpi\n        /* \"#utility.yul\":2041:2120   */\n      tag_65\n      tag_13\n      jump\t// in\n    tag_65:\n        /* \"#utility.yul\":2010:2122   */\n    tag_64:\n        /* \"#utility.yul\":2131:2183   */\n      tag_66\n        /* \"#utility.yul\":2176:2182   */\n      dup5\n        /* \"#utility.yul\":2171:2174   */\n      dup3\n        /* \"#utility.yul\":2166:2169   */\n      dup6\n        /* \"#utility.yul\":2131:2183   */\n      tag_19\n      jump\t// in\n    tag_66:\n        /* \"#utility.yul\":1850:2189   */\n      pop\n        /* \"#utility.yul\":1755:2189   */\n      swap4\n      swap3\n      pop\n      pop\n      pop\n      jump\t// out\n        /* \"#utility.yul\":2209:2564   */\n    tag_21:\n        /* \"#utility.yul\":2276:2281   */\n      0x00\n        /* \"#utility.yul\":2325:2328   */\n      dup3\n        /* \"#utility.yul\":2318:2322   */\n      0x1f\n        /* \"#utility.yul\":2310:2316   */\n      dup4\n        /* \"#utility.yul\":2306:2323   */\n      add\n        /* \"#utility.yul\":2302:2329   */\n      slt\n        /* \"#utility.yul\":2292:2414   */\n      tag_68\n      jumpi\n        /* \"#utility.yul\":2333:2412   */\n      tag_69\n      tag_12\n      jump\t// in\n    tag_69:\n        /* \"#utility.yul\":2292:2414   */\n    tag_68:\n        /* \"#utility.yul\":2443:2449   */\n      dup2\n        /* \"#utility.yul\":2437:2450   */\n      mload\n        /* \"#utility.yul\":2468:2558   */\n      tag_70\n        /* \"#utility.yul\":2554:2557   */\n      dup5\n        /* \"#utility.yul\":2546:2552   */\n      dup3\n        /* \"#utility.yul\":2539:2543   */\n      0x20\n        /* \"#utility.yul\":2531:2537   */\n      dup7\n        /* \"#utility.yul\":2527:2544   */\n      add\n        /* \"#utility.yul\":2468:2558   */\n      tag_20\n      jump\t// in\n    tag_70:\n        /* \"#utility.yul\":2459:2558   */\n      swap2\n      pop\n        /* \"#utility.yul\":2282:2564   */\n      pop\n        /* \"#utility.yul\":2209:2564   */\n      swap3\n      swap2\n      pop\n      pop\n      jump\t// out\n        /* \"#utility.yul\":2570:3094   */\n    tag_3:\n        /* \"#utility.yul\":2650:2656   */\n      0x00\n        /* \"#utility.yul\":2699:2701   */\n      0x20\n        /* \"#utility.yul\":2687:2696   */\n      dup3\n        /* \"#utility.yul\":2678:2685   */\n      dup5\n        /* \"#utility.yul\":2674:2697   */\n      sub\n        /* \"#utility.yul\":2670:2702   */\n      slt\n        /* \"#utility.yul\":2667:2786   */\n      iszero\n      tag_72\n      jumpi\n        /* \"#utility.yul\":2705:2784   */\n      tag_73\n      tag_10\n      jump\t// in\n    tag_73:\n        /* \"#utility.yul\":2667:2786   */\n    tag_72:\n        /* \"#utility.yul\":2846:2847   */\n      0x00\n        /* \"#utility.yul\":2835:2844   */\n      dup3\n        /* \"#utility.yul\":2831:2848   */\n      add\n        /* \"#utility.yul\":2825:2849   */\n      mload\n        /* \"#utility.yul\":2876:2894   */\n      0xffffffffffffffff\n        /* \"#utility.yul\":2868:2874   */\n      dup2\n        /* \"#utility.yul\":2865:2895   */\n      gt\n        /* \"#utility.yul\":2862:2979   */\n      iszero\n      tag_74\n      jumpi\n        /* \"#utility.yul\":2898:2977   */\n      tag_75\n      tag_11\n      jump\t// in\n    tag_75:\n        /* \"#utility.yul\":2862:2979   */\n    tag_74:\n        /* \"#utility.yul\":3003:3077   */\n      tag_76\n        /* \"#utility.yul\":3069:3076   */\n      dup5\n        /* \"#utility.yul\":3060:3066   */\n      dup3\n        /* \"#utility.yul\":3049:3058   */\n      dup6\n        /* \"#utility.yul\":3045:3067   */\n      add\n        /* \"#utility.yul\":3003:3077   */\n      tag_21\n      jump\t// in\n    tag_76:\n        /* \"#utility.yul\":2993:3077   */\n      swap2\n      pop\n        /* \"#utility.yul\":2796:3087   */\n      pop\n        /* \"#utility.yul\":2570:3094   */\n      swap3\n      swap2\n      pop\n      pop\n      jump\t// out\n        /* \"#utility.yul\":3100:3199   */\n    tag_22:\n        /* \"#utility.yul\":3152:3158   */\n      0x00\n        /* \"#utility.yul\":3186:3191   */\n      dup2\n        /* \"#utility.yul\":3180:3192   */\n      mload\n        /* \"#utility.yul\":3170:3192   */\n      swap1\n      pop\n        /* \"#utility.yul\":3100:3199   */\n      swap2\n      swap1\n      pop\n      jump\t// out\n        /* \"#utility.yul\":3205:3385   */\n    tag_23:\n        /* \"#utility.yul\":3253:3330   */\n      0x4e487b7100000000000000000000000000000000000000000000000000000000\n        /* \"#utility.yul\":3250:3251   */\n      0x00\n        /* \"#utility.yul\":3243:3331   */\n      mstore\n        /* \"#utility.yul\":3350:3354   */\n      0x22\n        /* \"#utility.yul\":3347:3348   */\n      0x04\n        /* \"#utility.yul\":3340:3355   */\n      mstore\n        /* \"#utility.yul\":3374:3378   */\n      0x24\n        /* \"#utility.yul\":3371:3372   */\n      0x00\n        /* \"#utility.yul\":3364:3379   */\n      revert\n        /* \"#utility.yul\":3391:3711   */\n    tag_24:\n        /* \"#utility.yul\":3435:3441   */\n      0x00\n        /* \"#utility.yul\":3472:3473   */\n      0x02\n        /* \"#utility.yul\":3466:3470   */\n      dup3\n        /* \"#utility.yul\":3462:3474   */\n      div\n        /* \"#utility.yul\":3452:3474   */\n      swap1\n      pop\n        /* \"#utility.yul\":3519:3520   */\n      0x01\n        /* \"#utility.yul\":3513:3517   */\n      dup3\n        /* \"#utility.yul\":3509:3521   */\n      and\n        /* \"#utility.yul\":3540:3558   */\n      dup1\n        /* \"#utility.yul\":3530:3611   */\n      tag_80\n      jumpi\n        /* \"#utility.yul\":3596:3600   */\n      0x7f\n        /* \"#utility.yul\":3588:3594   */\n      dup3\n        /* \"#utility.yul\":3584:3601   */\n      and\n        /* \"#utility.yul\":3574:3601   */\n      swap2\n      pop\n        /* \"#utility.yul\":3530:3611   */\n    tag_80:\n        /* \"#utility.yul\":3658:3660   */\n      0x20\n        /* \"#utility.yul\":3650:3656   */\n      dup3\n        /* \"#utility.yul\":3647:3661   */\n      lt\n        /* \"#utility.yul\":3627:3645   */\n      dup2\n        /* \"#utility.yul\":3624:3662   */\n      sub\n        /* \"#utility.yul\":3621:3705   */\n      tag_81\n      jumpi\n        /* \"#utility.yul\":3677:3695   */\n      tag_82\n      tag_23\n      jump\t// in\n    tag_82:\n        /* \"#utility.yul\":3621:3705   */\n    tag_81:\n        /* \"#utility.yul\":3442:3711   */\n      pop\n        /* \"#utility.yul\":3391:3711   */\n      swap2\n      swap1\n      pop\n      jump\t// out\n        /* \"#utility.yul\":3717:3858   */\n    tag_25:\n        /* \"#utility.yul\":3766:3770   */\n      0x00\n        /* \"#utility.yul\":3789:3792   */\n      dup2\n        /* \"#utility.yul\":3781:3792   */\n      swap1\n      pop\n        /* \"#utility.yul\":3812:3815   */\n      dup2\n        /* \"#utility.yul\":3809:3810   */\n      0x00\n        /* \"#utility.yul\":3802:3816   */\n      mstore\n        /* \"#utility.yul\":3846:3850   */\n      0x20\n        /* \"#utility.yul\":3843:3844   */\n      0x00\n        /* \"#utility.yul\":3833:3851   */\n      keccak256\n        /* \"#utility.yul\":3825:3851   */\n      swap1\n      pop\n        /* \"#utility.yul\":3717:3858   */\n      swap2\n      swap1\n      pop\n      jump\t// out\n        /* \"#utility.yul\":3864:3957   */\n    tag_26:\n        /* \"#utility.yul\":3901:3907   */\n      0x00\n        /* \"#utility.yul\":3948:3950   */\n      0x20\n        /* \"#utility.yul\":3943:3945   */\n      0x1f\n        /* \"#utility.yul\":3936:3941   */\n      dup4\n        /* \"#utility.yul\":3932:3946   */\n      add\n        /* \"#utility.yul\":3928:3951   */\n      div\n        /* \"#utility.yul\":3918:3951   */\n      swap1\n      pop\n        /* \"#utility.yul\":3864:3957   */\n      swap2\n      swap1\n      pop\n      jump\t// out\n        /* \"#utility.yul\":3963:4070   */\n    tag_27:\n        /* \"#utility.yul\":4007:4015   */\n      0x00\n        /* \"#utility.yul\":4057:4062   */\n      dup3\n        /* \"#utility.yul\":4051:4055   */\n      dup3\n        /* \"#utility.yul\":4047:4063   */\n      shl\n        /* \"#utility.yul\":4026:4063   */\n      swap1\n      pop\n        /* \"#utility.yul\":3963:4070   */\n      swap3\n      swap2\n      pop\n      pop\n      jump\t// out\n        /* \"#utility.yul\":4076:4469   */\n    tag_28:\n        /* \"#utility.yul\":4145:4151   */\n      0x00\n        /* \"#utility.yul\":4195:4196   */\n      0x08\n        /* \"#utility.yul\":4183:4193   */\n      dup4\n        /* \"#utility.yul\":4179:4197   */\n      mul\n        /* \"#utility.yul\":4218:4315   */\n      tag_87\n        /* \"#utility.yul\":4248:4314   */\n      0xffffffffffffffffffffffffffffffffffffffffffffffffffffffffffffffff\n        /* \"#utility.yul\":4237:4246   */\n      dup3\n        /* \"#utility.yul\":4218:4315   */\n      tag_27\n      jump\t// in\n    tag_87:\n        /* \"#utility.yul\":4336:4375   */\n      tag_88\n        /* \"#utility.yul\":4366:4374   */\n      dup7\n        /* \"#utility.yul\":4355:4364   */\n      dup4\n        /* \"#utility.yul\":4336:4375   */\n      tag_27\n      jump\t// in\n    tag_88:\n        /* \"#utility.yul\":4324:4375   */\n      swap6\n      pop\n        /* \"#utility.yul\":4408:4412   */\n      dup1\n        /* \"#utility.yul\":4404:4413   */\n      not\n        /* \"#utility.yul\":4397:4402   */\n      dup5\n        /* \"#utility.yul\":4393:4414   */\n      and\n        /* \"#utility.yul\":4384:4414   */\n      swap4\n      pop\n        /* \"#utility.yul\":4457:4461   */\n      dup1\n        /* \"#utility.yul\":4447:4455   */\n      dup7\n        /* \"#utility.yul\":4443:4462   */\n      and\n        /* \"#utility.yul\":4436:4441   */\n      dup5\n        /* \"#utility.yul\":4433:4463   */\n      or\n        /* \"#utility.yul\":4423:4463   */\n      swap3\n      pop\n        /* \"#utility.yul\":4152:4469   */\n      pop\n      pop\n        /* \"#utility.yul\":4076:4469   */\n      swap4\n      swap3\n      pop\n      pop\n      pop\n      jump\t// out\n        /* \"#utility.yul\":4475:4552   */\n    tag_29:\n        /* \"#utility.yul\":4512:4519   */\n      0x00\n        /* \"#utility.yul\":4541:4546   */\n      dup2\n        /* \"#utility.yul\":4530:4546   */\n      swap1\n      pop\n        /* \"#utility.yul\":4475:4552   */\n      swap2\n      swap1\n      pop\n      jump\t// out\n        /* \"#utility.yul\":4558:4618   */\n    tag_30:\n        /* \"#utility.yul\":4586:4589   */\n      0x00\n        /* \"#utility.yul\":4607:4612   */\n      dup2\n        /* \"#utility.yul\":4600:4612   */\n      swap1\n      pop\n        /* \"#utility.yul\":4558:4618   */\n      swap2\n      swap1\n      pop\n      jump\t// out\n        /* \"#utility.yul\":4624:4766   */\n    tag_31:\n        /* \"#utility.yul\":4674:4683   */\n      0x00\n        /* \"#utility.yul\":4707:4760   */\n      tag_92\n        /* \"#utility.yul\":4725:4759   */\n      tag_93\n        /* \"#utility.yul\":4734:4758   */\n      tag_94\n        /* \"#utility.yul\":4752:4757   */\n      dup5\n        /* \"#utility.yul\":4734:4758   */\n      tag_29\n      jump\t// in\n    tag_94:\n        /* \"#utility.yul\":4725:4759   */\n      tag_30\n      jump\t// in\n    tag_93:\n        /* \"#utility.yul\":4707:4760   */\n      tag_29\n      jump\t// in\n    tag_92:\n        /* \"#utility.yul\":4694:4760   */\n      swap1\n      pop\n        /* \"#utility.yul\":4624:4766   */\n      swap2\n      swap1\n      pop\n      jump\t// out\n        /* \"#utility.yul\":4772:4847   */\n    tag_32:\n        /* \"#utility.yul\":4815:4818   */\n      0x00\n        /* \"#utility.yul\":4836:4841   */\n      dup2\n        /* \"#utility.yul\":4829:4841   */\n      swap1\n      pop\n        /* \"#utility.yul\":4772:4847   */\n      swap2\n      swap1\n      pop\n      jump\t// out\n        /* \"#utility.yul\":4853:5122   */\n    tag_33:\n        /* \"#utility.yul\":4963:5002   */\n      tag_97\n        /* \"#utility.yul\":4994:5001   */\n      dup4\n        /* \"#utility.yul\":4963:5002   */\n      tag_31\n      jump\t// in\n    tag_97:\n        /* \"#utility.yul\":5024:5115   */\n      tag_98\n        /* \"#utility.yul\":5073:5114   */\n      tag_99\n        /* \"#utility.yul\":5097:5113   */\n      dup3\n        /* \"#utility.yul\":5073:5114   */\n      tag_32\n      jump\t// in\n    tag_99:\n        /* \"#utility.yul\":5065:5071   */\n      dup5\n        /* \"#utility.yul\":5058:5062   */\n      dup5\n        /* \"#utility.yul\":5052:5063   */\n      sload\n        /* \"#utility.yul\":5024:5115   */\n      tag_28\n      jump\t// in\n    tag_98:\n        /* \"#utility.yul\":5018:5022   */\n      dup3\n        /* \"#utility.yul\":5011:5116   */\n      sstore\n        /* \"#utility.yul\":4929:5122   */\n      pop\n        /* \"#utility.yul\":4853:5122   */\n      pop\n      pop\n      pop\n      jump\t// out\n        /* \"#utility.yul\":5128:5201   */\n    tag_34:\n        /* \"#utility.yul\":5173:5176   */\n      0x00\n        /* \"#utility.yul\":5128:5201   */\n      swap1\n      jump\t// out\n        /* \"#utility.yul\":5207:5396   */\n    tag_35:\n        /* \"#utility.yul\":5284:5316   */\n      tag_102\n      tag_34\n      jump\t// in\n    tag_102:\n        /* \"#utility.yul\":5325:5390   */\n      tag_103\n        /* \"#utility.yul\":5383:5389   */\n      dup2\n        /* \"#utility.yul\":5375:5381   */\n      dup5\n        /* \"#utility.yul\":5369:5373   */\n      dup5\n        /* \"#utility.yul\":5325:5390   */\n      tag_33\n      jump\t// in\n    tag_103:\n        /* \"#utility.yul\":5260:5396   */\n      pop\n        /* \"#utility.yul\":5207:5396   */\n      pop\n      pop\n      jump\t// out\n        /* \"#utility.yul\":5402:5588   */\n    tag_36:\n        /* \"#utility.yul\":5462:5582   */\n    tag_105:\n        /* \"#utility.yul\":5479:5482   */\n      dup2\n        /* \"#utility.yul\":5472:5477   */\n      dup2\n        /* \"#utility.yul\":5469:5483   */\n      lt\n        /* \"#utility.yul\":5462:5582   */\n      iszero\n      tag_107\n      jumpi\n        /* \"#utility.yul\":5533:5572   */\n      tag_108\n        /* \"#utility.yul\":5570:5571   */\n      0x00\n        /* \"#utility.yul\":5563:5568   */\n      dup3\n        /* \"#utility.yul\":5533:5572   */\n      tag_35\n      jump\t// in\n    tag_108:\n        /* \"#utility.yul\":5506:5507   */\n      0x01\n        /* \"#utility.yul\":5499:5504   */\n      dup2\n        /* \"#utility.yul\":5495:5508   */\n      add\n        /* \"#utility.yul\":5486:5508   */\n      swap1\n      pop\n        /* \"#utility.yul\":5462:5582   */\n      jump(tag_105)\n    tag_107:\n        /* \"#utility.yul\":5402:5588   */\n      pop\n      pop\n      jump\t// out\n        /* \"#utility.yul\":5594:6137   */\n    tag_37:\n        /* \"#utility.yul\":5695:5697   */\n      0x1f\n        /* \"#utility.yul\":5690:5693   */\n      dup3\n        /* \"#utility.yul\":5687:5698   */\n      gt\n        /* \"#utility.yul\":5684:6130   */\n      iszero\n      tag_110\n      jumpi\n        /* \"#utility.yul\":5729:5767   */\n      tag_111\n        /* \"#utility.yul\":5761:5766   */\n      dup2\n        /* \"#utility.yul\":5729:5767   */\n      tag_25\n      jump\t// in\n    tag_111:\n        /* \"#utility.yul\":5813:5842   */\n      tag_112\n        /* \"#utility.yul\":5831:5841   */\n      dup5\n        /* \"#utility.yul\":5813:5842   */\n      tag_26\n      jump\t// in\n    tag_112:\n        /* \"#utility.yul\":5803:5811   */\n      dup2\n        /* \"#utility.yul\":5799:5843   */\n      add\n        /* \"#utility.yul\":5996:5998   */\n      0x20\n        /* \"#utility.yul\":5984:5994   */\n      dup6\n        /* \"#utility.yul\":5981:5999   */\n      lt\n        /* \"#utility.yul\":5978:6027   */\n      iszero\n      tag_113\n      jumpi\n        /* \"#utility.yul\":6017:6025   */\n      dup2\n        /* \"#utility.yul\":6002:6025   */\n      swap1\n      pop\n        /* \"#utility.yul\":5978:6027   */\n    tag_113:\n        /* \"#utility.yul\":6040:6120   */\n      tag_114\n        /* \"#utility.yul\":6096:6118   */\n      tag_115\n        /* \"#utility.yul\":6114:6117   */\n      dup6\n        /* \"#utility.yul\":6096:6118   */\n      tag_26\n      jump\t// in\n    tag_115:\n        /* \"#utility.yul\":6086:6094   */\n      dup4\n        /* \"#utility.yul\":6082:6119   */\n      add\n        /* \"#utility.yul\":6069:6080   */\n      dup3\n        /* \"#utility.yul\":6040:6120   */\n      tag_36\n      jump\t// in\n    tag_114:\n        /* \"#utility.yul\":5699:6130   */\n      pop\n      pop\n        /* \"#utility.yul\":5684:6130   */\n    tag_110:\n        /* \"#utility.yul\":5594:6137   */\n      pop\n      pop\n      pop\n      jump\t// out\n        /* \"#utility.yul\":6143:6260   */\n    tag_38:\n        /* \"#utility.yul\":6197:6205   */\n      0x00\n        /* \"#utility.yul\":6247:6252   */\n      dup3\n        /* \"#utility.yul\":6241:6245   */\n      dup3\n        /* \"#utility.yul\":6237:6253   */\n      shr\n        /* \"#utility.yul\":6216:6253   */\n      swap1\n      pop\n        /* \"#utility.yul\":6143:6260   */\n      swap3\n      swap2\n      pop\n      pop\n      jump\t// out\n        /* \"#utility.yul\":6266:6435   */\n    tag_39:\n        /* \"#utility.yul\":6310:6316   */\n      0x00\n        /* \"#utility.yul\":6343:6394   */\n      tag_118\n        /* \"#utility.yul\":6391:6392   */\n      0x00\n        /* \"#utility.yul\":6387:6393   */\n      not\n        /* \"#utility.yul\":6379:6384   */\n      dup5\n        /* \"#utility.yul\":6376:6377   */\n      0x08\n        /* \"#utility.yul\":6372:6385   */\n      mul\n        /* \"#utility.yul\":6343:6394   */\n      tag_38\n      jump\t// in\n    tag_118:\n        /* \"#utility.yul\":6339:6395   */\n      not\n        /* \"#utility.yul\":6424:6428   */\n      dup1\n        /* \"#utility.yul\":6418:6422   */\n      dup4\n        /* \"#utility.yul\":6414:6429   */\n      and\n        /* \"#utility.yul\":6404:6429   */\n      swap2\n      pop\n        /* \"#utility.yul\":6317:6435   */\n      pop\n        /* \"#utility.yul\":6266:6435   */\n      swap3\n      swap2\n      pop\n      pop\n      jump\t// out\n        /* \"#utility.yul\":6440:6735   */\n    tag_40:\n        /* \"#utility.yul\":6516:6520   */\n      0x00\n        /* \"#utility.yul\":6662:6691   */\n      tag_120\n        /* \"#utility.yul\":6687:6690   */\n      dup4\n        /* \"#utility.yul\":6681:6685   */\n      dup4\n        /* \"#utility.yul\":6662:6691   */\n      tag_39\n      jump\t// in\n    tag_120:\n        /* \"#utility.yul\":6654:6691   */\n      swap2\n      pop\n        /* \"#utility.yul\":6724:6727   */\n      dup3\n        /* \"#utility.yul\":6721:6722   */\n      0x02\n        /* \"#utility.yul\":6717:6728   */\n      mul\n        /* \"#utility.yul\":6711:6715   */\n      dup3\n        /* \"#utility.yul\":6708:6729   */\n      or\n        /* \"#utility.yul\":6700:6729   */\n      swap1\n      pop\n        /* \"#utility.yul\":6440:6735   */\n      swap3\n      swap2\n      pop\n      pop\n      jump\t// out\n        /* \"#utility.yul\":6740:8135   */\n    tag_7:\n        /* \"#utility.yul\":6857:6894   */\n      tag_122\n        /* \"#utility.yul\":6890:6893   */\n      dup3\n        /* \"#utility.yul\":6857:6894   */\n      tag_22\n      jump\t// in\n    tag_122:\n        /* \"#utility.yul\":6959:6977   */\n      0xffffffffffffffff\n        /* \"#utility.yul\":6951:6957   */\n      dup2\n        /* \"#utility.yul\":6948:6978   */\n      gt\n        /* \"#utility.yul\":6945:7001   */\n      iszero\n      tag_123\n      jumpi\n        /* \"#utility.yul\":6981:6999   */\n      tag_124\n      tag_15\n      jump\t// in\n    tag_124:\n        /* \"#utility.yul\":6945:7001   */\n    tag_123:\n        /* \"#utility.yul\":7025:7063   */\n      tag_125\n        /* \"#utility.yul\":7057:7061   */\n      dup3\n        /* \"#utility.yul\":7051:7062   */\n      sload\n        /* \"#utility.yul\":7025:7063   */\n      tag_24\n      jump\t// in\n    tag_125:\n        /* \"#utility.yul\":7110:7177   */\n      tag_126\n        /* \"#utility.yul\":7170:7176   */\n      dup3\n        /* \"#utility.yul\":7162:7168   */\n      dup3\n        /* \"#utility.yul\":7156:7160   */\n      dup6\n        /* \"#utility.yul\":7110:7177   */\n      tag_37\n      jump\t// in\n    tag_126:\n        /* \"#utility.yul\":7204:7205   */\n      0x00\n        /* \"#utility.yul\":7228:7232   */\n      0x20\n        /* \"#utility.yul\":7215:7232   */\n      swap1\n      pop\n        /* \"#utility.yul\":7260:7262   */\n      0x1f\n        /* \"#utility.yul\":7252:7258   */\n      dup4\n        /* \"#utility.yul\":7249:7263   */\n      gt\n        /* \"#utility.yul\":7277:7278   */\n      0x01\n        /* \"#utility.yul\":7272:7890   */\n      dup2\n      eq\n      tag_128\n      jumpi\n        /* \"#utility.yul\":7934:7935   */\n      0x00\n        /* \"#utility.yul\":7951:7957   */\n      dup5\n        /* \"#utility.yul\":7948:8025   */\n      iszero\n      tag_129\n      jumpi\n        /* \"#utility.yul\":8000:8009   */\n      dup3\n        /* \"#utility.yul\":7995:7998   */\n      dup8\n        /* \"#utility.yul\":7991:8010   */\n      add\n        /* \"#utility.yul\":7985:8011   */\n      mload\n        /* \"#utility.yul\":7976:8011   */\n      swap1\n      pop\n        /* \"#utility.yul\":7948:8025   */\n    tag_129:\n        /* \"#utility.yul\":8051:8118   */\n      tag_130\n        /* \"#utility.yul\":8111:8117   */\n      dup6\n        /* \"#utility.yul\":8104:8109   */\n      dup3\n        /* \"#utility.yul\":8051:8118   */\n      tag_40\n      jump\t// in\n    tag_130:\n        /* \"#utility.yul\":8045:8049   */\n      dup7\n        /* \"#utility.yul\":8038:8119   */\n      sstore\n        /* \"#utility.yul\":7907:8129   */\n      pop\n        /* \"#utility.yul\":7242:8129   */\n      jump(tag_127)\n        /* \"#utility.yul\":7272:7890   */\n    tag_128:\n        /* \"#utility.yul\":7324:7328   */\n      0x1f\n        /* \"#utility.yul\":7320:7329   */\n      not\n        /* \"#utility.yul\":7312:7318   */\n      dup5\n        /* \"#utility.yul\":7308:7330   */\n      and\n        /* \"#utility.yul\":7358:7395   */\n      tag_131\n        /* \"#utility.yul\":7390:7394   */\n      dup7\n        /* \"#utility.yul\":7358:7395   */\n      tag_25\n      jump\t// in\n    tag_131:\n        /* \"#utility.yul\":7417:7418   */\n      0x00\n        /* \"#utility.yul\":7431:7639   */\n    tag_132:\n        /* \"#utility.yul\":7445:7452   */\n      dup3\n        /* \"#utility.yul\":7442:7443   */\n      dup2\n        /* \"#utility.yul\":7439:7453   */\n      lt\n        /* \"#utility.yul\":7431:7639   */\n      iszero\n      tag_134\n      jumpi\n        /* \"#utility.yul\":7524:7533   */\n      dup5\n        /* \"#utility.yul\":7519:7522   */\n      dup10\n        /* \"#utility.yul\":7515:7534   */\n      add\n        /* \"#utility.yul\":7509:7535   */\n      mload\n        /* \"#utility.yul\":7501:7507   */\n      dup3\n        /* \"#utility.yul\":7494:7536   */\n      sstore\n        /* \"#utility.yul\":7575:7576   */\n      0x01\n        /* \"#utility.yul\":7567:7573   */\n      dup3\n        /* \"#utility.yul\":7563:7577   */\n      add\n        /* \"#utility.yul\":7553:7577   */\n      swap2\n      pop\n        /* \"#utility.yul\":7622:7624   */\n      0x20\n        /* \"#utility.yul\":7611:7620   */\n      dup6\n        /* \"#utility.yul\":7607:7625   */\n      add\n        /* \"#utility.yul\":7594:7625   */\n      swap5\n      pop\n        /* \"#utility.yul\":7468:7472   */\n      0x20\n        /* \"#utility.yul\":7465:7466   */\n      dup2\n        /* \"#utility.yul\":7461:7473   */\n      add\n        /* \"#utility.yul\":7456:7473   */\n      swap1\n      pop\n        /* \"#utility.yul\":7431:7639   */\n      jump(tag_132)\n    tag_134:\n        /* \"#utility.yul\":7667:7673   */\n      dup7\n        /* \"#utility.yul\":7658:7665   */\n      dup4\n        /* \"#utility.yul\":7655:7674   */\n      lt\n        /* \"#utility.yul\":7652:7831   */\n      iszero\n      tag_135\n      jumpi\n        /* \"#utility.yul\":7725:7734   */\n      dup5\n        /* \"#utility.yul\":7720:7723   */\n      dup10\n        /* \"#utility.yul\":7716:7735   */\n      add\n        /* \"#utility.yul\":7710:7736   */\n      mload\n        /* \"#utility.yul\":7768:7816   */\n      tag_136\n        /* \"#utility.yul\":7810:7814   */\n      0x1f\n        /* \"#utility.yul\":7802:7808   */\n      dup10\n        /* \"#utility.yul\":7798:7815   */\n      and\n        /* \"#utility.yul\":7787:7796   */\n      dup3\n        /* \"#utility.yul\":7768:7816   */\n      tag_39\n      jump\t// in\n    tag_136:\n        /* \"#utility.yul\":7760:7766   */\n      dup4\n        /* \"#utility.yul\":7753:7817   */\n      sstore\n        /* \"#utility.yul\":7675:7831   */\n      pop\n        /* \"#utility.yul\":7652:7831   */\n    tag_135:\n        /* \"#utility.yul\":7877:7878   */\n      0x01\n        /* \"#utility.yul\":7873:7874   */\n      0x02\n        /* \"#utility.yul\":7865:7871   */\n      dup9\n        /* \"#utility.yul\":7861:7875   */\n      mul\n        /* \"#utility.yul\":7857:7879   */\n      add\n        /* \"#utility.yul\":7851:7855   */\n      dup9\n        /* \"#utility.yul\":7844:7880   */\n      sstore\n        /* \"#utility.yul\":7279:7890   */\n      pop\n      pop\n      pop\n        /* \"#utility.yul\":7242:8129   */\n    tag_127:\n      pop\n        /* \"#utility.yul\":6832:8135   */\n      pop\n      pop\n      pop\n        /* \"#utility.yul\":6740:8135   */\n      pop\n      pop\n      jump\t// out\n        /* \"week6_practice/New.sol\":72:372  contract Monitor {... */\n    tag_8:\n      dataSize(sub_0)\n      dup1\n      dataOffset(sub_0)\n      0x00\n      codecopy\n      0x00\n      return\n    stop\n\n    sub_0: assembly {\n            /* \"week6_practice/New.sol\":72:372  contract Monitor {... */\n          mstore(0x40, 0x80)\n          callvalue\n          dup1\n          iszero\n          tag_1\n          jumpi\n          0x00\n          dup1\n          revert\n        tag_1:\n          pop\n          jumpi(tag_2, lt(calldatasize, 0x04))\n          shr(0xe0, calldataload(0x00))\n          dup1\n          0x06fdde03\n          eq\n          tag_3\n          jumpi\n          dup1\n          0x967e6e65\n          eq\n          tag_4\n          jumpi\n        tag_2:\n          0x00\n          dup1\n          revert\n            /* \"week6_practice/New.sol\":96:114  string public name */\n        tag_3:\n          tag_5\n          tag_6\n          jump\t// in\n        tag_5:\n          mload(0x40)\n          tag_7\n          swap2\n          swap1\n          tag_8\n          jump\t// in\n        tag_7:\n          mload(0x40)\n          dup1\n          swap2\n          sub\n          swap1\n          return\n            /* \"week6_practice/New.sol\":214:369  function getAge() public view returns(uint){... */\n        tag_4:\n          tag_9\n          tag_10\n          jump\t// in\n        tag_9:\n          mload(0x40)\n          tag_11\n          swap2\n          swap1\n          tag_12\n          jump\t// in\n        tag_11:\n          mload(0x40)\n          dup1\n          swap2\n          sub\n          swap1\n          return\n            /* \"week6_practice/New.sol\":96:114  string public name */\n        tag_6:\n          0x00\n          dup1\n          sload\n          tag_13\n          swap1\n          tag_14\n          jump\t// in\n        tag_13:\n          dup1\n          0x1f\n          add\n          0x20\n          dup1\n          swap2\n          div\n          mul\n          0x20\n          add\n          mload(0x40)\n          swap1\n          dup2\n          add\n          0x40\n          mstore\n          dup1\n          swap3\n          swap2\n          swap1\n          dup2\n          dup2\n          mstore\n          0x20\n          add\n          dup3\n          dup1\n          sload\n          tag_15\n          swap1\n          tag_14\n          jump\t// in\n        tag_15:\n          dup1\n          iszero\n          tag_16\n          jumpi\n          dup1\n          0x1f\n          lt\n          tag_17\n          jumpi\n          0x0100\n          dup1\n          dup4\n          sload\n          div\n          mul\n          dup4\n          mstore\n          swap2\n          0x20\n          add\n          swap2\n          jump(tag_16)\n        tag_17:\n          dup3\n          add\n          swap2\n          swap1\n          0x00\n          mstore\n          keccak256(0x00, 0x20)\n          swap1\n        tag_18:\n          dup2\n          sload\n          dup2\n          mstore\n          swap1\n          0x01\n          add\n          swap1\n          0x20\n          add\n          dup1\n          dup4\n          gt\n          tag_18\n          jumpi\n          dup3\n          swap1\n          sub\n          0x1f\n          and\n          dup3\n          add\n          swap2\n        tag_16:\n          pop\n          pop\n          pop\n          pop\n          pop\n          dup2\n          jump\t// out\n            /* \"week6_practice/New.sol\":214:369  function getAge() public view returns(uint){... */\n        tag_10:\n            /* \"week6_practice/New.sol\":252:256  uint */\n          0x00\n            /* \"week6_practice/New.sol\":275:278  age */\n          sload(0x01)\n            /* \"week6_practice/New.sol\":268:278  return age */\n          swap1\n          pop\n            /* \"week6_practice/New.sol\":214:369  function getAge() public view returns(uint){... */\n          swap1\n          jump\t// out\n            /* \"#utility.yul\":7:106   */\n        tag_20:\n            /* \"#utility.yul\":59:65   */\n          0x00\n            /* \"#utility.yul\":93:98   */\n          dup2\n            /* \"#utility.yul\":87:99   */\n          mload\n            /* \"#utility.yul\":77:99   */\n          swap1\n          pop\n            /* \"#utility.yul\":7:106   */\n          swap2\n          swap1\n          pop\n          jump\t// out\n            /* \"#utility.yul\":112:281   */\n        tag_21:\n            /* \"#utility.yul\":196:207   */\n          0x00\n            /* \"#utility.yul\":230:236   */\n          dup3\n            /* \"#utility.yul\":225:228   */\n          dup3\n            /* \"#utility.yul\":218:237   */\n          mstore\n            /* \"#utility.yul\":270:274   */\n          0x20\n            /* \"#utility.yul\":265:268   */\n          dup3\n            /* \"#utility.yul\":261:275   */\n          add\n            /* \"#utility.yul\":246:275   */\n          swap1\n          pop\n            /* \"#utility.yul\":112:281   */\n          swap3\n          swap2\n          pop\n          pop\n          jump\t// out\n            /* \"#utility.yul\":287:426   */\n        tag_22:\n            /* \"#utility.yul\":376:382   */\n          dup3\n            /* \"#utility.yul\":371:374   */\n          dup2\n            /* \"#utility.yul\":366:369   */\n          dup4\n            /* \"#utility.yul\":360:383   */\n          mcopy\n            /* \"#utility.yul\":417:418   */\n          0x00\n            /* \"#utility.yul\":408:414   */\n          dup4\n            /* \"#utility.yul\":403:406   */\n          dup4\n            /* \"#utility.yul\":399:415   */\n          add\n            /* \"#utility.yul\":392:419   */\n          mstore\n            /* \"#utility.yul\":287:426   */\n          pop\n          pop\n          pop\n          jump\t// out\n            /* \"#utility.yul\":432:534   */\n        tag_23:\n            /* \"#utility.yul\":473:479   */\n          0x00\n            /* \"#utility.yul\":524:526   */\n          0x1f\n            /* \"#utility.yul\":520:527   */\n          not\n            /* \"#utility.yul\":515:517   */\n          0x1f\n            /* \"#utility.yul\":508:513   */\n          dup4\n            /* \"#utility.yul\":504:518   */\n          add\n            /* \"#utility.yul\":500:528   */\n          and\n            /* \"#utility.yul\":490:528   */\n          swap1\n          pop\n            /* \"#utility.yul\":432:534   */\n          swap2\n          swap1\n          pop\n          jump\t// out\n            /* \"#utility.yul\":540:917   */\n        tag_24:\n            /* \"#utility.yul\":628:631   */\n          0x00\n            /* \"#utility.yul\":656:695   */\n          tag_34\n            /* \"#utility.yul\":689:694   */\n          dup3\n            /* \"#utility.yul\":656:695   */\n          tag_20\n          jump\t// in\n        tag_34:\n            /* \"#utility.yul\":711:782   */\n          tag_35\n            /* \"#utility.yul\":775:781   */\n          dup2\n            /* \"#utility.yul\":770:773   */\n          dup6\n            /* \"#utility.yul\":711:782   */\n          tag_21\n          jump\t// in\n        tag_35:\n            /* \"#utility.yul\":704:782   */\n          swap4\n          pop\n            /* \"#utility.yul\":791:856   */\n          tag_36\n            /* \"#utility.yul\":849:855   */\n          dup2\n            /* \"#utility.yul\":844:847   */\n          dup6\n            /* \"#utility.yul\":837:841   */\n          0x20\n            /* \"#utility.yul\":830:835   */\n          dup7\n            /* \"#utility.yul\":826:842   */\n          add\n            /* \"#utility.yul\":791:856   */\n          tag_22\n          jump\t// in\n        tag_36:\n            /* \"#utility.yul\":881:910   */\n          tag_37\n            /* \"#utility.yul\":903:909   */\n          dup2\n            /* \"#utility.yul\":881:910   */\n          tag_23\n          jump\t// in\n        tag_37:\n            /* \"#utility.yul\":876:879   */\n          dup5\n            /* \"#utility.yul\":872:911   */\n          add\n            /* \"#utility.yul\":865:911   */\n          swap2\n          pop\n            /* \"#utility.yul\":632:917   */\n          pop\n            /* \"#utility.yul\":540:917   */\n          swap3\n          swap2\n          pop\n          pop\n          jump\t// out\n            /* \"#utility.yul\":923:1236   */\n        tag_8:\n            /* \"#utility.yul\":1036:1040   */\n          0x00\n            /* \"#utility.yul\":1074:1076   */\n          0x20\n            /* \"#utility.yul\":1063:1072   */\n          dup3\n            /* \"#utility.yul\":1059:1077   */\n          add\n            /* \"#utility.yul\":1051:1077   */\n          swap1\n          pop\n            /* \"#utility.yul\":1123:1132   */\n          dup2\n            /* \"#utility.yul\":1117:1121   */\n          dup2\n            /* \"#utility.yul\":1113:1133   */\n          sub\n            /* \"#utility.yul\":1109:1110   */\n          0x00\n            /* \"#utility.yul\":1098:1107   */\n          dup4\n            /* \"#utility.yul\":1094:1111   */\n          add\n            /* \"#utility.yul\":1087:1134   */\n          mstore\n            /* \"#utility.yul\":1151:1229   */\n          tag_39\n            /* \"#utility.yul\":1224:1228   */\n          dup2\n            /* \"#utility.yul\":1215:1221   */\n          dup5\n            /* \"#utility.yul\":1151:1229   */\n          tag_24\n          jump\t// in\n        tag_39:\n            /* \"#utility.yul\":1143:1229   */\n          swap1\n          pop\n            /* \"#utility.yul\":923:1236   */\n          swap3\n          swap2\n          pop\n          pop\n          jump\t// out\n            /* \"#utility.yul\":1242:1319   */\n        tag_25:\n            /* \"#utility.yul\":1279:1286   */\n          0x00\n            /* \"#utility.yul\":1308:1313   */\n          dup2\n            /* \"#utility.yul\":1297:1313   */\n          swap1\n          pop\n            /* \"#utility.yul\":1242:1319   */\n          swap2\n          swap1\n          pop\n          jump\t// out\n            /* \"#utility.yul\":1325:1443   */\n        tag_26:\n            /* \"#utility.yul\":1412:1436   */\n          tag_42\n            /* \"#utility.yul\":1430:1435   */\n          dup2\n            /* \"#utility.yul\":1412:1436   */\n          tag_25\n          jump\t// in\n        tag_42:\n            /* \"#utility.yul\":1407:1410   */\n          dup3\n            /* \"#utility.yul\":1400:1437   */\n          mstore\n            /* \"#utility.yul\":1325:1443   */\n          pop\n          pop\n          jump\t// out\n            /* \"#utility.yul\":1449:1671   */\n        tag_12:\n            /* \"#utility.yul\":1542:1546   */\n          0x00\n            /* \"#utility.yul\":1580:1582   */\n          0x20\n            /* \"#utility.yul\":1569:1578   */\n          dup3\n            /* \"#utility.yul\":1565:1583   */\n          add\n            /* \"#utility.yul\":1557:1583   */\n          swap1\n          pop\n            /* \"#utility.yul\":1593:1664   */\n          tag_44\n            /* \"#utility.yul\":1661:1662   */\n          0x00\n            /* \"#utility.yul\":1650:1659   */\n          dup4\n            /* \"#utility.yul\":1646:1663   */\n          add\n            /* \"#utility.yul\":1637:1643   */\n          dup5\n            /* \"#utility.yul\":1593:1664   */\n          tag_26\n          jump\t// in\n        tag_44:\n            /* \"#utility.yul\":1449:1671   */\n          swap3\n          swap2\n          pop\n          pop\n          jump\t// out\n            /* \"#utility.yul\":1677:1857   */\n        tag_27:\n            /* \"#utility.yul\":1725:1802   */\n          0x4e487b7100000000000000000000000000000000000000000000000000000000\n            /* \"#utility.yul\":1722:1723   */\n          0x00\n            /* \"#utility.yul\":1715:1803   */\n          mstore\n            /* \"#utility.yul\":1822:1826   */\n          0x22\n            /* \"#utility.yul\":1819:1820   */\n          0x04\n            /* \"#utility.yul\":1812:1827   */\n          mstore\n            /* \"#utility.yul\":1846:1850   */\n          0x24\n            /* \"#utility.yul\":1843:1844   */\n          0x00\n            /* \"#utility.yul\":1836:1851   */\n          revert\n            /* \"#utility.yul\":1863:2183   */\n        tag_14:\n            /* \"#utility.yul\":1907:1913   */\n          0x00\n            /* \"#utility.yul\":1944:1945   */\n          0x02\n            /* \"#utility.yul\":1938:1942   */\n          dup3\n            /* \"#utility.yul\":1934:1946   */\n          div\n            /* \"#utility.yul\":1924:1946   */\n          swap1\n          pop\n            /* \"#utility.yul\":1991:1992   */\n          0x01\n            /* \"#utility.yul\":1985:1989   */\n          dup3\n            /* \"#utility.yul\":1981:1993   */\n          and\n            /* \"#utility.yul\":2012:2030   */\n          dup1\n            /* \"#utility.yul\":2002:2083   */\n          tag_47\n          jumpi\n            /* \"#utility.yul\":2068:2072   */\n          0x7f\n            /* \"#utility.yul\":2060:2066   */\n          dup3\n            /* \"#utility.yul\":2056:2073   */\n          and\n            /* \"#utility.yul\":2046:2073   */\n          swap2\n          pop\n            /* \"#utility.yul\":2002:2083   */\n        tag_47:\n            /* \"#utility.yul\":2130:2132   */\n          0x20\n            /* \"#utility.yul\":2122:2128   */\n          dup3\n            /* \"#utility.yul\":2119:2133   */\n          lt\n            /* \"#utility.yul\":2099:2117   */\n          dup2\n            /* \"#utility.yul\":2096:2134   */\n          sub\n            /* \"#utility.yul\":2093:2177   */\n          tag_48\n          jumpi\n            /* \"#utility.yul\":2149:2167   */\n          tag_49\n          tag_27\n          jump\t// in\n        tag_49:\n            /* \"#utility.yul\":2093:2177   */\n        tag_48:\n            /* \"#utility.yul\":1914:2183   */\n          pop\n            /* \"#utility.yul\":1863:2183   */\n          swap2\n          swap1\n          pop\n          jump\t// out\n\n        auxdata: 0xa26469706673582212208e7d3388cca611a7b0fc27f340fbc2eb679db222b1381c8c79c9144a5820b07e64736f6c634300081a0033\n    }\n}\n",
				"bytecode": {
					"linkReferences": {},
					"object": "608060405234801561000f575f80fd5b5060405161001c90610082565b610025906100e9565b604051809103905ff08015801561003e573d5f803e3d5ffd5b505f806101000a81548173ffffffffffffffffffffffffffffffffffffffff021916908373ffffffffffffffffffffffffffffffffffffffff160217905550610107565b6107248061065283390190565b5f82825260208201905092915050565b7f53616d73756e67000000000000000000000000000000000000000000000000005f82015250565b5f6100d360078361008f565b91506100de8261009f565b602082019050919050565b5f6020820190508181035f830152610100816100c7565b9050919050565b61053e806101145f395ff3fe608060405234801561000f575f80fd5b506004361061003f575f3560e01c80633241992a146100435780636a82b43a14610061578063967e6e651461007f575b5f80fd5b61004b61009d565b6040516100589190610263565b60405180910390f35b6100696100c0565b60405161007691906102ec565b60405180910390f35b610087610156565b6040516100949190610324565b60405180910390f35b5f8054906101000a900473ffffffffffffffffffffffffffffffffffffffff1681565b60605f8054906101000a900473ffffffffffffffffffffffffffffffffffffffff1673ffffffffffffffffffffffffffffffffffffffff166306fdde036040518163ffffffff1660e01b81526004015f60405180830381865afa158015610129573d5f803e3d5ffd5b505050506040513d5f823e3d601f19601f82011682018060405250810190610151919061046c565b905090565b5f805f9054906101000a900473ffffffffffffffffffffffffffffffffffffffff1673ffffffffffffffffffffffffffffffffffffffff1663967e6e656040518163ffffffff1660e01b8152600401602060405180830381865afa1580156101c0573d5f803e3d5ffd5b505050506040513d601f19601f820116820180604052508101906101e491906104dd565b905090565b5f73ffffffffffffffffffffffffffffffffffffffff82169050919050565b5f819050919050565b5f61022b610226610221846101e9565b610208565b6101e9565b9050919050565b5f61023c82610211565b9050919050565b5f61024d82610232565b9050919050565b61025d81610243565b82525050565b5f6020820190506102765f830184610254565b92915050565b5f81519050919050565b5f82825260208201905092915050565b8281835e5f83830152505050565b5f601f19601f8301169050919050565b5f6102be8261027c565b6102c88185610286565b93506102d8818560208601610296565b6102e1816102a4565b840191505092915050565b5f6020820190508181035f83015261030481846102b4565b905092915050565b5f819050919050565b61031e8161030c565b82525050565b5f6020820190506103375f830184610315565b92915050565b5f604051905090565b5f80fd5b5f80fd5b5f80fd5b5f80fd5b7f4e487b71000000000000000000000000000000000000000000000000000000005f52604160045260245ffd5b61038c826102a4565b810181811067ffffffffffffffff821117156103ab576103aa610356565b5b80604052505050565b5f6103bd61033d565b90506103c98282610383565b919050565b5f67ffffffffffffffff8211156103e8576103e7610356565b5b6103f1826102a4565b9050602081019050919050565b5f61041061040b846103ce565b6103b4565b90508281526020810184848401111561042c5761042b610352565b5b610437848285610296565b509392505050565b5f82601f8301126104535761045261034e565b5b81516104638482602086016103fe565b91505092915050565b5f6020828403121561048157610480610346565b5b5f82015167ffffffffffffffff81111561049e5761049d61034a565b5b6104aa8482850161043f565b91505092915050565b6104bc8161030c565b81146104c6575f80fd5b50565b5f815190506104d7816104b3565b92915050565b5f602082840312156104f2576104f1610346565b5b5f6104ff848285016104c9565b9150509291505056fea26469706673582212205866df7530db220d451d6d943eea41a353ba45616a555c995ed31d3645aaa25164736f6c634300081a00336080604052600a600155348015610014575f80fd5b5060405161072438038061072483398181016040528101906100369190610198565b805f908161004491906103ec565b50506104bb565b5f604051905090565b5f80fd5b5f80fd5b5f80fd5b5f80fd5b5f601f19601f8301169050919050565b7f4e487b71000000000000000000000000000000000000000000000000000000005f52604160045260245ffd5b6100aa82610064565b810181811067ffffffffffffffff821117156100c9576100c8610074565b5b80604052505050565b5f6100db61004b565b90506100e782826100a1565b919050565b5f67ffffffffffffffff82111561010657610105610074565b5b61010f82610064565b9050602081019050919050565b8281835e5f83830152505050565b5f61013c610137846100ec565b6100d2565b90508281526020810184848401111561015857610157610060565b5b61016384828561011c565b509392505050565b5f82601f83011261017f5761017e61005c565b5b815161018f84826020860161012a565b91505092915050565b5f602082840312156101ad576101ac610054565b5b5f82015167ffffffffffffffff8111156101ca576101c9610058565b5b6101d68482850161016b565b91505092915050565b5f81519050919050565b7f4e487b71000000000000000000000000000000000000000000000000000000005f52602260045260245ffd5b5f600282049050600182168061022d57607f821691505b6020821081036102405761023f6101e9565b5b50919050565b5f819050815f5260205f209050919050565b5f6020601f8301049050919050565b5f82821b905092915050565b5f600883026102a27fffffffffffffffffffffffffffffffffffffffffffffffffffffffffffffffff82610267565b6102ac8683610267565b95508019841693508086168417925050509392505050565b5f819050919050565b5f819050919050565b5f6102f06102eb6102e6846102c4565b6102cd565b6102c4565b9050919050565b5f819050919050565b610309836102d6565b61031d610315826102f7565b848454610273565b825550505050565b5f90565b610331610325565b61033c818484610300565b505050565b5b8181101561035f576103545f82610329565b600181019050610342565b5050565b601f8211156103a45761037581610246565b61037e84610258565b8101602085101561038d578190505b6103a161039985610258565b830182610341565b50505b505050565b5f82821c905092915050565b5f6103c45f19846008026103a9565b1980831691505092915050565b5f6103dc83836103b5565b9150826002028217905092915050565b6103f5826101df565b67ffffffffffffffff81111561040e5761040d610074565b5b6104188254610216565b610423828285610363565b5f60209050601f831160018114610454575f8415610442578287015190505b61044c85826103d1565b8655506104b3565b601f19841661046286610246565b5f5b8281101561048957848901518255600182019150602085019450602081019050610464565b868310156104a657848901516104a2601f8916826103b5565b8355505b6001600288020188555050505b505050505050565b61025c806104c85f395ff3fe608060405234801561000f575f80fd5b5060043610610034575f3560e01c806306fdde0314610038578063967e6e6514610056575b5f80fd5b610040610074565b60405161004d9190610178565b60405180910390f35b61005e6100ff565b60405161006b91906101b0565b60405180910390f35b5f8054610080906101f6565b80601f01602080910402602001604051908101604052809291908181526020018280546100ac906101f6565b80156100f75780601f106100ce576101008083540402835291602001916100f7565b820191905f5260205f20905b8154815290600101906020018083116100da57829003601f168201915b505050505081565b5f600154905090565b5f81519050919050565b5f82825260208201905092915050565b8281835e5f83830152505050565b5f601f19601f8301169050919050565b5f61014a82610108565b6101548185610112565b9350610164818560208601610122565b61016d81610130565b840191505092915050565b5f6020820190508181035f8301526101908184610140565b905092915050565b5f819050919050565b6101aa81610198565b82525050565b5f6020820190506101c35f8301846101a1565b92915050565b7f4e487b71000000000000000000000000000000000000000000000000000000005f52602260045260245ffd5b5f600282049050600182168061020d57607f821691505b6020821081036102205761021f6101c9565b5b5091905056fea26469706673582212208e7d3388cca611a7b0fc27f340fbc2eb679db222b1381c8c79c9144a5820b07e64736f6c634300081a0033",
					"opcodes": "PUSH1 0x80 PUSH1 0x40 MSTORE CALLVALUE DUP1 ISZERO PUSH2 0xF JUMPI PUSH0 DUP1 REVERT JUMPDEST POP PUSH1 0x40 MLOAD PUSH2 0x1C SWAP1 PUSH2 0x82 JUMP JUMPDEST PUSH2 0x25 SWAP1 PUSH2 0xE9 JUMP JUMPDEST PUSH1 0x40 MLOAD DUP1 SWAP2 SUB SWAP1 PUSH0 CREATE DUP1 ISZERO DUP1 ISZERO PUSH2 0x3E JUMPI RETURNDATASIZE PUSH0 DUP1 RETURNDATACOPY RETURNDATASIZE PUSH0 REVERT JUMPDEST POP PUSH0 DUP1 PUSH2 0x100 EXP DUP2 SLOAD DUP2 PUSH20 0xFFFFFFFFFFFFFFFFFFFFFFFFFFFFFFFFFFFFFFFF MUL NOT AND SWAP1 DUP4 PUSH20 0xFFFFFFFFFFFFFFFFFFFFFFFFFFFFFFFFFFFFFFFF AND MUL OR SWAP1 SSTORE POP PUSH2 0x107 JUMP JUMPDEST PUSH2 0x724 DUP1 PUSH2 0x652 DUP4 CODECOPY ADD SWAP1 JUMP JUMPDEST PUSH0 DUP3 DUP3 MSTORE PUSH1 0x20 DUP3 ADD SWAP1 POP SWAP3 SWAP2 POP POP JUMP JUMPDEST PUSH32 0x53616D73756E6700000000000000000000000000000000000000000000000000 PUSH0 DUP3 ADD MSTORE POP JUMP JUMPDEST PUSH0 PUSH2 0xD3 PUSH1 0x7 DUP4 PUSH2 0x8F JUMP JUMPDEST SWAP2 POP PUSH2 0xDE DUP3 PUSH2 0x9F JUMP JUMPDEST PUSH1 0x20 DUP3 ADD SWAP1 POP SWAP2 SWAP1 POP JUMP JUMPDEST PUSH0 PUSH1 0x20 DUP3 ADD SWAP1 POP DUP2 DUP2 SUB PUSH0 DUP4 ADD MSTORE PUSH2 0x100 DUP2 PUSH2 0xC7 JUMP JUMPDEST SWAP1 POP SWAP2 SWAP1 POP JUMP JUMPDEST PUSH2 0x53E DUP1 PUSH2 0x114 PUSH0 CODECOPY PUSH0 RETURN INVALID PUSH1 0x80 PUSH1 0x40 MSTORE CALLVALUE DUP1 ISZERO PUSH2 0xF JUMPI PUSH0 DUP1 REVERT JUMPDEST POP PUSH1 0x4 CALLDATASIZE LT PUSH2 0x3F JUMPI PUSH0 CALLDATALOAD PUSH1 0xE0 SHR DUP1 PUSH4 0x3241992A EQ PUSH2 0x43 JUMPI DUP1 PUSH4 0x6A82B43A EQ PUSH2 0x61 JUMPI DUP1 PUSH4 0x967E6E65 EQ PUSH2 0x7F JUMPI JUMPDEST PUSH0 DUP1 REVERT JUMPDEST PUSH2 0x4B PUSH2 0x9D JUMP JUMPDEST PUSH1 0x40 MLOAD PUSH2 0x58 SWAP2 SWAP1 PUSH2 0x263 JUMP JUMPDEST PUSH1 0x40 MLOAD DUP1 SWAP2 SUB SWAP1 RETURN JUMPDEST PUSH2 0x69 PUSH2 0xC0 JUMP JUMPDEST PUSH1 0x40 MLOAD PUSH2 0x76 SWAP2 SWAP1 PUSH2 0x2EC JUMP JUMPDEST PUSH1 0x40 MLOAD DUP1 SWAP2 SUB SWAP1 RETURN JUMPDEST PUSH2 0x87 PUSH2 0x156 JUMP JUMPDEST PUSH1 0x40 MLOAD PUSH2 0x94 SWAP2 SWAP1 PUSH2 0x324 JUMP JUMPDEST PUSH1 0x40 MLOAD DUP1 SWAP2 SUB SWAP1 RETURN JUMPDEST PUSH0 DUP1 SLOAD SWAP1 PUSH2 0x100 EXP SWAP1 DIV PUSH20 0xFFFFFFFFFFFFFFFFFFFFFFFFFFFFFFFFFFFFFFFF AND DUP2 JUMP JUMPDEST PUSH1 0x60 PUSH0 DUP1 SLOAD SWAP1 PUSH2 0x100 EXP SWAP1 DIV PUSH20 0xFFFFFFFFFFFFFFFFFFFFFFFFFFFFFFFFFFFFFFFF AND PUSH20 0xFFFFFFFFFFFFFFFFFFFFFFFFFFFFFFFFFFFFFFFF AND PUSH4 0x6FDDE03 PUSH1 0x40 MLOAD DUP2 PUSH4 0xFFFFFFFF AND PUSH1 0xE0 SHL DUP2 MSTORE PUSH1 0x4 ADD PUSH0 PUSH1 0x40 MLOAD DUP1 DUP4 SUB DUP2 DUP7 GAS STATICCALL ISZERO DUP1 ISZERO PUSH2 0x129 JUMPI RETURNDATASIZE PUSH0 DUP1 RETURNDATACOPY RETURNDATASIZE PUSH0 REVERT JUMPDEST POP POP POP POP PUSH1 0x40 MLOAD RETURNDATASIZE PUSH0 DUP3 RETURNDATACOPY RETURNDATASIZE PUSH1 0x1F NOT PUSH1 0x1F DUP3 ADD AND DUP3 ADD DUP1 PUSH1 0x40 MSTORE POP DUP2 ADD SWAP1 PUSH2 0x151 SWAP2 SWAP1 PUSH2 0x46C JUMP JUMPDEST SWAP1 POP SWAP1 JUMP JUMPDEST PUSH0 DUP1 PUSH0 SWAP1 SLOAD SWAP1 PUSH2 0x100 EXP SWAP1 DIV PUSH20 0xFFFFFFFFFFFFFFFFFFFFFFFFFFFFFFFFFFFFFFFF AND PUSH20 0xFFFFFFFFFFFFFFFFFFFFFFFFFFFFFFFFFFFFFFFF AND PUSH4 0x967E6E65 PUSH1 0x40 MLOAD DUP2 PUSH4 0xFFFFFFFF AND PUSH1 0xE0 SHL DUP2 MSTORE PUSH1 0x4 ADD PUSH1 0x20 PUSH1 0x40 MLOAD DUP1 DUP4 SUB DUP2 DUP7 GAS STATICCALL ISZERO DUP1 ISZERO PUSH2 0x1C0 JUMPI RETURNDATASIZE PUSH0 DUP1 RETURNDATACOPY RETURNDATASIZE PUSH0 REVERT JUMPDEST POP POP POP POP PUSH1 0x40 MLOAD RETURNDATASIZE PUSH1 0x1F NOT PUSH1 0x1F DUP3 ADD AND DUP3 ADD DUP1 PUSH1 0x40 MSTORE POP DUP2 ADD SWAP1 PUSH2 0x1E4 SWAP2 SWAP1 PUSH2 0x4DD JUMP JUMPDEST SWAP1 POP SWAP1 JUMP JUMPDEST PUSH0 PUSH20 0xFFFFFFFFFFFFFFFFFFFFFFFFFFFFFFFFFFFFFFFF DUP3 AND SWAP1 POP SWAP2 SWAP1 POP JUMP JUMPDEST PUSH0 DUP2 SWAP1 POP SWAP2 SWAP1 POP JUMP JUMPDEST PUSH0 PUSH2 0x22B PUSH2 0x226 PUSH2 0x221 DUP5 PUSH2 0x1E9 JUMP JUMPDEST PUSH2 0x208 JUMP JUMPDEST PUSH2 0x1E9 JUMP JUMPDEST SWAP1 POP SWAP2 SWAP1 POP JUMP JUMPDEST PUSH0 PUSH2 0x23C DUP3 PUSH2 0x211 JUMP JUMPDEST SWAP1 POP SWAP2 SWAP1 POP JUMP JUMPDEST PUSH0 PUSH2 0x24D DUP3 PUSH2 0x232 JUMP JUMPDEST SWAP1 POP SWAP2 SWAP1 POP JUMP JUMPDEST PUSH2 0x25D DUP2 PUSH2 0x243 JUMP JUMPDEST DUP3 MSTORE POP POP JUMP JUMPDEST PUSH0 PUSH1 0x20 DUP3 ADD SWAP1 POP PUSH2 0x276 PUSH0 DUP4 ADD DUP5 PUSH2 0x254 JUMP JUMPDEST SWAP3 SWAP2 POP POP JUMP JUMPDEST PUSH0 DUP2 MLOAD SWAP1 POP SWAP2 SWAP1 POP JUMP JUMPDEST PUSH0 DUP3 DUP3 MSTORE PUSH1 0x20 DUP3 ADD SWAP1 POP SWAP3 SWAP2 POP POP JUMP JUMPDEST DUP3 DUP2 DUP4 MCOPY PUSH0 DUP4 DUP4 ADD MSTORE POP POP POP JUMP JUMPDEST PUSH0 PUSH1 0x1F NOT PUSH1 0x1F DUP4 ADD AND SWAP1 POP SWAP2 SWAP1 POP JUMP JUMPDEST PUSH0 PUSH2 0x2BE DUP3 PUSH2 0x27C JUMP JUMPDEST PUSH2 0x2C8 DUP2 DUP6 PUSH2 0x286 JUMP JUMPDEST SWAP4 POP PUSH2 0x2D8 DUP2 DUP6 PUSH1 0x20 DUP7 ADD PUSH2 0x296 JUMP JUMPDEST PUSH2 0x2E1 DUP2 PUSH2 0x2A4 JUMP JUMPDEST DUP5 ADD SWAP2 POP POP SWAP3 SWAP2 POP POP JUMP JUMPDEST PUSH0 PUSH1 0x20 DUP3 ADD SWAP1 POP DUP2 DUP2 SUB PUSH0 DUP4 ADD MSTORE PUSH2 0x304 DUP2 DUP5 PUSH2 0x2B4 JUMP JUMPDEST SWAP1 POP SWAP3 SWAP2 POP POP JUMP JUMPDEST PUSH0 DUP2 SWAP1 POP SWAP2 SWAP1 POP JUMP JUMPDEST PUSH2 0x31E DUP2 PUSH2 0x30C JUMP JUMPDEST DUP3 MSTORE POP POP JUMP JUMPDEST PUSH0 PUSH1 0x20 DUP3 ADD SWAP1 POP PUSH2 0x337 PUSH0 DUP4 ADD DUP5 PUSH2 0x315 JUMP JUMPDEST SWAP3 SWAP2 POP POP JUMP JUMPDEST PUSH0 PUSH1 0x40 MLOAD SWAP1 POP SWAP1 JUMP JUMPDEST PUSH0 DUP1 REVERT JUMPDEST PUSH0 DUP1 REVERT JUMPDEST PUSH0 DUP1 REVERT JUMPDEST PUSH0 DUP1 REVERT JUMPDEST PUSH32 0x4E487B7100000000000000000000000000000000000000000000000000000000 PUSH0 MSTORE PUSH1 0x41 PUSH1 0x4 MSTORE PUSH1 0x24 PUSH0 REVERT JUMPDEST PUSH2 0x38C DUP3 PUSH2 0x2A4 JUMP JUMPDEST DUP2 ADD DUP2 DUP2 LT PUSH8 0xFFFFFFFFFFFFFFFF DUP3 GT OR ISZERO PUSH2 0x3AB JUMPI PUSH2 0x3AA PUSH2 0x356 JUMP JUMPDEST JUMPDEST DUP1 PUSH1 0x40 MSTORE POP POP POP JUMP JUMPDEST PUSH0 PUSH2 0x3BD PUSH2 0x33D JUMP JUMPDEST SWAP1 POP PUSH2 0x3C9 DUP3 DUP3 PUSH2 0x383 JUMP JUMPDEST SWAP2 SWAP1 POP JUMP JUMPDEST PUSH0 PUSH8 0xFFFFFFFFFFFFFFFF DUP3 GT ISZERO PUSH2 0x3E8 JUMPI PUSH2 0x3E7 PUSH2 0x356 JUMP JUMPDEST JUMPDEST PUSH2 0x3F1 DUP3 PUSH2 0x2A4 JUMP JUMPDEST SWAP1 POP PUSH1 0x20 DUP2 ADD SWAP1 POP SWAP2 SWAP1 POP JUMP JUMPDEST PUSH0 PUSH2 0x410 PUSH2 0x40B DUP5 PUSH2 0x3CE JUMP JUMPDEST PUSH2 0x3B4 JUMP JUMPDEST SWAP1 POP DUP3 DUP2 MSTORE PUSH1 0x20 DUP2 ADD DUP5 DUP5 DUP5 ADD GT ISZERO PUSH2 0x42C JUMPI PUSH2 0x42B PUSH2 0x352 JUMP JUMPDEST JUMPDEST PUSH2 0x437 DUP5 DUP3 DUP6 PUSH2 0x296 JUMP JUMPDEST POP SWAP4 SWAP3 POP POP POP JUMP JUMPDEST PUSH0 DUP3 PUSH1 0x1F DUP4 ADD SLT PUSH2 0x453 JUMPI PUSH2 0x452 PUSH2 0x34E JUMP JUMPDEST JUMPDEST DUP2 MLOAD PUSH2 0x463 DUP5 DUP3 PUSH1 0x20 DUP7 ADD PUSH2 0x3FE JUMP JUMPDEST SWAP2 POP POP SWAP3 SWAP2 POP POP JUMP JUMPDEST PUSH0 PUSH1 0x20 DUP3 DUP5 SUB SLT ISZERO PUSH2 0x481 JUMPI PUSH2 0x480 PUSH2 0x346 JUMP JUMPDEST JUMPDEST PUSH0 DUP3 ADD MLOAD PUSH8 0xFFFFFFFFFFFFFFFF DUP2 GT ISZERO PUSH2 0x49E JUMPI PUSH2 0x49D PUSH2 0x34A JUMP JUMPDEST JUMPDEST PUSH2 0x4AA DUP5 DUP3 DUP6 ADD PUSH2 0x43F JUMP JUMPDEST SWAP2 POP POP SWAP3 SWAP2 POP POP JUMP JUMPDEST PUSH2 0x4BC DUP2 PUSH2 0x30C JUMP JUMPDEST DUP2 EQ PUSH2 0x4C6 JUMPI PUSH0 DUP1 REVERT JUMPDEST POP JUMP JUMPDEST PUSH0 DUP2 MLOAD SWAP1 POP PUSH2 0x4D7 DUP2 PUSH2 0x4B3 JUMP JUMPDEST SWAP3 SWAP2 POP POP JUMP JUMPDEST PUSH0 PUSH1 0x20 DUP3 DUP5 SUB SLT ISZERO PUSH2 0x4F2 JUMPI PUSH2 0x4F1 PUSH2 0x346 JUMP JUMPDEST JUMPDEST PUSH0 PUSH2 0x4FF DUP5 DUP3 DUP6 ADD PUSH2 0x4C9 JUMP JUMPDEST SWAP2 POP POP SWAP3 SWAP2 POP POP JUMP INVALID LOG2 PUSH5 0x6970667358 0x22 SLT KECCAK256 PC PUSH7 0xDF7530DB220D45 SAR PUSH14 0x943EEA41A353BA45616A555C995E 0xD3 SAR CALLDATASIZE GASLIMIT 0xAA LOG2 MLOAD PUSH5 0x736F6C6343 STOP ADDMOD BYTE STOP CALLER PUSH1 0x80 PUSH1 0x40 MSTORE PUSH1 0xA PUSH1 0x1 SSTORE CALLVALUE DUP1 ISZERO PUSH2 0x14 JUMPI PUSH0 DUP1 REVERT JUMPDEST POP PUSH1 0x40 MLOAD PUSH2 0x724 CODESIZE SUB DUP1 PUSH2 0x724 DUP4 CODECOPY DUP2 DUP2 ADD PUSH1 0x40 MSTORE DUP2 ADD SWAP1 PUSH2 0x36 SWAP2 SWAP1 PUSH2 0x198 JUMP JUMPDEST DUP1 PUSH0 SWAP1 DUP2 PUSH2 0x44 SWAP2 SWAP1 PUSH2 0x3EC JUMP JUMPDEST POP POP PUSH2 0x4BB JUMP JUMPDEST PUSH0 PUSH1 0x40 MLOAD SWAP1 POP SWAP1 JUMP JUMPDEST PUSH0 DUP1 REVERT JUMPDEST PUSH0 DUP1 REVERT JUMPDEST PUSH0 DUP1 REVERT JUMPDEST PUSH0 DUP1 REVERT JUMPDEST PUSH0 PUSH1 0x1F NOT PUSH1 0x1F DUP4 ADD AND SWAP1 POP SWAP2 SWAP1 POP JUMP JUMPDEST PUSH32 0x4E487B7100000000000000000000000000000000000000000000000000000000 PUSH0 MSTORE PUSH1 0x41 PUSH1 0x4 MSTORE PUSH1 0x24 PUSH0 REVERT JUMPDEST PUSH2 0xAA DUP3 PUSH2 0x64 JUMP JUMPDEST DUP2 ADD DUP2 DUP2 LT PUSH8 0xFFFFFFFFFFFFFFFF DUP3 GT OR ISZERO PUSH2 0xC9 JUMPI PUSH2 0xC8 PUSH2 0x74 JUMP JUMPDEST JUMPDEST DUP1 PUSH1 0x40 MSTORE POP POP POP JUMP JUMPDEST PUSH0 PUSH2 0xDB PUSH2 0x4B JUMP JUMPDEST SWAP1 POP PUSH2 0xE7 DUP3 DUP3 PUSH2 0xA1 JUMP JUMPDEST SWAP2 SWAP1 POP JUMP JUMPDEST PUSH0 PUSH8 0xFFFFFFFFFFFFFFFF DUP3 GT ISZERO PUSH2 0x106 JUMPI PUSH2 0x105 PUSH2 0x74 JUMP JUMPDEST JUMPDEST PUSH2 0x10F DUP3 PUSH2 0x64 JUMP JUMPDEST SWAP1 POP PUSH1 0x20 DUP2 ADD SWAP1 POP SWAP2 SWAP1 POP JUMP JUMPDEST DUP3 DUP2 DUP4 MCOPY PUSH0 DUP4 DUP4 ADD MSTORE POP POP POP JUMP JUMPDEST PUSH0 PUSH2 0x13C PUSH2 0x137 DUP5 PUSH2 0xEC JUMP JUMPDEST PUSH2 0xD2 JUMP JUMPDEST SWAP1 POP DUP3 DUP2 MSTORE PUSH1 0x20 DUP2 ADD DUP5 DUP5 DUP5 ADD GT ISZERO PUSH2 0x158 JUMPI PUSH2 0x157 PUSH2 0x60 JUMP JUMPDEST JUMPDEST PUSH2 0x163 DUP5 DUP3 DUP6 PUSH2 0x11C JUMP JUMPDEST POP SWAP4 SWAP3 POP POP POP JUMP JUMPDEST PUSH0 DUP3 PUSH1 0x1F DUP4 ADD SLT PUSH2 0x17F JUMPI PUSH2 0x17E PUSH2 0x5C JUMP JUMPDEST JUMPDEST DUP2 MLOAD PUSH2 0x18F DUP5 DUP3 PUSH1 0x20 DUP7 ADD PUSH2 0x12A JUMP JUMPDEST SWAP2 POP POP SWAP3 SWAP2 POP POP JUMP JUMPDEST PUSH0 PUSH1 0x20 DUP3 DUP5 SUB SLT ISZERO PUSH2 0x1AD JUMPI PUSH2 0x1AC PUSH2 0x54 JUMP JUMPDEST JUMPDEST PUSH0 DUP3 ADD MLOAD PUSH8 0xFFFFFFFFFFFFFFFF DUP2 GT ISZERO PUSH2 0x1CA JUMPI PUSH2 0x1C9 PUSH2 0x58 JUMP JUMPDEST JUMPDEST PUSH2 0x1D6 DUP5 DUP3 DUP6 ADD PUSH2 0x16B JUMP JUMPDEST SWAP2 POP POP SWAP3 SWAP2 POP POP JUMP JUMPDEST PUSH0 DUP2 MLOAD SWAP1 POP SWAP2 SWAP1 POP JUMP JUMPDEST PUSH32 0x4E487B7100000000000000000000000000000000000000000000000000000000 PUSH0 MSTORE PUSH1 0x22 PUSH1 0x4 MSTORE PUSH1 0x24 PUSH0 REVERT JUMPDEST PUSH0 PUSH1 0x2 DUP3 DIV SWAP1 POP PUSH1 0x1 DUP3 AND DUP1 PUSH2 0x22D JUMPI PUSH1 0x7F DUP3 AND SWAP2 POP JUMPDEST PUSH1 0x20 DUP3 LT DUP2 SUB PUSH2 0x240 JUMPI PUSH2 0x23F PUSH2 0x1E9 JUMP JUMPDEST JUMPDEST POP SWAP2 SWAP1 POP JUMP JUMPDEST PUSH0 DUP2 SWAP1 POP DUP2 PUSH0 MSTORE PUSH1 0x20 PUSH0 KECCAK256 SWAP1 POP SWAP2 SWAP1 POP JUMP JUMPDEST PUSH0 PUSH1 0x20 PUSH1 0x1F DUP4 ADD DIV SWAP1 POP SWAP2 SWAP1 POP JUMP JUMPDEST PUSH0 DUP3 DUP3 SHL SWAP1 POP SWAP3 SWAP2 POP POP JUMP JUMPDEST PUSH0 PUSH1 0x8 DUP4 MUL PUSH2 0x2A2 PUSH32 0xFFFFFFFFFFFFFFFFFFFFFFFFFFFFFFFFFFFFFFFFFFFFFFFFFFFFFFFFFFFFFFFF DUP3 PUSH2 0x267 JUMP JUMPDEST PUSH2 0x2AC DUP7 DUP4 PUSH2 0x267 JUMP JUMPDEST SWAP6 POP DUP1 NOT DUP5 AND SWAP4 POP DUP1 DUP7 AND DUP5 OR SWAP3 POP POP POP SWAP4 SWAP3 POP POP POP JUMP JUMPDEST PUSH0 DUP2 SWAP1 POP SWAP2 SWAP1 POP JUMP JUMPDEST PUSH0 DUP2 SWAP1 POP SWAP2 SWAP1 POP JUMP JUMPDEST PUSH0 PUSH2 0x2F0 PUSH2 0x2EB PUSH2 0x2E6 DUP5 PUSH2 0x2C4 JUMP JUMPDEST PUSH2 0x2CD JUMP JUMPDEST PUSH2 0x2C4 JUMP JUMPDEST SWAP1 POP SWAP2 SWAP1 POP JUMP JUMPDEST PUSH0 DUP2 SWAP1 POP SWAP2 SWAP1 POP JUMP JUMPDEST PUSH2 0x309 DUP4 PUSH2 0x2D6 JUMP JUMPDEST PUSH2 0x31D PUSH2 0x315 DUP3 PUSH2 0x2F7 JUMP JUMPDEST DUP5 DUP5 SLOAD PUSH2 0x273 JUMP JUMPDEST DUP3 SSTORE POP POP POP POP JUMP JUMPDEST PUSH0 SWAP1 JUMP JUMPDEST PUSH2 0x331 PUSH2 0x325 JUMP JUMPDEST PUSH2 0x33C DUP2 DUP5 DUP5 PUSH2 0x300 JUMP JUMPDEST POP POP POP JUMP JUMPDEST JUMPDEST DUP2 DUP2 LT ISZERO PUSH2 0x35F JUMPI PUSH2 0x354 PUSH0 DUP3 PUSH2 0x329 JUMP JUMPDEST PUSH1 0x1 DUP2 ADD SWAP1 POP PUSH2 0x342 JUMP JUMPDEST POP POP JUMP JUMPDEST PUSH1 0x1F DUP3 GT ISZERO PUSH2 0x3A4 JUMPI PUSH2 0x375 DUP2 PUSH2 0x246 JUMP JUMPDEST PUSH2 0x37E DUP5 PUSH2 0x258 JUMP JUMPDEST DUP2 ADD PUSH1 0x20 DUP6 LT ISZERO PUSH2 0x38D JUMPI DUP2 SWAP1 POP JUMPDEST PUSH2 0x3A1 PUSH2 0x399 DUP6 PUSH2 0x258 JUMP JUMPDEST DUP4 ADD DUP3 PUSH2 0x341 JUMP JUMPDEST POP POP JUMPDEST POP POP POP JUMP JUMPDEST PUSH0 DUP3 DUP3 SHR SWAP1 POP SWAP3 SWAP2 POP POP JUMP JUMPDEST PUSH0 PUSH2 0x3C4 PUSH0 NOT DUP5 PUSH1 0x8 MUL PUSH2 0x3A9 JUMP JUMPDEST NOT DUP1 DUP4 AND SWAP2 POP POP SWAP3 SWAP2 POP POP JUMP JUMPDEST PUSH0 PUSH2 0x3DC DUP4 DUP4 PUSH2 0x3B5 JUMP JUMPDEST SWAP2 POP DUP3 PUSH1 0x2 MUL DUP3 OR SWAP1 POP SWAP3 SWAP2 POP POP JUMP JUMPDEST PUSH2 0x3F5 DUP3 PUSH2 0x1DF JUMP JUMPDEST PUSH8 0xFFFFFFFFFFFFFFFF DUP2 GT ISZERO PUSH2 0x40E JUMPI PUSH2 0x40D PUSH2 0x74 JUMP JUMPDEST JUMPDEST PUSH2 0x418 DUP3 SLOAD PUSH2 0x216 JUMP JUMPDEST PUSH2 0x423 DUP3 DUP3 DUP6 PUSH2 0x363 JUMP JUMPDEST PUSH0 PUSH1 0x20 SWAP1 POP PUSH1 0x1F DUP4 GT PUSH1 0x1 DUP2 EQ PUSH2 0x454 JUMPI PUSH0 DUP5 ISZERO PUSH2 0x442 JUMPI DUP3 DUP8 ADD MLOAD SWAP1 POP JUMPDEST PUSH2 0x44C DUP6 DUP3 PUSH2 0x3D1 JUMP JUMPDEST DUP7 SSTORE POP PUSH2 0x4B3 JUMP JUMPDEST PUSH1 0x1F NOT DUP5 AND PUSH2 0x462 DUP7 PUSH2 0x246 JUMP JUMPDEST PUSH0 JUMPDEST DUP3 DUP2 LT ISZERO PUSH2 0x489 JUMPI DUP5 DUP10 ADD MLOAD DUP3 SSTORE PUSH1 0x1 DUP3 ADD SWAP2 POP PUSH1 0x20 DUP6 ADD SWAP5 POP PUSH1 0x20 DUP2 ADD SWAP1 POP PUSH2 0x464 JUMP JUMPDEST DUP7 DUP4 LT ISZERO PUSH2 0x4A6 JUMPI DUP5 DUP10 ADD MLOAD PUSH2 0x4A2 PUSH1 0x1F DUP10 AND DUP3 PUSH2 0x3B5 JUMP JUMPDEST DUP4 SSTORE POP JUMPDEST PUSH1 0x1 PUSH1 0x2 DUP9 MUL ADD DUP9 SSTORE POP POP POP JUMPDEST POP POP POP POP POP POP JUMP JUMPDEST PUSH2 0x25C DUP1 PUSH2 0x4C8 PUSH0 CODECOPY PUSH0 RETURN INVALID PUSH1 0x80 PUSH1 0x40 MSTORE CALLVALUE DUP1 ISZERO PUSH2 0xF JUMPI PUSH0 DUP1 REVERT JUMPDEST POP PUSH1 0x4 CALLDATASIZE LT PUSH2 0x34 JUMPI PUSH0 CALLDATALOAD PUSH1 0xE0 SHR DUP1 PUSH4 0x6FDDE03 EQ PUSH2 0x38 JUMPI DUP1 PUSH4 0x967E6E65 EQ PUSH2 0x56 JUMPI JUMPDEST PUSH0 DUP1 REVERT JUMPDEST PUSH2 0x40 PUSH2 0x74 JUMP JUMPDEST PUSH1 0x40 MLOAD PUSH2 0x4D SWAP2 SWAP1 PUSH2 0x178 JUMP JUMPDEST PUSH1 0x40 MLOAD DUP1 SWAP2 SUB SWAP1 RETURN JUMPDEST PUSH2 0x5E PUSH2 0xFF JUMP JUMPDEST PUSH1 0x40 MLOAD PUSH2 0x6B SWAP2 SWAP1 PUSH2 0x1B0 JUMP JUMPDEST PUSH1 0x40 MLOAD DUP1 SWAP2 SUB SWAP1 RETURN JUMPDEST PUSH0 DUP1 SLOAD PUSH2 0x80 SWAP1 PUSH2 0x1F6 JUMP JUMPDEST DUP1 PUSH1 0x1F ADD PUSH1 0x20 DUP1 SWAP2 DIV MUL PUSH1 0x20 ADD PUSH1 0x40 MLOAD SWAP1 DUP2 ADD PUSH1 0x40 MSTORE DUP1 SWAP3 SWAP2 SWAP1 DUP2 DUP2 MSTORE PUSH1 0x20 ADD DUP3 DUP1 SLOAD PUSH2 0xAC SWAP1 PUSH2 0x1F6 JUMP JUMPDEST DUP1 ISZERO PUSH2 0xF7 JUMPI DUP1 PUSH1 0x1F LT PUSH2 0xCE JUMPI PUSH2 0x100 DUP1 DUP4 SLOAD DIV MUL DUP4 MSTORE SWAP2 PUSH1 0x20 ADD SWAP2 PUSH2 0xF7 JUMP JUMPDEST DUP3 ADD SWAP2 SWAP1 PUSH0 MSTORE PUSH1 0x20 PUSH0 KECCAK256 SWAP1 JUMPDEST DUP2 SLOAD DUP2 MSTORE SWAP1 PUSH1 0x1 ADD SWAP1 PUSH1 0x20 ADD DUP1 DUP4 GT PUSH2 0xDA JUMPI DUP3 SWAP1 SUB PUSH1 0x1F AND DUP3 ADD SWAP2 JUMPDEST POP POP POP POP POP DUP2 JUMP JUMPDEST PUSH0 PUSH1 0x1 SLOAD SWAP1 POP SWAP1 JUMP JUMPDEST PUSH0 DUP2 MLOAD SWAP1 POP SWAP2 SWAP1 POP JUMP JUMPDEST PUSH0 DUP3 DUP3 MSTORE PUSH1 0x20 DUP3 ADD SWAP1 POP SWAP3 SWAP2 POP POP JUMP JUMPDEST DUP3 DUP2 DUP4 MCOPY PUSH0 DUP4 DUP4 ADD MSTORE POP POP POP JUMP JUMPDEST PUSH0 PUSH1 0x1F NOT PUSH1 0x1F DUP4 ADD AND SWAP1 POP SWAP2 SWAP1 POP JUMP JUMPDEST PUSH0 PUSH2 0x14A DUP3 PUSH2 0x108 JUMP JUMPDEST PUSH2 0x154 DUP2 DUP6 PUSH2 0x112 JUMP JUMPDEST SWAP4 POP PUSH2 0x164 DUP2 DUP6 PUSH1 0x20 DUP7 ADD PUSH2 0x122 JUMP JUMPDEST PUSH2 0x16D DUP2 PUSH2 0x130 JUMP JUMPDEST DUP5 ADD SWAP2 POP POP SWAP3 SWAP2 POP POP JUMP JUMPDEST PUSH0 PUSH1 0x20 DUP3 ADD SWAP1 POP DUP2 DUP2 SUB PUSH0 DUP4 ADD MSTORE PUSH2 0x190 DUP2 DUP5 PUSH2 0x140 JUMP JUMPDEST SWAP1 POP SWAP3 SWAP2 POP POP JUMP JUMPDEST PUSH0 DUP2 SWAP1 POP SWAP2 SWAP1 POP JUMP JUMPDEST PUSH2 0x1AA DUP2 PUSH2 0x198 JUMP JUMPDEST DUP3 MSTORE POP POP JUMP JUMPDEST PUSH0 PUSH1 0x20 DUP3 ADD SWAP1 POP PUSH2 0x1C3 PUSH0 DUP4 ADD DUP5 PUSH2 0x1A1 JUMP JUMPDEST SWAP3 SWAP2 POP POP JUMP JUMPDEST PUSH32 0x4E487B7100000000000000000000000000000000000000000000000000000000 PUSH0 MSTORE PUSH1 0x22 PUSH1 0x4 MSTORE PUSH1 0x24 PUSH0 REVERT JUMPDEST PUSH0 PUSH1 0x2 DUP3 DIV SWAP1 POP PUSH1 0x1 DUP3 AND DUP1 PUSH2 0x20D JUMPI PUSH1 0x7F DUP3 AND SWAP2 POP JUMPDEST PUSH1 0x20 DUP3 LT DUP2 SUB PUSH2 0x220 JUMPI PUSH2 0x21F PUSH2 0x1C9 JUMP JUMPDEST JUMPDEST POP SWAP2 SWAP1 POP JUMP INVALID LOG2 PUSH5 0x6970667358 0x22 SLT KECCAK256 DUP15 PUSH30 0x3388CCA611A7B0FC27F340FBC2EB679DB222B1381C8C79C9144A5820B07E PUSH5 0x736F6C6343 STOP ADDMOD BYTE STOP CALLER "
				},
				"gasEstimates": {
					"creation": {
						"codeDepositCost": "268400",
						"executionCost": "infinite",
						"totalCost": "infinite"
					},
					"external": {
						"getAge()": "infinite",
						"getMonitor()": "infinite",
						"monitor()": "infinite"
					}
				},
				"methodIdentifiers": {
					"getAge()": "967e6e65",
					"getMonitor()": "6a82b43a",
					"monitor()": "3241992a"
				}
			},
			"storageLayout": {
				"storage": [
					{
						"astId": 28,
						"contract": "week6_practice/New.sol:Computer",
						"label": "monitor",
						"offset": 0,
						"slot": "0",
						"type": "t_contract(Monitor)25"
					}
				],
				"types": {
					"t_contract(Monitor)25": {
						"encoding": "inplace",
						"label": "contract Monitor",
						"numberOfBytes": "20"
					}
				}
			},
			"userdoc": {
				"kind": "user",
				"methods": {},
				"version": 1
			}
		}
	}
}