{
	"data": {
		"bytecode": {
			"linkReferences": {},
			"object": "608060405260035f553480156012575f80fd5b50610107806100205f395ff3fe6080604052348015600e575f80fd5b50600436106030575f3560e01c80630dbe671f146034578063fe3f73a714604e575b5f80fd5b603a6069565b604051604591906097565b60405180910390f35b6054606e565b604051606092919060ae565b60405180910390f35b5f5481565b5f805f600490505f548192509250509091565b5f819050919050565b6091816081565b82525050565b5f60208201905060a85f830184608a565b92915050565b5f60408201905060bf5f830185608a565b60ca6020830184608a565b939250505056fea264697066735822122076e811fc56476168880b44f16919d66f0623411c4679d3cefb65f62ff89c2f7264736f6c634300081a0033",
			"opcodes": "PUSH1 0x80 PUSH1 0x40 MSTORE PUSH1 0x3 PUSH0 SSTORE CALLVALUE DUP1 ISZERO PUSH1 0x12 JUMPI PUSH0 DUP1 REVERT JUMPDEST POP PUSH2 0x107 DUP1 PUSH2 0x20 PUSH0 CODECOPY PUSH0 RETURN INVALID PUSH1 0x80 PUSH1 0x40 MSTORE CALLVALUE DUP1 ISZERO PUSH1 0xE JUMPI PUSH0 DUP1 REVERT JUMPDEST POP PUSH1 0x4 CALLDATASIZE LT PUSH1 0x30 JUMPI PUSH0 CALLDATALOAD PUSH1 0xE0 SHR DUP1 PUSH4 0xDBE671F EQ PUSH1 0x34 JUMPI DUP1 PUSH4 0xFE3F73A7 EQ PUSH1 0x4E JUMPI JUMPDEST PUSH0 DUP1 REVERT JUMPDEST PUSH1 0x3A PUSH1 0x69 JUMP JUMPDEST PUSH1 0x40 MLOAD PUSH1 0x45 SWAP2 SWAP1 PUSH1 0x97 JUMP JUMPDEST PUSH1 0x40 MLOAD DUP1 SWAP2 SUB SWAP1 RETURN JUMPDEST PUSH1 0x54 PUSH1 0x6E JUMP JUMPDEST PUSH1 0x40 MLOAD PUSH1 0x60 SWAP3 SWAP2 SWAP1 PUSH1 0xAE JUMP JUMPDEST PUSH1 0x40 MLOAD DUP1 SWAP2 SUB SWAP1 RETURN JUMPDEST PUSH0 SLOAD DUP2 JUMP JUMPDEST PUSH0 DUP1 PUSH0 PUSH1 0x4 SWAP1 POP PUSH0 SLOAD DUP2 SWAP3 POP SWAP3 POP POP SWAP1 SWAP2 JUMP JUMPDEST PUSH0 DUP2 SWAP1 POP SWAP2 SWAP1 POP JUMP JUMPDEST PUSH1 0x91 DUP2 PUSH1 0x81 JUMP JUMPDEST DUP3 MSTORE POP POP JUMP JUMPDEST PUSH0 PUSH1 0x20 DUP3 ADD SWAP1 POP PUSH1 0xA8 PUSH0 DUP4 ADD DUP5 PUSH1 0x8A JUMP JUMPDEST SWAP3 SWAP2 POP POP JUMP JUMPDEST PUSH0 PUSH1 0x40 DUP3 ADD SWAP1 POP PUSH1 0xBF PUSH0 DUP4 ADD DUP6 PUSH1 0x8A JUMP JUMPDEST PUSH1 0xCA PUSH1 0x20 DUP4 ADD DUP5 PUSH1 0x8A JUMP JUMPDEST SWAP4 SWAP3 POP POP POP JUMP INVALID LOG2 PUSH5 0x6970667358 0x22 SLT KECCAK256 PUSH23 0xE811FC56476168880B44F16919D66F0623411C4679D3CE 0xFB PUSH6 0xF62FF89C2F72 PUSH5 0x736F6C6343 STOP ADDMOD BYTE STOP CALLER "
		},
		"gasEstimates": {
			"creation": {
				"codeDepositCost": "52600",
				"executionCost": "22208",
				"totalCost": "74808"
			},
			"external": {
				"a()": "2402",
				"myFun1()": "infinite"
			}
		},
		"methodIdentifiers": {
			"a()": "0dbe671f",
			"myFun1()": "fe3f73a7"
		}
	},
	"abi": [
		{
			"inputs": [],
			"name": "a",
			"outputs": [
				{
					"internalType": "uint256",
					"name": "",
					"type": "uint256"
				}
			],
			"stateMutability": "view",
			"type": "function"
		},
		{
			"inputs": [],
			"name": "myFun1",
			"outputs": [
				{
					"internalType": "uint256",
					"name": "",
					"type": "uint256"
				},
				{
					"internalType": "uint256",
					"name": "",
					"type": "uint256"
				}
			],
			"stateMutability": "view",
			"type": "function"
		}
	]
}