{
	"data": {
		"bytecode": {
			"linkReferences": {},
			"object": "60806040527ffffffffffffffffffffffffffffffffffffffffffffffffffffffffffffffffe5f553480156031575f80fd5b506101708061003f5f395ff3fe608060405234801561000f575f80fd5b5060043610610034575f3560e01c80637f47769614610038578063cc80f6f314610056575b5f80fd5b610040610074565b60405161004d91906100ad565b60405180910390f35b61005e61008d565b60405161006b91906100ad565b60405180910390f35b5f805f8154610082906100f3565b919050819055905090565b5f8054905090565b5f819050919050565b6100a781610095565b82525050565b5f6020820190506100c05f83018461009e565b92915050565b7f4e487b71000000000000000000000000000000000000000000000000000000005f52601160045260245ffd5b5f6100fd82610095565b91507f8000000000000000000000000000000000000000000000000000000000000000820361012f5761012e6100c6565b5b60018203905091905056fea264697066735822122061e5bc96640b6065d7edee033f590bf92d41168629c38814b48802be54fbdc5664736f6c634300081a0033",
			"opcodes": "PUSH1 0x80 PUSH1 0x40 MSTORE PUSH32 0xFFFFFFFFFFFFFFFFFFFFFFFFFFFFFFFFFFFFFFFFFFFFFFFFFFFFFFFFFFFFFFFE PUSH0 SSTORE CALLVALUE DUP1 ISZERO PUSH1 0x31 JUMPI PUSH0 DUP1 REVERT JUMPDEST POP PUSH2 0x170 DUP1 PUSH2 0x3F PUSH0 CODECOPY PUSH0 RETURN INVALID PUSH1 0x80 PUSH1 0x40 MSTORE CALLVALUE DUP1 ISZERO PUSH2 0xF JUMPI PUSH0 DUP1 REVERT JUMPDEST POP PUSH1 0x4 CALLDATASIZE LT PUSH2 0x34 JUMPI PUSH0 CALLDATALOAD PUSH1 0xE0 SHR DUP1 PUSH4 0x7F477696 EQ PUSH2 0x38 JUMPI DUP1 PUSH4 0xCC80F6F3 EQ PUSH2 0x56 JUMPI JUMPDEST PUSH0 DUP1 REVERT JUMPDEST PUSH2 0x40 PUSH2 0x74 JUMP JUMPDEST PUSH1 0x40 MLOAD PUSH2 0x4D SWAP2 SWAP1 PUSH2 0xAD JUMP JUMPDEST PUSH1 0x40 MLOAD DUP1 SWAP2 SUB SWAP1 RETURN JUMPDEST PUSH2 0x5E PUSH2 0x8D JUMP JUMPDEST PUSH1 0x40 MLOAD PUSH2 0x6B SWAP2 SWAP1 PUSH2 0xAD JUMP JUMPDEST PUSH1 0x40 MLOAD DUP1 SWAP2 SUB SWAP1 RETURN JUMPDEST PUSH0 DUP1 PUSH0 DUP2 SLOAD PUSH2 0x82 SWAP1 PUSH2 0xF3 JUMP JUMPDEST SWAP2 SWAP1 POP DUP2 SWAP1 SSTORE SWAP1 POP SWAP1 JUMP JUMPDEST PUSH0 DUP1 SLOAD SWAP1 POP SWAP1 JUMP JUMPDEST PUSH0 DUP2 SWAP1 POP SWAP2 SWAP1 POP JUMP JUMPDEST PUSH2 0xA7 DUP2 PUSH2 0x95 JUMP JUMPDEST DUP3 MSTORE POP POP JUMP JUMPDEST PUSH0 PUSH1 0x20 DUP3 ADD SWAP1 POP PUSH2 0xC0 PUSH0 DUP4 ADD DUP5 PUSH2 0x9E JUMP JUMPDEST SWAP3 SWAP2 POP POP JUMP JUMPDEST PUSH32 0x4E487B7100000000000000000000000000000000000000000000000000000000 PUSH0 MSTORE PUSH1 0x11 PUSH1 0x4 MSTORE PUSH1 0x24 PUSH0 REVERT JUMPDEST PUSH0 PUSH2 0xFD DUP3 PUSH2 0x95 JUMP JUMPDEST SWAP2 POP PUSH32 0x8000000000000000000000000000000000000000000000000000000000000000 DUP3 SUB PUSH2 0x12F JUMPI PUSH2 0x12E PUSH2 0xC6 JUMP JUMPDEST JUMPDEST PUSH1 0x1 DUP3 SUB SWAP1 POP SWAP2 SWAP1 POP JUMP INVALID LOG2 PUSH5 0x6970667358 0x22 SLT KECCAK256 PUSH2 0xE5BC SWAP7 PUSH5 0xB6065D7ED 0xEE SUB EXTCODEHASH MSIZE SIGNEXTEND 0xF9 0x2D COINBASE AND DUP7 0x29 0xC3 DUP9 EQ 0xB4 DUP9 MUL 0xBE SLOAD 0xFB 0xDC JUMP PUSH5 0x736F6C6343 STOP ADDMOD BYTE STOP CALLER "
		},
		"gasEstimates": {
			"creation": {
				"codeDepositCost": "73600",
				"executionCost": "22226",
				"totalCost": "95826"
			},
			"external": {
				"myfun()": "infinite",
				"show()": "2432"
			}
		},
		"methodIdentifiers": {
			"myfun()": "7f477696",
			"show()": "cc80f6f3"
		}
	},
	"abi": [
		{
			"inputs": [],
			"name": "myfun",
			"outputs": [
				{
					"internalType": "int256",
					"name": "res",
					"type": "int256"
				}
			],
			"stateMutability": "nonpayable",
			"type": "function"
		},
		{
			"inputs": [],
			"name": "show",
			"outputs": [
				{
					"internalType": "int256",
					"name": "res",
					"type": "int256"
				}
			],
			"stateMutability": "view",
			"type": "function"
		}
	]
}