{
  "contractName": "BlindAuction",
  "abi": [
    {
      "inputs": [],
      "stateMutability": "nonpayable",
      "type": "constructor"
    },
    {
      "anonymous": false,
      "inputs": [
        {
          "indexed": false,
          "internalType": "address",
          "name": "winner",
          "type": "address"
        },
        {
          "indexed": false,
          "internalType": "uint256",
          "name": "highestBid",
          "type": "uint256"
        }
      ],
      "name": "AuctionEnded",
      "type": "event"
    },
    {
      "anonymous": false,
      "inputs": [],
      "name": "AuctionInit",
      "type": "event"
    },
    {
      "anonymous": false,
      "inputs": [],
      "name": "BiddingStarted",
      "type": "event"
    },
    {
      "anonymous": false,
      "inputs": [],
      "name": "RevealStarted",
      "type": "event"
    },
    {
      "inputs": [],
      "name": "beneficiary",
      "outputs": [
        {
          "internalType": "address payable",
          "name": "",
          "type": "address"
        }
      ],
      "stateMutability": "view",
      "type": "function",
      "constant": true
    },
    {
      "inputs": [
        {
          "internalType": "address",
          "name": "",
          "type": "address"
        }
      ],
      "name": "bids",
      "outputs": [
        {
          "internalType": "bytes32",
          "name": "blindedBid",
          "type": "bytes32"
        },
        {
          "internalType": "uint256",
          "name": "deposit",
          "type": "uint256"
        }
      ],
      "stateMutability": "view",
      "type": "function",
      "constant": true
    },
    {
      "inputs": [],
      "name": "currentPhase",
      "outputs": [
        {
          "internalType": "enum BlindAuction.Phase",
          "name": "",
          "type": "uint8"
        }
      ],
      "stateMutability": "view",
      "type": "function",
      "constant": true
    },
    {
      "inputs": [],
      "name": "highestBid",
      "outputs": [
        {
          "internalType": "uint256",
          "name": "",
          "type": "uint256"
        }
      ],
      "stateMutability": "view",
      "type": "function",
      "constant": true
    },
    {
      "inputs": [],
      "name": "highestBidder",
      "outputs": [
        {
          "internalType": "address",
          "name": "",
          "type": "address"
        }
      ],
      "stateMutability": "view",
      "type": "function",
      "constant": true
    },
    {
      "inputs": [],
      "name": "advancePhase",
      "outputs": [],
      "stateMutability": "nonpayable",
      "type": "function"
    },
    {
      "inputs": [
        {
          "internalType": "bytes32",
          "name": "blindBid",
          "type": "bytes32"
        }
      ],
      "name": "bid",
      "outputs": [],
      "stateMutability": "payable",
      "type": "function",
      "payable": true
    },
    {
      "inputs": [
        {
          "internalType": "uint256",
          "name": "value",
          "type": "uint256"
        },
        {
          "internalType": "bytes32",
          "name": "secret",
          "type": "bytes32"
        }
      ],
      "name": "reveal",
      "outputs": [],
      "stateMutability": "payable",
      "type": "function",
      "payable": true
    },
    {
      "inputs": [],
      "name": "withdraw",
      "outputs": [],
      "stateMutability": "nonpayable",
      "type": "function"
    },
    {
      "inputs": [],
      "name": "auctionEnd",
      "outputs": [],
      "stateMutability": "nonpayable",
      "type": "function"
    }
  ],
  "bytecode": "0x608060405260008060006101000a81548160ff02191690836003811115610029576100286100b2565b5b0217905550600060025534801561003f57600080fd5b5033600060016101000a81548173ffffffffffffffffffffffffffffffffffffffff021916908373ffffffffffffffffffffffffffffffffffffffff1602179055507f8ad2842071cb64589c8e006941bc20b615aae08a93530e211ca7c9639bd26d9760405160405180910390a16100e1565b7f4e487b7100000000000000000000000000000000000000000000000000000000600052602160045260246000fd5b61196e806100f06000396000f3fe6080604052600436106100915760003560e01c806362ea82db1161005957806362ea82db1461013657806391f9015714610174578063957bb1e01461019f578063be25a718146101bb578063d57bde79146101d257610091565b8063055ad42e146100965780632a24f46c146100c157806338af3eed146100d85780633ccfd60b146101035780634036778f1461011a575b600080fd5b3480156100a257600080fd5b506100ab6101fd565b6040516100b891906110c1565b60405180910390f35b3480156100cd57600080fd5b506100d661020e565b005b3480156100e457600080fd5b506100ed6104db565b6040516100fa919061111d565b60405180910390f35b34801561010f57600080fd5b50610118610501565b005b610134600480360381019061012f91906111a9565b610726565b005b34801561014257600080fd5b5061015d60048036038101906101589190611227565b610b56565b60405161016b929190611272565b60405180910390f35b34801561018057600080fd5b50610189610b7a565b60405161019691906112aa565b60405180910390f35b6101b960048036038101906101b491906112c5565b610ba0565b005b3480156101c757600080fd5b506101d0610d63565b005b3480156101de57600080fd5b506101e7611044565b6040516101f491906112f2565b60405180910390f35b60008054906101000a900460ff1681565b600060019054906101000a900473ffffffffffffffffffffffffffffffffffffffff1673ffffffffffffffffffffffffffffffffffffffff163373ffffffffffffffffffffffffffffffffffffffff161461026857600080fd5b60038081111561027b5761027a61104a565b5b60008054906101000a900460ff16600381111561029b5761029a61104a565b5b146102db576040517f08c379a00000000000000000000000000000000000000000000000000000000081526004016102d29061136a565b60405180910390fd5b600060019054906101000a900473ffffffffffffffffffffffffffffffffffffffff1673ffffffffffffffffffffffffffffffffffffffff166108fc670de0b6b3a764000060025461032d91906113b9565b9081150290604051600060405180830381858888f19350505050158015610358573d6000803e3d6000fd5b507fdaec4582d5d9595688c8c98545fdd1c696d41c6aeaeb636737e84ed2f5c00eda600160009054906101000a900473ffffffffffffffffffffffffffffffffffffffff166002546040516103ae9291906113fb565b60405180910390a160046000600160009054906101000a900473ffffffffffffffffffffffffffffffffffffffff1673ffffffffffffffffffffffffffffffffffffffff1673ffffffffffffffffffffffffffffffffffffffff1681526020019081526020016000206000905560036000600160009054906101000a900473ffffffffffffffffffffffffffffffffffffffff1673ffffffffffffffffffffffffffffffffffffffff1673ffffffffffffffffffffffffffffffffffffffff1681526020019081526020016000206000808201600090556001820160009055505060006002819055506000600160006101000a81548173ffffffffffffffffffffffffffffffffffffffff021916908373ffffffffffffffffffffffffffffffffffffffff160217905550565b600060019054906101000a900473ffffffffffffffffffffffffffffffffffffffff1681565b6003808111156105145761051361104a565b5b60008054906101000a900460ff1660038111156105345761053361104a565b5b14610574576040517f08c379a000000000000000000000000000000000000000000000000000000000815260040161056b90611470565b60405180910390fd5b6000600460003373ffffffffffffffffffffffffffffffffffffffff1673ffffffffffffffffffffffffffffffffffffffff16815260200190815260200160002054116105f6576040517f08c379a00000000000000000000000000000000000000000000000000000000081526004016105ed906114dc565b60405180910390fd5b3373ffffffffffffffffffffffffffffffffffffffff166108fc670de0b6b3a7640000600460003373ffffffffffffffffffffffffffffffffffffffff1673ffffffffffffffffffffffffffffffffffffffff1681526020019081526020016000205461066391906113b9565b9081150290604051600060405180830381858888f1935050505015801561068e573d6000803e3d6000fd5b50600460003373ffffffffffffffffffffffffffffffffffffffff1673ffffffffffffffffffffffffffffffffffffffff16815260200190815260200160002060009055600360003373ffffffffffffffffffffffffffffffffffffffff1673ffffffffffffffffffffffffffffffffffffffff16815260200190815260200160002060008082016000905560018201600090555050565b6002600381111561073a5761073961104a565b5b60008054906101000a900460ff16600381111561075a5761075961104a565b5b1461079a576040517f08c379a00000000000000000000000000000000000000000000000000000000081526004016107919061136a565b60405180910390fd5b6000600360003373ffffffffffffffffffffffffffffffffffffffff1673ffffffffffffffffffffffffffffffffffffffff168152602001908152602001600020600101541161081f576040517f08c379a000000000000000000000000000000000000000000000000000000000815260040161081690611548565b60405180910390fd5b600082826040516020016108349291906115aa565b604051602081830303815290604052805190602001209050600360003373ffffffffffffffffffffffffffffffffffffffff1673ffffffffffffffffffffffffffffffffffffffff1681526020019081526020016000206000015481146108d0576040517f08c379a00000000000000000000000000000000000000000000000000000000081526004016108c790611622565b60405180910390fd5b82600360003373ffffffffffffffffffffffffffffffffffffffff1673ffffffffffffffffffffffffffffffffffffffff168152602001908152602001600020600101541015610955576040517f08c379a000000000000000000000000000000000000000000000000000000000815260040161094c9061168e565b60405180910390fd5b6000670de0b6b3a764000084600360003373ffffffffffffffffffffffffffffffffffffffff1673ffffffffffffffffffffffffffffffffffffffff168152602001908152602001600020600101546109ae91906116ae565b6109b891906113b9565b90506000811115610a715760003373ffffffffffffffffffffffffffffffffffffffff16826040516109e990611713565b60006040518083038185875af1925050503d8060008114610a26576040519150601f19603f3d011682016040523d82523d6000602084013e610a2b565b606091505b5050905080610a6f576040517f08c379a0000000000000000000000000000000000000000000000000000000008152600401610a6690611774565b60405180910390fd5b505b6000600360003373ffffffffffffffffffffffffffffffffffffffff1673ffffffffffffffffffffffffffffffffffffffff16815260200190815260200160002060010181905550836002541015610b50578360028190555033600160006101000a81548173ffffffffffffffffffffffffffffffffffffffff021916908373ffffffffffffffffffffffffffffffffffffffff16021790555083600460003373ffffffffffffffffffffffffffffffffffffffff1673ffffffffffffffffffffffffffffffffffffffff168152602001908152602001600020819055505b50505050565b60036020528060005260406000206000915090508060000154908060010154905082565b600160009054906101000a900473ffffffffffffffffffffffffffffffffffffffff1681565b6000600360003373ffffffffffffffffffffffffffffffffffffffff1673ffffffffffffffffffffffffffffffffffffffff1681526020019081526020016000206001015414610c25576040517f08c379a0000000000000000000000000000000000000000000000000000000008152600401610c1c906117e0565b60405180910390fd5b60016003811115610c3957610c3861104a565b5b60008054906101000a900460ff166003811115610c5957610c5861104a565b5b14610c99576040517f08c379a0000000000000000000000000000000000000000000000000000000008152600401610c909061184c565b60405180910390fd5b60003411610cdc576040517f08c379a0000000000000000000000000000000000000000000000000000000008152600401610cd3906118b8565b60405180910390fd5b6000670de0b6b3a764000034610cf29190611907565b9050604051806040016040528083815260200182815250600360003373ffffffffffffffffffffffffffffffffffffffff1673ffffffffffffffffffffffffffffffffffffffff16815260200190815260200160002060008201518160000155602082015181600101559050505050565b600060019054906101000a900473ffffffffffffffffffffffffffffffffffffffff1673ffffffffffffffffffffffffffffffffffffffff163373ffffffffffffffffffffffffffffffffffffffff1614610dbd57600080fd5b60006003811115610dd157610dd061104a565b5b6003811115610de357610de261104a565b5b60008054906101000a900460ff166003811115610e0357610e0261104a565b5b03610e755760016003811115610e1c57610e1b61104a565b5b6000806101000a81548160ff02191690836003811115610e3f57610e3e61104a565b5b02179055507f02c124e22ee7da1c9905bbb317cf67658c1cc3ea1c0953b1633f85d0b5c281d960405160405180910390a1611042565b60016003811115610e8957610e8861104a565b5b6003811115610e9b57610e9a61104a565b5b60008054906101000a900460ff166003811115610ebb57610eba61104a565b5b03610f2d5760026003811115610ed457610ed361104a565b5b6000806101000a81548160ff02191690836003811115610ef757610ef661104a565b5b02179055507f3bcc93d35219aa0512d7c0d1ca10b0231f473e3d5f9396877d1b7215ee0ab3d560405160405180910390a1611041565b60026003811115610f4157610f4061104a565b5b6003811115610f5357610f5261104a565b5b60008054906101000a900460ff166003811115610f7357610f7261104a565b5b03610fb857600380811115610f8b57610f8a61104a565b5b6000806101000a81548160ff02191690836003811115610fae57610fad61104a565b5b0217905550611040565b600380811115610fcb57610fca61104a565b5b6003811115610fdd57610fdc61104a565b5b60008054906101000a900460ff166003811115610ffd57610ffc61104a565b5b0361103f57600060038111156110165761101561104a565b5b6000806101000a81548160ff021916908360038111156110395761103861104a565b5b02179055505b5b5b5b565b60025481565b7f4e487b7100000000000000000000000000000000000000000000000000000000600052602160045260246000fd5b6004811061108a5761108961104a565b5b50565b600081905061109b82611079565b919050565b60006110ab8261108d565b9050919050565b6110bb816110a0565b82525050565b60006020820190506110d660008301846110b2565b92915050565b600073ffffffffffffffffffffffffffffffffffffffff82169050919050565b6000611107826110dc565b9050919050565b611117816110fc565b82525050565b6000602082019050611132600083018461110e565b92915050565b600080fd5b6000819050919050565b6111508161113d565b811461115b57600080fd5b50565b60008135905061116d81611147565b92915050565b6000819050919050565b61118681611173565b811461119157600080fd5b50565b6000813590506111a38161117d565b92915050565b600080604083850312156111c0576111bf611138565b5b60006111ce8582860161115e565b92505060206111df85828601611194565b9150509250929050565b60006111f4826110dc565b9050919050565b611204816111e9565b811461120f57600080fd5b50565b600081359050611221816111fb565b92915050565b60006020828403121561123d5761123c611138565b5b600061124b84828501611212565b91505092915050565b61125d81611173565b82525050565b61126c8161113d565b82525050565b60006040820190506112876000830185611254565b6112946020830184611263565b9392505050565b6112a4816111e9565b82525050565b60006020820190506112bf600083018461129b565b92915050565b6000602082840312156112db576112da611138565b5b60006112e984828501611194565b91505092915050565b60006020820190506113076000830184611263565b92915050565b600082825260208201905092915050565b7f41756374696f6e206e6f742066696e6973686564207965740000000000000000600082015250565b600061135460188361130d565b915061135f8261131e565b602082019050919050565b6000602082019050818103600083015261138381611347565b9050919050565b7f4e487b7100000000000000000000000000000000000000000000000000000000600052601160045260246000fd5b60006113c48261113d565b91506113cf8361113d565b92508282026113dd8161113d565b915082820484148315176113f4576113f361138a565b5b5092915050565b6000604082019050611410600083018561129b565b61141d6020830184611263565b9392505050565b7f41756374696f6e206e6f742066696e6973686564000000000000000000000000600082015250565b600061145a60148361130d565b915061146582611424565b602082019050919050565b600060208201905081810360008301526114898161144d565b9050919050565b7f596f752068617665206e6f2070656e64696e672072657475726e730000000000600082015250565b60006114c6601b8361130d565b91506114d182611490565b602082019050919050565b600060208201905081810360008301526114f5816114b9565b9050919050565b7f596f7527766520616c72656164792072657665616c6564000000000000000000600082015250565b600061153260178361130d565b915061153d826114fc565b602082019050919050565b6000602082019050818103600083015261156181611525565b9050919050565b6000819050919050565b61158361157e8261113d565b611568565b82525050565b6000819050919050565b6115a461159f82611173565b611589565b82525050565b60006115b68285611572565b6020820191506115c68284611593565b6020820191508190509392505050565b7f496e76616c6964206269643a2068617368206d69736d61746368000000000000600082015250565b600061160c601a8361130d565b9150611617826115d6565b602082019050919050565b6000602082019050818103600083015261163b816115ff565b9050919050565b7f496e73756666696369656e74206465706f73697420666f722074686520626964600082015250565b600061167860208361130d565b915061168382611642565b602082019050919050565b600060208201905081810360008301526116a78161166b565b9050919050565b60006116b98261113d565b91506116c48361113d565b92508282039050818111156116dc576116db61138a565b5b92915050565b600081905092915050565b50565b60006116fd6000836116e2565b9150611708826116ed565b600082019050919050565b600061171e826116f0565b9150819050919050565b7f5472616e73666572206661696c65640000000000000000000000000000000000600082015250565b600061175e600f8361130d565b915061176982611728565b602082019050919050565b6000602082019050818103600083015261178d81611751565b9050919050565b7f596f7527766520616c7265616479206465706f73697465642e00000000000000600082015250565b60006117ca60198361130d565b91506117d582611794565b602082019050919050565b600060208201905081810360008301526117f9816117bd565b9050919050565b7f41756374696f6e206e6f74207374617274656420796574000000000000000000600082015250565b600061183660178361130d565b915061184182611800565b602082019050919050565b6000602082019050818103600083015261186581611829565b9050919050565b7f496e73756666696369656e742062696420616d6f756e74000000000000000000600082015250565b60006118a260178361130d565b91506118ad8261186c565b602082019050919050565b600060208201905081810360008301526118d181611895565b9050919050565b7f4e487b7100000000000000000000000000000000000000000000000000000000600052601260045260246000fd5b60006119128261113d565b915061191d8361113d565b92508261192d5761192c6118d8565b5b82820490509291505056fea2646970667358221220a39b3aee23f864ba5518a6a1fbb5a79a0ea13d028568a9f9a873f0432785bee064736f6c63430008130033",
  "immutableReferences": {},
  "source": "// SPDX-License-Identifier: GPL-3.0\r\npragma solidity >=0.7.0 <0.9.0;\r\n\r\ncontract Khash{\r\n    function hashMe(uint value, bytes32 password) public pure returns(bytes32 hashedValue) {\r\n        hashedValue=keccak256(abi.encodePacked(value,password));\r\n    }\r\n}\r\n\r\ncontract BlindAuction {\r\n    struct Bid {\r\n        bytes32 blindedBid; //\r\n        uint deposit; //\r\n    }\r\n    //Khash public khash;\r\n    // Init - 0; Bidding - 1; Reveal - 2; Done - 3\r\n    enum Phase { Init, Bidding, Reveal, Done }\r\n    Phase public currentPhase = Phase.Init;\r\n\r\n    // Owner\r\n    address payable public beneficiary;\r\n\r\n    // Keep track of the highest bid,bidder\r\n    address public highestBidder;\r\n    uint public highestBid = 0; // \r\n\r\n    //      \r\n    mapping(address => Bid) public bids;\r\n    //    \r\n    mapping(address => uint) pendingReturns;\r\n\r\n\r\n    // Events\r\n    event AuctionEnded(address winner, uint highestBid);\r\n    event BiddingStarted();\r\n    event RevealStarted();\r\n    event AuctionInit();\r\n\r\n    // Modifiers\r\n    constructor() {\r\n        beneficiary = payable(msg.sender);\r\n        \r\n        emit AuctionInit();\r\n    }\r\n    modifier onlyOwner(){\r\n        require(msg.sender == beneficiary);\r\n        _;\r\n    }\r\n\r\n    function advancePhase() public onlyOwner {\r\n        if(currentPhase==Phase(0)){\r\n            currentPhase = Phase(1);\r\n            emit BiddingStarted();\r\n        }else if (currentPhase == Phase(1)){\r\n            currentPhase = Phase(2);\r\n            emit RevealStarted();\r\n        }\r\n        else if(currentPhase==Phase(2)){\r\n            currentPhase=Phase(3);\r\n        }\r\n        else if(currentPhase==Phase(3)){\r\n            currentPhase=Phase(0);\r\n        }\r\n    }\r\n\r\n    //msg.value=    \r\n    //blindBid=+\r\n    function bid(bytes32 blindBid) public payable {\r\n        //  \r\n        require(bids[msg.sender].deposit == 0,\"You've already deposited.\");\r\n        //Bidding  \r\n        require (currentPhase == Phase.Bidding,\"Auction not started yet\");\r\n        // 0  \r\n        require (msg.value>0,\"Insufficient bid amount\");\r\n\r\n        uint deposit=msg.value/1 ether;\r\n        //  \r\n        bids[msg.sender] = Bid(blindBid, deposit);\r\n    }\r\n\r\nfunction reveal(uint value, bytes32 secret) public payable {\r\n    // value=, secret=\r\n    require(currentPhase == Phase.Reveal, \"Auction not finished yet\");\r\n    require(bids[msg.sender].deposit > 0, \"You've already revealed\"); //  \r\n\r\n    //      \r\n    bytes32 hashedValue = keccak256(abi.encodePacked(value, secret));\r\n    require(hashedValue == bids[msg.sender].blindedBid, \"Invalid bid: hash mismatch\");\r\n\r\n    //     \r\n    require(bids[msg.sender].deposit >= value, \"Insufficient deposit for the bid\");\r\n\r\n    //     \r\n    uint refundAmount = (bids[msg.sender].deposit - value) * 1 ether;\r\n    if (refundAmount > 0) {\r\n        (bool success, ) = payable(msg.sender).call{value: refundAmount}(\"\");\r\n        require(success, \"Transfer failed\");\r\n    }\r\n    bids[msg.sender].deposit = 0; //  \r\n\r\n    //   \r\n    if (highestBid < value) {\r\n        highestBid = value;\r\n        highestBidder = msg.sender;\r\n        //        \r\n        pendingReturns[msg.sender] = value;\r\n    }\r\n}\r\n\r\n\r\n    //    \r\n    function withdraw() public {\r\n        //    \r\n        require(currentPhase == Phase.Done,\"Auction not finished\");\r\n        //  withdraw  \r\n        require (pendingReturns[msg.sender] > 0, \"You have no pending returns\");\r\n        \r\n        //pendingReturns     \r\n        payable(msg.sender).transfer(pendingReturns[msg.sender]*1 ether);\r\n        delete pendingReturns[msg.sender];  //   \r\n        delete bids[msg.sender];\r\n    }\r\n\r\n    // Send the highest bid to the beneficiary and end the auction\r\n    function auctionEnd() public onlyOwner{\r\n        require (currentPhase == Phase.Done,\"Auction not finished yet\");\r\n        //owner     \r\n        beneficiary.transfer(highestBid* 1 ether);\r\n        emit AuctionEnded(highestBidder, highestBid);\r\n        \r\n        \r\n        //      \r\n        delete pendingReturns[highestBidder];  //   \r\n        delete bids[highestBidder]; //bids \r\n        //currentPhase = Phase.Init;\r\n        highestBid = 0;\r\n        highestBidder=address(0);\r\n    }\r\n}\r\n",
  "sourcePath": "C:\\Users\\wjddb\\Desktop\\BlindAuction-Dapp\\blindauction-contract\\contracts\\BlindAuction.sol",
  "compiler": {
    "name": "solc",
    "version": "0.8.19+commit.7dd6d404.Emscripten.clang"
  },
  "schemaVersion": "3.4.16",
  "updatedAt": "2024-12-09T01:15:25.095Z",
  "networkType": "ethereum",
  "devdoc": {
    "kind": "dev",
    "methods": {},
    "version": 1
  },
  "userdoc": {
    "kind": "user",
    "methods": {},
    "version": 1
  }
}