{
  "contractName": "Khash",
  "abi": [
    {
      "inputs": [
        {
          "internalType": "uint256",
          "name": "value",
          "type": "uint256"
        },
        {
          "internalType": "bytes32",
          "name": "password",
          "type": "bytes32"
        }
      ],
      "name": "hashMe",
      "outputs": [
        {
          "internalType": "bytes32",
          "name": "hashedValue",
          "type": "bytes32"
        }
      ],
      "stateMutability": "pure",
      "type": "function"
    }
  ],
  "bytecode": "0x608060405234801561001057600080fd5b50610212806100206000396000f3fe608060405234801561001057600080fd5b506004361061002b5760003560e01c8063b3ec48dd14610030575b600080fd5b61004a60048036038101906100459190610104565b610060565b6040516100579190610153565b60405180910390f35b600082826040516020016100759291906101b0565b60405160208183030381529060405280519060200120905092915050565b600080fd5b6000819050919050565b6100ab81610098565b81146100b657600080fd5b50565b6000813590506100c8816100a2565b92915050565b6000819050919050565b6100e1816100ce565b81146100ec57600080fd5b50565b6000813590506100fe816100d8565b92915050565b6000806040838503121561011b5761011a610093565b5b6000610129858286016100b9565b925050602061013a858286016100ef565b9150509250929050565b61014d816100ce565b82525050565b60006020820190506101686000830184610144565b92915050565b6000819050919050565b61018961018482610098565b61016e565b82525050565b6000819050919050565b6101aa6101a5826100ce565b61018f565b82525050565b60006101bc8285610178565b6020820191506101cc8284610199565b602082019150819050939250505056fea2646970667358221220ce73e43affee5ac1bcd111da3e0a25c5206f32001c556fe2bbfb161c9633612564736f6c63430008130033",
  "immutableReferences": {},
  "source": "// SPDX-License-Identifier: GPL-3.0\r\npragma solidity >=0.7.0 <0.9.0;\r\n\r\ncontract Khash{\r\n    function hashMe(uint value, bytes32 password) public pure returns(bytes32 hashedValue) {\r\n        hashedValue=keccak256(abi.encodePacked(value,password));\r\n    }\r\n}\r\n\r\ncontract BlindAuction {\r\n    struct Bid {\r\n        bytes32 blindedBid; //\r\n        uint deposit; //\r\n    }\r\n    //Khash public khash;\r\n    // Init - 0; Bidding - 1; Reveal - 2; Done - 3\r\n    enum Phase { Init, Bidding, Reveal, Done }\r\n    Phase public currentPhase = Phase.Init;\r\n\r\n    // Owner\r\n    address payable public beneficiary;\r\n\r\n    // Keep track of the highest bid,bidder\r\n    address public highestBidder;\r\n    uint public highestBid = 0; // \r\n\r\n    //      \r\n    mapping(address => Bid) public bids;\r\n    //    \r\n    mapping(address => uint) pendingReturns;\r\n\r\n\r\n    // Events\r\n    event AuctionEnded(address winner, uint highestBid);\r\n    event BiddingStarted();\r\n    event RevealStarted();\r\n    event AuctionInit();\r\n\r\n    // Modifiers\r\n    constructor() {\r\n        beneficiary = payable(msg.sender);\r\n        \r\n        emit AuctionInit();\r\n    }\r\n    modifier onlyOwner(){\r\n        require(msg.sender == beneficiary);\r\n        _;\r\n    }\r\n\r\n    function advancePhase() public onlyOwner {\r\n        if(currentPhase==Phase(0)){\r\n            currentPhase = Phase(1);\r\n            emit BiddingStarted();\r\n        }else if (currentPhase == Phase(1)){\r\n            currentPhase = Phase(2);\r\n            emit RevealStarted();\r\n        }\r\n        else if(currentPhase==Phase(2)){\r\n            currentPhase=Phase(3);\r\n        }\r\n        else if(currentPhase==Phase(3)){\r\n            currentPhase=Phase(0);\r\n        }\r\n    }\r\n\r\n    //msg.value=    \r\n    //blindBid=+\r\n    function bid(bytes32 blindBid) public payable {\r\n        //  \r\n        require(bids[msg.sender].deposit == 0,\"You've already deposited.\");\r\n        //Bidding  \r\n        require (currentPhase == Phase.Bidding,\"Auction not started yet\");\r\n        // 0  \r\n        require (msg.value>0,\"Insufficient bid amount\");\r\n\r\n        uint deposit=msg.value/1 ether;\r\n        //  \r\n        bids[msg.sender] = Bid(blindBid, deposit);\r\n    }\r\n\r\nfunction reveal(uint value, bytes32 secret) public payable {\r\n    // value=, secret=\r\n    require(currentPhase == Phase.Reveal, \"Auction not finished yet\");\r\n    require(bids[msg.sender].deposit > 0, \"You've already revealed\"); //  \r\n\r\n    //      \r\n    bytes32 hashedValue = keccak256(abi.encodePacked(value, secret));\r\n    require(hashedValue == bids[msg.sender].blindedBid, \"Invalid bid: hash mismatch\");\r\n\r\n    //     \r\n    require(bids[msg.sender].deposit >= value, \"Insufficient deposit for the bid\");\r\n\r\n    //     \r\n    uint refundAmount = (bids[msg.sender].deposit - value) * 1 ether;\r\n    if (refundAmount > 0) {\r\n        (bool success, ) = payable(msg.sender).call{value: refundAmount}(\"\");\r\n        require(success, \"Transfer failed\");\r\n    }\r\n    bids[msg.sender].deposit = 0; //  \r\n\r\n    //   \r\n    if (highestBid < value) {\r\n        highestBid = value;\r\n        highestBidder = msg.sender;\r\n        //        \r\n        pendingReturns[msg.sender] = value;\r\n    }\r\n}\r\n\r\n\r\n    //    \r\n    function withdraw() public {\r\n        //    \r\n        require(currentPhase == Phase.Done,\"Auction not finished\");\r\n        //  withdraw  \r\n        require (pendingReturns[msg.sender] > 0, \"You have no pending returns\");\r\n        \r\n        //pendingReturns     \r\n        payable(msg.sender).transfer(pendingReturns[msg.sender]*1 ether);\r\n        delete pendingReturns[msg.sender];  //   \r\n        delete bids[msg.sender];\r\n    }\r\n\r\n    // Send the highest bid to the beneficiary and end the auction\r\n    function auctionEnd() public onlyOwner{\r\n        require (currentPhase == Phase.Done,\"Auction not finished yet\");\r\n        //owner     \r\n        beneficiary.transfer(highestBid* 1 ether);\r\n        emit AuctionEnded(highestBidder, highestBid);\r\n        \r\n        \r\n        //      \r\n        delete pendingReturns[highestBidder];  //   \r\n        delete bids[highestBidder]; //bids \r\n        //currentPhase = Phase.Init;\r\n        highestBid = 0;\r\n        highestBidder=address(0);\r\n    }\r\n}\r\n",
  "sourcePath": "C:\\Users\\wjddb\\Desktop\\BlindAuction-Dapp\\blindauction-contract\\contracts\\BlindAuction.sol",
  "compiler": {
    "name": "solc",
    "version": "0.8.19+commit.7dd6d404.Emscripten.clang"
  },
  "schemaVersion": "3.4.16",
  "updatedAt": "2024-12-09T01:15:20.619Z",
  "devdoc": {
    "kind": "dev",
    "methods": {},
    "version": 1
  },
  "userdoc": {
    "kind": "user",
    "methods": {},
    "version": 1
  }
}