{
	"week5_practice/ex4_29.sol": {
		"Ex4_29": {
			"abi": [
				{
					"inputs": [],
					"name": "fun1",
					"outputs": [
						{
							"internalType": "uint256",
							"name": "",
							"type": "uint256"
						}
					],
					"stateMutability": "pure",
					"type": "function"
				}
			],
			"devdoc": {
				"kind": "dev",
				"methods": {},
				"version": 1
			},
			"evm": {
				"assembly": "    /* \"week5_practice/ex4_29.sol\":70:292  contract Ex4_29 {... */\n  mstore(0x40, 0x80)\n  callvalue\n  dup1\n  iszero\n  tag_1\n  jumpi\n  0x00\n  dup1\n  revert\ntag_1:\n  pop\n  dataSize(sub_0)\n  dup1\n  dataOffset(sub_0)\n  0x00\n  codecopy\n  0x00\n  return\nstop\n\nsub_0: assembly {\n        /* \"week5_practice/ex4_29.sol\":70:292  contract Ex4_29 {... */\n      mstore(0x40, 0x80)\n      callvalue\n      dup1\n      iszero\n      tag_1\n      jumpi\n      0x00\n      dup1\n      revert\n    tag_1:\n      pop\n      jumpi(tag_2, lt(calldatasize, 0x04))\n      shr(0xe0, calldataload(0x00))\n      dup1\n      0x446a45b7\n      eq\n      tag_3\n      jumpi\n    tag_2:\n      0x00\n      dup1\n      revert\n        /* \"week5_practice/ex4_29.sol\":93:289  function fun1() public pure returns(uint){... */\n    tag_3:\n      tag_4\n      tag_5\n      jump\t// in\n    tag_4:\n      mload(0x40)\n      tag_6\n      swap2\n      swap1\n      tag_7\n      jump\t// in\n    tag_6:\n      mload(0x40)\n      dup1\n      swap2\n      sub\n      swap1\n      return\n    tag_5:\n        /* \"week5_practice/ex4_29.sol\":129:133  uint */\n      0x00\n        /* \"week5_practice/ex4_29.sol\":145:156  uint result */\n      dup1\n        /* \"week5_practice/ex4_29.sol\":157:158  0 */\n      0x00\n        /* \"week5_practice/ex4_29.sol\":145:158  uint result=0 */\n      swap1\n      pop\n        /* \"week5_practice/ex4_29.sol\":169:175  uint a */\n      0x00\n        /* \"week5_practice/ex4_29.sol\":176:177  3 */\n      0x03\n        /* \"week5_practice/ex4_29.sol\":169:177  uint a=3 */\n      swap1\n      pop\n        /* \"week5_practice/ex4_29.sol\":188:258  while(a>0){... */\n    tag_9:\n        /* \"week5_practice/ex4_29.sol\":196:197  0 */\n      0x00\n        /* \"week5_practice/ex4_29.sol\":194:195  a */\n      dup2\n        /* \"week5_practice/ex4_29.sol\":194:197  a>0 */\n      gt\n        /* \"week5_practice/ex4_29.sol\":188:258  while(a>0){... */\n      iszero\n      tag_10\n      jumpi\n        /* \"week5_practice/ex4_29.sol\":227:228  a */\n      dup1\n        /* \"week5_practice/ex4_29.sol\":220:226  result */\n      dup3\n        /* \"week5_practice/ex4_29.sol\":220:228  result+a */\n      tag_11\n      swap2\n      swap1\n      tag_12\n      jump\t// in\n    tag_11:\n        /* \"week5_practice/ex4_29.sol\":213:228  result=result+a */\n      swap2\n      pop\n        /* \"week5_practice/ex4_29.sol\":243:246  a-- */\n      dup1\n      dup1\n      tag_13\n      swap1\n      tag_14\n      jump\t// in\n    tag_13:\n      swap2\n      pop\n      pop\n        /* \"week5_practice/ex4_29.sol\":188:258  while(a>0){... */\n      jump(tag_9)\n    tag_10:\n        /* \"week5_practice/ex4_29.sol\":275:281  result */\n      dup2\n        /* \"week5_practice/ex4_29.sol\":268:281  return result */\n      swap3\n      pop\n      pop\n      pop\n        /* \"week5_practice/ex4_29.sol\":93:289  function fun1() public pure returns(uint){... */\n      swap1\n      jump\t// out\n        /* \"#utility.yul\":7:84   */\n    tag_15:\n        /* \"#utility.yul\":44:51   */\n      0x00\n        /* \"#utility.yul\":73:78   */\n      dup2\n        /* \"#utility.yul\":62:78   */\n      swap1\n      pop\n        /* \"#utility.yul\":7:84   */\n      swap2\n      swap1\n      pop\n      jump\t// out\n        /* \"#utility.yul\":90:208   */\n    tag_16:\n        /* \"#utility.yul\":177:201   */\n      tag_21\n        /* \"#utility.yul\":195:200   */\n      dup2\n        /* \"#utility.yul\":177:201   */\n      tag_15\n      jump\t// in\n    tag_21:\n        /* \"#utility.yul\":172:175   */\n      dup3\n        /* \"#utility.yul\":165:202   */\n      mstore\n        /* \"#utility.yul\":90:208   */\n      pop\n      pop\n      jump\t// out\n        /* \"#utility.yul\":214:436   */\n    tag_7:\n        /* \"#utility.yul\":307:311   */\n      0x00\n        /* \"#utility.yul\":345:347   */\n      0x20\n        /* \"#utility.yul\":334:343   */\n      dup3\n        /* \"#utility.yul\":330:348   */\n      add\n        /* \"#utility.yul\":322:348   */\n      swap1\n      pop\n        /* \"#utility.yul\":358:429   */\n      tag_23\n        /* \"#utility.yul\":426:427   */\n      0x00\n        /* \"#utility.yul\":415:424   */\n      dup4\n        /* \"#utility.yul\":411:428   */\n      add\n        /* \"#utility.yul\":402:408   */\n      dup5\n        /* \"#utility.yul\":358:429   */\n      tag_16\n      jump\t// in\n    tag_23:\n        /* \"#utility.yul\":214:436   */\n      swap3\n      swap2\n      pop\n      pop\n      jump\t// out\n        /* \"#utility.yul\":442:622   */\n    tag_17:\n        /* \"#utility.yul\":490:567   */\n      0x4e487b7100000000000000000000000000000000000000000000000000000000\n        /* \"#utility.yul\":487:488   */\n      0x00\n        /* \"#utility.yul\":480:568   */\n      mstore\n        /* \"#utility.yul\":587:591   */\n      0x11\n        /* \"#utility.yul\":584:585   */\n      0x04\n        /* \"#utility.yul\":577:592   */\n      mstore\n        /* \"#utility.yul\":611:615   */\n      0x24\n        /* \"#utility.yul\":608:609   */\n      0x00\n        /* \"#utility.yul\":601:616   */\n      revert\n        /* \"#utility.yul\":628:819   */\n    tag_12:\n        /* \"#utility.yul\":668:671   */\n      0x00\n        /* \"#utility.yul\":687:707   */\n      tag_26\n        /* \"#utility.yul\":705:706   */\n      dup3\n        /* \"#utility.yul\":687:707   */\n      tag_15\n      jump\t// in\n    tag_26:\n        /* \"#utility.yul\":682:707   */\n      swap2\n      pop\n        /* \"#utility.yul\":721:741   */\n      tag_27\n        /* \"#utility.yul\":739:740   */\n      dup4\n        /* \"#utility.yul\":721:741   */\n      tag_15\n      jump\t// in\n    tag_27:\n        /* \"#utility.yul\":716:741   */\n      swap3\n      pop\n        /* \"#utility.yul\":764:765   */\n      dup3\n        /* \"#utility.yul\":761:762   */\n      dup3\n        /* \"#utility.yul\":757:766   */\n      add\n        /* \"#utility.yul\":750:766   */\n      swap1\n      pop\n        /* \"#utility.yul\":785:788   */\n      dup1\n        /* \"#utility.yul\":782:783   */\n      dup3\n        /* \"#utility.yul\":779:789   */\n      gt\n        /* \"#utility.yul\":776:812   */\n      iszero\n      tag_28\n      jumpi\n        /* \"#utility.yul\":792:810   */\n      tag_29\n      tag_17\n      jump\t// in\n    tag_29:\n        /* \"#utility.yul\":776:812   */\n    tag_28:\n        /* \"#utility.yul\":628:819   */\n      swap3\n      swap2\n      pop\n      pop\n      jump\t// out\n        /* \"#utility.yul\":825:996   */\n    tag_14:\n        /* \"#utility.yul\":864:867   */\n      0x00\n        /* \"#utility.yul\":887:911   */\n      tag_31\n        /* \"#utility.yul\":905:910   */\n      dup3\n        /* \"#utility.yul\":887:911   */\n      tag_15\n      jump\t// in\n    tag_31:\n        /* \"#utility.yul\":878:911   */\n      swap2\n      pop\n        /* \"#utility.yul\":933:937   */\n      0x00\n        /* \"#utility.yul\":926:931   */\n      dup3\n        /* \"#utility.yul\":923:938   */\n      sub\n        /* \"#utility.yul\":920:961   */\n      tag_32\n      jumpi\n        /* \"#utility.yul\":941:959   */\n      tag_33\n      tag_17\n      jump\t// in\n    tag_33:\n        /* \"#utility.yul\":920:961   */\n    tag_32:\n        /* \"#utility.yul\":988:989   */\n      0x01\n        /* \"#utility.yul\":981:986   */\n      dup3\n        /* \"#utility.yul\":977:990   */\n      sub\n        /* \"#utility.yul\":970:990   */\n      swap1\n      pop\n        /* \"#utility.yul\":825:996   */\n      swap2\n      swap1\n      pop\n      jump\t// out\n\n    auxdata: 0xa2646970667358221220ee42a9559687bdedee3e93a77e1b9a7fbc9190c16df504a507ccf1314bdbe38b64736f6c634300081a0033\n}\n",
				"bytecode": {
					"linkReferences": {},
					"object": "6080604052348015600e575f80fd5b506101758061001c5f395ff3fe608060405234801561000f575f80fd5b5060043610610029575f3560e01c8063446a45b71461002d575b5f80fd5b61003561004b565b604051610042919061009f565b60405180910390f35b5f805f90505f600390505b5f81111561007f57808261006a91906100e5565b9150808061007790610118565b915050610056565b819250505090565b5f819050919050565b61009981610087565b82525050565b5f6020820190506100b25f830184610090565b92915050565b7f4e487b71000000000000000000000000000000000000000000000000000000005f52601160045260245ffd5b5f6100ef82610087565b91506100fa83610087565b9250828201905080821115610112576101116100b8565b5b92915050565b5f61012282610087565b91505f8203610134576101336100b8565b5b60018203905091905056fea2646970667358221220ee42a9559687bdedee3e93a77e1b9a7fbc9190c16df504a507ccf1314bdbe38b64736f6c634300081a0033",
					"opcodes": "PUSH1 0x80 PUSH1 0x40 MSTORE CALLVALUE DUP1 ISZERO PUSH1 0xE JUMPI PUSH0 DUP1 REVERT JUMPDEST POP PUSH2 0x175 DUP1 PUSH2 0x1C PUSH0 CODECOPY PUSH0 RETURN INVALID PUSH1 0x80 PUSH1 0x40 MSTORE CALLVALUE DUP1 ISZERO PUSH2 0xF JUMPI PUSH0 DUP1 REVERT JUMPDEST POP PUSH1 0x4 CALLDATASIZE LT PUSH2 0x29 JUMPI PUSH0 CALLDATALOAD PUSH1 0xE0 SHR DUP1 PUSH4 0x446A45B7 EQ PUSH2 0x2D JUMPI JUMPDEST PUSH0 DUP1 REVERT JUMPDEST PUSH2 0x35 PUSH2 0x4B JUMP JUMPDEST PUSH1 0x40 MLOAD PUSH2 0x42 SWAP2 SWAP1 PUSH2 0x9F JUMP JUMPDEST PUSH1 0x40 MLOAD DUP1 SWAP2 SUB SWAP1 RETURN JUMPDEST PUSH0 DUP1 PUSH0 SWAP1 POP PUSH0 PUSH1 0x3 SWAP1 POP JUMPDEST PUSH0 DUP2 GT ISZERO PUSH2 0x7F JUMPI DUP1 DUP3 PUSH2 0x6A SWAP2 SWAP1 PUSH2 0xE5 JUMP JUMPDEST SWAP2 POP DUP1 DUP1 PUSH2 0x77 SWAP1 PUSH2 0x118 JUMP JUMPDEST SWAP2 POP POP PUSH2 0x56 JUMP JUMPDEST DUP2 SWAP3 POP POP POP SWAP1 JUMP JUMPDEST PUSH0 DUP2 SWAP1 POP SWAP2 SWAP1 POP JUMP JUMPDEST PUSH2 0x99 DUP2 PUSH2 0x87 JUMP JUMPDEST DUP3 MSTORE POP POP JUMP JUMPDEST PUSH0 PUSH1 0x20 DUP3 ADD SWAP1 POP PUSH2 0xB2 PUSH0 DUP4 ADD DUP5 PUSH2 0x90 JUMP JUMPDEST SWAP3 SWAP2 POP POP JUMP JUMPDEST PUSH32 0x4E487B7100000000000000000000000000000000000000000000000000000000 PUSH0 MSTORE PUSH1 0x11 PUSH1 0x4 MSTORE PUSH1 0x24 PUSH0 REVERT JUMPDEST PUSH0 PUSH2 0xEF DUP3 PUSH2 0x87 JUMP JUMPDEST SWAP2 POP PUSH2 0xFA DUP4 PUSH2 0x87 JUMP JUMPDEST SWAP3 POP DUP3 DUP3 ADD SWAP1 POP DUP1 DUP3 GT ISZERO PUSH2 0x112 JUMPI PUSH2 0x111 PUSH2 0xB8 JUMP JUMPDEST JUMPDEST SWAP3 SWAP2 POP POP JUMP JUMPDEST PUSH0 PUSH2 0x122 DUP3 PUSH2 0x87 JUMP JUMPDEST SWAP2 POP PUSH0 DUP3 SUB PUSH2 0x134 JUMPI PUSH2 0x133 PUSH2 0xB8 JUMP JUMPDEST JUMPDEST PUSH1 0x1 DUP3 SUB SWAP1 POP SWAP2 SWAP1 POP JUMP INVALID LOG2 PUSH5 0x6970667358 0x22 SLT KECCAK256 0xEE TIMESTAMP 0xA9 SSTORE SWAP7 DUP8 0xBD 0xED 0xEE RETURNDATACOPY SWAP4 0xA7 PUSH31 0x1B9A7FBC9190C16DF504A507CCF1314BDBE38B64736F6C634300081A003300 "
				},
				"gasEstimates": {
					"creation": {
						"codeDepositCost": "74600",
						"executionCost": "121",
						"totalCost": "74721"
					},
					"external": {
						"fun1()": "infinite"
					}
				},
				"methodIdentifiers": {
					"fun1()": "446a45b7"
				}
			},
			"storageLayout": {
				"storage": [],
				"types": null
			},
			"userdoc": {
				"kind": "user",
				"methods": {},
				"version": 1
			}
		}
	}
}