{
	"week5_practice/ex5_4.sol": {
		"Ex5_4": {
			"abi": [
				{
					"inputs": [
						{
							"internalType": "uint256",
							"name": "_value",
							"type": "uint256"
						}
					],
					"name": "addArray1",
					"outputs": [],
					"stateMutability": "nonpayable",
					"type": "function"
				},
				{
					"inputs": [
						{
							"internalType": "uint256",
							"name": "",
							"type": "uint256"
						}
					],
					"name": "array1",
					"outputs": [
						{
							"internalType": "uint256",
							"name": "",
							"type": "uint256"
						}
					],
					"stateMutability": "view",
					"type": "function"
				},
				{
					"inputs": [
						{
							"internalType": "uint256",
							"name": "",
							"type": "uint256"
						}
					],
					"name": "array2",
					"outputs": [
						{
							"internalType": "string",
							"name": "",
							"type": "string"
						}
					],
					"stateMutability": "view",
					"type": "function"
				},
				{
					"inputs": [
						{
							"internalType": "uint256",
							"name": "idx",
							"type": "uint256"
						},
						{
							"internalType": "string",
							"name": "val",
							"type": "string"
						}
					],
					"name": "changeArray2",
					"outputs": [],
					"stateMutability": "nonpayable",
					"type": "function"
				},
				{
					"inputs": [],
					"name": "getLength1",
					"outputs": [
						{
							"internalType": "uint256",
							"name": "",
							"type": "uint256"
						}
					],
					"stateMutability": "view",
					"type": "function"
				},
				{
					"inputs": [],
					"name": "getLength2",
					"outputs": [
						{
							"internalType": "uint256",
							"name": "",
							"type": "uint256"
						}
					],
					"stateMutability": "view",
					"type": "function"
				}
			],
			"devdoc": {
				"kind": "dev",
				"methods": {},
				"version": 1
			},
			"evm": {
				"assembly": "    /* \"week5_practice/ex5_4.sol\":70:553  contract Ex5_4 {... */\n  mstore(0x40, 0x80)\n    /* \"week5_practice/ex5_4.sol\":92:120  uint[] public array1=[97,98] */\n  mload(0x40)\n  dup1\n  0x40\n  add\n  0x40\n  mstore\n  dup1\n    /* \"week5_practice/ex5_4.sol\":114:116  97 */\n  0x61\n    /* \"week5_practice/ex5_4.sol\":92:120  uint[] public array1=[97,98] */\n  0xff\n  and\n  dup2\n  mstore\n  0x20\n  add\n    /* \"week5_practice/ex5_4.sol\":117:119  98 */\n  0x62\n    /* \"week5_practice/ex5_4.sol\":92:120  uint[] public array1=[97,98] */\n  0xff\n  and\n  dup2\n  mstore\n  pop\n  0x00\n  swap1\n  0x02\n  tag_1\n  swap3\n  swap2\n  swap1\n  tag_2\n  jump\t// in\ntag_1:\n  pop\n    /* \"week5_practice/ex5_4.sol\":127:181  string[5] public array2=[\"apple\", \"banana\", \"coconut\"] */\n  mload(0x40)\n  dup1\n  0x60\n  add\n  0x40\n  mstore\n  dup1\n  mload(0x40)\n  dup1\n  0x40\n  add\n  0x40\n  mstore\n  dup1\n  0x05\n  dup2\n  mstore\n  0x20\n  add\n  0x6170706c65000000000000000000000000000000000000000000000000000000\n  dup2\n  mstore\n  pop\n  dup2\n  mstore\n  0x20\n  add\n  mload(0x40)\n  dup1\n  0x40\n  add\n  0x40\n  mstore\n  dup1\n  0x06\n  dup2\n  mstore\n  0x20\n  add\n  0x62616e616e610000000000000000000000000000000000000000000000000000\n  dup2\n  mstore\n  pop\n  dup2\n  mstore\n  0x20\n  add\n  mload(0x40)\n  dup1\n  0x40\n  add\n  0x40\n  mstore\n  dup1\n  0x07\n  dup2\n  mstore\n  0x20\n  add\n  0x636f636f6e757400000000000000000000000000000000000000000000000000\n  dup2\n  mstore\n  pop\n  dup2\n  mstore\n  pop\n  0x01\n  swap1\n  0x03\n  tag_3\n  swap3\n  swap2\n  swap1\n  tag_4\n  jump\t// in\ntag_3:\n  pop\n    /* \"week5_practice/ex5_4.sol\":70:553  contract Ex5_4 {... */\n  callvalue\n  dup1\n  iszero\n  tag_5\n  jumpi\n  0x00\n  dup1\n  revert\ntag_5:\n  pop\n  jump(tag_6)\ntag_2:\n  dup3\n  dup1\n  sload\n  dup3\n  dup3\n  sstore\n  swap1\n  0x00\n  mstore\n  keccak256(0x00, 0x20)\n  swap1\n  dup2\n  add\n  swap3\n  dup3\n  iszero\n  tag_7\n  jumpi\n  swap2\n  0x20\n  mul\n  dup3\n  add\ntag_8:\n  dup3\n  dup2\n  gt\n  iszero\n  tag_9\n  jumpi\n  dup3\n  mload\n  dup3\n  swap1\n  0xff\n  and\n  swap1\n  sstore\n  swap2\n  0x20\n  add\n  swap2\n  swap1\n  0x01\n  add\n  swap1\n  jump(tag_8)\ntag_9:\ntag_7:\n  pop\n  swap1\n  pop\n  tag_10\n  swap2\n  swap1\n  tag_11\n  jump\t// in\ntag_10:\n  pop\n  swap1\n  jump\t// out\ntag_4:\n  dup3\n  0x05\n  dup2\n  add\n  swap3\n  dup3\n  iszero\n  tag_12\n  jumpi\n  swap2\n  0x20\n  mul\n  dup3\n  add\ntag_13:\n  dup3\n  dup2\n  gt\n  iszero\n  tag_14\n  jumpi\n  dup3\n  mload\n  dup3\n  swap1\n  dup2\n  tag_15\n  swap2\n  swap1\n  tag_16\n  jump\t// in\ntag_15:\n  pop\n  swap2\n  0x20\n  add\n  swap2\n  swap1\n  0x01\n  add\n  swap1\n  jump(tag_13)\ntag_14:\ntag_12:\n  pop\n  swap1\n  pop\n  tag_17\n  swap2\n  swap1\n  tag_18\n  jump\t// in\ntag_17:\n  pop\n  swap1\n  jump\t// out\ntag_11:\ntag_19:\n  dup1\n  dup3\n  gt\n  iszero\n  tag_20\n  jumpi\n  0x00\n  dup2\n  0x00\n  swap1\n  sstore\n  pop\n  0x01\n  add\n  jump(tag_19)\ntag_20:\n  pop\n  swap1\n  jump\t// out\ntag_18:\ntag_21:\n  dup1\n  dup3\n  gt\n  iszero\n  tag_22\n  jumpi\n  0x00\n  dup2\n  dup2\n  tag_23\n  swap2\n  swap1\n  tag_24\n  jump\t// in\ntag_23:\n  pop\n  0x01\n  add\n  jump(tag_21)\ntag_22:\n  pop\n  swap1\n  jump\t// out\ntag_24:\n  pop\n  dup1\n  sload\n  tag_25\n  swap1\n  tag_26\n  jump\t// in\ntag_25:\n  0x00\n  dup3\n  sstore\n  dup1\n  0x1f\n  lt\n  tag_28\n  jumpi\n  pop\n  jump(tag_27)\ntag_28:\n  0x1f\n  add\n  0x20\n  swap1\n  div\n  swap1\n  0x00\n  mstore\n  keccak256(0x00, 0x20)\n  swap1\n  dup2\n  add\n  swap1\n  tag_29\n  swap2\n  swap1\n  tag_11\n  jump\t// in\ntag_29:\ntag_27:\n  pop\n  jump\t// out\n    /* \"#utility.yul\":7:106   */\ntag_30:\n    /* \"#utility.yul\":59:65   */\n  0x00\n    /* \"#utility.yul\":93:98   */\n  dup2\n    /* \"#utility.yul\":87:99   */\n  mload\n    /* \"#utility.yul\":77:99   */\n  swap1\n  pop\n    /* \"#utility.yul\":7:106   */\n  swap2\n  swap1\n  pop\n  jump\t// out\n    /* \"#utility.yul\":112:292   */\ntag_31:\n    /* \"#utility.yul\":160:237   */\n  0x4e487b7100000000000000000000000000000000000000000000000000000000\n    /* \"#utility.yul\":157:158   */\n  0x00\n    /* \"#utility.yul\":150:238   */\n  mstore\n    /* \"#utility.yul\":257:261   */\n  0x41\n    /* \"#utility.yul\":254:255   */\n  0x04\n    /* \"#utility.yul\":247:262   */\n  mstore\n    /* \"#utility.yul\":281:285   */\n  0x24\n    /* \"#utility.yul\":278:279   */\n  0x00\n    /* \"#utility.yul\":271:286   */\n  revert\n    /* \"#utility.yul\":298:478   */\ntag_32:\n    /* \"#utility.yul\":346:423   */\n  0x4e487b7100000000000000000000000000000000000000000000000000000000\n    /* \"#utility.yul\":343:344   */\n  0x00\n    /* \"#utility.yul\":336:424   */\n  mstore\n    /* \"#utility.yul\":443:447   */\n  0x22\n    /* \"#utility.yul\":440:441   */\n  0x04\n    /* \"#utility.yul\":433:448   */\n  mstore\n    /* \"#utility.yul\":467:471   */\n  0x24\n    /* \"#utility.yul\":464:465   */\n  0x00\n    /* \"#utility.yul\":457:472   */\n  revert\n    /* \"#utility.yul\":484:804   */\ntag_26:\n    /* \"#utility.yul\":528:534   */\n  0x00\n    /* \"#utility.yul\":565:566   */\n  0x02\n    /* \"#utility.yul\":559:563   */\n  dup3\n    /* \"#utility.yul\":555:567   */\n  div\n    /* \"#utility.yul\":545:567   */\n  swap1\n  pop\n    /* \"#utility.yul\":612:613   */\n  0x01\n    /* \"#utility.yul\":606:610   */\n  dup3\n    /* \"#utility.yul\":602:614   */\n  and\n    /* \"#utility.yul\":633:651   */\n  dup1\n    /* \"#utility.yul\":623:704   */\n  tag_54\n  jumpi\n    /* \"#utility.yul\":689:693   */\n  0x7f\n    /* \"#utility.yul\":681:687   */\n  dup3\n    /* \"#utility.yul\":677:694   */\n  and\n    /* \"#utility.yul\":667:694   */\n  swap2\n  pop\n    /* \"#utility.yul\":623:704   */\ntag_54:\n    /* \"#utility.yul\":751:753   */\n  0x20\n    /* \"#utility.yul\":743:749   */\n  dup3\n    /* \"#utility.yul\":740:754   */\n  lt\n    /* \"#utility.yul\":720:738   */\n  dup2\n    /* \"#utility.yul\":717:755   */\n  sub\n    /* \"#utility.yul\":714:798   */\n  tag_55\n  jumpi\n    /* \"#utility.yul\":770:788   */\n  tag_56\n  tag_32\n  jump\t// in\ntag_56:\n    /* \"#utility.yul\":714:798   */\ntag_55:\n    /* \"#utility.yul\":535:804   */\n  pop\n    /* \"#utility.yul\":484:804   */\n  swap2\n  swap1\n  pop\n  jump\t// out\n    /* \"#utility.yul\":810:951   */\ntag_33:\n    /* \"#utility.yul\":859:863   */\n  0x00\n    /* \"#utility.yul\":882:885   */\n  dup2\n    /* \"#utility.yul\":874:885   */\n  swap1\n  pop\n    /* \"#utility.yul\":905:908   */\n  dup2\n    /* \"#utility.yul\":902:903   */\n  0x00\n    /* \"#utility.yul\":895:909   */\n  mstore\n    /* \"#utility.yul\":939:943   */\n  0x20\n    /* \"#utility.yul\":936:937   */\n  0x00\n    /* \"#utility.yul\":926:944   */\n  keccak256\n    /* \"#utility.yul\":918:944   */\n  swap1\n  pop\n    /* \"#utility.yul\":810:951   */\n  swap2\n  swap1\n  pop\n  jump\t// out\n    /* \"#utility.yul\":957:1050   */\ntag_34:\n    /* \"#utility.yul\":994:1000   */\n  0x00\n    /* \"#utility.yul\":1041:1043   */\n  0x20\n    /* \"#utility.yul\":1036:1038   */\n  0x1f\n    /* \"#utility.yul\":1029:1034   */\n  dup4\n    /* \"#utility.yul\":1025:1039   */\n  add\n    /* \"#utility.yul\":1021:1044   */\n  div\n    /* \"#utility.yul\":1011:1044   */\n  swap1\n  pop\n    /* \"#utility.yul\":957:1050   */\n  swap2\n  swap1\n  pop\n  jump\t// out\n    /* \"#utility.yul\":1056:1163   */\ntag_35:\n    /* \"#utility.yul\":1100:1108   */\n  0x00\n    /* \"#utility.yul\":1150:1155   */\n  dup3\n    /* \"#utility.yul\":1144:1148   */\n  dup3\n    /* \"#utility.yul\":1140:1156   */\n  shl\n    /* \"#utility.yul\":1119:1156   */\n  swap1\n  pop\n    /* \"#utility.yul\":1056:1163   */\n  swap3\n  swap2\n  pop\n  pop\n  jump\t// out\n    /* \"#utility.yul\":1169:1562   */\ntag_36:\n    /* \"#utility.yul\":1238:1244   */\n  0x00\n    /* \"#utility.yul\":1288:1289   */\n  0x08\n    /* \"#utility.yul\":1276:1286   */\n  dup4\n    /* \"#utility.yul\":1272:1290   */\n  mul\n    /* \"#utility.yul\":1311:1408   */\n  tag_61\n    /* \"#utility.yul\":1341:1407   */\n  0xffffffffffffffffffffffffffffffffffffffffffffffffffffffffffffffff\n    /* \"#utility.yul\":1330:1339   */\n  dup3\n    /* \"#utility.yul\":1311:1408   */\n  tag_35\n  jump\t// in\ntag_61:\n    /* \"#utility.yul\":1429:1468   */\n  tag_62\n    /* \"#utility.yul\":1459:1467   */\n  dup7\n    /* \"#utility.yul\":1448:1457   */\n  dup4\n    /* \"#utility.yul\":1429:1468   */\n  tag_35\n  jump\t// in\ntag_62:\n    /* \"#utility.yul\":1417:1468   */\n  swap6\n  pop\n    /* \"#utility.yul\":1501:1505   */\n  dup1\n    /* \"#utility.yul\":1497:1506   */\n  not\n    /* \"#utility.yul\":1490:1495   */\n  dup5\n    /* \"#utility.yul\":1486:1507   */\n  and\n    /* \"#utility.yul\":1477:1507   */\n  swap4\n  pop\n    /* \"#utility.yul\":1550:1554   */\n  dup1\n    /* \"#utility.yul\":1540:1548   */\n  dup7\n    /* \"#utility.yul\":1536:1555   */\n  and\n    /* \"#utility.yul\":1529:1534   */\n  dup5\n    /* \"#utility.yul\":1526:1556   */\n  or\n    /* \"#utility.yul\":1516:1556   */\n  swap3\n  pop\n    /* \"#utility.yul\":1245:1562   */\n  pop\n  pop\n    /* \"#utility.yul\":1169:1562   */\n  swap4\n  swap3\n  pop\n  pop\n  pop\n  jump\t// out\n    /* \"#utility.yul\":1568:1645   */\ntag_37:\n    /* \"#utility.yul\":1605:1612   */\n  0x00\n    /* \"#utility.yul\":1634:1639   */\n  dup2\n    /* \"#utility.yul\":1623:1639   */\n  swap1\n  pop\n    /* \"#utility.yul\":1568:1645   */\n  swap2\n  swap1\n  pop\n  jump\t// out\n    /* \"#utility.yul\":1651:1711   */\ntag_38:\n    /* \"#utility.yul\":1679:1682   */\n  0x00\n    /* \"#utility.yul\":1700:1705   */\n  dup2\n    /* \"#utility.yul\":1693:1705   */\n  swap1\n  pop\n    /* \"#utility.yul\":1651:1711   */\n  swap2\n  swap1\n  pop\n  jump\t// out\n    /* \"#utility.yul\":1717:1859   */\ntag_39:\n    /* \"#utility.yul\":1767:1776   */\n  0x00\n    /* \"#utility.yul\":1800:1853   */\n  tag_66\n    /* \"#utility.yul\":1818:1852   */\n  tag_67\n    /* \"#utility.yul\":1827:1851   */\n  tag_68\n    /* \"#utility.yul\":1845:1850   */\n  dup5\n    /* \"#utility.yul\":1827:1851   */\n  tag_37\n  jump\t// in\ntag_68:\n    /* \"#utility.yul\":1818:1852   */\n  tag_38\n  jump\t// in\ntag_67:\n    /* \"#utility.yul\":1800:1853   */\n  tag_37\n  jump\t// in\ntag_66:\n    /* \"#utility.yul\":1787:1853   */\n  swap1\n  pop\n    /* \"#utility.yul\":1717:1859   */\n  swap2\n  swap1\n  pop\n  jump\t// out\n    /* \"#utility.yul\":1865:1940   */\ntag_40:\n    /* \"#utility.yul\":1908:1911   */\n  0x00\n    /* \"#utility.yul\":1929:1934   */\n  dup2\n    /* \"#utility.yul\":1922:1934   */\n  swap1\n  pop\n    /* \"#utility.yul\":1865:1940   */\n  swap2\n  swap1\n  pop\n  jump\t// out\n    /* \"#utility.yul\":1946:2215   */\ntag_41:\n    /* \"#utility.yul\":2056:2095   */\n  tag_71\n    /* \"#utility.yul\":2087:2094   */\n  dup4\n    /* \"#utility.yul\":2056:2095   */\n  tag_39\n  jump\t// in\ntag_71:\n    /* \"#utility.yul\":2117:2208   */\n  tag_72\n    /* \"#utility.yul\":2166:2207   */\n  tag_73\n    /* \"#utility.yul\":2190:2206   */\n  dup3\n    /* \"#utility.yul\":2166:2207   */\n  tag_40\n  jump\t// in\ntag_73:\n    /* \"#utility.yul\":2158:2164   */\n  dup5\n    /* \"#utility.yul\":2151:2155   */\n  dup5\n    /* \"#utility.yul\":2145:2156   */\n  sload\n    /* \"#utility.yul\":2117:2208   */\n  tag_36\n  jump\t// in\ntag_72:\n    /* \"#utility.yul\":2111:2115   */\n  dup3\n    /* \"#utility.yul\":2104:2209   */\n  sstore\n    /* \"#utility.yul\":2022:2215   */\n  pop\n    /* \"#utility.yul\":1946:2215   */\n  pop\n  pop\n  pop\n  jump\t// out\n    /* \"#utility.yul\":2221:2294   */\ntag_42:\n    /* \"#utility.yul\":2266:2269   */\n  0x00\n    /* \"#utility.yul\":2221:2294   */\n  swap1\n  jump\t// out\n    /* \"#utility.yul\":2300:2489   */\ntag_43:\n    /* \"#utility.yul\":2377:2409   */\n  tag_76\n  tag_42\n  jump\t// in\ntag_76:\n    /* \"#utility.yul\":2418:2483   */\n  tag_77\n    /* \"#utility.yul\":2476:2482   */\n  dup2\n    /* \"#utility.yul\":2468:2474   */\n  dup5\n    /* \"#utility.yul\":2462:2466   */\n  dup5\n    /* \"#utility.yul\":2418:2483   */\n  tag_41\n  jump\t// in\ntag_77:\n    /* \"#utility.yul\":2353:2489   */\n  pop\n    /* \"#utility.yul\":2300:2489   */\n  pop\n  pop\n  jump\t// out\n    /* \"#utility.yul\":2495:2681   */\ntag_44:\n    /* \"#utility.yul\":2555:2675   */\ntag_79:\n    /* \"#utility.yul\":2572:2575   */\n  dup2\n    /* \"#utility.yul\":2565:2570   */\n  dup2\n    /* \"#utility.yul\":2562:2576   */\n  lt\n    /* \"#utility.yul\":2555:2675   */\n  iszero\n  tag_81\n  jumpi\n    /* \"#utility.yul\":2626:2665   */\n  tag_82\n    /* \"#utility.yul\":2663:2664   */\n  0x00\n    /* \"#utility.yul\":2656:2661   */\n  dup3\n    /* \"#utility.yul\":2626:2665   */\n  tag_43\n  jump\t// in\ntag_82:\n    /* \"#utility.yul\":2599:2600   */\n  0x01\n    /* \"#utility.yul\":2592:2597   */\n  dup2\n    /* \"#utility.yul\":2588:2601   */\n  add\n    /* \"#utility.yul\":2579:2601   */\n  swap1\n  pop\n    /* \"#utility.yul\":2555:2675   */\n  jump(tag_79)\ntag_81:\n    /* \"#utility.yul\":2495:2681   */\n  pop\n  pop\n  jump\t// out\n    /* \"#utility.yul\":2687:3230   */\ntag_45:\n    /* \"#utility.yul\":2788:2790   */\n  0x1f\n    /* \"#utility.yul\":2783:2786   */\n  dup3\n    /* \"#utility.yul\":2780:2791   */\n  gt\n    /* \"#utility.yul\":2777:3223   */\n  iszero\n  tag_84\n  jumpi\n    /* \"#utility.yul\":2822:2860   */\n  tag_85\n    /* \"#utility.yul\":2854:2859   */\n  dup2\n    /* \"#utility.yul\":2822:2860   */\n  tag_33\n  jump\t// in\ntag_85:\n    /* \"#utility.yul\":2906:2935   */\n  tag_86\n    /* \"#utility.yul\":2924:2934   */\n  dup5\n    /* \"#utility.yul\":2906:2935   */\n  tag_34\n  jump\t// in\ntag_86:\n    /* \"#utility.yul\":2896:2904   */\n  dup2\n    /* \"#utility.yul\":2892:2936   */\n  add\n    /* \"#utility.yul\":3089:3091   */\n  0x20\n    /* \"#utility.yul\":3077:3087   */\n  dup6\n    /* \"#utility.yul\":3074:3092   */\n  lt\n    /* \"#utility.yul\":3071:3120   */\n  iszero\n  tag_87\n  jumpi\n    /* \"#utility.yul\":3110:3118   */\n  dup2\n    /* \"#utility.yul\":3095:3118   */\n  swap1\n  pop\n    /* \"#utility.yul\":3071:3120   */\ntag_87:\n    /* \"#utility.yul\":3133:3213   */\n  tag_88\n    /* \"#utility.yul\":3189:3211   */\n  tag_89\n    /* \"#utility.yul\":3207:3210   */\n  dup6\n    /* \"#utility.yul\":3189:3211   */\n  tag_34\n  jump\t// in\ntag_89:\n    /* \"#utility.yul\":3179:3187   */\n  dup4\n    /* \"#utility.yul\":3175:3212   */\n  add\n    /* \"#utility.yul\":3162:3173   */\n  dup3\n    /* \"#utility.yul\":3133:3213   */\n  tag_44\n  jump\t// in\ntag_88:\n    /* \"#utility.yul\":2792:3223   */\n  pop\n  pop\n    /* \"#utility.yul\":2777:3223   */\ntag_84:\n    /* \"#utility.yul\":2687:3230   */\n  pop\n  pop\n  pop\n  jump\t// out\n    /* \"#utility.yul\":3236:3353   */\ntag_46:\n    /* \"#utility.yul\":3290:3298   */\n  0x00\n    /* \"#utility.yul\":3340:3345   */\n  dup3\n    /* \"#utility.yul\":3334:3338   */\n  dup3\n    /* \"#utility.yul\":3330:3346   */\n  shr\n    /* \"#utility.yul\":3309:3346   */\n  swap1\n  pop\n    /* \"#utility.yul\":3236:3353   */\n  swap3\n  swap2\n  pop\n  pop\n  jump\t// out\n    /* \"#utility.yul\":3359:3528   */\ntag_47:\n    /* \"#utility.yul\":3403:3409   */\n  0x00\n    /* \"#utility.yul\":3436:3487   */\n  tag_92\n    /* \"#utility.yul\":3484:3485   */\n  0x00\n    /* \"#utility.yul\":3480:3486   */\n  not\n    /* \"#utility.yul\":3472:3477   */\n  dup5\n    /* \"#utility.yul\":3469:3470   */\n  0x08\n    /* \"#utility.yul\":3465:3478   */\n  mul\n    /* \"#utility.yul\":3436:3487   */\n  tag_46\n  jump\t// in\ntag_92:\n    /* \"#utility.yul\":3432:3488   */\n  not\n    /* \"#utility.yul\":3517:3521   */\n  dup1\n    /* \"#utility.yul\":3511:3515   */\n  dup4\n    /* \"#utility.yul\":3507:3522   */\n  and\n    /* \"#utility.yul\":3497:3522   */\n  swap2\n  pop\n    /* \"#utility.yul\":3410:3528   */\n  pop\n    /* \"#utility.yul\":3359:3528   */\n  swap3\n  swap2\n  pop\n  pop\n  jump\t// out\n    /* \"#utility.yul\":3533:3828   */\ntag_48:\n    /* \"#utility.yul\":3609:3613   */\n  0x00\n    /* \"#utility.yul\":3755:3784   */\n  tag_94\n    /* \"#utility.yul\":3780:3783   */\n  dup4\n    /* \"#utility.yul\":3774:3778   */\n  dup4\n    /* \"#utility.yul\":3755:3784   */\n  tag_47\n  jump\t// in\ntag_94:\n    /* \"#utility.yul\":3747:3784   */\n  swap2\n  pop\n    /* \"#utility.yul\":3817:3820   */\n  dup3\n    /* \"#utility.yul\":3814:3815   */\n  0x02\n    /* \"#utility.yul\":3810:3821   */\n  mul\n    /* \"#utility.yul\":3804:3808   */\n  dup3\n    /* \"#utility.yul\":3801:3822   */\n  or\n    /* \"#utility.yul\":3793:3822   */\n  swap1\n  pop\n    /* \"#utility.yul\":3533:3828   */\n  swap3\n  swap2\n  pop\n  pop\n  jump\t// out\n    /* \"#utility.yul\":3833:5228   */\ntag_16:\n    /* \"#utility.yul\":3950:3987   */\n  tag_96\n    /* \"#utility.yul\":3983:3986   */\n  dup3\n    /* \"#utility.yul\":3950:3987   */\n  tag_30\n  jump\t// in\ntag_96:\n    /* \"#utility.yul\":4052:4070   */\n  0xffffffffffffffff\n    /* \"#utility.yul\":4044:4050   */\n  dup2\n    /* \"#utility.yul\":4041:4071   */\n  gt\n    /* \"#utility.yul\":4038:4094   */\n  iszero\n  tag_97\n  jumpi\n    /* \"#utility.yul\":4074:4092   */\n  tag_98\n  tag_31\n  jump\t// in\ntag_98:\n    /* \"#utility.yul\":4038:4094   */\ntag_97:\n    /* \"#utility.yul\":4118:4156   */\n  tag_99\n    /* \"#utility.yul\":4150:4154   */\n  dup3\n    /* \"#utility.yul\":4144:4155   */\n  sload\n    /* \"#utility.yul\":4118:4156   */\n  tag_26\n  jump\t// in\ntag_99:\n    /* \"#utility.yul\":4203:4270   */\n  tag_100\n    /* \"#utility.yul\":4263:4269   */\n  dup3\n    /* \"#utility.yul\":4255:4261   */\n  dup3\n    /* \"#utility.yul\":4249:4253   */\n  dup6\n    /* \"#utility.yul\":4203:4270   */\n  tag_45\n  jump\t// in\ntag_100:\n    /* \"#utility.yul\":4297:4298   */\n  0x00\n    /* \"#utility.yul\":4321:4325   */\n  0x20\n    /* \"#utility.yul\":4308:4325   */\n  swap1\n  pop\n    /* \"#utility.yul\":4353:4355   */\n  0x1f\n    /* \"#utility.yul\":4345:4351   */\n  dup4\n    /* \"#utility.yul\":4342:4356   */\n  gt\n    /* \"#utility.yul\":4370:4371   */\n  0x01\n    /* \"#utility.yul\":4365:4983   */\n  dup2\n  eq\n  tag_102\n  jumpi\n    /* \"#utility.yul\":5027:5028   */\n  0x00\n    /* \"#utility.yul\":5044:5050   */\n  dup5\n    /* \"#utility.yul\":5041:5118   */\n  iszero\n  tag_103\n  jumpi\n    /* \"#utility.yul\":5093:5102   */\n  dup3\n    /* \"#utility.yul\":5088:5091   */\n  dup8\n    /* \"#utility.yul\":5084:5103   */\n  add\n    /* \"#utility.yul\":5078:5104   */\n  mload\n    /* \"#utility.yul\":5069:5104   */\n  swap1\n  pop\n    /* \"#utility.yul\":5041:5118   */\ntag_103:\n    /* \"#utility.yul\":5144:5211   */\n  tag_104\n    /* \"#utility.yul\":5204:5210   */\n  dup6\n    /* \"#utility.yul\":5197:5202   */\n  dup3\n    /* \"#utility.yul\":5144:5211   */\n  tag_48\n  jump\t// in\ntag_104:\n    /* \"#utility.yul\":5138:5142   */\n  dup7\n    /* \"#utility.yul\":5131:5212   */\n  sstore\n    /* \"#utility.yul\":5000:5222   */\n  pop\n    /* \"#utility.yul\":4335:5222   */\n  jump(tag_101)\n    /* \"#utility.yul\":4365:4983   */\ntag_102:\n    /* \"#utility.yul\":4417:4421   */\n  0x1f\n    /* \"#utility.yul\":4413:4422   */\n  not\n    /* \"#utility.yul\":4405:4411   */\n  dup5\n    /* \"#utility.yul\":4401:4423   */\n  and\n    /* \"#utility.yul\":4451:4488   */\n  tag_105\n    /* \"#utility.yul\":4483:4487   */\n  dup7\n    /* \"#utility.yul\":4451:4488   */\n  tag_33\n  jump\t// in\ntag_105:\n    /* \"#utility.yul\":4510:4511   */\n  0x00\n    /* \"#utility.yul\":4524:4732   */\ntag_106:\n    /* \"#utility.yul\":4538:4545   */\n  dup3\n    /* \"#utility.yul\":4535:4536   */\n  dup2\n    /* \"#utility.yul\":4532:4546   */\n  lt\n    /* \"#utility.yul\":4524:4732   */\n  iszero\n  tag_108\n  jumpi\n    /* \"#utility.yul\":4617:4626   */\n  dup5\n    /* \"#utility.yul\":4612:4615   */\n  dup10\n    /* \"#utility.yul\":4608:4627   */\n  add\n    /* \"#utility.yul\":4602:4628   */\n  mload\n    /* \"#utility.yul\":4594:4600   */\n  dup3\n    /* \"#utility.yul\":4587:4629   */\n  sstore\n    /* \"#utility.yul\":4668:4669   */\n  0x01\n    /* \"#utility.yul\":4660:4666   */\n  dup3\n    /* \"#utility.yul\":4656:4670   */\n  add\n    /* \"#utility.yul\":4646:4670   */\n  swap2\n  pop\n    /* \"#utility.yul\":4715:4717   */\n  0x20\n    /* \"#utility.yul\":4704:4713   */\n  dup6\n    /* \"#utility.yul\":4700:4718   */\n  add\n    /* \"#utility.yul\":4687:4718   */\n  swap5\n  pop\n    /* \"#utility.yul\":4561:4565   */\n  0x20\n    /* \"#utility.yul\":4558:4559   */\n  dup2\n    /* \"#utility.yul\":4554:4566   */\n  add\n    /* \"#utility.yul\":4549:4566   */\n  swap1\n  pop\n    /* \"#utility.yul\":4524:4732   */\n  jump(tag_106)\ntag_108:\n    /* \"#utility.yul\":4760:4766   */\n  dup7\n    /* \"#utility.yul\":4751:4758   */\n  dup4\n    /* \"#utility.yul\":4748:4767   */\n  lt\n    /* \"#utility.yul\":4745:4924   */\n  iszero\n  tag_109\n  jumpi\n    /* \"#utility.yul\":4818:4827   */\n  dup5\n    /* \"#utility.yul\":4813:4816   */\n  dup10\n    /* \"#utility.yul\":4809:4828   */\n  add\n    /* \"#utility.yul\":4803:4829   */\n  mload\n    /* \"#utility.yul\":4861:4909   */\n  tag_110\n    /* \"#utility.yul\":4903:4907   */\n  0x1f\n    /* \"#utility.yul\":4895:4901   */\n  dup10\n    /* \"#utility.yul\":4891:4908   */\n  and\n    /* \"#utility.yul\":4880:4889   */\n  dup3\n    /* \"#utility.yul\":4861:4909   */\n  tag_47\n  jump\t// in\ntag_110:\n    /* \"#utility.yul\":4853:4859   */\n  dup4\n    /* \"#utility.yul\":4846:4910   */\n  sstore\n    /* \"#utility.yul\":4768:4924   */\n  pop\n    /* \"#utility.yul\":4745:4924   */\ntag_109:\n    /* \"#utility.yul\":4970:4971   */\n  0x01\n    /* \"#utility.yul\":4966:4967   */\n  0x02\n    /* \"#utility.yul\":4958:4964   */\n  dup9\n    /* \"#utility.yul\":4954:4968   */\n  mul\n    /* \"#utility.yul\":4950:4972   */\n  add\n    /* \"#utility.yul\":4944:4948   */\n  dup9\n    /* \"#utility.yul\":4937:4973   */\n  sstore\n    /* \"#utility.yul\":4372:4983   */\n  pop\n  pop\n  pop\n    /* \"#utility.yul\":4335:5222   */\ntag_101:\n  pop\n    /* \"#utility.yul\":3925:5228   */\n  pop\n  pop\n  pop\n    /* \"#utility.yul\":3833:5228   */\n  pop\n  pop\n  jump\t// out\n    /* \"week5_practice/ex5_4.sol\":70:553  contract Ex5_4 {... */\ntag_6:\n  dataSize(sub_0)\n  dup1\n  dataOffset(sub_0)\n  0x00\n  codecopy\n  0x00\n  return\nstop\n\nsub_0: assembly {\n        /* \"week5_practice/ex5_4.sol\":70:553  contract Ex5_4 {... */\n      mstore(0x40, 0x80)\n      callvalue\n      dup1\n      iszero\n      tag_1\n      jumpi\n      0x00\n      dup1\n      revert\n    tag_1:\n      pop\n      jumpi(tag_2, lt(calldatasize, 0x04))\n      shr(0xe0, calldataload(0x00))\n      dup1\n      0x0df904c3\n      eq\n      tag_3\n      jumpi\n      dup1\n      0x2aab02d0\n      eq\n      tag_4\n      jumpi\n      dup1\n      0x4bae89cb\n      eq\n      tag_5\n      jumpi\n      dup1\n      0x61125b63\n      eq\n      tag_6\n      jumpi\n      dup1\n      0x64924310\n      eq\n      tag_7\n      jumpi\n      dup1\n      0xed85188e\n      eq\n      tag_8\n      jumpi\n    tag_2:\n      0x00\n      dup1\n      revert\n        /* \"week5_practice/ex5_4.sol\":459:550  function changeArray2(uint idx, string memory val) public{... */\n    tag_3:\n      tag_9\n      0x04\n      dup1\n      calldatasize\n      sub\n      dup2\n      add\n      swap1\n      tag_10\n      swap2\n      swap1\n      tag_11\n      jump\t// in\n    tag_10:\n      tag_12\n      jump\t// in\n    tag_9:\n      stop\n        /* \"week5_practice/ex5_4.sol\":282:368  function getLength2() public view returns(uint){... */\n    tag_4:\n      tag_13\n      tag_14\n      jump\t// in\n    tag_13:\n      mload(0x40)\n      tag_15\n      swap2\n      swap1\n      tag_16\n      jump\t// in\n    tag_15:\n      mload(0x40)\n      dup1\n      swap2\n      sub\n      swap1\n      return\n        /* \"week5_practice/ex5_4.sol\":92:120  uint[] public array1=[97,98] */\n    tag_5:\n      tag_17\n      0x04\n      dup1\n      calldatasize\n      sub\n      dup2\n      add\n      swap1\n      tag_18\n      swap2\n      swap1\n      tag_19\n      jump\t// in\n    tag_18:\n      tag_20\n      jump\t// in\n    tag_17:\n      mload(0x40)\n      tag_21\n      swap2\n      swap1\n      tag_16\n      jump\t// in\n    tag_21:\n      mload(0x40)\n      dup1\n      swap2\n      sub\n      swap1\n      return\n        /* \"week5_practice/ex5_4.sol\":127:181  string[5] public array2=[\"apple\", \"banana\", \"coconut\"] */\n    tag_6:\n      tag_22\n      0x04\n      dup1\n      calldatasize\n      sub\n      dup2\n      add\n      swap1\n      tag_23\n      swap2\n      swap1\n      tag_19\n      jump\t// in\n    tag_23:\n      tag_24\n      jump\t// in\n    tag_22:\n      mload(0x40)\n      tag_25\n      swap2\n      swap1\n      tag_26\n      jump\t// in\n    tag_25:\n      mload(0x40)\n      dup1\n      swap2\n      sub\n      swap1\n      return\n        /* \"week5_practice/ex5_4.sol\":376:453  function addArray1(uint _value) public {... */\n    tag_7:\n      tag_27\n      0x04\n      dup1\n      calldatasize\n      sub\n      dup2\n      add\n      swap1\n      tag_28\n      swap2\n      swap1\n      tag_19\n      jump\t// in\n    tag_28:\n      tag_29\n      jump\t// in\n    tag_27:\n      stop\n        /* \"week5_practice/ex5_4.sol\":190:276  function getLength1() public view returns(uint){... */\n    tag_8:\n      tag_30\n      tag_31\n      jump\t// in\n    tag_30:\n      mload(0x40)\n      tag_32\n      swap2\n      swap1\n      tag_16\n      jump\t// in\n    tag_32:\n      mload(0x40)\n      dup1\n      swap2\n      sub\n      swap1\n      return\n        /* \"week5_practice/ex5_4.sol\":459:550  function changeArray2(uint idx, string memory val) public{... */\n    tag_12:\n        /* \"week5_practice/ex5_4.sol\":539:542  val */\n      dup1\n        /* \"week5_practice/ex5_4.sol\":527:533  array2 */\n      0x01\n        /* \"week5_practice/ex5_4.sol\":534:537  idx */\n      dup4\n        /* \"week5_practice/ex5_4.sol\":527:538  array2[idx] */\n      0x05\n      dup2\n      lt\n      tag_34\n      jumpi\n      tag_35\n      tag_36\n      jump\t// in\n    tag_35:\n    tag_34:\n      add\n        /* \"week5_practice/ex5_4.sol\":527:542  array2[idx]=val */\n      swap1\n      dup2\n      tag_38\n      swap2\n      swap1\n      tag_39\n      jump\t// in\n    tag_38:\n      pop\n        /* \"week5_practice/ex5_4.sol\":459:550  function changeArray2(uint idx, string memory val) public{... */\n      pop\n      pop\n      jump\t// out\n        /* \"week5_practice/ex5_4.sol\":282:368  function getLength2() public view returns(uint){... */\n    tag_14:\n        /* \"week5_practice/ex5_4.sol\":324:328  uint */\n      0x00\n        /* \"week5_practice/ex5_4.sol\":347:360  array2.length */\n      0x05\n        /* \"week5_practice/ex5_4.sol\":340:360  return array2.length */\n      swap1\n      pop\n        /* \"week5_practice/ex5_4.sol\":282:368  function getLength2() public view returns(uint){... */\n      swap1\n      jump\t// out\n        /* \"week5_practice/ex5_4.sol\":92:120  uint[] public array1=[97,98] */\n    tag_20:\n      0x00\n      dup2\n      dup2\n      sload\n      dup2\n      lt\n      tag_41\n      jumpi\n      0x00\n      dup1\n      revert\n    tag_41:\n      swap1\n      0x00\n      mstore\n      keccak256(0x00, 0x20)\n      add\n      0x00\n      swap2\n      pop\n      swap1\n      pop\n      sload\n      dup2\n      jump\t// out\n        /* \"week5_practice/ex5_4.sol\":127:181  string[5] public array2=[\"apple\", \"banana\", \"coconut\"] */\n    tag_24:\n      0x01\n      dup2\n      0x05\n      dup2\n      lt\n      tag_43\n      jumpi\n      0x00\n      dup1\n      revert\n    tag_43:\n      add\n      0x00\n      swap2\n      pop\n      swap1\n      pop\n      dup1\n      sload\n      tag_45\n      swap1\n      tag_46\n      jump\t// in\n    tag_45:\n      dup1\n      0x1f\n      add\n      0x20\n      dup1\n      swap2\n      div\n      mul\n      0x20\n      add\n      mload(0x40)\n      swap1\n      dup2\n      add\n      0x40\n      mstore\n      dup1\n      swap3\n      swap2\n      swap1\n      dup2\n      dup2\n      mstore\n      0x20\n      add\n      dup3\n      dup1\n      sload\n      tag_47\n      swap1\n      tag_46\n      jump\t// in\n    tag_47:\n      dup1\n      iszero\n      tag_48\n      jumpi\n      dup1\n      0x1f\n      lt\n      tag_49\n      jumpi\n      0x0100\n      dup1\n      dup4\n      sload\n      div\n      mul\n      dup4\n      mstore\n      swap2\n      0x20\n      add\n      swap2\n      jump(tag_48)\n    tag_49:\n      dup3\n      add\n      swap2\n      swap1\n      0x00\n      mstore\n      keccak256(0x00, 0x20)\n      swap1\n    tag_50:\n      dup2\n      sload\n      dup2\n      mstore\n      swap1\n      0x01\n      add\n      swap1\n      0x20\n      add\n      dup1\n      dup4\n      gt\n      tag_50\n      jumpi\n      dup3\n      swap1\n      sub\n      0x1f\n      and\n      dup3\n      add\n      swap2\n    tag_48:\n      pop\n      pop\n      pop\n      pop\n      pop\n      dup2\n      jump\t// out\n        /* \"week5_practice/ex5_4.sol\":376:453  function addArray1(uint _value) public {... */\n    tag_29:\n        /* \"week5_practice/ex5_4.sol\":426:432  array1 */\n      0x00\n        /* \"week5_practice/ex5_4.sol\":438:444  _value */\n      dup2\n        /* \"week5_practice/ex5_4.sol\":426:445  array1.push(_value) */\n      swap1\n      dup1\n      0x01\n      dup2\n      sload\n      add\n      dup1\n      dup3\n      sstore\n      dup1\n      swap2\n      pop\n      pop\n      0x01\n      swap1\n      sub\n      swap1\n      0x00\n      mstore\n      keccak256(0x00, 0x20)\n      add\n      0x00\n      swap1\n      swap2\n      swap1\n      swap2\n      swap1\n      swap2\n      pop\n      sstore\n        /* \"week5_practice/ex5_4.sol\":376:453  function addArray1(uint _value) public {... */\n      pop\n      jump\t// out\n        /* \"week5_practice/ex5_4.sol\":190:276  function getLength1() public view returns(uint){... */\n    tag_31:\n        /* \"week5_practice/ex5_4.sol\":232:236  uint */\n      0x00\n        /* \"week5_practice/ex5_4.sol\":255:261  array1 */\n      dup1\n        /* \"week5_practice/ex5_4.sol\":255:268  array1.length */\n      dup1\n      sload\n      swap1\n      pop\n        /* \"week5_practice/ex5_4.sol\":248:268  return array1.length */\n      swap1\n      pop\n        /* \"week5_practice/ex5_4.sol\":190:276  function getLength1() public view returns(uint){... */\n      swap1\n      jump\t// out\n        /* \"#utility.yul\":7:82   */\n    tag_54:\n        /* \"#utility.yul\":40:46   */\n      0x00\n        /* \"#utility.yul\":73:75   */\n      0x40\n        /* \"#utility.yul\":67:76   */\n      mload\n        /* \"#utility.yul\":57:76   */\n      swap1\n      pop\n        /* \"#utility.yul\":7:82   */\n      swap1\n      jump\t// out\n        /* \"#utility.yul\":88:205   */\n    tag_55:\n        /* \"#utility.yul\":197:198   */\n      0x00\n        /* \"#utility.yul\":194:195   */\n      dup1\n        /* \"#utility.yul\":187:199   */\n      revert\n        /* \"#utility.yul\":211:328   */\n    tag_56:\n        /* \"#utility.yul\":320:321   */\n      0x00\n        /* \"#utility.yul\":317:318   */\n      dup1\n        /* \"#utility.yul\":310:322   */\n      revert\n        /* \"#utility.yul\":334:411   */\n    tag_57:\n        /* \"#utility.yul\":371:378   */\n      0x00\n        /* \"#utility.yul\":400:405   */\n      dup2\n        /* \"#utility.yul\":389:405   */\n      swap1\n      pop\n        /* \"#utility.yul\":334:411   */\n      swap2\n      swap1\n      pop\n      jump\t// out\n        /* \"#utility.yul\":417:539   */\n    tag_58:\n        /* \"#utility.yul\":490:514   */\n      tag_97\n        /* \"#utility.yul\":508:513   */\n      dup2\n        /* \"#utility.yul\":490:514   */\n      tag_57\n      jump\t// in\n    tag_97:\n        /* \"#utility.yul\":483:488   */\n      dup2\n        /* \"#utility.yul\":480:515   */\n      eq\n        /* \"#utility.yul\":470:533   */\n      tag_98\n      jumpi\n        /* \"#utility.yul\":529:530   */\n      0x00\n        /* \"#utility.yul\":526:527   */\n      dup1\n        /* \"#utility.yul\":519:531   */\n      revert\n        /* \"#utility.yul\":470:533   */\n    tag_98:\n        /* \"#utility.yul\":417:539   */\n      pop\n      jump\t// out\n        /* \"#utility.yul\":545:684   */\n    tag_59:\n        /* \"#utility.yul\":591:596   */\n      0x00\n        /* \"#utility.yul\":629:635   */\n      dup2\n        /* \"#utility.yul\":616:636   */\n      calldataload\n        /* \"#utility.yul\":607:636   */\n      swap1\n      pop\n        /* \"#utility.yul\":645:678   */\n      tag_100\n        /* \"#utility.yul\":672:677   */\n      dup2\n        /* \"#utility.yul\":645:678   */\n      tag_58\n      jump\t// in\n    tag_100:\n        /* \"#utility.yul\":545:684   */\n      swap3\n      swap2\n      pop\n      pop\n      jump\t// out\n        /* \"#utility.yul\":690:807   */\n    tag_60:\n        /* \"#utility.yul\":799:800   */\n      0x00\n        /* \"#utility.yul\":796:797   */\n      dup1\n        /* \"#utility.yul\":789:801   */\n      revert\n        /* \"#utility.yul\":813:930   */\n    tag_61:\n        /* \"#utility.yul\":922:923   */\n      0x00\n        /* \"#utility.yul\":919:920   */\n      dup1\n        /* \"#utility.yul\":912:924   */\n      revert\n        /* \"#utility.yul\":936:1038   */\n    tag_62:\n        /* \"#utility.yul\":977:983   */\n      0x00\n        /* \"#utility.yul\":1028:1030   */\n      0x1f\n        /* \"#utility.yul\":1024:1031   */\n      not\n        /* \"#utility.yul\":1019:1021   */\n      0x1f\n        /* \"#utility.yul\":1012:1017   */\n      dup4\n        /* \"#utility.yul\":1008:1022   */\n      add\n        /* \"#utility.yul\":1004:1032   */\n      and\n        /* \"#utility.yul\":994:1032   */\n      swap1\n      pop\n        /* \"#utility.yul\":936:1038   */\n      swap2\n      swap1\n      pop\n      jump\t// out\n        /* \"#utility.yul\":1044:1224   */\n    tag_63:\n        /* \"#utility.yul\":1092:1169   */\n      0x4e487b7100000000000000000000000000000000000000000000000000000000\n        /* \"#utility.yul\":1089:1090   */\n      0x00\n        /* \"#utility.yul\":1082:1170   */\n      mstore\n        /* \"#utility.yul\":1189:1193   */\n      0x41\n        /* \"#utility.yul\":1186:1187   */\n      0x04\n        /* \"#utility.yul\":1179:1194   */\n      mstore\n        /* \"#utility.yul\":1213:1217   */\n      0x24\n        /* \"#utility.yul\":1210:1211   */\n      0x00\n        /* \"#utility.yul\":1203:1218   */\n      revert\n        /* \"#utility.yul\":1230:1511   */\n    tag_64:\n        /* \"#utility.yul\":1313:1340   */\n      tag_106\n        /* \"#utility.yul\":1335:1339   */\n      dup3\n        /* \"#utility.yul\":1313:1340   */\n      tag_62\n      jump\t// in\n    tag_106:\n        /* \"#utility.yul\":1305:1311   */\n      dup2\n        /* \"#utility.yul\":1301:1341   */\n      add\n        /* \"#utility.yul\":1443:1449   */\n      dup2\n        /* \"#utility.yul\":1431:1441   */\n      dup2\n        /* \"#utility.yul\":1428:1450   */\n      lt\n        /* \"#utility.yul\":1407:1425   */\n      0xffffffffffffffff\n        /* \"#utility.yul\":1395:1405   */\n      dup3\n        /* \"#utility.yul\":1392:1426   */\n      gt\n        /* \"#utility.yul\":1389:1451   */\n      or\n        /* \"#utility.yul\":1386:1474   */\n      iszero\n      tag_107\n      jumpi\n        /* \"#utility.yul\":1454:1472   */\n      tag_108\n      tag_63\n      jump\t// in\n    tag_108:\n        /* \"#utility.yul\":1386:1474   */\n    tag_107:\n        /* \"#utility.yul\":1494:1504   */\n      dup1\n        /* \"#utility.yul\":1490:1492   */\n      0x40\n        /* \"#utility.yul\":1483:1505   */\n      mstore\n        /* \"#utility.yul\":1273:1511   */\n      pop\n        /* \"#utility.yul\":1230:1511   */\n      pop\n      pop\n      jump\t// out\n        /* \"#utility.yul\":1517:1646   */\n    tag_65:\n        /* \"#utility.yul\":1551:1557   */\n      0x00\n        /* \"#utility.yul\":1578:1598   */\n      tag_110\n      tag_54\n      jump\t// in\n    tag_110:\n        /* \"#utility.yul\":1568:1598   */\n      swap1\n      pop\n        /* \"#utility.yul\":1607:1640   */\n      tag_111\n        /* \"#utility.yul\":1635:1639   */\n      dup3\n        /* \"#utility.yul\":1627:1633   */\n      dup3\n        /* \"#utility.yul\":1607:1640   */\n      tag_64\n      jump\t// in\n    tag_111:\n        /* \"#utility.yul\":1517:1646   */\n      swap2\n      swap1\n      pop\n      jump\t// out\n        /* \"#utility.yul\":1652:1960   */\n    tag_66:\n        /* \"#utility.yul\":1714:1718   */\n      0x00\n        /* \"#utility.yul\":1804:1822   */\n      0xffffffffffffffff\n        /* \"#utility.yul\":1796:1802   */\n      dup3\n        /* \"#utility.yul\":1793:1823   */\n      gt\n        /* \"#utility.yul\":1790:1846   */\n      iszero\n      tag_113\n      jumpi\n        /* \"#utility.yul\":1826:1844   */\n      tag_114\n      tag_63\n      jump\t// in\n    tag_114:\n        /* \"#utility.yul\":1790:1846   */\n    tag_113:\n        /* \"#utility.yul\":1864:1893   */\n      tag_115\n        /* \"#utility.yul\":1886:1892   */\n      dup3\n        /* \"#utility.yul\":1864:1893   */\n      tag_62\n      jump\t// in\n    tag_115:\n        /* \"#utility.yul\":1856:1893   */\n      swap1\n      pop\n        /* \"#utility.yul\":1948:1952   */\n      0x20\n        /* \"#utility.yul\":1942:1946   */\n      dup2\n        /* \"#utility.yul\":1938:1953   */\n      add\n        /* \"#utility.yul\":1930:1953   */\n      swap1\n      pop\n        /* \"#utility.yul\":1652:1960   */\n      swap2\n      swap1\n      pop\n      jump\t// out\n        /* \"#utility.yul\":1966:2114   */\n    tag_67:\n        /* \"#utility.yul\":2064:2070   */\n      dup3\n        /* \"#utility.yul\":2059:2062   */\n      dup2\n        /* \"#utility.yul\":2054:2057   */\n      dup4\n        /* \"#utility.yul\":2041:2071   */\n      calldatacopy\n        /* \"#utility.yul\":2105:2106   */\n      0x00\n        /* \"#utility.yul\":2096:2102   */\n      dup4\n        /* \"#utility.yul\":2091:2094   */\n      dup4\n        /* \"#utility.yul\":2087:2103   */\n      add\n        /* \"#utility.yul\":2080:2107   */\n      mstore\n        /* \"#utility.yul\":1966:2114   */\n      pop\n      pop\n      pop\n      jump\t// out\n        /* \"#utility.yul\":2120:2545   */\n    tag_68:\n        /* \"#utility.yul\":2198:2203   */\n      0x00\n        /* \"#utility.yul\":2223:2289   */\n      tag_118\n        /* \"#utility.yul\":2239:2288   */\n      tag_119\n        /* \"#utility.yul\":2281:2287   */\n      dup5\n        /* \"#utility.yul\":2239:2288   */\n      tag_66\n      jump\t// in\n    tag_119:\n        /* \"#utility.yul\":2223:2289   */\n      tag_65\n      jump\t// in\n    tag_118:\n        /* \"#utility.yul\":2214:2289   */\n      swap1\n      pop\n        /* \"#utility.yul\":2312:2318   */\n      dup3\n        /* \"#utility.yul\":2305:2310   */\n      dup2\n        /* \"#utility.yul\":2298:2319   */\n      mstore\n        /* \"#utility.yul\":2350:2354   */\n      0x20\n        /* \"#utility.yul\":2343:2348   */\n      dup2\n        /* \"#utility.yul\":2339:2355   */\n      add\n        /* \"#utility.yul\":2388:2391   */\n      dup5\n        /* \"#utility.yul\":2379:2385   */\n      dup5\n        /* \"#utility.yul\":2374:2377   */\n      dup5\n        /* \"#utility.yul\":2370:2386   */\n      add\n        /* \"#utility.yul\":2367:2392   */\n      gt\n        /* \"#utility.yul\":2364:2476   */\n      iszero\n      tag_120\n      jumpi\n        /* \"#utility.yul\":2395:2474   */\n      tag_121\n      tag_61\n      jump\t// in\n    tag_121:\n        /* \"#utility.yul\":2364:2476   */\n    tag_120:\n        /* \"#utility.yul\":2485:2539   */\n      tag_122\n        /* \"#utility.yul\":2532:2538   */\n      dup5\n        /* \"#utility.yul\":2527:2530   */\n      dup3\n        /* \"#utility.yul\":2522:2525   */\n      dup6\n        /* \"#utility.yul\":2485:2539   */\n      tag_67\n      jump\t// in\n    tag_122:\n        /* \"#utility.yul\":2204:2545   */\n      pop\n        /* \"#utility.yul\":2120:2545   */\n      swap4\n      swap3\n      pop\n      pop\n      pop\n      jump\t// out\n        /* \"#utility.yul\":2565:2905   */\n    tag_69:\n        /* \"#utility.yul\":2621:2626   */\n      0x00\n        /* \"#utility.yul\":2670:2673   */\n      dup3\n        /* \"#utility.yul\":2663:2667   */\n      0x1f\n        /* \"#utility.yul\":2655:2661   */\n      dup4\n        /* \"#utility.yul\":2651:2668   */\n      add\n        /* \"#utility.yul\":2647:2674   */\n      slt\n        /* \"#utility.yul\":2637:2759   */\n      tag_124\n      jumpi\n        /* \"#utility.yul\":2678:2757   */\n      tag_125\n      tag_60\n      jump\t// in\n    tag_125:\n        /* \"#utility.yul\":2637:2759   */\n    tag_124:\n        /* \"#utility.yul\":2795:2801   */\n      dup2\n        /* \"#utility.yul\":2782:2802   */\n      calldataload\n        /* \"#utility.yul\":2820:2899   */\n      tag_126\n        /* \"#utility.yul\":2895:2898   */\n      dup5\n        /* \"#utility.yul\":2887:2893   */\n      dup3\n        /* \"#utility.yul\":2880:2884   */\n      0x20\n        /* \"#utility.yul\":2872:2878   */\n      dup7\n        /* \"#utility.yul\":2868:2885   */\n      add\n        /* \"#utility.yul\":2820:2899   */\n      tag_68\n      jump\t// in\n    tag_126:\n        /* \"#utility.yul\":2811:2899   */\n      swap2\n      pop\n        /* \"#utility.yul\":2627:2905   */\n      pop\n        /* \"#utility.yul\":2565:2905   */\n      swap3\n      swap2\n      pop\n      pop\n      jump\t// out\n        /* \"#utility.yul\":2911:3565   */\n    tag_11:\n        /* \"#utility.yul\":2989:2995   */\n      0x00\n        /* \"#utility.yul\":2997:3003   */\n      dup1\n        /* \"#utility.yul\":3046:3048   */\n      0x40\n        /* \"#utility.yul\":3034:3043   */\n      dup4\n        /* \"#utility.yul\":3025:3032   */\n      dup6\n        /* \"#utility.yul\":3021:3044   */\n      sub\n        /* \"#utility.yul\":3017:3049   */\n      slt\n        /* \"#utility.yul\":3014:3133   */\n      iszero\n      tag_128\n      jumpi\n        /* \"#utility.yul\":3052:3131   */\n      tag_129\n      tag_55\n      jump\t// in\n    tag_129:\n        /* \"#utility.yul\":3014:3133   */\n    tag_128:\n        /* \"#utility.yul\":3172:3173   */\n      0x00\n        /* \"#utility.yul\":3197:3250   */\n      tag_130\n        /* \"#utility.yul\":3242:3249   */\n      dup6\n        /* \"#utility.yul\":3233:3239   */\n      dup3\n        /* \"#utility.yul\":3222:3231   */\n      dup7\n        /* \"#utility.yul\":3218:3240   */\n      add\n        /* \"#utility.yul\":3197:3250   */\n      tag_59\n      jump\t// in\n    tag_130:\n        /* \"#utility.yul\":3187:3250   */\n      swap3\n      pop\n        /* \"#utility.yul\":3143:3260   */\n      pop\n        /* \"#utility.yul\":3327:3329   */\n      0x20\n        /* \"#utility.yul\":3316:3325   */\n      dup4\n        /* \"#utility.yul\":3312:3330   */\n      add\n        /* \"#utility.yul\":3299:3331   */\n      calldataload\n        /* \"#utility.yul\":3358:3376   */\n      0xffffffffffffffff\n        /* \"#utility.yul\":3350:3356   */\n      dup2\n        /* \"#utility.yul\":3347:3377   */\n      gt\n        /* \"#utility.yul\":3344:3461   */\n      iszero\n      tag_131\n      jumpi\n        /* \"#utility.yul\":3380:3459   */\n      tag_132\n      tag_56\n      jump\t// in\n    tag_132:\n        /* \"#utility.yul\":3344:3461   */\n    tag_131:\n        /* \"#utility.yul\":3485:3548   */\n      tag_133\n        /* \"#utility.yul\":3540:3547   */\n      dup6\n        /* \"#utility.yul\":3531:3537   */\n      dup3\n        /* \"#utility.yul\":3520:3529   */\n      dup7\n        /* \"#utility.yul\":3516:3538   */\n      add\n        /* \"#utility.yul\":3485:3548   */\n      tag_69\n      jump\t// in\n    tag_133:\n        /* \"#utility.yul\":3475:3548   */\n      swap2\n      pop\n        /* \"#utility.yul\":3270:3558   */\n      pop\n        /* \"#utility.yul\":2911:3565   */\n      swap3\n      pop\n      swap3\n      swap1\n      pop\n      jump\t// out\n        /* \"#utility.yul\":3571:3689   */\n    tag_70:\n        /* \"#utility.yul\":3658:3682   */\n      tag_135\n        /* \"#utility.yul\":3676:3681   */\n      dup2\n        /* \"#utility.yul\":3658:3682   */\n      tag_57\n      jump\t// in\n    tag_135:\n        /* \"#utility.yul\":3653:3656   */\n      dup3\n        /* \"#utility.yul\":3646:3683   */\n      mstore\n        /* \"#utility.yul\":3571:3689   */\n      pop\n      pop\n      jump\t// out\n        /* \"#utility.yul\":3695:3917   */\n    tag_16:\n        /* \"#utility.yul\":3788:3792   */\n      0x00\n        /* \"#utility.yul\":3826:3828   */\n      0x20\n        /* \"#utility.yul\":3815:3824   */\n      dup3\n        /* \"#utility.yul\":3811:3829   */\n      add\n        /* \"#utility.yul\":3803:3829   */\n      swap1\n      pop\n        /* \"#utility.yul\":3839:3910   */\n      tag_137\n        /* \"#utility.yul\":3907:3908   */\n      0x00\n        /* \"#utility.yul\":3896:3905   */\n      dup4\n        /* \"#utility.yul\":3892:3909   */\n      add\n        /* \"#utility.yul\":3883:3889   */\n      dup5\n        /* \"#utility.yul\":3839:3910   */\n      tag_70\n      jump\t// in\n    tag_137:\n        /* \"#utility.yul\":3695:3917   */\n      swap3\n      swap2\n      pop\n      pop\n      jump\t// out\n        /* \"#utility.yul\":3923:4252   */\n    tag_19:\n        /* \"#utility.yul\":3982:3988   */\n      0x00\n        /* \"#utility.yul\":4031:4033   */\n      0x20\n        /* \"#utility.yul\":4019:4028   */\n      dup3\n        /* \"#utility.yul\":4010:4017   */\n      dup5\n        /* \"#utility.yul\":4006:4029   */\n      sub\n        /* \"#utility.yul\":4002:4034   */\n      slt\n        /* \"#utility.yul\":3999:4118   */\n      iszero\n      tag_139\n      jumpi\n        /* \"#utility.yul\":4037:4116   */\n      tag_140\n      tag_55\n      jump\t// in\n    tag_140:\n        /* \"#utility.yul\":3999:4118   */\n    tag_139:\n        /* \"#utility.yul\":4157:4158   */\n      0x00\n        /* \"#utility.yul\":4182:4235   */\n      tag_141\n        /* \"#utility.yul\":4227:4234   */\n      dup5\n        /* \"#utility.yul\":4218:4224   */\n      dup3\n        /* \"#utility.yul\":4207:4216   */\n      dup6\n        /* \"#utility.yul\":4203:4225   */\n      add\n        /* \"#utility.yul\":4182:4235   */\n      tag_59\n      jump\t// in\n    tag_141:\n        /* \"#utility.yul\":4172:4235   */\n      swap2\n      pop\n        /* \"#utility.yul\":4128:4245   */\n      pop\n        /* \"#utility.yul\":3923:4252   */\n      swap3\n      swap2\n      pop\n      pop\n      jump\t// out\n        /* \"#utility.yul\":4258:4357   */\n    tag_71:\n        /* \"#utility.yul\":4310:4316   */\n      0x00\n        /* \"#utility.yul\":4344:4349   */\n      dup2\n        /* \"#utility.yul\":4338:4350   */\n      mload\n        /* \"#utility.yul\":4328:4350   */\n      swap1\n      pop\n        /* \"#utility.yul\":4258:4357   */\n      swap2\n      swap1\n      pop\n      jump\t// out\n        /* \"#utility.yul\":4363:4532   */\n    tag_72:\n        /* \"#utility.yul\":4447:4458   */\n      0x00\n        /* \"#utility.yul\":4481:4487   */\n      dup3\n        /* \"#utility.yul\":4476:4479   */\n      dup3\n        /* \"#utility.yul\":4469:4488   */\n      mstore\n        /* \"#utility.yul\":4521:4525   */\n      0x20\n        /* \"#utility.yul\":4516:4519   */\n      dup3\n        /* \"#utility.yul\":4512:4526   */\n      add\n        /* \"#utility.yul\":4497:4526   */\n      swap1\n      pop\n        /* \"#utility.yul\":4363:4532   */\n      swap3\n      swap2\n      pop\n      pop\n      jump\t// out\n        /* \"#utility.yul\":4538:4677   */\n    tag_73:\n        /* \"#utility.yul\":4627:4633   */\n      dup3\n        /* \"#utility.yul\":4622:4625   */\n      dup2\n        /* \"#utility.yul\":4617:4620   */\n      dup4\n        /* \"#utility.yul\":4611:4634   */\n      mcopy\n        /* \"#utility.yul\":4668:4669   */\n      0x00\n        /* \"#utility.yul\":4659:4665   */\n      dup4\n        /* \"#utility.yul\":4654:4657   */\n      dup4\n        /* \"#utility.yul\":4650:4666   */\n      add\n        /* \"#utility.yul\":4643:4670   */\n      mstore\n        /* \"#utility.yul\":4538:4677   */\n      pop\n      pop\n      pop\n      jump\t// out\n        /* \"#utility.yul\":4683:5060   */\n    tag_74:\n        /* \"#utility.yul\":4771:4774   */\n      0x00\n        /* \"#utility.yul\":4799:4838   */\n      tag_146\n        /* \"#utility.yul\":4832:4837   */\n      dup3\n        /* \"#utility.yul\":4799:4838   */\n      tag_71\n      jump\t// in\n    tag_146:\n        /* \"#utility.yul\":4854:4925   */\n      tag_147\n        /* \"#utility.yul\":4918:4924   */\n      dup2\n        /* \"#utility.yul\":4913:4916   */\n      dup6\n        /* \"#utility.yul\":4854:4925   */\n      tag_72\n      jump\t// in\n    tag_147:\n        /* \"#utility.yul\":4847:4925   */\n      swap4\n      pop\n        /* \"#utility.yul\":4934:4999   */\n      tag_148\n        /* \"#utility.yul\":4992:4998   */\n      dup2\n        /* \"#utility.yul\":4987:4990   */\n      dup6\n        /* \"#utility.yul\":4980:4984   */\n      0x20\n        /* \"#utility.yul\":4973:4978   */\n      dup7\n        /* \"#utility.yul\":4969:4985   */\n      add\n        /* \"#utility.yul\":4934:4999   */\n      tag_73\n      jump\t// in\n    tag_148:\n        /* \"#utility.yul\":5024:5053   */\n      tag_149\n        /* \"#utility.yul\":5046:5052   */\n      dup2\n        /* \"#utility.yul\":5024:5053   */\n      tag_62\n      jump\t// in\n    tag_149:\n        /* \"#utility.yul\":5019:5022   */\n      dup5\n        /* \"#utility.yul\":5015:5054   */\n      add\n        /* \"#utility.yul\":5008:5054   */\n      swap2\n      pop\n        /* \"#utility.yul\":4775:5060   */\n      pop\n        /* \"#utility.yul\":4683:5060   */\n      swap3\n      swap2\n      pop\n      pop\n      jump\t// out\n        /* \"#utility.yul\":5066:5379   */\n    tag_26:\n        /* \"#utility.yul\":5179:5183   */\n      0x00\n        /* \"#utility.yul\":5217:5219   */\n      0x20\n        /* \"#utility.yul\":5206:5215   */\n      dup3\n        /* \"#utility.yul\":5202:5220   */\n      add\n        /* \"#utility.yul\":5194:5220   */\n      swap1\n      pop\n        /* \"#utility.yul\":5266:5275   */\n      dup2\n        /* \"#utility.yul\":5260:5264   */\n      dup2\n        /* \"#utility.yul\":5256:5276   */\n      sub\n        /* \"#utility.yul\":5252:5253   */\n      0x00\n        /* \"#utility.yul\":5241:5250   */\n      dup4\n        /* \"#utility.yul\":5237:5254   */\n      add\n        /* \"#utility.yul\":5230:5277   */\n      mstore\n        /* \"#utility.yul\":5294:5372   */\n      tag_151\n        /* \"#utility.yul\":5367:5371   */\n      dup2\n        /* \"#utility.yul\":5358:5364   */\n      dup5\n        /* \"#utility.yul\":5294:5372   */\n      tag_74\n      jump\t// in\n    tag_151:\n        /* \"#utility.yul\":5286:5372   */\n      swap1\n      pop\n        /* \"#utility.yul\":5066:5379   */\n      swap3\n      swap2\n      pop\n      pop\n      jump\t// out\n        /* \"#utility.yul\":5385:5565   */\n    tag_36:\n        /* \"#utility.yul\":5433:5510   */\n      0x4e487b7100000000000000000000000000000000000000000000000000000000\n        /* \"#utility.yul\":5430:5431   */\n      0x00\n        /* \"#utility.yul\":5423:5511   */\n      mstore\n        /* \"#utility.yul\":5530:5534   */\n      0x32\n        /* \"#utility.yul\":5527:5528   */\n      0x04\n        /* \"#utility.yul\":5520:5535   */\n      mstore\n        /* \"#utility.yul\":5554:5558   */\n      0x24\n        /* \"#utility.yul\":5551:5552   */\n      0x00\n        /* \"#utility.yul\":5544:5559   */\n      revert\n        /* \"#utility.yul\":5571:5751   */\n    tag_75:\n        /* \"#utility.yul\":5619:5696   */\n      0x4e487b7100000000000000000000000000000000000000000000000000000000\n        /* \"#utility.yul\":5616:5617   */\n      0x00\n        /* \"#utility.yul\":5609:5697   */\n      mstore\n        /* \"#utility.yul\":5716:5720   */\n      0x22\n        /* \"#utility.yul\":5713:5714   */\n      0x04\n        /* \"#utility.yul\":5706:5721   */\n      mstore\n        /* \"#utility.yul\":5740:5744   */\n      0x24\n        /* \"#utility.yul\":5737:5738   */\n      0x00\n        /* \"#utility.yul\":5730:5745   */\n      revert\n        /* \"#utility.yul\":5757:6077   */\n    tag_46:\n        /* \"#utility.yul\":5801:5807   */\n      0x00\n        /* \"#utility.yul\":5838:5839   */\n      0x02\n        /* \"#utility.yul\":5832:5836   */\n      dup3\n        /* \"#utility.yul\":5828:5840   */\n      div\n        /* \"#utility.yul\":5818:5840   */\n      swap1\n      pop\n        /* \"#utility.yul\":5885:5886   */\n      0x01\n        /* \"#utility.yul\":5879:5883   */\n      dup3\n        /* \"#utility.yul\":5875:5887   */\n      and\n        /* \"#utility.yul\":5906:5924   */\n      dup1\n        /* \"#utility.yul\":5896:5977   */\n      tag_155\n      jumpi\n        /* \"#utility.yul\":5962:5966   */\n      0x7f\n        /* \"#utility.yul\":5954:5960   */\n      dup3\n        /* \"#utility.yul\":5950:5967   */\n      and\n        /* \"#utility.yul\":5940:5967   */\n      swap2\n      pop\n        /* \"#utility.yul\":5896:5977   */\n    tag_155:\n        /* \"#utility.yul\":6024:6026   */\n      0x20\n        /* \"#utility.yul\":6016:6022   */\n      dup3\n        /* \"#utility.yul\":6013:6027   */\n      lt\n        /* \"#utility.yul\":5993:6011   */\n      dup2\n        /* \"#utility.yul\":5990:6028   */\n      sub\n        /* \"#utility.yul\":5987:6071   */\n      tag_156\n      jumpi\n        /* \"#utility.yul\":6043:6061   */\n      tag_157\n      tag_75\n      jump\t// in\n    tag_157:\n        /* \"#utility.yul\":5987:6071   */\n    tag_156:\n        /* \"#utility.yul\":5808:6077   */\n      pop\n        /* \"#utility.yul\":5757:6077   */\n      swap2\n      swap1\n      pop\n      jump\t// out\n        /* \"#utility.yul\":6083:6224   */\n    tag_76:\n        /* \"#utility.yul\":6132:6136   */\n      0x00\n        /* \"#utility.yul\":6155:6158   */\n      dup2\n        /* \"#utility.yul\":6147:6158   */\n      swap1\n      pop\n        /* \"#utility.yul\":6178:6181   */\n      dup2\n        /* \"#utility.yul\":6175:6176   */\n      0x00\n        /* \"#utility.yul\":6168:6182   */\n      mstore\n        /* \"#utility.yul\":6212:6216   */\n      0x20\n        /* \"#utility.yul\":6209:6210   */\n      0x00\n        /* \"#utility.yul\":6199:6217   */\n      keccak256\n        /* \"#utility.yul\":6191:6217   */\n      swap1\n      pop\n        /* \"#utility.yul\":6083:6224   */\n      swap2\n      swap1\n      pop\n      jump\t// out\n        /* \"#utility.yul\":6230:6323   */\n    tag_77:\n        /* \"#utility.yul\":6267:6273   */\n      0x00\n        /* \"#utility.yul\":6314:6316   */\n      0x20\n        /* \"#utility.yul\":6309:6311   */\n      0x1f\n        /* \"#utility.yul\":6302:6307   */\n      dup4\n        /* \"#utility.yul\":6298:6312   */\n      add\n        /* \"#utility.yul\":6294:6317   */\n      div\n        /* \"#utility.yul\":6284:6317   */\n      swap1\n      pop\n        /* \"#utility.yul\":6230:6323   */\n      swap2\n      swap1\n      pop\n      jump\t// out\n        /* \"#utility.yul\":6329:6436   */\n    tag_78:\n        /* \"#utility.yul\":6373:6381   */\n      0x00\n        /* \"#utility.yul\":6423:6428   */\n      dup3\n        /* \"#utility.yul\":6417:6421   */\n      dup3\n        /* \"#utility.yul\":6413:6429   */\n      shl\n        /* \"#utility.yul\":6392:6429   */\n      swap1\n      pop\n        /* \"#utility.yul\":6329:6436   */\n      swap3\n      swap2\n      pop\n      pop\n      jump\t// out\n        /* \"#utility.yul\":6442:6835   */\n    tag_79:\n        /* \"#utility.yul\":6511:6517   */\n      0x00\n        /* \"#utility.yul\":6561:6562   */\n      0x08\n        /* \"#utility.yul\":6549:6559   */\n      dup4\n        /* \"#utility.yul\":6545:6563   */\n      mul\n        /* \"#utility.yul\":6584:6681   */\n      tag_162\n        /* \"#utility.yul\":6614:6680   */\n      0xffffffffffffffffffffffffffffffffffffffffffffffffffffffffffffffff\n        /* \"#utility.yul\":6603:6612   */\n      dup3\n        /* \"#utility.yul\":6584:6681   */\n      tag_78\n      jump\t// in\n    tag_162:\n        /* \"#utility.yul\":6702:6741   */\n      tag_163\n        /* \"#utility.yul\":6732:6740   */\n      dup7\n        /* \"#utility.yul\":6721:6730   */\n      dup4\n        /* \"#utility.yul\":6702:6741   */\n      tag_78\n      jump\t// in\n    tag_163:\n        /* \"#utility.yul\":6690:6741   */\n      swap6\n      pop\n        /* \"#utility.yul\":6774:6778   */\n      dup1\n        /* \"#utility.yul\":6770:6779   */\n      not\n        /* \"#utility.yul\":6763:6768   */\n      dup5\n        /* \"#utility.yul\":6759:6780   */\n      and\n        /* \"#utility.yul\":6750:6780   */\n      swap4\n      pop\n        /* \"#utility.yul\":6823:6827   */\n      dup1\n        /* \"#utility.yul\":6813:6821   */\n      dup7\n        /* \"#utility.yul\":6809:6828   */\n      and\n        /* \"#utility.yul\":6802:6807   */\n      dup5\n        /* \"#utility.yul\":6799:6829   */\n      or\n        /* \"#utility.yul\":6789:6829   */\n      swap3\n      pop\n        /* \"#utility.yul\":6518:6835   */\n      pop\n      pop\n        /* \"#utility.yul\":6442:6835   */\n      swap4\n      swap3\n      pop\n      pop\n      pop\n      jump\t// out\n        /* \"#utility.yul\":6841:6901   */\n    tag_80:\n        /* \"#utility.yul\":6869:6872   */\n      0x00\n        /* \"#utility.yul\":6890:6895   */\n      dup2\n        /* \"#utility.yul\":6883:6895   */\n      swap1\n      pop\n        /* \"#utility.yul\":6841:6901   */\n      swap2\n      swap1\n      pop\n      jump\t// out\n        /* \"#utility.yul\":6907:7049   */\n    tag_81:\n        /* \"#utility.yul\":6957:6966   */\n      0x00\n        /* \"#utility.yul\":6990:7043   */\n      tag_166\n        /* \"#utility.yul\":7008:7042   */\n      tag_167\n        /* \"#utility.yul\":7017:7041   */\n      tag_168\n        /* \"#utility.yul\":7035:7040   */\n      dup5\n        /* \"#utility.yul\":7017:7041   */\n      tag_57\n      jump\t// in\n    tag_168:\n        /* \"#utility.yul\":7008:7042   */\n      tag_80\n      jump\t// in\n    tag_167:\n        /* \"#utility.yul\":6990:7043   */\n      tag_57\n      jump\t// in\n    tag_166:\n        /* \"#utility.yul\":6977:7043   */\n      swap1\n      pop\n        /* \"#utility.yul\":6907:7049   */\n      swap2\n      swap1\n      pop\n      jump\t// out\n        /* \"#utility.yul\":7055:7130   */\n    tag_82:\n        /* \"#utility.yul\":7098:7101   */\n      0x00\n        /* \"#utility.yul\":7119:7124   */\n      dup2\n        /* \"#utility.yul\":7112:7124   */\n      swap1\n      pop\n        /* \"#utility.yul\":7055:7130   */\n      swap2\n      swap1\n      pop\n      jump\t// out\n        /* \"#utility.yul\":7136:7405   */\n    tag_83:\n        /* \"#utility.yul\":7246:7285   */\n      tag_171\n        /* \"#utility.yul\":7277:7284   */\n      dup4\n        /* \"#utility.yul\":7246:7285   */\n      tag_81\n      jump\t// in\n    tag_171:\n        /* \"#utility.yul\":7307:7398   */\n      tag_172\n        /* \"#utility.yul\":7356:7397   */\n      tag_173\n        /* \"#utility.yul\":7380:7396   */\n      dup3\n        /* \"#utility.yul\":7356:7397   */\n      tag_82\n      jump\t// in\n    tag_173:\n        /* \"#utility.yul\":7348:7354   */\n      dup5\n        /* \"#utility.yul\":7341:7345   */\n      dup5\n        /* \"#utility.yul\":7335:7346   */\n      sload\n        /* \"#utility.yul\":7307:7398   */\n      tag_79\n      jump\t// in\n    tag_172:\n        /* \"#utility.yul\":7301:7305   */\n      dup3\n        /* \"#utility.yul\":7294:7399   */\n      sstore\n        /* \"#utility.yul\":7212:7405   */\n      pop\n        /* \"#utility.yul\":7136:7405   */\n      pop\n      pop\n      pop\n      jump\t// out\n        /* \"#utility.yul\":7411:7484   */\n    tag_84:\n        /* \"#utility.yul\":7456:7459   */\n      0x00\n        /* \"#utility.yul\":7411:7484   */\n      swap1\n      jump\t// out\n        /* \"#utility.yul\":7490:7679   */\n    tag_85:\n        /* \"#utility.yul\":7567:7599   */\n      tag_176\n      tag_84\n      jump\t// in\n    tag_176:\n        /* \"#utility.yul\":7608:7673   */\n      tag_177\n        /* \"#utility.yul\":7666:7672   */\n      dup2\n        /* \"#utility.yul\":7658:7664   */\n      dup5\n        /* \"#utility.yul\":7652:7656   */\n      dup5\n        /* \"#utility.yul\":7608:7673   */\n      tag_83\n      jump\t// in\n    tag_177:\n        /* \"#utility.yul\":7543:7679   */\n      pop\n        /* \"#utility.yul\":7490:7679   */\n      pop\n      pop\n      jump\t// out\n        /* \"#utility.yul\":7685:7871   */\n    tag_86:\n        /* \"#utility.yul\":7745:7865   */\n    tag_179:\n        /* \"#utility.yul\":7762:7765   */\n      dup2\n        /* \"#utility.yul\":7755:7760   */\n      dup2\n        /* \"#utility.yul\":7752:7766   */\n      lt\n        /* \"#utility.yul\":7745:7865   */\n      iszero\n      tag_181\n      jumpi\n        /* \"#utility.yul\":7816:7855   */\n      tag_182\n        /* \"#utility.yul\":7853:7854   */\n      0x00\n        /* \"#utility.yul\":7846:7851   */\n      dup3\n        /* \"#utility.yul\":7816:7855   */\n      tag_85\n      jump\t// in\n    tag_182:\n        /* \"#utility.yul\":7789:7790   */\n      0x01\n        /* \"#utility.yul\":7782:7787   */\n      dup2\n        /* \"#utility.yul\":7778:7791   */\n      add\n        /* \"#utility.yul\":7769:7791   */\n      swap1\n      pop\n        /* \"#utility.yul\":7745:7865   */\n      jump(tag_179)\n    tag_181:\n        /* \"#utility.yul\":7685:7871   */\n      pop\n      pop\n      jump\t// out\n        /* \"#utility.yul\":7877:8420   */\n    tag_87:\n        /* \"#utility.yul\":7978:7980   */\n      0x1f\n        /* \"#utility.yul\":7973:7976   */\n      dup3\n        /* \"#utility.yul\":7970:7981   */\n      gt\n        /* \"#utility.yul\":7967:8413   */\n      iszero\n      tag_184\n      jumpi\n        /* \"#utility.yul\":8012:8050   */\n      tag_185\n        /* \"#utility.yul\":8044:8049   */\n      dup2\n        /* \"#utility.yul\":8012:8050   */\n      tag_76\n      jump\t// in\n    tag_185:\n        /* \"#utility.yul\":8096:8125   */\n      tag_186\n        /* \"#utility.yul\":8114:8124   */\n      dup5\n        /* \"#utility.yul\":8096:8125   */\n      tag_77\n      jump\t// in\n    tag_186:\n        /* \"#utility.yul\":8086:8094   */\n      dup2\n        /* \"#utility.yul\":8082:8126   */\n      add\n        /* \"#utility.yul\":8279:8281   */\n      0x20\n        /* \"#utility.yul\":8267:8277   */\n      dup6\n        /* \"#utility.yul\":8264:8282   */\n      lt\n        /* \"#utility.yul\":8261:8310   */\n      iszero\n      tag_187\n      jumpi\n        /* \"#utility.yul\":8300:8308   */\n      dup2\n        /* \"#utility.yul\":8285:8308   */\n      swap1\n      pop\n        /* \"#utility.yul\":8261:8310   */\n    tag_187:\n        /* \"#utility.yul\":8323:8403   */\n      tag_188\n        /* \"#utility.yul\":8379:8401   */\n      tag_189\n        /* \"#utility.yul\":8397:8400   */\n      dup6\n        /* \"#utility.yul\":8379:8401   */\n      tag_77\n      jump\t// in\n    tag_189:\n        /* \"#utility.yul\":8369:8377   */\n      dup4\n        /* \"#utility.yul\":8365:8402   */\n      add\n        /* \"#utility.yul\":8352:8363   */\n      dup3\n        /* \"#utility.yul\":8323:8403   */\n      tag_86\n      jump\t// in\n    tag_188:\n        /* \"#utility.yul\":7982:8413   */\n      pop\n      pop\n        /* \"#utility.yul\":7967:8413   */\n    tag_184:\n        /* \"#utility.yul\":7877:8420   */\n      pop\n      pop\n      pop\n      jump\t// out\n        /* \"#utility.yul\":8426:8543   */\n    tag_88:\n        /* \"#utility.yul\":8480:8488   */\n      0x00\n        /* \"#utility.yul\":8530:8535   */\n      dup3\n        /* \"#utility.yul\":8524:8528   */\n      dup3\n        /* \"#utility.yul\":8520:8536   */\n      shr\n        /* \"#utility.yul\":8499:8536   */\n      swap1\n      pop\n        /* \"#utility.yul\":8426:8543   */\n      swap3\n      swap2\n      pop\n      pop\n      jump\t// out\n        /* \"#utility.yul\":8549:8718   */\n    tag_89:\n        /* \"#utility.yul\":8593:8599   */\n      0x00\n        /* \"#utility.yul\":8626:8677   */\n      tag_192\n        /* \"#utility.yul\":8674:8675   */\n      0x00\n        /* \"#utility.yul\":8670:8676   */\n      not\n        /* \"#utility.yul\":8662:8667   */\n      dup5\n        /* \"#utility.yul\":8659:8660   */\n      0x08\n        /* \"#utility.yul\":8655:8668   */\n      mul\n        /* \"#utility.yul\":8626:8677   */\n      tag_88\n      jump\t// in\n    tag_192:\n        /* \"#utility.yul\":8622:8678   */\n      not\n        /* \"#utility.yul\":8707:8711   */\n      dup1\n        /* \"#utility.yul\":8701:8705   */\n      dup4\n        /* \"#utility.yul\":8697:8712   */\n      and\n        /* \"#utility.yul\":8687:8712   */\n      swap2\n      pop\n        /* \"#utility.yul\":8600:8718   */\n      pop\n        /* \"#utility.yul\":8549:8718   */\n      swap3\n      swap2\n      pop\n      pop\n      jump\t// out\n        /* \"#utility.yul\":8723:9018   */\n    tag_90:\n        /* \"#utility.yul\":8799:8803   */\n      0x00\n        /* \"#utility.yul\":8945:8974   */\n      tag_194\n        /* \"#utility.yul\":8970:8973   */\n      dup4\n        /* \"#utility.yul\":8964:8968   */\n      dup4\n        /* \"#utility.yul\":8945:8974   */\n      tag_89\n      jump\t// in\n    tag_194:\n        /* \"#utility.yul\":8937:8974   */\n      swap2\n      pop\n        /* \"#utility.yul\":9007:9010   */\n      dup3\n        /* \"#utility.yul\":9004:9005   */\n      0x02\n        /* \"#utility.yul\":9000:9011   */\n      mul\n        /* \"#utility.yul\":8994:8998   */\n      dup3\n        /* \"#utility.yul\":8991:9012   */\n      or\n        /* \"#utility.yul\":8983:9012   */\n      swap1\n      pop\n        /* \"#utility.yul\":8723:9018   */\n      swap3\n      swap2\n      pop\n      pop\n      jump\t// out\n        /* \"#utility.yul\":9023:10418   */\n    tag_39:\n        /* \"#utility.yul\":9140:9177   */\n      tag_196\n        /* \"#utility.yul\":9173:9176   */\n      dup3\n        /* \"#utility.yul\":9140:9177   */\n      tag_71\n      jump\t// in\n    tag_196:\n        /* \"#utility.yul\":9242:9260   */\n      0xffffffffffffffff\n        /* \"#utility.yul\":9234:9240   */\n      dup2\n        /* \"#utility.yul\":9231:9261   */\n      gt\n        /* \"#utility.yul\":9228:9284   */\n      iszero\n      tag_197\n      jumpi\n        /* \"#utility.yul\":9264:9282   */\n      tag_198\n      tag_63\n      jump\t// in\n    tag_198:\n        /* \"#utility.yul\":9228:9284   */\n    tag_197:\n        /* \"#utility.yul\":9308:9346   */\n      tag_199\n        /* \"#utility.yul\":9340:9344   */\n      dup3\n        /* \"#utility.yul\":9334:9345   */\n      sload\n        /* \"#utility.yul\":9308:9346   */\n      tag_46\n      jump\t// in\n    tag_199:\n        /* \"#utility.yul\":9393:9460   */\n      tag_200\n        /* \"#utility.yul\":9453:9459   */\n      dup3\n        /* \"#utility.yul\":9445:9451   */\n      dup3\n        /* \"#utility.yul\":9439:9443   */\n      dup6\n        /* \"#utility.yul\":9393:9460   */\n      tag_87\n      jump\t// in\n    tag_200:\n        /* \"#utility.yul\":9487:9488   */\n      0x00\n        /* \"#utility.yul\":9511:9515   */\n      0x20\n        /* \"#utility.yul\":9498:9515   */\n      swap1\n      pop\n        /* \"#utility.yul\":9543:9545   */\n      0x1f\n        /* \"#utility.yul\":9535:9541   */\n      dup4\n        /* \"#utility.yul\":9532:9546   */\n      gt\n        /* \"#utility.yul\":9560:9561   */\n      0x01\n        /* \"#utility.yul\":9555:10173   */\n      dup2\n      eq\n      tag_202\n      jumpi\n        /* \"#utility.yul\":10217:10218   */\n      0x00\n        /* \"#utility.yul\":10234:10240   */\n      dup5\n        /* \"#utility.yul\":10231:10308   */\n      iszero\n      tag_203\n      jumpi\n        /* \"#utility.yul\":10283:10292   */\n      dup3\n        /* \"#utility.yul\":10278:10281   */\n      dup8\n        /* \"#utility.yul\":10274:10293   */\n      add\n        /* \"#utility.yul\":10268:10294   */\n      mload\n        /* \"#utility.yul\":10259:10294   */\n      swap1\n      pop\n        /* \"#utility.yul\":10231:10308   */\n    tag_203:\n        /* \"#utility.yul\":10334:10401   */\n      tag_204\n        /* \"#utility.yul\":10394:10400   */\n      dup6\n        /* \"#utility.yul\":10387:10392   */\n      dup3\n        /* \"#utility.yul\":10334:10401   */\n      tag_90\n      jump\t// in\n    tag_204:\n        /* \"#utility.yul\":10328:10332   */\n      dup7\n        /* \"#utility.yul\":10321:10402   */\n      sstore\n        /* \"#utility.yul\":10190:10412   */\n      pop\n        /* \"#utility.yul\":9525:10412   */\n      jump(tag_201)\n        /* \"#utility.yul\":9555:10173   */\n    tag_202:\n        /* \"#utility.yul\":9607:9611   */\n      0x1f\n        /* \"#utility.yul\":9603:9612   */\n      not\n        /* \"#utility.yul\":9595:9601   */\n      dup5\n        /* \"#utility.yul\":9591:9613   */\n      and\n        /* \"#utility.yul\":9641:9678   */\n      tag_205\n        /* \"#utility.yul\":9673:9677   */\n      dup7\n        /* \"#utility.yul\":9641:9678   */\n      tag_76\n      jump\t// in\n    tag_205:\n        /* \"#utility.yul\":9700:9701   */\n      0x00\n        /* \"#utility.yul\":9714:9922   */\n    tag_206:\n        /* \"#utility.yul\":9728:9735   */\n      dup3\n        /* \"#utility.yul\":9725:9726   */\n      dup2\n        /* \"#utility.yul\":9722:9736   */\n      lt\n        /* \"#utility.yul\":9714:9922   */\n      iszero\n      tag_208\n      jumpi\n        /* \"#utility.yul\":9807:9816   */\n      dup5\n        /* \"#utility.yul\":9802:9805   */\n      dup10\n        /* \"#utility.yul\":9798:9817   */\n      add\n        /* \"#utility.yul\":9792:9818   */\n      mload\n        /* \"#utility.yul\":9784:9790   */\n      dup3\n        /* \"#utility.yul\":9777:9819   */\n      sstore\n        /* \"#utility.yul\":9858:9859   */\n      0x01\n        /* \"#utility.yul\":9850:9856   */\n      dup3\n        /* \"#utility.yul\":9846:9860   */\n      add\n        /* \"#utility.yul\":9836:9860   */\n      swap2\n      pop\n        /* \"#utility.yul\":9905:9907   */\n      0x20\n        /* \"#utility.yul\":9894:9903   */\n      dup6\n        /* \"#utility.yul\":9890:9908   */\n      add\n        /* \"#utility.yul\":9877:9908   */\n      swap5\n      pop\n        /* \"#utility.yul\":9751:9755   */\n      0x20\n        /* \"#utility.yul\":9748:9749   */\n      dup2\n        /* \"#utility.yul\":9744:9756   */\n      add\n        /* \"#utility.yul\":9739:9756   */\n      swap1\n      pop\n        /* \"#utility.yul\":9714:9922   */\n      jump(tag_206)\n    tag_208:\n        /* \"#utility.yul\":9950:9956   */\n      dup7\n        /* \"#utility.yul\":9941:9948   */\n      dup4\n        /* \"#utility.yul\":9938:9957   */\n      lt\n        /* \"#utility.yul\":9935:10114   */\n      iszero\n      tag_209\n      jumpi\n        /* \"#utility.yul\":10008:10017   */\n      dup5\n        /* \"#utility.yul\":10003:10006   */\n      dup10\n        /* \"#utility.yul\":9999:10018   */\n      add\n        /* \"#utility.yul\":9993:10019   */\n      mload\n        /* \"#utility.yul\":10051:10099   */\n      tag_210\n        /* \"#utility.yul\":10093:10097   */\n      0x1f\n        /* \"#utility.yul\":10085:10091   */\n      dup10\n        /* \"#utility.yul\":10081:10098   */\n      and\n        /* \"#utility.yul\":10070:10079   */\n      dup3\n        /* \"#utility.yul\":10051:10099   */\n      tag_89\n      jump\t// in\n    tag_210:\n        /* \"#utility.yul\":10043:10049   */\n      dup4\n        /* \"#utility.yul\":10036:10100   */\n      sstore\n        /* \"#utility.yul\":9958:10114   */\n      pop\n        /* \"#utility.yul\":9935:10114   */\n    tag_209:\n        /* \"#utility.yul\":10160:10161   */\n      0x01\n        /* \"#utility.yul\":10156:10157   */\n      0x02\n        /* \"#utility.yul\":10148:10154   */\n      dup9\n        /* \"#utility.yul\":10144:10158   */\n      mul\n        /* \"#utility.yul\":10140:10162   */\n      add\n        /* \"#utility.yul\":10134:10138   */\n      dup9\n        /* \"#utility.yul\":10127:10163   */\n      sstore\n        /* \"#utility.yul\":9562:10173   */\n      pop\n      pop\n      pop\n        /* \"#utility.yul\":9525:10412   */\n    tag_201:\n      pop\n        /* \"#utility.yul\":9115:10418   */\n      pop\n      pop\n      pop\n        /* \"#utility.yul\":9023:10418   */\n      pop\n      pop\n      jump\t// out\n\n    auxdata: 0xa2646970667358221220b368311089a3c472ff0479cfc7d543bcf9156450deb42c27e15f7bb4075cb44464736f6c634300081a0033\n}\n",
				"bytecode": {
					"linkReferences": {},
					"object": "60806040526040518060400160405280606160ff168152602001606260ff168152505f90600261003092919061010d565b5060405180606001604052806040518060400160405280600581526020017f6170706c6500000000000000000000000000000000000000000000000000000081525081526020016040518060400160405280600681526020017f62616e616e61000000000000000000000000000000000000000000000000000081525081526020016040518060400160405280600781526020017f636f636f6e75740000000000000000000000000000000000000000000000000081525081525060019060036100fb92919061015d565b50348015610107575f80fd5b5061052d565b828054828255905f5260205f2090810192821561014c579160200282015b8281111561014b578251829060ff1690559160200191906001019061012b565b5b50905061015991906101a9565b5090565b8260058101928215610198579160200282015b82811115610197578251829081610187919061045e565b5091602001919060010190610170565b5b5090506101a591906101c4565b5090565b5b808211156101c0575f815f9055506001016101aa565b5090565b5b808211156101e3575f81816101da91906101e7565b506001016101c5565b5090565b5080546101f390610288565b5f825580601f106102045750610221565b601f0160209004905f5260205f209081019061022091906101a9565b5b50565b5f81519050919050565b7f4e487b71000000000000000000000000000000000000000000000000000000005f52604160045260245ffd5b7f4e487b71000000000000000000000000000000000000000000000000000000005f52602260045260245ffd5b5f600282049050600182168061029f57607f821691505b6020821081036102b2576102b161025b565b5b50919050565b5f819050815f5260205f209050919050565b5f6020601f8301049050919050565b5f82821b905092915050565b5f600883026103147fffffffffffffffffffffffffffffffffffffffffffffffffffffffffffffffff826102d9565b61031e86836102d9565b95508019841693508086168417925050509392505050565b5f819050919050565b5f819050919050565b5f61036261035d61035884610336565b61033f565b610336565b9050919050565b5f819050919050565b61037b83610348565b61038f61038782610369565b8484546102e5565b825550505050565b5f90565b6103a3610397565b6103ae818484610372565b505050565b5b818110156103d1576103c65f8261039b565b6001810190506103b4565b5050565b601f821115610416576103e7816102b8565b6103f0846102ca565b810160208510156103ff578190505b61041361040b856102ca565b8301826103b3565b50505b505050565b5f82821c905092915050565b5f6104365f198460080261041b565b1980831691505092915050565b5f61044e8383610427565b9150826002028217905092915050565b61046782610224565b67ffffffffffffffff8111156104805761047f61022e565b5b61048a8254610288565b6104958282856103d5565b5f60209050601f8311600181146104c6575f84156104b4578287015190505b6104be8582610443565b865550610525565b601f1984166104d4866102b8565b5f5b828110156104fb578489015182556001820191506020850194506020810190506104d6565b868310156105185784890151610514601f891682610427565b8355505b6001600288020188555050505b505050505050565b6108318061053a5f395ff3fe608060405234801561000f575f80fd5b5060043610610060575f3560e01c80630df904c3146100645780632aab02d0146100805780634bae89cb1461009e57806361125b63146100ce57806364924310146100fe578063ed85188e1461011a575b5f80fd5b61007e600480360381019061007991906103d8565b610138565b005b61008861015f565b6040516100959190610441565b60405180910390f35b6100b860048036038101906100b3919061045a565b610167565b6040516100c59190610441565b60405180910390f35b6100e860048036038101906100e3919061045a565b610186565b6040516100f591906104e5565b60405180910390f35b6101186004803603810190610113919061045a565b610225565b005b61012261024d565b60405161012f9190610441565b60405180910390f35b806001836005811061014d5761014c610505565b5b01908161015a919061072c565b505050565b5f6005905090565b5f8181548110610175575f80fd5b905f5260205f20015f915090505481565b60018160058110610195575f80fd5b015f9150905080546101a69061055f565b80601f01602080910402602001604051908101604052809291908181526020018280546101d29061055f565b801561021d5780601f106101f45761010080835404028352916020019161021d565b820191905f5260205f20905b81548152906001019060200180831161020057829003601f168201915b505050505081565b5f81908060018154018082558091505060019003905f5260205f20015f909190919091505550565b5f8080549050905090565b5f604051905090565b5f80fd5b5f80fd5b5f819050919050565b61027b81610269565b8114610285575f80fd5b50565b5f8135905061029681610272565b92915050565b5f80fd5b5f80fd5b5f601f19601f8301169050919050565b7f4e487b71000000000000000000000000000000000000000000000000000000005f52604160045260245ffd5b6102ea826102a4565b810181811067ffffffffffffffff82111715610309576103086102b4565b5b80604052505050565b5f61031b610258565b905061032782826102e1565b919050565b5f67ffffffffffffffff821115610346576103456102b4565b5b61034f826102a4565b9050602081019050919050565b828183375f83830152505050565b5f61037c6103778461032c565b610312565b905082815260208101848484011115610398576103976102a0565b5b6103a384828561035c565b509392505050565b5f82601f8301126103bf576103be61029c565b5b81356103cf84826020860161036a565b91505092915050565b5f80604083850312156103ee576103ed610261565b5b5f6103fb85828601610288565b925050602083013567ffffffffffffffff81111561041c5761041b610265565b5b610428858286016103ab565b9150509250929050565b61043b81610269565b82525050565b5f6020820190506104545f830184610432565b92915050565b5f6020828403121561046f5761046e610261565b5b5f61047c84828501610288565b91505092915050565b5f81519050919050565b5f82825260208201905092915050565b8281835e5f83830152505050565b5f6104b782610485565b6104c1818561048f565b93506104d181856020860161049f565b6104da816102a4565b840191505092915050565b5f6020820190508181035f8301526104fd81846104ad565b905092915050565b7f4e487b71000000000000000000000000000000000000000000000000000000005f52603260045260245ffd5b7f4e487b71000000000000000000000000000000000000000000000000000000005f52602260045260245ffd5b5f600282049050600182168061057657607f821691505b60208210810361058957610588610532565b5b50919050565b5f819050815f5260205f209050919050565b5f6020601f8301049050919050565b5f82821b905092915050565b5f600883026105eb7fffffffffffffffffffffffffffffffffffffffffffffffffffffffffffffffff826105b0565b6105f586836105b0565b95508019841693508086168417925050509392505050565b5f819050919050565b5f61063061062b61062684610269565b61060d565b610269565b9050919050565b5f819050919050565b61064983610616565b61065d61065582610637565b8484546105bc565b825550505050565b5f90565b610671610665565b61067c818484610640565b505050565b5b8181101561069f576106945f82610669565b600181019050610682565b5050565b601f8211156106e4576106b58161058f565b6106be846105a1565b810160208510156106cd578190505b6106e16106d9856105a1565b830182610681565b50505b505050565b5f82821c905092915050565b5f6107045f19846008026106e9565b1980831691505092915050565b5f61071c83836106f5565b9150826002028217905092915050565b61073582610485565b67ffffffffffffffff81111561074e5761074d6102b4565b5b610758825461055f565b6107638282856106a3565b5f60209050601f831160018114610794575f8415610782578287015190505b61078c8582610711565b8655506107f3565b601f1984166107a28661058f565b5f5b828110156107c9578489015182556001820191506020850194506020810190506107a4565b868310156107e657848901516107e2601f8916826106f5565b8355505b6001600288020188555050505b50505050505056fea2646970667358221220b368311089a3c472ff0479cfc7d543bcf9156450deb42c27e15f7bb4075cb44464736f6c634300081a0033",
					"opcodes": "PUSH1 0x80 PUSH1 0x40 MSTORE PUSH1 0x40 MLOAD DUP1 PUSH1 0x40 ADD PUSH1 0x40 MSTORE DUP1 PUSH1 0x61 PUSH1 0xFF AND DUP2 MSTORE PUSH1 0x20 ADD PUSH1 0x62 PUSH1 0xFF AND DUP2 MSTORE POP PUSH0 SWAP1 PUSH1 0x2 PUSH2 0x30 SWAP3 SWAP2 SWAP1 PUSH2 0x10D JUMP JUMPDEST POP PUSH1 0x40 MLOAD DUP1 PUSH1 0x60 ADD PUSH1 0x40 MSTORE DUP1 PUSH1 0x40 MLOAD DUP1 PUSH1 0x40 ADD PUSH1 0x40 MSTORE DUP1 PUSH1 0x5 DUP2 MSTORE PUSH1 0x20 ADD PUSH32 0x6170706C65000000000000000000000000000000000000000000000000000000 DUP2 MSTORE POP DUP2 MSTORE PUSH1 0x20 ADD PUSH1 0x40 MLOAD DUP1 PUSH1 0x40 ADD PUSH1 0x40 MSTORE DUP1 PUSH1 0x6 DUP2 MSTORE PUSH1 0x20 ADD PUSH32 0x62616E616E610000000000000000000000000000000000000000000000000000 DUP2 MSTORE POP DUP2 MSTORE PUSH1 0x20 ADD PUSH1 0x40 MLOAD DUP1 PUSH1 0x40 ADD PUSH1 0x40 MSTORE DUP1 PUSH1 0x7 DUP2 MSTORE PUSH1 0x20 ADD PUSH32 0x636F636F6E757400000000000000000000000000000000000000000000000000 DUP2 MSTORE POP DUP2 MSTORE POP PUSH1 0x1 SWAP1 PUSH1 0x3 PUSH2 0xFB SWAP3 SWAP2 SWAP1 PUSH2 0x15D JUMP JUMPDEST POP CALLVALUE DUP1 ISZERO PUSH2 0x107 JUMPI PUSH0 DUP1 REVERT JUMPDEST POP PUSH2 0x52D JUMP JUMPDEST DUP3 DUP1 SLOAD DUP3 DUP3 SSTORE SWAP1 PUSH0 MSTORE PUSH1 0x20 PUSH0 KECCAK256 SWAP1 DUP2 ADD SWAP3 DUP3 ISZERO PUSH2 0x14C JUMPI SWAP2 PUSH1 0x20 MUL DUP3 ADD JUMPDEST DUP3 DUP2 GT ISZERO PUSH2 0x14B JUMPI DUP3 MLOAD DUP3 SWAP1 PUSH1 0xFF AND SWAP1 SSTORE SWAP2 PUSH1 0x20 ADD SWAP2 SWAP1 PUSH1 0x1 ADD SWAP1 PUSH2 0x12B JUMP JUMPDEST JUMPDEST POP SWAP1 POP PUSH2 0x159 SWAP2 SWAP1 PUSH2 0x1A9 JUMP JUMPDEST POP SWAP1 JUMP JUMPDEST DUP3 PUSH1 0x5 DUP2 ADD SWAP3 DUP3 ISZERO PUSH2 0x198 JUMPI SWAP2 PUSH1 0x20 MUL DUP3 ADD JUMPDEST DUP3 DUP2 GT ISZERO PUSH2 0x197 JUMPI DUP3 MLOAD DUP3 SWAP1 DUP2 PUSH2 0x187 SWAP2 SWAP1 PUSH2 0x45E JUMP JUMPDEST POP SWAP2 PUSH1 0x20 ADD SWAP2 SWAP1 PUSH1 0x1 ADD SWAP1 PUSH2 0x170 JUMP JUMPDEST JUMPDEST POP SWAP1 POP PUSH2 0x1A5 SWAP2 SWAP1 PUSH2 0x1C4 JUMP JUMPDEST POP SWAP1 JUMP JUMPDEST JUMPDEST DUP1 DUP3 GT ISZERO PUSH2 0x1C0 JUMPI PUSH0 DUP2 PUSH0 SWAP1 SSTORE POP PUSH1 0x1 ADD PUSH2 0x1AA JUMP JUMPDEST POP SWAP1 JUMP JUMPDEST JUMPDEST DUP1 DUP3 GT ISZERO PUSH2 0x1E3 JUMPI PUSH0 DUP2 DUP2 PUSH2 0x1DA SWAP2 SWAP1 PUSH2 0x1E7 JUMP JUMPDEST POP PUSH1 0x1 ADD PUSH2 0x1C5 JUMP JUMPDEST POP SWAP1 JUMP JUMPDEST POP DUP1 SLOAD PUSH2 0x1F3 SWAP1 PUSH2 0x288 JUMP JUMPDEST PUSH0 DUP3 SSTORE DUP1 PUSH1 0x1F LT PUSH2 0x204 JUMPI POP PUSH2 0x221 JUMP JUMPDEST PUSH1 0x1F ADD PUSH1 0x20 SWAP1 DIV SWAP1 PUSH0 MSTORE PUSH1 0x20 PUSH0 KECCAK256 SWAP1 DUP2 ADD SWAP1 PUSH2 0x220 SWAP2 SWAP1 PUSH2 0x1A9 JUMP JUMPDEST JUMPDEST POP JUMP JUMPDEST PUSH0 DUP2 MLOAD SWAP1 POP SWAP2 SWAP1 POP JUMP JUMPDEST PUSH32 0x4E487B7100000000000000000000000000000000000000000000000000000000 PUSH0 MSTORE PUSH1 0x41 PUSH1 0x4 MSTORE PUSH1 0x24 PUSH0 REVERT JUMPDEST PUSH32 0x4E487B7100000000000000000000000000000000000000000000000000000000 PUSH0 MSTORE PUSH1 0x22 PUSH1 0x4 MSTORE PUSH1 0x24 PUSH0 REVERT JUMPDEST PUSH0 PUSH1 0x2 DUP3 DIV SWAP1 POP PUSH1 0x1 DUP3 AND DUP1 PUSH2 0x29F JUMPI PUSH1 0x7F DUP3 AND SWAP2 POP JUMPDEST PUSH1 0x20 DUP3 LT DUP2 SUB PUSH2 0x2B2 JUMPI PUSH2 0x2B1 PUSH2 0x25B JUMP JUMPDEST JUMPDEST POP SWAP2 SWAP1 POP JUMP JUMPDEST PUSH0 DUP2 SWAP1 POP DUP2 PUSH0 MSTORE PUSH1 0x20 PUSH0 KECCAK256 SWAP1 POP SWAP2 SWAP1 POP JUMP JUMPDEST PUSH0 PUSH1 0x20 PUSH1 0x1F DUP4 ADD DIV SWAP1 POP SWAP2 SWAP1 POP JUMP JUMPDEST PUSH0 DUP3 DUP3 SHL SWAP1 POP SWAP3 SWAP2 POP POP JUMP JUMPDEST PUSH0 PUSH1 0x8 DUP4 MUL PUSH2 0x314 PUSH32 0xFFFFFFFFFFFFFFFFFFFFFFFFFFFFFFFFFFFFFFFFFFFFFFFFFFFFFFFFFFFFFFFF DUP3 PUSH2 0x2D9 JUMP JUMPDEST PUSH2 0x31E DUP7 DUP4 PUSH2 0x2D9 JUMP JUMPDEST SWAP6 POP DUP1 NOT DUP5 AND SWAP4 POP DUP1 DUP7 AND DUP5 OR SWAP3 POP POP POP SWAP4 SWAP3 POP POP POP JUMP JUMPDEST PUSH0 DUP2 SWAP1 POP SWAP2 SWAP1 POP JUMP JUMPDEST PUSH0 DUP2 SWAP1 POP SWAP2 SWAP1 POP JUMP JUMPDEST PUSH0 PUSH2 0x362 PUSH2 0x35D PUSH2 0x358 DUP5 PUSH2 0x336 JUMP JUMPDEST PUSH2 0x33F JUMP JUMPDEST PUSH2 0x336 JUMP JUMPDEST SWAP1 POP SWAP2 SWAP1 POP JUMP JUMPDEST PUSH0 DUP2 SWAP1 POP SWAP2 SWAP1 POP JUMP JUMPDEST PUSH2 0x37B DUP4 PUSH2 0x348 JUMP JUMPDEST PUSH2 0x38F PUSH2 0x387 DUP3 PUSH2 0x369 JUMP JUMPDEST DUP5 DUP5 SLOAD PUSH2 0x2E5 JUMP JUMPDEST DUP3 SSTORE POP POP POP POP JUMP JUMPDEST PUSH0 SWAP1 JUMP JUMPDEST PUSH2 0x3A3 PUSH2 0x397 JUMP JUMPDEST PUSH2 0x3AE DUP2 DUP5 DUP5 PUSH2 0x372 JUMP JUMPDEST POP POP POP JUMP JUMPDEST JUMPDEST DUP2 DUP2 LT ISZERO PUSH2 0x3D1 JUMPI PUSH2 0x3C6 PUSH0 DUP3 PUSH2 0x39B JUMP JUMPDEST PUSH1 0x1 DUP2 ADD SWAP1 POP PUSH2 0x3B4 JUMP JUMPDEST POP POP JUMP JUMPDEST PUSH1 0x1F DUP3 GT ISZERO PUSH2 0x416 JUMPI PUSH2 0x3E7 DUP2 PUSH2 0x2B8 JUMP JUMPDEST PUSH2 0x3F0 DUP5 PUSH2 0x2CA JUMP JUMPDEST DUP2 ADD PUSH1 0x20 DUP6 LT ISZERO PUSH2 0x3FF JUMPI DUP2 SWAP1 POP JUMPDEST PUSH2 0x413 PUSH2 0x40B DUP6 PUSH2 0x2CA JUMP JUMPDEST DUP4 ADD DUP3 PUSH2 0x3B3 JUMP JUMPDEST POP POP JUMPDEST POP POP POP JUMP JUMPDEST PUSH0 DUP3 DUP3 SHR SWAP1 POP SWAP3 SWAP2 POP POP JUMP JUMPDEST PUSH0 PUSH2 0x436 PUSH0 NOT DUP5 PUSH1 0x8 MUL PUSH2 0x41B JUMP JUMPDEST NOT DUP1 DUP4 AND SWAP2 POP POP SWAP3 SWAP2 POP POP JUMP JUMPDEST PUSH0 PUSH2 0x44E DUP4 DUP4 PUSH2 0x427 JUMP JUMPDEST SWAP2 POP DUP3 PUSH1 0x2 MUL DUP3 OR SWAP1 POP SWAP3 SWAP2 POP POP JUMP JUMPDEST PUSH2 0x467 DUP3 PUSH2 0x224 JUMP JUMPDEST PUSH8 0xFFFFFFFFFFFFFFFF DUP2 GT ISZERO PUSH2 0x480 JUMPI PUSH2 0x47F PUSH2 0x22E JUMP JUMPDEST JUMPDEST PUSH2 0x48A DUP3 SLOAD PUSH2 0x288 JUMP JUMPDEST PUSH2 0x495 DUP3 DUP3 DUP6 PUSH2 0x3D5 JUMP JUMPDEST PUSH0 PUSH1 0x20 SWAP1 POP PUSH1 0x1F DUP4 GT PUSH1 0x1 DUP2 EQ PUSH2 0x4C6 JUMPI PUSH0 DUP5 ISZERO PUSH2 0x4B4 JUMPI DUP3 DUP8 ADD MLOAD SWAP1 POP JUMPDEST PUSH2 0x4BE DUP6 DUP3 PUSH2 0x443 JUMP JUMPDEST DUP7 SSTORE POP PUSH2 0x525 JUMP JUMPDEST PUSH1 0x1F NOT DUP5 AND PUSH2 0x4D4 DUP7 PUSH2 0x2B8 JUMP JUMPDEST PUSH0 JUMPDEST DUP3 DUP2 LT ISZERO PUSH2 0x4FB JUMPI DUP5 DUP10 ADD MLOAD DUP3 SSTORE PUSH1 0x1 DUP3 ADD SWAP2 POP PUSH1 0x20 DUP6 ADD SWAP5 POP PUSH1 0x20 DUP2 ADD SWAP1 POP PUSH2 0x4D6 JUMP JUMPDEST DUP7 DUP4 LT ISZERO PUSH2 0x518 JUMPI DUP5 DUP10 ADD MLOAD PUSH2 0x514 PUSH1 0x1F DUP10 AND DUP3 PUSH2 0x427 JUMP JUMPDEST DUP4 SSTORE POP JUMPDEST PUSH1 0x1 PUSH1 0x2 DUP9 MUL ADD DUP9 SSTORE POP POP POP JUMPDEST POP POP POP POP POP POP JUMP JUMPDEST PUSH2 0x831 DUP1 PUSH2 0x53A PUSH0 CODECOPY PUSH0 RETURN INVALID PUSH1 0x80 PUSH1 0x40 MSTORE CALLVALUE DUP1 ISZERO PUSH2 0xF JUMPI PUSH0 DUP1 REVERT JUMPDEST POP PUSH1 0x4 CALLDATASIZE LT PUSH2 0x60 JUMPI PUSH0 CALLDATALOAD PUSH1 0xE0 SHR DUP1 PUSH4 0xDF904C3 EQ PUSH2 0x64 JUMPI DUP1 PUSH4 0x2AAB02D0 EQ PUSH2 0x80 JUMPI DUP1 PUSH4 0x4BAE89CB EQ PUSH2 0x9E JUMPI DUP1 PUSH4 0x61125B63 EQ PUSH2 0xCE JUMPI DUP1 PUSH4 0x64924310 EQ PUSH2 0xFE JUMPI DUP1 PUSH4 0xED85188E EQ PUSH2 0x11A JUMPI JUMPDEST PUSH0 DUP1 REVERT JUMPDEST PUSH2 0x7E PUSH1 0x4 DUP1 CALLDATASIZE SUB DUP2 ADD SWAP1 PUSH2 0x79 SWAP2 SWAP1 PUSH2 0x3D8 JUMP JUMPDEST PUSH2 0x138 JUMP JUMPDEST STOP JUMPDEST PUSH2 0x88 PUSH2 0x15F JUMP JUMPDEST PUSH1 0x40 MLOAD PUSH2 0x95 SWAP2 SWAP1 PUSH2 0x441 JUMP JUMPDEST PUSH1 0x40 MLOAD DUP1 SWAP2 SUB SWAP1 RETURN JUMPDEST PUSH2 0xB8 PUSH1 0x4 DUP1 CALLDATASIZE SUB DUP2 ADD SWAP1 PUSH2 0xB3 SWAP2 SWAP1 PUSH2 0x45A JUMP JUMPDEST PUSH2 0x167 JUMP JUMPDEST PUSH1 0x40 MLOAD PUSH2 0xC5 SWAP2 SWAP1 PUSH2 0x441 JUMP JUMPDEST PUSH1 0x40 MLOAD DUP1 SWAP2 SUB SWAP1 RETURN JUMPDEST PUSH2 0xE8 PUSH1 0x4 DUP1 CALLDATASIZE SUB DUP2 ADD SWAP1 PUSH2 0xE3 SWAP2 SWAP1 PUSH2 0x45A JUMP JUMPDEST PUSH2 0x186 JUMP JUMPDEST PUSH1 0x40 MLOAD PUSH2 0xF5 SWAP2 SWAP1 PUSH2 0x4E5 JUMP JUMPDEST PUSH1 0x40 MLOAD DUP1 SWAP2 SUB SWAP1 RETURN JUMPDEST PUSH2 0x118 PUSH1 0x4 DUP1 CALLDATASIZE SUB DUP2 ADD SWAP1 PUSH2 0x113 SWAP2 SWAP1 PUSH2 0x45A JUMP JUMPDEST PUSH2 0x225 JUMP JUMPDEST STOP JUMPDEST PUSH2 0x122 PUSH2 0x24D JUMP JUMPDEST PUSH1 0x40 MLOAD PUSH2 0x12F SWAP2 SWAP1 PUSH2 0x441 JUMP JUMPDEST PUSH1 0x40 MLOAD DUP1 SWAP2 SUB SWAP1 RETURN JUMPDEST DUP1 PUSH1 0x1 DUP4 PUSH1 0x5 DUP2 LT PUSH2 0x14D JUMPI PUSH2 0x14C PUSH2 0x505 JUMP JUMPDEST JUMPDEST ADD SWAP1 DUP2 PUSH2 0x15A SWAP2 SWAP1 PUSH2 0x72C JUMP JUMPDEST POP POP POP JUMP JUMPDEST PUSH0 PUSH1 0x5 SWAP1 POP SWAP1 JUMP JUMPDEST PUSH0 DUP2 DUP2 SLOAD DUP2 LT PUSH2 0x175 JUMPI PUSH0 DUP1 REVERT JUMPDEST SWAP1 PUSH0 MSTORE PUSH1 0x20 PUSH0 KECCAK256 ADD PUSH0 SWAP2 POP SWAP1 POP SLOAD DUP2 JUMP JUMPDEST PUSH1 0x1 DUP2 PUSH1 0x5 DUP2 LT PUSH2 0x195 JUMPI PUSH0 DUP1 REVERT JUMPDEST ADD PUSH0 SWAP2 POP SWAP1 POP DUP1 SLOAD PUSH2 0x1A6 SWAP1 PUSH2 0x55F JUMP JUMPDEST DUP1 PUSH1 0x1F ADD PUSH1 0x20 DUP1 SWAP2 DIV MUL PUSH1 0x20 ADD PUSH1 0x40 MLOAD SWAP1 DUP2 ADD PUSH1 0x40 MSTORE DUP1 SWAP3 SWAP2 SWAP1 DUP2 DUP2 MSTORE PUSH1 0x20 ADD DUP3 DUP1 SLOAD PUSH2 0x1D2 SWAP1 PUSH2 0x55F JUMP JUMPDEST DUP1 ISZERO PUSH2 0x21D JUMPI DUP1 PUSH1 0x1F LT PUSH2 0x1F4 JUMPI PUSH2 0x100 DUP1 DUP4 SLOAD DIV MUL DUP4 MSTORE SWAP2 PUSH1 0x20 ADD SWAP2 PUSH2 0x21D JUMP JUMPDEST DUP3 ADD SWAP2 SWAP1 PUSH0 MSTORE PUSH1 0x20 PUSH0 KECCAK256 SWAP1 JUMPDEST DUP2 SLOAD DUP2 MSTORE SWAP1 PUSH1 0x1 ADD SWAP1 PUSH1 0x20 ADD DUP1 DUP4 GT PUSH2 0x200 JUMPI DUP3 SWAP1 SUB PUSH1 0x1F AND DUP3 ADD SWAP2 JUMPDEST POP POP POP POP POP DUP2 JUMP JUMPDEST PUSH0 DUP2 SWAP1 DUP1 PUSH1 0x1 DUP2 SLOAD ADD DUP1 DUP3 SSTORE DUP1 SWAP2 POP POP PUSH1 0x1 SWAP1 SUB SWAP1 PUSH0 MSTORE PUSH1 0x20 PUSH0 KECCAK256 ADD PUSH0 SWAP1 SWAP2 SWAP1 SWAP2 SWAP1 SWAP2 POP SSTORE POP JUMP JUMPDEST PUSH0 DUP1 DUP1 SLOAD SWAP1 POP SWAP1 POP SWAP1 JUMP JUMPDEST PUSH0 PUSH1 0x40 MLOAD SWAP1 POP SWAP1 JUMP JUMPDEST PUSH0 DUP1 REVERT JUMPDEST PUSH0 DUP1 REVERT JUMPDEST PUSH0 DUP2 SWAP1 POP SWAP2 SWAP1 POP JUMP JUMPDEST PUSH2 0x27B DUP2 PUSH2 0x269 JUMP JUMPDEST DUP2 EQ PUSH2 0x285 JUMPI PUSH0 DUP1 REVERT JUMPDEST POP JUMP JUMPDEST PUSH0 DUP2 CALLDATALOAD SWAP1 POP PUSH2 0x296 DUP2 PUSH2 0x272 JUMP JUMPDEST SWAP3 SWAP2 POP POP JUMP JUMPDEST PUSH0 DUP1 REVERT JUMPDEST PUSH0 DUP1 REVERT JUMPDEST PUSH0 PUSH1 0x1F NOT PUSH1 0x1F DUP4 ADD AND SWAP1 POP SWAP2 SWAP1 POP JUMP JUMPDEST PUSH32 0x4E487B7100000000000000000000000000000000000000000000000000000000 PUSH0 MSTORE PUSH1 0x41 PUSH1 0x4 MSTORE PUSH1 0x24 PUSH0 REVERT JUMPDEST PUSH2 0x2EA DUP3 PUSH2 0x2A4 JUMP JUMPDEST DUP2 ADD DUP2 DUP2 LT PUSH8 0xFFFFFFFFFFFFFFFF DUP3 GT OR ISZERO PUSH2 0x309 JUMPI PUSH2 0x308 PUSH2 0x2B4 JUMP JUMPDEST JUMPDEST DUP1 PUSH1 0x40 MSTORE POP POP POP JUMP JUMPDEST PUSH0 PUSH2 0x31B PUSH2 0x258 JUMP JUMPDEST SWAP1 POP PUSH2 0x327 DUP3 DUP3 PUSH2 0x2E1 JUMP JUMPDEST SWAP2 SWAP1 POP JUMP JUMPDEST PUSH0 PUSH8 0xFFFFFFFFFFFFFFFF DUP3 GT ISZERO PUSH2 0x346 JUMPI PUSH2 0x345 PUSH2 0x2B4 JUMP JUMPDEST JUMPDEST PUSH2 0x34F DUP3 PUSH2 0x2A4 JUMP JUMPDEST SWAP1 POP PUSH1 0x20 DUP2 ADD SWAP1 POP SWAP2 SWAP1 POP JUMP JUMPDEST DUP3 DUP2 DUP4 CALLDATACOPY PUSH0 DUP4 DUP4 ADD MSTORE POP POP POP JUMP JUMPDEST PUSH0 PUSH2 0x37C PUSH2 0x377 DUP5 PUSH2 0x32C JUMP JUMPDEST PUSH2 0x312 JUMP JUMPDEST SWAP1 POP DUP3 DUP2 MSTORE PUSH1 0x20 DUP2 ADD DUP5 DUP5 DUP5 ADD GT ISZERO PUSH2 0x398 JUMPI PUSH2 0x397 PUSH2 0x2A0 JUMP JUMPDEST JUMPDEST PUSH2 0x3A3 DUP5 DUP3 DUP6 PUSH2 0x35C JUMP JUMPDEST POP SWAP4 SWAP3 POP POP POP JUMP JUMPDEST PUSH0 DUP3 PUSH1 0x1F DUP4 ADD SLT PUSH2 0x3BF JUMPI PUSH2 0x3BE PUSH2 0x29C JUMP JUMPDEST JUMPDEST DUP2 CALLDATALOAD PUSH2 0x3CF DUP5 DUP3 PUSH1 0x20 DUP7 ADD PUSH2 0x36A JUMP JUMPDEST SWAP2 POP POP SWAP3 SWAP2 POP POP JUMP JUMPDEST PUSH0 DUP1 PUSH1 0x40 DUP4 DUP6 SUB SLT ISZERO PUSH2 0x3EE JUMPI PUSH2 0x3ED PUSH2 0x261 JUMP JUMPDEST JUMPDEST PUSH0 PUSH2 0x3FB DUP6 DUP3 DUP7 ADD PUSH2 0x288 JUMP JUMPDEST SWAP3 POP POP PUSH1 0x20 DUP4 ADD CALLDATALOAD PUSH8 0xFFFFFFFFFFFFFFFF DUP2 GT ISZERO PUSH2 0x41C JUMPI PUSH2 0x41B PUSH2 0x265 JUMP JUMPDEST JUMPDEST PUSH2 0x428 DUP6 DUP3 DUP7 ADD PUSH2 0x3AB JUMP JUMPDEST SWAP2 POP POP SWAP3 POP SWAP3 SWAP1 POP JUMP JUMPDEST PUSH2 0x43B DUP2 PUSH2 0x269 JUMP JUMPDEST DUP3 MSTORE POP POP JUMP JUMPDEST PUSH0 PUSH1 0x20 DUP3 ADD SWAP1 POP PUSH2 0x454 PUSH0 DUP4 ADD DUP5 PUSH2 0x432 JUMP JUMPDEST SWAP3 SWAP2 POP POP JUMP JUMPDEST PUSH0 PUSH1 0x20 DUP3 DUP5 SUB SLT ISZERO PUSH2 0x46F JUMPI PUSH2 0x46E PUSH2 0x261 JUMP JUMPDEST JUMPDEST PUSH0 PUSH2 0x47C DUP5 DUP3 DUP6 ADD PUSH2 0x288 JUMP JUMPDEST SWAP2 POP POP SWAP3 SWAP2 POP POP JUMP JUMPDEST PUSH0 DUP2 MLOAD SWAP1 POP SWAP2 SWAP1 POP JUMP JUMPDEST PUSH0 DUP3 DUP3 MSTORE PUSH1 0x20 DUP3 ADD SWAP1 POP SWAP3 SWAP2 POP POP JUMP JUMPDEST DUP3 DUP2 DUP4 MCOPY PUSH0 DUP4 DUP4 ADD MSTORE POP POP POP JUMP JUMPDEST PUSH0 PUSH2 0x4B7 DUP3 PUSH2 0x485 JUMP JUMPDEST PUSH2 0x4C1 DUP2 DUP6 PUSH2 0x48F JUMP JUMPDEST SWAP4 POP PUSH2 0x4D1 DUP2 DUP6 PUSH1 0x20 DUP7 ADD PUSH2 0x49F JUMP JUMPDEST PUSH2 0x4DA DUP2 PUSH2 0x2A4 JUMP JUMPDEST DUP5 ADD SWAP2 POP POP SWAP3 SWAP2 POP POP JUMP JUMPDEST PUSH0 PUSH1 0x20 DUP3 ADD SWAP1 POP DUP2 DUP2 SUB PUSH0 DUP4 ADD MSTORE PUSH2 0x4FD DUP2 DUP5 PUSH2 0x4AD JUMP JUMPDEST SWAP1 POP SWAP3 SWAP2 POP POP JUMP JUMPDEST PUSH32 0x4E487B7100000000000000000000000000000000000000000000000000000000 PUSH0 MSTORE PUSH1 0x32 PUSH1 0x4 MSTORE PUSH1 0x24 PUSH0 REVERT JUMPDEST PUSH32 0x4E487B7100000000000000000000000000000000000000000000000000000000 PUSH0 MSTORE PUSH1 0x22 PUSH1 0x4 MSTORE PUSH1 0x24 PUSH0 REVERT JUMPDEST PUSH0 PUSH1 0x2 DUP3 DIV SWAP1 POP PUSH1 0x1 DUP3 AND DUP1 PUSH2 0x576 JUMPI PUSH1 0x7F DUP3 AND SWAP2 POP JUMPDEST PUSH1 0x20 DUP3 LT DUP2 SUB PUSH2 0x589 JUMPI PUSH2 0x588 PUSH2 0x532 JUMP JUMPDEST JUMPDEST POP SWAP2 SWAP1 POP JUMP JUMPDEST PUSH0 DUP2 SWAP1 POP DUP2 PUSH0 MSTORE PUSH1 0x20 PUSH0 KECCAK256 SWAP1 POP SWAP2 SWAP1 POP JUMP JUMPDEST PUSH0 PUSH1 0x20 PUSH1 0x1F DUP4 ADD DIV SWAP1 POP SWAP2 SWAP1 POP JUMP JUMPDEST PUSH0 DUP3 DUP3 SHL SWAP1 POP SWAP3 SWAP2 POP POP JUMP JUMPDEST PUSH0 PUSH1 0x8 DUP4 MUL PUSH2 0x5EB PUSH32 0xFFFFFFFFFFFFFFFFFFFFFFFFFFFFFFFFFFFFFFFFFFFFFFFFFFFFFFFFFFFFFFFF DUP3 PUSH2 0x5B0 JUMP JUMPDEST PUSH2 0x5F5 DUP7 DUP4 PUSH2 0x5B0 JUMP JUMPDEST SWAP6 POP DUP1 NOT DUP5 AND SWAP4 POP DUP1 DUP7 AND DUP5 OR SWAP3 POP POP POP SWAP4 SWAP3 POP POP POP JUMP JUMPDEST PUSH0 DUP2 SWAP1 POP SWAP2 SWAP1 POP JUMP JUMPDEST PUSH0 PUSH2 0x630 PUSH2 0x62B PUSH2 0x626 DUP5 PUSH2 0x269 JUMP JUMPDEST PUSH2 0x60D JUMP JUMPDEST PUSH2 0x269 JUMP JUMPDEST SWAP1 POP SWAP2 SWAP1 POP JUMP JUMPDEST PUSH0 DUP2 SWAP1 POP SWAP2 SWAP1 POP JUMP JUMPDEST PUSH2 0x649 DUP4 PUSH2 0x616 JUMP JUMPDEST PUSH2 0x65D PUSH2 0x655 DUP3 PUSH2 0x637 JUMP JUMPDEST DUP5 DUP5 SLOAD PUSH2 0x5BC JUMP JUMPDEST DUP3 SSTORE POP POP POP POP JUMP JUMPDEST PUSH0 SWAP1 JUMP JUMPDEST PUSH2 0x671 PUSH2 0x665 JUMP JUMPDEST PUSH2 0x67C DUP2 DUP5 DUP5 PUSH2 0x640 JUMP JUMPDEST POP POP POP JUMP JUMPDEST JUMPDEST DUP2 DUP2 LT ISZERO PUSH2 0x69F JUMPI PUSH2 0x694 PUSH0 DUP3 PUSH2 0x669 JUMP JUMPDEST PUSH1 0x1 DUP2 ADD SWAP1 POP PUSH2 0x682 JUMP JUMPDEST POP POP JUMP JUMPDEST PUSH1 0x1F DUP3 GT ISZERO PUSH2 0x6E4 JUMPI PUSH2 0x6B5 DUP2 PUSH2 0x58F JUMP JUMPDEST PUSH2 0x6BE DUP5 PUSH2 0x5A1 JUMP JUMPDEST DUP2 ADD PUSH1 0x20 DUP6 LT ISZERO PUSH2 0x6CD JUMPI DUP2 SWAP1 POP JUMPDEST PUSH2 0x6E1 PUSH2 0x6D9 DUP6 PUSH2 0x5A1 JUMP JUMPDEST DUP4 ADD DUP3 PUSH2 0x681 JUMP JUMPDEST POP POP JUMPDEST POP POP POP JUMP JUMPDEST PUSH0 DUP3 DUP3 SHR SWAP1 POP SWAP3 SWAP2 POP POP JUMP JUMPDEST PUSH0 PUSH2 0x704 PUSH0 NOT DUP5 PUSH1 0x8 MUL PUSH2 0x6E9 JUMP JUMPDEST NOT DUP1 DUP4 AND SWAP2 POP POP SWAP3 SWAP2 POP POP JUMP JUMPDEST PUSH0 PUSH2 0x71C DUP4 DUP4 PUSH2 0x6F5 JUMP JUMPDEST SWAP2 POP DUP3 PUSH1 0x2 MUL DUP3 OR SWAP1 POP SWAP3 SWAP2 POP POP JUMP JUMPDEST PUSH2 0x735 DUP3 PUSH2 0x485 JUMP JUMPDEST PUSH8 0xFFFFFFFFFFFFFFFF DUP2 GT ISZERO PUSH2 0x74E JUMPI PUSH2 0x74D PUSH2 0x2B4 JUMP JUMPDEST JUMPDEST PUSH2 0x758 DUP3 SLOAD PUSH2 0x55F JUMP JUMPDEST PUSH2 0x763 DUP3 DUP3 DUP6 PUSH2 0x6A3 JUMP JUMPDEST PUSH0 PUSH1 0x20 SWAP1 POP PUSH1 0x1F DUP4 GT PUSH1 0x1 DUP2 EQ PUSH2 0x794 JUMPI PUSH0 DUP5 ISZERO PUSH2 0x782 JUMPI DUP3 DUP8 ADD MLOAD SWAP1 POP JUMPDEST PUSH2 0x78C DUP6 DUP3 PUSH2 0x711 JUMP JUMPDEST DUP7 SSTORE POP PUSH2 0x7F3 JUMP JUMPDEST PUSH1 0x1F NOT DUP5 AND PUSH2 0x7A2 DUP7 PUSH2 0x58F JUMP JUMPDEST PUSH0 JUMPDEST DUP3 DUP2 LT ISZERO PUSH2 0x7C9 JUMPI DUP5 DUP10 ADD MLOAD DUP3 SSTORE PUSH1 0x1 DUP3 ADD SWAP2 POP PUSH1 0x20 DUP6 ADD SWAP5 POP PUSH1 0x20 DUP2 ADD SWAP1 POP PUSH2 0x7A4 JUMP JUMPDEST DUP7 DUP4 LT ISZERO PUSH2 0x7E6 JUMPI DUP5 DUP10 ADD MLOAD PUSH2 0x7E2 PUSH1 0x1F DUP10 AND DUP3 PUSH2 0x6F5 JUMP JUMPDEST DUP4 SSTORE POP JUMPDEST PUSH1 0x1 PUSH1 0x2 DUP9 MUL ADD DUP9 SSTORE POP POP POP JUMPDEST POP POP POP POP POP POP JUMP INVALID LOG2 PUSH5 0x6970667358 0x22 SLT KECCAK256 0xB3 PUSH9 0x311089A3C472FF0479 0xCF 0xC7 0xD5 NUMBER 0xBC 0xF9 ISZERO PUSH5 0x50DEB42C27 0xE1 PUSH0 PUSH28 0xB4075CB44464736F6C634300081A0033000000000000000000000000 "
				},
				"gasEstimates": {
					"creation": {
						"codeDepositCost": "419400",
						"executionCost": "infinite",
						"totalCost": "infinite"
					},
					"external": {
						"addArray1(uint256)": "46886",
						"array1(uint256)": "infinite",
						"array2(uint256)": "infinite",
						"changeArray2(uint256,string)": "infinite",
						"getLength1()": "2528",
						"getLength2()": "332"
					}
				},
				"methodIdentifiers": {
					"addArray1(uint256)": "64924310",
					"array1(uint256)": "4bae89cb",
					"array2(uint256)": "61125b63",
					"changeArray2(uint256,string)": "0df904c3",
					"getLength1()": "ed85188e",
					"getLength2()": "2aab02d0"
				}
			},
			"storageLayout": {
				"storage": [
					{
						"astId": 7,
						"contract": "week5_practice/ex5_4.sol:Ex5_4",
						"label": "array1",
						"offset": 0,
						"slot": "0",
						"type": "t_array(t_uint256)dyn_storage"
					},
					{
						"astId": 15,
						"contract": "week5_practice/ex5_4.sol:Ex5_4",
						"label": "array2",
						"offset": 0,
						"slot": "1",
						"type": "t_array(t_string_storage)5_storage"
					}
				],
				"types": {
					"t_array(t_string_storage)5_storage": {
						"base": "t_string_storage",
						"encoding": "inplace",
						"label": "string[5]",
						"numberOfBytes": "160"
					},
					"t_array(t_uint256)dyn_storage": {
						"base": "t_uint256",
						"encoding": "dynamic_array",
						"label": "uint256[]",
						"numberOfBytes": "32"
					},
					"t_string_storage": {
						"encoding": "bytes",
						"label": "string",
						"numberOfBytes": "32"
					},
					"t_uint256": {
						"encoding": "inplace",
						"label": "uint256",
						"numberOfBytes": "32"
					}
				}
			},
			"userdoc": {
				"kind": "user",
				"methods": {},
				"version": 1
			}
		}
	}
}