{
	"week5_practice/ex4_22.sol": {
		"Ex4_22": {
			"abi": [
				{
					"inputs": [],
					"name": "funExt",
					"outputs": [
						{
							"internalType": "uint256",
							"name": "",
							"type": "uint256"
						}
					],
					"stateMutability": "pure",
					"type": "function"
				},
				{
					"inputs": [],
					"name": "outPutPri",
					"outputs": [
						{
							"internalType": "uint256",
							"name": "",
							"type": "uint256"
						}
					],
					"stateMutability": "pure",
					"type": "function"
				}
			],
			"devdoc": {
				"kind": "dev",
				"methods": {},
				"version": 1
			},
			"evm": {
				"assembly": "    /* \"week5_practice/ex4_22.sol\":70:470  contract Ex4_22 {... */\n  mstore(0x40, 0x80)\n  callvalue\n  dup1\n  iszero\n  tag_1\n  jumpi\n  0x00\n  dup1\n  revert\ntag_1:\n  pop\n  dataSize(sub_0)\n  dup1\n  dataOffset(sub_0)\n  0x00\n  codecopy\n  0x00\n  return\nstop\n\nsub_0: assembly {\n        /* \"week5_practice/ex4_22.sol\":70:470  contract Ex4_22 {... */\n      mstore(0x40, 0x80)\n      callvalue\n      dup1\n      iszero\n      tag_1\n      jumpi\n      0x00\n      dup1\n      revert\n    tag_1:\n      pop\n      jumpi(tag_2, lt(calldatasize, 0x04))\n      shr(0xe0, calldataload(0x00))\n      dup1\n      0x6719ae01\n      eq\n      tag_3\n      jumpi\n      dup1\n      0xbfc3ef44\n      eq\n      tag_4\n      jumpi\n    tag_2:\n      0x00\n      dup1\n      revert\n        /* \"week5_practice/ex4_22.sol\":397:466  function outPutPri() public pure returns(uint) {... */\n    tag_3:\n      tag_5\n      tag_6\n      jump\t// in\n    tag_5:\n      mload(0x40)\n      tag_7\n      swap2\n      swap1\n      tag_8\n      jump\t// in\n    tag_7:\n      mload(0x40)\n      dup1\n      swap2\n      sub\n      swap1\n      return\n        /* \"week5_practice/ex4_22.sol\":89:150  function funExt() external pure returns(uint) {... */\n    tag_4:\n      tag_9\n      tag_10\n      jump\t// in\n    tag_9:\n      mload(0x40)\n      tag_11\n      swap2\n      swap1\n      tag_8\n      jump\t// in\n    tag_11:\n      mload(0x40)\n      dup1\n      swap2\n      sub\n      swap1\n      return\n        /* \"week5_practice/ex4_22.sol\":397:466  function outPutPri() public pure returns(uint) {... */\n    tag_6:\n        /* \"week5_practice/ex4_22.sol\":438:442  uint */\n      0x00\n        /* \"week5_practice/ex4_22.sol\":454:462  funPri() */\n      tag_13\n        /* \"week5_practice/ex4_22.sol\":454:460  funPri */\n      tag_14\n        /* \"week5_practice/ex4_22.sol\":454:462  funPri() */\n      jump\t// in\n    tag_13:\n        /* \"week5_practice/ex4_22.sol\":447:462  return funPri() */\n      swap1\n      pop\n        /* \"week5_practice/ex4_22.sol\":397:466  function outPutPri() public pure returns(uint) {... */\n      swap1\n      jump\t// out\n        /* \"week5_practice/ex4_22.sol\":89:150  function funExt() external pure returns(uint) {... */\n    tag_10:\n        /* \"week5_practice/ex4_22.sol\":129:133  uint */\n      0x00\n        /* \"week5_practice/ex4_22.sol\":145:146  2 */\n      0x02\n        /* \"week5_practice/ex4_22.sol\":138:146  return 2 */\n      swap1\n      pop\n        /* \"week5_practice/ex4_22.sol\":89:150  function funExt() external pure returns(uint) {... */\n      swap1\n      jump\t// out\n        /* \"week5_practice/ex4_22.sol\":152:212  function funPri() private pure returns(uint) {... */\n    tag_14:\n        /* \"week5_practice/ex4_22.sol\":191:195  uint */\n      0x00\n        /* \"week5_practice/ex4_22.sol\":207:208  3 */\n      0x03\n        /* \"week5_practice/ex4_22.sol\":200:208  return 3 */\n      swap1\n      pop\n        /* \"week5_practice/ex4_22.sol\":152:212  function funPri() private pure returns(uint) {... */\n      swap1\n      jump\t// out\n        /* \"#utility.yul\":7:84   */\n    tag_17:\n        /* \"#utility.yul\":44:51   */\n      0x00\n        /* \"#utility.yul\":73:78   */\n      dup2\n        /* \"#utility.yul\":62:78   */\n      swap1\n      pop\n        /* \"#utility.yul\":7:84   */\n      swap2\n      swap1\n      pop\n      jump\t// out\n        /* \"#utility.yul\":90:208   */\n    tag_18:\n        /* \"#utility.yul\":177:201   */\n      tag_22\n        /* \"#utility.yul\":195:200   */\n      dup2\n        /* \"#utility.yul\":177:201   */\n      tag_17\n      jump\t// in\n    tag_22:\n        /* \"#utility.yul\":172:175   */\n      dup3\n        /* \"#utility.yul\":165:202   */\n      mstore\n        /* \"#utility.yul\":90:208   */\n      pop\n      pop\n      jump\t// out\n        /* \"#utility.yul\":214:436   */\n    tag_8:\n        /* \"#utility.yul\":307:311   */\n      0x00\n        /* \"#utility.yul\":345:347   */\n      0x20\n        /* \"#utility.yul\":334:343   */\n      dup3\n        /* \"#utility.yul\":330:348   */\n      add\n        /* \"#utility.yul\":322:348   */\n      swap1\n      pop\n        /* \"#utility.yul\":358:429   */\n      tag_24\n        /* \"#utility.yul\":426:427   */\n      0x00\n        /* \"#utility.yul\":415:424   */\n      dup4\n        /* \"#utility.yul\":411:428   */\n      add\n        /* \"#utility.yul\":402:408   */\n      dup5\n        /* \"#utility.yul\":358:429   */\n      tag_18\n      jump\t// in\n    tag_24:\n        /* \"#utility.yul\":214:436   */\n      swap3\n      swap2\n      pop\n      pop\n      jump\t// out\n\n    auxdata: 0xa2646970667358221220e5f26c5d7d746647a35e9da39ba62942628f3168726dc4331b0cac7c7b24442164736f6c634300081a0033\n}\n",
				"bytecode": {
					"linkReferences": {},
					"object": "6080604052348015600e575f80fd5b5060e78061001b5f395ff3fe6080604052348015600e575f80fd5b50600436106030575f3560e01c80636719ae01146034578063bfc3ef4414604e575b5f80fd5b603a6068565b60405160459190609a565b60405180910390f35b60546074565b604051605f9190609a565b60405180910390f35b5f606f607c565b905090565b5f6002905090565b5f6003905090565b5f819050919050565b6094816084565b82525050565b5f60208201905060ab5f830184608d565b9291505056fea2646970667358221220e5f26c5d7d746647a35e9da39ba62942628f3168726dc4331b0cac7c7b24442164736f6c634300081a0033",
					"opcodes": "PUSH1 0x80 PUSH1 0x40 MSTORE CALLVALUE DUP1 ISZERO PUSH1 0xE JUMPI PUSH0 DUP1 REVERT JUMPDEST POP PUSH1 0xE7 DUP1 PUSH2 0x1B PUSH0 CODECOPY PUSH0 RETURN INVALID PUSH1 0x80 PUSH1 0x40 MSTORE CALLVALUE DUP1 ISZERO PUSH1 0xE JUMPI PUSH0 DUP1 REVERT JUMPDEST POP PUSH1 0x4 CALLDATASIZE LT PUSH1 0x30 JUMPI PUSH0 CALLDATALOAD PUSH1 0xE0 SHR DUP1 PUSH4 0x6719AE01 EQ PUSH1 0x34 JUMPI DUP1 PUSH4 0xBFC3EF44 EQ PUSH1 0x4E JUMPI JUMPDEST PUSH0 DUP1 REVERT JUMPDEST PUSH1 0x3A PUSH1 0x68 JUMP JUMPDEST PUSH1 0x40 MLOAD PUSH1 0x45 SWAP2 SWAP1 PUSH1 0x9A JUMP JUMPDEST PUSH1 0x40 MLOAD DUP1 SWAP2 SUB SWAP1 RETURN JUMPDEST PUSH1 0x54 PUSH1 0x74 JUMP JUMPDEST PUSH1 0x40 MLOAD PUSH1 0x5F SWAP2 SWAP1 PUSH1 0x9A JUMP JUMPDEST PUSH1 0x40 MLOAD DUP1 SWAP2 SUB SWAP1 RETURN JUMPDEST PUSH0 PUSH1 0x6F PUSH1 0x7C JUMP JUMPDEST SWAP1 POP SWAP1 JUMP JUMPDEST PUSH0 PUSH1 0x2 SWAP1 POP SWAP1 JUMP JUMPDEST PUSH0 PUSH1 0x3 SWAP1 POP SWAP1 JUMP JUMPDEST PUSH0 DUP2 SWAP1 POP SWAP2 SWAP1 POP JUMP JUMPDEST PUSH1 0x94 DUP2 PUSH1 0x84 JUMP JUMPDEST DUP3 MSTORE POP POP JUMP JUMPDEST PUSH0 PUSH1 0x20 DUP3 ADD SWAP1 POP PUSH1 0xAB PUSH0 DUP4 ADD DUP5 PUSH1 0x8D JUMP JUMPDEST SWAP3 SWAP2 POP POP JUMP INVALID LOG2 PUSH5 0x6970667358 0x22 SLT KECCAK256 0xE5 CALLCODE PUSH13 0x5D7D746647A35E9DA39BA62942 PUSH3 0x8F3168 PUSH19 0x6DC4331B0CAC7C7B24442164736F6C63430008 BYTE STOP CALLER "
				},
				"gasEstimates": {
					"creation": {
						"codeDepositCost": "46200",
						"executionCost": "97",
						"totalCost": "46297"
					},
					"external": {
						"funExt()": "332",
						"outPutPri()": "344"
					},
					"internal": {
						"funPri()": "22"
					}
				},
				"methodIdentifiers": {
					"funExt()": "bfc3ef44",
					"outPutPri()": "6719ae01"
				}
			},
			"storageLayout": {
				"storage": [],
				"types": null
			},
			"userdoc": {
				"kind": "user",
				"methods": {},
				"version": 1
			}
		}
	}
}