{
	"week5_practice/ex5_1.sol": {
		"Ex5_1": {
			"abi": [
				{
					"inputs": [
						{
							"internalType": "string",
							"name": "_key",
							"type": "string"
						},
						{
							"internalType": "uint256",
							"name": "_amount",
							"type": "uint256"
						}
					],
					"name": "addMapping",
					"outputs": [],
					"stateMutability": "nonpayable",
					"type": "function"
				},
				{
					"inputs": [
						{
							"internalType": "string",
							"name": "",
							"type": "string"
						}
					],
					"name": "ages",
					"outputs": [
						{
							"internalType": "uint256",
							"name": "",
							"type": "uint256"
						}
					],
					"stateMutability": "view",
					"type": "function"
				},
				{
					"inputs": [
						{
							"internalType": "string",
							"name": "_key",
							"type": "string"
						}
					],
					"name": "getMapping",
					"outputs": [
						{
							"internalType": "uint256",
							"name": "",
							"type": "uint256"
						}
					],
					"stateMutability": "view",
					"type": "function"
				}
			],
			"devdoc": {
				"kind": "dev",
				"methods": {},
				"version": 1
			},
			"evm": {
				"assembly": "    /* \"week5_practice/ex5_1.sol\":70:454  contract Ex5_1 {... */\n  mstore(0x40, 0x80)\n  callvalue\n  dup1\n  iszero\n  tag_1\n  jumpi\n  0x00\n  dup1\n  revert\ntag_1:\n  pop\n  dataSize(sub_0)\n  dup1\n  dataOffset(sub_0)\n  0x00\n  codecopy\n  0x00\n  return\nstop\n\nsub_0: assembly {\n        /* \"week5_practice/ex5_1.sol\":70:454  contract Ex5_1 {... */\n      mstore(0x40, 0x80)\n      callvalue\n      dup1\n      iszero\n      tag_1\n      jumpi\n      0x00\n      dup1\n      revert\n    tag_1:\n      pop\n      jumpi(tag_2, lt(calldatasize, 0x04))\n      shr(0xe0, calldataload(0x00))\n      dup1\n      0x11f45e9c\n      eq\n      tag_3\n      jumpi\n      dup1\n      0x6dcfe452\n      eq\n      tag_4\n      jumpi\n      dup1\n      0xbf79afcf\n      eq\n      tag_5\n      jumpi\n    tag_2:\n      0x00\n      dup1\n      revert\n        /* \"week5_practice/ex5_1.sol\":245:348  function getMapping(string calldata _key) public view returns(uint){... */\n    tag_3:\n      tag_6\n      0x04\n      dup1\n      calldatasize\n      sub\n      dup2\n      add\n      swap1\n      tag_7\n      swap2\n      swap1\n      tag_8\n      jump\t// in\n    tag_7:\n      tag_9\n      jump\t// in\n    tag_6:\n      mload(0x40)\n      tag_10\n      swap2\n      swap1\n      tag_11\n      jump\t// in\n    tag_10:\n      mload(0x40)\n      dup1\n      swap2\n      sub\n      swap1\n      return\n        /* \"week5_practice/ex5_1.sol\":92:129  mapping( string => uint ) public ages */\n    tag_4:\n      tag_12\n      0x04\n      dup1\n      calldatasize\n      sub\n      dup2\n      add\n      swap1\n      tag_13\n      swap2\n      swap1\n      tag_14\n      jump\t// in\n    tag_13:\n      tag_15\n      jump\t// in\n    tag_12:\n      mload(0x40)\n      tag_16\n      swap2\n      swap1\n      tag_11\n      jump\t// in\n    tag_16:\n      mload(0x40)\n      dup1\n      swap2\n      sub\n      swap1\n      return\n        /* \"week5_practice/ex5_1.sol\":138:237  function addMapping(string calldata _key, uint _amount) public{... */\n    tag_5:\n      tag_17\n      0x04\n      dup1\n      calldatasize\n      sub\n      dup2\n      add\n      swap1\n      tag_18\n      swap2\n      swap1\n      tag_19\n      jump\t// in\n    tag_18:\n      tag_20\n      jump\t// in\n    tag_17:\n      stop\n        /* \"week5_practice/ex5_1.sol\":245:348  function getMapping(string calldata _key) public view returns(uint){... */\n    tag_9:\n        /* \"week5_practice/ex5_1.sol\":307:311  uint */\n      0x00\n        /* \"week5_practice/ex5_1.sol\":330:334  ages */\n      dup1\n        /* \"week5_practice/ex5_1.sol\":335:339  _key */\n      dup4\n      dup4\n        /* \"week5_practice/ex5_1.sol\":330:340  ages[_key] */\n      mload(0x40)\n      tag_22\n      swap3\n      swap2\n      swap1\n      tag_23\n      jump\t// in\n    tag_22:\n      swap1\n      dup2\n      mstore\n      0x20\n      add\n      mload(0x40)\n      dup1\n      swap2\n      sub\n      swap1\n      keccak256\n      sload\n        /* \"week5_practice/ex5_1.sol\":323:340  return ages[_key] */\n      swap1\n      pop\n        /* \"week5_practice/ex5_1.sol\":245:348  function getMapping(string calldata _key) public view returns(uint){... */\n      swap3\n      swap2\n      pop\n      pop\n      jump\t// out\n        /* \"week5_practice/ex5_1.sol\":92:129  mapping( string => uint ) public ages */\n    tag_15:\n      0x00\n      dup2\n      dup1\n      mload\n      0x20\n      dup2\n      add\n      dup3\n      add\n      dup1\n      mload\n      dup5\n      dup3\n      mstore\n      0x20\n      dup4\n      add\n      0x20\n      dup6\n      add\n      keccak256\n      dup2\n      dup4\n      mstore\n      dup1\n      swap6\n      pop\n      pop\n      pop\n      pop\n      pop\n      pop\n      0x00\n      swap2\n      pop\n      swap1\n      pop\n      sload\n      dup2\n      jump\t// out\n        /* \"week5_practice/ex5_1.sol\":138:237  function addMapping(string calldata _key, uint _amount) public{... */\n    tag_20:\n        /* \"week5_practice/ex5_1.sol\":222:229  _amount */\n      dup1\n        /* \"week5_practice/ex5_1.sol\":211:215  ages */\n      0x00\n        /* \"week5_practice/ex5_1.sol\":216:220  _key */\n      dup5\n      dup5\n        /* \"week5_practice/ex5_1.sol\":211:221  ages[_key] */\n      mload(0x40)\n      tag_25\n      swap3\n      swap2\n      swap1\n      tag_23\n      jump\t// in\n    tag_25:\n      swap1\n      dup2\n      mstore\n      0x20\n      add\n      mload(0x40)\n      dup1\n      swap2\n      sub\n      swap1\n      keccak256\n        /* \"week5_practice/ex5_1.sol\":211:229  ages[_key]=_amount */\n      dup2\n      swap1\n      sstore\n      pop\n        /* \"week5_practice/ex5_1.sol\":138:237  function addMapping(string calldata _key, uint _amount) public{... */\n      pop\n      pop\n      pop\n      jump\t// out\n        /* \"#utility.yul\":7:82   */\n    tag_26:\n        /* \"#utility.yul\":40:46   */\n      0x00\n        /* \"#utility.yul\":73:75   */\n      0x40\n        /* \"#utility.yul\":67:76   */\n      mload\n        /* \"#utility.yul\":57:76   */\n      swap1\n      pop\n        /* \"#utility.yul\":7:82   */\n      swap1\n      jump\t// out\n        /* \"#utility.yul\":88:205   */\n    tag_27:\n        /* \"#utility.yul\":197:198   */\n      0x00\n        /* \"#utility.yul\":194:195   */\n      dup1\n        /* \"#utility.yul\":187:199   */\n      revert\n        /* \"#utility.yul\":211:328   */\n    tag_28:\n        /* \"#utility.yul\":320:321   */\n      0x00\n        /* \"#utility.yul\":317:318   */\n      dup1\n        /* \"#utility.yul\":310:322   */\n      revert\n        /* \"#utility.yul\":334:451   */\n    tag_29:\n        /* \"#utility.yul\":443:444   */\n      0x00\n        /* \"#utility.yul\":440:441   */\n      dup1\n        /* \"#utility.yul\":433:445   */\n      revert\n        /* \"#utility.yul\":457:574   */\n    tag_30:\n        /* \"#utility.yul\":566:567   */\n      0x00\n        /* \"#utility.yul\":563:564   */\n      dup1\n        /* \"#utility.yul\":556:568   */\n      revert\n        /* \"#utility.yul\":580:697   */\n    tag_31:\n        /* \"#utility.yul\":689:690   */\n      0x00\n        /* \"#utility.yul\":686:687   */\n      dup1\n        /* \"#utility.yul\":679:691   */\n      revert\n        /* \"#utility.yul\":717:1270   */\n    tag_32:\n        /* \"#utility.yul\":775:783   */\n      0x00\n        /* \"#utility.yul\":785:791   */\n      dup1\n        /* \"#utility.yul\":835:838   */\n      dup4\n        /* \"#utility.yul\":828:832   */\n      0x1f\n        /* \"#utility.yul\":820:826   */\n      dup5\n        /* \"#utility.yul\":816:833   */\n      add\n        /* \"#utility.yul\":812:839   */\n      slt\n        /* \"#utility.yul\":802:924   */\n      tag_56\n      jumpi\n        /* \"#utility.yul\":843:922   */\n      tag_57\n      tag_29\n      jump\t// in\n    tag_57:\n        /* \"#utility.yul\":802:924   */\n    tag_56:\n        /* \"#utility.yul\":956:962   */\n      dup3\n        /* \"#utility.yul\":943:963   */\n      calldataload\n        /* \"#utility.yul\":933:963   */\n      swap1\n      pop\n        /* \"#utility.yul\":986:1004   */\n      0xffffffffffffffff\n        /* \"#utility.yul\":978:984   */\n      dup2\n        /* \"#utility.yul\":975:1005   */\n      gt\n        /* \"#utility.yul\":972:1089   */\n      iszero\n      tag_58\n      jumpi\n        /* \"#utility.yul\":1008:1087   */\n      tag_59\n      tag_30\n      jump\t// in\n    tag_59:\n        /* \"#utility.yul\":972:1089   */\n    tag_58:\n        /* \"#utility.yul\":1122:1126   */\n      0x20\n        /* \"#utility.yul\":1114:1120   */\n      dup4\n        /* \"#utility.yul\":1110:1127   */\n      add\n        /* \"#utility.yul\":1098:1127   */\n      swap2\n      pop\n        /* \"#utility.yul\":1176:1179   */\n      dup4\n        /* \"#utility.yul\":1168:1172   */\n      0x01\n        /* \"#utility.yul\":1160:1166   */\n      dup3\n        /* \"#utility.yul\":1156:1173   */\n      mul\n        /* \"#utility.yul\":1146:1154   */\n      dup4\n        /* \"#utility.yul\":1142:1174   */\n      add\n        /* \"#utility.yul\":1139:1180   */\n      gt\n        /* \"#utility.yul\":1136:1264   */\n      iszero\n      tag_60\n      jumpi\n        /* \"#utility.yul\":1183:1262   */\n      tag_61\n      tag_31\n      jump\t// in\n    tag_61:\n        /* \"#utility.yul\":1136:1264   */\n    tag_60:\n        /* \"#utility.yul\":717:1270   */\n      swap3\n      pop\n      swap3\n      swap1\n      pop\n      jump\t// out\n        /* \"#utility.yul\":1276:1805   */\n    tag_8:\n        /* \"#utility.yul\":1347:1353   */\n      0x00\n        /* \"#utility.yul\":1355:1361   */\n      dup1\n        /* \"#utility.yul\":1404:1406   */\n      0x20\n        /* \"#utility.yul\":1392:1401   */\n      dup4\n        /* \"#utility.yul\":1383:1390   */\n      dup6\n        /* \"#utility.yul\":1379:1402   */\n      sub\n        /* \"#utility.yul\":1375:1407   */\n      slt\n        /* \"#utility.yul\":1372:1491   */\n      iszero\n      tag_63\n      jumpi\n        /* \"#utility.yul\":1410:1489   */\n      tag_64\n      tag_27\n      jump\t// in\n    tag_64:\n        /* \"#utility.yul\":1372:1491   */\n    tag_63:\n        /* \"#utility.yul\":1558:1559   */\n      0x00\n        /* \"#utility.yul\":1547:1556   */\n      dup4\n        /* \"#utility.yul\":1543:1560   */\n      add\n        /* \"#utility.yul\":1530:1561   */\n      calldataload\n        /* \"#utility.yul\":1588:1606   */\n      0xffffffffffffffff\n        /* \"#utility.yul\":1580:1586   */\n      dup2\n        /* \"#utility.yul\":1577:1607   */\n      gt\n        /* \"#utility.yul\":1574:1691   */\n      iszero\n      tag_65\n      jumpi\n        /* \"#utility.yul\":1610:1689   */\n      tag_66\n      tag_28\n      jump\t// in\n    tag_66:\n        /* \"#utility.yul\":1574:1691   */\n    tag_65:\n        /* \"#utility.yul\":1723:1788   */\n      tag_67\n        /* \"#utility.yul\":1780:1787   */\n      dup6\n        /* \"#utility.yul\":1771:1777   */\n      dup3\n        /* \"#utility.yul\":1760:1769   */\n      dup7\n        /* \"#utility.yul\":1756:1778   */\n      add\n        /* \"#utility.yul\":1723:1788   */\n      tag_32\n      jump\t// in\n    tag_67:\n        /* \"#utility.yul\":1705:1788   */\n      swap3\n      pop\n      swap3\n      pop\n        /* \"#utility.yul\":1501:1798   */\n      pop\n        /* \"#utility.yul\":1276:1805   */\n      swap3\n      pop\n      swap3\n      swap1\n      pop\n      jump\t// out\n        /* \"#utility.yul\":1811:1888   */\n    tag_33:\n        /* \"#utility.yul\":1848:1855   */\n      0x00\n        /* \"#utility.yul\":1877:1882   */\n      dup2\n        /* \"#utility.yul\":1866:1882   */\n      swap1\n      pop\n        /* \"#utility.yul\":1811:1888   */\n      swap2\n      swap1\n      pop\n      jump\t// out\n        /* \"#utility.yul\":1894:2012   */\n    tag_34:\n        /* \"#utility.yul\":1981:2005   */\n      tag_70\n        /* \"#utility.yul\":1999:2004   */\n      dup2\n        /* \"#utility.yul\":1981:2005   */\n      tag_33\n      jump\t// in\n    tag_70:\n        /* \"#utility.yul\":1976:1979   */\n      dup3\n        /* \"#utility.yul\":1969:2006   */\n      mstore\n        /* \"#utility.yul\":1894:2012   */\n      pop\n      pop\n      jump\t// out\n        /* \"#utility.yul\":2018:2240   */\n    tag_11:\n        /* \"#utility.yul\":2111:2115   */\n      0x00\n        /* \"#utility.yul\":2149:2151   */\n      0x20\n        /* \"#utility.yul\":2138:2147   */\n      dup3\n        /* \"#utility.yul\":2134:2152   */\n      add\n        /* \"#utility.yul\":2126:2152   */\n      swap1\n      pop\n        /* \"#utility.yul\":2162:2233   */\n      tag_72\n        /* \"#utility.yul\":2230:2231   */\n      0x00\n        /* \"#utility.yul\":2219:2228   */\n      dup4\n        /* \"#utility.yul\":2215:2232   */\n      add\n        /* \"#utility.yul\":2206:2212   */\n      dup5\n        /* \"#utility.yul\":2162:2233   */\n      tag_34\n      jump\t// in\n    tag_72:\n        /* \"#utility.yul\":2018:2240   */\n      swap3\n      swap2\n      pop\n      pop\n      jump\t// out\n        /* \"#utility.yul\":2246:2363   */\n    tag_35:\n        /* \"#utility.yul\":2355:2356   */\n      0x00\n        /* \"#utility.yul\":2352:2353   */\n      dup1\n        /* \"#utility.yul\":2345:2357   */\n      revert\n        /* \"#utility.yul\":2369:2471   */\n    tag_36:\n        /* \"#utility.yul\":2410:2416   */\n      0x00\n        /* \"#utility.yul\":2461:2463   */\n      0x1f\n        /* \"#utility.yul\":2457:2464   */\n      not\n        /* \"#utility.yul\":2452:2454   */\n      0x1f\n        /* \"#utility.yul\":2445:2450   */\n      dup4\n        /* \"#utility.yul\":2441:2455   */\n      add\n        /* \"#utility.yul\":2437:2465   */\n      and\n        /* \"#utility.yul\":2427:2465   */\n      swap1\n      pop\n        /* \"#utility.yul\":2369:2471   */\n      swap2\n      swap1\n      pop\n      jump\t// out\n        /* \"#utility.yul\":2477:2657   */\n    tag_37:\n        /* \"#utility.yul\":2525:2602   */\n      0x4e487b7100000000000000000000000000000000000000000000000000000000\n        /* \"#utility.yul\":2522:2523   */\n      0x00\n        /* \"#utility.yul\":2515:2603   */\n      mstore\n        /* \"#utility.yul\":2622:2626   */\n      0x41\n        /* \"#utility.yul\":2619:2620   */\n      0x04\n        /* \"#utility.yul\":2612:2627   */\n      mstore\n        /* \"#utility.yul\":2646:2650   */\n      0x24\n        /* \"#utility.yul\":2643:2644   */\n      0x00\n        /* \"#utility.yul\":2636:2651   */\n      revert\n        /* \"#utility.yul\":2663:2944   */\n    tag_38:\n        /* \"#utility.yul\":2746:2773   */\n      tag_77\n        /* \"#utility.yul\":2768:2772   */\n      dup3\n        /* \"#utility.yul\":2746:2773   */\n      tag_36\n      jump\t// in\n    tag_77:\n        /* \"#utility.yul\":2738:2744   */\n      dup2\n        /* \"#utility.yul\":2734:2774   */\n      add\n        /* \"#utility.yul\":2876:2882   */\n      dup2\n        /* \"#utility.yul\":2864:2874   */\n      dup2\n        /* \"#utility.yul\":2861:2883   */\n      lt\n        /* \"#utility.yul\":2840:2858   */\n      0xffffffffffffffff\n        /* \"#utility.yul\":2828:2838   */\n      dup3\n        /* \"#utility.yul\":2825:2859   */\n      gt\n        /* \"#utility.yul\":2822:2884   */\n      or\n        /* \"#utility.yul\":2819:2907   */\n      iszero\n      tag_78\n      jumpi\n        /* \"#utility.yul\":2887:2905   */\n      tag_79\n      tag_37\n      jump\t// in\n    tag_79:\n        /* \"#utility.yul\":2819:2907   */\n    tag_78:\n        /* \"#utility.yul\":2927:2937   */\n      dup1\n        /* \"#utility.yul\":2923:2925   */\n      0x40\n        /* \"#utility.yul\":2916:2938   */\n      mstore\n        /* \"#utility.yul\":2706:2944   */\n      pop\n        /* \"#utility.yul\":2663:2944   */\n      pop\n      pop\n      jump\t// out\n        /* \"#utility.yul\":2950:3079   */\n    tag_39:\n        /* \"#utility.yul\":2984:2990   */\n      0x00\n        /* \"#utility.yul\":3011:3031   */\n      tag_81\n      tag_26\n      jump\t// in\n    tag_81:\n        /* \"#utility.yul\":3001:3031   */\n      swap1\n      pop\n        /* \"#utility.yul\":3040:3073   */\n      tag_82\n        /* \"#utility.yul\":3068:3072   */\n      dup3\n        /* \"#utility.yul\":3060:3066   */\n      dup3\n        /* \"#utility.yul\":3040:3073   */\n      tag_38\n      jump\t// in\n    tag_82:\n        /* \"#utility.yul\":2950:3079   */\n      swap2\n      swap1\n      pop\n      jump\t// out\n        /* \"#utility.yul\":3085:3393   */\n    tag_40:\n        /* \"#utility.yul\":3147:3151   */\n      0x00\n        /* \"#utility.yul\":3237:3255   */\n      0xffffffffffffffff\n        /* \"#utility.yul\":3229:3235   */\n      dup3\n        /* \"#utility.yul\":3226:3256   */\n      gt\n        /* \"#utility.yul\":3223:3279   */\n      iszero\n      tag_84\n      jumpi\n        /* \"#utility.yul\":3259:3277   */\n      tag_85\n      tag_37\n      jump\t// in\n    tag_85:\n        /* \"#utility.yul\":3223:3279   */\n    tag_84:\n        /* \"#utility.yul\":3297:3326   */\n      tag_86\n        /* \"#utility.yul\":3319:3325   */\n      dup3\n        /* \"#utility.yul\":3297:3326   */\n      tag_36\n      jump\t// in\n    tag_86:\n        /* \"#utility.yul\":3289:3326   */\n      swap1\n      pop\n        /* \"#utility.yul\":3381:3385   */\n      0x20\n        /* \"#utility.yul\":3375:3379   */\n      dup2\n        /* \"#utility.yul\":3371:3386   */\n      add\n        /* \"#utility.yul\":3363:3386   */\n      swap1\n      pop\n        /* \"#utility.yul\":3085:3393   */\n      swap2\n      swap1\n      pop\n      jump\t// out\n        /* \"#utility.yul\":3399:3547   */\n    tag_41:\n        /* \"#utility.yul\":3497:3503   */\n      dup3\n        /* \"#utility.yul\":3492:3495   */\n      dup2\n        /* \"#utility.yul\":3487:3490   */\n      dup4\n        /* \"#utility.yul\":3474:3504   */\n      calldatacopy\n        /* \"#utility.yul\":3538:3539   */\n      0x00\n        /* \"#utility.yul\":3529:3535   */\n      dup4\n        /* \"#utility.yul\":3524:3527   */\n      dup4\n        /* \"#utility.yul\":3520:3536   */\n      add\n        /* \"#utility.yul\":3513:3540   */\n      mstore\n        /* \"#utility.yul\":3399:3547   */\n      pop\n      pop\n      pop\n      jump\t// out\n        /* \"#utility.yul\":3553:3978   */\n    tag_42:\n        /* \"#utility.yul\":3631:3636   */\n      0x00\n        /* \"#utility.yul\":3656:3722   */\n      tag_89\n        /* \"#utility.yul\":3672:3721   */\n      tag_90\n        /* \"#utility.yul\":3714:3720   */\n      dup5\n        /* \"#utility.yul\":3672:3721   */\n      tag_40\n      jump\t// in\n    tag_90:\n        /* \"#utility.yul\":3656:3722   */\n      tag_39\n      jump\t// in\n    tag_89:\n        /* \"#utility.yul\":3647:3722   */\n      swap1\n      pop\n        /* \"#utility.yul\":3745:3751   */\n      dup3\n        /* \"#utility.yul\":3738:3743   */\n      dup2\n        /* \"#utility.yul\":3731:3752   */\n      mstore\n        /* \"#utility.yul\":3783:3787   */\n      0x20\n        /* \"#utility.yul\":3776:3781   */\n      dup2\n        /* \"#utility.yul\":3772:3788   */\n      add\n        /* \"#utility.yul\":3821:3824   */\n      dup5\n        /* \"#utility.yul\":3812:3818   */\n      dup5\n        /* \"#utility.yul\":3807:3810   */\n      dup5\n        /* \"#utility.yul\":3803:3819   */\n      add\n        /* \"#utility.yul\":3800:3825   */\n      gt\n        /* \"#utility.yul\":3797:3909   */\n      iszero\n      tag_91\n      jumpi\n        /* \"#utility.yul\":3828:3907   */\n      tag_92\n      tag_35\n      jump\t// in\n    tag_92:\n        /* \"#utility.yul\":3797:3909   */\n    tag_91:\n        /* \"#utility.yul\":3918:3972   */\n      tag_93\n        /* \"#utility.yul\":3965:3971   */\n      dup5\n        /* \"#utility.yul\":3960:3963   */\n      dup3\n        /* \"#utility.yul\":3955:3958   */\n      dup6\n        /* \"#utility.yul\":3918:3972   */\n      tag_41\n      jump\t// in\n    tag_93:\n        /* \"#utility.yul\":3637:3978   */\n      pop\n        /* \"#utility.yul\":3553:3978   */\n      swap4\n      swap3\n      pop\n      pop\n      pop\n      jump\t// out\n        /* \"#utility.yul\":3998:4338   */\n    tag_43:\n        /* \"#utility.yul\":4054:4059   */\n      0x00\n        /* \"#utility.yul\":4103:4106   */\n      dup3\n        /* \"#utility.yul\":4096:4100   */\n      0x1f\n        /* \"#utility.yul\":4088:4094   */\n      dup4\n        /* \"#utility.yul\":4084:4101   */\n      add\n        /* \"#utility.yul\":4080:4107   */\n      slt\n        /* \"#utility.yul\":4070:4192   */\n      tag_95\n      jumpi\n        /* \"#utility.yul\":4111:4190   */\n      tag_96\n      tag_29\n      jump\t// in\n    tag_96:\n        /* \"#utility.yul\":4070:4192   */\n    tag_95:\n        /* \"#utility.yul\":4228:4234   */\n      dup2\n        /* \"#utility.yul\":4215:4235   */\n      calldataload\n        /* \"#utility.yul\":4253:4332   */\n      tag_97\n        /* \"#utility.yul\":4328:4331   */\n      dup5\n        /* \"#utility.yul\":4320:4326   */\n      dup3\n        /* \"#utility.yul\":4313:4317   */\n      0x20\n        /* \"#utility.yul\":4305:4311   */\n      dup7\n        /* \"#utility.yul\":4301:4318   */\n      add\n        /* \"#utility.yul\":4253:4332   */\n      tag_42\n      jump\t// in\n    tag_97:\n        /* \"#utility.yul\":4244:4332   */\n      swap2\n      pop\n        /* \"#utility.yul\":4060:4338   */\n      pop\n        /* \"#utility.yul\":3998:4338   */\n      swap3\n      swap2\n      pop\n      pop\n      jump\t// out\n        /* \"#utility.yul\":4344:4853   */\n    tag_14:\n        /* \"#utility.yul\":4413:4419   */\n      0x00\n        /* \"#utility.yul\":4462:4464   */\n      0x20\n        /* \"#utility.yul\":4450:4459   */\n      dup3\n        /* \"#utility.yul\":4441:4448   */\n      dup5\n        /* \"#utility.yul\":4437:4460   */\n      sub\n        /* \"#utility.yul\":4433:4465   */\n      slt\n        /* \"#utility.yul\":4430:4549   */\n      iszero\n      tag_99\n      jumpi\n        /* \"#utility.yul\":4468:4547   */\n      tag_100\n      tag_27\n      jump\t// in\n    tag_100:\n        /* \"#utility.yul\":4430:4549   */\n    tag_99:\n        /* \"#utility.yul\":4616:4617   */\n      0x00\n        /* \"#utility.yul\":4605:4614   */\n      dup3\n        /* \"#utility.yul\":4601:4618   */\n      add\n        /* \"#utility.yul\":4588:4619   */\n      calldataload\n        /* \"#utility.yul\":4646:4664   */\n      0xffffffffffffffff\n        /* \"#utility.yul\":4638:4644   */\n      dup2\n        /* \"#utility.yul\":4635:4665   */\n      gt\n        /* \"#utility.yul\":4632:4749   */\n      iszero\n      tag_101\n      jumpi\n        /* \"#utility.yul\":4668:4747   */\n      tag_102\n      tag_28\n      jump\t// in\n    tag_102:\n        /* \"#utility.yul\":4632:4749   */\n    tag_101:\n        /* \"#utility.yul\":4773:4836   */\n      tag_103\n        /* \"#utility.yul\":4828:4835   */\n      dup5\n        /* \"#utility.yul\":4819:4825   */\n      dup3\n        /* \"#utility.yul\":4808:4817   */\n      dup6\n        /* \"#utility.yul\":4804:4826   */\n      add\n        /* \"#utility.yul\":4773:4836   */\n      tag_43\n      jump\t// in\n    tag_103:\n        /* \"#utility.yul\":4763:4836   */\n      swap2\n      pop\n        /* \"#utility.yul\":4559:4846   */\n      pop\n        /* \"#utility.yul\":4344:4853   */\n      swap3\n      swap2\n      pop\n      pop\n      jump\t// out\n        /* \"#utility.yul\":4859:4981   */\n    tag_44:\n        /* \"#utility.yul\":4932:4956   */\n      tag_105\n        /* \"#utility.yul\":4950:4955   */\n      dup2\n        /* \"#utility.yul\":4932:4956   */\n      tag_33\n      jump\t// in\n    tag_105:\n        /* \"#utility.yul\":4925:4930   */\n      dup2\n        /* \"#utility.yul\":4922:4957   */\n      eq\n        /* \"#utility.yul\":4912:4975   */\n      tag_106\n      jumpi\n        /* \"#utility.yul\":4971:4972   */\n      0x00\n        /* \"#utility.yul\":4968:4969   */\n      dup1\n        /* \"#utility.yul\":4961:4973   */\n      revert\n        /* \"#utility.yul\":4912:4975   */\n    tag_106:\n        /* \"#utility.yul\":4859:4981   */\n      pop\n      jump\t// out\n        /* \"#utility.yul\":4987:5126   */\n    tag_45:\n        /* \"#utility.yul\":5033:5038   */\n      0x00\n        /* \"#utility.yul\":5071:5077   */\n      dup2\n        /* \"#utility.yul\":5058:5078   */\n      calldataload\n        /* \"#utility.yul\":5049:5078   */\n      swap1\n      pop\n        /* \"#utility.yul\":5087:5120   */\n      tag_108\n        /* \"#utility.yul\":5114:5119   */\n      dup2\n        /* \"#utility.yul\":5087:5120   */\n      tag_44\n      jump\t// in\n    tag_108:\n        /* \"#utility.yul\":4987:5126   */\n      swap3\n      swap2\n      pop\n      pop\n      jump\t// out\n        /* \"#utility.yul\":5132:5806   */\n    tag_19:\n        /* \"#utility.yul\":5212:5218   */\n      0x00\n        /* \"#utility.yul\":5220:5226   */\n      dup1\n        /* \"#utility.yul\":5228:5234   */\n      0x00\n        /* \"#utility.yul\":5277:5279   */\n      0x40\n        /* \"#utility.yul\":5265:5274   */\n      dup5\n        /* \"#utility.yul\":5256:5263   */\n      dup7\n        /* \"#utility.yul\":5252:5275   */\n      sub\n        /* \"#utility.yul\":5248:5280   */\n      slt\n        /* \"#utility.yul\":5245:5364   */\n      iszero\n      tag_110\n      jumpi\n        /* \"#utility.yul\":5283:5362   */\n      tag_111\n      tag_27\n      jump\t// in\n    tag_111:\n        /* \"#utility.yul\":5245:5364   */\n    tag_110:\n        /* \"#utility.yul\":5431:5432   */\n      0x00\n        /* \"#utility.yul\":5420:5429   */\n      dup5\n        /* \"#utility.yul\":5416:5433   */\n      add\n        /* \"#utility.yul\":5403:5434   */\n      calldataload\n        /* \"#utility.yul\":5461:5479   */\n      0xffffffffffffffff\n        /* \"#utility.yul\":5453:5459   */\n      dup2\n        /* \"#utility.yul\":5450:5480   */\n      gt\n        /* \"#utility.yul\":5447:5564   */\n      iszero\n      tag_112\n      jumpi\n        /* \"#utility.yul\":5483:5562   */\n      tag_113\n      tag_28\n      jump\t// in\n    tag_113:\n        /* \"#utility.yul\":5447:5564   */\n    tag_112:\n        /* \"#utility.yul\":5596:5661   */\n      tag_114\n        /* \"#utility.yul\":5653:5660   */\n      dup7\n        /* \"#utility.yul\":5644:5650   */\n      dup3\n        /* \"#utility.yul\":5633:5642   */\n      dup8\n        /* \"#utility.yul\":5629:5651   */\n      add\n        /* \"#utility.yul\":5596:5661   */\n      tag_32\n      jump\t// in\n    tag_114:\n        /* \"#utility.yul\":5578:5661   */\n      swap4\n      pop\n      swap4\n      pop\n        /* \"#utility.yul\":5374:5671   */\n      pop\n        /* \"#utility.yul\":5710:5712   */\n      0x20\n        /* \"#utility.yul\":5736:5789   */\n      tag_115\n        /* \"#utility.yul\":5781:5788   */\n      dup7\n        /* \"#utility.yul\":5772:5778   */\n      dup3\n        /* \"#utility.yul\":5761:5770   */\n      dup8\n        /* \"#utility.yul\":5757:5779   */\n      add\n        /* \"#utility.yul\":5736:5789   */\n      tag_45\n      jump\t// in\n    tag_115:\n        /* \"#utility.yul\":5726:5789   */\n      swap2\n      pop\n        /* \"#utility.yul\":5681:5799   */\n      pop\n        /* \"#utility.yul\":5132:5806   */\n      swap3\n      pop\n      swap3\n      pop\n      swap3\n      jump\t// out\n        /* \"#utility.yul\":5812:5960   */\n    tag_46:\n        /* \"#utility.yul\":5914:5925   */\n      0x00\n        /* \"#utility.yul\":5951:5954   */\n      dup2\n        /* \"#utility.yul\":5936:5954   */\n      swap1\n      pop\n        /* \"#utility.yul\":5812:5960   */\n      swap3\n      swap2\n      pop\n      pop\n      jump\t// out\n        /* \"#utility.yul\":5990:6320   */\n    tag_47:\n        /* \"#utility.yul\":6106:6109   */\n      0x00\n        /* \"#utility.yul\":6127:6216   */\n      tag_118\n        /* \"#utility.yul\":6209:6215   */\n      dup4\n        /* \"#utility.yul\":6204:6207   */\n      dup6\n        /* \"#utility.yul\":6127:6216   */\n      tag_46\n      jump\t// in\n    tag_118:\n        /* \"#utility.yul\":6120:6216   */\n      swap4\n      pop\n        /* \"#utility.yul\":6226:6282   */\n      tag_119\n        /* \"#utility.yul\":6275:6281   */\n      dup4\n        /* \"#utility.yul\":6270:6273   */\n      dup6\n        /* \"#utility.yul\":6263:6268   */\n      dup5\n        /* \"#utility.yul\":6226:6282   */\n      tag_41\n      jump\t// in\n    tag_119:\n        /* \"#utility.yul\":6307:6313   */\n      dup3\n        /* \"#utility.yul\":6302:6305   */\n      dup5\n        /* \"#utility.yul\":6298:6314   */\n      add\n        /* \"#utility.yul\":6291:6314   */\n      swap1\n      pop\n        /* \"#utility.yul\":5990:6320   */\n      swap4\n      swap3\n      pop\n      pop\n      pop\n      jump\t// out\n        /* \"#utility.yul\":6326:6621   */\n    tag_23:\n        /* \"#utility.yul\":6468:6471   */\n      0x00\n        /* \"#utility.yul\":6490:6595   */\n      tag_121\n        /* \"#utility.yul\":6591:6594   */\n      dup3\n        /* \"#utility.yul\":6582:6588   */\n      dup5\n        /* \"#utility.yul\":6574:6580   */\n      dup7\n        /* \"#utility.yul\":6490:6595   */\n      tag_47\n      jump\t// in\n    tag_121:\n        /* \"#utility.yul\":6483:6595   */\n      swap2\n      pop\n        /* \"#utility.yul\":6612:6615   */\n      dup2\n        /* \"#utility.yul\":6605:6615   */\n      swap1\n      pop\n        /* \"#utility.yul\":6326:6621   */\n      swap4\n      swap3\n      pop\n      pop\n      pop\n      jump\t// out\n\n    auxdata: 0xa26469706673582212202a4b225dd97d0ad41453aa5136e3bed814e6c5cca53ea9b89a2908f3845d0feb64736f6c634300081a0033\n}\n",
				"bytecode": {
					"linkReferences": {},
					"object": "6080604052348015600e575f80fd5b506104ad8061001c5f395ff3fe608060405234801561000f575f80fd5b506004361061003f575f3560e01c806311f45e9c146100435780636dcfe45214610073578063bf79afcf146100a3575b5f80fd5b61005d600480360381019061005891906101af565b6100bf565b60405161006a9190610212565b60405180910390f35b61008d60048036038101906100889190610363565b6100e8565b60405161009a9190610212565b60405180910390f35b6100bd60048036038101906100b891906103d4565b610114565b005b5f8083836040516100d192919061045f565b908152602001604051809103902054905092915050565b5f818051602081018201805184825260208301602085012081835280955050505050505f915090505481565b805f848460405161012692919061045f565b908152602001604051809103902081905550505050565b5f604051905090565b5f80fd5b5f80fd5b5f80fd5b5f80fd5b5f80fd5b5f8083601f84011261016f5761016e61014e565b5b8235905067ffffffffffffffff81111561018c5761018b610152565b5b6020830191508360018202830111156101a8576101a7610156565b5b9250929050565b5f80602083850312156101c5576101c4610146565b5b5f83013567ffffffffffffffff8111156101e2576101e161014a565b5b6101ee8582860161015a565b92509250509250929050565b5f819050919050565b61020c816101fa565b82525050565b5f6020820190506102255f830184610203565b92915050565b5f80fd5b5f601f19601f8301169050919050565b7f4e487b71000000000000000000000000000000000000000000000000000000005f52604160045260245ffd5b6102758261022f565b810181811067ffffffffffffffff821117156102945761029361023f565b5b80604052505050565b5f6102a661013d565b90506102b2828261026c565b919050565b5f67ffffffffffffffff8211156102d1576102d061023f565b5b6102da8261022f565b9050602081019050919050565b828183375f83830152505050565b5f610307610302846102b7565b61029d565b9050828152602081018484840111156103235761032261022b565b5b61032e8482856102e7565b509392505050565b5f82601f83011261034a5761034961014e565b5b813561035a8482602086016102f5565b91505092915050565b5f6020828403121561037857610377610146565b5b5f82013567ffffffffffffffff8111156103955761039461014a565b5b6103a184828501610336565b91505092915050565b6103b3816101fa565b81146103bd575f80fd5b50565b5f813590506103ce816103aa565b92915050565b5f805f604084860312156103eb576103ea610146565b5b5f84013567ffffffffffffffff8111156104085761040761014a565b5b6104148682870161015a565b93509350506020610427868287016103c0565b9150509250925092565b5f81905092915050565b5f6104468385610431565b93506104538385846102e7565b82840190509392505050565b5f61046b82848661043b565b9150819050939250505056fea26469706673582212202a4b225dd97d0ad41453aa5136e3bed814e6c5cca53ea9b89a2908f3845d0feb64736f6c634300081a0033",
					"opcodes": "PUSH1 0x80 PUSH1 0x40 MSTORE CALLVALUE DUP1 ISZERO PUSH1 0xE JUMPI PUSH0 DUP1 REVERT JUMPDEST POP PUSH2 0x4AD DUP1 PUSH2 0x1C PUSH0 CODECOPY PUSH0 RETURN INVALID PUSH1 0x80 PUSH1 0x40 MSTORE CALLVALUE DUP1 ISZERO PUSH2 0xF JUMPI PUSH0 DUP1 REVERT JUMPDEST POP PUSH1 0x4 CALLDATASIZE LT PUSH2 0x3F JUMPI PUSH0 CALLDATALOAD PUSH1 0xE0 SHR DUP1 PUSH4 0x11F45E9C EQ PUSH2 0x43 JUMPI DUP1 PUSH4 0x6DCFE452 EQ PUSH2 0x73 JUMPI DUP1 PUSH4 0xBF79AFCF EQ PUSH2 0xA3 JUMPI JUMPDEST PUSH0 DUP1 REVERT JUMPDEST PUSH2 0x5D PUSH1 0x4 DUP1 CALLDATASIZE SUB DUP2 ADD SWAP1 PUSH2 0x58 SWAP2 SWAP1 PUSH2 0x1AF JUMP JUMPDEST PUSH2 0xBF JUMP JUMPDEST PUSH1 0x40 MLOAD PUSH2 0x6A SWAP2 SWAP1 PUSH2 0x212 JUMP JUMPDEST PUSH1 0x40 MLOAD DUP1 SWAP2 SUB SWAP1 RETURN JUMPDEST PUSH2 0x8D PUSH1 0x4 DUP1 CALLDATASIZE SUB DUP2 ADD SWAP1 PUSH2 0x88 SWAP2 SWAP1 PUSH2 0x363 JUMP JUMPDEST PUSH2 0xE8 JUMP JUMPDEST PUSH1 0x40 MLOAD PUSH2 0x9A SWAP2 SWAP1 PUSH2 0x212 JUMP JUMPDEST PUSH1 0x40 MLOAD DUP1 SWAP2 SUB SWAP1 RETURN JUMPDEST PUSH2 0xBD PUSH1 0x4 DUP1 CALLDATASIZE SUB DUP2 ADD SWAP1 PUSH2 0xB8 SWAP2 SWAP1 PUSH2 0x3D4 JUMP JUMPDEST PUSH2 0x114 JUMP JUMPDEST STOP JUMPDEST PUSH0 DUP1 DUP4 DUP4 PUSH1 0x40 MLOAD PUSH2 0xD1 SWAP3 SWAP2 SWAP1 PUSH2 0x45F JUMP JUMPDEST SWAP1 DUP2 MSTORE PUSH1 0x20 ADD PUSH1 0x40 MLOAD DUP1 SWAP2 SUB SWAP1 KECCAK256 SLOAD SWAP1 POP SWAP3 SWAP2 POP POP JUMP JUMPDEST PUSH0 DUP2 DUP1 MLOAD PUSH1 0x20 DUP2 ADD DUP3 ADD DUP1 MLOAD DUP5 DUP3 MSTORE PUSH1 0x20 DUP4 ADD PUSH1 0x20 DUP6 ADD KECCAK256 DUP2 DUP4 MSTORE DUP1 SWAP6 POP POP POP POP POP POP PUSH0 SWAP2 POP SWAP1 POP SLOAD DUP2 JUMP JUMPDEST DUP1 PUSH0 DUP5 DUP5 PUSH1 0x40 MLOAD PUSH2 0x126 SWAP3 SWAP2 SWAP1 PUSH2 0x45F JUMP JUMPDEST SWAP1 DUP2 MSTORE PUSH1 0x20 ADD PUSH1 0x40 MLOAD DUP1 SWAP2 SUB SWAP1 KECCAK256 DUP2 SWAP1 SSTORE POP POP POP POP JUMP JUMPDEST PUSH0 PUSH1 0x40 MLOAD SWAP1 POP SWAP1 JUMP JUMPDEST PUSH0 DUP1 REVERT JUMPDEST PUSH0 DUP1 REVERT JUMPDEST PUSH0 DUP1 REVERT JUMPDEST PUSH0 DUP1 REVERT JUMPDEST PUSH0 DUP1 REVERT JUMPDEST PUSH0 DUP1 DUP4 PUSH1 0x1F DUP5 ADD SLT PUSH2 0x16F JUMPI PUSH2 0x16E PUSH2 0x14E JUMP JUMPDEST JUMPDEST DUP3 CALLDATALOAD SWAP1 POP PUSH8 0xFFFFFFFFFFFFFFFF DUP2 GT ISZERO PUSH2 0x18C JUMPI PUSH2 0x18B PUSH2 0x152 JUMP JUMPDEST JUMPDEST PUSH1 0x20 DUP4 ADD SWAP2 POP DUP4 PUSH1 0x1 DUP3 MUL DUP4 ADD GT ISZERO PUSH2 0x1A8 JUMPI PUSH2 0x1A7 PUSH2 0x156 JUMP JUMPDEST JUMPDEST SWAP3 POP SWAP3 SWAP1 POP JUMP JUMPDEST PUSH0 DUP1 PUSH1 0x20 DUP4 DUP6 SUB SLT ISZERO PUSH2 0x1C5 JUMPI PUSH2 0x1C4 PUSH2 0x146 JUMP JUMPDEST JUMPDEST PUSH0 DUP4 ADD CALLDATALOAD PUSH8 0xFFFFFFFFFFFFFFFF DUP2 GT ISZERO PUSH2 0x1E2 JUMPI PUSH2 0x1E1 PUSH2 0x14A JUMP JUMPDEST JUMPDEST PUSH2 0x1EE DUP6 DUP3 DUP7 ADD PUSH2 0x15A JUMP JUMPDEST SWAP3 POP SWAP3 POP POP SWAP3 POP SWAP3 SWAP1 POP JUMP JUMPDEST PUSH0 DUP2 SWAP1 POP SWAP2 SWAP1 POP JUMP JUMPDEST PUSH2 0x20C DUP2 PUSH2 0x1FA JUMP JUMPDEST DUP3 MSTORE POP POP JUMP JUMPDEST PUSH0 PUSH1 0x20 DUP3 ADD SWAP1 POP PUSH2 0x225 PUSH0 DUP4 ADD DUP5 PUSH2 0x203 JUMP JUMPDEST SWAP3 SWAP2 POP POP JUMP JUMPDEST PUSH0 DUP1 REVERT JUMPDEST PUSH0 PUSH1 0x1F NOT PUSH1 0x1F DUP4 ADD AND SWAP1 POP SWAP2 SWAP1 POP JUMP JUMPDEST PUSH32 0x4E487B7100000000000000000000000000000000000000000000000000000000 PUSH0 MSTORE PUSH1 0x41 PUSH1 0x4 MSTORE PUSH1 0x24 PUSH0 REVERT JUMPDEST PUSH2 0x275 DUP3 PUSH2 0x22F JUMP JUMPDEST DUP2 ADD DUP2 DUP2 LT PUSH8 0xFFFFFFFFFFFFFFFF DUP3 GT OR ISZERO PUSH2 0x294 JUMPI PUSH2 0x293 PUSH2 0x23F JUMP JUMPDEST JUMPDEST DUP1 PUSH1 0x40 MSTORE POP POP POP JUMP JUMPDEST PUSH0 PUSH2 0x2A6 PUSH2 0x13D JUMP JUMPDEST SWAP1 POP PUSH2 0x2B2 DUP3 DUP3 PUSH2 0x26C JUMP JUMPDEST SWAP2 SWAP1 POP JUMP JUMPDEST PUSH0 PUSH8 0xFFFFFFFFFFFFFFFF DUP3 GT ISZERO PUSH2 0x2D1 JUMPI PUSH2 0x2D0 PUSH2 0x23F JUMP JUMPDEST JUMPDEST PUSH2 0x2DA DUP3 PUSH2 0x22F JUMP JUMPDEST SWAP1 POP PUSH1 0x20 DUP2 ADD SWAP1 POP SWAP2 SWAP1 POP JUMP JUMPDEST DUP3 DUP2 DUP4 CALLDATACOPY PUSH0 DUP4 DUP4 ADD MSTORE POP POP POP JUMP JUMPDEST PUSH0 PUSH2 0x307 PUSH2 0x302 DUP5 PUSH2 0x2B7 JUMP JUMPDEST PUSH2 0x29D JUMP JUMPDEST SWAP1 POP DUP3 DUP2 MSTORE PUSH1 0x20 DUP2 ADD DUP5 DUP5 DUP5 ADD GT ISZERO PUSH2 0x323 JUMPI PUSH2 0x322 PUSH2 0x22B JUMP JUMPDEST JUMPDEST PUSH2 0x32E DUP5 DUP3 DUP6 PUSH2 0x2E7 JUMP JUMPDEST POP SWAP4 SWAP3 POP POP POP JUMP JUMPDEST PUSH0 DUP3 PUSH1 0x1F DUP4 ADD SLT PUSH2 0x34A JUMPI PUSH2 0x349 PUSH2 0x14E JUMP JUMPDEST JUMPDEST DUP2 CALLDATALOAD PUSH2 0x35A DUP5 DUP3 PUSH1 0x20 DUP7 ADD PUSH2 0x2F5 JUMP JUMPDEST SWAP2 POP POP SWAP3 SWAP2 POP POP JUMP JUMPDEST PUSH0 PUSH1 0x20 DUP3 DUP5 SUB SLT ISZERO PUSH2 0x378 JUMPI PUSH2 0x377 PUSH2 0x146 JUMP JUMPDEST JUMPDEST PUSH0 DUP3 ADD CALLDATALOAD PUSH8 0xFFFFFFFFFFFFFFFF DUP2 GT ISZERO PUSH2 0x395 JUMPI PUSH2 0x394 PUSH2 0x14A JUMP JUMPDEST JUMPDEST PUSH2 0x3A1 DUP5 DUP3 DUP6 ADD PUSH2 0x336 JUMP JUMPDEST SWAP2 POP POP SWAP3 SWAP2 POP POP JUMP JUMPDEST PUSH2 0x3B3 DUP2 PUSH2 0x1FA JUMP JUMPDEST DUP2 EQ PUSH2 0x3BD JUMPI PUSH0 DUP1 REVERT JUMPDEST POP JUMP JUMPDEST PUSH0 DUP2 CALLDATALOAD SWAP1 POP PUSH2 0x3CE DUP2 PUSH2 0x3AA JUMP JUMPDEST SWAP3 SWAP2 POP POP JUMP JUMPDEST PUSH0 DUP1 PUSH0 PUSH1 0x40 DUP5 DUP7 SUB SLT ISZERO PUSH2 0x3EB JUMPI PUSH2 0x3EA PUSH2 0x146 JUMP JUMPDEST JUMPDEST PUSH0 DUP5 ADD CALLDATALOAD PUSH8 0xFFFFFFFFFFFFFFFF DUP2 GT ISZERO PUSH2 0x408 JUMPI PUSH2 0x407 PUSH2 0x14A JUMP JUMPDEST JUMPDEST PUSH2 0x414 DUP7 DUP3 DUP8 ADD PUSH2 0x15A JUMP JUMPDEST SWAP4 POP SWAP4 POP POP PUSH1 0x20 PUSH2 0x427 DUP7 DUP3 DUP8 ADD PUSH2 0x3C0 JUMP JUMPDEST SWAP2 POP POP SWAP3 POP SWAP3 POP SWAP3 JUMP JUMPDEST PUSH0 DUP2 SWAP1 POP SWAP3 SWAP2 POP POP JUMP JUMPDEST PUSH0 PUSH2 0x446 DUP4 DUP6 PUSH2 0x431 JUMP JUMPDEST SWAP4 POP PUSH2 0x453 DUP4 DUP6 DUP5 PUSH2 0x2E7 JUMP JUMPDEST DUP3 DUP5 ADD SWAP1 POP SWAP4 SWAP3 POP POP POP JUMP JUMPDEST PUSH0 PUSH2 0x46B DUP3 DUP5 DUP7 PUSH2 0x43B JUMP JUMPDEST SWAP2 POP DUP2 SWAP1 POP SWAP4 SWAP3 POP POP POP JUMP INVALID LOG2 PUSH5 0x6970667358 0x22 SLT KECCAK256 0x2A 0x4B 0x22 TSTORE 0xD9 PUSH30 0xAD41453AA5136E3BED814E6C5CCA53EA9B89A2908F3845D0FEB64736F6C PUSH4 0x4300081A STOP CALLER "
				},
				"gasEstimates": {
					"creation": {
						"codeDepositCost": "239400",
						"executionCost": "279",
						"totalCost": "239679"
					},
					"external": {
						"addMapping(string,uint256)": "infinite",
						"ages(string)": "infinite",
						"getMapping(string)": "infinite"
					}
				},
				"methodIdentifiers": {
					"addMapping(string,uint256)": "bf79afcf",
					"ages(string)": "6dcfe452",
					"getMapping(string)": "11f45e9c"
				}
			},
			"storageLayout": {
				"storage": [
					{
						"astId": 5,
						"contract": "week5_practice/ex5_1.sol:Ex5_1",
						"label": "ages",
						"offset": 0,
						"slot": "0",
						"type": "t_mapping(t_string_memory_ptr,t_uint256)"
					}
				],
				"types": {
					"t_mapping(t_string_memory_ptr,t_uint256)": {
						"encoding": "mapping",
						"key": "t_string_memory_ptr",
						"label": "mapping(string => uint256)",
						"numberOfBytes": "32",
						"value": "t_uint256"
					},
					"t_string_memory_ptr": {
						"encoding": "bytes",
						"label": "string",
						"numberOfBytes": "32"
					},
					"t_uint256": {
						"encoding": "inplace",
						"label": "uint256",
						"numberOfBytes": "32"
					}
				}
			},
			"userdoc": {
				"kind": "user",
				"methods": {},
				"version": 1
			}
		}
	}
}