{
  "contractName": "Ballot",
  "abi": [
    {
      "inputs": [
        {
          "internalType": "uint256",
          "name": "numProposals",
          "type": "uint256"
        }
      ],
      "stateMutability": "nonpayable",
      "type": "constructor"
    },
    {
      "inputs": [
        {
          "internalType": "uint256",
          "name": "",
          "type": "uint256"
        }
      ],
      "name": "proposals",
      "outputs": [
        {
          "internalType": "uint256",
          "name": "voteCount",
          "type": "uint256"
        }
      ],
      "stateMutability": "view",
      "type": "function",
      "constant": true
    },
    {
      "inputs": [
        {
          "internalType": "address",
          "name": "",
          "type": "address"
        }
      ],
      "name": "voters",
      "outputs": [
        {
          "internalType": "uint256",
          "name": "weight",
          "type": "uint256"
        },
        {
          "internalType": "bool",
          "name": "voted",
          "type": "bool"
        },
        {
          "internalType": "uint256",
          "name": "vote",
          "type": "uint256"
        }
      ],
      "stateMutability": "view",
      "type": "function",
      "constant": true
    },
    {
      "inputs": [
        {
          "internalType": "address",
          "name": "_address",
          "type": "address"
        }
      ],
      "name": "register",
      "outputs": [],
      "stateMutability": "nonpayable",
      "type": "function"
    },
    {
      "inputs": [
        {
          "internalType": "uint256",
          "name": "num",
          "type": "uint256"
        }
      ],
      "name": "vote",
      "outputs": [],
      "stateMutability": "nonpayable",
      "type": "function"
    },
    {
      "inputs": [],
      "name": "reqWinner",
      "outputs": [
        {
          "internalType": "uint256",
          "name": "index",
          "type": "uint256"
        }
      ],
      "stateMutability": "view",
      "type": "function",
      "constant": true
    }
  ],
  "bytecode": "0x608060405234801561001057600080fd5b50604051610c1a380380610c1a8339818101604052810190610032919061011b565b336000806101000a81548173ffffffffffffffffffffffffffffffffffffffff021916908373ffffffffffffffffffffffffffffffffffffffff16021790555060005b818110156100d9576000604051806020016040528060008152509050600281908060018154018082558091505060019003906000526020600020016000909190919091506000820151816000015550505080806100d190610177565b915050610075565b50506101bf565b600080fd5b6000819050919050565b6100f8816100e5565b811461010357600080fd5b50565b600081519050610115816100ef565b92915050565b600060208284031215610131576101306100e0565b5b600061013f84828501610106565b91505092915050565b7f4e487b7100000000000000000000000000000000000000000000000000000000600052601160045260246000fd5b6000610182826100e5565b91507fffffffffffffffffffffffffffffffffffffffffffffffffffffffffffffffff82036101b4576101b3610148565b5b600182019050919050565b610a4c806101ce6000396000f3fe608060405234801561001057600080fd5b50600436106100575760003560e01c80630121b93f1461005c578063013cf08b146100785780634420e486146100a8578063508b30c9146100c4578063a3ec138d146100e2575b600080fd5b610076600480360381019061007191906105fb565b610114565b005b610092600480360381019061008d91906105fb565b610353565b60405161009f9190610637565b60405180910390f35b6100c260048036038101906100bd91906106b0565b61037d565b005b6100cc610509565b6040516100d99190610637565b60405180910390f35b6100fc60048036038101906100f791906106b0565b610589565b60405161010b939291906106f8565b60405180910390f35b6000600160003373ffffffffffffffffffffffffffffffffffffffff1673ffffffffffffffffffffffffffffffffffffffff1681526020019081526020016000206000015411610199576040517f08c379a00000000000000000000000000000000000000000000000000000000081526004016101909061078c565b60405180910390fd5b60001515600160003373ffffffffffffffffffffffffffffffffffffffff1673ffffffffffffffffffffffffffffffffffffffff16815260200190815260200160002060010160009054906101000a900460ff1615151461022f576040517f08c379a0000000000000000000000000000000000000000000000000000000008152600401610226906107f8565b60405180910390fd5b6002805490508110610276576040517f08c379a000000000000000000000000000000000000000000000000000000000815260040161026d9061088a565b60405180910390fd5b60016002828154811061028c5761028b6108aa565b5b9060005260206000200160000160008282546102a89190610908565b9250508190555060018060003373ffffffffffffffffffffffffffffffffffffffff1673ffffffffffffffffffffffffffffffffffffffff16815260200190815260200160002060010160006101000a81548160ff02191690831515021790555080600160003373ffffffffffffffffffffffffffffffffffffffff1673ffffffffffffffffffffffffffffffffffffffff1681526020019081526020016000206002018190555050565b6002818154811061036357600080fd5b906000526020600020016000915090508060000154905081565b3373ffffffffffffffffffffffffffffffffffffffff1660008054906101000a900473ffffffffffffffffffffffffffffffffffffffff1673ffffffffffffffffffffffffffffffffffffffff161461040b576040517f08c379a0000000000000000000000000000000000000000000000000000000008152600401610402906109ae565b60405180910390fd5b60006040518060600160405280600181526020016000151581526020016000815250905060008054906101000a900473ffffffffffffffffffffffffffffffffffffffff1673ffffffffffffffffffffffffffffffffffffffff168273ffffffffffffffffffffffffffffffffffffffff160361048e5760028160000181815250505b80600160008473ffffffffffffffffffffffffffffffffffffffff1673ffffffffffffffffffffffffffffffffffffffff1681526020019081526020016000206000820151816000015560208201518160010160006101000a81548160ff021916908315150217905550604082015181600201559050505050565b6000806000905060005b600280549050811015610584578160028281548110610535576105346108aa565b5b90600052602060002001600001541115610571576002818154811061055d5761055c6108aa565b5b906000526020600020016000015491508092505b808061057c906109ce565b915050610513565b505090565b60016020528060005260406000206000915090508060000154908060010160009054906101000a900460ff16908060020154905083565b600080fd5b6000819050919050565b6105d8816105c5565b81146105e357600080fd5b50565b6000813590506105f5816105cf565b92915050565b600060208284031215610611576106106105c0565b5b600061061f848285016105e6565b91505092915050565b610631816105c5565b82525050565b600060208201905061064c6000830184610628565b92915050565b600073ffffffffffffffffffffffffffffffffffffffff82169050919050565b600061067d82610652565b9050919050565b61068d81610672565b811461069857600080fd5b50565b6000813590506106aa81610684565b92915050565b6000602082840312156106c6576106c56105c0565b5b60006106d48482850161069b565b91505092915050565b60008115159050919050565b6106f2816106dd565b82525050565b600060608201905061070d6000830186610628565b61071a60208301856106e9565b6107276040830184610628565b949350505050565b600082825260208201905092915050565b7f4572726f723a2063616c6c6572206973206e6f742074686520766f7465722e00600082015250565b6000610776601f8361072f565b915061078182610740565b602082019050919050565b600060208201905081810360008301526107a581610769565b9050919050565b7f4572726f723a20596f75206861766520616c726561647920766f7465642e0000600082015250565b60006107e2601e8361072f565b91506107ed826107ac565b602082019050919050565b60006020820190508181036000830152610811816107d5565b9050919050565b7f4572726f723a2050726f706f73616c20696e646578206973206f7574206f662060008201527f72616e67652e0000000000000000000000000000000000000000000000000000602082015250565b600061087460268361072f565b915061087f82610818565b604082019050919050565b600060208201905081810360008301526108a381610867565b9050919050565b7f4e487b7100000000000000000000000000000000000000000000000000000000600052603260045260246000fd5b7f4e487b7100000000000000000000000000000000000000000000000000000000600052601160045260246000fd5b6000610913826105c5565b915061091e836105c5565b9250828201905080821115610936576109356108d9565b5b92915050565b7f4572726f723a2063616c6c6572206973206e6f74207468652063686169726d6160008201527f696e2e0000000000000000000000000000000000000000000000000000000000602082015250565b600061099860238361072f565b91506109a38261093c565b604082019050919050565b600060208201905081810360008301526109c78161098b565b9050919050565b60006109d9826105c5565b91507fffffffffffffffffffffffffffffffffffffffffffffffffffffffffffffffff8203610a0b57610a0a6108d9565b5b60018201905091905056fea2646970667358221220907ccb8d0b5ae9c2dfffe4b2932b0e3b7443f7b9e11897c2a14638ffefa0462964736f6c63430008130033",
  "immutableReferences": {},
  "source": "// SPDX-License-Identifier: GPL-3.0\npragma solidity >=0.7.0 <0.9.0;\n\ncontract Ballot {\n    struct Voter{\n        uint weight;\n        bool voted;\n        uint vote;\n    }\n    struct Proposal{// \n        uint voteCount;\n    }\n    address chairperson;\n    mapping (address=>Voter) public voters; // ->\n    Proposal[] public proposals; //  \n\n    constructor(uint numProposals){\n        chairperson=msg.sender;\n        for(uint i=0;i<numProposals;i++){\n            Proposal memory tmp=Proposal(0);\n            proposals.push(tmp);\n        }\n    }\n\n    modifier onlyChair(){\n        require(chairperson==msg.sender,\"Error: caller is not the chairmain.\");\n        _;\n    }\n\n    modifier validVoter() {\n        require(voters[msg.sender].weight>0,\"Error: caller is not the voter.\");\n        _;\n    }\n\n    function register (address _address) public onlyChair() {\n        Voter memory tmp=Voter(1,false,0);\n        if(_address==chairperson){\n            tmp.weight=2;\n        }\n        voters[_address]=tmp;\n    }\n    function vote(uint num) public validVoter(){\n        require(voters[msg.sender].voted==false,\"Error: You have already voted.\");\n        require(num<proposals.length, \"Error: Proposal index is out of range.\");\n        proposals[num].voteCount+=1; // \n        voters[msg.sender].voted=true; // \n        voters[msg.sender].vote=num;\n    }\n    function reqWinner() public view returns(uint index){\n        uint maxNum=0;\n        for(uint i=0;i<proposals.length;i++){\n            if(proposals[i].voteCount>maxNum){\n                maxNum=proposals[i].voteCount;\n                index=i;\n            }\n        }\n    }\n}",
  "sourcePath": "C:\\Users\\wjddb\\Desktop\\24-2\\blockchain\\ballot\\ballot-contract\\contracts\\Ballot.sol",
  "compiler": {
    "name": "solc",
    "version": "0.8.19+commit.7dd6d404.Emscripten.clang"
  },
  "schemaVersion": "3.4.16",
  "updatedAt": "2024-11-18T05:17:07.286Z",
  "networkType": "ethereum",
  "devdoc": {
    "kind": "dev",
    "methods": {},
    "version": 1
  },
  "userdoc": {
    "kind": "user",
    "methods": {},
    "version": 1
  }
}